{"contracts/DIAPAgentNetwork.sol":{"DIAPAgentNetwork":{"abi":[{"anonymous":false,"inputs":[{"indexed":false,"internalType":"address","name":"previousAdmin","type":"address"},{"indexed":false,"internalType":"address","name":"newAdmin","type":"address"}],"name":"AdminChanged","type":"event"},{"anonymous":false,"inputs":[{"indexed":true,"internalType":"address","name":"agent","type":"address"},{"indexed":false,"internalType":"string","name":"didDocument","type":"string"},{"indexed":false,"internalType":"uint256","name":"stakedAmount","type":"uint256"}],"name":"AgentRegistered","type":"event"},{"anonymous":false,"inputs":[{"indexed":true,"internalType":"address","name":"agent","type":"address"},{"indexed":false,"internalType":"bool","name":"isVerified","type":"bool"}],"name":"AgentVerified","type":"event"},{"anonymous":false,"inputs":[{"indexed":true,"internalType":"address","name":"beacon","type":"address"}],"name":"BeaconUpgraded","type":"event"},{"anonymous":false,"inputs":[{"indexed":false,"internalType":"uint8","name":"version","type":"uint8"}],"name":"Initialized","type":"event"},{"anonymous":false,"inputs":[{"indexed":true,"internalType":"bytes32","name":"messageId","type":"bytes32"},{"indexed":false,"internalType":"address","name":"from","type":"address"},{"indexed":false,"internalType":"address","name":"to","type":"address"},{"indexed":false,"internalType":"uint256","name":"fee","type":"uint256"}],"name":"MessageSent","type":"event"},{"anonymous":false,"inputs":[{"indexed":true,"internalType":"address","name":"previousOwner","type":"address"},{"indexed":true,"internalType":"address","name":"newOwner","type":"address"}],"name":"OwnershipTransferred","type":"event"},{"anonymous":false,"inputs":[{"indexed":false,"internalType":"address","name":"account","type":"address"}],"name":"Paused","type":"event"},{"anonymous":false,"inputs":[{"indexed":true,"internalType":"address","name":"agent","type":"address"},{"indexed":false,"internalType":"uint256","name":"oldReputation","type":"uint256"},{"indexed":false,"internalType":"uint256","name":"newReputation","type":"uint256"}],"name":"ReputationUpdated","type":"event"},{"anonymous":false,"inputs":[{"indexed":false,"internalType":"uint256","name":"totalAmount","type":"uint256"},{"indexed":false,"internalType":"uint256","name":"timestamp","type":"uint256"}],"name":"RewardsDistributed","type":"event"},{"anonymous":false,"inputs":[{"indexed":true,"internalType":"uint256","name":"serviceId","type":"uint256"},{"indexed":false,"internalType":"string","name":"resultCID","type":"string"},{"indexed":false,"internalType":"uint256","name":"reward","type":"uint256"}],"name":"ServiceCompleted","type":"event"},{"anonymous":false,"inputs":[{"indexed":true,"internalType":"uint256","name":"serviceId","type":"uint256"},{"indexed":false,"internalType":"address","name":"provider","type":"address"},{"indexed":false,"internalType":"address","name":"consumer","type":"address"},{"indexed":false,"internalType":"uint256","name":"price","type":"uint256"}],"name":"ServiceCreated","type":"event"},{"anonymous":false,"inputs":[{"indexed":false,"internalType":"address","name":"account","type":"address"}],"name":"Unpaused","type":"event"},{"anonymous":false,"inputs":[{"indexed":true,"internalType":"address","name":"implementation","type":"address"}],"name":"Upgraded","type":"event"},{"inputs":[{"internalType":"address","name":"","type":"address"}],"name":"agents","outputs":[{"internalType":"string","name":"didDocument","type":"string"},{"internalType":"string","name":"publicKey","type":"string"},{"internalType":"uint256","name":"reputation","type":"uint256"},{"internalType":"bool","name":"isActive","type":"bool"},{"internalType":"uint256","name":"registrationTime","type":"uint256"},{"internalType":"uint256","name":"lastActivity","type":"uint256"},{"internalType":"uint256","name":"stakedAmount","type":"uint256"},{"internalType":"uint256","name":"totalEarnings","type":"uint256"},{"internalType":"uint256","name":"totalServices","type":"uint256"},{"internalType":"bool","name":"isVerified","type":"bool"}],"stateMutability":"view","type":"function"},{"inputs":[{"internalType":"uint256","name":"serviceId","type":"uint256"},{"internalType":"string","name":"resultCID","type":"string"}],"name":"completeService","outputs":[],"stateMutability":"nonpayable","type":"function"},{"inputs":[{"internalType":"address","name":"consumer","type":"address"},{"internalType":"string","name":"serviceType","type":"string"},{"internalType":"uint256","name":"price","type":"uint256"}],"name":"createService","outputs":[],"stateMutability":"nonpayable","type":"function"},{"inputs":[{"internalType":"string","name":"","type":"string"}],"name":"didToAgent","outputs":[{"internalType":"address","name":"","type":"address"}],"stateMutability":"view","type":"function"},{"inputs":[],"name":"distributeRewards","outputs":[],"stateMutability":"nonpayable","type":"function"},{"inputs":[{"internalType":"address","name":"agent","type":"address"}],"name":"getAgent","outputs":[{"components":[{"internalType":"string","name":"didDocument","type":"string"},{"internalType":"string","name":"publicKey","type":"string"},{"internalType":"uint256","name":"reputation","type":"uint256"},{"internalType":"bool","name":"isActive","type":"bool"},{"internalType":"uint256","name":"registrationTime","type":"uint256"},{"internalType":"uint256","name":"lastActivity","type":"uint256"},{"internalType":"uint256","name":"stakedAmount","type":"uint256"},{"internalType":"uint256","name":"totalEarnings","type":"uint256"},{"internalType":"uint256","name":"totalServices","type":"uint256"},{"internalType":"bool","name":"isVerified","type":"bool"}],"internalType":"struct DIAPAgentNetwork.Agent","name":"","type":"tuple"}],"stateMutability":"view","type":"function"},{"inputs":[{"internalType":"bytes32","name":"messageId","type":"bytes32"}],"name":"getMessage","outputs":[{"components":[{"internalType":"address","name":"fromAgent","type":"address"},{"internalType":"address","name":"toAgent","type":"address"},{"internalType":"string","name":"messageCID","type":"string"},{"internalType":"uint256","name":"timestamp","type":"uint256"},{"internalType":"bool","name":"isVerified","type":"bool"},{"internalType":"uint256","name":"fee","type":"uint256"}],"internalType":"struct DIAPAgentNetwork.Message","name":"","type":"tuple"}],"stateMutability":"view","type":"function"},{"inputs":[],"name":"getNetworkStats","outputs":[{"internalType":"uint256","name":"_totalAgents","type":"uint256"},{"internalType":"uint256","name":"_totalMessages","type":"uint256"},{"internalType":"uint256","name":"_totalServices","type":"uint256"},{"internalType":"uint256","name":"_totalVolume","type":"uint256"},{"internalType":"uint256","name":"_totalRewards","type":"uint256"}],"stateMutability":"view","type":"function"},{"inputs":[{"internalType":"uint256","name":"serviceId","type":"uint256"}],"name":"getService","outputs":[{"components":[{"internalType":"address","name":"provider","type":"address"},{"internalType":"address","name":"consumer","type":"address"},{"internalType":"string","name":"serviceType","type":"string"},{"internalType":"uint256","name":"price","type":"uint256"},{"internalType":"uint256","name":"timestamp","type":"uint256"},{"internalType":"bool","name":"isCompleted","type":"bool"},{"internalType":"string","name":"resultCID","type":"string"}],"internalType":"struct DIAPAgentNetwork.Service","name":"","type":"tuple"}],"stateMutability":"view","type":"function"},{"inputs":[],"name":"initialize","outputs":[],"stateMutability":"nonpayable","type":"function"},{"inputs":[],"name":"lastRewardTime","outputs":[{"internalType":"uint256","name":"","type":"uint256"}],"stateMutability":"view","type":"function"},{"inputs":[],"name":"messageFee","outputs":[{"internalType":"uint256","name":"","type":"uint256"}],"stateMutability":"view","type":"function"},{"inputs":[{"internalType":"bytes32","name":"","type":"bytes32"}],"name":"messages","outputs":[{"internalType":"address","name":"fromAgent","type":"address"},{"internalType":"address","name":"toAgent","type":"address"},{"internalType":"string","name":"messageCID","type":"string"},{"internalType":"uint256","name":"timestamp","type":"uint256"},{"internalType":"bool","name":"isVerified","type":"bool"},{"internalType":"uint256","name":"fee","type":"uint256"}],"stateMutability":"view","type":"function"},{"inputs":[],"name":"minStakeAmount","outputs":[{"internalType":"uint256","name":"","type":"uint256"}],"stateMutability":"view","type":"function"},{"inputs":[],"name":"owner","outputs":[{"internalType":"address","name":"","type":"address"}],"stateMutability":"view","type":"function"},{"inputs":[],"name":"pause","outputs":[],"stateMutability":"nonpayable","type":"function"},{"inputs":[],"name":"paused","outputs":[{"internalType":"bool","name":"","type":"bool"}],"stateMutability":"view","type":"function"},{"inputs":[],"name":"proxiableUUID","outputs":[{"internalType":"bytes32","name":"","type":"bytes32"}],"stateMutability":"view","type":"function"},{"inputs":[{"internalType":"string","name":"didDocument","type":"string"},{"internalType":"string","name":"publicKey","type":"string"},{"internalType":"uint256","name":"stakedAmount","type":"uint256"}],"name":"registerAgent","outputs":[],"stateMutability":"payable","type":"function"},{"inputs":[],"name":"registrationFee","outputs":[{"internalType":"uint256","name":"","type":"uint256"}],"stateMutability":"view","type":"function"},{"inputs":[],"name":"renounceOwnership","outputs":[],"stateMutability":"nonpayable","type":"function"},{"inputs":[],"name":"reputationThreshold","outputs":[{"internalType":"uint256","name":"","type":"uint256"}],"stateMutability":"view","type":"function"},{"inputs":[],"name":"rewardRate","outputs":[{"internalType":"uint256","name":"","type":"uint256"}],"stateMutability":"view","type":"function"},{"inputs":[{"internalType":"address","name":"toAgent","type":"address"},{"internalType":"string","name":"messageCID","type":"string"}],"name":"sendMessage","outputs":[],"stateMutability":"payable","type":"function"},{"inputs":[],"name":"serviceFeeRate","outputs":[{"internalType":"uint256","name":"","type":"uint256"}],"stateMutability":"view","type":"function"},{"inputs":[{"internalType":"uint256","name":"","type":"uint256"}],"name":"services","outputs":[{"internalType":"address","name":"provider","type":"address"},{"internalType":"address","name":"consumer","type":"address"},{"internalType":"string","name":"serviceType","type":"string"},{"internalType":"uint256","name":"price","type":"uint256"},{"internalType":"uint256","name":"timestamp","type":"uint256"},{"internalType":"bool","name":"isCompleted","type":"bool"},{"internalType":"string","name":"resultCID","type":"string"}],"stateMutability":"view","type":"function"},{"inputs":[{"internalType":"uint256","name":"_fee","type":"uint256"}],"name":"setMessageFee","outputs":[],"stateMutability":"nonpayable","type":"function"},{"inputs":[{"internalType":"uint256","name":"_amount","type":"uint256"}],"name":"setMinStakeAmount","outputs":[],"stateMutability":"nonpayable","type":"function"},{"inputs":[{"internalType":"uint256","name":"_fee","type":"uint256"}],"name":"setRegistrationFee","outputs":[],"stateMutability":"nonpayable","type":"function"},{"inputs":[{"internalType":"uint256","name":"_rate","type":"uint256"}],"name":"setRewardRate","outputs":[],"stateMutability":"nonpayable","type":"function"},{"inputs":[{"internalType":"uint256","name":"_rate","type":"uint256"}],"name":"setServiceFeeRate","outputs":[],"stateMutability":"nonpayable","type":"function"},{"inputs":[],"name":"totalAgents","outputs":[{"internalType":"uint256","name":"","type":"uint256"}],"stateMutability":"view","type":"function"},{"inputs":[],"name":"totalMessages","outputs":[{"internalType":"uint256","name":"","type":"uint256"}],"stateMutability":"view","type":"function"},{"inputs":[],"name":"totalRewards","outputs":[{"internalType":"uint256","name":"","type":"uint256"}],"stateMutability":"view","type":"function"},{"inputs":[],"name":"totalServices","outputs":[{"internalType":"uint256","name":"","type":"uint256"}],"stateMutability":"view","type":"function"},{"inputs":[],"name":"totalVolume","outputs":[{"internalType":"uint256","name":"","type":"uint256"}],"stateMutability":"view","type":"function"},{"inputs":[{"internalType":"address","name":"newOwner","type":"address"}],"name":"transferOwnership","outputs":[],"stateMutability":"nonpayable","type":"function"},{"inputs":[],"name":"unpause","outputs":[],"stateMutability":"nonpayable","type":"function"},{"inputs":[{"internalType":"address","name":"agent","type":"address"},{"internalType":"int256","name":"reputationChange","type":"int256"}],"name":"updateReputation","outputs":[],"stateMutability":"nonpayable","type":"function"},{"inputs":[{"internalType":"address","name":"newImplementation","type":"address"}],"name":"upgradeTo","outputs":[],"stateMutability":"nonpayable","type":"function"},{"inputs":[{"internalType":"address","name":"newImplementation","type":"address"},{"internalType":"bytes","name":"data","type":"bytes"}],"name":"upgradeToAndCall","outputs":[],"stateMutability":"payable","type":"function"},{"inputs":[{"internalType":"address","name":"agent","type":"address"},{"internalType":"uint256[8]","name":"proof","type":"uint256[8]"}],"name":"verifyAgent","outputs":[],"stateMutability":"nonpayable","type":"function"},{"stateMutability":"payable","type":"receive"}],"evm":{"bytecode":{"linkReferences":{},"object":"60a06040523060805234801561001457600080fd5b5060805161383461004c600039600081816109db01528181610a2401528181610ad501528181610b150152610ba801526138346000f3fe6080604052600436106102555760003560e01c80637b0a47ee11610139578063c5053712116100b6578063eb4af0451161007a578063eb4af045146106c4578063ef0e239b146106e4578063f188768414610711578063f2fde38b14610728578063fb3551ff14610748578063fd66091e1461077557600080fd5b8063c505371214610650578063d410e8ba14610667578063d420051d1461067e578063da6b03bc1461069e578063de6f24bb146106b157600080fd5b8063951166c0116100fd578063951166c0146105a65780639b1d3091146105bd5780639e447fc6146105dd578063c22c4f43146105fd578063c320c7271461063057600080fd5b80637b0a47ee146105305780638129fc1c146105475780638456cb591461055c5780638da5cb5b146105715780639231cf741461058f57600080fd5b806352d1902d116101d25780636301ac8f116101965780636301ac8f1461045557806367ee313d1461046c5780636a08b5111461048c5780636f4a2cd0146104ac578063702e827c146104c1578063715018a61461051b57600080fd5b806352d1902d146103cf5780635c975abb146103e45780635f81a57c146104075780636076cf551461041e57806361d1bc941461043e57600080fd5b80632bbd59ca116102195780632bbd59ca1461030c5780633659cfe61461033e5780633f4ba83a1461035e5780634a662f48146103735780634f1ef286146103bc57600080fd5b80630139a221146102615780630e15561a1461029757806314c44e09146102bc5780631a90a219146102d357806323aa2a9d146102ea57600080fd5b3661025c57005b600080fd5b34801561026d57600080fd5b5061028161027c366004612cc2565b6107ab565b60405161028e9190612d2b565b60405180910390f35b3480156102a357600080fd5b506102ae61013c5481565b60405190815260200161028e565b3480156102c857600080fd5b506102ae6101355481565b3480156102df57600080fd5b506102ae6101365481565b3480156102f657600080fd5b5061030a610305366004612cc2565b6108f2565b005b34801561031857600080fd5b5061032c610327366004612cc2565b610900565b60405161028e96959493929190612d93565b34801561034a57600080fd5b5061030a610359366004612df9565b6109d1565b34801561036a57600080fd5b5061030a610ab9565b34801561037f57600080fd5b506101315461013254610133546101345461013c54604080519586526020860194909452928401919091526060830152608082015260a00161028e565b61030a6103ca366004612ea0565b610acb565b3480156103db57600080fd5b506102ae610b9b565b3480156103f057600080fd5b5060fb5460ff16604051901515815260200161028e565b34801561041357600080fd5b506102ae6101345481565b34801561042a57600080fd5b5061030a610439366004612f4b565b610c4e565b34801561044a57600080fd5b506102ae6101375481565b34801561046157600080fd5b506102ae6101335481565b34801561047857600080fd5b5061030a610487366004612fa5565b610eeb565b34801561049857600080fd5b5061030a6104a7366004612ff1565b6111f6565b3480156104b857600080fd5b5061030a61133f565b3480156104cd57600080fd5b506105036104dc36600461301b565b805160208183018101805161012e825292820191909301209152546001600160a01b031681565b6040516001600160a01b03909116815260200161028e565b34801561052757600080fd5b5061030a611358565b34801561053c57600080fd5b506102ae61013a5481565b34801561055357600080fd5b5061030a61136a565b34801561056857600080fd5b5061030a6114d4565b34801561057d57600080fd5b506097546001600160a01b0316610503565b34801561059b57600080fd5b506102ae61013b5481565b3480156105b257600080fd5b506102ae6101325481565b3480156105c957600080fd5b5061030a6105d8366004612cc2565b6114e4565b3480156105e957600080fd5b5061030a6105f8366004612cc2565b611538565b34801561060957600080fd5b5061061d610618366004612cc2565b611546565b60405161028e9796959493929190613064565b34801561063c57600080fd5b5061030a61064b366004612cc2565b6116a8565b34801561065c57600080fd5b506102ae6101315481565b34801561067357600080fd5b506102ae6101395481565b34801561068a57600080fd5b5061030a6106993660046130c4565b6116b6565b61030a6106ac366004613101565b6118d1565b61030a6106bf366004613175565b611cb6565b3480156106d057600080fd5b5061030a6106df366004612cc2565b611fe1565b3480156106f057600080fd5b506107046106ff366004612cc2565b611fef565b60405161028e91906131af565b34801561071d57600080fd5b506102ae6101385481565b34801561073457600080fd5b5061030a610743366004612df9565b6121b1565b34801561075457600080fd5b50610768610763366004612df9565b612227565b60405161028e9190613232565b34801561078157600080fd5b50610795610790366004612df9565b61242d565b60405161028e9a999897969594939291906132e7565b6107f86040518060c0016040528060006001600160a01b0316815260200160006001600160a01b031681526020016060815260200160008152602001600015158152602001600081525090565b600082815261012f6020908152604091829020825160c08101845281546001600160a01b03908116825260018301541692810192909252600281018054929391929184019161084690613353565b80601f016020809104026020016040519081016040528092919081815260200182805461087290613353565b80156108bf5780601f10610894576101008083540402835291602001916108bf565b820191906000526020600020905b8154815290600101906020018083116108a257829003601f168201915b505050918352505060038201546020820152600482015460ff161515604082015260059091015460609091015292915050565b6108fa612595565b61013655565b61012f602052600090815260409020805460018201546002830180546001600160a01b0393841694929093169261093690613353565b80601f016020809104026020016040519081016040528092919081815260200182805461096290613353565b80156109af5780601f10610984576101008083540402835291602001916109af565b820191906000526020600020905b81548152906001019060200180831161099257829003601f168201915b50505050600383015460048401546005909401549293909260ff909116915086565b6001600160a01b037f0000000000000000000000000000000000000000000000000000000000000000163003610a225760405162461bcd60e51b8152600401610a199061338d565b60405180910390fd5b7f00000000000000000000000000000000000000000000000000000000000000006001600160a01b0316610a6b6000805160206137b8833981519152546001600160a01b031690565b6001600160a01b031614610a915760405162461bcd60e51b8152600401610a19906133d9565b610a9a816125ef565b60408051600080825260208201909252610ab6918391906125f7565b50565b610ac1612595565b610ac9612762565b565b6001600160a01b037f0000000000000000000000000000000000000000000000000000000000000000163003610b135760405162461bcd60e51b8152600401610a199061338d565b7f00000000000000000000000000000000000000000000000000000000000000006001600160a01b0316610b5c6000805160206137b8833981519152546001600160a01b031690565b6001600160a01b031614610b825760405162461bcd60e51b8152600401610a19906133d9565b610b8b826125ef565b610b97828260016125f7565b5050565b6000306001600160a01b037f00000000000000000000000000000000000000000000000000000000000000001614610c3b5760405162461bcd60e51b815260206004820152603860248201527f555550535570677261646561626c653a206d757374206e6f742062652063616c60448201527f6c6564207468726f7567682064656c656761746563616c6c00000000000000006064820152608401610a19565b506000805160206137b883398151915290565b33600090815261012d602052604090206009015460ff16610ca65760405162461bcd60e51b81526020600482015260126024820152711059d95b9d081b9bdd081d995c9a599a595960721b6044820152606401610a19565b610cae6127b4565b6001600160a01b038416600090815261012d602052604090206003015460ff16610d105760405162461bcd60e51b8152602060048201526013602482015272436f6e73756d6572206e6f742061637469766560681b6044820152606401610a19565b60008111610d505760405162461bcd60e51b815260206004820152600d60248201526c496e76616c696420707269636560981b6044820152606401610a19565b60006101335490506040518060e00160405280336001600160a01b03168152602001866001600160a01b0316815260200185858080601f01602080910402602001604051908101604052809392919081815260200183838082843760009201829052509385525050506020808301869052426040808501919091526060840183905280518083018252838152608090940193909352848252610130815290829020835181546001600160a01b03199081166001600160a01b0392831617835592850151600183018054909416911617909155908201516002820190610e359082613473565b50606082015160038201556080820151600482015560a082015160058201805460ff191691151591909117905560c08201516006820190610e769082613473565b5050610133805491506000610e8a83613549565b9091555050604080513381526001600160a01b038716602082015290810183905281907f06dec7c18c6d88222831a8e9c277ddd5ce160c41bc15314e7d93f6b45353d90f9060600160405180910390a250610ee5600160c955565b50505050565b33600090815261012d602052604090206009015460ff16610f435760405162461bcd60e51b81526020600482015260126024820152711059d95b9d081b9bdd081d995c9a599a595960721b6044820152606401610a19565b610f4b6127b4565b60008381526101306020526040902080546001600160a01b03163314610faa5760405162461bcd60e51b81526020600482015260146024820152732737ba1039b2b93b34b1b290383937bb34b232b960611b6044820152606401610a19565b600581015460ff1615610fff5760405162461bcd60e51b815260206004820152601960248201527f5365727669636520616c726561647920636f6d706c65746564000000000000006044820152606401610a19565b816110415760405162461bcd60e51b8152602060048201526012602482015271125b9d985b1a59081c995cdd5b1d0810d25160721b6044820152606401610a19565b60058101805460ff191660011790556006810161105f838583613562565b506000612710610137546127106110769190613622565b83600301546110859190613635565b61108f919061364c565b905060008183600301546110a39190613622565b33600090815261012d60205260408120600701805492935084929091906110cb90849061366e565b909155505033600090815261012d602052604081206008018054916110ef83613549565b909155505033600090815261012d602052604081206002018054600a929061111890849061366e565b90915550506003830154610134805460009061113590849061366e565b92505081905550857f58e249b9328bc8509283e8d24898ab201b6fd08cd489de5995fff808670b897c86868560405161117093929190613681565b60405180910390a233600081815261012d60205260409020600201547f5b88a2e3fc1a53234357ab78c104df11c33ccfa79886793654565ad70b8afb6e906111ba90600a90613622565b33600090815261012d6020908152604091829020600201548251938452908301520160405180910390a25050506111f1600160c955565b505050565b6111fe612595565b6001600160a01b038216600090815261012d602052604090206002015461271081111561126d5760405162461bcd60e51b815260206004820152601860248201527f496e76616c69642072657075746174696f6e2073636f726500000000000000006044820152606401610a19565b6001600160a01b038316600090815261012d602052604081206002015490808413156112b35761129d848361366e565b90506127108111156112ae57506127105b6112df565b60006112be856136ba565b90508281106112d057600091506112dd565b6112da8184613622565b91505b505b6001600160a01b038516600081815261012d602090815260409182902060020184905581518581529081018490527f5b88a2e3fc1a53234357ab78c104df11c33ccfa79886793654565ad70b8afb6e910160405180910390a25050505050565b611347612595565b600061013b5442610b979190613622565b611360612595565b610ac96000612814565b600054610100900460ff161580801561138a5750600054600160ff909116105b806113a45750303b1580156113a4575060005460ff166001145b6114075760405162461bcd60e51b815260206004820152602e60248201527f496e697469616c697a61626c653a20636f6e747261637420697320616c72656160448201526d191e481a5b9a5d1a585b1a5e995960921b6064820152608401610a19565b6000805460ff19166001179055801561142a576000805461ff0019166101001790555b611432612866565b61143a612895565b6114426128bc565b61144a6128eb565b68056bc75e2d6310000061013555670de0b6b3a76400006101365561012c61013755683635c9adc5dea00000610138556103e861013955600561013a554261013b558015610ab6576000805461ff0019169055604051600181527f7f26b83ff96e1f2b6a682f133852f6798a09c465da95921460cefb38474024989060200160405180910390a150565b6114dc612595565b610ac961291a565b6114ec612595565b6103e88111156115325760405162461bcd60e51b815260206004820152601160248201527008ccaca40e4c2e8ca40e8dede40d0d2ced607b1b6044820152606401610a19565b61013755565b611540612595565b61013a55565b610130602052600090815260409020805460018201546002830180546001600160a01b0393841694929093169261157c90613353565b80601f01602080910402602001604051908101604052809291908181526020018280546115a890613353565b80156115f55780601f106115ca576101008083540402835291602001916115f5565b820191906000526020600020905b8154815290600101906020018083116115d857829003601f168201915b5050506003840154600485015460058601546006870180549697939692955060ff90911693509061162590613353565b80601f016020809104026020016040519081016040528092919081815260200182805461165190613353565b801561169e5780601f106116735761010080835404028352916020019161169e565b820191906000526020600020905b81548152906001019060200180831161168157829003601f168201915b5050505050905087565b6116b0612595565b61013555565b6116be612595565b6001600160a01b038216600090815261012d602052604090206003015460ff166117215760405162461bcd60e51b81526020600482015260146024820152731059d95b9d081b9bdd081c9959da5cdd195c995960621b6044820152606401610a19565b6001600160a01b038216600090815261012d602052604090206009015460ff16156117875760405162461bcd60e51b81526020600482015260166024820152751059d95b9d08185b1c9958591e481d995c9a599a595960521b6044820152606401610a19565b80351515806117cc5760405162461bcd60e51b815260206004820152601160248201527024b73b30b634b2102d25a810383937b7b360791b6044820152606401610a19565b6001600160a01b038316600090815261012d6020526040812060098101805460ff1916600117905560020180546103e8929061180990849061366e565b9091555050604051600181526001600160a01b038416907fb0c56617ec919721f803618b5f53891e275c7aaddbdf3c17c45f3252854fa70b9060200160405180910390a26001600160a01b038316600081815261012d60205260409020600201547f5b88a2e3fc1a53234357ab78c104df11c33ccfa79886793654565ad70b8afb6e90611899906103e890613622565b6001600160a01b038616600090815261012d6020908152604091829020600201548251938452908301520160405180910390a2505050565b6118d96127b4565b6118e1612957565b33600090815261012d602052604090206003015460ff16156119455760405162461bcd60e51b815260206004820152601860248201527f4167656e7420616c7265616479207265676973746572656400000000000000006044820152606401610a19565b610138548110156119985760405162461bcd60e51b815260206004820152601960248201527f496e73756666696369656e74207374616b6520616d6f756e74000000000000006044820152606401610a19565b836119dc5760405162461bcd60e51b8152602060048201526014602482015273125b9d985b1a590811125108191bd8dd5b595b9d60621b6044820152606401610a19565b60006001600160a01b031661012e86866040516119fa9291906136d6565b908152604051908190036020019020546001600160a01b031614611a555760405162461bcd60e51b815260206004820152601260248201527144494420616c72656164792065786973747360701b6044820152606401610a19565b61013554341015611aa85760405162461bcd60e51b815260206004820152601d60248201527f496e73756666696369656e7420726567697374726174696f6e206665650000006044820152606401610a19565b60405180610140016040528086868080601f016020809104026020016040519081016040528093929190818152602001838380828437600092019190915250505090825250604080516020601f870181900481028201810190925285815291810191908690869081908401838280828437600092018290525093855250506103e860208085019190915260016040808601919091524260608601819052608086015260a0850187905260c0850184905260e0850184905261010090940183905233835261012d9052502081518190611b809082613473565b5060208201516001820190611b959082613473565b506040828101516002830155606083015160038301805491151560ff199283161790556080840151600484015560a0840151600584015560c0840151600684015560e0840151600784015561010084015160088401556101209093015160099092018054921515929093169190911790915551339061012e90611c1b90889088906136d6565b90815260405190819003602001902080546001600160a01b03929092166001600160a01b03199092169190911790556101318054906000611c5b83613549565b9190505550336001600160a01b03167f023c5efe572c42192271951adb0e77f97d7fc84bc761d026189ac08617346824868684604051611c9d93929190613681565b60405180910390a2611caf600160c955565b5050505050565b33600090815261012d602052604090206003015460ff16611d105760405162461bcd60e51b81526020600482015260146024820152731059d95b9d081b9bdd081c9959da5cdd195c995960621b6044820152606401610a19565b611d186127b4565b6001600160a01b038316600090815261012d602052604090206003015460ff16611d845760405162461bcd60e51b815260206004820152601760248201527f546172676574206167656e74206e6f74206163746976650000000000000000006044820152606401610a19565b61013654341015611dd75760405162461bcd60e51b815260206004820152601860248201527f496e73756666696369656e74206d6573736167652066656500000000000000006044820152606401610a19565b80611e1a5760405162461bcd60e51b8152602060048201526013602482015272125b9d985b1a59081b595cdcd859d94810d251606a1b6044820152606401610a19565b60003384848442604051602001611e359594939291906136e6565b60408051601f19818403018152828252805160209182012060c0840183523384526001600160a01b038816848301528251601f8701839004830281018301845286815290945091830191908690869081908401838280828437600092018290525093855250504260208085019190915260408085018490523460609095019490945285835261012f815291839020845181546001600160a01b03199081166001600160a01b039283161783559386015160018301805490951691161790925550908201516002820190611f089082613473565b5060608201516003820155608082015160048201805460ff191691151591909117905560a0909101516005909101556101328054906000611f4883613549565b9190505550346101346000828254611f60919061366e565b909155505033600081815261012d602090815260408083204260059182018190556001600160a01b038a168086529483902090910155805193845290830191909152349082015281907f3c20d4e8f42599eddf3cdb1184580d4ad4d4a3063dbd500a519f8fcf11ea24149060600160405180910390a2506111f1600160c955565b611fe9612595565b61013855565b6040805160e080820183526000808352602080840182905260608486018190528085018390526080850183905260a0850183905260c08501528582526101308152908490208451928301855280546001600160a01b0390811684526001820154169183019190915260028101805493949293919284019161206f90613353565b80601f016020809104026020016040519081016040528092919081815260200182805461209b90613353565b80156120e85780601f106120bd576101008083540402835291602001916120e8565b820191906000526020600020905b8154815290600101906020018083116120cb57829003601f168201915b50505091835250506003820154602082015260048201546040820152600582015460ff161515606082015260068201805460809092019161212890613353565b80601f016020809104026020016040519081016040528092919081815260200182805461215490613353565b80156121a15780601f10612176576101008083540402835291602001916121a1565b820191906000526020600020905b81548152906001019060200180831161218457829003601f168201915b5050505050815250509050919050565b6121b9612595565b6001600160a01b03811661221e5760405162461bcd60e51b815260206004820152602660248201527f4f776e61626c653a206e6577206f776e657220697320746865207a65726f206160448201526564647265737360d01b6064820152608401610a19565b610ab681612814565b61228160405180610140016040528060608152602001606081526020016000815260200160001515815260200160008152602001600081526020016000815260200160008152602001600081526020016000151581525090565b6001600160a01b038216600090815261012d602052604090819020815161014081019092528054829082906122b590613353565b80601f01602080910402602001604051908101604052809291908181526020018280546122e190613353565b801561232e5780601f106123035761010080835404028352916020019161232e565b820191906000526020600020905b81548152906001019060200180831161231157829003601f168201915b5050505050815260200160018201805461234790613353565b80601f016020809104026020016040519081016040528092919081815260200182805461237390613353565b80156123c05780601f10612395576101008083540402835291602001916123c0565b820191906000526020600020905b8154815290600101906020018083116123a357829003601f168201915b505050918352505060028201546020820152600382015460ff908116151560408301526004830154606083015260058301546080830152600683015460a0830152600783015460c0830152600883015460e083015260099092015490911615156101009091015292915050565b61012d6020526000908152604090208054819061244990613353565b80601f016020809104026020016040519081016040528092919081815260200182805461247590613353565b80156124c25780601f10612497576101008083540402835291602001916124c2565b820191906000526020600020905b8154815290600101906020018083116124a557829003601f168201915b5050505050908060010180546124d790613353565b80601f016020809104026020016040519081016040528092919081815260200182805461250390613353565b80156125505780601f1061252557610100808354040283529160200191612550565b820191906000526020600020905b81548152906001019060200180831161253357829003601f168201915b5050505060028301546003840154600485015460058601546006870154600788015460088901546009909901549798959760ff9586169750939592949193909291168a565b6097546001600160a01b03163314610ac95760405162461bcd60e51b815260206004820181905260248201527f4f776e61626c653a2063616c6c6572206973206e6f7420746865206f776e65726044820152606401610a19565b610ab6612595565b7f4910fdfa16fed3260ed0e7147f7cc6da11a60208b5b9406d12a635614ffd91435460ff161561262a576111f18361299d565b826001600160a01b03166352d1902d6040518163ffffffff1660e01b8152600401602060405180830381865afa925050508015612684575060408051601f3d908101601f1916820190925261268191810190613724565b60015b6126e75760405162461bcd60e51b815260206004820152602e60248201527f45524331393637557067726164653a206e657720696d706c656d656e7461746960448201526d6f6e206973206e6f74205555505360901b6064820152608401610a19565b6000805160206137b883398151915281146127565760405162461bcd60e51b815260206004820152602960248201527f45524331393637557067726164653a20756e737570706f727465642070726f786044820152681a58589b195555525160ba1b6064820152608401610a19565b506111f1838383612a39565b61276a612a5e565b60fb805460ff191690557f5db9ee0a495bf2e6ff9c91a7834c1ba4fdd244a5e8aa4e537bd38aeae4b073aa335b6040516001600160a01b03909116815260200160405180910390a1565b600260c954036128065760405162461bcd60e51b815260206004820152601f60248201527f5265656e7472616e637947756172643a207265656e7472616e742063616c6c006044820152606401610a19565b600260c955565b600160c955565b609780546001600160a01b038381166001600160a01b0319831681179093556040519116919082907f8be0079c531659141344cd1fd0a4f28419497f9722a3daafe3b4186f6b6457e090600090a35050565b600054610100900460ff1661288d5760405162461bcd60e51b8152600401610a199061373d565b610ac9612aa7565b600054610100900460ff16610ac95760405162461bcd60e51b8152600401610a199061373d565b600054610100900460ff166128e35760405162461bcd60e51b8152600401610a199061373d565b610ac9612ad7565b600054610100900460ff166129125760405162461bcd60e51b8152600401610a199061373d565b610ac9612afe565b612922612957565b60fb805460ff191660011790557f62e78cea01bee320cd4e420270b5ea74000d11b0c9f74754ebdbfc544b05a2586127973390565b60fb5460ff1615610ac95760405162461bcd60e51b815260206004820152601060248201526f14185d5cd8589b194e881c185d5cd95960821b6044820152606401610a19565b6001600160a01b0381163b612a0a5760405162461bcd60e51b815260206004820152602d60248201527f455243313936373a206e657720696d706c656d656e746174696f6e206973206e60448201526c1bdd08184818dbdb9d1c9858dd609a1b6064820152608401610a19565b6000805160206137b883398151915280546001600160a01b0319166001600160a01b0392909216919091179055565b612a4283612b31565b600082511180612a4f5750805b156111f157610ee58383612b71565b60fb5460ff16610ac95760405162461bcd60e51b815260206004820152601460248201527314185d5cd8589b194e881b9bdd081c185d5cd95960621b6044820152606401610a19565b600054610100900460ff16612ace5760405162461bcd60e51b8152600401610a199061373d565b610ac933612814565b600054610100900460ff1661280d5760405162461bcd60e51b8152600401610a199061373d565b600054610100900460ff16612b255760405162461bcd60e51b8152600401610a199061373d565b60fb805460ff19169055565b612b3a8161299d565b6040516001600160a01b038216907fbc7cd75a20ee27fd9adebab32041f755214dbc6bffa90cc0225b39da2e5c2d3b90600090a250565b6060612b9683836040518060600160405280602781526020016137d860279139612b9f565b90505b92915050565b6060600080856001600160a01b031685604051612bbc9190613788565b600060405180830381855af49150503d8060008114612bf7576040519150601f19603f3d011682016040523d82523d6000602084013e612bfc565b606091505b5091509150612c0d86838387612c17565b9695505050505050565b60608315612c86578251600003612c7f576001600160a01b0385163b612c7f5760405162461bcd60e51b815260206004820152601d60248201527f416464726573733a2063616c6c20746f206e6f6e2d636f6e74726163740000006044820152606401610a19565b5081612c90565b612c908383612c98565b949350505050565b815115612ca85781518083602001fd5b8060405162461bcd60e51b8152600401610a1991906137a4565b600060208284031215612cd457600080fd5b5035919050565b60005b83811015612cf6578181015183820152602001612cde565b50506000910152565b60008151808452612d17816020860160208601612cdb565b601f01601f19169290920160200192915050565b60208152600060018060a01b0380845116602084015280602085015116604084015250604083015160c06060840152612d6760e0840182612cff565b9050606084015160808401526080840151151560a084015260a084015160c08401528091505092915050565b6001600160a01b0387811682528616602082015260c060408201819052600090612dbf90830187612cff565b606083019590955250911515608083015260a0909101529392505050565b80356001600160a01b0381168114612df457600080fd5b919050565b600060208284031215612e0b57600080fd5b612b9682612ddd565b634e487b7160e01b600052604160045260246000fd5b600067ffffffffffffffff80841115612e4557612e45612e14565b604051601f8501601f19908116603f01168101908282118183101715612e6d57612e6d612e14565b81604052809350858152868686011115612e8657600080fd5b858560208301376000602087830101525050509392505050565b60008060408385031215612eb357600080fd5b612ebc83612ddd565b9150602083013567ffffffffffffffff811115612ed857600080fd5b8301601f81018513612ee957600080fd5b612ef885823560208401612e2a565b9150509250929050565b60008083601f840112612f1457600080fd5b50813567ffffffffffffffff811115612f2c57600080fd5b602083019150836020828501011115612f4457600080fd5b9250929050565b60008060008060608587031215612f6157600080fd5b612f6a85612ddd565b9350602085013567ffffffffffffffff811115612f8657600080fd5b612f9287828801612f02565b9598909750949560400135949350505050565b600080600060408486031215612fba57600080fd5b83359250602084013567ffffffffffffffff811115612fd857600080fd5b612fe486828701612f02565b9497909650939450505050565b6000806040838503121561300457600080fd5b61300d83612ddd565b946020939093013593505050565b60006020828403121561302d57600080fd5b813567ffffffffffffffff81111561304457600080fd5b8201601f8101841361305557600080fd5b612c9084823560208401612e2a565b6001600160a01b0388811682528716602082015260e06040820181905260009061309090830188612cff565b86606084015285608084015284151560a084015282810360c08401526130b68185612cff565b9a9950505050505050505050565b6000806101208084860312156130d957600080fd5b6130e284612ddd565b92508481850111156130f357600080fd5b506020830190509250929050565b60008060008060006060868803121561311957600080fd5b853567ffffffffffffffff8082111561313157600080fd5b61313d89838a01612f02565b9097509550602088013591508082111561315657600080fd5b5061316388828901612f02565b96999598509660400135949350505050565b60008060006040848603121561318a57600080fd5b61319384612ddd565b9250602084013567ffffffffffffffff811115612fd857600080fd5b60208152600060018060a01b0380845116602084015280602085015116604084015250604083015160e060608401526131ec610100840182612cff565b905060608401516080840152608084015160a084015260a0840151151560c084015260c0840151601f198483030160e08501526132298282612cff565b95945050505050565b6020815260008251610140806020850152613251610160850183612cff565b91506020850151601f1985840301604086015261326e8382612cff565b92505060408501516060850152606085015161328e608086018215159052565b50608085015160a085015260a085015160c085015260c085015160e085015260e08501516101008181870152808701519150506101208181870152808701519150506132dd8286018215159052565b5090949350505050565b60006101408083526132fb8184018e612cff565b9050828103602084015261330f818d612cff565b604084019b909b5250509615156060880152608087019590955260a086019390935260c085019190915260e084015261010083015215156101209091015292915050565b600181811c9082168061336757607f821691505b60208210810361338757634e487b7160e01b600052602260045260246000fd5b50919050565b6020808252602c908201527f46756e6374696f6e206d7573742062652063616c6c6564207468726f7567682060408201526b19195b1959d85d1958d85b1b60a21b606082015260800190565b6020808252602c908201527f46756e6374696f6e206d7573742062652063616c6c6564207468726f7567682060408201526b6163746976652070726f787960a01b606082015260800190565b601f8211156111f157600081815260208120601f850160051c8101602086101561344c5750805b601f850160051c820191505b8181101561346b57828155600101613458565b505050505050565b815167ffffffffffffffff81111561348d5761348d612e14565b6134a18161349b8454613353565b84613425565b602080601f8311600181146134d657600084156134be5750858301515b600019600386901b1c1916600185901b17855561346b565b600085815260208120601f198616915b82811015613505578886015182559484019460019091019084016134e6565b50858210156135235787850151600019600388901b60f8161c191681555b5050505050600190811b01905550565b634e487b7160e01b600052601160045260246000fd5b60006001820161355b5761355b613533565b5060010190565b67ffffffffffffffff83111561357a5761357a612e14565b61358e836135888354613353565b83613425565b6000601f8411600181146135c257600085156135aa5750838201355b600019600387901b1c1916600186901b178355611caf565b600083815260209020601f19861690835b828110156135f357868501358255602094850194600190920191016135d3565b50868210156136105760001960f88860031b161c19848701351681555b505060018560011b0183555050505050565b81810381811115612b9957612b99613533565b8082028115828204841417612b9957612b99613533565b60008261366957634e487b7160e01b600052601260045260246000fd5b500490565b80820180821115612b9957612b99613533565b604081528260408201528284606083013760006060848301015260006060601f19601f8601168301019050826020830152949350505050565b6000600160ff1b82016136cf576136cf613533565b5060000390565b8183823760009101908152919050565b60006bffffffffffffffffffffffff19808860601b168352808760601b16601484015250838560288401375060289201918201526048019392505050565b60006020828403121561373657600080fd5b5051919050565b6020808252602b908201527f496e697469616c697a61626c653a20636f6e7472616374206973206e6f74206960408201526a6e697469616c697a696e6760a81b606082015260800190565b6000825161379a818460208701612cdb565b9190910192915050565b602081526000612b966020830184612cff56fe360894a13ba1a3210667c828492db98dca3e2076cc3735a920a3ca505d382bbc416464726573733a206c6f772d6c6576656c2064656c65676174652063616c6c206661696c6564a26469706673582212202fe40d66c6993327a1f53bd6ca4f65d5c10672119895789ac16d1a44c725f6a164736f6c63430008130033","opcodes":"PUSH1 0xA0 PUSH1 0x40 MSTORE ADDRESS PUSH1 0x80 MSTORE CALLVALUE DUP1 ISZERO PUSH2 0x14 JUMPI PUSH1 0x0 DUP1 REVERT JUMPDEST POP PUSH1 0x80 MLOAD PUSH2 0x3834 PUSH2 0x4C PUSH1 0x0 CODECOPY PUSH1 0x0 DUP2 DUP2 PUSH2 0x9DB ADD MSTORE DUP2 DUP2 PUSH2 0xA24 ADD MSTORE DUP2 DUP2 PUSH2 0xAD5 ADD MSTORE DUP2 DUP2 PUSH2 0xB15 ADD MSTORE PUSH2 0xBA8 ADD MSTORE PUSH2 0x3834 PUSH1 0x0 RETURN INVALID PUSH1 0x80 PUSH1 0x40 MSTORE PUSH1 0x4 CALLDATASIZE LT PUSH2 0x255 JUMPI PUSH1 0x0 CALLDATALOAD PUSH1 0xE0 SHR DUP1 PUSH4 0x7B0A47EE GT PUSH2 0x139 JUMPI DUP1 PUSH4 0xC5053712 GT PUSH2 0xB6 JUMPI DUP1 PUSH4 0xEB4AF045 GT PUSH2 0x7A JUMPI DUP1 PUSH4 0xEB4AF045 EQ PUSH2 0x6C4 JUMPI DUP1 PUSH4 0xEF0E239B EQ PUSH2 0x6E4 JUMPI DUP1 PUSH4 0xF1887684 EQ PUSH2 0x711 JUMPI DUP1 PUSH4 0xF2FDE38B EQ PUSH2 0x728 JUMPI DUP1 PUSH4 0xFB3551FF EQ PUSH2 0x748 JUMPI DUP1 PUSH4 0xFD66091E EQ PUSH2 0x775 JUMPI PUSH1 0x0 DUP1 REVERT JUMPDEST DUP1 PUSH4 0xC5053712 EQ PUSH2 0x650 JUMPI DUP1 PUSH4 0xD410E8BA EQ PUSH2 0x667 JUMPI DUP1 PUSH4 0xD420051D EQ PUSH2 0x67E JUMPI DUP1 PUSH4 0xDA6B03BC EQ PUSH2 0x69E JUMPI DUP1 PUSH4 0xDE6F24BB EQ PUSH2 0x6B1 JUMPI PUSH1 0x0 DUP1 REVERT JUMPDEST DUP1 PUSH4 0x951166C0 GT PUSH2 0xFD JUMPI DUP1 PUSH4 0x951166C0 EQ PUSH2 0x5A6 JUMPI DUP1 PUSH4 0x9B1D3091 EQ PUSH2 0x5BD JUMPI DUP1 PUSH4 0x9E447FC6 EQ PUSH2 0x5DD JUMPI DUP1 PUSH4 0xC22C4F43 EQ PUSH2 0x5FD JUMPI DUP1 PUSH4 0xC320C727 EQ PUSH2 0x630 JUMPI PUSH1 0x0 DUP1 REVERT JUMPDEST DUP1 PUSH4 0x7B0A47EE EQ PUSH2 0x530 JUMPI DUP1 PUSH4 0x8129FC1C EQ PUSH2 0x547 JUMPI DUP1 PUSH4 0x8456CB59 EQ PUSH2 0x55C JUMPI DUP1 PUSH4 0x8DA5CB5B EQ PUSH2 0x571 JUMPI DUP1 PUSH4 0x9231CF74 EQ PUSH2 0x58F JUMPI PUSH1 0x0 DUP1 REVERT JUMPDEST DUP1 PUSH4 0x52D1902D GT PUSH2 0x1D2 JUMPI DUP1 PUSH4 0x6301AC8F GT PUSH2 0x196 JUMPI DUP1 PUSH4 0x6301AC8F EQ PUSH2 0x455 JUMPI DUP1 PUSH4 0x67EE313D EQ PUSH2 0x46C JUMPI DUP1 PUSH4 0x6A08B511 EQ PUSH2 0x48C JUMPI DUP1 PUSH4 0x6F4A2CD0 EQ PUSH2 0x4AC JUMPI DUP1 PUSH4 0x702E827C EQ PUSH2 0x4C1 JUMPI DUP1 PUSH4 0x715018A6 EQ PUSH2 0x51B JUMPI PUSH1 0x0 DUP1 REVERT JUMPDEST DUP1 PUSH4 0x52D1902D EQ PUSH2 0x3CF JUMPI DUP1 PUSH4 0x5C975ABB EQ PUSH2 0x3E4 JUMPI DUP1 PUSH4 0x5F81A57C EQ PUSH2 0x407 JUMPI DUP1 PUSH4 0x6076CF55 EQ PUSH2 0x41E JUMPI DUP1 PUSH4 0x61D1BC94 EQ PUSH2 0x43E JUMPI PUSH1 0x0 DUP1 REVERT JUMPDEST DUP1 PUSH4 0x2BBD59CA GT PUSH2 0x219 JUMPI DUP1 PUSH4 0x2BBD59CA EQ PUSH2 0x30C JUMPI DUP1 PUSH4 0x3659CFE6 EQ PUSH2 0x33E JUMPI DUP1 PUSH4 0x3F4BA83A EQ PUSH2 0x35E JUMPI DUP1 PUSH4 0x4A662F48 EQ PUSH2 0x373 JUMPI DUP1 PUSH4 0x4F1EF286 EQ PUSH2 0x3BC JUMPI PUSH1 0x0 DUP1 REVERT JUMPDEST DUP1 PUSH4 0x139A221 EQ PUSH2 0x261 JUMPI DUP1 PUSH4 0xE15561A EQ PUSH2 0x297 JUMPI DUP1 PUSH4 0x14C44E09 EQ PUSH2 0x2BC JUMPI DUP1 PUSH4 0x1A90A219 EQ PUSH2 0x2D3 JUMPI DUP1 PUSH4 0x23AA2A9D EQ PUSH2 0x2EA JUMPI PUSH1 0x0 DUP1 REVERT JUMPDEST CALLDATASIZE PUSH2 0x25C JUMPI STOP JUMPDEST PUSH1 0x0 DUP1 REVERT JUMPDEST CALLVALUE DUP1 ISZERO PUSH2 0x26D JUMPI PUSH1 0x0 DUP1 REVERT JUMPDEST POP PUSH2 0x281 PUSH2 0x27C CALLDATASIZE PUSH1 0x4 PUSH2 0x2CC2 JUMP JUMPDEST PUSH2 0x7AB JUMP JUMPDEST PUSH1 0x40 MLOAD PUSH2 0x28E SWAP2 SWAP1 PUSH2 0x2D2B JUMP JUMPDEST PUSH1 0x40 MLOAD DUP1 SWAP2 SUB SWAP1 RETURN JUMPDEST CALLVALUE DUP1 ISZERO PUSH2 0x2A3 JUMPI PUSH1 0x0 DUP1 REVERT JUMPDEST POP PUSH2 0x2AE PUSH2 0x13C SLOAD DUP2 JUMP JUMPDEST PUSH1 0x40 MLOAD SWAP1 DUP2 MSTORE PUSH1 0x20 ADD PUSH2 0x28E JUMP JUMPDEST CALLVALUE DUP1 ISZERO PUSH2 0x2C8 JUMPI PUSH1 0x0 DUP1 REVERT JUMPDEST POP PUSH2 0x2AE PUSH2 0x135 SLOAD DUP2 JUMP JUMPDEST CALLVALUE DUP1 ISZERO PUSH2 0x2DF JUMPI PUSH1 0x0 DUP1 REVERT JUMPDEST POP PUSH2 0x2AE PUSH2 0x136 SLOAD DUP2 JUMP JUMPDEST CALLVALUE DUP1 ISZERO PUSH2 0x2F6 JUMPI PUSH1 0x0 DUP1 REVERT JUMPDEST POP PUSH2 0x30A PUSH2 0x305 CALLDATASIZE PUSH1 0x4 PUSH2 0x2CC2 JUMP JUMPDEST PUSH2 0x8F2 JUMP JUMPDEST STOP JUMPDEST CALLVALUE DUP1 ISZERO PUSH2 0x318 JUMPI PUSH1 0x0 DUP1 REVERT JUMPDEST POP PUSH2 0x32C PUSH2 0x327 CALLDATASIZE PUSH1 0x4 PUSH2 0x2CC2 JUMP JUMPDEST PUSH2 0x900 JUMP JUMPDEST PUSH1 0x40 MLOAD PUSH2 0x28E SWAP7 SWAP6 SWAP5 SWAP4 SWAP3 SWAP2 SWAP1 PUSH2 0x2D93 JUMP JUMPDEST CALLVALUE DUP1 ISZERO PUSH2 0x34A JUMPI PUSH1 0x0 DUP1 REVERT JUMPDEST POP PUSH2 0x30A PUSH2 0x359 CALLDATASIZE PUSH1 0x4 PUSH2 0x2DF9 JUMP JUMPDEST PUSH2 0x9D1 JUMP JUMPDEST CALLVALUE DUP1 ISZERO PUSH2 0x36A JUMPI PUSH1 0x0 DUP1 REVERT JUMPDEST POP PUSH2 0x30A PUSH2 0xAB9 JUMP JUMPDEST CALLVALUE DUP1 ISZERO PUSH2 0x37F JUMPI PUSH1 0x0 DUP1 REVERT JUMPDEST POP PUSH2 0x131 SLOAD PUSH2 0x132 SLOAD PUSH2 0x133 SLOAD PUSH2 0x134 SLOAD PUSH2 0x13C SLOAD PUSH1 0x40 DUP1 MLOAD SWAP6 DUP7 MSTORE PUSH1 0x20 DUP7 ADD SWAP5 SWAP1 SWAP5 MSTORE SWAP3 DUP5 ADD SWAP2 SWAP1 SWAP2 MSTORE PUSH1 0x60 DUP4 ADD MSTORE PUSH1 0x80 DUP3 ADD MSTORE PUSH1 0xA0 ADD PUSH2 0x28E JUMP JUMPDEST PUSH2 0x30A PUSH2 0x3CA CALLDATASIZE PUSH1 0x4 PUSH2 0x2EA0 JUMP JUMPDEST PUSH2 0xACB JUMP JUMPDEST CALLVALUE DUP1 ISZERO PUSH2 0x3DB JUMPI PUSH1 0x0 DUP1 REVERT JUMPDEST POP PUSH2 0x2AE PUSH2 0xB9B JUMP JUMPDEST CALLVALUE DUP1 ISZERO PUSH2 0x3F0 JUMPI PUSH1 0x0 DUP1 REVERT JUMPDEST POP PUSH1 0xFB SLOAD PUSH1 0xFF AND PUSH1 0x40 MLOAD SWAP1 ISZERO ISZERO DUP2 MSTORE PUSH1 0x20 ADD PUSH2 0x28E JUMP JUMPDEST CALLVALUE DUP1 ISZERO PUSH2 0x413 JUMPI PUSH1 0x0 DUP1 REVERT JUMPDEST POP PUSH2 0x2AE PUSH2 0x134 SLOAD DUP2 JUMP JUMPDEST CALLVALUE DUP1 ISZERO PUSH2 0x42A JUMPI PUSH1 0x0 DUP1 REVERT JUMPDEST POP PUSH2 0x30A PUSH2 0x439 CALLDATASIZE PUSH1 0x4 PUSH2 0x2F4B JUMP JUMPDEST PUSH2 0xC4E JUMP JUMPDEST CALLVALUE DUP1 ISZERO PUSH2 0x44A JUMPI PUSH1 0x0 DUP1 REVERT JUMPDEST POP PUSH2 0x2AE PUSH2 0x137 SLOAD DUP2 JUMP JUMPDEST CALLVALUE DUP1 ISZERO PUSH2 0x461 JUMPI PUSH1 0x0 DUP1 REVERT JUMPDEST POP PUSH2 0x2AE PUSH2 0x133 SLOAD DUP2 JUMP JUMPDEST CALLVALUE DUP1 ISZERO PUSH2 0x478 JUMPI PUSH1 0x0 DUP1 REVERT JUMPDEST POP PUSH2 0x30A PUSH2 0x487 CALLDATASIZE PUSH1 0x4 PUSH2 0x2FA5 JUMP JUMPDEST PUSH2 0xEEB JUMP JUMPDEST CALLVALUE DUP1 ISZERO PUSH2 0x498 JUMPI PUSH1 0x0 DUP1 REVERT JUMPDEST POP PUSH2 0x30A PUSH2 0x4A7 CALLDATASIZE PUSH1 0x4 PUSH2 0x2FF1 JUMP JUMPDEST PUSH2 0x11F6 JUMP JUMPDEST CALLVALUE DUP1 ISZERO PUSH2 0x4B8 JUMPI PUSH1 0x0 DUP1 REVERT JUMPDEST POP PUSH2 0x30A PUSH2 0x133F JUMP JUMPDEST CALLVALUE DUP1 ISZERO PUSH2 0x4CD JUMPI PUSH1 0x0 DUP1 REVERT JUMPDEST POP PUSH2 0x503 PUSH2 0x4DC CALLDATASIZE PUSH1 0x4 PUSH2 0x301B JUMP JUMPDEST DUP1 MLOAD PUSH1 0x20 DUP2 DUP4 ADD DUP2 ADD DUP1 MLOAD PUSH2 0x12E DUP3 MSTORE SWAP3 DUP3 ADD SWAP2 SWAP1 SWAP4 ADD KECCAK256 SWAP2 MSTORE SLOAD PUSH1 0x1 PUSH1 0x1 PUSH1 0xA0 SHL SUB AND DUP2 JUMP JUMPDEST PUSH1 0x40 MLOAD PUSH1 0x1 PUSH1 0x1 PUSH1 0xA0 SHL SUB SWAP1 SWAP2 AND DUP2 MSTORE PUSH1 0x20 ADD PUSH2 0x28E JUMP JUMPDEST CALLVALUE DUP1 ISZERO PUSH2 0x527 JUMPI PUSH1 0x0 DUP1 REVERT JUMPDEST POP PUSH2 0x30A PUSH2 0x1358 JUMP JUMPDEST CALLVALUE DUP1 ISZERO PUSH2 0x53C JUMPI PUSH1 0x0 DUP1 REVERT JUMPDEST POP PUSH2 0x2AE PUSH2 0x13A SLOAD DUP2 JUMP JUMPDEST CALLVALUE DUP1 ISZERO PUSH2 0x553 JUMPI PUSH1 0x0 DUP1 REVERT JUMPDEST POP PUSH2 0x30A PUSH2 0x136A JUMP JUMPDEST CALLVALUE DUP1 ISZERO PUSH2 0x568 JUMPI PUSH1 0x0 DUP1 REVERT JUMPDEST POP PUSH2 0x30A PUSH2 0x14D4 JUMP JUMPDEST CALLVALUE DUP1 ISZERO PUSH2 0x57D JUMPI PUSH1 0x0 DUP1 REVERT JUMPDEST POP PUSH1 0x97 SLOAD PUSH1 0x1 PUSH1 0x1 PUSH1 0xA0 SHL SUB AND PUSH2 0x503 JUMP JUMPDEST CALLVALUE DUP1 ISZERO PUSH2 0x59B JUMPI PUSH1 0x0 DUP1 REVERT JUMPDEST POP PUSH2 0x2AE PUSH2 0x13B SLOAD DUP2 JUMP JUMPDEST CALLVALUE DUP1 ISZERO PUSH2 0x5B2 JUMPI PUSH1 0x0 DUP1 REVERT JUMPDEST POP PUSH2 0x2AE PUSH2 0x132 SLOAD DUP2 JUMP JUMPDEST CALLVALUE DUP1 ISZERO PUSH2 0x5C9 JUMPI PUSH1 0x0 DUP1 REVERT JUMPDEST POP PUSH2 0x30A PUSH2 0x5D8 CALLDATASIZE PUSH1 0x4 PUSH2 0x2CC2 JUMP JUMPDEST PUSH2 0x14E4 JUMP JUMPDEST CALLVALUE DUP1 ISZERO PUSH2 0x5E9 JUMPI PUSH1 0x0 DUP1 REVERT JUMPDEST POP PUSH2 0x30A PUSH2 0x5F8 CALLDATASIZE PUSH1 0x4 PUSH2 0x2CC2 JUMP JUMPDEST PUSH2 0x1538 JUMP JUMPDEST CALLVALUE DUP1 ISZERO PUSH2 0x609 JUMPI PUSH1 0x0 DUP1 REVERT JUMPDEST POP PUSH2 0x61D PUSH2 0x618 CALLDATASIZE PUSH1 0x4 PUSH2 0x2CC2 JUMP JUMPDEST PUSH2 0x1546 JUMP JUMPDEST PUSH1 0x40 MLOAD PUSH2 0x28E SWAP8 SWAP7 SWAP6 SWAP5 SWAP4 SWAP3 SWAP2 SWAP1 PUSH2 0x3064 JUMP JUMPDEST CALLVALUE DUP1 ISZERO PUSH2 0x63C JUMPI PUSH1 0x0 DUP1 REVERT JUMPDEST POP PUSH2 0x30A PUSH2 0x64B CALLDATASIZE PUSH1 0x4 PUSH2 0x2CC2 JUMP JUMPDEST PUSH2 0x16A8 JUMP JUMPDEST CALLVALUE DUP1 ISZERO PUSH2 0x65C JUMPI PUSH1 0x0 DUP1 REVERT JUMPDEST POP PUSH2 0x2AE PUSH2 0x131 SLOAD DUP2 JUMP JUMPDEST CALLVALUE DUP1 ISZERO PUSH2 0x673 JUMPI PUSH1 0x0 DUP1 REVERT JUMPDEST POP PUSH2 0x2AE PUSH2 0x139 SLOAD DUP2 JUMP JUMPDEST CALLVALUE DUP1 ISZERO PUSH2 0x68A JUMPI PUSH1 0x0 DUP1 REVERT JUMPDEST POP PUSH2 0x30A PUSH2 0x699 CALLDATASIZE PUSH1 0x4 PUSH2 0x30C4 JUMP JUMPDEST PUSH2 0x16B6 JUMP JUMPDEST PUSH2 0x30A PUSH2 0x6AC CALLDATASIZE PUSH1 0x4 PUSH2 0x3101 JUMP JUMPDEST PUSH2 0x18D1 JUMP JUMPDEST PUSH2 0x30A PUSH2 0x6BF CALLDATASIZE PUSH1 0x4 PUSH2 0x3175 JUMP JUMPDEST PUSH2 0x1CB6 JUMP JUMPDEST CALLVALUE DUP1 ISZERO PUSH2 0x6D0 JUMPI PUSH1 0x0 DUP1 REVERT JUMPDEST POP PUSH2 0x30A PUSH2 0x6DF CALLDATASIZE PUSH1 0x4 PUSH2 0x2CC2 JUMP JUMPDEST PUSH2 0x1FE1 JUMP JUMPDEST CALLVALUE DUP1 ISZERO PUSH2 0x6F0 JUMPI PUSH1 0x0 DUP1 REVERT JUMPDEST POP PUSH2 0x704 PUSH2 0x6FF CALLDATASIZE PUSH1 0x4 PUSH2 0x2CC2 JUMP JUMPDEST PUSH2 0x1FEF JUMP JUMPDEST PUSH1 0x40 MLOAD PUSH2 0x28E SWAP2 SWAP1 PUSH2 0x31AF JUMP JUMPDEST CALLVALUE DUP1 ISZERO PUSH2 0x71D JUMPI PUSH1 0x0 DUP1 REVERT JUMPDEST POP PUSH2 0x2AE PUSH2 0x138 SLOAD DUP2 JUMP JUMPDEST CALLVALUE DUP1 ISZERO PUSH2 0x734 JUMPI PUSH1 0x0 DUP1 REVERT JUMPDEST POP PUSH2 0x30A PUSH2 0x743 CALLDATASIZE PUSH1 0x4 PUSH2 0x2DF9 JUMP JUMPDEST PUSH2 0x21B1 JUMP JUMPDEST CALLVALUE DUP1 ISZERO PUSH2 0x754 JUMPI PUSH1 0x0 DUP1 REVERT JUMPDEST POP PUSH2 0x768 PUSH2 0x763 CALLDATASIZE PUSH1 0x4 PUSH2 0x2DF9 JUMP JUMPDEST PUSH2 0x2227 JUMP JUMPDEST PUSH1 0x40 MLOAD PUSH2 0x28E SWAP2 SWAP1 PUSH2 0x3232 JUMP JUMPDEST CALLVALUE DUP1 ISZERO PUSH2 0x781 JUMPI PUSH1 0x0 DUP1 REVERT JUMPDEST POP PUSH2 0x795 PUSH2 0x790 CALLDATASIZE PUSH1 0x4 PUSH2 0x2DF9 JUMP JUMPDEST PUSH2 0x242D JUMP JUMPDEST PUSH1 0x40 MLOAD PUSH2 0x28E SWAP11 SWAP10 SWAP9 SWAP8 SWAP7 SWAP6 SWAP5 SWAP4 SWAP3 SWAP2 SWAP1 PUSH2 0x32E7 JUMP JUMPDEST PUSH2 0x7F8 PUSH1 0x40 MLOAD DUP1 PUSH1 0xC0 ADD PUSH1 0x40 MSTORE DUP1 PUSH1 0x0 PUSH1 0x1 PUSH1 0x1 PUSH1 0xA0 SHL SUB AND DUP2 MSTORE PUSH1 0x20 ADD PUSH1 0x0 PUSH1 0x1 PUSH1 0x1 PUSH1 0xA0 SHL SUB AND DUP2 MSTORE PUSH1 0x20 ADD PUSH1 0x60 DUP2 MSTORE PUSH1 0x20 ADD PUSH1 0x0 DUP2 MSTORE PUSH1 0x20 ADD PUSH1 0x0 ISZERO ISZERO DUP2 MSTORE PUSH1 0x20 ADD PUSH1 0x0 DUP2 MSTORE POP SWAP1 JUMP JUMPDEST PUSH1 0x0 DUP3 DUP2 MSTORE PUSH2 0x12F PUSH1 0x20 SWAP1 DUP2 MSTORE PUSH1 0x40 SWAP2 DUP3 SWAP1 KECCAK256 DUP3 MLOAD PUSH1 0xC0 DUP2 ADD DUP5 MSTORE DUP2 SLOAD PUSH1 0x1 PUSH1 0x1 PUSH1 0xA0 SHL SUB SWAP1 DUP2 AND DUP3 MSTORE PUSH1 0x1 DUP4 ADD SLOAD AND SWAP3 DUP2 ADD SWAP3 SWAP1 SWAP3 MSTORE PUSH1 0x2 DUP2 ADD DUP1 SLOAD SWAP3 SWAP4 SWAP2 SWAP3 SWAP2 DUP5 ADD SWAP2 PUSH2 0x846 SWAP1 PUSH2 0x3353 JUMP JUMPDEST DUP1 PUSH1 0x1F ADD PUSH1 0x20 DUP1 SWAP2 DIV MUL PUSH1 0x20 ADD PUSH1 0x40 MLOAD SWAP1 DUP2 ADD PUSH1 0x40 MSTORE DUP1 SWAP3 SWAP2 SWAP1 DUP2 DUP2 MSTORE PUSH1 0x20 ADD DUP3 DUP1 SLOAD PUSH2 0x872 SWAP1 PUSH2 0x3353 JUMP JUMPDEST DUP1 ISZERO PUSH2 0x8BF JUMPI DUP1 PUSH1 0x1F LT PUSH2 0x894 JUMPI PUSH2 0x100 DUP1 DUP4 SLOAD DIV MUL DUP4 MSTORE SWAP2 PUSH1 0x20 ADD SWAP2 PUSH2 0x8BF JUMP JUMPDEST DUP3 ADD SWAP2 SWAP1 PUSH1 0x0 MSTORE PUSH1 0x20 PUSH1 0x0 KECCAK256 SWAP1 JUMPDEST DUP2 SLOAD DUP2 MSTORE SWAP1 PUSH1 0x1 ADD SWAP1 PUSH1 0x20 ADD DUP1 DUP4 GT PUSH2 0x8A2 JUMPI DUP3 SWAP1 SUB PUSH1 0x1F AND DUP3 ADD SWAP2 JUMPDEST POP POP POP SWAP2 DUP4 MSTORE POP POP PUSH1 0x3 DUP3 ADD SLOAD PUSH1 0x20 DUP3 ADD MSTORE PUSH1 0x4 DUP3 ADD SLOAD PUSH1 0xFF AND ISZERO ISZERO PUSH1 0x40 DUP3 ADD MSTORE PUSH1 0x5 SWAP1 SWAP2 ADD SLOAD PUSH1 0x60 SWAP1 SWAP2 ADD MSTORE SWAP3 SWAP2 POP POP JUMP JUMPDEST PUSH2 0x8FA PUSH2 0x2595 JUMP JUMPDEST PUSH2 0x136 SSTORE JUMP JUMPDEST PUSH2 0x12F PUSH1 0x20 MSTORE PUSH1 0x0 SWAP1 DUP2 MSTORE PUSH1 0x40 SWAP1 KECCAK256 DUP1 SLOAD PUSH1 0x1 DUP3 ADD SLOAD PUSH1 0x2 DUP4 ADD DUP1 SLOAD PUSH1 0x1 PUSH1 0x1 PUSH1 0xA0 SHL SUB SWAP4 DUP5 AND SWAP5 SWAP3 SWAP1 SWAP4 AND SWAP3 PUSH2 0x936 SWAP1 PUSH2 0x3353 JUMP JUMPDEST DUP1 PUSH1 0x1F ADD PUSH1 0x20 DUP1 SWAP2 DIV MUL PUSH1 0x20 ADD PUSH1 0x40 MLOAD SWAP1 DUP2 ADD PUSH1 0x40 MSTORE DUP1 SWAP3 SWAP2 SWAP1 DUP2 DUP2 MSTORE PUSH1 0x20 ADD DUP3 DUP1 SLOAD PUSH2 0x962 SWAP1 PUSH2 0x3353 JUMP JUMPDEST DUP1 ISZERO PUSH2 0x9AF JUMPI DUP1 PUSH1 0x1F LT PUSH2 0x984 JUMPI PUSH2 0x100 DUP1 DUP4 SLOAD DIV MUL DUP4 MSTORE SWAP2 PUSH1 0x20 ADD SWAP2 PUSH2 0x9AF JUMP JUMPDEST DUP3 ADD SWAP2 SWAP1 PUSH1 0x0 MSTORE PUSH1 0x20 PUSH1 0x0 KECCAK256 SWAP1 JUMPDEST DUP2 SLOAD DUP2 MSTORE SWAP1 PUSH1 0x1 ADD SWAP1 PUSH1 0x20 ADD DUP1 DUP4 GT PUSH2 0x992 JUMPI DUP3 SWAP1 SUB PUSH1 0x1F AND DUP3 ADD SWAP2 JUMPDEST POP POP POP POP PUSH1 0x3 DUP4 ADD SLOAD PUSH1 0x4 DUP5 ADD SLOAD PUSH1 0x5 SWAP1 SWAP5 ADD SLOAD SWAP3 SWAP4 SWAP1 SWAP3 PUSH1 0xFF SWAP1 SWAP2 AND SWAP2 POP DUP7 JUMP JUMPDEST PUSH1 0x1 PUSH1 0x1 PUSH1 0xA0 SHL SUB PUSH32 0x0 AND ADDRESS SUB PUSH2 0xA22 JUMPI PUSH1 0x40 MLOAD PUSH3 0x461BCD PUSH1 0xE5 SHL DUP2 MSTORE PUSH1 0x4 ADD PUSH2 0xA19 SWAP1 PUSH2 0x338D JUMP JUMPDEST PUSH1 0x40 MLOAD DUP1 SWAP2 SUB SWAP1 REVERT JUMPDEST PUSH32 0x0 PUSH1 0x1 PUSH1 0x1 PUSH1 0xA0 SHL SUB AND PUSH2 0xA6B PUSH1 0x0 DUP1 MLOAD PUSH1 0x20 PUSH2 0x37B8 DUP4 CODECOPY DUP2 MLOAD SWAP2 MSTORE SLOAD PUSH1 0x1 PUSH1 0x1 PUSH1 0xA0 SHL SUB AND SWAP1 JUMP JUMPDEST PUSH1 0x1 PUSH1 0x1 PUSH1 0xA0 SHL SUB AND EQ PUSH2 0xA91 JUMPI PUSH1 0x40 MLOAD PUSH3 0x461BCD PUSH1 0xE5 SHL DUP2 MSTORE PUSH1 0x4 ADD PUSH2 0xA19 SWAP1 PUSH2 0x33D9 JUMP JUMPDEST PUSH2 0xA9A DUP2 PUSH2 0x25EF JUMP JUMPDEST PUSH1 0x40 DUP1 MLOAD PUSH1 0x0 DUP1 DUP3 MSTORE PUSH1 0x20 DUP3 ADD SWAP1 SWAP3 MSTORE PUSH2 0xAB6 SWAP2 DUP4 SWAP2 SWAP1 PUSH2 0x25F7 JUMP JUMPDEST POP JUMP JUMPDEST PUSH2 0xAC1 PUSH2 0x2595 JUMP JUMPDEST PUSH2 0xAC9 PUSH2 0x2762 JUMP JUMPDEST JUMP JUMPDEST PUSH1 0x1 PUSH1 0x1 PUSH1 0xA0 SHL SUB PUSH32 0x0 AND ADDRESS SUB PUSH2 0xB13 JUMPI PUSH1 0x40 MLOAD PUSH3 0x461BCD PUSH1 0xE5 SHL DUP2 MSTORE PUSH1 0x4 ADD PUSH2 0xA19 SWAP1 PUSH2 0x338D JUMP JUMPDEST PUSH32 0x0 PUSH1 0x1 PUSH1 0x1 PUSH1 0xA0 SHL SUB AND PUSH2 0xB5C PUSH1 0x0 DUP1 MLOAD PUSH1 0x20 PUSH2 0x37B8 DUP4 CODECOPY DUP2 MLOAD SWAP2 MSTORE SLOAD PUSH1 0x1 PUSH1 0x1 PUSH1 0xA0 SHL SUB AND SWAP1 JUMP JUMPDEST PUSH1 0x1 PUSH1 0x1 PUSH1 0xA0 SHL SUB AND EQ PUSH2 0xB82 JUMPI PUSH1 0x40 MLOAD PUSH3 0x461BCD PUSH1 0xE5 SHL DUP2 MSTORE PUSH1 0x4 ADD PUSH2 0xA19 SWAP1 PUSH2 0x33D9 JUMP JUMPDEST PUSH2 0xB8B DUP3 PUSH2 0x25EF JUMP JUMPDEST PUSH2 0xB97 DUP3 DUP3 PUSH1 0x1 PUSH2 0x25F7 JUMP JUMPDEST POP POP JUMP JUMPDEST PUSH1 0x0 ADDRESS PUSH1 0x1 PUSH1 0x1 PUSH1 0xA0 SHL SUB PUSH32 0x0 AND EQ PUSH2 0xC3B JUMPI PUSH1 0x40 MLOAD PUSH3 0x461BCD PUSH1 0xE5 SHL DUP2 MSTORE PUSH1 0x20 PUSH1 0x4 DUP3 ADD MSTORE PUSH1 0x38 PUSH1 0x24 DUP3 ADD MSTORE PUSH32 0x555550535570677261646561626C653A206D757374206E6F742062652063616C PUSH1 0x44 DUP3 ADD MSTORE PUSH32 0x6C6564207468726F7567682064656C656761746563616C6C0000000000000000 PUSH1 0x64 DUP3 ADD MSTORE PUSH1 0x84 ADD PUSH2 0xA19 JUMP JUMPDEST POP PUSH1 0x0 DUP1 MLOAD PUSH1 0x20 PUSH2 0x37B8 DUP4 CODECOPY DUP2 MLOAD SWAP2 MSTORE SWAP1 JUMP JUMPDEST CALLER PUSH1 0x0 SWAP1 DUP2 MSTORE PUSH2 0x12D PUSH1 0x20 MSTORE PUSH1 0x40 SWAP1 KECCAK256 PUSH1 0x9 ADD SLOAD PUSH1 0xFF AND PUSH2 0xCA6 JUMPI PUSH1 0x40 MLOAD PUSH3 0x461BCD PUSH1 0xE5 SHL DUP2 MSTORE PUSH1 0x20 PUSH1 0x4 DUP3 ADD MSTORE PUSH1 0x12 PUSH1 0x24 DUP3 ADD MSTORE PUSH18 0x1059D95B9D081B9BDD081D995C9A599A5959 PUSH1 0x72 SHL PUSH1 0x44 DUP3 ADD MSTORE PUSH1 0x64 ADD PUSH2 0xA19 JUMP JUMPDEST PUSH2 0xCAE PUSH2 0x27B4 JUMP JUMPDEST PUSH1 0x1 PUSH1 0x1 PUSH1 0xA0 SHL SUB DUP5 AND PUSH1 0x0 SWAP1 DUP2 MSTORE PUSH2 0x12D PUSH1 0x20 MSTORE PUSH1 0x40 SWAP1 KECCAK256 PUSH1 0x3 ADD SLOAD PUSH1 0xFF AND PUSH2 0xD10 JUMPI PUSH1 0x40 MLOAD PUSH3 0x461BCD PUSH1 0xE5 SHL DUP2 MSTORE PUSH1 0x20 PUSH1 0x4 DUP3 ADD MSTORE PUSH1 0x13 PUSH1 0x24 DUP3 ADD MSTORE PUSH19 0x436F6E73756D6572206E6F7420616374697665 PUSH1 0x68 SHL PUSH1 0x44 DUP3 ADD MSTORE PUSH1 0x64 ADD PUSH2 0xA19 JUMP JUMPDEST PUSH1 0x0 DUP2 GT PUSH2 0xD50 JUMPI PUSH1 0x40 MLOAD PUSH3 0x461BCD PUSH1 0xE5 SHL DUP2 MSTORE PUSH1 0x20 PUSH1 0x4 DUP3 ADD MSTORE PUSH1 0xD PUSH1 0x24 DUP3 ADD MSTORE PUSH13 0x496E76616C6964207072696365 PUSH1 0x98 SHL PUSH1 0x44 DUP3 ADD MSTORE PUSH1 0x64 ADD PUSH2 0xA19 JUMP JUMPDEST PUSH1 0x0 PUSH2 0x133 SLOAD SWAP1 POP PUSH1 0x40 MLOAD DUP1 PUSH1 0xE0 ADD PUSH1 0x40 MSTORE DUP1 CALLER PUSH1 0x1 PUSH1 0x1 PUSH1 0xA0 SHL SUB AND DUP2 MSTORE PUSH1 0x20 ADD DUP7 PUSH1 0x1 PUSH1 0x1 PUSH1 0xA0 SHL SUB AND DUP2 MSTORE PUSH1 0x20 ADD DUP6 DUP6 DUP1 DUP1 PUSH1 0x1F ADD PUSH1 0x20 DUP1 SWAP2 DIV MUL PUSH1 0x20 ADD PUSH1 0x40 MLOAD SWAP1 DUP2 ADD PUSH1 0x40 MSTORE DUP1 SWAP4 SWAP3 SWAP2 SWAP1 DUP2 DUP2 MSTORE PUSH1 0x20 ADD DUP4 DUP4 DUP1 DUP3 DUP5 CALLDATACOPY PUSH1 0x0 SWAP3 ADD DUP3 SWAP1 MSTORE POP SWAP4 DUP6 MSTORE POP POP POP PUSH1 0x20 DUP1 DUP4 ADD DUP7 SWAP1 MSTORE TIMESTAMP PUSH1 0x40 DUP1 DUP6 ADD SWAP2 SWAP1 SWAP2 MSTORE PUSH1 0x60 DUP5 ADD DUP4 SWAP1 MSTORE DUP1 MLOAD DUP1 DUP4 ADD DUP3 MSTORE DUP4 DUP2 MSTORE PUSH1 0x80 SWAP1 SWAP5 ADD SWAP4 SWAP1 SWAP4 MSTORE DUP5 DUP3 MSTORE PUSH2 0x130 DUP2 MSTORE SWAP1 DUP3 SWAP1 KECCAK256 DUP4 MLOAD DUP2 SLOAD PUSH1 0x1 PUSH1 0x1 PUSH1 0xA0 SHL SUB NOT SWAP1 DUP2 AND PUSH1 0x1 PUSH1 0x1 PUSH1 0xA0 SHL SUB SWAP3 DUP4 AND OR DUP4 SSTORE SWAP3 DUP6 ADD MLOAD PUSH1 0x1 DUP4 ADD DUP1 SLOAD SWAP1 SWAP5 AND SWAP2 AND OR SWAP1 SWAP2 SSTORE SWAP1 DUP3 ADD MLOAD PUSH1 0x2 DUP3 ADD SWAP1 PUSH2 0xE35 SWAP1 DUP3 PUSH2 0x3473 JUMP JUMPDEST POP PUSH1 0x60 DUP3 ADD MLOAD PUSH1 0x3 DUP3 ADD SSTORE PUSH1 0x80 DUP3 ADD MLOAD PUSH1 0x4 DUP3 ADD SSTORE PUSH1 0xA0 DUP3 ADD MLOAD PUSH1 0x5 DUP3 ADD DUP1 SLOAD PUSH1 0xFF NOT AND SWAP2 ISZERO ISZERO SWAP2 SWAP1 SWAP2 OR SWAP1 SSTORE PUSH1 0xC0 DUP3 ADD MLOAD PUSH1 0x6 DUP3 ADD SWAP1 PUSH2 0xE76 SWAP1 DUP3 PUSH2 0x3473 JUMP JUMPDEST POP POP PUSH2 0x133 DUP1 SLOAD SWAP2 POP PUSH1 0x0 PUSH2 0xE8A DUP4 PUSH2 0x3549 JUMP JUMPDEST SWAP1 SWAP2 SSTORE POP POP PUSH1 0x40 DUP1 MLOAD CALLER DUP2 MSTORE PUSH1 0x1 PUSH1 0x1 PUSH1 0xA0 SHL SUB DUP8 AND PUSH1 0x20 DUP3 ADD MSTORE SWAP1 DUP2 ADD DUP4 SWAP1 MSTORE DUP2 SWAP1 PUSH32 0x6DEC7C18C6D88222831A8E9C277DDD5CE160C41BC15314E7D93F6B45353D90F SWAP1 PUSH1 0x60 ADD PUSH1 0x40 MLOAD DUP1 SWAP2 SUB SWAP1 LOG2 POP PUSH2 0xEE5 PUSH1 0x1 PUSH1 0xC9 SSTORE JUMP JUMPDEST POP POP POP POP JUMP JUMPDEST CALLER PUSH1 0x0 SWAP1 DUP2 MSTORE PUSH2 0x12D PUSH1 0x20 MSTORE PUSH1 0x40 SWAP1 KECCAK256 PUSH1 0x9 ADD SLOAD PUSH1 0xFF AND PUSH2 0xF43 JUMPI PUSH1 0x40 MLOAD PUSH3 0x461BCD PUSH1 0xE5 SHL DUP2 MSTORE PUSH1 0x20 PUSH1 0x4 DUP3 ADD MSTORE PUSH1 0x12 PUSH1 0x24 DUP3 ADD MSTORE PUSH18 0x1059D95B9D081B9BDD081D995C9A599A5959 PUSH1 0x72 SHL PUSH1 0x44 DUP3 ADD MSTORE PUSH1 0x64 ADD PUSH2 0xA19 JUMP JUMPDEST PUSH2 0xF4B PUSH2 0x27B4 JUMP JUMPDEST PUSH1 0x0 DUP4 DUP2 MSTORE PUSH2 0x130 PUSH1 0x20 MSTORE PUSH1 0x40 SWAP1 KECCAK256 DUP1 SLOAD PUSH1 0x1 PUSH1 0x1 PUSH1 0xA0 SHL SUB AND CALLER EQ PUSH2 0xFAA JUMPI PUSH1 0x40 MLOAD PUSH3 0x461BCD PUSH1 0xE5 SHL DUP2 MSTORE PUSH1 0x20 PUSH1 0x4 DUP3 ADD MSTORE PUSH1 0x14 PUSH1 0x24 DUP3 ADD MSTORE PUSH20 0x2737BA1039B2B93B34B1B290383937BB34B232B9 PUSH1 0x61 SHL PUSH1 0x44 DUP3 ADD MSTORE PUSH1 0x64 ADD PUSH2 0xA19 JUMP JUMPDEST PUSH1 0x5 DUP2 ADD SLOAD PUSH1 0xFF AND ISZERO PUSH2 0xFFF JUMPI PUSH1 0x40 MLOAD PUSH3 0x461BCD PUSH1 0xE5 SHL DUP2 MSTORE PUSH1 0x20 PUSH1 0x4 DUP3 ADD MSTORE PUSH1 0x19 PUSH1 0x24 DUP3 ADD MSTORE PUSH32 0x5365727669636520616C726561647920636F6D706C6574656400000000000000 PUSH1 0x44 DUP3 ADD MSTORE PUSH1 0x64 ADD PUSH2 0xA19 JUMP JUMPDEST DUP2 PUSH2 0x1041 JUMPI PUSH1 0x40 MLOAD PUSH3 0x461BCD PUSH1 0xE5 SHL DUP2 MSTORE PUSH1 0x20 PUSH1 0x4 DUP3 ADD MSTORE PUSH1 0x12 PUSH1 0x24 DUP3 ADD MSTORE PUSH18 0x125B9D985B1A59081C995CDD5B1D0810D251 PUSH1 0x72 SHL PUSH1 0x44 DUP3 ADD MSTORE PUSH1 0x64 ADD PUSH2 0xA19 JUMP JUMPDEST PUSH1 0x5 DUP2 ADD DUP1 SLOAD PUSH1 0xFF NOT AND PUSH1 0x1 OR SWAP1 SSTORE PUSH1 0x6 DUP2 ADD PUSH2 0x105F DUP4 DUP6 DUP4 PUSH2 0x3562 JUMP JUMPDEST POP PUSH1 0x0 PUSH2 0x2710 PUSH2 0x137 SLOAD PUSH2 0x2710 PUSH2 0x1076 SWAP2 SWAP1 PUSH2 0x3622 JUMP JUMPDEST DUP4 PUSH1 0x3 ADD SLOAD PUSH2 0x1085 SWAP2 SWAP1 PUSH2 0x3635 JUMP JUMPDEST PUSH2 0x108F SWAP2 SWAP1 PUSH2 0x364C JUMP JUMPDEST SWAP1 POP PUSH1 0x0 DUP2 DUP4 PUSH1 0x3 ADD SLOAD PUSH2 0x10A3 SWAP2 SWAP1 PUSH2 0x3622 JUMP JUMPDEST CALLER PUSH1 0x0 SWAP1 DUP2 MSTORE PUSH2 0x12D PUSH1 0x20 MSTORE PUSH1 0x40 DUP2 KECCAK256 PUSH1 0x7 ADD DUP1 SLOAD SWAP3 SWAP4 POP DUP5 SWAP3 SWAP1 SWAP2 SWAP1 PUSH2 0x10CB SWAP1 DUP5 SWAP1 PUSH2 0x366E JUMP JUMPDEST SWAP1 SWAP2 SSTORE POP POP CALLER PUSH1 0x0 SWAP1 DUP2 MSTORE PUSH2 0x12D PUSH1 0x20 MSTORE PUSH1 0x40 DUP2 KECCAK256 PUSH1 0x8 ADD DUP1 SLOAD SWAP2 PUSH2 0x10EF DUP4 PUSH2 0x3549 JUMP JUMPDEST SWAP1 SWAP2 SSTORE POP POP CALLER PUSH1 0x0 SWAP1 DUP2 MSTORE PUSH2 0x12D PUSH1 0x20 MSTORE PUSH1 0x40 DUP2 KECCAK256 PUSH1 0x2 ADD DUP1 SLOAD PUSH1 0xA SWAP3 SWAP1 PUSH2 0x1118 SWAP1 DUP5 SWAP1 PUSH2 0x366E JUMP JUMPDEST SWAP1 SWAP2 SSTORE POP POP PUSH1 0x3 DUP4 ADD SLOAD PUSH2 0x134 DUP1 SLOAD PUSH1 0x0 SWAP1 PUSH2 0x1135 SWAP1 DUP5 SWAP1 PUSH2 0x366E JUMP JUMPDEST SWAP3 POP POP DUP2 SWAP1 SSTORE POP DUP6 PUSH32 0x58E249B9328BC8509283E8D24898AB201B6FD08CD489DE5995FFF808670B897C DUP7 DUP7 DUP6 PUSH1 0x40 MLOAD PUSH2 0x1170 SWAP4 SWAP3 SWAP2 SWAP1 PUSH2 0x3681 JUMP JUMPDEST PUSH1 0x40 MLOAD DUP1 SWAP2 SUB SWAP1 LOG2 CALLER PUSH1 0x0 DUP2 DUP2 MSTORE PUSH2 0x12D PUSH1 0x20 MSTORE PUSH1 0x40 SWAP1 KECCAK256 PUSH1 0x2 ADD SLOAD PUSH32 0x5B88A2E3FC1A53234357AB78C104DF11C33CCFA79886793654565AD70B8AFB6E SWAP1 PUSH2 0x11BA SWAP1 PUSH1 0xA SWAP1 PUSH2 0x3622 JUMP JUMPDEST CALLER PUSH1 0x0 SWAP1 DUP2 MSTORE PUSH2 0x12D PUSH1 0x20 SWAP1 DUP2 MSTORE PUSH1 0x40 SWAP2 DUP3 SWAP1 KECCAK256 PUSH1 0x2 ADD SLOAD DUP3 MLOAD SWAP4 DUP5 MSTORE SWAP1 DUP4 ADD MSTORE ADD PUSH1 0x40 MLOAD DUP1 SWAP2 SUB SWAP1 LOG2 POP POP POP PUSH2 0x11F1 PUSH1 0x1 PUSH1 0xC9 SSTORE JUMP JUMPDEST POP POP POP JUMP JUMPDEST PUSH2 0x11FE PUSH2 0x2595 JUMP JUMPDEST PUSH1 0x1 PUSH1 0x1 PUSH1 0xA0 SHL SUB DUP3 AND PUSH1 0x0 SWAP1 DUP2 MSTORE PUSH2 0x12D PUSH1 0x20 MSTORE PUSH1 0x40 SWAP1 KECCAK256 PUSH1 0x2 ADD SLOAD PUSH2 0x2710 DUP2 GT ISZERO PUSH2 0x126D JUMPI PUSH1 0x40 MLOAD PUSH3 0x461BCD PUSH1 0xE5 SHL DUP2 MSTORE PUSH1 0x20 PUSH1 0x4 DUP3 ADD MSTORE PUSH1 0x18 PUSH1 0x24 DUP3 ADD MSTORE PUSH32 0x496E76616C69642072657075746174696F6E2073636F72650000000000000000 PUSH1 0x44 DUP3 ADD MSTORE PUSH1 0x64 ADD PUSH2 0xA19 JUMP JUMPDEST PUSH1 0x1 PUSH1 0x1 PUSH1 0xA0 SHL SUB DUP4 AND PUSH1 0x0 SWAP1 DUP2 MSTORE PUSH2 0x12D PUSH1 0x20 MSTORE PUSH1 0x40 DUP2 KECCAK256 PUSH1 0x2 ADD SLOAD SWAP1 DUP1 DUP5 SGT ISZERO PUSH2 0x12B3 JUMPI PUSH2 0x129D DUP5 DUP4 PUSH2 0x366E JUMP JUMPDEST SWAP1 POP PUSH2 0x2710 DUP2 GT ISZERO PUSH2 0x12AE JUMPI POP PUSH2 0x2710 JUMPDEST PUSH2 0x12DF JUMP JUMPDEST PUSH1 0x0 PUSH2 0x12BE DUP6 PUSH2 0x36BA JUMP JUMPDEST SWAP1 POP DUP3 DUP2 LT PUSH2 0x12D0 JUMPI PUSH1 0x0 SWAP2 POP PUSH2 0x12DD JUMP JUMPDEST PUSH2 0x12DA DUP2 DUP5 PUSH2 0x3622 JUMP JUMPDEST SWAP2 POP JUMPDEST POP JUMPDEST PUSH1 0x1 PUSH1 0x1 PUSH1 0xA0 SHL SUB DUP6 AND PUSH1 0x0 DUP2 DUP2 MSTORE PUSH2 0x12D PUSH1 0x20 SWAP1 DUP2 MSTORE PUSH1 0x40 SWAP2 DUP3 SWAP1 KECCAK256 PUSH1 0x2 ADD DUP5 SWAP1 SSTORE DUP2 MLOAD DUP6 DUP2 MSTORE SWAP1 DUP2 ADD DUP5 SWAP1 MSTORE PUSH32 0x5B88A2E3FC1A53234357AB78C104DF11C33CCFA79886793654565AD70B8AFB6E SWAP2 ADD PUSH1 0x40 MLOAD DUP1 SWAP2 SUB SWAP1 LOG2 POP POP POP POP POP JUMP JUMPDEST PUSH2 0x1347 PUSH2 0x2595 JUMP JUMPDEST PUSH1 0x0 PUSH2 0x13B SLOAD TIMESTAMP PUSH2 0xB97 SWAP2 SWAP1 PUSH2 0x3622 JUMP JUMPDEST PUSH2 0x1360 PUSH2 0x2595 JUMP JUMPDEST PUSH2 0xAC9 PUSH1 0x0 PUSH2 0x2814 JUMP JUMPDEST PUSH1 0x0 SLOAD PUSH2 0x100 SWAP1 DIV PUSH1 0xFF AND ISZERO DUP1 DUP1 ISZERO PUSH2 0x138A JUMPI POP PUSH1 0x0 SLOAD PUSH1 0x1 PUSH1 0xFF SWAP1 SWAP2 AND LT JUMPDEST DUP1 PUSH2 0x13A4 JUMPI POP ADDRESS EXTCODESIZE ISZERO DUP1 ISZERO PUSH2 0x13A4 JUMPI POP PUSH1 0x0 SLOAD PUSH1 0xFF AND PUSH1 0x1 EQ JUMPDEST PUSH2 0x1407 JUMPI PUSH1 0x40 MLOAD PUSH3 0x461BCD PUSH1 0xE5 SHL DUP2 MSTORE PUSH1 0x20 PUSH1 0x4 DUP3 ADD MSTORE PUSH1 0x2E PUSH1 0x24 DUP3 ADD MSTORE PUSH32 0x496E697469616C697A61626C653A20636F6E747261637420697320616C726561 PUSH1 0x44 DUP3 ADD MSTORE PUSH14 0x191E481A5B9A5D1A585B1A5E9959 PUSH1 0x92 SHL PUSH1 0x64 DUP3 ADD MSTORE PUSH1 0x84 ADD PUSH2 0xA19 JUMP JUMPDEST PUSH1 0x0 DUP1 SLOAD PUSH1 0xFF NOT AND PUSH1 0x1 OR SWAP1 SSTORE DUP1 ISZERO PUSH2 0x142A JUMPI PUSH1 0x0 DUP1 SLOAD PUSH2 0xFF00 NOT AND PUSH2 0x100 OR SWAP1 SSTORE JUMPDEST PUSH2 0x1432 PUSH2 0x2866 JUMP JUMPDEST PUSH2 0x143A PUSH2 0x2895 JUMP JUMPDEST PUSH2 0x1442 PUSH2 0x28BC JUMP JUMPDEST PUSH2 0x144A PUSH2 0x28EB JUMP JUMPDEST PUSH9 0x56BC75E2D63100000 PUSH2 0x135 SSTORE PUSH8 0xDE0B6B3A7640000 PUSH2 0x136 SSTORE PUSH2 0x12C PUSH2 0x137 SSTORE PUSH9 0x3635C9ADC5DEA00000 PUSH2 0x138 SSTORE PUSH2 0x3E8 PUSH2 0x139 SSTORE PUSH1 0x5 PUSH2 0x13A SSTORE TIMESTAMP PUSH2 0x13B SSTORE DUP1 ISZERO PUSH2 0xAB6 JUMPI PUSH1 0x0 DUP1 SLOAD PUSH2 0xFF00 NOT AND SWAP1 SSTORE PUSH1 0x40 MLOAD PUSH1 0x1 DUP2 MSTORE PUSH32 0x7F26B83FF96E1F2B6A682F133852F6798A09C465DA95921460CEFB3847402498 SWAP1 PUSH1 0x20 ADD PUSH1 0x40 MLOAD DUP1 SWAP2 SUB SWAP1 LOG1 POP JUMP JUMPDEST PUSH2 0x14DC PUSH2 0x2595 JUMP JUMPDEST PUSH2 0xAC9 PUSH2 0x291A JUMP JUMPDEST PUSH2 0x14EC PUSH2 0x2595 JUMP JUMPDEST PUSH2 0x3E8 DUP2 GT ISZERO PUSH2 0x1532 JUMPI PUSH1 0x40 MLOAD PUSH3 0x461BCD PUSH1 0xE5 SHL DUP2 MSTORE PUSH1 0x20 PUSH1 0x4 DUP3 ADD MSTORE PUSH1 0x11 PUSH1 0x24 DUP3 ADD MSTORE PUSH17 0x8CCACA40E4C2E8CA40E8DEDE40D0D2CED PUSH1 0x7B SHL PUSH1 0x44 DUP3 ADD MSTORE PUSH1 0x64 ADD PUSH2 0xA19 JUMP JUMPDEST PUSH2 0x137 SSTORE JUMP JUMPDEST PUSH2 0x1540 PUSH2 0x2595 JUMP JUMPDEST PUSH2 0x13A SSTORE JUMP JUMPDEST PUSH2 0x130 PUSH1 0x20 MSTORE PUSH1 0x0 SWAP1 DUP2 MSTORE PUSH1 0x40 SWAP1 KECCAK256 DUP1 SLOAD PUSH1 0x1 DUP3 ADD SLOAD PUSH1 0x2 DUP4 ADD DUP1 SLOAD PUSH1 0x1 PUSH1 0x1 PUSH1 0xA0 SHL SUB SWAP4 DUP5 AND SWAP5 SWAP3 SWAP1 SWAP4 AND SWAP3 PUSH2 0x157C SWAP1 PUSH2 0x3353 JUMP JUMPDEST DUP1 PUSH1 0x1F ADD PUSH1 0x20 DUP1 SWAP2 DIV MUL PUSH1 0x20 ADD PUSH1 0x40 MLOAD SWAP1 DUP2 ADD PUSH1 0x40 MSTORE DUP1 SWAP3 SWAP2 SWAP1 DUP2 DUP2 MSTORE PUSH1 0x20 ADD DUP3 DUP1 SLOAD PUSH2 0x15A8 SWAP1 PUSH2 0x3353 JUMP JUMPDEST DUP1 ISZERO PUSH2 0x15F5 JUMPI DUP1 PUSH1 0x1F LT PUSH2 0x15CA JUMPI PUSH2 0x100 DUP1 DUP4 SLOAD DIV MUL DUP4 MSTORE SWAP2 PUSH1 0x20 ADD SWAP2 PUSH2 0x15F5 JUMP JUMPDEST DUP3 ADD SWAP2 SWAP1 PUSH1 0x0 MSTORE PUSH1 0x20 PUSH1 0x0 KECCAK256 SWAP1 JUMPDEST DUP2 SLOAD DUP2 MSTORE SWAP1 PUSH1 0x1 ADD SWAP1 PUSH1 0x20 ADD DUP1 DUP4 GT PUSH2 0x15D8 JUMPI DUP3 SWAP1 SUB PUSH1 0x1F AND DUP3 ADD SWAP2 JUMPDEST POP POP POP PUSH1 0x3 DUP5 ADD SLOAD PUSH1 0x4 DUP6 ADD SLOAD PUSH1 0x5 DUP7 ADD SLOAD PUSH1 0x6 DUP8 ADD DUP1 SLOAD SWAP7 SWAP8 SWAP4 SWAP7 SWAP3 SWAP6 POP PUSH1 0xFF SWAP1 SWAP2 AND SWAP4 POP SWAP1 PUSH2 0x1625 SWAP1 PUSH2 0x3353 JUMP JUMPDEST DUP1 PUSH1 0x1F ADD PUSH1 0x20 DUP1 SWAP2 DIV MUL PUSH1 0x20 ADD PUSH1 0x40 MLOAD SWAP1 DUP2 ADD PUSH1 0x40 MSTORE DUP1 SWAP3 SWAP2 SWAP1 DUP2 DUP2 MSTORE PUSH1 0x20 ADD DUP3 DUP1 SLOAD PUSH2 0x1651 SWAP1 PUSH2 0x3353 JUMP JUMPDEST DUP1 ISZERO PUSH2 0x169E JUMPI DUP1 PUSH1 0x1F LT PUSH2 0x1673 JUMPI PUSH2 0x100 DUP1 DUP4 SLOAD DIV MUL DUP4 MSTORE SWAP2 PUSH1 0x20 ADD SWAP2 PUSH2 0x169E JUMP JUMPDEST DUP3 ADD SWAP2 SWAP1 PUSH1 0x0 MSTORE PUSH1 0x20 PUSH1 0x0 KECCAK256 SWAP1 JUMPDEST DUP2 SLOAD DUP2 MSTORE SWAP1 PUSH1 0x1 ADD SWAP1 PUSH1 0x20 ADD DUP1 DUP4 GT PUSH2 0x1681 JUMPI DUP3 SWAP1 SUB PUSH1 0x1F AND DUP3 ADD SWAP2 JUMPDEST POP POP POP POP POP SWAP1 POP DUP8 JUMP JUMPDEST PUSH2 0x16B0 PUSH2 0x2595 JUMP JUMPDEST PUSH2 0x135 SSTORE JUMP JUMPDEST PUSH2 0x16BE PUSH2 0x2595 JUMP JUMPDEST PUSH1 0x1 PUSH1 0x1 PUSH1 0xA0 SHL SUB DUP3 AND PUSH1 0x0 SWAP1 DUP2 MSTORE PUSH2 0x12D PUSH1 0x20 MSTORE PUSH1 0x40 SWAP1 KECCAK256 PUSH1 0x3 ADD SLOAD PUSH1 0xFF AND PUSH2 0x1721 JUMPI PUSH1 0x40 MLOAD PUSH3 0x461BCD PUSH1 0xE5 SHL DUP2 MSTORE PUSH1 0x20 PUSH1 0x4 DUP3 ADD MSTORE PUSH1 0x14 PUSH1 0x24 DUP3 ADD MSTORE PUSH20 0x1059D95B9D081B9BDD081C9959DA5CDD195C9959 PUSH1 0x62 SHL PUSH1 0x44 DUP3 ADD MSTORE PUSH1 0x64 ADD PUSH2 0xA19 JUMP JUMPDEST PUSH1 0x1 PUSH1 0x1 PUSH1 0xA0 SHL SUB DUP3 AND PUSH1 0x0 SWAP1 DUP2 MSTORE PUSH2 0x12D PUSH1 0x20 MSTORE PUSH1 0x40 SWAP1 KECCAK256 PUSH1 0x9 ADD SLOAD PUSH1 0xFF AND ISZERO PUSH2 0x1787 JUMPI PUSH1 0x40 MLOAD PUSH3 0x461BCD PUSH1 0xE5 SHL DUP2 MSTORE PUSH1 0x20 PUSH1 0x4 DUP3 ADD MSTORE PUSH1 0x16 PUSH1 0x24 DUP3 ADD MSTORE PUSH22 0x1059D95B9D08185B1C9958591E481D995C9A599A5959 PUSH1 0x52 SHL PUSH1 0x44 DUP3 ADD MSTORE PUSH1 0x64 ADD PUSH2 0xA19 JUMP JUMPDEST DUP1 CALLDATALOAD ISZERO ISZERO DUP1 PUSH2 0x17CC JUMPI PUSH1 0x40 MLOAD PUSH3 0x461BCD PUSH1 0xE5 SHL DUP2 MSTORE PUSH1 0x20 PUSH1 0x4 DUP3 ADD MSTORE PUSH1 0x11 PUSH1 0x24 DUP3 ADD MSTORE PUSH17 0x24B73B30B634B2102D25A810383937B7B3 PUSH1 0x79 SHL PUSH1 0x44 DUP3 ADD MSTORE PUSH1 0x64 ADD PUSH2 0xA19 JUMP JUMPDEST PUSH1 0x1 PUSH1 0x1 PUSH1 0xA0 SHL SUB DUP4 AND PUSH1 0x0 SWAP1 DUP2 MSTORE PUSH2 0x12D PUSH1 0x20 MSTORE PUSH1 0x40 DUP2 KECCAK256 PUSH1 0x9 DUP2 ADD DUP1 SLOAD PUSH1 0xFF NOT AND PUSH1 0x1 OR SWAP1 SSTORE PUSH1 0x2 ADD DUP1 SLOAD PUSH2 0x3E8 SWAP3 SWAP1 PUSH2 0x1809 SWAP1 DUP5 SWAP1 PUSH2 0x366E JUMP JUMPDEST SWAP1 SWAP2 SSTORE POP POP PUSH1 0x40 MLOAD PUSH1 0x1 DUP2 MSTORE PUSH1 0x1 PUSH1 0x1 PUSH1 0xA0 SHL SUB DUP5 AND SWAP1 PUSH32 0xB0C56617EC919721F803618B5F53891E275C7AADDBDF3C17C45F3252854FA70B SWAP1 PUSH1 0x20 ADD PUSH1 0x40 MLOAD DUP1 SWAP2 SUB SWAP1 LOG2 PUSH1 0x1 PUSH1 0x1 PUSH1 0xA0 SHL SUB DUP4 AND PUSH1 0x0 DUP2 DUP2 MSTORE PUSH2 0x12D PUSH1 0x20 MSTORE PUSH1 0x40 SWAP1 KECCAK256 PUSH1 0x2 ADD SLOAD PUSH32 0x5B88A2E3FC1A53234357AB78C104DF11C33CCFA79886793654565AD70B8AFB6E SWAP1 PUSH2 0x1899 SWAP1 PUSH2 0x3E8 SWAP1 PUSH2 0x3622 JUMP JUMPDEST PUSH1 0x1 PUSH1 0x1 PUSH1 0xA0 SHL SUB DUP7 AND PUSH1 0x0 SWAP1 DUP2 MSTORE PUSH2 0x12D PUSH1 0x20 SWAP1 DUP2 MSTORE PUSH1 0x40 SWAP2 DUP3 SWAP1 KECCAK256 PUSH1 0x2 ADD SLOAD DUP3 MLOAD SWAP4 DUP5 MSTORE SWAP1 DUP4 ADD MSTORE ADD PUSH1 0x40 MLOAD DUP1 SWAP2 SUB SWAP1 LOG2 POP POP POP JUMP JUMPDEST PUSH2 0x18D9 PUSH2 0x27B4 JUMP JUMPDEST PUSH2 0x18E1 PUSH2 0x2957 JUMP JUMPDEST CALLER PUSH1 0x0 SWAP1 DUP2 MSTORE PUSH2 0x12D PUSH1 0x20 MSTORE PUSH1 0x40 SWAP1 KECCAK256 PUSH1 0x3 ADD SLOAD PUSH1 0xFF AND ISZERO PUSH2 0x1945 JUMPI PUSH1 0x40 MLOAD PUSH3 0x461BCD PUSH1 0xE5 SHL DUP2 MSTORE PUSH1 0x20 PUSH1 0x4 DUP3 ADD MSTORE PUSH1 0x18 PUSH1 0x24 DUP3 ADD MSTORE PUSH32 0x4167656E7420616C726561647920726567697374657265640000000000000000 PUSH1 0x44 DUP3 ADD MSTORE PUSH1 0x64 ADD PUSH2 0xA19 JUMP JUMPDEST PUSH2 0x138 SLOAD DUP2 LT ISZERO PUSH2 0x1998 JUMPI PUSH1 0x40 MLOAD PUSH3 0x461BCD PUSH1 0xE5 SHL DUP2 MSTORE PUSH1 0x20 PUSH1 0x4 DUP3 ADD MSTORE PUSH1 0x19 PUSH1 0x24 DUP3 ADD MSTORE PUSH32 0x496E73756666696369656E74207374616B6520616D6F756E7400000000000000 PUSH1 0x44 DUP3 ADD MSTORE PUSH1 0x64 ADD PUSH2 0xA19 JUMP JUMPDEST DUP4 PUSH2 0x19DC JUMPI PUSH1 0x40 MLOAD PUSH3 0x461BCD PUSH1 0xE5 SHL DUP2 MSTORE PUSH1 0x20 PUSH1 0x4 DUP3 ADD MSTORE PUSH1 0x14 PUSH1 0x24 DUP3 ADD MSTORE PUSH20 0x125B9D985B1A590811125108191BD8DD5B595B9D PUSH1 0x62 SHL PUSH1 0x44 DUP3 ADD MSTORE PUSH1 0x64 ADD PUSH2 0xA19 JUMP JUMPDEST PUSH1 0x0 PUSH1 0x1 PUSH1 0x1 PUSH1 0xA0 SHL SUB AND PUSH2 0x12E DUP7 DUP7 PUSH1 0x40 MLOAD PUSH2 0x19FA SWAP3 SWAP2 SWAP1 PUSH2 0x36D6 JUMP JUMPDEST SWAP1 DUP2 MSTORE PUSH1 0x40 MLOAD SWAP1 DUP2 SWAP1 SUB PUSH1 0x20 ADD SWAP1 KECCAK256 SLOAD PUSH1 0x1 PUSH1 0x1 PUSH1 0xA0 SHL SUB AND EQ PUSH2 0x1A55 JUMPI PUSH1 0x40 MLOAD PUSH3 0x461BCD PUSH1 0xE5 SHL DUP2 MSTORE PUSH1 0x20 PUSH1 0x4 DUP3 ADD MSTORE PUSH1 0x12 PUSH1 0x24 DUP3 ADD MSTORE PUSH18 0x44494420616C726561647920657869737473 PUSH1 0x70 SHL PUSH1 0x44 DUP3 ADD MSTORE PUSH1 0x64 ADD PUSH2 0xA19 JUMP JUMPDEST PUSH2 0x135 SLOAD CALLVALUE LT ISZERO PUSH2 0x1AA8 JUMPI PUSH1 0x40 MLOAD PUSH3 0x461BCD PUSH1 0xE5 SHL DUP2 MSTORE PUSH1 0x20 PUSH1 0x4 DUP3 ADD MSTORE PUSH1 0x1D PUSH1 0x24 DUP3 ADD MSTORE PUSH32 0x496E73756666696369656E7420726567697374726174696F6E20666565000000 PUSH1 0x44 DUP3 ADD MSTORE PUSH1 0x64 ADD PUSH2 0xA19 JUMP JUMPDEST PUSH1 0x40 MLOAD DUP1 PUSH2 0x140 ADD PUSH1 0x40 MSTORE DUP1 DUP7 DUP7 DUP1 DUP1 PUSH1 0x1F ADD PUSH1 0x20 DUP1 SWAP2 DIV MUL PUSH1 0x20 ADD PUSH1 0x40 MLOAD SWAP1 DUP2 ADD PUSH1 0x40 MSTORE DUP1 SWAP4 SWAP3 SWAP2 SWAP1 DUP2 DUP2 MSTORE PUSH1 0x20 ADD DUP4 DUP4 DUP1 DUP3 DUP5 CALLDATACOPY PUSH1 0x0 SWAP3 ADD SWAP2 SWAP1 SWAP2 MSTORE POP POP POP SWAP1 DUP3 MSTORE POP PUSH1 0x40 DUP1 MLOAD PUSH1 0x20 PUSH1 0x1F DUP8 ADD DUP2 SWAP1 DIV DUP2 MUL DUP3 ADD DUP2 ADD SWAP1 SWAP3 MSTORE DUP6 DUP2 MSTORE SWAP2 DUP2 ADD SWAP2 SWAP1 DUP7 SWAP1 DUP7 SWAP1 DUP2 SWAP1 DUP5 ADD DUP4 DUP3 DUP1 DUP3 DUP5 CALLDATACOPY PUSH1 0x0 SWAP3 ADD DUP3 SWAP1 MSTORE POP SWAP4 DUP6 MSTORE POP POP PUSH2 0x3E8 PUSH1 0x20 DUP1 DUP6 ADD SWAP2 SWAP1 SWAP2 MSTORE PUSH1 0x1 PUSH1 0x40 DUP1 DUP7 ADD SWAP2 SWAP1 SWAP2 MSTORE TIMESTAMP PUSH1 0x60 DUP7 ADD DUP2 SWAP1 MSTORE PUSH1 0x80 DUP7 ADD MSTORE PUSH1 0xA0 DUP6 ADD DUP8 SWAP1 MSTORE PUSH1 0xC0 DUP6 ADD DUP5 SWAP1 MSTORE PUSH1 0xE0 DUP6 ADD DUP5 SWAP1 MSTORE PUSH2 0x100 SWAP1 SWAP5 ADD DUP4 SWAP1 MSTORE CALLER DUP4 MSTORE PUSH2 0x12D SWAP1 MSTORE POP KECCAK256 DUP2 MLOAD DUP2 SWAP1 PUSH2 0x1B80 SWAP1 DUP3 PUSH2 0x3473 JUMP JUMPDEST POP PUSH1 0x20 DUP3 ADD MLOAD PUSH1 0x1 DUP3 ADD SWAP1 PUSH2 0x1B95 SWAP1 DUP3 PUSH2 0x3473 JUMP JUMPDEST POP PUSH1 0x40 DUP3 DUP2 ADD MLOAD PUSH1 0x2 DUP4 ADD SSTORE PUSH1 0x60 DUP4 ADD MLOAD PUSH1 0x3 DUP4 ADD DUP1 SLOAD SWAP2 ISZERO ISZERO PUSH1 0xFF NOT SWAP3 DUP4 AND OR SWAP1 SSTORE PUSH1 0x80 DUP5 ADD MLOAD PUSH1 0x4 DUP5 ADD SSTORE PUSH1 0xA0 DUP5 ADD MLOAD PUSH1 0x5 DUP5 ADD SSTORE PUSH1 0xC0 DUP5 ADD MLOAD PUSH1 0x6 DUP5 ADD SSTORE PUSH1 0xE0 DUP5 ADD MLOAD PUSH1 0x7 DUP5 ADD SSTORE PUSH2 0x100 DUP5 ADD MLOAD PUSH1 0x8 DUP5 ADD SSTORE PUSH2 0x120 SWAP1 SWAP4 ADD MLOAD PUSH1 0x9 SWAP1 SWAP3 ADD DUP1 SLOAD SWAP3 ISZERO ISZERO SWAP3 SWAP1 SWAP4 AND SWAP2 SWAP1 SWAP2 OR SWAP1 SWAP2 SSTORE MLOAD CALLER SWAP1 PUSH2 0x12E SWAP1 PUSH2 0x1C1B SWAP1 DUP9 SWAP1 DUP9 SWAP1 PUSH2 0x36D6 JUMP JUMPDEST SWAP1 DUP2 MSTORE PUSH1 0x40 MLOAD SWAP1 DUP2 SWAP1 SUB PUSH1 0x20 ADD SWAP1 KECCAK256 DUP1 SLOAD PUSH1 0x1 PUSH1 0x1 PUSH1 0xA0 SHL SUB SWAP3 SWAP1 SWAP3 AND PUSH1 0x1 PUSH1 0x1 PUSH1 0xA0 SHL SUB NOT SWAP1 SWAP3 AND SWAP2 SWAP1 SWAP2 OR SWAP1 SSTORE PUSH2 0x131 DUP1 SLOAD SWAP1 PUSH1 0x0 PUSH2 0x1C5B DUP4 PUSH2 0x3549 JUMP JUMPDEST SWAP2 SWAP1 POP SSTORE POP CALLER PUSH1 0x1 PUSH1 0x1 PUSH1 0xA0 SHL SUB AND PUSH32 0x23C5EFE572C42192271951ADB0E77F97D7FC84BC761D026189AC08617346824 DUP7 DUP7 DUP5 PUSH1 0x40 MLOAD PUSH2 0x1C9D SWAP4 SWAP3 SWAP2 SWAP1 PUSH2 0x3681 JUMP JUMPDEST PUSH1 0x40 MLOAD DUP1 SWAP2 SUB SWAP1 LOG2 PUSH2 0x1CAF PUSH1 0x1 PUSH1 0xC9 SSTORE JUMP JUMPDEST POP POP POP POP POP JUMP JUMPDEST CALLER PUSH1 0x0 SWAP1 DUP2 MSTORE PUSH2 0x12D PUSH1 0x20 MSTORE PUSH1 0x40 SWAP1 KECCAK256 PUSH1 0x3 ADD SLOAD PUSH1 0xFF AND PUSH2 0x1D10 JUMPI PUSH1 0x40 MLOAD PUSH3 0x461BCD PUSH1 0xE5 SHL DUP2 MSTORE PUSH1 0x20 PUSH1 0x4 DUP3 ADD MSTORE PUSH1 0x14 PUSH1 0x24 DUP3 ADD MSTORE PUSH20 0x1059D95B9D081B9BDD081C9959DA5CDD195C9959 PUSH1 0x62 SHL PUSH1 0x44 DUP3 ADD MSTORE PUSH1 0x64 ADD PUSH2 0xA19 JUMP JUMPDEST PUSH2 0x1D18 PUSH2 0x27B4 JUMP JUMPDEST PUSH1 0x1 PUSH1 0x1 PUSH1 0xA0 SHL SUB DUP4 AND PUSH1 0x0 SWAP1 DUP2 MSTORE PUSH2 0x12D PUSH1 0x20 MSTORE PUSH1 0x40 SWAP1 KECCAK256 PUSH1 0x3 ADD SLOAD PUSH1 0xFF AND PUSH2 0x1D84 JUMPI PUSH1 0x40 MLOAD PUSH3 0x461BCD PUSH1 0xE5 SHL DUP2 MSTORE PUSH1 0x20 PUSH1 0x4 DUP3 ADD MSTORE PUSH1 0x17 PUSH1 0x24 DUP3 ADD MSTORE PUSH32 0x546172676574206167656E74206E6F7420616374697665000000000000000000 PUSH1 0x44 DUP3 ADD MSTORE PUSH1 0x64 ADD PUSH2 0xA19 JUMP JUMPDEST PUSH2 0x136 SLOAD CALLVALUE LT ISZERO PUSH2 0x1DD7 JUMPI PUSH1 0x40 MLOAD PUSH3 0x461BCD PUSH1 0xE5 SHL DUP2 MSTORE PUSH1 0x20 PUSH1 0x4 DUP3 ADD MSTORE PUSH1 0x18 PUSH1 0x24 DUP3 ADD MSTORE PUSH32 0x496E73756666696369656E74206D657373616765206665650000000000000000 PUSH1 0x44 DUP3 ADD MSTORE PUSH1 0x64 ADD PUSH2 0xA19 JUMP JUMPDEST DUP1 PUSH2 0x1E1A JUMPI PUSH1 0x40 MLOAD PUSH3 0x461BCD PUSH1 0xE5 SHL DUP2 MSTORE PUSH1 0x20 PUSH1 0x4 DUP3 ADD MSTORE PUSH1 0x13 PUSH1 0x24 DUP3 ADD MSTORE PUSH19 0x125B9D985B1A59081B595CDCD859D94810D251 PUSH1 0x6A SHL PUSH1 0x44 DUP3 ADD MSTORE PUSH1 0x64 ADD PUSH2 0xA19 JUMP JUMPDEST PUSH1 0x0 CALLER DUP5 DUP5 DUP5 TIMESTAMP PUSH1 0x40 MLOAD PUSH1 0x20 ADD PUSH2 0x1E35 SWAP6 SWAP5 SWAP4 SWAP3 SWAP2 SWAP1 PUSH2 0x36E6 JUMP JUMPDEST PUSH1 0x40 DUP1 MLOAD PUSH1 0x1F NOT DUP2 DUP5 SUB ADD DUP2 MSTORE DUP3 DUP3 MSTORE DUP1 MLOAD PUSH1 0x20 SWAP2 DUP3 ADD KECCAK256 PUSH1 0xC0 DUP5 ADD DUP4 MSTORE CALLER DUP5 MSTORE PUSH1 0x1 PUSH1 0x1 PUSH1 0xA0 SHL SUB DUP9 AND DUP5 DUP4 ADD MSTORE DUP3 MLOAD PUSH1 0x1F DUP8 ADD DUP4 SWAP1 DIV DUP4 MUL DUP2 ADD DUP4 ADD DUP5 MSTORE DUP7 DUP2 MSTORE SWAP1 SWAP5 POP SWAP2 DUP4 ADD SWAP2 SWAP1 DUP7 SWAP1 DUP7 SWAP1 DUP2 SWAP1 DUP5 ADD DUP4 DUP3 DUP1 DUP3 DUP5 CALLDATACOPY PUSH1 0x0 SWAP3 ADD DUP3 SWAP1 MSTORE POP SWAP4 DUP6 MSTORE POP POP TIMESTAMP PUSH1 0x20 DUP1 DUP6 ADD SWAP2 SWAP1 SWAP2 MSTORE PUSH1 0x40 DUP1 DUP6 ADD DUP5 SWAP1 MSTORE CALLVALUE PUSH1 0x60 SWAP1 SWAP6 ADD SWAP5 SWAP1 SWAP5 MSTORE DUP6 DUP4 MSTORE PUSH2 0x12F DUP2 MSTORE SWAP2 DUP4 SWAP1 KECCAK256 DUP5 MLOAD DUP2 SLOAD PUSH1 0x1 PUSH1 0x1 PUSH1 0xA0 SHL SUB NOT SWAP1 DUP2 AND PUSH1 0x1 PUSH1 0x1 PUSH1 0xA0 SHL SUB SWAP3 DUP4 AND OR DUP4 SSTORE SWAP4 DUP7 ADD MLOAD PUSH1 0x1 DUP4 ADD DUP1 SLOAD SWAP1 SWAP6 AND SWAP2 AND OR SWAP1 SWAP3 SSTORE POP SWAP1 DUP3 ADD MLOAD PUSH1 0x2 DUP3 ADD SWAP1 PUSH2 0x1F08 SWAP1 DUP3 PUSH2 0x3473 JUMP JUMPDEST POP PUSH1 0x60 DUP3 ADD MLOAD PUSH1 0x3 DUP3 ADD SSTORE PUSH1 0x80 DUP3 ADD MLOAD PUSH1 0x4 DUP3 ADD DUP1 SLOAD PUSH1 0xFF NOT AND SWAP2 ISZERO ISZERO SWAP2 SWAP1 SWAP2 OR SWAP1 SSTORE PUSH1 0xA0 SWAP1 SWAP2 ADD MLOAD PUSH1 0x5 SWAP1 SWAP2 ADD SSTORE PUSH2 0x132 DUP1 SLOAD SWAP1 PUSH1 0x0 PUSH2 0x1F48 DUP4 PUSH2 0x3549 JUMP JUMPDEST SWAP2 SWAP1 POP SSTORE POP CALLVALUE PUSH2 0x134 PUSH1 0x0 DUP3 DUP3 SLOAD PUSH2 0x1F60 SWAP2 SWAP1 PUSH2 0x366E JUMP JUMPDEST SWAP1 SWAP2 SSTORE POP POP CALLER PUSH1 0x0 DUP2 DUP2 MSTORE PUSH2 0x12D PUSH1 0x20 SWAP1 DUP2 MSTORE PUSH1 0x40 DUP1 DUP4 KECCAK256 TIMESTAMP PUSH1 0x5 SWAP2 DUP3 ADD DUP2 SWAP1 SSTORE PUSH1 0x1 PUSH1 0x1 PUSH1 0xA0 SHL SUB DUP11 AND DUP1 DUP7 MSTORE SWAP5 DUP4 SWAP1 KECCAK256 SWAP1 SWAP2 ADD SSTORE DUP1 MLOAD SWAP4 DUP5 MSTORE SWAP1 DUP4 ADD SWAP2 SWAP1 SWAP2 MSTORE CALLVALUE SWAP1 DUP3 ADD MSTORE DUP2 SWAP1 PUSH32 0x3C20D4E8F42599EDDF3CDB1184580D4AD4D4A3063DBD500A519F8FCF11EA2414 SWAP1 PUSH1 0x60 ADD PUSH1 0x40 MLOAD DUP1 SWAP2 SUB SWAP1 LOG2 POP PUSH2 0x11F1 PUSH1 0x1 PUSH1 0xC9 SSTORE JUMP JUMPDEST PUSH2 0x1FE9 PUSH2 0x2595 JUMP JUMPDEST PUSH2 0x138 SSTORE JUMP JUMPDEST PUSH1 0x40 DUP1 MLOAD PUSH1 0xE0 DUP1 DUP3 ADD DUP4 MSTORE PUSH1 0x0 DUP1 DUP4 MSTORE PUSH1 0x20 DUP1 DUP5 ADD DUP3 SWAP1 MSTORE PUSH1 0x60 DUP5 DUP7 ADD DUP2 SWAP1 MSTORE DUP1 DUP6 ADD DUP4 SWAP1 MSTORE PUSH1 0x80 DUP6 ADD DUP4 SWAP1 MSTORE PUSH1 0xA0 DUP6 ADD DUP4 SWAP1 MSTORE PUSH1 0xC0 DUP6 ADD MSTORE DUP6 DUP3 MSTORE PUSH2 0x130 DUP2 MSTORE SWAP1 DUP5 SWAP1 KECCAK256 DUP5 MLOAD SWAP3 DUP4 ADD DUP6 MSTORE DUP1 SLOAD PUSH1 0x1 PUSH1 0x1 PUSH1 0xA0 SHL SUB SWAP1 DUP2 AND DUP5 MSTORE PUSH1 0x1 DUP3 ADD SLOAD AND SWAP2 DUP4 ADD SWAP2 SWAP1 SWAP2 MSTORE PUSH1 0x2 DUP2 ADD DUP1 SLOAD SWAP4 SWAP5 SWAP3 SWAP4 SWAP2 SWAP3 DUP5 ADD SWAP2 PUSH2 0x206F SWAP1 PUSH2 0x3353 JUMP JUMPDEST DUP1 PUSH1 0x1F ADD PUSH1 0x20 DUP1 SWAP2 DIV MUL PUSH1 0x20 ADD PUSH1 0x40 MLOAD SWAP1 DUP2 ADD PUSH1 0x40 MSTORE DUP1 SWAP3 SWAP2 SWAP1 DUP2 DUP2 MSTORE PUSH1 0x20 ADD DUP3 DUP1 SLOAD PUSH2 0x209B SWAP1 PUSH2 0x3353 JUMP JUMPDEST DUP1 ISZERO PUSH2 0x20E8 JUMPI DUP1 PUSH1 0x1F LT PUSH2 0x20BD JUMPI PUSH2 0x100 DUP1 DUP4 SLOAD DIV MUL DUP4 MSTORE SWAP2 PUSH1 0x20 ADD SWAP2 PUSH2 0x20E8 JUMP JUMPDEST DUP3 ADD SWAP2 SWAP1 PUSH1 0x0 MSTORE PUSH1 0x20 PUSH1 0x0 KECCAK256 SWAP1 JUMPDEST DUP2 SLOAD DUP2 MSTORE SWAP1 PUSH1 0x1 ADD SWAP1 PUSH1 0x20 ADD DUP1 DUP4 GT PUSH2 0x20CB JUMPI DUP3 SWAP1 SUB PUSH1 0x1F AND DUP3 ADD SWAP2 JUMPDEST POP POP POP SWAP2 DUP4 MSTORE POP POP PUSH1 0x3 DUP3 ADD SLOAD PUSH1 0x20 DUP3 ADD MSTORE PUSH1 0x4 DUP3 ADD SLOAD PUSH1 0x40 DUP3 ADD MSTORE PUSH1 0x5 DUP3 ADD SLOAD PUSH1 0xFF AND ISZERO ISZERO PUSH1 0x60 DUP3 ADD MSTORE PUSH1 0x6 DUP3 ADD DUP1 SLOAD PUSH1 0x80 SWAP1 SWAP3 ADD SWAP2 PUSH2 0x2128 SWAP1 PUSH2 0x3353 JUMP JUMPDEST DUP1 PUSH1 0x1F ADD PUSH1 0x20 DUP1 SWAP2 DIV MUL PUSH1 0x20 ADD PUSH1 0x40 MLOAD SWAP1 DUP2 ADD PUSH1 0x40 MSTORE DUP1 SWAP3 SWAP2 SWAP1 DUP2 DUP2 MSTORE PUSH1 0x20 ADD DUP3 DUP1 SLOAD PUSH2 0x2154 SWAP1 PUSH2 0x3353 JUMP JUMPDEST DUP1 ISZERO PUSH2 0x21A1 JUMPI DUP1 PUSH1 0x1F LT PUSH2 0x2176 JUMPI PUSH2 0x100 DUP1 DUP4 SLOAD DIV MUL DUP4 MSTORE SWAP2 PUSH1 0x20 ADD SWAP2 PUSH2 0x21A1 JUMP JUMPDEST DUP3 ADD SWAP2 SWAP1 PUSH1 0x0 MSTORE PUSH1 0x20 PUSH1 0x0 KECCAK256 SWAP1 JUMPDEST DUP2 SLOAD DUP2 MSTORE SWAP1 PUSH1 0x1 ADD SWAP1 PUSH1 0x20 ADD DUP1 DUP4 GT PUSH2 0x2184 JUMPI DUP3 SWAP1 SUB PUSH1 0x1F AND DUP3 ADD SWAP2 JUMPDEST POP POP POP POP POP DUP2 MSTORE POP POP SWAP1 POP SWAP2 SWAP1 POP JUMP JUMPDEST PUSH2 0x21B9 PUSH2 0x2595 JUMP JUMPDEST PUSH1 0x1 PUSH1 0x1 PUSH1 0xA0 SHL SUB DUP2 AND PUSH2 0x221E JUMPI PUSH1 0x40 MLOAD PUSH3 0x461BCD PUSH1 0xE5 SHL DUP2 MSTORE PUSH1 0x20 PUSH1 0x4 DUP3 ADD MSTORE PUSH1 0x26 PUSH1 0x24 DUP3 ADD MSTORE PUSH32 0x4F776E61626C653A206E6577206F776E657220697320746865207A65726F2061 PUSH1 0x44 DUP3 ADD MSTORE PUSH6 0x646472657373 PUSH1 0xD0 SHL PUSH1 0x64 DUP3 ADD MSTORE PUSH1 0x84 ADD PUSH2 0xA19 JUMP JUMPDEST PUSH2 0xAB6 DUP2 PUSH2 0x2814 JUMP JUMPDEST PUSH2 0x2281 PUSH1 0x40 MLOAD DUP1 PUSH2 0x140 ADD PUSH1 0x40 MSTORE DUP1 PUSH1 0x60 DUP2 MSTORE PUSH1 0x20 ADD PUSH1 0x60 DUP2 MSTORE PUSH1 0x20 ADD PUSH1 0x0 DUP2 MSTORE PUSH1 0x20 ADD PUSH1 0x0 ISZERO ISZERO DUP2 MSTORE PUSH1 0x20 ADD PUSH1 0x0 DUP2 MSTORE PUSH1 0x20 ADD PUSH1 0x0 DUP2 MSTORE PUSH1 0x20 ADD PUSH1 0x0 DUP2 MSTORE PUSH1 0x20 ADD PUSH1 0x0 DUP2 MSTORE PUSH1 0x20 ADD PUSH1 0x0 DUP2 MSTORE PUSH1 0x20 ADD PUSH1 0x0 ISZERO ISZERO DUP2 MSTORE POP SWAP1 JUMP JUMPDEST PUSH1 0x1 PUSH1 0x1 PUSH1 0xA0 SHL SUB DUP3 AND PUSH1 0x0 SWAP1 DUP2 MSTORE PUSH2 0x12D PUSH1 0x20 MSTORE PUSH1 0x40 SWAP1 DUP2 SWAP1 KECCAK256 DUP2 MLOAD PUSH2 0x140 DUP2 ADD SWAP1 SWAP3 MSTORE DUP1 SLOAD DUP3 SWAP1 DUP3 SWAP1 PUSH2 0x22B5 SWAP1 PUSH2 0x3353 JUMP JUMPDEST DUP1 PUSH1 0x1F ADD PUSH1 0x20 DUP1 SWAP2 DIV MUL PUSH1 0x20 ADD PUSH1 0x40 MLOAD SWAP1 DUP2 ADD PUSH1 0x40 MSTORE DUP1 SWAP3 SWAP2 SWAP1 DUP2 DUP2 MSTORE PUSH1 0x20 ADD DUP3 DUP1 SLOAD PUSH2 0x22E1 SWAP1 PUSH2 0x3353 JUMP JUMPDEST DUP1 ISZERO PUSH2 0x232E JUMPI DUP1 PUSH1 0x1F LT PUSH2 0x2303 JUMPI PUSH2 0x100 DUP1 DUP4 SLOAD DIV MUL DUP4 MSTORE SWAP2 PUSH1 0x20 ADD SWAP2 PUSH2 0x232E JUMP JUMPDEST DUP3 ADD SWAP2 SWAP1 PUSH1 0x0 MSTORE PUSH1 0x20 PUSH1 0x0 KECCAK256 SWAP1 JUMPDEST DUP2 SLOAD DUP2 MSTORE SWAP1 PUSH1 0x1 ADD SWAP1 PUSH1 0x20 ADD DUP1 DUP4 GT PUSH2 0x2311 JUMPI DUP3 SWAP1 SUB PUSH1 0x1F AND DUP3 ADD SWAP2 JUMPDEST POP POP POP POP POP DUP2 MSTORE PUSH1 0x20 ADD PUSH1 0x1 DUP3 ADD DUP1 SLOAD PUSH2 0x2347 SWAP1 PUSH2 0x3353 JUMP JUMPDEST DUP1 PUSH1 0x1F ADD PUSH1 0x20 DUP1 SWAP2 DIV MUL PUSH1 0x20 ADD PUSH1 0x40 MLOAD SWAP1 DUP2 ADD PUSH1 0x40 MSTORE DUP1 SWAP3 SWAP2 SWAP1 DUP2 DUP2 MSTORE PUSH1 0x20 ADD DUP3 DUP1 SLOAD PUSH2 0x2373 SWAP1 PUSH2 0x3353 JUMP JUMPDEST DUP1 ISZERO PUSH2 0x23C0 JUMPI DUP1 PUSH1 0x1F LT PUSH2 0x2395 JUMPI PUSH2 0x100 DUP1 DUP4 SLOAD DIV MUL DUP4 MSTORE SWAP2 PUSH1 0x20 ADD SWAP2 PUSH2 0x23C0 JUMP JUMPDEST DUP3 ADD SWAP2 SWAP1 PUSH1 0x0 MSTORE PUSH1 0x20 PUSH1 0x0 KECCAK256 SWAP1 JUMPDEST DUP2 SLOAD DUP2 MSTORE SWAP1 PUSH1 0x1 ADD SWAP1 PUSH1 0x20 ADD DUP1 DUP4 GT PUSH2 0x23A3 JUMPI DUP3 SWAP1 SUB PUSH1 0x1F AND DUP3 ADD SWAP2 JUMPDEST POP POP POP SWAP2 DUP4 MSTORE POP POP PUSH1 0x2 DUP3 ADD SLOAD PUSH1 0x20 DUP3 ADD MSTORE PUSH1 0x3 DUP3 ADD SLOAD PUSH1 0xFF SWAP1 DUP2 AND ISZERO ISZERO PUSH1 0x40 DUP4 ADD MSTORE PUSH1 0x4 DUP4 ADD SLOAD PUSH1 0x60 DUP4 ADD MSTORE PUSH1 0x5 DUP4 ADD SLOAD PUSH1 0x80 DUP4 ADD MSTORE PUSH1 0x6 DUP4 ADD SLOAD PUSH1 0xA0 DUP4 ADD MSTORE PUSH1 0x7 DUP4 ADD SLOAD PUSH1 0xC0 DUP4 ADD MSTORE PUSH1 0x8 DUP4 ADD SLOAD PUSH1 0xE0 DUP4 ADD MSTORE PUSH1 0x9 SWAP1 SWAP3 ADD SLOAD SWAP1 SWAP2 AND ISZERO ISZERO PUSH2 0x100 SWAP1 SWAP2 ADD MSTORE SWAP3 SWAP2 POP POP JUMP JUMPDEST PUSH2 0x12D PUSH1 0x20 MSTORE PUSH1 0x0 SWAP1 DUP2 MSTORE PUSH1 0x40 SWAP1 KECCAK256 DUP1 SLOAD DUP2 SWAP1 PUSH2 0x2449 SWAP1 PUSH2 0x3353 JUMP JUMPDEST DUP1 PUSH1 0x1F ADD PUSH1 0x20 DUP1 SWAP2 DIV MUL PUSH1 0x20 ADD PUSH1 0x40 MLOAD SWAP1 DUP2 ADD PUSH1 0x40 MSTORE DUP1 SWAP3 SWAP2 SWAP1 DUP2 DUP2 MSTORE PUSH1 0x20 ADD DUP3 DUP1 SLOAD PUSH2 0x2475 SWAP1 PUSH2 0x3353 JUMP JUMPDEST DUP1 ISZERO PUSH2 0x24C2 JUMPI DUP1 PUSH1 0x1F LT PUSH2 0x2497 JUMPI PUSH2 0x100 DUP1 DUP4 SLOAD DIV MUL DUP4 MSTORE SWAP2 PUSH1 0x20 ADD SWAP2 PUSH2 0x24C2 JUMP JUMPDEST DUP3 ADD SWAP2 SWAP1 PUSH1 0x0 MSTORE PUSH1 0x20 PUSH1 0x0 KECCAK256 SWAP1 JUMPDEST DUP2 SLOAD DUP2 MSTORE SWAP1 PUSH1 0x1 ADD SWAP1 PUSH1 0x20 ADD DUP1 DUP4 GT PUSH2 0x24A5 JUMPI DUP3 SWAP1 SUB PUSH1 0x1F AND DUP3 ADD SWAP2 JUMPDEST POP POP POP POP POP SWAP1 DUP1 PUSH1 0x1 ADD DUP1 SLOAD PUSH2 0x24D7 SWAP1 PUSH2 0x3353 JUMP JUMPDEST DUP1 PUSH1 0x1F ADD PUSH1 0x20 DUP1 SWAP2 DIV MUL PUSH1 0x20 ADD PUSH1 0x40 MLOAD SWAP1 DUP2 ADD PUSH1 0x40 MSTORE DUP1 SWAP3 SWAP2 SWAP1 DUP2 DUP2 MSTORE PUSH1 0x20 ADD DUP3 DUP1 SLOAD PUSH2 0x2503 SWAP1 PUSH2 0x3353 JUMP JUMPDEST DUP1 ISZERO PUSH2 0x2550 JUMPI DUP1 PUSH1 0x1F LT PUSH2 0x2525 JUMPI PUSH2 0x100 DUP1 DUP4 SLOAD DIV MUL DUP4 MSTORE SWAP2 PUSH1 0x20 ADD SWAP2 PUSH2 0x2550 JUMP JUMPDEST DUP3 ADD SWAP2 SWAP1 PUSH1 0x0 MSTORE PUSH1 0x20 PUSH1 0x0 KECCAK256 SWAP1 JUMPDEST DUP2 SLOAD DUP2 MSTORE SWAP1 PUSH1 0x1 ADD SWAP1 PUSH1 0x20 ADD DUP1 DUP4 GT PUSH2 0x2533 JUMPI DUP3 SWAP1 SUB PUSH1 0x1F AND DUP3 ADD SWAP2 JUMPDEST POP POP POP POP PUSH1 0x2 DUP4 ADD SLOAD PUSH1 0x3 DUP5 ADD SLOAD PUSH1 0x4 DUP6 ADD SLOAD PUSH1 0x5 DUP7 ADD SLOAD PUSH1 0x6 DUP8 ADD SLOAD PUSH1 0x7 DUP9 ADD SLOAD PUSH1 0x8 DUP10 ADD SLOAD PUSH1 0x9 SWAP1 SWAP10 ADD SLOAD SWAP8 SWAP9 SWAP6 SWAP8 PUSH1 0xFF SWAP6 DUP7 AND SWAP8 POP SWAP4 SWAP6 SWAP3 SWAP5 SWAP2 SWAP4 SWAP1 SWAP3 SWAP2 AND DUP11 JUMP JUMPDEST PUSH1 0x97 SLOAD PUSH1 0x1 PUSH1 0x1 PUSH1 0xA0 SHL SUB AND CALLER EQ PUSH2 0xAC9 JUMPI PUSH1 0x40 MLOAD PUSH3 0x461BCD PUSH1 0xE5 SHL DUP2 MSTORE PUSH1 0x20 PUSH1 0x4 DUP3 ADD DUP2 SWAP1 MSTORE PUSH1 0x24 DUP3 ADD MSTORE PUSH32 0x4F776E61626C653A2063616C6C6572206973206E6F7420746865206F776E6572 PUSH1 0x44 DUP3 ADD MSTORE PUSH1 0x64 ADD PUSH2 0xA19 JUMP JUMPDEST PUSH2 0xAB6 PUSH2 0x2595 JUMP JUMPDEST PUSH32 0x4910FDFA16FED3260ED0E7147F7CC6DA11A60208B5B9406D12A635614FFD9143 SLOAD PUSH1 0xFF AND ISZERO PUSH2 0x262A JUMPI PUSH2 0x11F1 DUP4 PUSH2 0x299D JUMP JUMPDEST DUP3 PUSH1 0x1 PUSH1 0x1 PUSH1 0xA0 SHL SUB AND PUSH4 0x52D1902D PUSH1 0x40 MLOAD DUP2 PUSH4 0xFFFFFFFF AND PUSH1 0xE0 SHL DUP2 MSTORE PUSH1 0x4 ADD PUSH1 0x20 PUSH1 0x40 MLOAD DUP1 DUP4 SUB DUP2 DUP7 GAS STATICCALL SWAP3 POP POP POP DUP1 ISZERO PUSH2 0x2684 JUMPI POP PUSH1 0x40 DUP1 MLOAD PUSH1 0x1F RETURNDATASIZE SWAP1 DUP2 ADD PUSH1 0x1F NOT AND DUP3 ADD SWAP1 SWAP3 MSTORE PUSH2 0x2681 SWAP2 DUP2 ADD SWAP1 PUSH2 0x3724 JUMP JUMPDEST PUSH1 0x1 JUMPDEST PUSH2 0x26E7 JUMPI PUSH1 0x40 MLOAD PUSH3 0x461BCD PUSH1 0xE5 SHL DUP2 MSTORE PUSH1 0x20 PUSH1 0x4 DUP3 ADD MSTORE PUSH1 0x2E PUSH1 0x24 DUP3 ADD MSTORE PUSH32 0x45524331393637557067726164653A206E657720696D706C656D656E74617469 PUSH1 0x44 DUP3 ADD MSTORE PUSH14 0x6F6E206973206E6F742055555053 PUSH1 0x90 SHL PUSH1 0x64 DUP3 ADD MSTORE PUSH1 0x84 ADD PUSH2 0xA19 JUMP JUMPDEST PUSH1 0x0 DUP1 MLOAD PUSH1 0x20 PUSH2 0x37B8 DUP4 CODECOPY DUP2 MLOAD SWAP2 MSTORE DUP2 EQ PUSH2 0x2756 JUMPI PUSH1 0x40 MLOAD PUSH3 0x461BCD PUSH1 0xE5 SHL DUP2 MSTORE PUSH1 0x20 PUSH1 0x4 DUP3 ADD MSTORE PUSH1 0x29 PUSH1 0x24 DUP3 ADD MSTORE PUSH32 0x45524331393637557067726164653A20756E737570706F727465642070726F78 PUSH1 0x44 DUP3 ADD MSTORE PUSH9 0x1A58589B1955555251 PUSH1 0xBA SHL PUSH1 0x64 DUP3 ADD MSTORE PUSH1 0x84 ADD PUSH2 0xA19 JUMP JUMPDEST POP PUSH2 0x11F1 DUP4 DUP4 DUP4 PUSH2 0x2A39 JUMP JUMPDEST PUSH2 0x276A PUSH2 0x2A5E JUMP JUMPDEST PUSH1 0xFB DUP1 SLOAD PUSH1 0xFF NOT AND SWAP1 SSTORE PUSH32 0x5DB9EE0A495BF2E6FF9C91A7834C1BA4FDD244A5E8AA4E537BD38AEAE4B073AA CALLER JUMPDEST PUSH1 0x40 MLOAD PUSH1 0x1 PUSH1 0x1 PUSH1 0xA0 SHL SUB SWAP1 SWAP2 AND DUP2 MSTORE PUSH1 0x20 ADD PUSH1 0x40 MLOAD DUP1 SWAP2 SUB SWAP1 LOG1 JUMP JUMPDEST PUSH1 0x2 PUSH1 0xC9 SLOAD SUB PUSH2 0x2806 JUMPI PUSH1 0x40 MLOAD PUSH3 0x461BCD PUSH1 0xE5 SHL DUP2 MSTORE PUSH1 0x20 PUSH1 0x4 DUP3 ADD MSTORE PUSH1 0x1F PUSH1 0x24 DUP3 ADD MSTORE PUSH32 0x5265656E7472616E637947756172643A207265656E7472616E742063616C6C00 PUSH1 0x44 DUP3 ADD MSTORE PUSH1 0x64 ADD PUSH2 0xA19 JUMP JUMPDEST PUSH1 0x2 PUSH1 0xC9 SSTORE JUMP JUMPDEST PUSH1 0x1 PUSH1 0xC9 SSTORE JUMP JUMPDEST PUSH1 0x97 DUP1 SLOAD PUSH1 0x1 PUSH1 0x1 PUSH1 0xA0 SHL SUB DUP4 DUP2 AND PUSH1 0x1 PUSH1 0x1 PUSH1 0xA0 SHL SUB NOT DUP4 AND DUP2 OR SWAP1 SWAP4 SSTORE PUSH1 0x40 MLOAD SWAP2 AND SWAP2 SWAP1 DUP3 SWAP1 PUSH32 0x8BE0079C531659141344CD1FD0A4F28419497F9722A3DAAFE3B4186F6B6457E0 SWAP1 PUSH1 0x0 SWAP1 LOG3 POP POP JUMP JUMPDEST PUSH1 0x0 SLOAD PUSH2 0x100 SWAP1 DIV PUSH1 0xFF AND PUSH2 0x288D JUMPI PUSH1 0x40 MLOAD PUSH3 0x461BCD PUSH1 0xE5 SHL DUP2 MSTORE PUSH1 0x4 ADD PUSH2 0xA19 SWAP1 PUSH2 0x373D JUMP JUMPDEST PUSH2 0xAC9 PUSH2 0x2AA7 JUMP JUMPDEST PUSH1 0x0 SLOAD PUSH2 0x100 SWAP1 DIV PUSH1 0xFF AND PUSH2 0xAC9 JUMPI PUSH1 0x40 MLOAD PUSH3 0x461BCD PUSH1 0xE5 SHL DUP2 MSTORE PUSH1 0x4 ADD PUSH2 0xA19 SWAP1 PUSH2 0x373D JUMP JUMPDEST PUSH1 0x0 SLOAD PUSH2 0x100 SWAP1 DIV PUSH1 0xFF AND PUSH2 0x28E3 JUMPI PUSH1 0x40 MLOAD PUSH3 0x461BCD PUSH1 0xE5 SHL DUP2 MSTORE PUSH1 0x4 ADD PUSH2 0xA19 SWAP1 PUSH2 0x373D JUMP JUMPDEST PUSH2 0xAC9 PUSH2 0x2AD7 JUMP JUMPDEST PUSH1 0x0 SLOAD PUSH2 0x100 SWAP1 DIV PUSH1 0xFF AND PUSH2 0x2912 JUMPI PUSH1 0x40 MLOAD PUSH3 0x461BCD PUSH1 0xE5 SHL DUP2 MSTORE PUSH1 0x4 ADD PUSH2 0xA19 SWAP1 PUSH2 0x373D JUMP JUMPDEST PUSH2 0xAC9 PUSH2 0x2AFE JUMP JUMPDEST PUSH2 0x2922 PUSH2 0x2957 JUMP JUMPDEST PUSH1 0xFB DUP1 SLOAD PUSH1 0xFF NOT AND PUSH1 0x1 OR SWAP1 SSTORE PUSH32 0x62E78CEA01BEE320CD4E420270B5EA74000D11B0C9F74754EBDBFC544B05A258 PUSH2 0x2797 CALLER SWAP1 JUMP JUMPDEST PUSH1 0xFB SLOAD PUSH1 0xFF AND ISZERO PUSH2 0xAC9 JUMPI PUSH1 0x40 MLOAD PUSH3 0x461BCD PUSH1 0xE5 SHL DUP2 MSTORE PUSH1 0x20 PUSH1 0x4 DUP3 ADD MSTORE PUSH1 0x10 PUSH1 0x24 DUP3 ADD MSTORE PUSH16 0x14185D5CD8589B194E881C185D5CD959 PUSH1 0x82 SHL PUSH1 0x44 DUP3 ADD MSTORE PUSH1 0x64 ADD PUSH2 0xA19 JUMP JUMPDEST PUSH1 0x1 PUSH1 0x1 PUSH1 0xA0 SHL SUB DUP2 AND EXTCODESIZE PUSH2 0x2A0A JUMPI PUSH1 0x40 MLOAD PUSH3 0x461BCD PUSH1 0xE5 SHL DUP2 MSTORE PUSH1 0x20 PUSH1 0x4 DUP3 ADD MSTORE PUSH1 0x2D PUSH1 0x24 DUP3 ADD MSTORE PUSH32 0x455243313936373A206E657720696D706C656D656E746174696F6E206973206E PUSH1 0x44 DUP3 ADD MSTORE PUSH13 0x1BDD08184818DBDB9D1C9858DD PUSH1 0x9A SHL PUSH1 0x64 DUP3 ADD MSTORE PUSH1 0x84 ADD PUSH2 0xA19 JUMP JUMPDEST PUSH1 0x0 DUP1 MLOAD PUSH1 0x20 PUSH2 0x37B8 DUP4 CODECOPY DUP2 MLOAD SWAP2 MSTORE DUP1 SLOAD PUSH1 0x1 PUSH1 0x1 PUSH1 0xA0 SHL SUB NOT AND PUSH1 0x1 PUSH1 0x1 PUSH1 0xA0 SHL SUB SWAP3 SWAP1 SWAP3 AND SWAP2 SWAP1 SWAP2 OR SWAP1 SSTORE JUMP JUMPDEST PUSH2 0x2A42 DUP4 PUSH2 0x2B31 JUMP JUMPDEST PUSH1 0x0 DUP3 MLOAD GT DUP1 PUSH2 0x2A4F JUMPI POP DUP1 JUMPDEST ISZERO PUSH2 0x11F1 JUMPI PUSH2 0xEE5 DUP4 DUP4 PUSH2 0x2B71 JUMP JUMPDEST PUSH1 0xFB SLOAD PUSH1 0xFF AND PUSH2 0xAC9 JUMPI PUSH1 0x40 MLOAD PUSH3 0x461BCD PUSH1 0xE5 SHL DUP2 MSTORE PUSH1 0x20 PUSH1 0x4 DUP3 ADD MSTORE PUSH1 0x14 PUSH1 0x24 DUP3 ADD MSTORE PUSH20 0x14185D5CD8589B194E881B9BDD081C185D5CD959 PUSH1 0x62 SHL PUSH1 0x44 DUP3 ADD MSTORE PUSH1 0x64 ADD PUSH2 0xA19 JUMP JUMPDEST PUSH1 0x0 SLOAD PUSH2 0x100 SWAP1 DIV PUSH1 0xFF AND PUSH2 0x2ACE JUMPI PUSH1 0x40 MLOAD PUSH3 0x461BCD PUSH1 0xE5 SHL DUP2 MSTORE PUSH1 0x4 ADD PUSH2 0xA19 SWAP1 PUSH2 0x373D JUMP JUMPDEST PUSH2 0xAC9 CALLER PUSH2 0x2814 JUMP JUMPDEST PUSH1 0x0 SLOAD PUSH2 0x100 SWAP1 DIV PUSH1 0xFF AND PUSH2 0x280D JUMPI PUSH1 0x40 MLOAD PUSH3 0x461BCD PUSH1 0xE5 SHL DUP2 MSTORE PUSH1 0x4 ADD PUSH2 0xA19 SWAP1 PUSH2 0x373D JUMP JUMPDEST PUSH1 0x0 SLOAD PUSH2 0x100 SWAP1 DIV PUSH1 0xFF AND PUSH2 0x2B25 JUMPI PUSH1 0x40 MLOAD PUSH3 0x461BCD PUSH1 0xE5 SHL DUP2 MSTORE PUSH1 0x4 ADD PUSH2 0xA19 SWAP1 PUSH2 0x373D JUMP JUMPDEST PUSH1 0xFB DUP1 SLOAD PUSH1 0xFF NOT AND SWAP1 SSTORE JUMP JUMPDEST PUSH2 0x2B3A DUP2 PUSH2 0x299D JUMP JUMPDEST PUSH1 0x40 MLOAD PUSH1 0x1 PUSH1 0x1 PUSH1 0xA0 SHL SUB DUP3 AND SWAP1 PUSH32 0xBC7CD75A20EE27FD9ADEBAB32041F755214DBC6BFFA90CC0225B39DA2E5C2D3B SWAP1 PUSH1 0x0 SWAP1 LOG2 POP JUMP JUMPDEST PUSH1 0x60 PUSH2 0x2B96 DUP4 DUP4 PUSH1 0x40 MLOAD DUP1 PUSH1 0x60 ADD PUSH1 0x40 MSTORE DUP1 PUSH1 0x27 DUP2 MSTORE PUSH1 0x20 ADD PUSH2 0x37D8 PUSH1 0x27 SWAP2 CODECOPY PUSH2 0x2B9F JUMP JUMPDEST SWAP1 POP JUMPDEST SWAP3 SWAP2 POP POP JUMP JUMPDEST PUSH1 0x60 PUSH1 0x0 DUP1 DUP6 PUSH1 0x1 PUSH1 0x1 PUSH1 0xA0 SHL SUB AND DUP6 PUSH1 0x40 MLOAD PUSH2 0x2BBC SWAP2 SWAP1 PUSH2 0x3788 JUMP JUMPDEST PUSH1 0x0 PUSH1 0x40 MLOAD DUP1 DUP4 SUB DUP2 DUP6 GAS DELEGATECALL SWAP2 POP POP RETURNDATASIZE DUP1 PUSH1 0x0 DUP2 EQ PUSH2 0x2BF7 JUMPI PUSH1 0x40 MLOAD SWAP2 POP PUSH1 0x1F NOT PUSH1 0x3F RETURNDATASIZE ADD AND DUP3 ADD PUSH1 0x40 MSTORE RETURNDATASIZE DUP3 MSTORE RETURNDATASIZE PUSH1 0x0 PUSH1 0x20 DUP5 ADD RETURNDATACOPY PUSH2 0x2BFC JUMP JUMPDEST PUSH1 0x60 SWAP2 POP JUMPDEST POP SWAP2 POP SWAP2 POP PUSH2 0x2C0D DUP7 DUP4 DUP4 DUP8 PUSH2 0x2C17 JUMP JUMPDEST SWAP7 SWAP6 POP POP POP POP POP POP JUMP JUMPDEST PUSH1 0x60 DUP4 ISZERO PUSH2 0x2C86 JUMPI DUP3 MLOAD PUSH1 0x0 SUB PUSH2 0x2C7F JUMPI PUSH1 0x1 PUSH1 0x1 PUSH1 0xA0 SHL SUB DUP6 AND EXTCODESIZE PUSH2 0x2C7F JUMPI PUSH1 0x40 MLOAD PUSH3 0x461BCD PUSH1 0xE5 SHL DUP2 MSTORE PUSH1 0x20 PUSH1 0x4 DUP3 ADD MSTORE PUSH1 0x1D PUSH1 0x24 DUP3 ADD MSTORE PUSH32 0x416464726573733A2063616C6C20746F206E6F6E2D636F6E7472616374000000 PUSH1 0x44 DUP3 ADD MSTORE PUSH1 0x64 ADD PUSH2 0xA19 JUMP JUMPDEST POP DUP2 PUSH2 0x2C90 JUMP JUMPDEST PUSH2 0x2C90 DUP4 DUP4 PUSH2 0x2C98 JUMP JUMPDEST SWAP5 SWAP4 POP POP POP POP JUMP JUMPDEST DUP2 MLOAD ISZERO PUSH2 0x2CA8 JUMPI DUP2 MLOAD DUP1 DUP4 PUSH1 0x20 ADD REVERT JUMPDEST DUP1 PUSH1 0x40 MLOAD PUSH3 0x461BCD PUSH1 0xE5 SHL DUP2 MSTORE PUSH1 0x4 ADD PUSH2 0xA19 SWAP2 SWAP1 PUSH2 0x37A4 JUMP JUMPDEST PUSH1 0x0 PUSH1 0x20 DUP3 DUP5 SUB SLT ISZERO PUSH2 0x2CD4 JUMPI PUSH1 0x0 DUP1 REVERT JUMPDEST POP CALLDATALOAD SWAP2 SWAP1 POP JUMP JUMPDEST PUSH1 0x0 JUMPDEST DUP4 DUP2 LT ISZERO PUSH2 0x2CF6 JUMPI DUP2 DUP2 ADD MLOAD DUP4 DUP3 ADD MSTORE PUSH1 0x20 ADD PUSH2 0x2CDE JUMP JUMPDEST POP POP PUSH1 0x0 SWAP2 ADD MSTORE JUMP JUMPDEST PUSH1 0x0 DUP2 MLOAD DUP1 DUP5 MSTORE PUSH2 0x2D17 DUP2 PUSH1 0x20 DUP7 ADD PUSH1 0x20 DUP7 ADD PUSH2 0x2CDB JUMP JUMPDEST PUSH1 0x1F ADD PUSH1 0x1F NOT AND SWAP3 SWAP1 SWAP3 ADD PUSH1 0x20 ADD SWAP3 SWAP2 POP POP JUMP JUMPDEST PUSH1 0x20 DUP2 MSTORE PUSH1 0x0 PUSH1 0x1 DUP1 PUSH1 0xA0 SHL SUB DUP1 DUP5 MLOAD AND PUSH1 0x20 DUP5 ADD MSTORE DUP1 PUSH1 0x20 DUP6 ADD MLOAD AND PUSH1 0x40 DUP5 ADD MSTORE POP PUSH1 0x40 DUP4 ADD MLOAD PUSH1 0xC0 PUSH1 0x60 DUP5 ADD MSTORE PUSH2 0x2D67 PUSH1 0xE0 DUP5 ADD DUP3 PUSH2 0x2CFF JUMP JUMPDEST SWAP1 POP PUSH1 0x60 DUP5 ADD MLOAD PUSH1 0x80 DUP5 ADD MSTORE PUSH1 0x80 DUP5 ADD MLOAD ISZERO ISZERO PUSH1 0xA0 DUP5 ADD MSTORE PUSH1 0xA0 DUP5 ADD MLOAD PUSH1 0xC0 DUP5 ADD MSTORE DUP1 SWAP2 POP POP SWAP3 SWAP2 POP POP JUMP JUMPDEST PUSH1 0x1 PUSH1 0x1 PUSH1 0xA0 SHL SUB DUP8 DUP2 AND DUP3 MSTORE DUP7 AND PUSH1 0x20 DUP3 ADD MSTORE PUSH1 0xC0 PUSH1 0x40 DUP3 ADD DUP2 SWAP1 MSTORE PUSH1 0x0 SWAP1 PUSH2 0x2DBF SWAP1 DUP4 ADD DUP8 PUSH2 0x2CFF JUMP JUMPDEST PUSH1 0x60 DUP4 ADD SWAP6 SWAP1 SWAP6 MSTORE POP SWAP2 ISZERO ISZERO PUSH1 0x80 DUP4 ADD MSTORE PUSH1 0xA0 SWAP1 SWAP2 ADD MSTORE SWAP4 SWAP3 POP POP POP JUMP JUMPDEST DUP1 CALLDATALOAD PUSH1 0x1 PUSH1 0x1 PUSH1 0xA0 SHL SUB DUP2 AND DUP2 EQ PUSH2 0x2DF4 JUMPI PUSH1 0x0 DUP1 REVERT JUMPDEST SWAP2 SWAP1 POP JUMP JUMPDEST PUSH1 0x0 PUSH1 0x20 DUP3 DUP5 SUB SLT ISZERO PUSH2 0x2E0B JUMPI PUSH1 0x0 DUP1 REVERT JUMPDEST PUSH2 0x2B96 DUP3 PUSH2 0x2DDD JUMP JUMPDEST PUSH4 0x4E487B71 PUSH1 0xE0 SHL PUSH1 0x0 MSTORE PUSH1 0x41 PUSH1 0x4 MSTORE PUSH1 0x24 PUSH1 0x0 REVERT JUMPDEST PUSH1 0x0 PUSH8 0xFFFFFFFFFFFFFFFF DUP1 DUP5 GT ISZERO PUSH2 0x2E45 JUMPI PUSH2 0x2E45 PUSH2 0x2E14 JUMP JUMPDEST PUSH1 0x40 MLOAD PUSH1 0x1F DUP6 ADD PUSH1 0x1F NOT SWAP1 DUP2 AND PUSH1 0x3F ADD AND DUP2 ADD SWAP1 DUP3 DUP3 GT DUP2 DUP4 LT OR ISZERO PUSH2 0x2E6D JUMPI PUSH2 0x2E6D PUSH2 0x2E14 JUMP JUMPDEST DUP2 PUSH1 0x40 MSTORE DUP1 SWAP4 POP DUP6 DUP2 MSTORE DUP7 DUP7 DUP7 ADD GT ISZERO PUSH2 0x2E86 JUMPI PUSH1 0x0 DUP1 REVERT JUMPDEST DUP6 DUP6 PUSH1 0x20 DUP4 ADD CALLDATACOPY PUSH1 0x0 PUSH1 0x20 DUP8 DUP4 ADD ADD MSTORE POP POP POP SWAP4 SWAP3 POP POP POP JUMP JUMPDEST PUSH1 0x0 DUP1 PUSH1 0x40 DUP4 DUP6 SUB SLT ISZERO PUSH2 0x2EB3 JUMPI PUSH1 0x0 DUP1 REVERT JUMPDEST PUSH2 0x2EBC DUP4 PUSH2 0x2DDD JUMP JUMPDEST SWAP2 POP PUSH1 0x20 DUP4 ADD CALLDATALOAD PUSH8 0xFFFFFFFFFFFFFFFF DUP2 GT ISZERO PUSH2 0x2ED8 JUMPI PUSH1 0x0 DUP1 REVERT JUMPDEST DUP4 ADD PUSH1 0x1F DUP2 ADD DUP6 SGT PUSH2 0x2EE9 JUMPI PUSH1 0x0 DUP1 REVERT JUMPDEST PUSH2 0x2EF8 DUP6 DUP3 CALLDATALOAD PUSH1 0x20 DUP5 ADD PUSH2 0x2E2A JUMP JUMPDEST SWAP2 POP POP SWAP3 POP SWAP3 SWAP1 POP JUMP JUMPDEST PUSH1 0x0 DUP1 DUP4 PUSH1 0x1F DUP5 ADD SLT PUSH2 0x2F14 JUMPI PUSH1 0x0 DUP1 REVERT JUMPDEST POP DUP2 CALLDATALOAD PUSH8 0xFFFFFFFFFFFFFFFF DUP2 GT ISZERO PUSH2 0x2F2C JUMPI PUSH1 0x0 DUP1 REVERT JUMPDEST PUSH1 0x20 DUP4 ADD SWAP2 POP DUP4 PUSH1 0x20 DUP3 DUP6 ADD ADD GT ISZERO PUSH2 0x2F44 JUMPI PUSH1 0x0 DUP1 REVERT JUMPDEST SWAP3 POP SWAP3 SWAP1 POP JUMP JUMPDEST PUSH1 0x0 DUP1 PUSH1 0x0 DUP1 PUSH1 0x60 DUP6 DUP8 SUB SLT ISZERO PUSH2 0x2F61 JUMPI PUSH1 0x0 DUP1 REVERT JUMPDEST PUSH2 0x2F6A DUP6 PUSH2 0x2DDD JUMP JUMPDEST SWAP4 POP PUSH1 0x20 DUP6 ADD CALLDATALOAD PUSH8 0xFFFFFFFFFFFFFFFF DUP2 GT ISZERO PUSH2 0x2F86 JUMPI PUSH1 0x0 DUP1 REVERT JUMPDEST PUSH2 0x2F92 DUP8 DUP3 DUP9 ADD PUSH2 0x2F02 JUMP JUMPDEST SWAP6 SWAP9 SWAP1 SWAP8 POP SWAP5 SWAP6 PUSH1 0x40 ADD CALLDATALOAD SWAP5 SWAP4 POP POP POP POP JUMP JUMPDEST PUSH1 0x0 DUP1 PUSH1 0x0 PUSH1 0x40 DUP5 DUP7 SUB SLT ISZERO PUSH2 0x2FBA JUMPI PUSH1 0x0 DUP1 REVERT JUMPDEST DUP4 CALLDATALOAD SWAP3 POP PUSH1 0x20 DUP5 ADD CALLDATALOAD PUSH8 0xFFFFFFFFFFFFFFFF DUP2 GT ISZERO PUSH2 0x2FD8 JUMPI PUSH1 0x0 DUP1 REVERT JUMPDEST PUSH2 0x2FE4 DUP7 DUP3 DUP8 ADD PUSH2 0x2F02 JUMP JUMPDEST SWAP5 SWAP8 SWAP1 SWAP7 POP SWAP4 SWAP5 POP POP POP POP JUMP JUMPDEST PUSH1 0x0 DUP1 PUSH1 0x40 DUP4 DUP6 SUB SLT ISZERO PUSH2 0x3004 JUMPI PUSH1 0x0 DUP1 REVERT JUMPDEST PUSH2 0x300D DUP4 PUSH2 0x2DDD JUMP JUMPDEST SWAP5 PUSH1 0x20 SWAP4 SWAP1 SWAP4 ADD CALLDATALOAD SWAP4 POP POP POP JUMP JUMPDEST PUSH1 0x0 PUSH1 0x20 DUP3 DUP5 SUB SLT ISZERO PUSH2 0x302D JUMPI PUSH1 0x0 DUP1 REVERT JUMPDEST DUP2 CALLDATALOAD PUSH8 0xFFFFFFFFFFFFFFFF DUP2 GT ISZERO PUSH2 0x3044 JUMPI PUSH1 0x0 DUP1 REVERT JUMPDEST DUP3 ADD PUSH1 0x1F DUP2 ADD DUP5 SGT PUSH2 0x3055 JUMPI PUSH1 0x0 DUP1 REVERT JUMPDEST PUSH2 0x2C90 DUP5 DUP3 CALLDATALOAD PUSH1 0x20 DUP5 ADD PUSH2 0x2E2A JUMP JUMPDEST PUSH1 0x1 PUSH1 0x1 PUSH1 0xA0 SHL SUB DUP9 DUP2 AND DUP3 MSTORE DUP8 AND PUSH1 0x20 DUP3 ADD MSTORE PUSH1 0xE0 PUSH1 0x40 DUP3 ADD DUP2 SWAP1 MSTORE PUSH1 0x0 SWAP1 PUSH2 0x3090 SWAP1 DUP4 ADD DUP9 PUSH2 0x2CFF JUMP JUMPDEST DUP7 PUSH1 0x60 DUP5 ADD MSTORE DUP6 PUSH1 0x80 DUP5 ADD MSTORE DUP5 ISZERO ISZERO PUSH1 0xA0 DUP5 ADD MSTORE DUP3 DUP2 SUB PUSH1 0xC0 DUP5 ADD MSTORE PUSH2 0x30B6 DUP2 DUP6 PUSH2 0x2CFF JUMP JUMPDEST SWAP11 SWAP10 POP POP POP POP POP POP POP POP POP POP JUMP JUMPDEST PUSH1 0x0 DUP1 PUSH2 0x120 DUP1 DUP5 DUP7 SUB SLT ISZERO PUSH2 0x30D9 JUMPI PUSH1 0x0 DUP1 REVERT JUMPDEST PUSH2 0x30E2 DUP5 PUSH2 0x2DDD JUMP JUMPDEST SWAP3 POP DUP5 DUP2 DUP6 ADD GT ISZERO PUSH2 0x30F3 JUMPI PUSH1 0x0 DUP1 REVERT JUMPDEST POP PUSH1 0x20 DUP4 ADD SWAP1 POP SWAP3 POP SWAP3 SWAP1 POP JUMP JUMPDEST PUSH1 0x0 DUP1 PUSH1 0x0 DUP1 PUSH1 0x0 PUSH1 0x60 DUP7 DUP9 SUB SLT ISZERO PUSH2 0x3119 JUMPI PUSH1 0x0 DUP1 REVERT JUMPDEST DUP6 CALLDATALOAD PUSH8 0xFFFFFFFFFFFFFFFF DUP1 DUP3 GT ISZERO PUSH2 0x3131 JUMPI PUSH1 0x0 DUP1 REVERT JUMPDEST PUSH2 0x313D DUP10 DUP4 DUP11 ADD PUSH2 0x2F02 JUMP JUMPDEST SWAP1 SWAP8 POP SWAP6 POP PUSH1 0x20 DUP9 ADD CALLDATALOAD SWAP2 POP DUP1 DUP3 GT ISZERO PUSH2 0x3156 JUMPI PUSH1 0x0 DUP1 REVERT JUMPDEST POP PUSH2 0x3163 DUP9 DUP3 DUP10 ADD PUSH2 0x2F02 JUMP JUMPDEST SWAP7 SWAP10 SWAP6 SWAP9 POP SWAP7 PUSH1 0x40 ADD CALLDATALOAD SWAP5 SWAP4 POP POP POP POP JUMP JUMPDEST PUSH1 0x0 DUP1 PUSH1 0x0 PUSH1 0x40 DUP5 DUP7 SUB SLT ISZERO PUSH2 0x318A JUMPI PUSH1 0x0 DUP1 REVERT JUMPDEST PUSH2 0x3193 DUP5 PUSH2 0x2DDD JUMP JUMPDEST SWAP3 POP PUSH1 0x20 DUP5 ADD CALLDATALOAD PUSH8 0xFFFFFFFFFFFFFFFF DUP2 GT ISZERO PUSH2 0x2FD8 JUMPI PUSH1 0x0 DUP1 REVERT JUMPDEST PUSH1 0x20 DUP2 MSTORE PUSH1 0x0 PUSH1 0x1 DUP1 PUSH1 0xA0 SHL SUB DUP1 DUP5 MLOAD AND PUSH1 0x20 DUP5 ADD MSTORE DUP1 PUSH1 0x20 DUP6 ADD MLOAD AND PUSH1 0x40 DUP5 ADD MSTORE POP PUSH1 0x40 DUP4 ADD MLOAD PUSH1 0xE0 PUSH1 0x60 DUP5 ADD MSTORE PUSH2 0x31EC PUSH2 0x100 DUP5 ADD DUP3 PUSH2 0x2CFF JUMP JUMPDEST SWAP1 POP PUSH1 0x60 DUP5 ADD MLOAD PUSH1 0x80 DUP5 ADD MSTORE PUSH1 0x80 DUP5 ADD MLOAD PUSH1 0xA0 DUP5 ADD MSTORE PUSH1 0xA0 DUP5 ADD MLOAD ISZERO ISZERO PUSH1 0xC0 DUP5 ADD MSTORE PUSH1 0xC0 DUP5 ADD MLOAD PUSH1 0x1F NOT DUP5 DUP4 SUB ADD PUSH1 0xE0 DUP6 ADD MSTORE PUSH2 0x3229 DUP3 DUP3 PUSH2 0x2CFF JUMP JUMPDEST SWAP6 SWAP5 POP POP POP POP POP JUMP JUMPDEST PUSH1 0x20 DUP2 MSTORE PUSH1 0x0 DUP3 MLOAD PUSH2 0x140 DUP1 PUSH1 0x20 DUP6 ADD MSTORE PUSH2 0x3251 PUSH2 0x160 DUP6 ADD DUP4 PUSH2 0x2CFF JUMP JUMPDEST SWAP2 POP PUSH1 0x20 DUP6 ADD MLOAD PUSH1 0x1F NOT DUP6 DUP5 SUB ADD PUSH1 0x40 DUP7 ADD MSTORE PUSH2 0x326E DUP4 DUP3 PUSH2 0x2CFF JUMP JUMPDEST SWAP3 POP POP PUSH1 0x40 DUP6 ADD MLOAD PUSH1 0x60 DUP6 ADD MSTORE PUSH1 0x60 DUP6 ADD MLOAD PUSH2 0x328E PUSH1 0x80 DUP7 ADD DUP3 ISZERO ISZERO SWAP1 MSTORE JUMP JUMPDEST POP PUSH1 0x80 DUP6 ADD MLOAD PUSH1 0xA0 DUP6 ADD MSTORE PUSH1 0xA0 DUP6 ADD MLOAD PUSH1 0xC0 DUP6 ADD MSTORE PUSH1 0xC0 DUP6 ADD MLOAD PUSH1 0xE0 DUP6 ADD MSTORE PUSH1 0xE0 DUP6 ADD MLOAD PUSH2 0x100 DUP2 DUP2 DUP8 ADD MSTORE DUP1 DUP8 ADD MLOAD SWAP2 POP POP PUSH2 0x120 DUP2 DUP2 DUP8 ADD MSTORE DUP1 DUP8 ADD MLOAD SWAP2 POP POP PUSH2 0x32DD DUP3 DUP7 ADD DUP3 ISZERO ISZERO SWAP1 MSTORE JUMP JUMPDEST POP SWAP1 SWAP5 SWAP4 POP POP POP POP JUMP JUMPDEST PUSH1 0x0 PUSH2 0x140 DUP1 DUP4 MSTORE PUSH2 0x32FB DUP2 DUP5 ADD DUP15 PUSH2 0x2CFF JUMP JUMPDEST SWAP1 POP DUP3 DUP2 SUB PUSH1 0x20 DUP5 ADD MSTORE PUSH2 0x330F DUP2 DUP14 PUSH2 0x2CFF JUMP JUMPDEST PUSH1 0x40 DUP5 ADD SWAP12 SWAP1 SWAP12 MSTORE POP POP SWAP7 ISZERO ISZERO PUSH1 0x60 DUP9 ADD MSTORE PUSH1 0x80 DUP8 ADD SWAP6 SWAP1 SWAP6 MSTORE PUSH1 0xA0 DUP7 ADD SWAP4 SWAP1 SWAP4 MSTORE PUSH1 0xC0 DUP6 ADD SWAP2 SWAP1 SWAP2 MSTORE PUSH1 0xE0 DUP5 ADD MSTORE PUSH2 0x100 DUP4 ADD MSTORE ISZERO ISZERO PUSH2 0x120 SWAP1 SWAP2 ADD MSTORE SWAP3 SWAP2 POP POP JUMP JUMPDEST PUSH1 0x1 DUP2 DUP2 SHR SWAP1 DUP3 AND DUP1 PUSH2 0x3367 JUMPI PUSH1 0x7F DUP3 AND SWAP2 POP JUMPDEST PUSH1 0x20 DUP3 LT DUP2 SUB PUSH2 0x3387 JUMPI PUSH4 0x4E487B71 PUSH1 0xE0 SHL PUSH1 0x0 MSTORE PUSH1 0x22 PUSH1 0x4 MSTORE PUSH1 0x24 PUSH1 0x0 REVERT JUMPDEST POP SWAP2 SWAP1 POP JUMP JUMPDEST PUSH1 0x20 DUP1 DUP3 MSTORE PUSH1 0x2C SWAP1 DUP3 ADD MSTORE PUSH32 0x46756E6374696F6E206D7573742062652063616C6C6564207468726F75676820 PUSH1 0x40 DUP3 ADD MSTORE PUSH12 0x19195B1959D85D1958D85B1B PUSH1 0xA2 SHL PUSH1 0x60 DUP3 ADD MSTORE PUSH1 0x80 ADD SWAP1 JUMP JUMPDEST PUSH1 0x20 DUP1 DUP3 MSTORE PUSH1 0x2C SWAP1 DUP3 ADD MSTORE PUSH32 0x46756E6374696F6E206D7573742062652063616C6C6564207468726F75676820 PUSH1 0x40 DUP3 ADD MSTORE PUSH12 0x6163746976652070726F7879 PUSH1 0xA0 SHL PUSH1 0x60 DUP3 ADD MSTORE PUSH1 0x80 ADD SWAP1 JUMP JUMPDEST PUSH1 0x1F DUP3 GT ISZERO PUSH2 0x11F1 JUMPI PUSH1 0x0 DUP2 DUP2 MSTORE PUSH1 0x20 DUP2 KECCAK256 PUSH1 0x1F DUP6 ADD PUSH1 0x5 SHR DUP2 ADD PUSH1 0x20 DUP7 LT ISZERO PUSH2 0x344C JUMPI POP DUP1 JUMPDEST PUSH1 0x1F DUP6 ADD PUSH1 0x5 SHR DUP3 ADD SWAP2 POP JUMPDEST DUP2 DUP2 LT ISZERO PUSH2 0x346B JUMPI DUP3 DUP2 SSTORE PUSH1 0x1 ADD PUSH2 0x3458 JUMP JUMPDEST POP POP POP POP POP POP JUMP JUMPDEST DUP2 MLOAD PUSH8 0xFFFFFFFFFFFFFFFF DUP2 GT ISZERO PUSH2 0x348D JUMPI PUSH2 0x348D PUSH2 0x2E14 JUMP JUMPDEST PUSH2 0x34A1 DUP2 PUSH2 0x349B DUP5 SLOAD PUSH2 0x3353 JUMP JUMPDEST DUP5 PUSH2 0x3425 JUMP JUMPDEST PUSH1 0x20 DUP1 PUSH1 0x1F DUP4 GT PUSH1 0x1 DUP2 EQ PUSH2 0x34D6 JUMPI PUSH1 0x0 DUP5 ISZERO PUSH2 0x34BE JUMPI POP DUP6 DUP4 ADD MLOAD JUMPDEST PUSH1 0x0 NOT PUSH1 0x3 DUP7 SWAP1 SHL SHR NOT AND PUSH1 0x1 DUP6 SWAP1 SHL OR DUP6 SSTORE PUSH2 0x346B JUMP JUMPDEST PUSH1 0x0 DUP6 DUP2 MSTORE PUSH1 0x20 DUP2 KECCAK256 PUSH1 0x1F NOT DUP7 AND SWAP2 JUMPDEST DUP3 DUP2 LT ISZERO PUSH2 0x3505 JUMPI DUP9 DUP7 ADD MLOAD DUP3 SSTORE SWAP5 DUP5 ADD SWAP5 PUSH1 0x1 SWAP1 SWAP2 ADD SWAP1 DUP5 ADD PUSH2 0x34E6 JUMP JUMPDEST POP DUP6 DUP3 LT ISZERO PUSH2 0x3523 JUMPI DUP8 DUP6 ADD MLOAD PUSH1 0x0 NOT PUSH1 0x3 DUP9 SWAP1 SHL PUSH1 0xF8 AND SHR NOT AND DUP2 SSTORE JUMPDEST POP POP POP POP POP PUSH1 0x1 SWAP1 DUP2 SHL ADD SWAP1 SSTORE POP JUMP JUMPDEST PUSH4 0x4E487B71 PUSH1 0xE0 SHL PUSH1 0x0 MSTORE PUSH1 0x11 PUSH1 0x4 MSTORE PUSH1 0x24 PUSH1 0x0 REVERT JUMPDEST PUSH1 0x0 PUSH1 0x1 DUP3 ADD PUSH2 0x355B JUMPI PUSH2 0x355B PUSH2 0x3533 JUMP JUMPDEST POP PUSH1 0x1 ADD SWAP1 JUMP JUMPDEST PUSH8 0xFFFFFFFFFFFFFFFF DUP4 GT ISZERO PUSH2 0x357A JUMPI PUSH2 0x357A PUSH2 0x2E14 JUMP JUMPDEST PUSH2 0x358E DUP4 PUSH2 0x3588 DUP4 SLOAD PUSH2 0x3353 JUMP JUMPDEST DUP4 PUSH2 0x3425 JUMP JUMPDEST PUSH1 0x0 PUSH1 0x1F DUP5 GT PUSH1 0x1 DUP2 EQ PUSH2 0x35C2 JUMPI PUSH1 0x0 DUP6 ISZERO PUSH2 0x35AA JUMPI POP DUP4 DUP3 ADD CALLDATALOAD JUMPDEST PUSH1 0x0 NOT PUSH1 0x3 DUP8 SWAP1 SHL SHR NOT AND PUSH1 0x1 DUP7 SWAP1 SHL OR DUP4 SSTORE PUSH2 0x1CAF JUMP JUMPDEST PUSH1 0x0 DUP4 DUP2 MSTORE PUSH1 0x20 SWAP1 KECCAK256 PUSH1 0x1F NOT DUP7 AND SWAP1 DUP4 JUMPDEST DUP3 DUP2 LT ISZERO PUSH2 0x35F3 JUMPI DUP7 DUP6 ADD CALLDATALOAD DUP3 SSTORE PUSH1 0x20 SWAP5 DUP6 ADD SWAP5 PUSH1 0x1 SWAP1 SWAP3 ADD SWAP2 ADD PUSH2 0x35D3 JUMP JUMPDEST POP DUP7 DUP3 LT ISZERO PUSH2 0x3610 JUMPI PUSH1 0x0 NOT PUSH1 0xF8 DUP9 PUSH1 0x3 SHL AND SHR NOT DUP5 DUP8 ADD CALLDATALOAD AND DUP2 SSTORE JUMPDEST POP POP PUSH1 0x1 DUP6 PUSH1 0x1 SHL ADD DUP4 SSTORE POP POP POP POP POP JUMP JUMPDEST DUP2 DUP2 SUB DUP2 DUP2 GT ISZERO PUSH2 0x2B99 JUMPI PUSH2 0x2B99 PUSH2 0x3533 JUMP JUMPDEST DUP1 DUP3 MUL DUP2 ISZERO DUP3 DUP3 DIV DUP5 EQ OR PUSH2 0x2B99 JUMPI PUSH2 0x2B99 PUSH2 0x3533 JUMP JUMPDEST PUSH1 0x0 DUP3 PUSH2 0x3669 JUMPI PUSH4 0x4E487B71 PUSH1 0xE0 SHL PUSH1 0x0 MSTORE PUSH1 0x12 PUSH1 0x4 MSTORE PUSH1 0x24 PUSH1 0x0 REVERT JUMPDEST POP DIV SWAP1 JUMP JUMPDEST DUP1 DUP3 ADD DUP1 DUP3 GT ISZERO PUSH2 0x2B99 JUMPI PUSH2 0x2B99 PUSH2 0x3533 JUMP JUMPDEST PUSH1 0x40 DUP2 MSTORE DUP3 PUSH1 0x40 DUP3 ADD MSTORE DUP3 DUP5 PUSH1 0x60 DUP4 ADD CALLDATACOPY PUSH1 0x0 PUSH1 0x60 DUP5 DUP4 ADD ADD MSTORE PUSH1 0x0 PUSH1 0x60 PUSH1 0x1F NOT PUSH1 0x1F DUP7 ADD AND DUP4 ADD ADD SWAP1 POP DUP3 PUSH1 0x20 DUP4 ADD MSTORE SWAP5 SWAP4 POP POP POP POP JUMP JUMPDEST PUSH1 0x0 PUSH1 0x1 PUSH1 0xFF SHL DUP3 ADD PUSH2 0x36CF JUMPI PUSH2 0x36CF PUSH2 0x3533 JUMP JUMPDEST POP PUSH1 0x0 SUB SWAP1 JUMP JUMPDEST DUP2 DUP4 DUP3 CALLDATACOPY PUSH1 0x0 SWAP2 ADD SWAP1 DUP2 MSTORE SWAP2 SWAP1 POP JUMP JUMPDEST PUSH1 0x0 PUSH12 0xFFFFFFFFFFFFFFFFFFFFFFFF NOT DUP1 DUP9 PUSH1 0x60 SHL AND DUP4 MSTORE DUP1 DUP8 PUSH1 0x60 SHL AND PUSH1 0x14 DUP5 ADD MSTORE POP DUP4 DUP6 PUSH1 0x28 DUP5 ADD CALLDATACOPY POP PUSH1 0x28 SWAP3 ADD SWAP2 DUP3 ADD MSTORE PUSH1 0x48 ADD SWAP4 SWAP3 POP POP POP JUMP JUMPDEST PUSH1 0x0 PUSH1 0x20 DUP3 DUP5 SUB SLT ISZERO PUSH2 0x3736 JUMPI PUSH1 0x0 DUP1 REVERT JUMPDEST POP MLOAD SWAP2 SWAP1 POP JUMP JUMPDEST PUSH1 0x20 DUP1 DUP3 MSTORE PUSH1 0x2B SWAP1 DUP3 ADD MSTORE PUSH32 0x496E697469616C697A61626C653A20636F6E7472616374206973206E6F742069 PUSH1 0x40 DUP3 ADD MSTORE PUSH11 0x6E697469616C697A696E67 PUSH1 0xA8 SHL PUSH1 0x60 DUP3 ADD MSTORE PUSH1 0x80 ADD SWAP1 JUMP JUMPDEST PUSH1 0x0 DUP3 MLOAD PUSH2 0x379A DUP2 DUP5 PUSH1 0x20 DUP8 ADD PUSH2 0x2CDB JUMP JUMPDEST SWAP2 SWAP1 SWAP2 ADD SWAP3 SWAP2 POP POP JUMP JUMPDEST PUSH1 0x20 DUP2 MSTORE PUSH1 0x0 PUSH2 0x2B96 PUSH1 0x20 DUP4 ADD DUP5 PUSH2 0x2CFF JUMP INVALID CALLDATASIZE ADDMOD SWAP5 LOG1 EXTCODESIZE LOG1 LOG3 0x21 MOD PUSH8 0xC828492DB98DCA3E KECCAK256 PUSH23 0xCC3735A920A3CA505D382BBC416464726573733A206C6F PUSH24 0x2D6C6576656C2064656C65676174652063616C6C20666169 PUSH13 0x6564A26469706673582212202F 0xE4 0xD PUSH7 0xC6993327A1F53B 0xD6 0xCA 0x4F PUSH6 0xD5C106721198 SWAP6 PUSH25 0x9AC16D1A44C725F6A164736F6C634300081300330000000000 "},"methodIdentifiers":{"agents(address)":"fd66091e","completeService(uint256,string)":"67ee313d","createService(address,string,uint256)":"6076cf55","didToAgent(string)":"702e827c","distributeRewards()":"6f4a2cd0","getAgent(address)":"fb3551ff","getMessage(bytes32)":"0139a221","getNetworkStats()":"4a662f48","getService(uint256)":"ef0e239b","initialize()":"8129fc1c","lastRewardTime()":"9231cf74","messageFee()":"1a90a219","messages(bytes32)":"2bbd59ca","minStakeAmount()":"f1887684","owner()":"8da5cb5b","pause()":"8456cb59","paused()":"5c975abb","proxiableUUID()":"52d1902d","registerAgent(string,string,uint256)":"da6b03bc","registrationFee()":"14c44e09","renounceOwnership()":"715018a6","reputationThreshold()":"d410e8ba","rewardRate()":"7b0a47ee","sendMessage(address,string)":"de6f24bb","serviceFeeRate()":"61d1bc94","services(uint256)":"c22c4f43","setMessageFee(uint256)":"23aa2a9d","setMinStakeAmount(uint256)":"eb4af045","setRegistrationFee(uint256)":"c320c727","setRewardRate(uint256)":"9e447fc6","setServiceFeeRate(uint256)":"9b1d3091","totalAgents()":"c5053712","totalMessages()":"951166c0","totalRewards()":"0e15561a","totalServices()":"6301ac8f","totalVolume()":"5f81a57c","transferOwnership(address)":"f2fde38b","unpause()":"3f4ba83a","updateReputation(address,int256)":"6a08b511","upgradeTo(address)":"3659cfe6","upgradeToAndCall(address,bytes)":"4f1ef286","verifyAgent(address,uint256[8])":"d420051d"}}}}}