{"contracts/DIAPAgentNetwork.sol":{"DIAPAgentNetwork":{"abi":[{"anonymous":false,"inputs":[{"indexed":false,"internalType":"address","name":"previousAdmin","type":"address"},{"indexed":false,"internalType":"address","name":"newAdmin","type":"address"}],"name":"AdminChanged","type":"event"},{"anonymous":false,"inputs":[{"indexed":true,"internalType":"address","name":"agent","type":"address"},{"indexed":false,"internalType":"string","name":"didDocument","type":"string"},{"indexed":false,"internalType":"uint256","name":"stakedAmount","type":"uint256"}],"name":"AgentRegistered","type":"event"},{"anonymous":false,"inputs":[{"indexed":true,"internalType":"address","name":"agent","type":"address"},{"indexed":false,"internalType":"uint256","name":"stakedAmount","type":"uint256"}],"name":"AgentUnstaked","type":"event"},{"anonymous":false,"inputs":[{"indexed":true,"internalType":"address","name":"agent","type":"address"},{"indexed":false,"internalType":"bool","name":"isVerified","type":"bool"}],"name":"AgentVerified","type":"event"},{"anonymous":false,"inputs":[{"indexed":true,"internalType":"address","name":"beacon","type":"address"}],"name":"BeaconUpgraded","type":"event"},{"anonymous":false,"inputs":[{"indexed":false,"internalType":"uint8","name":"version","type":"uint8"}],"name":"Initialized","type":"event"},{"anonymous":false,"inputs":[{"indexed":true,"internalType":"bytes32","name":"messageId","type":"bytes32"},{"indexed":false,"internalType":"address","name":"from","type":"address"},{"indexed":false,"internalType":"address","name":"to","type":"address"},{"indexed":false,"internalType":"uint256","name":"fee","type":"uint256"}],"name":"MessageSent","type":"event"},{"anonymous":false,"inputs":[{"indexed":true,"internalType":"address","name":"previousOwner","type":"address"},{"indexed":true,"internalType":"address","name":"newOwner","type":"address"}],"name":"OwnershipTransferred","type":"event"},{"anonymous":false,"inputs":[{"indexed":false,"internalType":"address","name":"account","type":"address"}],"name":"Paused","type":"event"},{"anonymous":false,"inputs":[{"indexed":true,"internalType":"address","name":"agent","type":"address"},{"indexed":false,"internalType":"uint256","name":"oldReputation","type":"uint256"},{"indexed":false,"internalType":"uint256","name":"newReputation","type":"uint256"}],"name":"ReputationUpdated","type":"event"},{"anonymous":false,"inputs":[{"indexed":false,"internalType":"uint256","name":"totalAmount","type":"uint256"},{"indexed":false,"internalType":"uint256","name":"timestamp","type":"uint256"}],"name":"RewardsDistributed","type":"event"},{"anonymous":false,"inputs":[{"indexed":true,"internalType":"uint256","name":"serviceId","type":"uint256"},{"indexed":false,"internalType":"string","name":"resultCID","type":"string"},{"indexed":false,"internalType":"uint256","name":"reward","type":"uint256"}],"name":"ServiceCompleted","type":"event"},{"anonymous":false,"inputs":[{"indexed":true,"internalType":"uint256","name":"serviceId","type":"uint256"},{"indexed":false,"internalType":"address","name":"provider","type":"address"},{"indexed":false,"internalType":"address","name":"consumer","type":"address"},{"indexed":false,"internalType":"uint256","name":"price","type":"uint256"}],"name":"ServiceCreated","type":"event"},{"anonymous":false,"inputs":[{"indexed":false,"internalType":"address","name":"account","type":"address"}],"name":"Unpaused","type":"event"},{"anonymous":false,"inputs":[{"indexed":true,"internalType":"address","name":"implementation","type":"address"}],"name":"Upgraded","type":"event"},{"inputs":[],"name":"BATCH_SIZE","outputs":[{"internalType":"uint256","name":"","type":"uint256"}],"stateMutability":"view","type":"function"},{"inputs":[{"internalType":"address","name":"","type":"address"}],"name":"agentIndex","outputs":[{"internalType":"uint256","name":"","type":"uint256"}],"stateMutability":"view","type":"function"},{"inputs":[{"internalType":"uint256","name":"","type":"uint256"}],"name":"agentList","outputs":[{"internalType":"address","name":"","type":"address"}],"stateMutability":"view","type":"function"},{"inputs":[{"internalType":"address","name":"","type":"address"}],"name":"agentMetadataCID","outputs":[{"internalType":"string","name":"","type":"string"}],"stateMutability":"view","type":"function"},{"inputs":[{"internalType":"address","name":"","type":"address"}],"name":"agents","outputs":[{"internalType":"string","name":"didDocument","type":"string"},{"internalType":"string","name":"publicKey","type":"string"},{"internalType":"uint256","name":"reputation","type":"uint256"},{"internalType":"bool","name":"isActive","type":"bool"},{"internalType":"uint256","name":"registrationTime","type":"uint256"},{"internalType":"uint256","name":"lastActivity","type":"uint256"},{"internalType":"uint256","name":"stakedAmount","type":"uint256"},{"internalType":"uint256","name":"totalEarnings","type":"uint256"},{"internalType":"uint256","name":"totalServices","type":"uint256"},{"internalType":"bool","name":"isVerified","type":"bool"}],"stateMutability":"view","type":"function"},{"inputs":[{"internalType":"uint256","name":"serviceId","type":"uint256"},{"internalType":"string","name":"resultCID","type":"string"}],"name":"completeService","outputs":[],"stateMutability":"nonpayable","type":"function"},{"inputs":[{"internalType":"address","name":"consumer","type":"address"},{"internalType":"string","name":"serviceType","type":"string"},{"internalType":"uint256","name":"price","type":"uint256"}],"name":"createService","outputs":[],"stateMutability":"nonpayable","type":"function"},{"inputs":[{"internalType":"string","name":"","type":"string"}],"name":"didToAgent","outputs":[{"internalType":"address","name":"","type":"address"}],"stateMutability":"view","type":"function"},{"inputs":[],"name":"distributeRewards","outputs":[],"stateMutability":"nonpayable","type":"function"},{"inputs":[{"internalType":"address","name":"agent","type":"address"}],"name":"getAgent","outputs":[{"components":[{"internalType":"string","name":"didDocument","type":"string"},{"internalType":"string","name":"publicKey","type":"string"},{"internalType":"uint256","name":"reputation","type":"uint256"},{"internalType":"bool","name":"isActive","type":"bool"},{"internalType":"uint256","name":"registrationTime","type":"uint256"},{"internalType":"uint256","name":"lastActivity","type":"uint256"},{"internalType":"uint256","name":"stakedAmount","type":"uint256"},{"internalType":"uint256","name":"totalEarnings","type":"uint256"},{"internalType":"uint256","name":"totalServices","type":"uint256"},{"internalType":"bool","name":"isVerified","type":"bool"}],"internalType":"struct DIAPAgentNetwork.Agent","name":"","type":"tuple"}],"stateMutability":"view","type":"function"},{"inputs":[{"internalType":"bytes32","name":"messageId","type":"bytes32"}],"name":"getMessage","outputs":[{"components":[{"internalType":"address","name":"fromAgent","type":"address"},{"internalType":"address","name":"toAgent","type":"address"},{"internalType":"string","name":"messageCID","type":"string"},{"internalType":"uint256","name":"timestamp","type":"uint256"},{"internalType":"bool","name":"isVerified","type":"bool"},{"internalType":"uint256","name":"fee","type":"uint256"}],"internalType":"struct DIAPAgentNetwork.Message","name":"","type":"tuple"}],"stateMutability":"view","type":"function"},{"inputs":[],"name":"getNetworkStats","outputs":[{"internalType":"uint256","name":"_totalAgents","type":"uint256"},{"internalType":"uint256","name":"_totalMessages","type":"uint256"},{"internalType":"uint256","name":"_totalServices","type":"uint256"},{"internalType":"uint256","name":"_totalVolume","type":"uint256"},{"internalType":"uint256","name":"_totalRewards","type":"uint256"}],"stateMutability":"view","type":"function"},{"inputs":[{"internalType":"uint256","name":"serviceId","type":"uint256"}],"name":"getService","outputs":[{"components":[{"internalType":"address","name":"provider","type":"address"},{"internalType":"address","name":"consumer","type":"address"},{"internalType":"string","name":"serviceType","type":"string"},{"internalType":"uint256","name":"price","type":"uint256"},{"internalType":"uint256","name":"timestamp","type":"uint256"},{"internalType":"bool","name":"isCompleted","type":"bool"},{"internalType":"string","name":"resultCID","type":"string"}],"internalType":"struct DIAPAgentNetwork.Service","name":"","type":"tuple"}],"stateMutability":"view","type":"function"},{"inputs":[{"internalType":"address","name":"_token","type":"address"}],"name":"initialize","outputs":[],"stateMutability":"nonpayable","type":"function"},{"inputs":[],"name":"lastProcessedIndex","outputs":[{"internalType":"uint256","name":"","type":"uint256"}],"stateMutability":"view","type":"function"},{"inputs":[],"name":"lastRewardTime","outputs":[{"internalType":"uint256","name":"","type":"uint256"}],"stateMutability":"view","type":"function"},{"inputs":[],"name":"lockPeriod","outputs":[{"internalType":"uint256","name":"","type":"uint256"}],"stateMutability":"view","type":"function"},{"inputs":[],"name":"messageFee","outputs":[{"internalType":"uint256","name":"","type":"uint256"}],"stateMutability":"view","type":"function"},{"inputs":[{"internalType":"bytes32","name":"","type":"bytes32"}],"name":"messages","outputs":[{"internalType":"address","name":"fromAgent","type":"address"},{"internalType":"address","name":"toAgent","type":"address"},{"internalType":"string","name":"messageCID","type":"string"},{"internalType":"uint256","name":"timestamp","type":"uint256"},{"internalType":"bool","name":"isVerified","type":"bool"},{"internalType":"uint256","name":"fee","type":"uint256"}],"stateMutability":"view","type":"function"},{"inputs":[],"name":"minStakeAmount","outputs":[{"internalType":"uint256","name":"","type":"uint256"}],"stateMutability":"view","type":"function"},{"inputs":[],"name":"owner","outputs":[{"internalType":"address","name":"","type":"address"}],"stateMutability":"view","type":"function"},{"inputs":[],"name":"pause","outputs":[],"stateMutability":"nonpayable","type":"function"},{"inputs":[],"name":"paused","outputs":[{"internalType":"bool","name":"","type":"bool"}],"stateMutability":"view","type":"function"},{"inputs":[],"name":"pendingRewards","outputs":[{"internalType":"uint256","name":"","type":"uint256"}],"stateMutability":"view","type":"function"},{"inputs":[],"name":"processRewardBatch","outputs":[{"internalType":"bool","name":"","type":"bool"}],"stateMutability":"nonpayable","type":"function"},{"inputs":[],"name":"proxiableUUID","outputs":[{"internalType":"bytes32","name":"","type":"bytes32"}],"stateMutability":"view","type":"function"},{"inputs":[{"internalType":"string","name":"didDocument","type":"string"},{"internalType":"string","name":"publicKey","type":"string"},{"internalType":"uint256","name":"stakedAmount","type":"uint256"}],"name":"registerAgent","outputs":[],"stateMutability":"nonpayable","type":"function"},{"inputs":[],"name":"registrationFee","outputs":[{"internalType":"uint256","name":"","type":"uint256"}],"stateMutability":"view","type":"function"},{"inputs":[],"name":"renounceOwnership","outputs":[],"stateMutability":"nonpayable","type":"function"},{"inputs":[],"name":"reputationThreshold","outputs":[{"internalType":"uint256","name":"","type":"uint256"}],"stateMutability":"view","type":"function"},{"inputs":[],"name":"rewardRate","outputs":[{"internalType":"uint256","name":"","type":"uint256"}],"stateMutability":"view","type":"function"},{"inputs":[{"internalType":"address","name":"toAgent","type":"address"},{"internalType":"string","name":"messageCID","type":"string"}],"name":"sendMessage","outputs":[],"stateMutability":"nonpayable","type":"function"},{"inputs":[],"name":"serviceFeeRate","outputs":[{"internalType":"uint256","name":"","type":"uint256"}],"stateMutability":"view","type":"function"},{"inputs":[{"internalType":"uint256","name":"","type":"uint256"}],"name":"serviceMetadataCID","outputs":[{"internalType":"string","name":"","type":"string"}],"stateMutability":"view","type":"function"},{"inputs":[{"internalType":"uint256","name":"","type":"uint256"}],"name":"services","outputs":[{"internalType":"address","name":"provider","type":"address"},{"internalType":"address","name":"consumer","type":"address"},{"internalType":"string","name":"serviceType","type":"string"},{"internalType":"uint256","name":"price","type":"uint256"},{"internalType":"uint256","name":"timestamp","type":"uint256"},{"internalType":"bool","name":"isCompleted","type":"bool"},{"internalType":"string","name":"resultCID","type":"string"}],"stateMutability":"view","type":"function"},{"inputs":[{"internalType":"address","name":"agent","type":"address"},{"internalType":"string","name":"metadataCID","type":"string"}],"name":"setAgentMetadataCID","outputs":[],"stateMutability":"nonpayable","type":"function"},{"inputs":[{"internalType":"uint256","name":"_fee","type":"uint256"}],"name":"setMessageFee","outputs":[],"stateMutability":"nonpayable","type":"function"},{"inputs":[{"internalType":"uint256","name":"_amount","type":"uint256"}],"name":"setMinStakeAmount","outputs":[],"stateMutability":"nonpayable","type":"function"},{"inputs":[{"internalType":"uint256","name":"_fee","type":"uint256"}],"name":"setRegistrationFee","outputs":[],"stateMutability":"nonpayable","type":"function"},{"inputs":[{"internalType":"uint256","name":"_rate","type":"uint256"}],"name":"setRewardRate","outputs":[],"stateMutability":"nonpayable","type":"function"},{"inputs":[{"internalType":"uint256","name":"_rate","type":"uint256"}],"name":"setServiceFeeRate","outputs":[],"stateMutability":"nonpayable","type":"function"},{"inputs":[{"internalType":"uint256","name":"serviceId","type":"uint256"},{"internalType":"string","name":"metadataCID","type":"string"}],"name":"setServiceMetadataCID","outputs":[],"stateMutability":"nonpayable","type":"function"},{"inputs":[{"internalType":"address","name":"_verification","type":"address"}],"name":"setVerificationContract","outputs":[],"stateMutability":"nonpayable","type":"function"},{"inputs":[],"name":"token","outputs":[{"internalType":"contract IERC20","name":"","type":"address"}],"stateMutability":"view","type":"function"},{"inputs":[],"name":"totalAgents","outputs":[{"internalType":"uint256","name":"","type":"uint256"}],"stateMutability":"view","type":"function"},{"inputs":[],"name":"totalMessages","outputs":[{"internalType":"uint256","name":"","type":"uint256"}],"stateMutability":"view","type":"function"},{"inputs":[],"name":"totalRewards","outputs":[{"internalType":"uint256","name":"","type":"uint256"}],"stateMutability":"view","type":"function"},{"inputs":[],"name":"totalServices","outputs":[{"internalType":"uint256","name":"","type":"uint256"}],"stateMutability":"view","type":"function"},{"inputs":[],"name":"totalStaked","outputs":[{"internalType":"uint256","name":"","type":"uint256"}],"stateMutability":"view","type":"function"},{"inputs":[],"name":"totalVolume","outputs":[{"internalType":"uint256","name":"","type":"uint256"}],"stateMutability":"view","type":"function"},{"inputs":[{"internalType":"address","name":"newOwner","type":"address"}],"name":"transferOwnership","outputs":[],"stateMutability":"nonpayable","type":"function"},{"inputs":[],"name":"unpause","outputs":[],"stateMutability":"nonpayable","type":"function"},{"inputs":[],"name":"unstakeAgent","outputs":[],"stateMutability":"nonpayable","type":"function"},{"inputs":[{"internalType":"address","name":"agent","type":"address"},{"internalType":"int256","name":"reputationChange","type":"int256"}],"name":"updateReputation","outputs":[],"stateMutability":"nonpayable","type":"function"},{"inputs":[{"internalType":"address","name":"newImplementation","type":"address"}],"name":"upgradeTo","outputs":[],"stateMutability":"nonpayable","type":"function"},{"inputs":[{"internalType":"address","name":"newImplementation","type":"address"},{"internalType":"bytes","name":"data","type":"bytes"}],"name":"upgradeToAndCall","outputs":[],"stateMutability":"payable","type":"function"},{"inputs":[],"name":"verification","outputs":[{"internalType":"address","name":"","type":"address"}],"stateMutability":"view","type":"function"},{"inputs":[{"internalType":"address","name":"agent","type":"address"},{"internalType":"uint256[8]","name":"proof","type":"uint256[8]"}],"name":"verifyAgent","outputs":[],"stateMutability":"nonpayable","type":"function"},{"stateMutability":"payable","type":"receive"}],"evm":{"bytecode":{"linkReferences":{},"object":"60a06040523060805234801561001457600080fd5b50608051614bd161004c60003960008181610dcf01528181610e1801528181610f4401528181610f8401526110170152614bd16000f3fe6080604052600436106103855760003560e01c80637b0a47ee116101d1578063d410e8ba11610102578063eded3fda116100a0578063fb3551ff1161006f578063fb3551ff14610a35578063fb48d6be14610a62578063fc0c546a14610a82578063fd66091e14610aa357600080fd5b8063eded3fda146109ba578063ef0e239b146109d1578063f1887684146109fe578063f2fde38b14610a1557600080fd5b8063da6b03bc116100dc578063da6b03bc1461093a578063de6f24bb1461095a578063deb7bba91461097a578063eb4af0451461099a57600080fd5b8063d410e8ba146108ee578063d420051d14610905578063d88e1ab91461092557600080fd5b80639b1d30911161016f578063c22c4f4311610149578063c22c4f4314610864578063c320c72714610897578063c4d66de8146108b7578063c5053712146108d757600080fd5b80639b1d3091146107f65780639e447fc614610816578063a74d344e1461083657600080fd5b80638da5cb5b116101ab5780638da5cb5b1461078a5780638e7a15bc146107a85780639231cf74146107c8578063951166c0146107df57600080fd5b80637b0a47ee14610747578063817b1cd21461075e5780638456cb591461077557600080fd5b80634a662f48116102b657806361d1bc94116102545780636f4a2cd0116102235780636f4a2cd0146106c6578063702e827c146106db5780637069c6491461071d578063715018a61461073257600080fd5b806361d1bc94146106585780636301ac8f1461066f57806367ee313d146106865780636a08b511146106a657600080fd5b806352d1902d1161029057806352d1902d146105e85780635c975abb146105fd5780635f81a57c146106215780636076cf551461063857600080fd5b80634a662f481461056b5780634f1ef286146105b45780634ffe2a8b146105c757600080fd5b80632f80c54f116103235780633f4ba83a116102fd5780633f4ba83a1461050a5780633fd8b02f1461051f578063460ef44c1461053657806349faa4d41461055657600080fd5b80632f80c54f1461049b5780633009a609146104d35780633659cfe6146104ea57600080fd5b806318aad3831161035f57806318aad383146104035780631a90a2191461043057806323aa2a9d146104475780632bbd59ca1461046957600080fd5b80630139a221146103915780630e15561a146103c757806314c44e09146103ec57600080fd5b3661038c57005b600080fd5b34801561039d57600080fd5b506103b16103ac366004613f72565b610ad9565b6040516103be9190613fdb565b60405180910390f35b3480156103d357600080fd5b506103de6101425481565b6040519081526020016103be565b3480156103f857600080fd5b506103de6101395481565b34801561040f57600080fd5b5061042361041e366004613f72565b610c20565b6040516103be9190614043565b34801561043c57600080fd5b506103de61013a5481565b34801561045357600080fd5b50610467610462366004613f72565b610cbb565b005b34801561047557600080fd5b50610489610484366004613f72565b610cc9565b6040516103be96959493929190614056565b3480156104a757600080fd5b506104bb6104b6366004613f72565b610d9a565b6040516001600160a01b0390911681526020016103be565b3480156104df57600080fd5b506103de6101435481565b3480156104f657600080fd5b506104676105053660046140bc565b610dc5565b34801561051657600080fd5b50610467610ead565b34801561052b57600080fd5b506103de61013e5481565b34801561054257600080fd5b50610467610551366004614120565b610ebf565b34801561056257600080fd5b506103de603281565b34801561057757600080fd5b506101355461013654610137546101385461014254604080519586526020860194909452928401919091526060830152608082015260a0016103be565b6104676105c23660046141f8565b610f3a565b3480156105d357600080fd5b5061012e546104bb906001600160a01b031681565b3480156105f457600080fd5b506103de61100a565b34801561060957600080fd5b5060fb5460ff165b60405190151581526020016103be565b34801561062d57600080fd5b506103de6101385481565b34801561064457600080fd5b5061046761065336600461425a565b6110bd565b34801561066457600080fd5b506103de61013b5481565b34801561067b57600080fd5b506103de6101375481565b34801561069257600080fd5b506104676106a1366004614120565b6114ef565b3480156106b257600080fd5b506104676106c13660046142b4565b6119e9565b3480156106d257600080fd5b50610467611b32565b3480156106e757600080fd5b506104bb6106f63660046142de565b8051602081830181018051610130825292820191909301209152546001600160a01b031681565b34801561072957600080fd5b50610611611c1a565b34801561073e57600080fd5b50610467611d4d565b34801561075357600080fd5b506103de6101405481565b34801561076a57600080fd5b506103de61013f5481565b34801561078157600080fd5b50610467611d5f565b34801561079657600080fd5b506097546001600160a01b03166104bb565b3480156107b457600080fd5b506104236107c33660046140bc565b611d6f565b3480156107d457600080fd5b506103de6101415481565b3480156107eb57600080fd5b506103de6101365481565b34801561080257600080fd5b50610467610811366004613f72565b611d89565b34801561082257600080fd5b50610467610831366004613f72565b611ddd565b34801561084257600080fd5b506103de6108513660046140bc565b6101346020526000908152604090205481565b34801561087057600080fd5b5061088461087f366004613f72565b611deb565b6040516103be9796959493929190614327565b3480156108a357600080fd5b506104676108b2366004613f72565b611f4d565b3480156108c357600080fd5b506104676108d23660046140bc565b611f5b565b3480156108e357600080fd5b506103de6101355481565b3480156108fa57600080fd5b506103de61013d5481565b34801561091157600080fd5b50610467610920366004614387565b61213e565b34801561093157600080fd5b50610467612395565b34801561094657600080fd5b506104676109553660046143c4565b612633565b34801561096657600080fd5b50610467610975366004614438565b612c47565b34801561098657600080fd5b50610467610995366004614438565b613114565b3480156109a657600080fd5b506104676109b5366004613f72565b61319f565b3480156109c657600080fd5b506103de6101445481565b3480156109dd57600080fd5b506109f16109ec366004613f72565b6131ad565b6040516103be9190614472565b348015610a0a57600080fd5b506103de61013c5481565b348015610a2157600080fd5b50610467610a303660046140bc565b61336f565b348015610a4157600080fd5b50610a55610a503660046140bc565b6133e5565b6040516103be91906144f5565b348015610a6e57600080fd5b50610467610a7d3660046140bc565b6135eb565b348015610a8e57600080fd5b5061012d546104bb906001600160a01b031681565b348015610aaf57600080fd5b50610ac3610abe3660046140bc565b61367a565b6040516103be9a999897969594939291906145aa565b610b266040518060c0016040528060006001600160a01b0316815260200160006001600160a01b031681526020016060815260200160008152602001600015158152602001600081525090565b60008281526101316020908152604091829020825160c08101845281546001600160a01b039081168252600183015416928101929092526002810180549293919291840191610b7490614616565b80601f0160208091040260200160405190810160405280929190818152602001828054610ba090614616565b8015610bed5780601f10610bc257610100808354040283529160200191610bed565b820191906000526020600020905b815481529060010190602001808311610bd057829003601f168201915b505050918352505060038201546020820152600482015460ff161515604082015260059091015460609091015292915050565b6101466020526000908152604090208054610c3a90614616565b80601f0160208091040260200160405190810160405280929190818152602001828054610c6690614616565b8015610cb35780601f10610c8857610100808354040283529160200191610cb3565b820191906000526020600020905b815481529060010190602001808311610c9657829003601f168201915b505050505081565b610cc36137e2565b61013a55565b610131602052600090815260409020805460018201546002830180546001600160a01b03938416949290931692610cff90614616565b80601f0160208091040260200160405190810160405280929190818152602001828054610d2b90614616565b8015610d785780601f10610d4d57610100808354040283529160200191610d78565b820191906000526020600020905b815481529060010190602001808311610d5b57829003601f168201915b50505050600383015460048401546005909401549293909260ff909116915086565b6101338181548110610dab57600080fd5b6000918252602090912001546001600160a01b0316905081565b6001600160a01b037f0000000000000000000000000000000000000000000000000000000000000000163003610e165760405162461bcd60e51b8152600401610e0d90614650565b60405180910390fd5b7f00000000000000000000000000000000000000000000000000000000000000006001600160a01b0316610e5f600080516020614b55833981519152546001600160a01b031690565b6001600160a01b031614610e855760405162461bcd60e51b8152600401610e0d9061469c565b610e8e8161383c565b60408051600080825260208201909252610eaa91839190613844565b50565b610eb56137e2565b610ebd6139af565b565b610ec76137e2565b60008381526101326020526040902060040154610f1a5760405162461bcd60e51b815260206004820152601160248201527014d95c9d9a58d9481b9bdd08199bdd5b99607a1b6044820152606401610e0d565b600083815261014660205260409020610f34828483614736565b50505050565b6001600160a01b037f0000000000000000000000000000000000000000000000000000000000000000163003610f825760405162461bcd60e51b8152600401610e0d90614650565b7f00000000000000000000000000000000000000000000000000000000000000006001600160a01b0316610fcb600080516020614b55833981519152546001600160a01b031690565b6001600160a01b031614610ff15760405162461bcd60e51b8152600401610e0d9061469c565b610ffa8261383c565b61100682826001613844565b5050565b6000306001600160a01b037f000000000000000000000000000000000000000000000000000000000000000016146110aa5760405162461bcd60e51b815260206004820152603860248201527f555550535570677261646561626c653a206d757374206e6f742062652063616c60448201527f6c6564207468726f7567682064656c656761746563616c6c00000000000000006064820152608401610e0d565b50600080516020614b5583398151915290565b33600090815261012f602052604090206009015460ff166111155760405162461bcd60e51b81526020600482015260126024820152711059d95b9d081b9bdd081d995c9a599a595960721b6044820152606401610e0d565b61111d613a01565b611125613a5a565b6001600160a01b03841661117b5760405162461bcd60e51b815260206004820152601860248201527f496e76616c696420636f6e73756d6572206164647265737300000000000000006044820152606401610e0d565b336001600160a01b038516036111d35760405162461bcd60e51b815260206004820152601e60248201527f43616e6e6f7420637265617465207365727669636520666f722073656c6600006044820152606401610e0d565b6001600160a01b038416600090815261012f602052604090206003015460ff166112355760405162461bcd60e51b8152602060048201526013602482015272436f6e73756d6572206e6f742061637469766560681b6044820152606401610e0d565b6001600160a01b038416600090815261012f602052604090206009015460ff166112995760405162461bcd60e51b815260206004820152601560248201527410dbdb9cdd5b595c881b9bdd081d995c9a599a5959605a1b6044820152606401610e0d565b600081116112d95760405162461bcd60e51b815260206004820152600d60248201526c496e76616c696420707269636560981b6044820152606401610e0d565b8161131e5760405162461bcd60e51b815260206004820152601560248201527414d95c9d9a58d9481d1e5c19481c995c5d5a5c9959605a1b6044820152606401610e0d565b69d3c21bcecceda10000008111156113695760405162461bcd60e51b815260206004820152600e60248201526d0a0e4d2c6ca40e8dede40d0d2ced60931b6044820152606401610e0d565b60006101375490506040518060e00160405280336001600160a01b03168152602001866001600160a01b0316815260200185858080601f01602080910402602001604051908101604052809392919081815260200183838082843760009201829052509385525050506020808301869052426040808501919091526060840183905280518083018252838152608090940193909352848252610132815290829020835181546001600160a01b03199081166001600160a01b039283161783559285015160018301805490941691161790915590820151600282019061144e90826147f6565b50606082015160038201556080820151600482015560a082015160058201805460ff191691151591909117905560c0820151600682019061148f90826147f6565b50506101378054915060006114a3836148cc565b9190505550807f06dec7c18c6d88222831a8e9c277ddd5ce160c41bc15314e7d93f6b45353d90f3387856040516114dc939291906148e5565b60405180910390a250610f34600160c955565b33600090815261012f602052604090206009015460ff166115475760405162461bcd60e51b81526020600482015260126024820152711059d95b9d081b9bdd081d995c9a599a595960721b6044820152606401610e0d565b61154f613a01565b611557613a5a565b60008381526101326020526040902080546001600160a01b031633146115b65760405162461bcd60e51b81526020600482015260146024820152732737ba1039b2b93b34b1b290383937bb34b232b960611b6044820152606401610e0d565b600581015460ff161561160b5760405162461bcd60e51b815260206004820152601960248201527f5365727669636520616c726561647920636f6d706c65746564000000000000006044820152606401610e0d565b8161164d5760405162461bcd60e51b8152602060048201526012602482015271125b9d985b1a59081c995cdd5b1d0810d25160721b6044820152606401610e0d565b60008160040154116116955760405162461bcd60e51b815260206004820152601160248201527014d95c9d9a58d9481b9bdd08199bdd5b99607a1b6044820152606401610e0d565b60048101546116a79062278d00614909565b4211156116e85760405162461bcd60e51b815260206004820152600f60248201526e14d95c9d9a58d948195e1c1a5c9959608a1b6044820152606401610e0d565b60058101805460ff1916600117905560068101611706838583614736565b50600061271061013b5461271061171d919061491c565b836003015461172c919061492f565b6117369190614946565b9050600081836003015461174a919061491c565b61012d546040516370a0823160e01b815230600482015291925083916001600160a01b03909116906370a0823190602401602060405180830381865afa158015611798573d6000803e3d6000fd5b505050506040513d601f19601f820116820180604052508101906117bc9190614968565b106118585761012d5460405163a9059cbb60e01b8152336004820152602481018490526001600160a01b039091169063a9059cbb906044016020604051808303816000875af1158015611813573d6000803e3d6000fd5b505050506040513d601f19601f820116820180604052508101906118379190614981565b6118535760405162461bcd60e51b8152600401610e0d906149aa565b6118b2565b60405162461bcd60e51b815260206004820152602960248201527f496e73756666696369656e7420636f6e74726163742062616c616e636520666f60448201526872207265776172647360b81b6064820152608401610e0d565b33600090815261012f60205260408120600281015460079091018054919285926118dd908490614909565b909155505033600090815261012f60205260408120600801805491611901836148cc565b909155505033600090815261012f602052604081206002018054600a929061192a908490614909565b909155505060038401546101388054600090611947908490614909565b92505081905550867f58e249b9328bc8509283e8d24898ab201b6fd08cd489de5995fff808670b897c878786604051611982939291906149d9565b60405180910390a233600081815261012f6020908152604091829020600201548251858152918201527f5b88a2e3fc1a53234357ab78c104df11c33ccfa79886793654565ad70b8afb6e910160405180910390a2505050506119e4600160c955565b505050565b6119f16137e2565b6001600160a01b038216600090815261012f6020526040902060020154612710811115611a605760405162461bcd60e51b815260206004820152601860248201527f496e76616c69642072657075746174696f6e2073636f726500000000000000006044820152606401610e0d565b6001600160a01b038316600090815261012f60205260408120600201549080841315611aa657611a908483614909565b9050612710811115611aa157506127105b611ad2565b6000611ab185614a12565b9050828110611ac35760009150611ad0565b611acd818461491c565b91505b505b6001600160a01b038516600081815261012f602090815260409182902060020184905581518581529081018490527f5b88a2e3fc1a53234357ab78c104df11c33ccfa79886793654565ad70b8afb6e910160405180910390a25050505050565b611b3a6137e2565b60006101415442611b4b919061491c565b90506000611b5961013f5490565b9050600081118015611b6b5750600082115b1561100657600064496cebb800836101405484611b88919061492f565b611b92919061492f565b611b9c9190614946565b9050600081118015611bae5750804710155b156119e457611bbc81613aa7565b806101426000828254611bcf9190614909565b9091555050426101418190556040805183815260208101929092527f29e98ba00d07f171959c4ddcd2f3020debc7c52cf537a034d7e664340d098c6c910160405180910390a1505050565b6000611c246137e2565b610144541580611c35575061013f54155b15611c405750600190565b610143546000611c51603283614909565b61013354909150811115611c655750610133545b6000825b82811015611d1c5760006101338281548110611c8757611c87614a2e565b60009182526020808320909101546001600160a01b031680835261012f909152604090912060038101549192509060ff168015611cc8575060008160060154115b15611d0757600061013f54826006015461014454611ce6919061492f565b611cf09190614946565b90508015611d0557611d028186614909565b94505b505b50508080611d14906148cc565b915050611c69565b50610143829055610133548210611d43575050600061014481905561014355506001905090565b6000935050505090565b611d556137e2565b610ebd6000613b08565b611d676137e2565b610ebd613b5a565b6101456020526000908152604090208054610c3a90614616565b611d916137e2565b6103e8811115611dd75760405162461bcd60e51b815260206004820152601160248201527008ccaca40e4c2e8ca40e8dede40d0d2ced607b1b6044820152606401610e0d565b61013b55565b611de56137e2565b61014055565b610132602052600090815260409020805460018201546002830180546001600160a01b03938416949290931692611e2190614616565b80601f0160208091040260200160405190810160405280929190818152602001828054611e4d90614616565b8015611e9a5780601f10611e6f57610100808354040283529160200191611e9a565b820191906000526020600020905b815481529060010190602001808311611e7d57829003601f168201915b5050506003840154600485015460058601546006870180549697939692955060ff909116935090611eca90614616565b80601f0160208091040260200160405190810160405280929190818152602001828054611ef690614616565b8015611f435780601f10611f1857610100808354040283529160200191611f43565b820191906000526020600020905b815481529060010190602001808311611f2657829003601f168201915b5050505050905087565b611f556137e2565b61013955565b600054610100900460ff1615808015611f7b5750600054600160ff909116105b80611f955750303b158015611f95575060005460ff166001145b611ff85760405162461bcd60e51b815260206004820152602e60248201527f496e697469616c697a61626c653a20636f6e747261637420697320616c72656160448201526d191e481a5b9a5d1a585b1a5e995960921b6064820152608401610e0d565b6000805460ff19166001179055801561201b576000805461ff0019166101001790555b6001600160a01b0382166120695760405162461bcd60e51b8152602060048201526015602482015274496e76616c696420746f6b656e206164647265737360581b6044820152606401610e0d565b612071613b97565b612079613bc6565b612081613bed565b612089613c1c565b61012d80546001600160a01b0319166001600160a01b03841617905568056bc75e2d6310000061013955670de0b6b3a764000061013a5561012c61013b55683635c9adc5dea0000061013c556103e861013d5562278d0061013e556005610140554261014155600061013f558015611006576000805461ff0019169055604051600181527f7f26b83ff96e1f2b6a682f133852f6798a09c465da95921460cefb38474024989060200160405180910390a15050565b6121466137e2565b6001600160a01b038216600090815261012f602052604090206003015460ff166121825760405162461bcd60e51b8152600401610e0d90614a44565b6001600160a01b038216600090815261012f602052604090206009015460ff16156121e85760405162461bcd60e51b81526020600482015260166024820152751059d95b9d08185b1c9958591e481d995c9a599a595960521b6044820152606401610e0d565b61012e546001600160a01b03166122415760405162461bcd60e51b815260206004820152601d60248201527f566572696669636174696f6e20636f6e7472616374206e6f74207365740000006044820152606401610e0d565b600061224d8383613c4b565b9050806122905760405162461bcd60e51b815260206004820152601160248201527024b73b30b634b2102d25a810383937b7b360791b6044820152606401610e0d565b6001600160a01b038316600090815261012f6020526040812060098101805460ff1916600117905560020180546103e892906122cd908490614909565b9091555050604051600181526001600160a01b038416907fb0c56617ec919721f803618b5f53891e275c7aaddbdf3c17c45f3252854fa70b9060200160405180910390a26001600160a01b038316600081815261012f60205260409020600201547f5b88a2e3fc1a53234357ab78c104df11c33ccfa79886793654565ad70b8afb6e9061235d906103e89061491c565b6001600160a01b038616600090815261012f6020908152604091829020600201548251938452908301520160405180910390a2505050565b61239d613a01565b33600090815261012f60205260409020600381015460ff166123d15760405162461bcd60e51b8152600401610e0d90614a44565b61013e5481600401546123e49190614909565b42101561242b5760405162461bcd60e51b8152602060048201526015602482015274131bd8dac81c195c9a5bd9081b9bdd08195b991959605a1b6044820152606401610e0d565b600681015460038201805460ff191690553360009081526101346020526040812054610133549091906124609060019061491c565b90508082146124eb576000610133828154811061247f5761247f614a2e565b60009182526020909120015461013380546001600160a01b0390921692508291859081106124af576124af614a2e565b600091825260208083209190910180546001600160a01b0319166001600160a01b03948516179055929091168152610134909152604090208290555b6101338054806124fd576124fd614a72565b60008281526020808220830160001990810180546001600160a01b031916905590920190925533825261013490526040812081905561013580549161254183614a88565b91905055508261013f6000828254612559919061491c565b909155505061012d5460405163a9059cbb60e01b8152336004820152602481018590526001600160a01b039091169063a9059cbb906044016020604051808303816000875af11580156125b0573d6000803e3d6000fd5b505050506040513d601f19601f820116820180604052508101906125d49190614981565b6125f05760405162461bcd60e51b8152600401610e0d906149aa565b60405183815233907f366aad71786c86a25c8e70832e1308e87662a4861edda4ae85ad947d858b9d119060200160405180910390a250505050610ebd600160c955565b61263b613a01565b612643613a5a565b33600090815261012f602052604090206003015460ff16156126a75760405162461bcd60e51b815260206004820152601860248201527f4167656e7420616c7265616479207265676973746572656400000000000000006044820152606401610e0d565b61013c548110156126fa5760405162461bcd60e51b815260206004820152601960248201527f496e73756666696369656e74207374616b6520616d6f756e74000000000000006044820152606401610e0d565b8361273e5760405162461bcd60e51b8152602060048201526014602482015273125b9d985b1a590811125108191bd8dd5b595b9d60621b6044820152606401610e0d565b60006001600160a01b0316610130868660405161275c929190614a9f565b908152604051908190036020019020546001600160a01b0316146127b75760405162461bcd60e51b815260206004820152601260248201527144494420616c72656164792065786973747360701b6044820152606401610e0d565b600061013954826127c89190614909565b61012d546040516370a0823160e01b815233600482015291925082916001600160a01b03909116906370a0823190602401602060405180830381865afa158015612816573d6000803e3d6000fd5b505050506040513d601f19601f8201168201806040525081019061283a9190614968565b10156128885760405162461bcd60e51b815260206004820152601a60248201527f496e73756666696369656e7420746f6b656e2062616c616e63650000000000006044820152606401610e0d565b61012d54604051636eb1769f60e11b815233600482015230602482015282916001600160a01b03169063dd62ed3e90604401602060405180830381865afa1580156128d7573d6000803e3d6000fd5b505050506040513d601f19601f820116820180604052508101906128fb9190614968565b10156129495760405162461bcd60e51b815260206004820152601c60248201527f496e73756666696369656e7420746f6b656e20616c6c6f77616e6365000000006044820152606401610e0d565b61012d546040516323b872dd60e01b81526001600160a01b03909116906323b872dd9061297e903390309086906004016148e5565b6020604051808303816000875af115801561299d573d6000803e3d6000fd5b505050506040513d601f19601f820116820180604052508101906129c19190614981565b6129dd5760405162461bcd60e51b8152600401610e0d906149aa565b60405180610140016040528087878080601f016020809104026020016040519081016040528093929190818152602001838380828437600092019190915250505090825250604080516020601f880181900481028201810190925286815291810191908790879081908401838280828437600092018290525093855250506103e860208085019190915260016040808601919091524260608601819052608086015260a0850188905260c0850184905260e0850184905261010090940183905233835261012f9052502081518190612ab590826147f6565b5060208201516001820190612aca90826147f6565b506040828101516002830155606083015160038301805491151560ff199283161790556080840151600484015560a0840151600584015560c0840151600684015560e0840151600784015561010084015160088401556101209093015160099092018054921515929093169190911790915551339061013090612b509089908990614a9f565b9081526040805191829003602090810190922080546001600160a01b03949094166001600160a01b031994851617905561013380543360008181526101349095529284208190556001810182559083527f92e985329fb94cc1b424ebb0f7f2929b6d27383ca94c0ec71c44fb48bdf96d2c01805490931617909155610135805491612bda836148cc565b91905055508161013f6000828254612bf29190614909565b909155505060405133907f023c5efe572c42192271951adb0e77f97d7fc84bc761d026189ac0861734682490612c2d908990899087906149d9565b60405180910390a250612c40600160c955565b5050505050565b33600090815261012f602052604090206003015460ff16612c7a5760405162461bcd60e51b8152600401610e0d90614a44565b612c82613a01565b6001600160a01b038316600090815261012f602052604090206003015460ff16612cee5760405162461bcd60e51b815260206004820152601760248201527f546172676574206167656e74206e6f74206163746976650000000000000000006044820152606401610e0d565b80612d315760405162461bcd60e51b8152602060048201526013602482015272125b9d985b1a59081b595cdcd859d94810d251606a1b6044820152606401610e0d565b61013a5461012d546040516370a0823160e01b81523360048201526001600160a01b03909116906370a0823190602401602060405180830381865afa158015612d7e573d6000803e3d6000fd5b505050506040513d601f19601f82011682018060405250810190612da29190614968565b1015612df05760405162461bcd60e51b815260206004820152601a60248201527f496e73756666696369656e7420746f6b656e2062616c616e63650000000000006044820152606401610e0d565b61013a5461012d54604051636eb1769f60e11b81523360048201523060248201526001600160a01b039091169063dd62ed3e90604401602060405180830381865afa158015612e43573d6000803e3d6000fd5b505050506040513d601f19601f82011682018060405250810190612e679190614968565b1015612eb55760405162461bcd60e51b815260206004820152601c60248201527f496e73756666696369656e7420746f6b656e20616c6c6f77616e6365000000006044820152606401610e0d565b61012d5461013a546040516323b872dd60e01b81526001600160a01b03909216916323b872dd91612eec91339130916004016148e5565b6020604051808303816000875af1158015612f0b573d6000803e3d6000fd5b505050506040513d601f19601f82011682018060405250810190612f2f9190614981565b612f4b5760405162461bcd60e51b8152600401610e0d906149aa565b60003384848442604051602001612f66959493929190614aaf565b60408051601f19818403018152828252805160209182012060c0840183523384526001600160a01b038816848301528251601f87018390048302810183018452868152909450918301919086908690819084018382808284376000920182905250938552505042602080850191909152604080850184905261013a54606090950194909452858352610131815291839020845181546001600160a01b03199081166001600160a01b03928316178355938601516001830180549095169116179092555090820151600282019061303c90826147f6565b5060608201516003820155608082015160048201805460ff191691151591909117905560a090910151600590910155610136805490600061307c836148cc565b919050555061013a5461013860008282546130979190614909565b909155505033600081815261012f60205260408082204260059182018190556001600160a01b038916845292829020019190915561013a54905183927f3c20d4e8f42599eddf3cdb1184580d4ad4d4a3063dbd500a519f8fcf11ea241492613101928991906148e5565b60405180910390a2506119e4600160c955565b61311c6137e2565b6001600160a01b038316600090815261012f602052604090206003015460ff1661317b5760405162461bcd60e51b815260206004820152601060248201526f4167656e74206e6f742061637469766560801b6044820152606401610e0d565b6001600160a01b038316600090815261014560205260409020610f34828483614736565b6131a76137e2565b61013c55565b6040805160e080820183526000808352602080840182905260608486018190528085018390526080850183905260a0850183905260c08501528582526101328152908490208451928301855280546001600160a01b0390811684526001820154169183019190915260028101805493949293919284019161322d90614616565b80601f016020809104026020016040519081016040528092919081815260200182805461325990614616565b80156132a65780601f1061327b576101008083540402835291602001916132a6565b820191906000526020600020905b81548152906001019060200180831161328957829003601f168201915b50505091835250506003820154602082015260048201546040820152600582015460ff16151560608201526006820180546080909201916132e690614616565b80601f016020809104026020016040519081016040528092919081815260200182805461331290614616565b801561335f5780601f106133345761010080835404028352916020019161335f565b820191906000526020600020905b81548152906001019060200180831161334257829003601f168201915b5050505050815250509050919050565b6133776137e2565b6001600160a01b0381166133dc5760405162461bcd60e51b815260206004820152602660248201527f4f776e61626c653a206e6577206f776e657220697320746865207a65726f206160448201526564647265737360d01b6064820152608401610e0d565b610eaa81613b08565b61343f60405180610140016040528060608152602001606081526020016000815260200160001515815260200160008152602001600081526020016000815260200160008152602001600081526020016000151581525090565b6001600160a01b038216600090815261012f6020526040908190208151610140810190925280548290829061347390614616565b80601f016020809104026020016040519081016040528092919081815260200182805461349f90614616565b80156134ec5780601f106134c1576101008083540402835291602001916134ec565b820191906000526020600020905b8154815290600101906020018083116134cf57829003601f168201915b5050505050815260200160018201805461350590614616565b80601f016020809104026020016040519081016040528092919081815260200182805461353190614616565b801561357e5780601f106135535761010080835404028352916020019161357e565b820191906000526020600020905b81548152906001019060200180831161356157829003601f168201915b505050918352505060028201546020820152600382015460ff908116151560408301526004830154606083015260058301546080830152600683015460a0830152600783015460c0830152600883015460e083015260099092015490911615156101009091015292915050565b6135f36137e2565b6001600160a01b0381166136575760405162461bcd60e51b815260206004820152602560248201527f496e76616c696420766572696669636174696f6e20636f6e7472616374206164604482015264647265737360d81b6064820152608401610e0d565b61012e80546001600160a01b0319166001600160a01b0392909216919091179055565b61012f6020526000908152604090208054819061369690614616565b80601f01602080910402602001604051908101604052809291908181526020018280546136c290614616565b801561370f5780601f106136e45761010080835404028352916020019161370f565b820191906000526020600020905b8154815290600101906020018083116136f257829003601f168201915b50505050509080600101805461372490614616565b80601f016020809104026020016040519081016040528092919081815260200182805461375090614616565b801561379d5780601f106137725761010080835404028352916020019161379d565b820191906000526020600020905b81548152906001019060200180831161378057829003601f168201915b5050505060028301546003840154600485015460058601546006870154600788015460088901546009909901549798959760ff9586169750939592949193909291168a565b6097546001600160a01b03163314610ebd5760405162461bcd60e51b815260206004820181905260248201527f4f776e61626c653a2063616c6c6572206973206e6f7420746865206f776e65726044820152606401610e0d565b610eaa6137e2565b7f4910fdfa16fed3260ed0e7147f7cc6da11a60208b5b9406d12a635614ffd91435460ff1615613877576119e483613c5b565b826001600160a01b03166352d1902d6040518163ffffffff1660e01b8152600401602060405180830381865afa9250505080156138d1575060408051601f3d908101601f191682019092526138ce91810190614968565b60015b6139345760405162461bcd60e51b815260206004820152602e60248201527f45524331393637557067726164653a206e657720696d706c656d656e7461746960448201526d6f6e206973206e6f74205555505360901b6064820152608401610e0d565b600080516020614b5583398151915281146139a35760405162461bcd60e51b815260206004820152602960248201527f45524331393637557067726164653a20756e737570706f727465642070726f786044820152681a58589b195555525160ba1b6064820152608401610e0d565b506119e4838383613cf7565b6139b7613d1c565b60fb805460ff191690557f5db9ee0a495bf2e6ff9c91a7834c1ba4fdd244a5e8aa4e537bd38aeae4b073aa335b6040516001600160a01b03909116815260200160405180910390a1565b600260c95403613a535760405162461bcd60e51b815260206004820152601f60248201527f5265656e7472616e637947756172643a207265656e7472616e742063616c6c006044820152606401610e0d565b600260c955565b60fb5460ff1615610ebd5760405162461bcd60e51b815260206004820152601060248201526f14185d5cd8589b194e881c185d5cd95960821b6044820152606401610e0d565b600160c955565b61013f54600003613ab55750565b806101446000828254613ac89190614909565b9091555050604080518281524260208201527f29e98ba00d07f171959c4ddcd2f3020debc7c52cf537a034d7e664340d098c6c910160405180910390a150565b609780546001600160a01b038381166001600160a01b0319831681179093556040519116919082907f8be0079c531659141344cd1fd0a4f28419497f9722a3daafe3b4186f6b6457e090600090a35050565b613b62613a5a565b60fb805460ff191660011790557f62e78cea01bee320cd4e420270b5ea74000d11b0c9f74754ebdbfc544b05a2586139e43390565b600054610100900460ff16613bbe5760405162461bcd60e51b8152600401610e0d90614aed565b610ebd613d65565b600054610100900460ff16610ebd5760405162461bcd60e51b8152600401610e0d90614aed565b600054610100900460ff16613c145760405162461bcd60e51b8152600401610e0d90614aed565b610ebd613d95565b600054610100900460ff16613c435760405162461bcd60e51b8152600401610e0d90614aed565b610ebd613dbc565b6000813515155b90505b92915050565b6001600160a01b0381163b613cc85760405162461bcd60e51b815260206004820152602d60248201527f455243313936373a206e657720696d706c656d656e746174696f6e206973206e60448201526c1bdd08184818dbdb9d1c9858dd609a1b6064820152608401610e0d565b600080516020614b5583398151915280546001600160a01b0319166001600160a01b0392909216919091179055565b613d0083613def565b600082511180613d0d5750805b156119e457610f348383613e2f565b60fb5460ff16610ebd5760405162461bcd60e51b815260206004820152601460248201527314185d5cd8589b194e881b9bdd081c185d5cd95960621b6044820152606401610e0d565b600054610100900460ff16613d8c5760405162461bcd60e51b8152600401610e0d90614aed565b610ebd33613b08565b600054610100900460ff16613aa05760405162461bcd60e51b8152600401610e0d90614aed565b600054610100900460ff16613de35760405162461bcd60e51b8152600401610e0d90614aed565b60fb805460ff19169055565b613df881613c5b565b6040516001600160a01b038216907fbc7cd75a20ee27fd9adebab32041f755214dbc6bffa90cc0225b39da2e5c2d3b90600090a250565b6060613c528383604051806060016040528060278152602001614b75602791396060600080856001600160a01b031685604051613e6c9190614b38565b600060405180830381855af49150503d8060008114613ea7576040519150601f19603f3d011682016040523d82523d6000602084013e613eac565b606091505b5091509150613ebd86838387613ec7565b9695505050505050565b60608315613f36578251600003613f2f576001600160a01b0385163b613f2f5760405162461bcd60e51b815260206004820152601d60248201527f416464726573733a2063616c6c20746f206e6f6e2d636f6e74726163740000006044820152606401610e0d565b5081613f40565b613f408383613f48565b949350505050565b815115613f585781518083602001fd5b8060405162461bcd60e51b8152600401610e0d9190614043565b600060208284031215613f8457600080fd5b5035919050565b60005b83811015613fa6578181015183820152602001613f8e565b50506000910152565b60008151808452613fc7816020860160208601613f8b565b601f01601f19169290920160200192915050565b60208152600060018060a01b0380845116602084015280602085015116604084015250604083015160c0606084015261401760e0840182613faf565b9050606084015160808401526080840151151560a084015260a084015160c08401528091505092915050565b602081526000613c526020830184613faf565b6001600160a01b0387811682528616602082015260c06040820181905260009061408290830187613faf565b606083019590955250911515608083015260a0909101529392505050565b80356001600160a01b03811681146140b757600080fd5b919050565b6000602082840312156140ce57600080fd5b613c52826140a0565b60008083601f8401126140e957600080fd5b50813567ffffffffffffffff81111561410157600080fd5b60208301915083602082850101111561411957600080fd5b9250929050565b60008060006040848603121561413557600080fd5b83359250602084013567ffffffffffffffff81111561415357600080fd5b61415f868287016140d7565b9497909650939450505050565b634e487b7160e01b600052604160045260246000fd5b600067ffffffffffffffff8084111561419d5761419d61416c565b604051601f8501601f19908116603f011681019082821181831017156141c5576141c561416c565b816040528093508581528686860111156141de57600080fd5b858560208301376000602087830101525050509392505050565b6000806040838503121561420b57600080fd5b614214836140a0565b9150602083013567ffffffffffffffff81111561423057600080fd5b8301601f8101851361424157600080fd5b61425085823560208401614182565b9150509250929050565b6000806000806060858703121561427057600080fd5b614279856140a0565b9350602085013567ffffffffffffffff81111561429557600080fd5b6142a1878288016140d7565b9598909750949560400135949350505050565b600080604083850312156142c757600080fd5b6142d0836140a0565b946020939093013593505050565b6000602082840312156142f057600080fd5b813567ffffffffffffffff81111561430757600080fd5b8201601f8101841361431857600080fd5b613f4084823560208401614182565b6001600160a01b0388811682528716602082015260e06040820181905260009061435390830188613faf565b86606084015285608084015284151560a084015282810360c08401526143798185613faf565b9a9950505050505050505050565b60008061012080848603121561439c57600080fd5b6143a5846140a0565b92508481850111156143b657600080fd5b506020830190509250929050565b6000806000806000606086880312156143dc57600080fd5b853567ffffffffffffffff808211156143f457600080fd5b61440089838a016140d7565b9097509550602088013591508082111561441957600080fd5b50614426888289016140d7565b96999598509660400135949350505050565b60008060006040848603121561444d57600080fd5b614456846140a0565b9250602084013567ffffffffffffffff81111561415357600080fd5b60208152600060018060a01b0380845116602084015280602085015116604084015250604083015160e060608401526144af610100840182613faf565b905060608401516080840152608084015160a084015260a0840151151560c084015260c0840151601f198483030160e08501526144ec8282613faf565b95945050505050565b6020815260008251610140806020850152614514610160850183613faf565b91506020850151601f198584030160408601526145318382613faf565b925050604085015160608501526060850151614551608086018215159052565b50608085015160a085015260a085015160c085015260c085015160e085015260e08501516101008181870152808701519150506101208181870152808701519150506145a08286018215159052565b5090949350505050565b60006101408083526145be8184018e613faf565b905082810360208401526145d2818d613faf565b604084019b909b5250509615156060880152608087019590955260a086019390935260c085019190915260e084015261010083015215156101209091015292915050565b600181811c9082168061462a57607f821691505b60208210810361464a57634e487b7160e01b600052602260045260246000fd5b50919050565b6020808252602c908201527f46756e6374696f6e206d7573742062652063616c6c6564207468726f7567682060408201526b19195b1959d85d1958d85b1b60a21b606082015260800190565b6020808252602c908201527f46756e6374696f6e206d7573742062652063616c6c6564207468726f7567682060408201526b6163746976652070726f787960a01b606082015260800190565b601f8211156119e457600081815260208120601f850160051c8101602086101561470f5750805b601f850160051c820191505b8181101561472e5782815560010161471b565b505050505050565b67ffffffffffffffff83111561474e5761474e61416c565b6147628361475c8354614616565b836146e8565b6000601f841160018114614796576000851561477e5750838201355b600019600387901b1c1916600186901b178355612c40565b600083815260209020601f19861690835b828110156147c757868501358255602094850194600190920191016147a7565b50868210156147e45760001960f88860031b161c19848701351681555b505060018560011b0183555050505050565b815167ffffffffffffffff8111156148105761481061416c565b6148248161481e8454614616565b846146e8565b602080601f83116001811461485957600084156148415750858301515b600019600386901b1c1916600185901b17855561472e565b600085815260208120601f198616915b8281101561488857888601518255948401946001909101908401614869565b50858210156148a65787850151600019600388901b60f8161c191681555b5050505050600190811b01905550565b634e487b7160e01b600052601160045260246000fd5b6000600182016148de576148de6148b6565b5060010190565b6001600160a01b039384168152919092166020820152604081019190915260600190565b80820180821115613c5557613c556148b6565b81810381811115613c5557613c556148b6565b8082028115828204841417613c5557613c556148b6565b60008261496357634e487b7160e01b600052601260045260246000fd5b500490565b60006020828403121561497a57600080fd5b5051919050565b60006020828403121561499357600080fd5b815180151581146149a357600080fd5b9392505050565b602080825260159082015274151bdad95b881d1c985b9cd9995c8819985a5b1959605a1b604082015260600190565b604081528260408201528284606083013760006060848301015260006060601f19601f8601168301019050826020830152949350505050565b6000600160ff1b8201614a2757614a276148b6565b5060000390565b634e487b7160e01b600052603260045260246000fd5b6020808252601490820152731059d95b9d081b9bdd081c9959da5cdd195c995960621b604082015260600190565b634e487b7160e01b600052603160045260246000fd5b600081614a9757614a976148b6565b506000190190565b8183823760009101908152919050565b60006bffffffffffffffffffffffff19808860601b168352808760601b16601484015250838560288401375060289201918201526048019392505050565b6020808252602b908201527f496e697469616c697a61626c653a20636f6e7472616374206973206e6f74206960408201526a6e697469616c697a696e6760a81b606082015260800190565b60008251614b4a818460208701613f8b565b919091019291505056fe360894a13ba1a3210667c828492db98dca3e2076cc3735a920a3ca505d382bbc416464726573733a206c6f772d6c6576656c2064656c65676174652063616c6c206661696c6564a26469706673582212204748b1634f9b4dae14794b39750fcf8fa21f531e177944e609017f2730a7248664736f6c63430008130033","opcodes":"PUSH1 0xA0 PUSH1 0x40 MSTORE ADDRESS PUSH1 0x80 MSTORE CALLVALUE DUP1 ISZERO PUSH2 0x14 JUMPI PUSH1 0x0 DUP1 REVERT JUMPDEST POP PUSH1 0x80 MLOAD PUSH2 0x4BD1 PUSH2 0x4C PUSH1 0x0 CODECOPY PUSH1 0x0 DUP2 DUP2 PUSH2 0xDCF ADD MSTORE DUP2 DUP2 PUSH2 0xE18 ADD MSTORE DUP2 DUP2 PUSH2 0xF44 ADD MSTORE DUP2 DUP2 PUSH2 0xF84 ADD MSTORE PUSH2 0x1017 ADD MSTORE PUSH2 0x4BD1 PUSH1 0x0 RETURN INVALID PUSH1 0x80 PUSH1 0x40 MSTORE PUSH1 0x4 CALLDATASIZE LT PUSH2 0x385 JUMPI PUSH1 0x0 CALLDATALOAD PUSH1 0xE0 SHR DUP1 PUSH4 0x7B0A47EE GT PUSH2 0x1D1 JUMPI DUP1 PUSH4 0xD410E8BA GT PUSH2 0x102 JUMPI DUP1 PUSH4 0xEDED3FDA GT PUSH2 0xA0 JUMPI DUP1 PUSH4 0xFB3551FF GT PUSH2 0x6F JUMPI DUP1 PUSH4 0xFB3551FF EQ PUSH2 0xA35 JUMPI DUP1 PUSH4 0xFB48D6BE EQ PUSH2 0xA62 JUMPI DUP1 PUSH4 0xFC0C546A EQ PUSH2 0xA82 JUMPI DUP1 PUSH4 0xFD66091E EQ PUSH2 0xAA3 JUMPI PUSH1 0x0 DUP1 REVERT JUMPDEST DUP1 PUSH4 0xEDED3FDA EQ PUSH2 0x9BA JUMPI DUP1 PUSH4 0xEF0E239B EQ PUSH2 0x9D1 JUMPI DUP1 PUSH4 0xF1887684 EQ PUSH2 0x9FE JUMPI DUP1 PUSH4 0xF2FDE38B EQ PUSH2 0xA15 JUMPI PUSH1 0x0 DUP1 REVERT JUMPDEST DUP1 PUSH4 0xDA6B03BC GT PUSH2 0xDC JUMPI DUP1 PUSH4 0xDA6B03BC EQ PUSH2 0x93A JUMPI DUP1 PUSH4 0xDE6F24BB EQ PUSH2 0x95A JUMPI DUP1 PUSH4 0xDEB7BBA9 EQ PUSH2 0x97A JUMPI DUP1 PUSH4 0xEB4AF045 EQ PUSH2 0x99A JUMPI PUSH1 0x0 DUP1 REVERT JUMPDEST DUP1 PUSH4 0xD410E8BA EQ PUSH2 0x8EE JUMPI DUP1 PUSH4 0xD420051D EQ PUSH2 0x905 JUMPI DUP1 PUSH4 0xD88E1AB9 EQ PUSH2 0x925 JUMPI PUSH1 0x0 DUP1 REVERT JUMPDEST DUP1 PUSH4 0x9B1D3091 GT PUSH2 0x16F JUMPI DUP1 PUSH4 0xC22C4F43 GT PUSH2 0x149 JUMPI DUP1 PUSH4 0xC22C4F43 EQ PUSH2 0x864 JUMPI DUP1 PUSH4 0xC320C727 EQ PUSH2 0x897 JUMPI DUP1 PUSH4 0xC4D66DE8 EQ PUSH2 0x8B7 JUMPI DUP1 PUSH4 0xC5053712 EQ PUSH2 0x8D7 JUMPI PUSH1 0x0 DUP1 REVERT JUMPDEST DUP1 PUSH4 0x9B1D3091 EQ PUSH2 0x7F6 JUMPI DUP1 PUSH4 0x9E447FC6 EQ PUSH2 0x816 JUMPI DUP1 PUSH4 0xA74D344E EQ PUSH2 0x836 JUMPI PUSH1 0x0 DUP1 REVERT JUMPDEST DUP1 PUSH4 0x8DA5CB5B GT PUSH2 0x1AB JUMPI DUP1 PUSH4 0x8DA5CB5B EQ PUSH2 0x78A JUMPI DUP1 PUSH4 0x8E7A15BC EQ PUSH2 0x7A8 JUMPI DUP1 PUSH4 0x9231CF74 EQ PUSH2 0x7C8 JUMPI DUP1 PUSH4 0x951166C0 EQ PUSH2 0x7DF JUMPI PUSH1 0x0 DUP1 REVERT JUMPDEST DUP1 PUSH4 0x7B0A47EE EQ PUSH2 0x747 JUMPI DUP1 PUSH4 0x817B1CD2 EQ PUSH2 0x75E JUMPI DUP1 PUSH4 0x8456CB59 EQ PUSH2 0x775 JUMPI PUSH1 0x0 DUP1 REVERT JUMPDEST DUP1 PUSH4 0x4A662F48 GT PUSH2 0x2B6 JUMPI DUP1 PUSH4 0x61D1BC94 GT PUSH2 0x254 JUMPI DUP1 PUSH4 0x6F4A2CD0 GT PUSH2 0x223 JUMPI DUP1 PUSH4 0x6F4A2CD0 EQ PUSH2 0x6C6 JUMPI DUP1 PUSH4 0x702E827C EQ PUSH2 0x6DB JUMPI DUP1 PUSH4 0x7069C649 EQ PUSH2 0x71D JUMPI DUP1 PUSH4 0x715018A6 EQ PUSH2 0x732 JUMPI PUSH1 0x0 DUP1 REVERT JUMPDEST DUP1 PUSH4 0x61D1BC94 EQ PUSH2 0x658 JUMPI DUP1 PUSH4 0x6301AC8F EQ PUSH2 0x66F JUMPI DUP1 PUSH4 0x67EE313D EQ PUSH2 0x686 JUMPI DUP1 PUSH4 0x6A08B511 EQ PUSH2 0x6A6 JUMPI PUSH1 0x0 DUP1 REVERT JUMPDEST DUP1 PUSH4 0x52D1902D GT PUSH2 0x290 JUMPI DUP1 PUSH4 0x52D1902D EQ PUSH2 0x5E8 JUMPI DUP1 PUSH4 0x5C975ABB EQ PUSH2 0x5FD JUMPI DUP1 PUSH4 0x5F81A57C EQ PUSH2 0x621 JUMPI DUP1 PUSH4 0x6076CF55 EQ PUSH2 0x638 JUMPI PUSH1 0x0 DUP1 REVERT JUMPDEST DUP1 PUSH4 0x4A662F48 EQ PUSH2 0x56B JUMPI DUP1 PUSH4 0x4F1EF286 EQ PUSH2 0x5B4 JUMPI DUP1 PUSH4 0x4FFE2A8B EQ PUSH2 0x5C7 JUMPI PUSH1 0x0 DUP1 REVERT JUMPDEST DUP1 PUSH4 0x2F80C54F GT PUSH2 0x323 JUMPI DUP1 PUSH4 0x3F4BA83A GT PUSH2 0x2FD JUMPI DUP1 PUSH4 0x3F4BA83A EQ PUSH2 0x50A JUMPI DUP1 PUSH4 0x3FD8B02F EQ PUSH2 0x51F JUMPI DUP1 PUSH4 0x460EF44C EQ PUSH2 0x536 JUMPI DUP1 PUSH4 0x49FAA4D4 EQ PUSH2 0x556 JUMPI PUSH1 0x0 DUP1 REVERT JUMPDEST DUP1 PUSH4 0x2F80C54F EQ PUSH2 0x49B JUMPI DUP1 PUSH4 0x3009A609 EQ PUSH2 0x4D3 JUMPI DUP1 PUSH4 0x3659CFE6 EQ PUSH2 0x4EA JUMPI PUSH1 0x0 DUP1 REVERT JUMPDEST DUP1 PUSH4 0x18AAD383 GT PUSH2 0x35F JUMPI DUP1 PUSH4 0x18AAD383 EQ PUSH2 0x403 JUMPI DUP1 PUSH4 0x1A90A219 EQ PUSH2 0x430 JUMPI DUP1 PUSH4 0x23AA2A9D EQ PUSH2 0x447 JUMPI DUP1 PUSH4 0x2BBD59CA EQ PUSH2 0x469 JUMPI PUSH1 0x0 DUP1 REVERT JUMPDEST DUP1 PUSH4 0x139A221 EQ PUSH2 0x391 JUMPI DUP1 PUSH4 0xE15561A EQ PUSH2 0x3C7 JUMPI DUP1 PUSH4 0x14C44E09 EQ PUSH2 0x3EC JUMPI PUSH1 0x0 DUP1 REVERT JUMPDEST CALLDATASIZE PUSH2 0x38C JUMPI STOP JUMPDEST PUSH1 0x0 DUP1 REVERT JUMPDEST CALLVALUE DUP1 ISZERO PUSH2 0x39D JUMPI PUSH1 0x0 DUP1 REVERT JUMPDEST POP PUSH2 0x3B1 PUSH2 0x3AC CALLDATASIZE PUSH1 0x4 PUSH2 0x3F72 JUMP JUMPDEST PUSH2 0xAD9 JUMP JUMPDEST PUSH1 0x40 MLOAD PUSH2 0x3BE SWAP2 SWAP1 PUSH2 0x3FDB JUMP JUMPDEST PUSH1 0x40 MLOAD DUP1 SWAP2 SUB SWAP1 RETURN JUMPDEST CALLVALUE DUP1 ISZERO PUSH2 0x3D3 JUMPI PUSH1 0x0 DUP1 REVERT JUMPDEST POP PUSH2 0x3DE PUSH2 0x142 SLOAD DUP2 JUMP JUMPDEST PUSH1 0x40 MLOAD SWAP1 DUP2 MSTORE PUSH1 0x20 ADD PUSH2 0x3BE JUMP JUMPDEST CALLVALUE DUP1 ISZERO PUSH2 0x3F8 JUMPI PUSH1 0x0 DUP1 REVERT JUMPDEST POP PUSH2 0x3DE PUSH2 0x139 SLOAD DUP2 JUMP JUMPDEST CALLVALUE DUP1 ISZERO PUSH2 0x40F JUMPI PUSH1 0x0 DUP1 REVERT JUMPDEST POP PUSH2 0x423 PUSH2 0x41E CALLDATASIZE PUSH1 0x4 PUSH2 0x3F72 JUMP JUMPDEST PUSH2 0xC20 JUMP JUMPDEST PUSH1 0x40 MLOAD PUSH2 0x3BE SWAP2 SWAP1 PUSH2 0x4043 JUMP JUMPDEST CALLVALUE DUP1 ISZERO PUSH2 0x43C JUMPI PUSH1 0x0 DUP1 REVERT JUMPDEST POP PUSH2 0x3DE PUSH2 0x13A SLOAD DUP2 JUMP JUMPDEST CALLVALUE DUP1 ISZERO PUSH2 0x453 JUMPI PUSH1 0x0 DUP1 REVERT JUMPDEST POP PUSH2 0x467 PUSH2 0x462 CALLDATASIZE PUSH1 0x4 PUSH2 0x3F72 JUMP JUMPDEST PUSH2 0xCBB JUMP JUMPDEST STOP JUMPDEST CALLVALUE DUP1 ISZERO PUSH2 0x475 JUMPI PUSH1 0x0 DUP1 REVERT JUMPDEST POP PUSH2 0x489 PUSH2 0x484 CALLDATASIZE PUSH1 0x4 PUSH2 0x3F72 JUMP JUMPDEST PUSH2 0xCC9 JUMP JUMPDEST PUSH1 0x40 MLOAD PUSH2 0x3BE SWAP7 SWAP6 SWAP5 SWAP4 SWAP3 SWAP2 SWAP1 PUSH2 0x4056 JUMP JUMPDEST CALLVALUE DUP1 ISZERO PUSH2 0x4A7 JUMPI PUSH1 0x0 DUP1 REVERT JUMPDEST POP PUSH2 0x4BB PUSH2 0x4B6 CALLDATASIZE PUSH1 0x4 PUSH2 0x3F72 JUMP JUMPDEST PUSH2 0xD9A JUMP JUMPDEST PUSH1 0x40 MLOAD PUSH1 0x1 PUSH1 0x1 PUSH1 0xA0 SHL SUB SWAP1 SWAP2 AND DUP2 MSTORE PUSH1 0x20 ADD PUSH2 0x3BE JUMP JUMPDEST CALLVALUE DUP1 ISZERO PUSH2 0x4DF JUMPI PUSH1 0x0 DUP1 REVERT JUMPDEST POP PUSH2 0x3DE PUSH2 0x143 SLOAD DUP2 JUMP JUMPDEST CALLVALUE DUP1 ISZERO PUSH2 0x4F6 JUMPI PUSH1 0x0 DUP1 REVERT JUMPDEST POP PUSH2 0x467 PUSH2 0x505 CALLDATASIZE PUSH1 0x4 PUSH2 0x40BC JUMP JUMPDEST PUSH2 0xDC5 JUMP JUMPDEST CALLVALUE DUP1 ISZERO PUSH2 0x516 JUMPI PUSH1 0x0 DUP1 REVERT JUMPDEST POP PUSH2 0x467 PUSH2 0xEAD JUMP JUMPDEST CALLVALUE DUP1 ISZERO PUSH2 0x52B JUMPI PUSH1 0x0 DUP1 REVERT JUMPDEST POP PUSH2 0x3DE PUSH2 0x13E SLOAD DUP2 JUMP JUMPDEST CALLVALUE DUP1 ISZERO PUSH2 0x542 JUMPI PUSH1 0x0 DUP1 REVERT JUMPDEST POP PUSH2 0x467 PUSH2 0x551 CALLDATASIZE PUSH1 0x4 PUSH2 0x4120 JUMP JUMPDEST PUSH2 0xEBF JUMP JUMPDEST CALLVALUE DUP1 ISZERO PUSH2 0x562 JUMPI PUSH1 0x0 DUP1 REVERT JUMPDEST POP PUSH2 0x3DE PUSH1 0x32 DUP2 JUMP JUMPDEST CALLVALUE DUP1 ISZERO PUSH2 0x577 JUMPI PUSH1 0x0 DUP1 REVERT JUMPDEST POP PUSH2 0x135 SLOAD PUSH2 0x136 SLOAD PUSH2 0x137 SLOAD PUSH2 0x138 SLOAD PUSH2 0x142 SLOAD PUSH1 0x40 DUP1 MLOAD SWAP6 DUP7 MSTORE PUSH1 0x20 DUP7 ADD SWAP5 SWAP1 SWAP5 MSTORE SWAP3 DUP5 ADD SWAP2 SWAP1 SWAP2 MSTORE PUSH1 0x60 DUP4 ADD MSTORE PUSH1 0x80 DUP3 ADD MSTORE PUSH1 0xA0 ADD PUSH2 0x3BE JUMP JUMPDEST PUSH2 0x467 PUSH2 0x5C2 CALLDATASIZE PUSH1 0x4 PUSH2 0x41F8 JUMP JUMPDEST PUSH2 0xF3A JUMP JUMPDEST CALLVALUE DUP1 ISZERO PUSH2 0x5D3 JUMPI PUSH1 0x0 DUP1 REVERT JUMPDEST POP PUSH2 0x12E SLOAD PUSH2 0x4BB SWAP1 PUSH1 0x1 PUSH1 0x1 PUSH1 0xA0 SHL SUB AND DUP2 JUMP JUMPDEST CALLVALUE DUP1 ISZERO PUSH2 0x5F4 JUMPI PUSH1 0x0 DUP1 REVERT JUMPDEST POP PUSH2 0x3DE PUSH2 0x100A JUMP JUMPDEST CALLVALUE DUP1 ISZERO PUSH2 0x609 JUMPI PUSH1 0x0 DUP1 REVERT JUMPDEST POP PUSH1 0xFB SLOAD PUSH1 0xFF AND JUMPDEST PUSH1 0x40 MLOAD SWAP1 ISZERO ISZERO DUP2 MSTORE PUSH1 0x20 ADD PUSH2 0x3BE JUMP JUMPDEST CALLVALUE DUP1 ISZERO PUSH2 0x62D JUMPI PUSH1 0x0 DUP1 REVERT JUMPDEST POP PUSH2 0x3DE PUSH2 0x138 SLOAD DUP2 JUMP JUMPDEST CALLVALUE DUP1 ISZERO PUSH2 0x644 JUMPI PUSH1 0x0 DUP1 REVERT JUMPDEST POP PUSH2 0x467 PUSH2 0x653 CALLDATASIZE PUSH1 0x4 PUSH2 0x425A JUMP JUMPDEST PUSH2 0x10BD JUMP JUMPDEST CALLVALUE DUP1 ISZERO PUSH2 0x664 JUMPI PUSH1 0x0 DUP1 REVERT JUMPDEST POP PUSH2 0x3DE PUSH2 0x13B SLOAD DUP2 JUMP JUMPDEST CALLVALUE DUP1 ISZERO PUSH2 0x67B JUMPI PUSH1 0x0 DUP1 REVERT JUMPDEST POP PUSH2 0x3DE PUSH2 0x137 SLOAD DUP2 JUMP JUMPDEST CALLVALUE DUP1 ISZERO PUSH2 0x692 JUMPI PUSH1 0x0 DUP1 REVERT JUMPDEST POP PUSH2 0x467 PUSH2 0x6A1 CALLDATASIZE PUSH1 0x4 PUSH2 0x4120 JUMP JUMPDEST PUSH2 0x14EF JUMP JUMPDEST CALLVALUE DUP1 ISZERO PUSH2 0x6B2 JUMPI PUSH1 0x0 DUP1 REVERT JUMPDEST POP PUSH2 0x467 PUSH2 0x6C1 CALLDATASIZE PUSH1 0x4 PUSH2 0x42B4 JUMP JUMPDEST PUSH2 0x19E9 JUMP JUMPDEST CALLVALUE DUP1 ISZERO PUSH2 0x6D2 JUMPI PUSH1 0x0 DUP1 REVERT JUMPDEST POP PUSH2 0x467 PUSH2 0x1B32 JUMP JUMPDEST CALLVALUE DUP1 ISZERO PUSH2 0x6E7 JUMPI PUSH1 0x0 DUP1 REVERT JUMPDEST POP PUSH2 0x4BB PUSH2 0x6F6 CALLDATASIZE PUSH1 0x4 PUSH2 0x42DE JUMP JUMPDEST DUP1 MLOAD PUSH1 0x20 DUP2 DUP4 ADD DUP2 ADD DUP1 MLOAD PUSH2 0x130 DUP3 MSTORE SWAP3 DUP3 ADD SWAP2 SWAP1 SWAP4 ADD KECCAK256 SWAP2 MSTORE SLOAD PUSH1 0x1 PUSH1 0x1 PUSH1 0xA0 SHL SUB AND DUP2 JUMP JUMPDEST CALLVALUE DUP1 ISZERO PUSH2 0x729 JUMPI PUSH1 0x0 DUP1 REVERT JUMPDEST POP PUSH2 0x611 PUSH2 0x1C1A JUMP JUMPDEST CALLVALUE DUP1 ISZERO PUSH2 0x73E JUMPI PUSH1 0x0 DUP1 REVERT JUMPDEST POP PUSH2 0x467 PUSH2 0x1D4D JUMP JUMPDEST CALLVALUE DUP1 ISZERO PUSH2 0x753 JUMPI PUSH1 0x0 DUP1 REVERT JUMPDEST POP PUSH2 0x3DE PUSH2 0x140 SLOAD DUP2 JUMP JUMPDEST CALLVALUE DUP1 ISZERO PUSH2 0x76A JUMPI PUSH1 0x0 DUP1 REVERT JUMPDEST POP PUSH2 0x3DE PUSH2 0x13F SLOAD DUP2 JUMP JUMPDEST CALLVALUE DUP1 ISZERO PUSH2 0x781 JUMPI PUSH1 0x0 DUP1 REVERT JUMPDEST POP PUSH2 0x467 PUSH2 0x1D5F JUMP JUMPDEST CALLVALUE DUP1 ISZERO PUSH2 0x796 JUMPI PUSH1 0x0 DUP1 REVERT JUMPDEST POP PUSH1 0x97 SLOAD PUSH1 0x1 PUSH1 0x1 PUSH1 0xA0 SHL SUB AND PUSH2 0x4BB JUMP JUMPDEST CALLVALUE DUP1 ISZERO PUSH2 0x7B4 JUMPI PUSH1 0x0 DUP1 REVERT JUMPDEST POP PUSH2 0x423 PUSH2 0x7C3 CALLDATASIZE PUSH1 0x4 PUSH2 0x40BC JUMP JUMPDEST PUSH2 0x1D6F JUMP JUMPDEST CALLVALUE DUP1 ISZERO PUSH2 0x7D4 JUMPI PUSH1 0x0 DUP1 REVERT JUMPDEST POP PUSH2 0x3DE PUSH2 0x141 SLOAD DUP2 JUMP JUMPDEST CALLVALUE DUP1 ISZERO PUSH2 0x7EB JUMPI PUSH1 0x0 DUP1 REVERT JUMPDEST POP PUSH2 0x3DE PUSH2 0x136 SLOAD DUP2 JUMP JUMPDEST CALLVALUE DUP1 ISZERO PUSH2 0x802 JUMPI PUSH1 0x0 DUP1 REVERT JUMPDEST POP PUSH2 0x467 PUSH2 0x811 CALLDATASIZE PUSH1 0x4 PUSH2 0x3F72 JUMP JUMPDEST PUSH2 0x1D89 JUMP JUMPDEST CALLVALUE DUP1 ISZERO PUSH2 0x822 JUMPI PUSH1 0x0 DUP1 REVERT JUMPDEST POP PUSH2 0x467 PUSH2 0x831 CALLDATASIZE PUSH1 0x4 PUSH2 0x3F72 JUMP JUMPDEST PUSH2 0x1DDD JUMP JUMPDEST CALLVALUE DUP1 ISZERO PUSH2 0x842 JUMPI PUSH1 0x0 DUP1 REVERT JUMPDEST POP PUSH2 0x3DE PUSH2 0x851 CALLDATASIZE PUSH1 0x4 PUSH2 0x40BC JUMP JUMPDEST PUSH2 0x134 PUSH1 0x20 MSTORE PUSH1 0x0 SWAP1 DUP2 MSTORE PUSH1 0x40 SWAP1 KECCAK256 SLOAD DUP2 JUMP JUMPDEST CALLVALUE DUP1 ISZERO PUSH2 0x870 JUMPI PUSH1 0x0 DUP1 REVERT JUMPDEST POP PUSH2 0x884 PUSH2 0x87F CALLDATASIZE PUSH1 0x4 PUSH2 0x3F72 JUMP JUMPDEST PUSH2 0x1DEB JUMP JUMPDEST PUSH1 0x40 MLOAD PUSH2 0x3BE SWAP8 SWAP7 SWAP6 SWAP5 SWAP4 SWAP3 SWAP2 SWAP1 PUSH2 0x4327 JUMP JUMPDEST CALLVALUE DUP1 ISZERO PUSH2 0x8A3 JUMPI PUSH1 0x0 DUP1 REVERT JUMPDEST POP PUSH2 0x467 PUSH2 0x8B2 CALLDATASIZE PUSH1 0x4 PUSH2 0x3F72 JUMP JUMPDEST PUSH2 0x1F4D JUMP JUMPDEST CALLVALUE DUP1 ISZERO PUSH2 0x8C3 JUMPI PUSH1 0x0 DUP1 REVERT JUMPDEST POP PUSH2 0x467 PUSH2 0x8D2 CALLDATASIZE PUSH1 0x4 PUSH2 0x40BC JUMP JUMPDEST PUSH2 0x1F5B JUMP JUMPDEST CALLVALUE DUP1 ISZERO PUSH2 0x8E3 JUMPI PUSH1 0x0 DUP1 REVERT JUMPDEST POP PUSH2 0x3DE PUSH2 0x135 SLOAD DUP2 JUMP JUMPDEST CALLVALUE DUP1 ISZERO PUSH2 0x8FA JUMPI PUSH1 0x0 DUP1 REVERT JUMPDEST POP PUSH2 0x3DE PUSH2 0x13D SLOAD DUP2 JUMP JUMPDEST CALLVALUE DUP1 ISZERO PUSH2 0x911 JUMPI PUSH1 0x0 DUP1 REVERT JUMPDEST POP PUSH2 0x467 PUSH2 0x920 CALLDATASIZE PUSH1 0x4 PUSH2 0x4387 JUMP JUMPDEST PUSH2 0x213E JUMP JUMPDEST CALLVALUE DUP1 ISZERO PUSH2 0x931 JUMPI PUSH1 0x0 DUP1 REVERT JUMPDEST POP PUSH2 0x467 PUSH2 0x2395 JUMP JUMPDEST CALLVALUE DUP1 ISZERO PUSH2 0x946 JUMPI PUSH1 0x0 DUP1 REVERT JUMPDEST POP PUSH2 0x467 PUSH2 0x955 CALLDATASIZE PUSH1 0x4 PUSH2 0x43C4 JUMP JUMPDEST PUSH2 0x2633 JUMP JUMPDEST CALLVALUE DUP1 ISZERO PUSH2 0x966 JUMPI PUSH1 0x0 DUP1 REVERT JUMPDEST POP PUSH2 0x467 PUSH2 0x975 CALLDATASIZE PUSH1 0x4 PUSH2 0x4438 JUMP JUMPDEST PUSH2 0x2C47 JUMP JUMPDEST CALLVALUE DUP1 ISZERO PUSH2 0x986 JUMPI PUSH1 0x0 DUP1 REVERT JUMPDEST POP PUSH2 0x467 PUSH2 0x995 CALLDATASIZE PUSH1 0x4 PUSH2 0x4438 JUMP JUMPDEST PUSH2 0x3114 JUMP JUMPDEST CALLVALUE DUP1 ISZERO PUSH2 0x9A6 JUMPI PUSH1 0x0 DUP1 REVERT JUMPDEST POP PUSH2 0x467 PUSH2 0x9B5 CALLDATASIZE PUSH1 0x4 PUSH2 0x3F72 JUMP JUMPDEST PUSH2 0x319F JUMP JUMPDEST CALLVALUE DUP1 ISZERO PUSH2 0x9C6 JUMPI PUSH1 0x0 DUP1 REVERT JUMPDEST POP PUSH2 0x3DE PUSH2 0x144 SLOAD DUP2 JUMP JUMPDEST CALLVALUE DUP1 ISZERO PUSH2 0x9DD JUMPI PUSH1 0x0 DUP1 REVERT JUMPDEST POP PUSH2 0x9F1 PUSH2 0x9EC CALLDATASIZE PUSH1 0x4 PUSH2 0x3F72 JUMP JUMPDEST PUSH2 0x31AD JUMP JUMPDEST PUSH1 0x40 MLOAD PUSH2 0x3BE SWAP2 SWAP1 PUSH2 0x4472 JUMP JUMPDEST CALLVALUE DUP1 ISZERO PUSH2 0xA0A JUMPI PUSH1 0x0 DUP1 REVERT JUMPDEST POP PUSH2 0x3DE PUSH2 0x13C SLOAD DUP2 JUMP JUMPDEST CALLVALUE DUP1 ISZERO PUSH2 0xA21 JUMPI PUSH1 0x0 DUP1 REVERT JUMPDEST POP PUSH2 0x467 PUSH2 0xA30 CALLDATASIZE PUSH1 0x4 PUSH2 0x40BC JUMP JUMPDEST PUSH2 0x336F JUMP JUMPDEST CALLVALUE DUP1 ISZERO PUSH2 0xA41 JUMPI PUSH1 0x0 DUP1 REVERT JUMPDEST POP PUSH2 0xA55 PUSH2 0xA50 CALLDATASIZE PUSH1 0x4 PUSH2 0x40BC JUMP JUMPDEST PUSH2 0x33E5 JUMP JUMPDEST PUSH1 0x40 MLOAD PUSH2 0x3BE SWAP2 SWAP1 PUSH2 0x44F5 JUMP JUMPDEST CALLVALUE DUP1 ISZERO PUSH2 0xA6E JUMPI PUSH1 0x0 DUP1 REVERT JUMPDEST POP PUSH2 0x467 PUSH2 0xA7D CALLDATASIZE PUSH1 0x4 PUSH2 0x40BC JUMP JUMPDEST PUSH2 0x35EB JUMP JUMPDEST CALLVALUE DUP1 ISZERO PUSH2 0xA8E JUMPI PUSH1 0x0 DUP1 REVERT JUMPDEST POP PUSH2 0x12D SLOAD PUSH2 0x4BB SWAP1 PUSH1 0x1 PUSH1 0x1 PUSH1 0xA0 SHL SUB AND DUP2 JUMP JUMPDEST CALLVALUE DUP1 ISZERO PUSH2 0xAAF JUMPI PUSH1 0x0 DUP1 REVERT JUMPDEST POP PUSH2 0xAC3 PUSH2 0xABE CALLDATASIZE PUSH1 0x4 PUSH2 0x40BC JUMP JUMPDEST PUSH2 0x367A JUMP JUMPDEST PUSH1 0x40 MLOAD PUSH2 0x3BE SWAP11 SWAP10 SWAP9 SWAP8 SWAP7 SWAP6 SWAP5 SWAP4 SWAP3 SWAP2 SWAP1 PUSH2 0x45AA JUMP JUMPDEST PUSH2 0xB26 PUSH1 0x40 MLOAD DUP1 PUSH1 0xC0 ADD PUSH1 0x40 MSTORE DUP1 PUSH1 0x0 PUSH1 0x1 PUSH1 0x1 PUSH1 0xA0 SHL SUB AND DUP2 MSTORE PUSH1 0x20 ADD PUSH1 0x0 PUSH1 0x1 PUSH1 0x1 PUSH1 0xA0 SHL SUB AND DUP2 MSTORE PUSH1 0x20 ADD PUSH1 0x60 DUP2 MSTORE PUSH1 0x20 ADD PUSH1 0x0 DUP2 MSTORE PUSH1 0x20 ADD PUSH1 0x0 ISZERO ISZERO DUP2 MSTORE PUSH1 0x20 ADD PUSH1 0x0 DUP2 MSTORE POP SWAP1 JUMP JUMPDEST PUSH1 0x0 DUP3 DUP2 MSTORE PUSH2 0x131 PUSH1 0x20 SWAP1 DUP2 MSTORE PUSH1 0x40 SWAP2 DUP3 SWAP1 KECCAK256 DUP3 MLOAD PUSH1 0xC0 DUP2 ADD DUP5 MSTORE DUP2 SLOAD PUSH1 0x1 PUSH1 0x1 PUSH1 0xA0 SHL SUB SWAP1 DUP2 AND DUP3 MSTORE PUSH1 0x1 DUP4 ADD SLOAD AND SWAP3 DUP2 ADD SWAP3 SWAP1 SWAP3 MSTORE PUSH1 0x2 DUP2 ADD DUP1 SLOAD SWAP3 SWAP4 SWAP2 SWAP3 SWAP2 DUP5 ADD SWAP2 PUSH2 0xB74 SWAP1 PUSH2 0x4616 JUMP JUMPDEST DUP1 PUSH1 0x1F ADD PUSH1 0x20 DUP1 SWAP2 DIV MUL PUSH1 0x20 ADD PUSH1 0x40 MLOAD SWAP1 DUP2 ADD PUSH1 0x40 MSTORE DUP1 SWAP3 SWAP2 SWAP1 DUP2 DUP2 MSTORE PUSH1 0x20 ADD DUP3 DUP1 SLOAD PUSH2 0xBA0 SWAP1 PUSH2 0x4616 JUMP JUMPDEST DUP1 ISZERO PUSH2 0xBED JUMPI DUP1 PUSH1 0x1F LT PUSH2 0xBC2 JUMPI PUSH2 0x100 DUP1 DUP4 SLOAD DIV MUL DUP4 MSTORE SWAP2 PUSH1 0x20 ADD SWAP2 PUSH2 0xBED JUMP JUMPDEST DUP3 ADD SWAP2 SWAP1 PUSH1 0x0 MSTORE PUSH1 0x20 PUSH1 0x0 KECCAK256 SWAP1 JUMPDEST DUP2 SLOAD DUP2 MSTORE SWAP1 PUSH1 0x1 ADD SWAP1 PUSH1 0x20 ADD DUP1 DUP4 GT PUSH2 0xBD0 JUMPI DUP3 SWAP1 SUB PUSH1 0x1F AND DUP3 ADD SWAP2 JUMPDEST POP POP POP SWAP2 DUP4 MSTORE POP POP PUSH1 0x3 DUP3 ADD SLOAD PUSH1 0x20 DUP3 ADD MSTORE PUSH1 0x4 DUP3 ADD SLOAD PUSH1 0xFF AND ISZERO ISZERO PUSH1 0x40 DUP3 ADD MSTORE PUSH1 0x5 SWAP1 SWAP2 ADD SLOAD PUSH1 0x60 SWAP1 SWAP2 ADD MSTORE SWAP3 SWAP2 POP POP JUMP JUMPDEST PUSH2 0x146 PUSH1 0x20 MSTORE PUSH1 0x0 SWAP1 DUP2 MSTORE PUSH1 0x40 SWAP1 KECCAK256 DUP1 SLOAD PUSH2 0xC3A SWAP1 PUSH2 0x4616 JUMP JUMPDEST DUP1 PUSH1 0x1F ADD PUSH1 0x20 DUP1 SWAP2 DIV MUL PUSH1 0x20 ADD PUSH1 0x40 MLOAD SWAP1 DUP2 ADD PUSH1 0x40 MSTORE DUP1 SWAP3 SWAP2 SWAP1 DUP2 DUP2 MSTORE PUSH1 0x20 ADD DUP3 DUP1 SLOAD PUSH2 0xC66 SWAP1 PUSH2 0x4616 JUMP JUMPDEST DUP1 ISZERO PUSH2 0xCB3 JUMPI DUP1 PUSH1 0x1F LT PUSH2 0xC88 JUMPI PUSH2 0x100 DUP1 DUP4 SLOAD DIV MUL DUP4 MSTORE SWAP2 PUSH1 0x20 ADD SWAP2 PUSH2 0xCB3 JUMP JUMPDEST DUP3 ADD SWAP2 SWAP1 PUSH1 0x0 MSTORE PUSH1 0x20 PUSH1 0x0 KECCAK256 SWAP1 JUMPDEST DUP2 SLOAD DUP2 MSTORE SWAP1 PUSH1 0x1 ADD SWAP1 PUSH1 0x20 ADD DUP1 DUP4 GT PUSH2 0xC96 JUMPI DUP3 SWAP1 SUB PUSH1 0x1F AND DUP3 ADD SWAP2 JUMPDEST POP POP POP POP POP DUP2 JUMP JUMPDEST PUSH2 0xCC3 PUSH2 0x37E2 JUMP JUMPDEST PUSH2 0x13A SSTORE JUMP JUMPDEST PUSH2 0x131 PUSH1 0x20 MSTORE PUSH1 0x0 SWAP1 DUP2 MSTORE PUSH1 0x40 SWAP1 KECCAK256 DUP1 SLOAD PUSH1 0x1 DUP3 ADD SLOAD PUSH1 0x2 DUP4 ADD DUP1 SLOAD PUSH1 0x1 PUSH1 0x1 PUSH1 0xA0 SHL SUB SWAP4 DUP5 AND SWAP5 SWAP3 SWAP1 SWAP4 AND SWAP3 PUSH2 0xCFF SWAP1 PUSH2 0x4616 JUMP JUMPDEST DUP1 PUSH1 0x1F ADD PUSH1 0x20 DUP1 SWAP2 DIV MUL PUSH1 0x20 ADD PUSH1 0x40 MLOAD SWAP1 DUP2 ADD PUSH1 0x40 MSTORE DUP1 SWAP3 SWAP2 SWAP1 DUP2 DUP2 MSTORE PUSH1 0x20 ADD DUP3 DUP1 SLOAD PUSH2 0xD2B SWAP1 PUSH2 0x4616 JUMP JUMPDEST DUP1 ISZERO PUSH2 0xD78 JUMPI DUP1 PUSH1 0x1F LT PUSH2 0xD4D JUMPI PUSH2 0x100 DUP1 DUP4 SLOAD DIV MUL DUP4 MSTORE SWAP2 PUSH1 0x20 ADD SWAP2 PUSH2 0xD78 JUMP JUMPDEST DUP3 ADD SWAP2 SWAP1 PUSH1 0x0 MSTORE PUSH1 0x20 PUSH1 0x0 KECCAK256 SWAP1 JUMPDEST DUP2 SLOAD DUP2 MSTORE SWAP1 PUSH1 0x1 ADD SWAP1 PUSH1 0x20 ADD DUP1 DUP4 GT PUSH2 0xD5B JUMPI DUP3 SWAP1 SUB PUSH1 0x1F AND DUP3 ADD SWAP2 JUMPDEST POP POP POP POP PUSH1 0x3 DUP4 ADD SLOAD PUSH1 0x4 DUP5 ADD SLOAD PUSH1 0x5 SWAP1 SWAP5 ADD SLOAD SWAP3 SWAP4 SWAP1 SWAP3 PUSH1 0xFF SWAP1 SWAP2 AND SWAP2 POP DUP7 JUMP JUMPDEST PUSH2 0x133 DUP2 DUP2 SLOAD DUP2 LT PUSH2 0xDAB JUMPI PUSH1 0x0 DUP1 REVERT JUMPDEST PUSH1 0x0 SWAP2 DUP3 MSTORE PUSH1 0x20 SWAP1 SWAP2 KECCAK256 ADD SLOAD PUSH1 0x1 PUSH1 0x1 PUSH1 0xA0 SHL SUB AND SWAP1 POP DUP2 JUMP JUMPDEST PUSH1 0x1 PUSH1 0x1 PUSH1 0xA0 SHL SUB PUSH32 0x0 AND ADDRESS SUB PUSH2 0xE16 JUMPI PUSH1 0x40 MLOAD PUSH3 0x461BCD PUSH1 0xE5 SHL DUP2 MSTORE PUSH1 0x4 ADD PUSH2 0xE0D SWAP1 PUSH2 0x4650 JUMP JUMPDEST PUSH1 0x40 MLOAD DUP1 SWAP2 SUB SWAP1 REVERT JUMPDEST PUSH32 0x0 PUSH1 0x1 PUSH1 0x1 PUSH1 0xA0 SHL SUB AND PUSH2 0xE5F PUSH1 0x0 DUP1 MLOAD PUSH1 0x20 PUSH2 0x4B55 DUP4 CODECOPY DUP2 MLOAD SWAP2 MSTORE SLOAD PUSH1 0x1 PUSH1 0x1 PUSH1 0xA0 SHL SUB AND SWAP1 JUMP JUMPDEST PUSH1 0x1 PUSH1 0x1 PUSH1 0xA0 SHL SUB AND EQ PUSH2 0xE85 JUMPI PUSH1 0x40 MLOAD PUSH3 0x461BCD PUSH1 0xE5 SHL DUP2 MSTORE PUSH1 0x4 ADD PUSH2 0xE0D SWAP1 PUSH2 0x469C JUMP JUMPDEST PUSH2 0xE8E DUP2 PUSH2 0x383C JUMP JUMPDEST PUSH1 0x40 DUP1 MLOAD PUSH1 0x0 DUP1 DUP3 MSTORE PUSH1 0x20 DUP3 ADD SWAP1 SWAP3 MSTORE PUSH2 0xEAA SWAP2 DUP4 SWAP2 SWAP1 PUSH2 0x3844 JUMP JUMPDEST POP JUMP JUMPDEST PUSH2 0xEB5 PUSH2 0x37E2 JUMP JUMPDEST PUSH2 0xEBD PUSH2 0x39AF JUMP JUMPDEST JUMP JUMPDEST PUSH2 0xEC7 PUSH2 0x37E2 JUMP JUMPDEST PUSH1 0x0 DUP4 DUP2 MSTORE PUSH2 0x132 PUSH1 0x20 MSTORE PUSH1 0x40 SWAP1 KECCAK256 PUSH1 0x4 ADD SLOAD PUSH2 0xF1A JUMPI PUSH1 0x40 MLOAD PUSH3 0x461BCD PUSH1 0xE5 SHL DUP2 MSTORE PUSH1 0x20 PUSH1 0x4 DUP3 ADD MSTORE PUSH1 0x11 PUSH1 0x24 DUP3 ADD MSTORE PUSH17 0x14D95C9D9A58D9481B9BDD08199BDD5B99 PUSH1 0x7A SHL PUSH1 0x44 DUP3 ADD MSTORE PUSH1 0x64 ADD PUSH2 0xE0D JUMP JUMPDEST PUSH1 0x0 DUP4 DUP2 MSTORE PUSH2 0x146 PUSH1 0x20 MSTORE PUSH1 0x40 SWAP1 KECCAK256 PUSH2 0xF34 DUP3 DUP5 DUP4 PUSH2 0x4736 JUMP JUMPDEST POP POP POP POP JUMP JUMPDEST PUSH1 0x1 PUSH1 0x1 PUSH1 0xA0 SHL SUB PUSH32 0x0 AND ADDRESS SUB PUSH2 0xF82 JUMPI PUSH1 0x40 MLOAD PUSH3 0x461BCD PUSH1 0xE5 SHL DUP2 MSTORE PUSH1 0x4 ADD PUSH2 0xE0D SWAP1 PUSH2 0x4650 JUMP JUMPDEST PUSH32 0x0 PUSH1 0x1 PUSH1 0x1 PUSH1 0xA0 SHL SUB AND PUSH2 0xFCB PUSH1 0x0 DUP1 MLOAD PUSH1 0x20 PUSH2 0x4B55 DUP4 CODECOPY DUP2 MLOAD SWAP2 MSTORE SLOAD PUSH1 0x1 PUSH1 0x1 PUSH1 0xA0 SHL SUB AND SWAP1 JUMP JUMPDEST PUSH1 0x1 PUSH1 0x1 PUSH1 0xA0 SHL SUB AND EQ PUSH2 0xFF1 JUMPI PUSH1 0x40 MLOAD PUSH3 0x461BCD PUSH1 0xE5 SHL DUP2 MSTORE PUSH1 0x4 ADD PUSH2 0xE0D SWAP1 PUSH2 0x469C JUMP JUMPDEST PUSH2 0xFFA DUP3 PUSH2 0x383C JUMP JUMPDEST PUSH2 0x1006 DUP3 DUP3 PUSH1 0x1 PUSH2 0x3844 JUMP JUMPDEST POP POP JUMP JUMPDEST PUSH1 0x0 ADDRESS PUSH1 0x1 PUSH1 0x1 PUSH1 0xA0 SHL SUB PUSH32 0x0 AND EQ PUSH2 0x10AA JUMPI PUSH1 0x40 MLOAD PUSH3 0x461BCD PUSH1 0xE5 SHL DUP2 MSTORE PUSH1 0x20 PUSH1 0x4 DUP3 ADD MSTORE PUSH1 0x38 PUSH1 0x24 DUP3 ADD MSTORE PUSH32 0x555550535570677261646561626C653A206D757374206E6F742062652063616C PUSH1 0x44 DUP3 ADD MSTORE PUSH32 0x6C6564207468726F7567682064656C656761746563616C6C0000000000000000 PUSH1 0x64 DUP3 ADD MSTORE PUSH1 0x84 ADD PUSH2 0xE0D JUMP JUMPDEST POP PUSH1 0x0 DUP1 MLOAD PUSH1 0x20 PUSH2 0x4B55 DUP4 CODECOPY DUP2 MLOAD SWAP2 MSTORE SWAP1 JUMP JUMPDEST CALLER PUSH1 0x0 SWAP1 DUP2 MSTORE PUSH2 0x12F PUSH1 0x20 MSTORE PUSH1 0x40 SWAP1 KECCAK256 PUSH1 0x9 ADD SLOAD PUSH1 0xFF AND PUSH2 0x1115 JUMPI PUSH1 0x40 MLOAD PUSH3 0x461BCD PUSH1 0xE5 SHL DUP2 MSTORE PUSH1 0x20 PUSH1 0x4 DUP3 ADD MSTORE PUSH1 0x12 PUSH1 0x24 DUP3 ADD MSTORE PUSH18 0x1059D95B9D081B9BDD081D995C9A599A5959 PUSH1 0x72 SHL PUSH1 0x44 DUP3 ADD MSTORE PUSH1 0x64 ADD PUSH2 0xE0D JUMP JUMPDEST PUSH2 0x111D PUSH2 0x3A01 JUMP JUMPDEST PUSH2 0x1125 PUSH2 0x3A5A JUMP JUMPDEST PUSH1 0x1 PUSH1 0x1 PUSH1 0xA0 SHL SUB DUP5 AND PUSH2 0x117B JUMPI PUSH1 0x40 MLOAD PUSH3 0x461BCD PUSH1 0xE5 SHL DUP2 MSTORE PUSH1 0x20 PUSH1 0x4 DUP3 ADD MSTORE PUSH1 0x18 PUSH1 0x24 DUP3 ADD MSTORE PUSH32 0x496E76616C696420636F6E73756D657220616464726573730000000000000000 PUSH1 0x44 DUP3 ADD MSTORE PUSH1 0x64 ADD PUSH2 0xE0D JUMP JUMPDEST CALLER PUSH1 0x1 PUSH1 0x1 PUSH1 0xA0 SHL SUB DUP6 AND SUB PUSH2 0x11D3 JUMPI PUSH1 0x40 MLOAD PUSH3 0x461BCD PUSH1 0xE5 SHL DUP2 MSTORE PUSH1 0x20 PUSH1 0x4 DUP3 ADD MSTORE PUSH1 0x1E PUSH1 0x24 DUP3 ADD MSTORE PUSH32 0x43616E6E6F7420637265617465207365727669636520666F722073656C660000 PUSH1 0x44 DUP3 ADD MSTORE PUSH1 0x64 ADD PUSH2 0xE0D JUMP JUMPDEST PUSH1 0x1 PUSH1 0x1 PUSH1 0xA0 SHL SUB DUP5 AND PUSH1 0x0 SWAP1 DUP2 MSTORE PUSH2 0x12F PUSH1 0x20 MSTORE PUSH1 0x40 SWAP1 KECCAK256 PUSH1 0x3 ADD SLOAD PUSH1 0xFF AND PUSH2 0x1235 JUMPI PUSH1 0x40 MLOAD PUSH3 0x461BCD PUSH1 0xE5 SHL DUP2 MSTORE PUSH1 0x20 PUSH1 0x4 DUP3 ADD MSTORE PUSH1 0x13 PUSH1 0x24 DUP3 ADD MSTORE PUSH19 0x436F6E73756D6572206E6F7420616374697665 PUSH1 0x68 SHL PUSH1 0x44 DUP3 ADD MSTORE PUSH1 0x64 ADD PUSH2 0xE0D JUMP JUMPDEST PUSH1 0x1 PUSH1 0x1 PUSH1 0xA0 SHL SUB DUP5 AND PUSH1 0x0 SWAP1 DUP2 MSTORE PUSH2 0x12F PUSH1 0x20 MSTORE PUSH1 0x40 SWAP1 KECCAK256 PUSH1 0x9 ADD SLOAD PUSH1 0xFF AND PUSH2 0x1299 JUMPI PUSH1 0x40 MLOAD PUSH3 0x461BCD PUSH1 0xE5 SHL DUP2 MSTORE PUSH1 0x20 PUSH1 0x4 DUP3 ADD MSTORE PUSH1 0x15 PUSH1 0x24 DUP3 ADD MSTORE PUSH21 0x10DBDB9CDD5B595C881B9BDD081D995C9A599A5959 PUSH1 0x5A SHL PUSH1 0x44 DUP3 ADD MSTORE PUSH1 0x64 ADD PUSH2 0xE0D JUMP JUMPDEST PUSH1 0x0 DUP2 GT PUSH2 0x12D9 JUMPI PUSH1 0x40 MLOAD PUSH3 0x461BCD PUSH1 0xE5 SHL DUP2 MSTORE PUSH1 0x20 PUSH1 0x4 DUP3 ADD MSTORE PUSH1 0xD PUSH1 0x24 DUP3 ADD MSTORE PUSH13 0x496E76616C6964207072696365 PUSH1 0x98 SHL PUSH1 0x44 DUP3 ADD MSTORE PUSH1 0x64 ADD PUSH2 0xE0D JUMP JUMPDEST DUP2 PUSH2 0x131E JUMPI PUSH1 0x40 MLOAD PUSH3 0x461BCD PUSH1 0xE5 SHL DUP2 MSTORE PUSH1 0x20 PUSH1 0x4 DUP3 ADD MSTORE PUSH1 0x15 PUSH1 0x24 DUP3 ADD MSTORE PUSH21 0x14D95C9D9A58D9481D1E5C19481C995C5D5A5C9959 PUSH1 0x5A SHL PUSH1 0x44 DUP3 ADD MSTORE PUSH1 0x64 ADD PUSH2 0xE0D JUMP JUMPDEST PUSH10 0xD3C21BCECCEDA1000000 DUP2 GT ISZERO PUSH2 0x1369 JUMPI PUSH1 0x40 MLOAD PUSH3 0x461BCD PUSH1 0xE5 SHL DUP2 MSTORE PUSH1 0x20 PUSH1 0x4 DUP3 ADD MSTORE PUSH1 0xE PUSH1 0x24 DUP3 ADD MSTORE PUSH14 0xA0E4D2C6CA40E8DEDE40D0D2CED PUSH1 0x93 SHL PUSH1 0x44 DUP3 ADD MSTORE PUSH1 0x64 ADD PUSH2 0xE0D JUMP JUMPDEST PUSH1 0x0 PUSH2 0x137 SLOAD SWAP1 POP PUSH1 0x40 MLOAD DUP1 PUSH1 0xE0 ADD PUSH1 0x40 MSTORE DUP1 CALLER PUSH1 0x1 PUSH1 0x1 PUSH1 0xA0 SHL SUB AND DUP2 MSTORE PUSH1 0x20 ADD DUP7 PUSH1 0x1 PUSH1 0x1 PUSH1 0xA0 SHL SUB AND DUP2 MSTORE PUSH1 0x20 ADD DUP6 DUP6 DUP1 DUP1 PUSH1 0x1F ADD PUSH1 0x20 DUP1 SWAP2 DIV MUL PUSH1 0x20 ADD PUSH1 0x40 MLOAD SWAP1 DUP2 ADD PUSH1 0x40 MSTORE DUP1 SWAP4 SWAP3 SWAP2 SWAP1 DUP2 DUP2 MSTORE PUSH1 0x20 ADD DUP4 DUP4 DUP1 DUP3 DUP5 CALLDATACOPY PUSH1 0x0 SWAP3 ADD DUP3 SWAP1 MSTORE POP SWAP4 DUP6 MSTORE POP POP POP PUSH1 0x20 DUP1 DUP4 ADD DUP7 SWAP1 MSTORE TIMESTAMP PUSH1 0x40 DUP1 DUP6 ADD SWAP2 SWAP1 SWAP2 MSTORE PUSH1 0x60 DUP5 ADD DUP4 SWAP1 MSTORE DUP1 MLOAD DUP1 DUP4 ADD DUP3 MSTORE DUP4 DUP2 MSTORE PUSH1 0x80 SWAP1 SWAP5 ADD SWAP4 SWAP1 SWAP4 MSTORE DUP5 DUP3 MSTORE PUSH2 0x132 DUP2 MSTORE SWAP1 DUP3 SWAP1 KECCAK256 DUP4 MLOAD DUP2 SLOAD PUSH1 0x1 PUSH1 0x1 PUSH1 0xA0 SHL SUB NOT SWAP1 DUP2 AND PUSH1 0x1 PUSH1 0x1 PUSH1 0xA0 SHL SUB SWAP3 DUP4 AND OR DUP4 SSTORE SWAP3 DUP6 ADD MLOAD PUSH1 0x1 DUP4 ADD DUP1 SLOAD SWAP1 SWAP5 AND SWAP2 AND OR SWAP1 SWAP2 SSTORE SWAP1 DUP3 ADD MLOAD PUSH1 0x2 DUP3 ADD SWAP1 PUSH2 0x144E SWAP1 DUP3 PUSH2 0x47F6 JUMP JUMPDEST POP PUSH1 0x60 DUP3 ADD MLOAD PUSH1 0x3 DUP3 ADD SSTORE PUSH1 0x80 DUP3 ADD MLOAD PUSH1 0x4 DUP3 ADD SSTORE PUSH1 0xA0 DUP3 ADD MLOAD PUSH1 0x5 DUP3 ADD DUP1 SLOAD PUSH1 0xFF NOT AND SWAP2 ISZERO ISZERO SWAP2 SWAP1 SWAP2 OR SWAP1 SSTORE PUSH1 0xC0 DUP3 ADD MLOAD PUSH1 0x6 DUP3 ADD SWAP1 PUSH2 0x148F SWAP1 DUP3 PUSH2 0x47F6 JUMP JUMPDEST POP POP PUSH2 0x137 DUP1 SLOAD SWAP2 POP PUSH1 0x0 PUSH2 0x14A3 DUP4 PUSH2 0x48CC JUMP JUMPDEST SWAP2 SWAP1 POP SSTORE POP DUP1 PUSH32 0x6DEC7C18C6D88222831A8E9C277DDD5CE160C41BC15314E7D93F6B45353D90F CALLER DUP8 DUP6 PUSH1 0x40 MLOAD PUSH2 0x14DC SWAP4 SWAP3 SWAP2 SWAP1 PUSH2 0x48E5 JUMP JUMPDEST PUSH1 0x40 MLOAD DUP1 SWAP2 SUB SWAP1 LOG2 POP PUSH2 0xF34 PUSH1 0x1 PUSH1 0xC9 SSTORE JUMP JUMPDEST CALLER PUSH1 0x0 SWAP1 DUP2 MSTORE PUSH2 0x12F PUSH1 0x20 MSTORE PUSH1 0x40 SWAP1 KECCAK256 PUSH1 0x9 ADD SLOAD PUSH1 0xFF AND PUSH2 0x1547 JUMPI PUSH1 0x40 MLOAD PUSH3 0x461BCD PUSH1 0xE5 SHL DUP2 MSTORE PUSH1 0x20 PUSH1 0x4 DUP3 ADD MSTORE PUSH1 0x12 PUSH1 0x24 DUP3 ADD MSTORE PUSH18 0x1059D95B9D081B9BDD081D995C9A599A5959 PUSH1 0x72 SHL PUSH1 0x44 DUP3 ADD MSTORE PUSH1 0x64 ADD PUSH2 0xE0D JUMP JUMPDEST PUSH2 0x154F PUSH2 0x3A01 JUMP JUMPDEST PUSH2 0x1557 PUSH2 0x3A5A JUMP JUMPDEST PUSH1 0x0 DUP4 DUP2 MSTORE PUSH2 0x132 PUSH1 0x20 MSTORE PUSH1 0x40 SWAP1 KECCAK256 DUP1 SLOAD PUSH1 0x1 PUSH1 0x1 PUSH1 0xA0 SHL SUB AND CALLER EQ PUSH2 0x15B6 JUMPI PUSH1 0x40 MLOAD PUSH3 0x461BCD PUSH1 0xE5 SHL DUP2 MSTORE PUSH1 0x20 PUSH1 0x4 DUP3 ADD MSTORE PUSH1 0x14 PUSH1 0x24 DUP3 ADD MSTORE PUSH20 0x2737BA1039B2B93B34B1B290383937BB34B232B9 PUSH1 0x61 SHL PUSH1 0x44 DUP3 ADD MSTORE PUSH1 0x64 ADD PUSH2 0xE0D JUMP JUMPDEST PUSH1 0x5 DUP2 ADD SLOAD PUSH1 0xFF AND ISZERO PUSH2 0x160B JUMPI PUSH1 0x40 MLOAD PUSH3 0x461BCD PUSH1 0xE5 SHL DUP2 MSTORE PUSH1 0x20 PUSH1 0x4 DUP3 ADD MSTORE PUSH1 0x19 PUSH1 0x24 DUP3 ADD MSTORE PUSH32 0x5365727669636520616C726561647920636F6D706C6574656400000000000000 PUSH1 0x44 DUP3 ADD MSTORE PUSH1 0x64 ADD PUSH2 0xE0D JUMP JUMPDEST DUP2 PUSH2 0x164D JUMPI PUSH1 0x40 MLOAD PUSH3 0x461BCD PUSH1 0xE5 SHL DUP2 MSTORE PUSH1 0x20 PUSH1 0x4 DUP3 ADD MSTORE PUSH1 0x12 PUSH1 0x24 DUP3 ADD MSTORE PUSH18 0x125B9D985B1A59081C995CDD5B1D0810D251 PUSH1 0x72 SHL PUSH1 0x44 DUP3 ADD MSTORE PUSH1 0x64 ADD PUSH2 0xE0D JUMP JUMPDEST PUSH1 0x0 DUP2 PUSH1 0x4 ADD SLOAD GT PUSH2 0x1695 JUMPI PUSH1 0x40 MLOAD PUSH3 0x461BCD PUSH1 0xE5 SHL DUP2 MSTORE PUSH1 0x20 PUSH1 0x4 DUP3 ADD MSTORE PUSH1 0x11 PUSH1 0x24 DUP3 ADD MSTORE PUSH17 0x14D95C9D9A58D9481B9BDD08199BDD5B99 PUSH1 0x7A SHL PUSH1 0x44 DUP3 ADD MSTORE PUSH1 0x64 ADD PUSH2 0xE0D JUMP JUMPDEST PUSH1 0x4 DUP2 ADD SLOAD PUSH2 0x16A7 SWAP1 PUSH3 0x278D00 PUSH2 0x4909 JUMP JUMPDEST TIMESTAMP GT ISZERO PUSH2 0x16E8 JUMPI PUSH1 0x40 MLOAD PUSH3 0x461BCD PUSH1 0xE5 SHL DUP2 MSTORE PUSH1 0x20 PUSH1 0x4 DUP3 ADD MSTORE PUSH1 0xF PUSH1 0x24 DUP3 ADD MSTORE PUSH15 0x14D95C9D9A58D948195E1C1A5C9959 PUSH1 0x8A SHL PUSH1 0x44 DUP3 ADD MSTORE PUSH1 0x64 ADD PUSH2 0xE0D JUMP JUMPDEST PUSH1 0x5 DUP2 ADD DUP1 SLOAD PUSH1 0xFF NOT AND PUSH1 0x1 OR SWAP1 SSTORE PUSH1 0x6 DUP2 ADD PUSH2 0x1706 DUP4 DUP6 DUP4 PUSH2 0x4736 JUMP JUMPDEST POP PUSH1 0x0 PUSH2 0x2710 PUSH2 0x13B SLOAD PUSH2 0x2710 PUSH2 0x171D SWAP2 SWAP1 PUSH2 0x491C JUMP JUMPDEST DUP4 PUSH1 0x3 ADD SLOAD PUSH2 0x172C SWAP2 SWAP1 PUSH2 0x492F JUMP JUMPDEST PUSH2 0x1736 SWAP2 SWAP1 PUSH2 0x4946 JUMP JUMPDEST SWAP1 POP PUSH1 0x0 DUP2 DUP4 PUSH1 0x3 ADD SLOAD PUSH2 0x174A SWAP2 SWAP1 PUSH2 0x491C JUMP JUMPDEST PUSH2 0x12D SLOAD PUSH1 0x40 MLOAD PUSH4 0x70A08231 PUSH1 0xE0 SHL DUP2 MSTORE ADDRESS PUSH1 0x4 DUP3 ADD MSTORE SWAP2 SWAP3 POP DUP4 SWAP2 PUSH1 0x1 PUSH1 0x1 PUSH1 0xA0 SHL SUB SWAP1 SWAP2 AND SWAP1 PUSH4 0x70A08231 SWAP1 PUSH1 0x24 ADD PUSH1 0x20 PUSH1 0x40 MLOAD DUP1 DUP4 SUB DUP2 DUP7 GAS STATICCALL ISZERO DUP1 ISZERO PUSH2 0x1798 JUMPI RETURNDATASIZE PUSH1 0x0 DUP1 RETURNDATACOPY RETURNDATASIZE PUSH1 0x0 REVERT JUMPDEST POP POP POP POP PUSH1 0x40 MLOAD RETURNDATASIZE PUSH1 0x1F NOT PUSH1 0x1F DUP3 ADD AND DUP3 ADD DUP1 PUSH1 0x40 MSTORE POP DUP2 ADD SWAP1 PUSH2 0x17BC SWAP2 SWAP1 PUSH2 0x4968 JUMP JUMPDEST LT PUSH2 0x1858 JUMPI PUSH2 0x12D SLOAD PUSH1 0x40 MLOAD PUSH4 0xA9059CBB PUSH1 0xE0 SHL DUP2 MSTORE CALLER PUSH1 0x4 DUP3 ADD MSTORE PUSH1 0x24 DUP2 ADD DUP5 SWAP1 MSTORE PUSH1 0x1 PUSH1 0x1 PUSH1 0xA0 SHL SUB SWAP1 SWAP2 AND SWAP1 PUSH4 0xA9059CBB SWAP1 PUSH1 0x44 ADD PUSH1 0x20 PUSH1 0x40 MLOAD DUP1 DUP4 SUB DUP2 PUSH1 0x0 DUP8 GAS CALL ISZERO DUP1 ISZERO PUSH2 0x1813 JUMPI RETURNDATASIZE PUSH1 0x0 DUP1 RETURNDATACOPY RETURNDATASIZE PUSH1 0x0 REVERT JUMPDEST POP POP POP POP PUSH1 0x40 MLOAD RETURNDATASIZE PUSH1 0x1F NOT PUSH1 0x1F DUP3 ADD AND DUP3 ADD DUP1 PUSH1 0x40 MSTORE POP DUP2 ADD SWAP1 PUSH2 0x1837 SWAP2 SWAP1 PUSH2 0x4981 JUMP JUMPDEST PUSH2 0x1853 JUMPI PUSH1 0x40 MLOAD PUSH3 0x461BCD PUSH1 0xE5 SHL DUP2 MSTORE PUSH1 0x4 ADD PUSH2 0xE0D SWAP1 PUSH2 0x49AA JUMP JUMPDEST PUSH2 0x18B2 JUMP JUMPDEST PUSH1 0x40 MLOAD PUSH3 0x461BCD PUSH1 0xE5 SHL DUP2 MSTORE PUSH1 0x20 PUSH1 0x4 DUP3 ADD MSTORE PUSH1 0x29 PUSH1 0x24 DUP3 ADD MSTORE PUSH32 0x496E73756666696369656E7420636F6E74726163742062616C616E636520666F PUSH1 0x44 DUP3 ADD MSTORE PUSH9 0x722072657761726473 PUSH1 0xB8 SHL PUSH1 0x64 DUP3 ADD MSTORE PUSH1 0x84 ADD PUSH2 0xE0D JUMP JUMPDEST CALLER PUSH1 0x0 SWAP1 DUP2 MSTORE PUSH2 0x12F PUSH1 0x20 MSTORE PUSH1 0x40 DUP2 KECCAK256 PUSH1 0x2 DUP2 ADD SLOAD PUSH1 0x7 SWAP1 SWAP2 ADD DUP1 SLOAD SWAP2 SWAP3 DUP6 SWAP3 PUSH2 0x18DD SWAP1 DUP5 SWAP1 PUSH2 0x4909 JUMP JUMPDEST SWAP1 SWAP2 SSTORE POP POP CALLER PUSH1 0x0 SWAP1 DUP2 MSTORE PUSH2 0x12F PUSH1 0x20 MSTORE PUSH1 0x40 DUP2 KECCAK256 PUSH1 0x8 ADD DUP1 SLOAD SWAP2 PUSH2 0x1901 DUP4 PUSH2 0x48CC JUMP JUMPDEST SWAP1 SWAP2 SSTORE POP POP CALLER PUSH1 0x0 SWAP1 DUP2 MSTORE PUSH2 0x12F PUSH1 0x20 MSTORE PUSH1 0x40 DUP2 KECCAK256 PUSH1 0x2 ADD DUP1 SLOAD PUSH1 0xA SWAP3 SWAP1 PUSH2 0x192A SWAP1 DUP5 SWAP1 PUSH2 0x4909 JUMP JUMPDEST SWAP1 SWAP2 SSTORE POP POP PUSH1 0x3 DUP5 ADD SLOAD PUSH2 0x138 DUP1 SLOAD PUSH1 0x0 SWAP1 PUSH2 0x1947 SWAP1 DUP5 SWAP1 PUSH2 0x4909 JUMP JUMPDEST SWAP3 POP POP DUP2 SWAP1 SSTORE POP DUP7 PUSH32 0x58E249B9328BC8509283E8D24898AB201B6FD08CD489DE5995FFF808670B897C DUP8 DUP8 DUP7 PUSH1 0x40 MLOAD PUSH2 0x1982 SWAP4 SWAP3 SWAP2 SWAP1 PUSH2 0x49D9 JUMP JUMPDEST PUSH1 0x40 MLOAD DUP1 SWAP2 SUB SWAP1 LOG2 CALLER PUSH1 0x0 DUP2 DUP2 MSTORE PUSH2 0x12F PUSH1 0x20 SWAP1 DUP2 MSTORE PUSH1 0x40 SWAP2 DUP3 SWAP1 KECCAK256 PUSH1 0x2 ADD SLOAD DUP3 MLOAD DUP6 DUP2 MSTORE SWAP2 DUP3 ADD MSTORE PUSH32 0x5B88A2E3FC1A53234357AB78C104DF11C33CCFA79886793654565AD70B8AFB6E SWAP2 ADD PUSH1 0x40 MLOAD DUP1 SWAP2 SUB SWAP1 LOG2 POP POP POP POP PUSH2 0x19E4 PUSH1 0x1 PUSH1 0xC9 SSTORE JUMP JUMPDEST POP POP POP JUMP JUMPDEST PUSH2 0x19F1 PUSH2 0x37E2 JUMP JUMPDEST PUSH1 0x1 PUSH1 0x1 PUSH1 0xA0 SHL SUB DUP3 AND PUSH1 0x0 SWAP1 DUP2 MSTORE PUSH2 0x12F PUSH1 0x20 MSTORE PUSH1 0x40 SWAP1 KECCAK256 PUSH1 0x2 ADD SLOAD PUSH2 0x2710 DUP2 GT ISZERO PUSH2 0x1A60 JUMPI PUSH1 0x40 MLOAD PUSH3 0x461BCD PUSH1 0xE5 SHL DUP2 MSTORE PUSH1 0x20 PUSH1 0x4 DUP3 ADD MSTORE PUSH1 0x18 PUSH1 0x24 DUP3 ADD MSTORE PUSH32 0x496E76616C69642072657075746174696F6E2073636F72650000000000000000 PUSH1 0x44 DUP3 ADD MSTORE PUSH1 0x64 ADD PUSH2 0xE0D JUMP JUMPDEST PUSH1 0x1 PUSH1 0x1 PUSH1 0xA0 SHL SUB DUP4 AND PUSH1 0x0 SWAP1 DUP2 MSTORE PUSH2 0x12F PUSH1 0x20 MSTORE PUSH1 0x40 DUP2 KECCAK256 PUSH1 0x2 ADD SLOAD SWAP1 DUP1 DUP5 SGT ISZERO PUSH2 0x1AA6 JUMPI PUSH2 0x1A90 DUP5 DUP4 PUSH2 0x4909 JUMP JUMPDEST SWAP1 POP PUSH2 0x2710 DUP2 GT ISZERO PUSH2 0x1AA1 JUMPI POP PUSH2 0x2710 JUMPDEST PUSH2 0x1AD2 JUMP JUMPDEST PUSH1 0x0 PUSH2 0x1AB1 DUP6 PUSH2 0x4A12 JUMP JUMPDEST SWAP1 POP DUP3 DUP2 LT PUSH2 0x1AC3 JUMPI PUSH1 0x0 SWAP2 POP PUSH2 0x1AD0 JUMP JUMPDEST PUSH2 0x1ACD DUP2 DUP5 PUSH2 0x491C JUMP JUMPDEST SWAP2 POP JUMPDEST POP JUMPDEST PUSH1 0x1 PUSH1 0x1 PUSH1 0xA0 SHL SUB DUP6 AND PUSH1 0x0 DUP2 DUP2 MSTORE PUSH2 0x12F PUSH1 0x20 SWAP1 DUP2 MSTORE PUSH1 0x40 SWAP2 DUP3 SWAP1 KECCAK256 PUSH1 0x2 ADD DUP5 SWAP1 SSTORE DUP2 MLOAD DUP6 DUP2 MSTORE SWAP1 DUP2 ADD DUP5 SWAP1 MSTORE PUSH32 0x5B88A2E3FC1A53234357AB78C104DF11C33CCFA79886793654565AD70B8AFB6E SWAP2 ADD PUSH1 0x40 MLOAD DUP1 SWAP2 SUB SWAP1 LOG2 POP POP POP POP POP JUMP JUMPDEST PUSH2 0x1B3A PUSH2 0x37E2 JUMP JUMPDEST PUSH1 0x0 PUSH2 0x141 SLOAD TIMESTAMP PUSH2 0x1B4B SWAP2 SWAP1 PUSH2 0x491C JUMP JUMPDEST SWAP1 POP PUSH1 0x0 PUSH2 0x1B59 PUSH2 0x13F SLOAD SWAP1 JUMP JUMPDEST SWAP1 POP PUSH1 0x0 DUP2 GT DUP1 ISZERO PUSH2 0x1B6B JUMPI POP PUSH1 0x0 DUP3 GT JUMPDEST ISZERO PUSH2 0x1006 JUMPI PUSH1 0x0 PUSH5 0x496CEBB800 DUP4 PUSH2 0x140 SLOAD DUP5 PUSH2 0x1B88 SWAP2 SWAP1 PUSH2 0x492F JUMP JUMPDEST PUSH2 0x1B92 SWAP2 SWAP1 PUSH2 0x492F JUMP JUMPDEST PUSH2 0x1B9C SWAP2 SWAP1 PUSH2 0x4946 JUMP JUMPDEST SWAP1 POP PUSH1 0x0 DUP2 GT DUP1 ISZERO PUSH2 0x1BAE JUMPI POP DUP1 SELFBALANCE LT ISZERO JUMPDEST ISZERO PUSH2 0x19E4 JUMPI PUSH2 0x1BBC DUP2 PUSH2 0x3AA7 JUMP JUMPDEST DUP1 PUSH2 0x142 PUSH1 0x0 DUP3 DUP3 SLOAD PUSH2 0x1BCF SWAP2 SWAP1 PUSH2 0x4909 JUMP JUMPDEST SWAP1 SWAP2 SSTORE POP POP TIMESTAMP PUSH2 0x141 DUP2 SWAP1 SSTORE PUSH1 0x40 DUP1 MLOAD DUP4 DUP2 MSTORE PUSH1 0x20 DUP2 ADD SWAP3 SWAP1 SWAP3 MSTORE PUSH32 0x29E98BA00D07F171959C4DDCD2F3020DEBC7C52CF537A034D7E664340D098C6C SWAP2 ADD PUSH1 0x40 MLOAD DUP1 SWAP2 SUB SWAP1 LOG1 POP POP POP JUMP JUMPDEST PUSH1 0x0 PUSH2 0x1C24 PUSH2 0x37E2 JUMP JUMPDEST PUSH2 0x144 SLOAD ISZERO DUP1 PUSH2 0x1C35 JUMPI POP PUSH2 0x13F SLOAD ISZERO JUMPDEST ISZERO PUSH2 0x1C40 JUMPI POP PUSH1 0x1 SWAP1 JUMP JUMPDEST PUSH2 0x143 SLOAD PUSH1 0x0 PUSH2 0x1C51 PUSH1 0x32 DUP4 PUSH2 0x4909 JUMP JUMPDEST PUSH2 0x133 SLOAD SWAP1 SWAP2 POP DUP2 GT ISZERO PUSH2 0x1C65 JUMPI POP PUSH2 0x133 SLOAD JUMPDEST PUSH1 0x0 DUP3 JUMPDEST DUP3 DUP2 LT ISZERO PUSH2 0x1D1C JUMPI PUSH1 0x0 PUSH2 0x133 DUP3 DUP2 SLOAD DUP2 LT PUSH2 0x1C87 JUMPI PUSH2 0x1C87 PUSH2 0x4A2E JUMP JUMPDEST PUSH1 0x0 SWAP2 DUP3 MSTORE PUSH1 0x20 DUP1 DUP4 KECCAK256 SWAP1 SWAP2 ADD SLOAD PUSH1 0x1 PUSH1 0x1 PUSH1 0xA0 SHL SUB AND DUP1 DUP4 MSTORE PUSH2 0x12F SWAP1 SWAP2 MSTORE PUSH1 0x40 SWAP1 SWAP2 KECCAK256 PUSH1 0x3 DUP2 ADD SLOAD SWAP2 SWAP3 POP SWAP1 PUSH1 0xFF AND DUP1 ISZERO PUSH2 0x1CC8 JUMPI POP PUSH1 0x0 DUP2 PUSH1 0x6 ADD SLOAD GT JUMPDEST ISZERO PUSH2 0x1D07 JUMPI PUSH1 0x0 PUSH2 0x13F SLOAD DUP3 PUSH1 0x6 ADD SLOAD PUSH2 0x144 SLOAD PUSH2 0x1CE6 SWAP2 SWAP1 PUSH2 0x492F JUMP JUMPDEST PUSH2 0x1CF0 SWAP2 SWAP1 PUSH2 0x4946 JUMP JUMPDEST SWAP1 POP DUP1 ISZERO PUSH2 0x1D05 JUMPI PUSH2 0x1D02 DUP2 DUP7 PUSH2 0x4909 JUMP JUMPDEST SWAP5 POP JUMPDEST POP JUMPDEST POP POP DUP1 DUP1 PUSH2 0x1D14 SWAP1 PUSH2 0x48CC JUMP JUMPDEST SWAP2 POP POP PUSH2 0x1C69 JUMP JUMPDEST POP PUSH2 0x143 DUP3 SWAP1 SSTORE PUSH2 0x133 SLOAD DUP3 LT PUSH2 0x1D43 JUMPI POP POP PUSH1 0x0 PUSH2 0x144 DUP2 SWAP1 SSTORE PUSH2 0x143 SSTORE POP PUSH1 0x1 SWAP1 POP SWAP1 JUMP JUMPDEST PUSH1 0x0 SWAP4 POP POP POP POP SWAP1 JUMP JUMPDEST PUSH2 0x1D55 PUSH2 0x37E2 JUMP JUMPDEST PUSH2 0xEBD PUSH1 0x0 PUSH2 0x3B08 JUMP JUMPDEST PUSH2 0x1D67 PUSH2 0x37E2 JUMP JUMPDEST PUSH2 0xEBD PUSH2 0x3B5A JUMP JUMPDEST PUSH2 0x145 PUSH1 0x20 MSTORE PUSH1 0x0 SWAP1 DUP2 MSTORE PUSH1 0x40 SWAP1 KECCAK256 DUP1 SLOAD PUSH2 0xC3A SWAP1 PUSH2 0x4616 JUMP JUMPDEST PUSH2 0x1D91 PUSH2 0x37E2 JUMP JUMPDEST PUSH2 0x3E8 DUP2 GT ISZERO PUSH2 0x1DD7 JUMPI PUSH1 0x40 MLOAD PUSH3 0x461BCD PUSH1 0xE5 SHL DUP2 MSTORE PUSH1 0x20 PUSH1 0x4 DUP3 ADD MSTORE PUSH1 0x11 PUSH1 0x24 DUP3 ADD MSTORE PUSH17 0x8CCACA40E4C2E8CA40E8DEDE40D0D2CED PUSH1 0x7B SHL PUSH1 0x44 DUP3 ADD MSTORE PUSH1 0x64 ADD PUSH2 0xE0D JUMP JUMPDEST PUSH2 0x13B SSTORE JUMP JUMPDEST PUSH2 0x1DE5 PUSH2 0x37E2 JUMP JUMPDEST PUSH2 0x140 SSTORE JUMP JUMPDEST PUSH2 0x132 PUSH1 0x20 MSTORE PUSH1 0x0 SWAP1 DUP2 MSTORE PUSH1 0x40 SWAP1 KECCAK256 DUP1 SLOAD PUSH1 0x1 DUP3 ADD SLOAD PUSH1 0x2 DUP4 ADD DUP1 SLOAD PUSH1 0x1 PUSH1 0x1 PUSH1 0xA0 SHL SUB SWAP4 DUP5 AND SWAP5 SWAP3 SWAP1 SWAP4 AND SWAP3 PUSH2 0x1E21 SWAP1 PUSH2 0x4616 JUMP JUMPDEST DUP1 PUSH1 0x1F ADD PUSH1 0x20 DUP1 SWAP2 DIV MUL PUSH1 0x20 ADD PUSH1 0x40 MLOAD SWAP1 DUP2 ADD PUSH1 0x40 MSTORE DUP1 SWAP3 SWAP2 SWAP1 DUP2 DUP2 MSTORE PUSH1 0x20 ADD DUP3 DUP1 SLOAD PUSH2 0x1E4D SWAP1 PUSH2 0x4616 JUMP JUMPDEST DUP1 ISZERO PUSH2 0x1E9A JUMPI DUP1 PUSH1 0x1F LT PUSH2 0x1E6F JUMPI PUSH2 0x100 DUP1 DUP4 SLOAD DIV MUL DUP4 MSTORE SWAP2 PUSH1 0x20 ADD SWAP2 PUSH2 0x1E9A JUMP JUMPDEST DUP3 ADD SWAP2 SWAP1 PUSH1 0x0 MSTORE PUSH1 0x20 PUSH1 0x0 KECCAK256 SWAP1 JUMPDEST DUP2 SLOAD DUP2 MSTORE SWAP1 PUSH1 0x1 ADD SWAP1 PUSH1 0x20 ADD DUP1 DUP4 GT PUSH2 0x1E7D JUMPI DUP3 SWAP1 SUB PUSH1 0x1F AND DUP3 ADD SWAP2 JUMPDEST POP POP POP PUSH1 0x3 DUP5 ADD SLOAD PUSH1 0x4 DUP6 ADD SLOAD PUSH1 0x5 DUP7 ADD SLOAD PUSH1 0x6 DUP8 ADD DUP1 SLOAD SWAP7 SWAP8 SWAP4 SWAP7 SWAP3 SWAP6 POP PUSH1 0xFF SWAP1 SWAP2 AND SWAP4 POP SWAP1 PUSH2 0x1ECA SWAP1 PUSH2 0x4616 JUMP JUMPDEST DUP1 PUSH1 0x1F ADD PUSH1 0x20 DUP1 SWAP2 DIV MUL PUSH1 0x20 ADD PUSH1 0x40 MLOAD SWAP1 DUP2 ADD PUSH1 0x40 MSTORE DUP1 SWAP3 SWAP2 SWAP1 DUP2 DUP2 MSTORE PUSH1 0x20 ADD DUP3 DUP1 SLOAD PUSH2 0x1EF6 SWAP1 PUSH2 0x4616 JUMP JUMPDEST DUP1 ISZERO PUSH2 0x1F43 JUMPI DUP1 PUSH1 0x1F LT PUSH2 0x1F18 JUMPI PUSH2 0x100 DUP1 DUP4 SLOAD DIV MUL DUP4 MSTORE SWAP2 PUSH1 0x20 ADD SWAP2 PUSH2 0x1F43 JUMP JUMPDEST DUP3 ADD SWAP2 SWAP1 PUSH1 0x0 MSTORE PUSH1 0x20 PUSH1 0x0 KECCAK256 SWAP1 JUMPDEST DUP2 SLOAD DUP2 MSTORE SWAP1 PUSH1 0x1 ADD SWAP1 PUSH1 0x20 ADD DUP1 DUP4 GT PUSH2 0x1F26 JUMPI DUP3 SWAP1 SUB PUSH1 0x1F AND DUP3 ADD SWAP2 JUMPDEST POP POP POP POP POP SWAP1 POP DUP8 JUMP JUMPDEST PUSH2 0x1F55 PUSH2 0x37E2 JUMP JUMPDEST PUSH2 0x139 SSTORE JUMP JUMPDEST PUSH1 0x0 SLOAD PUSH2 0x100 SWAP1 DIV PUSH1 0xFF AND ISZERO DUP1 DUP1 ISZERO PUSH2 0x1F7B JUMPI POP PUSH1 0x0 SLOAD PUSH1 0x1 PUSH1 0xFF SWAP1 SWAP2 AND LT JUMPDEST DUP1 PUSH2 0x1F95 JUMPI POP ADDRESS EXTCODESIZE ISZERO DUP1 ISZERO PUSH2 0x1F95 JUMPI POP PUSH1 0x0 SLOAD PUSH1 0xFF AND PUSH1 0x1 EQ JUMPDEST PUSH2 0x1FF8 JUMPI PUSH1 0x40 MLOAD PUSH3 0x461BCD PUSH1 0xE5 SHL DUP2 MSTORE PUSH1 0x20 PUSH1 0x4 DUP3 ADD MSTORE PUSH1 0x2E PUSH1 0x24 DUP3 ADD MSTORE PUSH32 0x496E697469616C697A61626C653A20636F6E747261637420697320616C726561 PUSH1 0x44 DUP3 ADD MSTORE PUSH14 0x191E481A5B9A5D1A585B1A5E9959 PUSH1 0x92 SHL PUSH1 0x64 DUP3 ADD MSTORE PUSH1 0x84 ADD PUSH2 0xE0D JUMP JUMPDEST PUSH1 0x0 DUP1 SLOAD PUSH1 0xFF NOT AND PUSH1 0x1 OR SWAP1 SSTORE DUP1 ISZERO PUSH2 0x201B JUMPI PUSH1 0x0 DUP1 SLOAD PUSH2 0xFF00 NOT AND PUSH2 0x100 OR SWAP1 SSTORE JUMPDEST PUSH1 0x1 PUSH1 0x1 PUSH1 0xA0 SHL SUB DUP3 AND PUSH2 0x2069 JUMPI PUSH1 0x40 MLOAD PUSH3 0x461BCD PUSH1 0xE5 SHL DUP2 MSTORE PUSH1 0x20 PUSH1 0x4 DUP3 ADD MSTORE PUSH1 0x15 PUSH1 0x24 DUP3 ADD MSTORE PUSH21 0x496E76616C696420746F6B656E2061646472657373 PUSH1 0x58 SHL PUSH1 0x44 DUP3 ADD MSTORE PUSH1 0x64 ADD PUSH2 0xE0D JUMP JUMPDEST PUSH2 0x2071 PUSH2 0x3B97 JUMP JUMPDEST PUSH2 0x2079 PUSH2 0x3BC6 JUMP JUMPDEST PUSH2 0x2081 PUSH2 0x3BED JUMP JUMPDEST PUSH2 0x2089 PUSH2 0x3C1C JUMP JUMPDEST PUSH2 0x12D DUP1 SLOAD PUSH1 0x1 PUSH1 0x1 PUSH1 0xA0 SHL SUB NOT AND PUSH1 0x1 PUSH1 0x1 PUSH1 0xA0 SHL SUB DUP5 AND OR SWAP1 SSTORE PUSH9 0x56BC75E2D63100000 PUSH2 0x139 SSTORE PUSH8 0xDE0B6B3A7640000 PUSH2 0x13A SSTORE PUSH2 0x12C PUSH2 0x13B SSTORE PUSH9 0x3635C9ADC5DEA00000 PUSH2 0x13C SSTORE PUSH2 0x3E8 PUSH2 0x13D SSTORE PUSH3 0x278D00 PUSH2 0x13E SSTORE PUSH1 0x5 PUSH2 0x140 SSTORE TIMESTAMP PUSH2 0x141 SSTORE PUSH1 0x0 PUSH2 0x13F SSTORE DUP1 ISZERO PUSH2 0x1006 JUMPI PUSH1 0x0 DUP1 SLOAD PUSH2 0xFF00 NOT AND SWAP1 SSTORE PUSH1 0x40 MLOAD PUSH1 0x1 DUP2 MSTORE PUSH32 0x7F26B83FF96E1F2B6A682F133852F6798A09C465DA95921460CEFB3847402498 SWAP1 PUSH1 0x20 ADD PUSH1 0x40 MLOAD DUP1 SWAP2 SUB SWAP1 LOG1 POP POP JUMP JUMPDEST PUSH2 0x2146 PUSH2 0x37E2 JUMP JUMPDEST PUSH1 0x1 PUSH1 0x1 PUSH1 0xA0 SHL SUB DUP3 AND PUSH1 0x0 SWAP1 DUP2 MSTORE PUSH2 0x12F PUSH1 0x20 MSTORE PUSH1 0x40 SWAP1 KECCAK256 PUSH1 0x3 ADD SLOAD PUSH1 0xFF AND PUSH2 0x2182 JUMPI PUSH1 0x40 MLOAD PUSH3 0x461BCD PUSH1 0xE5 SHL DUP2 MSTORE PUSH1 0x4 ADD PUSH2 0xE0D SWAP1 PUSH2 0x4A44 JUMP JUMPDEST PUSH1 0x1 PUSH1 0x1 PUSH1 0xA0 SHL SUB DUP3 AND PUSH1 0x0 SWAP1 DUP2 MSTORE PUSH2 0x12F PUSH1 0x20 MSTORE PUSH1 0x40 SWAP1 KECCAK256 PUSH1 0x9 ADD SLOAD PUSH1 0xFF AND ISZERO PUSH2 0x21E8 JUMPI PUSH1 0x40 MLOAD PUSH3 0x461BCD PUSH1 0xE5 SHL DUP2 MSTORE PUSH1 0x20 PUSH1 0x4 DUP3 ADD MSTORE PUSH1 0x16 PUSH1 0x24 DUP3 ADD MSTORE PUSH22 0x1059D95B9D08185B1C9958591E481D995C9A599A5959 PUSH1 0x52 SHL PUSH1 0x44 DUP3 ADD MSTORE PUSH1 0x64 ADD PUSH2 0xE0D JUMP JUMPDEST PUSH2 0x12E SLOAD PUSH1 0x1 PUSH1 0x1 PUSH1 0xA0 SHL SUB AND PUSH2 0x2241 JUMPI PUSH1 0x40 MLOAD PUSH3 0x461BCD PUSH1 0xE5 SHL DUP2 MSTORE PUSH1 0x20 PUSH1 0x4 DUP3 ADD MSTORE PUSH1 0x1D PUSH1 0x24 DUP3 ADD MSTORE PUSH32 0x566572696669636174696F6E20636F6E7472616374206E6F7420736574000000 PUSH1 0x44 DUP3 ADD MSTORE PUSH1 0x64 ADD PUSH2 0xE0D JUMP JUMPDEST PUSH1 0x0 PUSH2 0x224D DUP4 DUP4 PUSH2 0x3C4B JUMP JUMPDEST SWAP1 POP DUP1 PUSH2 0x2290 JUMPI PUSH1 0x40 MLOAD PUSH3 0x461BCD PUSH1 0xE5 SHL DUP2 MSTORE PUSH1 0x20 PUSH1 0x4 DUP3 ADD MSTORE PUSH1 0x11 PUSH1 0x24 DUP3 ADD MSTORE PUSH17 0x24B73B30B634B2102D25A810383937B7B3 PUSH1 0x79 SHL PUSH1 0x44 DUP3 ADD MSTORE PUSH1 0x64 ADD PUSH2 0xE0D JUMP JUMPDEST PUSH1 0x1 PUSH1 0x1 PUSH1 0xA0 SHL SUB DUP4 AND PUSH1 0x0 SWAP1 DUP2 MSTORE PUSH2 0x12F PUSH1 0x20 MSTORE PUSH1 0x40 DUP2 KECCAK256 PUSH1 0x9 DUP2 ADD DUP1 SLOAD PUSH1 0xFF NOT AND PUSH1 0x1 OR SWAP1 SSTORE PUSH1 0x2 ADD DUP1 SLOAD PUSH2 0x3E8 SWAP3 SWAP1 PUSH2 0x22CD SWAP1 DUP5 SWAP1 PUSH2 0x4909 JUMP JUMPDEST SWAP1 SWAP2 SSTORE POP POP PUSH1 0x40 MLOAD PUSH1 0x1 DUP2 MSTORE PUSH1 0x1 PUSH1 0x1 PUSH1 0xA0 SHL SUB DUP5 AND SWAP1 PUSH32 0xB0C56617EC919721F803618B5F53891E275C7AADDBDF3C17C45F3252854FA70B SWAP1 PUSH1 0x20 ADD PUSH1 0x40 MLOAD DUP1 SWAP2 SUB SWAP1 LOG2 PUSH1 0x1 PUSH1 0x1 PUSH1 0xA0 SHL SUB DUP4 AND PUSH1 0x0 DUP2 DUP2 MSTORE PUSH2 0x12F PUSH1 0x20 MSTORE PUSH1 0x40 SWAP1 KECCAK256 PUSH1 0x2 ADD SLOAD PUSH32 0x5B88A2E3FC1A53234357AB78C104DF11C33CCFA79886793654565AD70B8AFB6E SWAP1 PUSH2 0x235D SWAP1 PUSH2 0x3E8 SWAP1 PUSH2 0x491C JUMP JUMPDEST PUSH1 0x1 PUSH1 0x1 PUSH1 0xA0 SHL SUB DUP7 AND PUSH1 0x0 SWAP1 DUP2 MSTORE PUSH2 0x12F PUSH1 0x20 SWAP1 DUP2 MSTORE PUSH1 0x40 SWAP2 DUP3 SWAP1 KECCAK256 PUSH1 0x2 ADD SLOAD DUP3 MLOAD SWAP4 DUP5 MSTORE SWAP1 DUP4 ADD MSTORE ADD PUSH1 0x40 MLOAD DUP1 SWAP2 SUB SWAP1 LOG2 POP POP POP JUMP JUMPDEST PUSH2 0x239D PUSH2 0x3A01 JUMP JUMPDEST CALLER PUSH1 0x0 SWAP1 DUP2 MSTORE PUSH2 0x12F PUSH1 0x20 MSTORE PUSH1 0x40 SWAP1 KECCAK256 PUSH1 0x3 DUP2 ADD SLOAD PUSH1 0xFF AND PUSH2 0x23D1 JUMPI PUSH1 0x40 MLOAD PUSH3 0x461BCD PUSH1 0xE5 SHL DUP2 MSTORE PUSH1 0x4 ADD PUSH2 0xE0D SWAP1 PUSH2 0x4A44 JUMP JUMPDEST PUSH2 0x13E SLOAD DUP2 PUSH1 0x4 ADD SLOAD PUSH2 0x23E4 SWAP2 SWAP1 PUSH2 0x4909 JUMP JUMPDEST TIMESTAMP LT ISZERO PUSH2 0x242B JUMPI PUSH1 0x40 MLOAD PUSH3 0x461BCD PUSH1 0xE5 SHL DUP2 MSTORE PUSH1 0x20 PUSH1 0x4 DUP3 ADD MSTORE PUSH1 0x15 PUSH1 0x24 DUP3 ADD MSTORE PUSH21 0x131BD8DAC81C195C9A5BD9081B9BDD08195B991959 PUSH1 0x5A SHL PUSH1 0x44 DUP3 ADD MSTORE PUSH1 0x64 ADD PUSH2 0xE0D JUMP JUMPDEST PUSH1 0x6 DUP2 ADD SLOAD PUSH1 0x3 DUP3 ADD DUP1 SLOAD PUSH1 0xFF NOT AND SWAP1 SSTORE CALLER PUSH1 0x0 SWAP1 DUP2 MSTORE PUSH2 0x134 PUSH1 0x20 MSTORE PUSH1 0x40 DUP2 KECCAK256 SLOAD PUSH2 0x133 SLOAD SWAP1 SWAP2 SWAP1 PUSH2 0x2460 SWAP1 PUSH1 0x1 SWAP1 PUSH2 0x491C JUMP JUMPDEST SWAP1 POP DUP1 DUP3 EQ PUSH2 0x24EB JUMPI PUSH1 0x0 PUSH2 0x133 DUP3 DUP2 SLOAD DUP2 LT PUSH2 0x247F JUMPI PUSH2 0x247F PUSH2 0x4A2E JUMP JUMPDEST PUSH1 0x0 SWAP2 DUP3 MSTORE PUSH1 0x20 SWAP1 SWAP2 KECCAK256 ADD SLOAD PUSH2 0x133 DUP1 SLOAD PUSH1 0x1 PUSH1 0x1 PUSH1 0xA0 SHL SUB SWAP1 SWAP3 AND SWAP3 POP DUP3 SWAP2 DUP6 SWAP1 DUP2 LT PUSH2 0x24AF JUMPI PUSH2 0x24AF PUSH2 0x4A2E JUMP JUMPDEST PUSH1 0x0 SWAP2 DUP3 MSTORE PUSH1 0x20 DUP1 DUP4 KECCAK256 SWAP2 SWAP1 SWAP2 ADD DUP1 SLOAD PUSH1 0x1 PUSH1 0x1 PUSH1 0xA0 SHL SUB NOT AND PUSH1 0x1 PUSH1 0x1 PUSH1 0xA0 SHL SUB SWAP5 DUP6 AND OR SWAP1 SSTORE SWAP3 SWAP1 SWAP2 AND DUP2 MSTORE PUSH2 0x134 SWAP1 SWAP2 MSTORE PUSH1 0x40 SWAP1 KECCAK256 DUP3 SWAP1 SSTORE JUMPDEST PUSH2 0x133 DUP1 SLOAD DUP1 PUSH2 0x24FD JUMPI PUSH2 0x24FD PUSH2 0x4A72 JUMP JUMPDEST PUSH1 0x0 DUP3 DUP2 MSTORE PUSH1 0x20 DUP1 DUP3 KECCAK256 DUP4 ADD PUSH1 0x0 NOT SWAP1 DUP2 ADD DUP1 SLOAD PUSH1 0x1 PUSH1 0x1 PUSH1 0xA0 SHL SUB NOT AND SWAP1 SSTORE SWAP1 SWAP3 ADD SWAP1 SWAP3 SSTORE CALLER DUP3 MSTORE PUSH2 0x134 SWAP1 MSTORE PUSH1 0x40 DUP2 KECCAK256 DUP2 SWAP1 SSTORE PUSH2 0x135 DUP1 SLOAD SWAP2 PUSH2 0x2541 DUP4 PUSH2 0x4A88 JUMP JUMPDEST SWAP2 SWAP1 POP SSTORE POP DUP3 PUSH2 0x13F PUSH1 0x0 DUP3 DUP3 SLOAD PUSH2 0x2559 SWAP2 SWAP1 PUSH2 0x491C JUMP JUMPDEST SWAP1 SWAP2 SSTORE POP POP PUSH2 0x12D SLOAD PUSH1 0x40 MLOAD PUSH4 0xA9059CBB PUSH1 0xE0 SHL DUP2 MSTORE CALLER PUSH1 0x4 DUP3 ADD MSTORE PUSH1 0x24 DUP2 ADD DUP6 SWAP1 MSTORE PUSH1 0x1 PUSH1 0x1 PUSH1 0xA0 SHL SUB SWAP1 SWAP2 AND SWAP1 PUSH4 0xA9059CBB SWAP1 PUSH1 0x44 ADD PUSH1 0x20 PUSH1 0x40 MLOAD DUP1 DUP4 SUB DUP2 PUSH1 0x0 DUP8 GAS CALL ISZERO DUP1 ISZERO PUSH2 0x25B0 JUMPI RETURNDATASIZE PUSH1 0x0 DUP1 RETURNDATACOPY RETURNDATASIZE PUSH1 0x0 REVERT JUMPDEST POP POP POP POP PUSH1 0x40 MLOAD RETURNDATASIZE PUSH1 0x1F NOT PUSH1 0x1F DUP3 ADD AND DUP3 ADD DUP1 PUSH1 0x40 MSTORE POP DUP2 ADD SWAP1 PUSH2 0x25D4 SWAP2 SWAP1 PUSH2 0x4981 JUMP JUMPDEST PUSH2 0x25F0 JUMPI PUSH1 0x40 MLOAD PUSH3 0x461BCD PUSH1 0xE5 SHL DUP2 MSTORE PUSH1 0x4 ADD PUSH2 0xE0D SWAP1 PUSH2 0x49AA JUMP JUMPDEST PUSH1 0x40 MLOAD DUP4 DUP2 MSTORE CALLER SWAP1 PUSH32 0x366AAD71786C86A25C8E70832E1308E87662A4861EDDA4AE85AD947D858B9D11 SWAP1 PUSH1 0x20 ADD PUSH1 0x40 MLOAD DUP1 SWAP2 SUB SWAP1 LOG2 POP POP POP POP PUSH2 0xEBD PUSH1 0x1 PUSH1 0xC9 SSTORE JUMP JUMPDEST PUSH2 0x263B PUSH2 0x3A01 JUMP JUMPDEST PUSH2 0x2643 PUSH2 0x3A5A JUMP JUMPDEST CALLER PUSH1 0x0 SWAP1 DUP2 MSTORE PUSH2 0x12F PUSH1 0x20 MSTORE PUSH1 0x40 SWAP1 KECCAK256 PUSH1 0x3 ADD SLOAD PUSH1 0xFF AND ISZERO PUSH2 0x26A7 JUMPI PUSH1 0x40 MLOAD PUSH3 0x461BCD PUSH1 0xE5 SHL DUP2 MSTORE PUSH1 0x20 PUSH1 0x4 DUP3 ADD MSTORE PUSH1 0x18 PUSH1 0x24 DUP3 ADD MSTORE PUSH32 0x4167656E7420616C726561647920726567697374657265640000000000000000 PUSH1 0x44 DUP3 ADD MSTORE PUSH1 0x64 ADD PUSH2 0xE0D JUMP JUMPDEST PUSH2 0x13C SLOAD DUP2 LT ISZERO PUSH2 0x26FA JUMPI PUSH1 0x40 MLOAD PUSH3 0x461BCD PUSH1 0xE5 SHL DUP2 MSTORE PUSH1 0x20 PUSH1 0x4 DUP3 ADD MSTORE PUSH1 0x19 PUSH1 0x24 DUP3 ADD MSTORE PUSH32 0x496E73756666696369656E74207374616B6520616D6F756E7400000000000000 PUSH1 0x44 DUP3 ADD MSTORE PUSH1 0x64 ADD PUSH2 0xE0D JUMP JUMPDEST DUP4 PUSH2 0x273E JUMPI PUSH1 0x40 MLOAD PUSH3 0x461BCD PUSH1 0xE5 SHL DUP2 MSTORE PUSH1 0x20 PUSH1 0x4 DUP3 ADD MSTORE PUSH1 0x14 PUSH1 0x24 DUP3 ADD MSTORE PUSH20 0x125B9D985B1A590811125108191BD8DD5B595B9D PUSH1 0x62 SHL PUSH1 0x44 DUP3 ADD MSTORE PUSH1 0x64 ADD PUSH2 0xE0D JUMP JUMPDEST PUSH1 0x0 PUSH1 0x1 PUSH1 0x1 PUSH1 0xA0 SHL SUB AND PUSH2 0x130 DUP7 DUP7 PUSH1 0x40 MLOAD PUSH2 0x275C SWAP3 SWAP2 SWAP1 PUSH2 0x4A9F JUMP JUMPDEST SWAP1 DUP2 MSTORE PUSH1 0x40 MLOAD SWAP1 DUP2 SWAP1 SUB PUSH1 0x20 ADD SWAP1 KECCAK256 SLOAD PUSH1 0x1 PUSH1 0x1 PUSH1 0xA0 SHL SUB AND EQ PUSH2 0x27B7 JUMPI PUSH1 0x40 MLOAD PUSH3 0x461BCD PUSH1 0xE5 SHL DUP2 MSTORE PUSH1 0x20 PUSH1 0x4 DUP3 ADD MSTORE PUSH1 0x12 PUSH1 0x24 DUP3 ADD MSTORE PUSH18 0x44494420616C726561647920657869737473 PUSH1 0x70 SHL PUSH1 0x44 DUP3 ADD MSTORE PUSH1 0x64 ADD PUSH2 0xE0D JUMP JUMPDEST PUSH1 0x0 PUSH2 0x139 SLOAD DUP3 PUSH2 0x27C8 SWAP2 SWAP1 PUSH2 0x4909 JUMP JUMPDEST PUSH2 0x12D SLOAD PUSH1 0x40 MLOAD PUSH4 0x70A08231 PUSH1 0xE0 SHL DUP2 MSTORE CALLER PUSH1 0x4 DUP3 ADD MSTORE SWAP2 SWAP3 POP DUP3 SWAP2 PUSH1 0x1 PUSH1 0x1 PUSH1 0xA0 SHL SUB SWAP1 SWAP2 AND SWAP1 PUSH4 0x70A08231 SWAP1 PUSH1 0x24 ADD PUSH1 0x20 PUSH1 0x40 MLOAD DUP1 DUP4 SUB DUP2 DUP7 GAS STATICCALL ISZERO DUP1 ISZERO PUSH2 0x2816 JUMPI RETURNDATASIZE PUSH1 0x0 DUP1 RETURNDATACOPY RETURNDATASIZE PUSH1 0x0 REVERT JUMPDEST POP POP POP POP PUSH1 0x40 MLOAD RETURNDATASIZE PUSH1 0x1F NOT PUSH1 0x1F DUP3 ADD AND DUP3 ADD DUP1 PUSH1 0x40 MSTORE POP DUP2 ADD SWAP1 PUSH2 0x283A SWAP2 SWAP1 PUSH2 0x4968 JUMP JUMPDEST LT ISZERO PUSH2 0x2888 JUMPI PUSH1 0x40 MLOAD PUSH3 0x461BCD PUSH1 0xE5 SHL DUP2 MSTORE PUSH1 0x20 PUSH1 0x4 DUP3 ADD MSTORE PUSH1 0x1A PUSH1 0x24 DUP3 ADD MSTORE PUSH32 0x496E73756666696369656E7420746F6B656E2062616C616E6365000000000000 PUSH1 0x44 DUP3 ADD MSTORE PUSH1 0x64 ADD PUSH2 0xE0D JUMP JUMPDEST PUSH2 0x12D SLOAD PUSH1 0x40 MLOAD PUSH4 0x6EB1769F PUSH1 0xE1 SHL DUP2 MSTORE CALLER PUSH1 0x4 DUP3 ADD MSTORE ADDRESS PUSH1 0x24 DUP3 ADD MSTORE DUP3 SWAP2 PUSH1 0x1 PUSH1 0x1 PUSH1 0xA0 SHL SUB AND SWAP1 PUSH4 0xDD62ED3E SWAP1 PUSH1 0x44 ADD PUSH1 0x20 PUSH1 0x40 MLOAD DUP1 DUP4 SUB DUP2 DUP7 GAS STATICCALL ISZERO DUP1 ISZERO PUSH2 0x28D7 JUMPI RETURNDATASIZE PUSH1 0x0 DUP1 RETURNDATACOPY RETURNDATASIZE PUSH1 0x0 REVERT JUMPDEST POP POP POP POP PUSH1 0x40 MLOAD RETURNDATASIZE PUSH1 0x1F NOT PUSH1 0x1F DUP3 ADD AND DUP3 ADD DUP1 PUSH1 0x40 MSTORE POP DUP2 ADD SWAP1 PUSH2 0x28FB SWAP2 SWAP1 PUSH2 0x4968 JUMP JUMPDEST LT ISZERO PUSH2 0x2949 JUMPI PUSH1 0x40 MLOAD PUSH3 0x461BCD PUSH1 0xE5 SHL DUP2 MSTORE PUSH1 0x20 PUSH1 0x4 DUP3 ADD MSTORE PUSH1 0x1C PUSH1 0x24 DUP3 ADD MSTORE PUSH32 0x496E73756666696369656E7420746F6B656E20616C6C6F77616E636500000000 PUSH1 0x44 DUP3 ADD MSTORE PUSH1 0x64 ADD PUSH2 0xE0D JUMP JUMPDEST PUSH2 0x12D SLOAD PUSH1 0x40 MLOAD PUSH4 0x23B872DD PUSH1 0xE0 SHL DUP2 MSTORE PUSH1 0x1 PUSH1 0x1 PUSH1 0xA0 SHL SUB SWAP1 SWAP2 AND SWAP1 PUSH4 0x23B872DD SWAP1 PUSH2 0x297E SWAP1 CALLER SWAP1 ADDRESS SWAP1 DUP7 SWAP1 PUSH1 0x4 ADD PUSH2 0x48E5 JUMP JUMPDEST PUSH1 0x20 PUSH1 0x40 MLOAD DUP1 DUP4 SUB DUP2 PUSH1 0x0 DUP8 GAS CALL ISZERO DUP1 ISZERO PUSH2 0x299D JUMPI RETURNDATASIZE PUSH1 0x0 DUP1 RETURNDATACOPY RETURNDATASIZE PUSH1 0x0 REVERT JUMPDEST POP POP POP POP PUSH1 0x40 MLOAD RETURNDATASIZE PUSH1 0x1F NOT PUSH1 0x1F DUP3 ADD AND DUP3 ADD DUP1 PUSH1 0x40 MSTORE POP DUP2 ADD SWAP1 PUSH2 0x29C1 SWAP2 SWAP1 PUSH2 0x4981 JUMP JUMPDEST PUSH2 0x29DD JUMPI PUSH1 0x40 MLOAD PUSH3 0x461BCD PUSH1 0xE5 SHL DUP2 MSTORE PUSH1 0x4 ADD PUSH2 0xE0D SWAP1 PUSH2 0x49AA JUMP JUMPDEST PUSH1 0x40 MLOAD DUP1 PUSH2 0x140 ADD PUSH1 0x40 MSTORE DUP1 DUP8 DUP8 DUP1 DUP1 PUSH1 0x1F ADD PUSH1 0x20 DUP1 SWAP2 DIV MUL PUSH1 0x20 ADD PUSH1 0x40 MLOAD SWAP1 DUP2 ADD PUSH1 0x40 MSTORE DUP1 SWAP4 SWAP3 SWAP2 SWAP1 DUP2 DUP2 MSTORE PUSH1 0x20 ADD DUP4 DUP4 DUP1 DUP3 DUP5 CALLDATACOPY PUSH1 0x0 SWAP3 ADD SWAP2 SWAP1 SWAP2 MSTORE POP POP POP SWAP1 DUP3 MSTORE POP PUSH1 0x40 DUP1 MLOAD PUSH1 0x20 PUSH1 0x1F DUP9 ADD DUP2 SWAP1 DIV DUP2 MUL DUP3 ADD DUP2 ADD SWAP1 SWAP3 MSTORE DUP7 DUP2 MSTORE SWAP2 DUP2 ADD SWAP2 SWAP1 DUP8 SWAP1 DUP8 SWAP1 DUP2 SWAP1 DUP5 ADD DUP4 DUP3 DUP1 DUP3 DUP5 CALLDATACOPY PUSH1 0x0 SWAP3 ADD DUP3 SWAP1 MSTORE POP SWAP4 DUP6 MSTORE POP POP PUSH2 0x3E8 PUSH1 0x20 DUP1 DUP6 ADD SWAP2 SWAP1 SWAP2 MSTORE PUSH1 0x1 PUSH1 0x40 DUP1 DUP7 ADD SWAP2 SWAP1 SWAP2 MSTORE TIMESTAMP PUSH1 0x60 DUP7 ADD DUP2 SWAP1 MSTORE PUSH1 0x80 DUP7 ADD MSTORE PUSH1 0xA0 DUP6 ADD DUP9 SWAP1 MSTORE PUSH1 0xC0 DUP6 ADD DUP5 SWAP1 MSTORE PUSH1 0xE0 DUP6 ADD DUP5 SWAP1 MSTORE PUSH2 0x100 SWAP1 SWAP5 ADD DUP4 SWAP1 MSTORE CALLER DUP4 MSTORE PUSH2 0x12F SWAP1 MSTORE POP KECCAK256 DUP2 MLOAD DUP2 SWAP1 PUSH2 0x2AB5 SWAP1 DUP3 PUSH2 0x47F6 JUMP JUMPDEST POP PUSH1 0x20 DUP3 ADD MLOAD PUSH1 0x1 DUP3 ADD SWAP1 PUSH2 0x2ACA SWAP1 DUP3 PUSH2 0x47F6 JUMP JUMPDEST POP PUSH1 0x40 DUP3 DUP2 ADD MLOAD PUSH1 0x2 DUP4 ADD SSTORE PUSH1 0x60 DUP4 ADD MLOAD PUSH1 0x3 DUP4 ADD DUP1 SLOAD SWAP2 ISZERO ISZERO PUSH1 0xFF NOT SWAP3 DUP4 AND OR SWAP1 SSTORE PUSH1 0x80 DUP5 ADD MLOAD PUSH1 0x4 DUP5 ADD SSTORE PUSH1 0xA0 DUP5 ADD MLOAD PUSH1 0x5 DUP5 ADD SSTORE PUSH1 0xC0 DUP5 ADD MLOAD PUSH1 0x6 DUP5 ADD SSTORE PUSH1 0xE0 DUP5 ADD MLOAD PUSH1 0x7 DUP5 ADD SSTORE PUSH2 0x100 DUP5 ADD MLOAD PUSH1 0x8 DUP5 ADD SSTORE PUSH2 0x120 SWAP1 SWAP4 ADD MLOAD PUSH1 0x9 SWAP1 SWAP3 ADD DUP1 SLOAD SWAP3 ISZERO ISZERO SWAP3 SWAP1 SWAP4 AND SWAP2 SWAP1 SWAP2 OR SWAP1 SWAP2 SSTORE MLOAD CALLER SWAP1 PUSH2 0x130 SWAP1 PUSH2 0x2B50 SWAP1 DUP10 SWAP1 DUP10 SWAP1 PUSH2 0x4A9F JUMP JUMPDEST SWAP1 DUP2 MSTORE PUSH1 0x40 DUP1 MLOAD SWAP2 DUP3 SWAP1 SUB PUSH1 0x20 SWAP1 DUP2 ADD SWAP1 SWAP3 KECCAK256 DUP1 SLOAD PUSH1 0x1 PUSH1 0x1 PUSH1 0xA0 SHL SUB SWAP5 SWAP1 SWAP5 AND PUSH1 0x1 PUSH1 0x1 PUSH1 0xA0 SHL SUB NOT SWAP5 DUP6 AND OR SWAP1 SSTORE PUSH2 0x133 DUP1 SLOAD CALLER PUSH1 0x0 DUP2 DUP2 MSTORE PUSH2 0x134 SWAP1 SWAP6 MSTORE SWAP3 DUP5 KECCAK256 DUP2 SWAP1 SSTORE PUSH1 0x1 DUP2 ADD DUP3 SSTORE SWAP1 DUP4 MSTORE PUSH32 0x92E985329FB94CC1B424EBB0F7F2929B6D27383CA94C0EC71C44FB48BDF96D2C ADD DUP1 SLOAD SWAP1 SWAP4 AND OR SWAP1 SWAP2 SSTORE PUSH2 0x135 DUP1 SLOAD SWAP2 PUSH2 0x2BDA DUP4 PUSH2 0x48CC JUMP JUMPDEST SWAP2 SWAP1 POP SSTORE POP DUP2 PUSH2 0x13F PUSH1 0x0 DUP3 DUP3 SLOAD PUSH2 0x2BF2 SWAP2 SWAP1 PUSH2 0x4909 JUMP JUMPDEST SWAP1 SWAP2 SSTORE POP POP PUSH1 0x40 MLOAD CALLER SWAP1 PUSH32 0x23C5EFE572C42192271951ADB0E77F97D7FC84BC761D026189AC08617346824 SWAP1 PUSH2 0x2C2D SWAP1 DUP10 SWAP1 DUP10 SWAP1 DUP8 SWAP1 PUSH2 0x49D9 JUMP JUMPDEST PUSH1 0x40 MLOAD DUP1 SWAP2 SUB SWAP1 LOG2 POP PUSH2 0x2C40 PUSH1 0x1 PUSH1 0xC9 SSTORE JUMP JUMPDEST POP POP POP POP POP JUMP JUMPDEST CALLER PUSH1 0x0 SWAP1 DUP2 MSTORE PUSH2 0x12F PUSH1 0x20 MSTORE PUSH1 0x40 SWAP1 KECCAK256 PUSH1 0x3 ADD SLOAD PUSH1 0xFF AND PUSH2 0x2C7A JUMPI PUSH1 0x40 MLOAD PUSH3 0x461BCD PUSH1 0xE5 SHL DUP2 MSTORE PUSH1 0x4 ADD PUSH2 0xE0D SWAP1 PUSH2 0x4A44 JUMP JUMPDEST PUSH2 0x2C82 PUSH2 0x3A01 JUMP JUMPDEST PUSH1 0x1 PUSH1 0x1 PUSH1 0xA0 SHL SUB DUP4 AND PUSH1 0x0 SWAP1 DUP2 MSTORE PUSH2 0x12F PUSH1 0x20 MSTORE PUSH1 0x40 SWAP1 KECCAK256 PUSH1 0x3 ADD SLOAD PUSH1 0xFF AND PUSH2 0x2CEE JUMPI PUSH1 0x40 MLOAD PUSH3 0x461BCD PUSH1 0xE5 SHL DUP2 MSTORE PUSH1 0x20 PUSH1 0x4 DUP3 ADD MSTORE PUSH1 0x17 PUSH1 0x24 DUP3 ADD MSTORE PUSH32 0x546172676574206167656E74206E6F7420616374697665000000000000000000 PUSH1 0x44 DUP3 ADD MSTORE PUSH1 0x64 ADD PUSH2 0xE0D JUMP JUMPDEST DUP1 PUSH2 0x2D31 JUMPI PUSH1 0x40 MLOAD PUSH3 0x461BCD PUSH1 0xE5 SHL DUP2 MSTORE PUSH1 0x20 PUSH1 0x4 DUP3 ADD MSTORE PUSH1 0x13 PUSH1 0x24 DUP3 ADD MSTORE PUSH19 0x125B9D985B1A59081B595CDCD859D94810D251 PUSH1 0x6A SHL PUSH1 0x44 DUP3 ADD MSTORE PUSH1 0x64 ADD PUSH2 0xE0D JUMP JUMPDEST PUSH2 0x13A SLOAD PUSH2 0x12D SLOAD PUSH1 0x40 MLOAD PUSH4 0x70A08231 PUSH1 0xE0 SHL DUP2 MSTORE CALLER PUSH1 0x4 DUP3 ADD MSTORE PUSH1 0x1 PUSH1 0x1 PUSH1 0xA0 SHL SUB SWAP1 SWAP2 AND SWAP1 PUSH4 0x70A08231 SWAP1 PUSH1 0x24 ADD PUSH1 0x20 PUSH1 0x40 MLOAD DUP1 DUP4 SUB DUP2 DUP7 GAS STATICCALL ISZERO DUP1 ISZERO PUSH2 0x2D7E JUMPI RETURNDATASIZE PUSH1 0x0 DUP1 RETURNDATACOPY RETURNDATASIZE PUSH1 0x0 REVERT JUMPDEST POP POP POP POP PUSH1 0x40 MLOAD RETURNDATASIZE PUSH1 0x1F NOT PUSH1 0x1F DUP3 ADD AND DUP3 ADD DUP1 PUSH1 0x40 MSTORE POP DUP2 ADD SWAP1 PUSH2 0x2DA2 SWAP2 SWAP1 PUSH2 0x4968 JUMP JUMPDEST LT ISZERO PUSH2 0x2DF0 JUMPI PUSH1 0x40 MLOAD PUSH3 0x461BCD PUSH1 0xE5 SHL DUP2 MSTORE PUSH1 0x20 PUSH1 0x4 DUP3 ADD MSTORE PUSH1 0x1A PUSH1 0x24 DUP3 ADD MSTORE PUSH32 0x496E73756666696369656E7420746F6B656E2062616C616E6365000000000000 PUSH1 0x44 DUP3 ADD MSTORE PUSH1 0x64 ADD PUSH2 0xE0D JUMP JUMPDEST PUSH2 0x13A SLOAD PUSH2 0x12D SLOAD PUSH1 0x40 MLOAD PUSH4 0x6EB1769F PUSH1 0xE1 SHL DUP2 MSTORE CALLER PUSH1 0x4 DUP3 ADD MSTORE ADDRESS PUSH1 0x24 DUP3 ADD MSTORE PUSH1 0x1 PUSH1 0x1 PUSH1 0xA0 SHL SUB SWAP1 SWAP2 AND SWAP1 PUSH4 0xDD62ED3E SWAP1 PUSH1 0x44 ADD PUSH1 0x20 PUSH1 0x40 MLOAD DUP1 DUP4 SUB DUP2 DUP7 GAS STATICCALL ISZERO DUP1 ISZERO PUSH2 0x2E43 JUMPI RETURNDATASIZE PUSH1 0x0 DUP1 RETURNDATACOPY RETURNDATASIZE PUSH1 0x0 REVERT JUMPDEST POP POP POP POP PUSH1 0x40 MLOAD RETURNDATASIZE PUSH1 0x1F NOT PUSH1 0x1F DUP3 ADD AND DUP3 ADD DUP1 PUSH1 0x40 MSTORE POP DUP2 ADD SWAP1 PUSH2 0x2E67 SWAP2 SWAP1 PUSH2 0x4968 JUMP JUMPDEST LT ISZERO PUSH2 0x2EB5 JUMPI PUSH1 0x40 MLOAD PUSH3 0x461BCD PUSH1 0xE5 SHL DUP2 MSTORE PUSH1 0x20 PUSH1 0x4 DUP3 ADD MSTORE PUSH1 0x1C PUSH1 0x24 DUP3 ADD MSTORE PUSH32 0x496E73756666696369656E7420746F6B656E20616C6C6F77616E636500000000 PUSH1 0x44 DUP3 ADD MSTORE PUSH1 0x64 ADD PUSH2 0xE0D JUMP JUMPDEST PUSH2 0x12D SLOAD PUSH2 0x13A SLOAD PUSH1 0x40 MLOAD PUSH4 0x23B872DD PUSH1 0xE0 SHL DUP2 MSTORE PUSH1 0x1 PUSH1 0x1 PUSH1 0xA0 SHL SUB SWAP1 SWAP3 AND SWAP2 PUSH4 0x23B872DD SWAP2 PUSH2 0x2EEC SWAP2 CALLER SWAP2 ADDRESS SWAP2 PUSH1 0x4 ADD PUSH2 0x48E5 JUMP JUMPDEST PUSH1 0x20 PUSH1 0x40 MLOAD DUP1 DUP4 SUB DUP2 PUSH1 0x0 DUP8 GAS CALL ISZERO DUP1 ISZERO PUSH2 0x2F0B JUMPI RETURNDATASIZE PUSH1 0x0 DUP1 RETURNDATACOPY RETURNDATASIZE PUSH1 0x0 REVERT JUMPDEST POP POP POP POP PUSH1 0x40 MLOAD RETURNDATASIZE PUSH1 0x1F NOT PUSH1 0x1F DUP3 ADD AND DUP3 ADD DUP1 PUSH1 0x40 MSTORE POP DUP2 ADD SWAP1 PUSH2 0x2F2F SWAP2 SWAP1 PUSH2 0x4981 JUMP JUMPDEST PUSH2 0x2F4B JUMPI PUSH1 0x40 MLOAD PUSH3 0x461BCD PUSH1 0xE5 SHL DUP2 MSTORE PUSH1 0x4 ADD PUSH2 0xE0D SWAP1 PUSH2 0x49AA JUMP JUMPDEST PUSH1 0x0 CALLER DUP5 DUP5 DUP5 TIMESTAMP PUSH1 0x40 MLOAD PUSH1 0x20 ADD PUSH2 0x2F66 SWAP6 SWAP5 SWAP4 SWAP3 SWAP2 SWAP1 PUSH2 0x4AAF JUMP JUMPDEST PUSH1 0x40 DUP1 MLOAD PUSH1 0x1F NOT DUP2 DUP5 SUB ADD DUP2 MSTORE DUP3 DUP3 MSTORE DUP1 MLOAD PUSH1 0x20 SWAP2 DUP3 ADD KECCAK256 PUSH1 0xC0 DUP5 ADD DUP4 MSTORE CALLER DUP5 MSTORE PUSH1 0x1 PUSH1 0x1 PUSH1 0xA0 SHL SUB DUP9 AND DUP5 DUP4 ADD MSTORE DUP3 MLOAD PUSH1 0x1F DUP8 ADD DUP4 SWAP1 DIV DUP4 MUL DUP2 ADD DUP4 ADD DUP5 MSTORE DUP7 DUP2 MSTORE SWAP1 SWAP5 POP SWAP2 DUP4 ADD SWAP2 SWAP1 DUP7 SWAP1 DUP7 SWAP1 DUP2 SWAP1 DUP5 ADD DUP4 DUP3 DUP1 DUP3 DUP5 CALLDATACOPY PUSH1 0x0 SWAP3 ADD DUP3 SWAP1 MSTORE POP SWAP4 DUP6 MSTORE POP POP TIMESTAMP PUSH1 0x20 DUP1 DUP6 ADD SWAP2 SWAP1 SWAP2 MSTORE PUSH1 0x40 DUP1 DUP6 ADD DUP5 SWAP1 MSTORE PUSH2 0x13A SLOAD PUSH1 0x60 SWAP1 SWAP6 ADD SWAP5 SWAP1 SWAP5 MSTORE DUP6 DUP4 MSTORE PUSH2 0x131 DUP2 MSTORE SWAP2 DUP4 SWAP1 KECCAK256 DUP5 MLOAD DUP2 SLOAD PUSH1 0x1 PUSH1 0x1 PUSH1 0xA0 SHL SUB NOT SWAP1 DUP2 AND PUSH1 0x1 PUSH1 0x1 PUSH1 0xA0 SHL SUB SWAP3 DUP4 AND OR DUP4 SSTORE SWAP4 DUP7 ADD MLOAD PUSH1 0x1 DUP4 ADD DUP1 SLOAD SWAP1 SWAP6 AND SWAP2 AND OR SWAP1 SWAP3 SSTORE POP SWAP1 DUP3 ADD MLOAD PUSH1 0x2 DUP3 ADD SWAP1 PUSH2 0x303C SWAP1 DUP3 PUSH2 0x47F6 JUMP JUMPDEST POP PUSH1 0x60 DUP3 ADD MLOAD PUSH1 0x3 DUP3 ADD SSTORE PUSH1 0x80 DUP3 ADD MLOAD PUSH1 0x4 DUP3 ADD DUP1 SLOAD PUSH1 0xFF NOT AND SWAP2 ISZERO ISZERO SWAP2 SWAP1 SWAP2 OR SWAP1 SSTORE PUSH1 0xA0 SWAP1 SWAP2 ADD MLOAD PUSH1 0x5 SWAP1 SWAP2 ADD SSTORE PUSH2 0x136 DUP1 SLOAD SWAP1 PUSH1 0x0 PUSH2 0x307C DUP4 PUSH2 0x48CC JUMP JUMPDEST SWAP2 SWAP1 POP SSTORE POP PUSH2 0x13A SLOAD PUSH2 0x138 PUSH1 0x0 DUP3 DUP3 SLOAD PUSH2 0x3097 SWAP2 SWAP1 PUSH2 0x4909 JUMP JUMPDEST SWAP1 SWAP2 SSTORE POP POP CALLER PUSH1 0x0 DUP2 DUP2 MSTORE PUSH2 0x12F PUSH1 0x20 MSTORE PUSH1 0x40 DUP1 DUP3 KECCAK256 TIMESTAMP PUSH1 0x5 SWAP2 DUP3 ADD DUP2 SWAP1 SSTORE PUSH1 0x1 PUSH1 0x1 PUSH1 0xA0 SHL SUB DUP10 AND DUP5 MSTORE SWAP3 DUP3 SWAP1 KECCAK256 ADD SWAP2 SWAP1 SWAP2 SSTORE PUSH2 0x13A SLOAD SWAP1 MLOAD DUP4 SWAP3 PUSH32 0x3C20D4E8F42599EDDF3CDB1184580D4AD4D4A3063DBD500A519F8FCF11EA2414 SWAP3 PUSH2 0x3101 SWAP3 DUP10 SWAP2 SWAP1 PUSH2 0x48E5 JUMP JUMPDEST PUSH1 0x40 MLOAD DUP1 SWAP2 SUB SWAP1 LOG2 POP PUSH2 0x19E4 PUSH1 0x1 PUSH1 0xC9 SSTORE JUMP JUMPDEST PUSH2 0x311C PUSH2 0x37E2 JUMP JUMPDEST PUSH1 0x1 PUSH1 0x1 PUSH1 0xA0 SHL SUB DUP4 AND PUSH1 0x0 SWAP1 DUP2 MSTORE PUSH2 0x12F PUSH1 0x20 MSTORE PUSH1 0x40 SWAP1 KECCAK256 PUSH1 0x3 ADD SLOAD PUSH1 0xFF AND PUSH2 0x317B JUMPI PUSH1 0x40 MLOAD PUSH3 0x461BCD PUSH1 0xE5 SHL DUP2 MSTORE PUSH1 0x20 PUSH1 0x4 DUP3 ADD MSTORE PUSH1 0x10 PUSH1 0x24 DUP3 ADD MSTORE PUSH16 0x4167656E74206E6F7420616374697665 PUSH1 0x80 SHL PUSH1 0x44 DUP3 ADD MSTORE PUSH1 0x64 ADD PUSH2 0xE0D JUMP JUMPDEST PUSH1 0x1 PUSH1 0x1 PUSH1 0xA0 SHL SUB DUP4 AND PUSH1 0x0 SWAP1 DUP2 MSTORE PUSH2 0x145 PUSH1 0x20 MSTORE PUSH1 0x40 SWAP1 KECCAK256 PUSH2 0xF34 DUP3 DUP5 DUP4 PUSH2 0x4736 JUMP JUMPDEST PUSH2 0x31A7 PUSH2 0x37E2 JUMP JUMPDEST PUSH2 0x13C SSTORE JUMP JUMPDEST PUSH1 0x40 DUP1 MLOAD PUSH1 0xE0 DUP1 DUP3 ADD DUP4 MSTORE PUSH1 0x0 DUP1 DUP4 MSTORE PUSH1 0x20 DUP1 DUP5 ADD DUP3 SWAP1 MSTORE PUSH1 0x60 DUP5 DUP7 ADD DUP2 SWAP1 MSTORE DUP1 DUP6 ADD DUP4 SWAP1 MSTORE PUSH1 0x80 DUP6 ADD DUP4 SWAP1 MSTORE PUSH1 0xA0 DUP6 ADD DUP4 SWAP1 MSTORE PUSH1 0xC0 DUP6 ADD MSTORE DUP6 DUP3 MSTORE PUSH2 0x132 DUP2 MSTORE SWAP1 DUP5 SWAP1 KECCAK256 DUP5 MLOAD SWAP3 DUP4 ADD DUP6 MSTORE DUP1 SLOAD PUSH1 0x1 PUSH1 0x1 PUSH1 0xA0 SHL SUB SWAP1 DUP2 AND DUP5 MSTORE PUSH1 0x1 DUP3 ADD SLOAD AND SWAP2 DUP4 ADD SWAP2 SWAP1 SWAP2 MSTORE PUSH1 0x2 DUP2 ADD DUP1 SLOAD SWAP4 SWAP5 SWAP3 SWAP4 SWAP2 SWAP3 DUP5 ADD SWAP2 PUSH2 0x322D SWAP1 PUSH2 0x4616 JUMP JUMPDEST DUP1 PUSH1 0x1F ADD PUSH1 0x20 DUP1 SWAP2 DIV MUL PUSH1 0x20 ADD PUSH1 0x40 MLOAD SWAP1 DUP2 ADD PUSH1 0x40 MSTORE DUP1 SWAP3 SWAP2 SWAP1 DUP2 DUP2 MSTORE PUSH1 0x20 ADD DUP3 DUP1 SLOAD PUSH2 0x3259 SWAP1 PUSH2 0x4616 JUMP JUMPDEST DUP1 ISZERO PUSH2 0x32A6 JUMPI DUP1 PUSH1 0x1F LT PUSH2 0x327B JUMPI PUSH2 0x100 DUP1 DUP4 SLOAD DIV MUL DUP4 MSTORE SWAP2 PUSH1 0x20 ADD SWAP2 PUSH2 0x32A6 JUMP JUMPDEST DUP3 ADD SWAP2 SWAP1 PUSH1 0x0 MSTORE PUSH1 0x20 PUSH1 0x0 KECCAK256 SWAP1 JUMPDEST DUP2 SLOAD DUP2 MSTORE SWAP1 PUSH1 0x1 ADD SWAP1 PUSH1 0x20 ADD DUP1 DUP4 GT PUSH2 0x3289 JUMPI DUP3 SWAP1 SUB PUSH1 0x1F AND DUP3 ADD SWAP2 JUMPDEST POP POP POP SWAP2 DUP4 MSTORE POP POP PUSH1 0x3 DUP3 ADD SLOAD PUSH1 0x20 DUP3 ADD MSTORE PUSH1 0x4 DUP3 ADD SLOAD PUSH1 0x40 DUP3 ADD MSTORE PUSH1 0x5 DUP3 ADD SLOAD PUSH1 0xFF AND ISZERO ISZERO PUSH1 0x60 DUP3 ADD MSTORE PUSH1 0x6 DUP3 ADD DUP1 SLOAD PUSH1 0x80 SWAP1 SWAP3 ADD SWAP2 PUSH2 0x32E6 SWAP1 PUSH2 0x4616 JUMP JUMPDEST DUP1 PUSH1 0x1F ADD PUSH1 0x20 DUP1 SWAP2 DIV MUL PUSH1 0x20 ADD PUSH1 0x40 MLOAD SWAP1 DUP2 ADD PUSH1 0x40 MSTORE DUP1 SWAP3 SWAP2 SWAP1 DUP2 DUP2 MSTORE PUSH1 0x20 ADD DUP3 DUP1 SLOAD PUSH2 0x3312 SWAP1 PUSH2 0x4616 JUMP JUMPDEST DUP1 ISZERO PUSH2 0x335F JUMPI DUP1 PUSH1 0x1F LT PUSH2 0x3334 JUMPI PUSH2 0x100 DUP1 DUP4 SLOAD DIV MUL DUP4 MSTORE SWAP2 PUSH1 0x20 ADD SWAP2 PUSH2 0x335F JUMP JUMPDEST DUP3 ADD SWAP2 SWAP1 PUSH1 0x0 MSTORE PUSH1 0x20 PUSH1 0x0 KECCAK256 SWAP1 JUMPDEST DUP2 SLOAD DUP2 MSTORE SWAP1 PUSH1 0x1 ADD SWAP1 PUSH1 0x20 ADD DUP1 DUP4 GT PUSH2 0x3342 JUMPI DUP3 SWAP1 SUB PUSH1 0x1F AND DUP3 ADD SWAP2 JUMPDEST POP POP POP POP POP DUP2 MSTORE POP POP SWAP1 POP SWAP2 SWAP1 POP JUMP JUMPDEST PUSH2 0x3377 PUSH2 0x37E2 JUMP JUMPDEST PUSH1 0x1 PUSH1 0x1 PUSH1 0xA0 SHL SUB DUP2 AND PUSH2 0x33DC JUMPI PUSH1 0x40 MLOAD PUSH3 0x461BCD PUSH1 0xE5 SHL DUP2 MSTORE PUSH1 0x20 PUSH1 0x4 DUP3 ADD MSTORE PUSH1 0x26 PUSH1 0x24 DUP3 ADD MSTORE PUSH32 0x4F776E61626C653A206E6577206F776E657220697320746865207A65726F2061 PUSH1 0x44 DUP3 ADD MSTORE PUSH6 0x646472657373 PUSH1 0xD0 SHL PUSH1 0x64 DUP3 ADD MSTORE PUSH1 0x84 ADD PUSH2 0xE0D JUMP JUMPDEST PUSH2 0xEAA DUP2 PUSH2 0x3B08 JUMP JUMPDEST PUSH2 0x343F PUSH1 0x40 MLOAD DUP1 PUSH2 0x140 ADD PUSH1 0x40 MSTORE DUP1 PUSH1 0x60 DUP2 MSTORE PUSH1 0x20 ADD PUSH1 0x60 DUP2 MSTORE PUSH1 0x20 ADD PUSH1 0x0 DUP2 MSTORE PUSH1 0x20 ADD PUSH1 0x0 ISZERO ISZERO DUP2 MSTORE PUSH1 0x20 ADD PUSH1 0x0 DUP2 MSTORE PUSH1 0x20 ADD PUSH1 0x0 DUP2 MSTORE PUSH1 0x20 ADD PUSH1 0x0 DUP2 MSTORE PUSH1 0x20 ADD PUSH1 0x0 DUP2 MSTORE PUSH1 0x20 ADD PUSH1 0x0 DUP2 MSTORE PUSH1 0x20 ADD PUSH1 0x0 ISZERO ISZERO DUP2 MSTORE POP SWAP1 JUMP JUMPDEST PUSH1 0x1 PUSH1 0x1 PUSH1 0xA0 SHL SUB DUP3 AND PUSH1 0x0 SWAP1 DUP2 MSTORE PUSH2 0x12F PUSH1 0x20 MSTORE PUSH1 0x40 SWAP1 DUP2 SWAP1 KECCAK256 DUP2 MLOAD PUSH2 0x140 DUP2 ADD SWAP1 SWAP3 MSTORE DUP1 SLOAD DUP3 SWAP1 DUP3 SWAP1 PUSH2 0x3473 SWAP1 PUSH2 0x4616 JUMP JUMPDEST DUP1 PUSH1 0x1F ADD PUSH1 0x20 DUP1 SWAP2 DIV MUL PUSH1 0x20 ADD PUSH1 0x40 MLOAD SWAP1 DUP2 ADD PUSH1 0x40 MSTORE DUP1 SWAP3 SWAP2 SWAP1 DUP2 DUP2 MSTORE PUSH1 0x20 ADD DUP3 DUP1 SLOAD PUSH2 0x349F SWAP1 PUSH2 0x4616 JUMP JUMPDEST DUP1 ISZERO PUSH2 0x34EC JUMPI DUP1 PUSH1 0x1F LT PUSH2 0x34C1 JUMPI PUSH2 0x100 DUP1 DUP4 SLOAD DIV MUL DUP4 MSTORE SWAP2 PUSH1 0x20 ADD SWAP2 PUSH2 0x34EC JUMP JUMPDEST DUP3 ADD SWAP2 SWAP1 PUSH1 0x0 MSTORE PUSH1 0x20 PUSH1 0x0 KECCAK256 SWAP1 JUMPDEST DUP2 SLOAD DUP2 MSTORE SWAP1 PUSH1 0x1 ADD SWAP1 PUSH1 0x20 ADD DUP1 DUP4 GT PUSH2 0x34CF JUMPI DUP3 SWAP1 SUB PUSH1 0x1F AND DUP3 ADD SWAP2 JUMPDEST POP POP POP POP POP DUP2 MSTORE PUSH1 0x20 ADD PUSH1 0x1 DUP3 ADD DUP1 SLOAD PUSH2 0x3505 SWAP1 PUSH2 0x4616 JUMP JUMPDEST DUP1 PUSH1 0x1F ADD PUSH1 0x20 DUP1 SWAP2 DIV MUL PUSH1 0x20 ADD PUSH1 0x40 MLOAD SWAP1 DUP2 ADD PUSH1 0x40 MSTORE DUP1 SWAP3 SWAP2 SWAP1 DUP2 DUP2 MSTORE PUSH1 0x20 ADD DUP3 DUP1 SLOAD PUSH2 0x3531 SWAP1 PUSH2 0x4616 JUMP JUMPDEST DUP1 ISZERO PUSH2 0x357E JUMPI DUP1 PUSH1 0x1F LT PUSH2 0x3553 JUMPI PUSH2 0x100 DUP1 DUP4 SLOAD DIV MUL DUP4 MSTORE SWAP2 PUSH1 0x20 ADD SWAP2 PUSH2 0x357E JUMP JUMPDEST DUP3 ADD SWAP2 SWAP1 PUSH1 0x0 MSTORE PUSH1 0x20 PUSH1 0x0 KECCAK256 SWAP1 JUMPDEST DUP2 SLOAD DUP2 MSTORE SWAP1 PUSH1 0x1 ADD SWAP1 PUSH1 0x20 ADD DUP1 DUP4 GT PUSH2 0x3561 JUMPI DUP3 SWAP1 SUB PUSH1 0x1F AND DUP3 ADD SWAP2 JUMPDEST POP POP POP SWAP2 DUP4 MSTORE POP POP PUSH1 0x2 DUP3 ADD SLOAD PUSH1 0x20 DUP3 ADD MSTORE PUSH1 0x3 DUP3 ADD SLOAD PUSH1 0xFF SWAP1 DUP2 AND ISZERO ISZERO PUSH1 0x40 DUP4 ADD MSTORE PUSH1 0x4 DUP4 ADD SLOAD PUSH1 0x60 DUP4 ADD MSTORE PUSH1 0x5 DUP4 ADD SLOAD PUSH1 0x80 DUP4 ADD MSTORE PUSH1 0x6 DUP4 ADD SLOAD PUSH1 0xA0 DUP4 ADD MSTORE PUSH1 0x7 DUP4 ADD SLOAD PUSH1 0xC0 DUP4 ADD MSTORE PUSH1 0x8 DUP4 ADD SLOAD PUSH1 0xE0 DUP4 ADD MSTORE PUSH1 0x9 SWAP1 SWAP3 ADD SLOAD SWAP1 SWAP2 AND ISZERO ISZERO PUSH2 0x100 SWAP1 SWAP2 ADD MSTORE SWAP3 SWAP2 POP POP JUMP JUMPDEST PUSH2 0x35F3 PUSH2 0x37E2 JUMP JUMPDEST PUSH1 0x1 PUSH1 0x1 PUSH1 0xA0 SHL SUB DUP2 AND PUSH2 0x3657 JUMPI PUSH1 0x40 MLOAD PUSH3 0x461BCD PUSH1 0xE5 SHL DUP2 MSTORE PUSH1 0x20 PUSH1 0x4 DUP3 ADD MSTORE PUSH1 0x25 PUSH1 0x24 DUP3 ADD MSTORE PUSH32 0x496E76616C696420766572696669636174696F6E20636F6E7472616374206164 PUSH1 0x44 DUP3 ADD MSTORE PUSH5 0x6472657373 PUSH1 0xD8 SHL PUSH1 0x64 DUP3 ADD MSTORE PUSH1 0x84 ADD PUSH2 0xE0D JUMP JUMPDEST PUSH2 0x12E DUP1 SLOAD PUSH1 0x1 PUSH1 0x1 PUSH1 0xA0 SHL SUB NOT AND PUSH1 0x1 PUSH1 0x1 PUSH1 0xA0 SHL SUB SWAP3 SWAP1 SWAP3 AND SWAP2 SWAP1 SWAP2 OR SWAP1 SSTORE JUMP JUMPDEST PUSH2 0x12F PUSH1 0x20 MSTORE PUSH1 0x0 SWAP1 DUP2 MSTORE PUSH1 0x40 SWAP1 KECCAK256 DUP1 SLOAD DUP2 SWAP1 PUSH2 0x3696 SWAP1 PUSH2 0x4616 JUMP JUMPDEST DUP1 PUSH1 0x1F ADD PUSH1 0x20 DUP1 SWAP2 DIV MUL PUSH1 0x20 ADD PUSH1 0x40 MLOAD SWAP1 DUP2 ADD PUSH1 0x40 MSTORE DUP1 SWAP3 SWAP2 SWAP1 DUP2 DUP2 MSTORE PUSH1 0x20 ADD DUP3 DUP1 SLOAD PUSH2 0x36C2 SWAP1 PUSH2 0x4616 JUMP JUMPDEST DUP1 ISZERO PUSH2 0x370F JUMPI DUP1 PUSH1 0x1F LT PUSH2 0x36E4 JUMPI PUSH2 0x100 DUP1 DUP4 SLOAD DIV MUL DUP4 MSTORE SWAP2 PUSH1 0x20 ADD SWAP2 PUSH2 0x370F JUMP JUMPDEST DUP3 ADD SWAP2 SWAP1 PUSH1 0x0 MSTORE PUSH1 0x20 PUSH1 0x0 KECCAK256 SWAP1 JUMPDEST DUP2 SLOAD DUP2 MSTORE SWAP1 PUSH1 0x1 ADD SWAP1 PUSH1 0x20 ADD DUP1 DUP4 GT PUSH2 0x36F2 JUMPI DUP3 SWAP1 SUB PUSH1 0x1F AND DUP3 ADD SWAP2 JUMPDEST POP POP POP POP POP SWAP1 DUP1 PUSH1 0x1 ADD DUP1 SLOAD PUSH2 0x3724 SWAP1 PUSH2 0x4616 JUMP JUMPDEST DUP1 PUSH1 0x1F ADD PUSH1 0x20 DUP1 SWAP2 DIV MUL PUSH1 0x20 ADD PUSH1 0x40 MLOAD SWAP1 DUP2 ADD PUSH1 0x40 MSTORE DUP1 SWAP3 SWAP2 SWAP1 DUP2 DUP2 MSTORE PUSH1 0x20 ADD DUP3 DUP1 SLOAD PUSH2 0x3750 SWAP1 PUSH2 0x4616 JUMP JUMPDEST DUP1 ISZERO PUSH2 0x379D JUMPI DUP1 PUSH1 0x1F LT PUSH2 0x3772 JUMPI PUSH2 0x100 DUP1 DUP4 SLOAD DIV MUL DUP4 MSTORE SWAP2 PUSH1 0x20 ADD SWAP2 PUSH2 0x379D JUMP JUMPDEST DUP3 ADD SWAP2 SWAP1 PUSH1 0x0 MSTORE PUSH1 0x20 PUSH1 0x0 KECCAK256 SWAP1 JUMPDEST DUP2 SLOAD DUP2 MSTORE SWAP1 PUSH1 0x1 ADD SWAP1 PUSH1 0x20 ADD DUP1 DUP4 GT PUSH2 0x3780 JUMPI DUP3 SWAP1 SUB PUSH1 0x1F AND DUP3 ADD SWAP2 JUMPDEST POP POP POP POP PUSH1 0x2 DUP4 ADD SLOAD PUSH1 0x3 DUP5 ADD SLOAD PUSH1 0x4 DUP6 ADD SLOAD PUSH1 0x5 DUP7 ADD SLOAD PUSH1 0x6 DUP8 ADD SLOAD PUSH1 0x7 DUP9 ADD SLOAD PUSH1 0x8 DUP10 ADD SLOAD PUSH1 0x9 SWAP1 SWAP10 ADD SLOAD SWAP8 SWAP9 SWAP6 SWAP8 PUSH1 0xFF SWAP6 DUP7 AND SWAP8 POP SWAP4 SWAP6 SWAP3 SWAP5 SWAP2 SWAP4 SWAP1 SWAP3 SWAP2 AND DUP11 JUMP JUMPDEST PUSH1 0x97 SLOAD PUSH1 0x1 PUSH1 0x1 PUSH1 0xA0 SHL SUB AND CALLER EQ PUSH2 0xEBD JUMPI PUSH1 0x40 MLOAD PUSH3 0x461BCD PUSH1 0xE5 SHL DUP2 MSTORE PUSH1 0x20 PUSH1 0x4 DUP3 ADD DUP2 SWAP1 MSTORE PUSH1 0x24 DUP3 ADD MSTORE PUSH32 0x4F776E61626C653A2063616C6C6572206973206E6F7420746865206F776E6572 PUSH1 0x44 DUP3 ADD MSTORE PUSH1 0x64 ADD PUSH2 0xE0D JUMP JUMPDEST PUSH2 0xEAA PUSH2 0x37E2 JUMP JUMPDEST PUSH32 0x4910FDFA16FED3260ED0E7147F7CC6DA11A60208B5B9406D12A635614FFD9143 SLOAD PUSH1 0xFF AND ISZERO PUSH2 0x3877 JUMPI PUSH2 0x19E4 DUP4 PUSH2 0x3C5B JUMP JUMPDEST DUP3 PUSH1 0x1 PUSH1 0x1 PUSH1 0xA0 SHL SUB AND PUSH4 0x52D1902D PUSH1 0x40 MLOAD DUP2 PUSH4 0xFFFFFFFF AND PUSH1 0xE0 SHL DUP2 MSTORE PUSH1 0x4 ADD PUSH1 0x20 PUSH1 0x40 MLOAD DUP1 DUP4 SUB DUP2 DUP7 GAS STATICCALL SWAP3 POP POP POP DUP1 ISZERO PUSH2 0x38D1 JUMPI POP PUSH1 0x40 DUP1 MLOAD PUSH1 0x1F RETURNDATASIZE SWAP1 DUP2 ADD PUSH1 0x1F NOT AND DUP3 ADD SWAP1 SWAP3 MSTORE PUSH2 0x38CE SWAP2 DUP2 ADD SWAP1 PUSH2 0x4968 JUMP JUMPDEST PUSH1 0x1 JUMPDEST PUSH2 0x3934 JUMPI PUSH1 0x40 MLOAD PUSH3 0x461BCD PUSH1 0xE5 SHL DUP2 MSTORE PUSH1 0x20 PUSH1 0x4 DUP3 ADD MSTORE PUSH1 0x2E PUSH1 0x24 DUP3 ADD MSTORE PUSH32 0x45524331393637557067726164653A206E657720696D706C656D656E74617469 PUSH1 0x44 DUP3 ADD MSTORE PUSH14 0x6F6E206973206E6F742055555053 PUSH1 0x90 SHL PUSH1 0x64 DUP3 ADD MSTORE PUSH1 0x84 ADD PUSH2 0xE0D JUMP JUMPDEST PUSH1 0x0 DUP1 MLOAD PUSH1 0x20 PUSH2 0x4B55 DUP4 CODECOPY DUP2 MLOAD SWAP2 MSTORE DUP2 EQ PUSH2 0x39A3 JUMPI PUSH1 0x40 MLOAD PUSH3 0x461BCD PUSH1 0xE5 SHL DUP2 MSTORE PUSH1 0x20 PUSH1 0x4 DUP3 ADD MSTORE PUSH1 0x29 PUSH1 0x24 DUP3 ADD MSTORE PUSH32 0x45524331393637557067726164653A20756E737570706F727465642070726F78 PUSH1 0x44 DUP3 ADD MSTORE PUSH9 0x1A58589B1955555251 PUSH1 0xBA SHL PUSH1 0x64 DUP3 ADD MSTORE PUSH1 0x84 ADD PUSH2 0xE0D JUMP JUMPDEST POP PUSH2 0x19E4 DUP4 DUP4 DUP4 PUSH2 0x3CF7 JUMP JUMPDEST PUSH2 0x39B7 PUSH2 0x3D1C JUMP JUMPDEST PUSH1 0xFB DUP1 SLOAD PUSH1 0xFF NOT AND SWAP1 SSTORE PUSH32 0x5DB9EE0A495BF2E6FF9C91A7834C1BA4FDD244A5E8AA4E537BD38AEAE4B073AA CALLER JUMPDEST PUSH1 0x40 MLOAD PUSH1 0x1 PUSH1 0x1 PUSH1 0xA0 SHL SUB SWAP1 SWAP2 AND DUP2 MSTORE PUSH1 0x20 ADD PUSH1 0x40 MLOAD DUP1 SWAP2 SUB SWAP1 LOG1 JUMP JUMPDEST PUSH1 0x2 PUSH1 0xC9 SLOAD SUB PUSH2 0x3A53 JUMPI PUSH1 0x40 MLOAD PUSH3 0x461BCD PUSH1 0xE5 SHL DUP2 MSTORE PUSH1 0x20 PUSH1 0x4 DUP3 ADD MSTORE PUSH1 0x1F PUSH1 0x24 DUP3 ADD MSTORE PUSH32 0x5265656E7472616E637947756172643A207265656E7472616E742063616C6C00 PUSH1 0x44 DUP3 ADD MSTORE PUSH1 0x64 ADD PUSH2 0xE0D JUMP JUMPDEST PUSH1 0x2 PUSH1 0xC9 SSTORE JUMP JUMPDEST PUSH1 0xFB SLOAD PUSH1 0xFF AND ISZERO PUSH2 0xEBD JUMPI PUSH1 0x40 MLOAD PUSH3 0x461BCD PUSH1 0xE5 SHL DUP2 MSTORE PUSH1 0x20 PUSH1 0x4 DUP3 ADD MSTORE PUSH1 0x10 PUSH1 0x24 DUP3 ADD MSTORE PUSH16 0x14185D5CD8589B194E881C185D5CD959 PUSH1 0x82 SHL PUSH1 0x44 DUP3 ADD MSTORE PUSH1 0x64 ADD PUSH2 0xE0D JUMP JUMPDEST PUSH1 0x1 PUSH1 0xC9 SSTORE JUMP JUMPDEST PUSH2 0x13F SLOAD PUSH1 0x0 SUB PUSH2 0x3AB5 JUMPI POP JUMP JUMPDEST DUP1 PUSH2 0x144 PUSH1 0x0 DUP3 DUP3 SLOAD PUSH2 0x3AC8 SWAP2 SWAP1 PUSH2 0x4909 JUMP JUMPDEST SWAP1 SWAP2 SSTORE POP POP PUSH1 0x40 DUP1 MLOAD DUP3 DUP2 MSTORE TIMESTAMP PUSH1 0x20 DUP3 ADD MSTORE PUSH32 0x29E98BA00D07F171959C4DDCD2F3020DEBC7C52CF537A034D7E664340D098C6C SWAP2 ADD PUSH1 0x40 MLOAD DUP1 SWAP2 SUB SWAP1 LOG1 POP JUMP JUMPDEST PUSH1 0x97 DUP1 SLOAD PUSH1 0x1 PUSH1 0x1 PUSH1 0xA0 SHL SUB DUP4 DUP2 AND PUSH1 0x1 PUSH1 0x1 PUSH1 0xA0 SHL SUB NOT DUP4 AND DUP2 OR SWAP1 SWAP4 SSTORE PUSH1 0x40 MLOAD SWAP2 AND SWAP2 SWAP1 DUP3 SWAP1 PUSH32 0x8BE0079C531659141344CD1FD0A4F28419497F9722A3DAAFE3B4186F6B6457E0 SWAP1 PUSH1 0x0 SWAP1 LOG3 POP POP JUMP JUMPDEST PUSH2 0x3B62 PUSH2 0x3A5A JUMP JUMPDEST PUSH1 0xFB DUP1 SLOAD PUSH1 0xFF NOT AND PUSH1 0x1 OR SWAP1 SSTORE PUSH32 0x62E78CEA01BEE320CD4E420270B5EA74000D11B0C9F74754EBDBFC544B05A258 PUSH2 0x39E4 CALLER SWAP1 JUMP JUMPDEST PUSH1 0x0 SLOAD PUSH2 0x100 SWAP1 DIV PUSH1 0xFF AND PUSH2 0x3BBE JUMPI PUSH1 0x40 MLOAD PUSH3 0x461BCD PUSH1 0xE5 SHL DUP2 MSTORE PUSH1 0x4 ADD PUSH2 0xE0D SWAP1 PUSH2 0x4AED JUMP JUMPDEST PUSH2 0xEBD PUSH2 0x3D65 JUMP JUMPDEST PUSH1 0x0 SLOAD PUSH2 0x100 SWAP1 DIV PUSH1 0xFF AND PUSH2 0xEBD JUMPI PUSH1 0x40 MLOAD PUSH3 0x461BCD PUSH1 0xE5 SHL DUP2 MSTORE PUSH1 0x4 ADD PUSH2 0xE0D SWAP1 PUSH2 0x4AED JUMP JUMPDEST PUSH1 0x0 SLOAD PUSH2 0x100 SWAP1 DIV PUSH1 0xFF AND PUSH2 0x3C14 JUMPI PUSH1 0x40 MLOAD PUSH3 0x461BCD PUSH1 0xE5 SHL DUP2 MSTORE PUSH1 0x4 ADD PUSH2 0xE0D SWAP1 PUSH2 0x4AED JUMP JUMPDEST PUSH2 0xEBD PUSH2 0x3D95 JUMP JUMPDEST PUSH1 0x0 SLOAD PUSH2 0x100 SWAP1 DIV PUSH1 0xFF AND PUSH2 0x3C43 JUMPI PUSH1 0x40 MLOAD PUSH3 0x461BCD PUSH1 0xE5 SHL DUP2 MSTORE PUSH1 0x4 ADD PUSH2 0xE0D SWAP1 PUSH2 0x4AED JUMP JUMPDEST PUSH2 0xEBD PUSH2 0x3DBC JUMP JUMPDEST PUSH1 0x0 DUP2 CALLDATALOAD ISZERO ISZERO JUMPDEST SWAP1 POP JUMPDEST SWAP3 SWAP2 POP POP JUMP JUMPDEST PUSH1 0x1 PUSH1 0x1 PUSH1 0xA0 SHL SUB DUP2 AND EXTCODESIZE PUSH2 0x3CC8 JUMPI PUSH1 0x40 MLOAD PUSH3 0x461BCD PUSH1 0xE5 SHL DUP2 MSTORE PUSH1 0x20 PUSH1 0x4 DUP3 ADD MSTORE PUSH1 0x2D PUSH1 0x24 DUP3 ADD MSTORE PUSH32 0x455243313936373A206E657720696D706C656D656E746174696F6E206973206E PUSH1 0x44 DUP3 ADD MSTORE PUSH13 0x1BDD08184818DBDB9D1C9858DD PUSH1 0x9A SHL PUSH1 0x64 DUP3 ADD MSTORE PUSH1 0x84 ADD PUSH2 0xE0D JUMP JUMPDEST PUSH1 0x0 DUP1 MLOAD PUSH1 0x20 PUSH2 0x4B55 DUP4 CODECOPY DUP2 MLOAD SWAP2 MSTORE DUP1 SLOAD PUSH1 0x1 PUSH1 0x1 PUSH1 0xA0 SHL SUB NOT AND PUSH1 0x1 PUSH1 0x1 PUSH1 0xA0 SHL SUB SWAP3 SWAP1 SWAP3 AND SWAP2 SWAP1 SWAP2 OR SWAP1 SSTORE JUMP JUMPDEST PUSH2 0x3D00 DUP4 PUSH2 0x3DEF JUMP JUMPDEST PUSH1 0x0 DUP3 MLOAD GT DUP1 PUSH2 0x3D0D JUMPI POP DUP1 JUMPDEST ISZERO PUSH2 0x19E4 JUMPI PUSH2 0xF34 DUP4 DUP4 PUSH2 0x3E2F JUMP JUMPDEST PUSH1 0xFB SLOAD PUSH1 0xFF AND PUSH2 0xEBD JUMPI PUSH1 0x40 MLOAD PUSH3 0x461BCD PUSH1 0xE5 SHL DUP2 MSTORE PUSH1 0x20 PUSH1 0x4 DUP3 ADD MSTORE PUSH1 0x14 PUSH1 0x24 DUP3 ADD MSTORE PUSH20 0x14185D5CD8589B194E881B9BDD081C185D5CD959 PUSH1 0x62 SHL PUSH1 0x44 DUP3 ADD MSTORE PUSH1 0x64 ADD PUSH2 0xE0D JUMP JUMPDEST PUSH1 0x0 SLOAD PUSH2 0x100 SWAP1 DIV PUSH1 0xFF AND PUSH2 0x3D8C JUMPI PUSH1 0x40 MLOAD PUSH3 0x461BCD PUSH1 0xE5 SHL DUP2 MSTORE PUSH1 0x4 ADD PUSH2 0xE0D SWAP1 PUSH2 0x4AED JUMP JUMPDEST PUSH2 0xEBD CALLER PUSH2 0x3B08 JUMP JUMPDEST PUSH1 0x0 SLOAD PUSH2 0x100 SWAP1 DIV PUSH1 0xFF AND PUSH2 0x3AA0 JUMPI PUSH1 0x40 MLOAD PUSH3 0x461BCD PUSH1 0xE5 SHL DUP2 MSTORE PUSH1 0x4 ADD PUSH2 0xE0D SWAP1 PUSH2 0x4AED JUMP JUMPDEST PUSH1 0x0 SLOAD PUSH2 0x100 SWAP1 DIV PUSH1 0xFF AND PUSH2 0x3DE3 JUMPI PUSH1 0x40 MLOAD PUSH3 0x461BCD PUSH1 0xE5 SHL DUP2 MSTORE PUSH1 0x4 ADD PUSH2 0xE0D SWAP1 PUSH2 0x4AED JUMP JUMPDEST PUSH1 0xFB DUP1 SLOAD PUSH1 0xFF NOT AND SWAP1 SSTORE JUMP JUMPDEST PUSH2 0x3DF8 DUP2 PUSH2 0x3C5B JUMP JUMPDEST PUSH1 0x40 MLOAD PUSH1 0x1 PUSH1 0x1 PUSH1 0xA0 SHL SUB DUP3 AND SWAP1 PUSH32 0xBC7CD75A20EE27FD9ADEBAB32041F755214DBC6BFFA90CC0225B39DA2E5C2D3B SWAP1 PUSH1 0x0 SWAP1 LOG2 POP JUMP JUMPDEST PUSH1 0x60 PUSH2 0x3C52 DUP4 DUP4 PUSH1 0x40 MLOAD DUP1 PUSH1 0x60 ADD PUSH1 0x40 MSTORE DUP1 PUSH1 0x27 DUP2 MSTORE PUSH1 0x20 ADD PUSH2 0x4B75 PUSH1 0x27 SWAP2 CODECOPY PUSH1 0x60 PUSH1 0x0 DUP1 DUP6 PUSH1 0x1 PUSH1 0x1 PUSH1 0xA0 SHL SUB AND DUP6 PUSH1 0x40 MLOAD PUSH2 0x3E6C SWAP2 SWAP1 PUSH2 0x4B38 JUMP JUMPDEST PUSH1 0x0 PUSH1 0x40 MLOAD DUP1 DUP4 SUB DUP2 DUP6 GAS DELEGATECALL SWAP2 POP POP RETURNDATASIZE DUP1 PUSH1 0x0 DUP2 EQ PUSH2 0x3EA7 JUMPI PUSH1 0x40 MLOAD SWAP2 POP PUSH1 0x1F NOT PUSH1 0x3F RETURNDATASIZE ADD AND DUP3 ADD PUSH1 0x40 MSTORE RETURNDATASIZE DUP3 MSTORE RETURNDATASIZE PUSH1 0x0 PUSH1 0x20 DUP5 ADD RETURNDATACOPY PUSH2 0x3EAC JUMP JUMPDEST PUSH1 0x60 SWAP2 POP JUMPDEST POP SWAP2 POP SWAP2 POP PUSH2 0x3EBD DUP7 DUP4 DUP4 DUP8 PUSH2 0x3EC7 JUMP JUMPDEST SWAP7 SWAP6 POP POP POP POP POP POP JUMP JUMPDEST PUSH1 0x60 DUP4 ISZERO PUSH2 0x3F36 JUMPI DUP3 MLOAD PUSH1 0x0 SUB PUSH2 0x3F2F JUMPI PUSH1 0x1 PUSH1 0x1 PUSH1 0xA0 SHL SUB DUP6 AND EXTCODESIZE PUSH2 0x3F2F JUMPI PUSH1 0x40 MLOAD PUSH3 0x461BCD PUSH1 0xE5 SHL DUP2 MSTORE PUSH1 0x20 PUSH1 0x4 DUP3 ADD MSTORE PUSH1 0x1D PUSH1 0x24 DUP3 ADD MSTORE PUSH32 0x416464726573733A2063616C6C20746F206E6F6E2D636F6E7472616374000000 PUSH1 0x44 DUP3 ADD MSTORE PUSH1 0x64 ADD PUSH2 0xE0D JUMP JUMPDEST POP DUP2 PUSH2 0x3F40 JUMP JUMPDEST PUSH2 0x3F40 DUP4 DUP4 PUSH2 0x3F48 JUMP JUMPDEST SWAP5 SWAP4 POP POP POP POP JUMP JUMPDEST DUP2 MLOAD ISZERO PUSH2 0x3F58 JUMPI DUP2 MLOAD DUP1 DUP4 PUSH1 0x20 ADD REVERT JUMPDEST DUP1 PUSH1 0x40 MLOAD PUSH3 0x461BCD PUSH1 0xE5 SHL DUP2 MSTORE PUSH1 0x4 ADD PUSH2 0xE0D SWAP2 SWAP1 PUSH2 0x4043 JUMP JUMPDEST PUSH1 0x0 PUSH1 0x20 DUP3 DUP5 SUB SLT ISZERO PUSH2 0x3F84 JUMPI PUSH1 0x0 DUP1 REVERT JUMPDEST POP CALLDATALOAD SWAP2 SWAP1 POP JUMP JUMPDEST PUSH1 0x0 JUMPDEST DUP4 DUP2 LT ISZERO PUSH2 0x3FA6 JUMPI DUP2 DUP2 ADD MLOAD DUP4 DUP3 ADD MSTORE PUSH1 0x20 ADD PUSH2 0x3F8E JUMP JUMPDEST POP POP PUSH1 0x0 SWAP2 ADD MSTORE JUMP JUMPDEST PUSH1 0x0 DUP2 MLOAD DUP1 DUP5 MSTORE PUSH2 0x3FC7 DUP2 PUSH1 0x20 DUP7 ADD PUSH1 0x20 DUP7 ADD PUSH2 0x3F8B JUMP JUMPDEST PUSH1 0x1F ADD PUSH1 0x1F NOT AND SWAP3 SWAP1 SWAP3 ADD PUSH1 0x20 ADD SWAP3 SWAP2 POP POP JUMP JUMPDEST PUSH1 0x20 DUP2 MSTORE PUSH1 0x0 PUSH1 0x1 DUP1 PUSH1 0xA0 SHL SUB DUP1 DUP5 MLOAD AND PUSH1 0x20 DUP5 ADD MSTORE DUP1 PUSH1 0x20 DUP6 ADD MLOAD AND PUSH1 0x40 DUP5 ADD MSTORE POP PUSH1 0x40 DUP4 ADD MLOAD PUSH1 0xC0 PUSH1 0x60 DUP5 ADD MSTORE PUSH2 0x4017 PUSH1 0xE0 DUP5 ADD DUP3 PUSH2 0x3FAF JUMP JUMPDEST SWAP1 POP PUSH1 0x60 DUP5 ADD MLOAD PUSH1 0x80 DUP5 ADD MSTORE PUSH1 0x80 DUP5 ADD MLOAD ISZERO ISZERO PUSH1 0xA0 DUP5 ADD MSTORE PUSH1 0xA0 DUP5 ADD MLOAD PUSH1 0xC0 DUP5 ADD MSTORE DUP1 SWAP2 POP POP SWAP3 SWAP2 POP POP JUMP JUMPDEST PUSH1 0x20 DUP2 MSTORE PUSH1 0x0 PUSH2 0x3C52 PUSH1 0x20 DUP4 ADD DUP5 PUSH2 0x3FAF JUMP JUMPDEST PUSH1 0x1 PUSH1 0x1 PUSH1 0xA0 SHL SUB DUP8 DUP2 AND DUP3 MSTORE DUP7 AND PUSH1 0x20 DUP3 ADD MSTORE PUSH1 0xC0 PUSH1 0x40 DUP3 ADD DUP2 SWAP1 MSTORE PUSH1 0x0 SWAP1 PUSH2 0x4082 SWAP1 DUP4 ADD DUP8 PUSH2 0x3FAF JUMP JUMPDEST PUSH1 0x60 DUP4 ADD SWAP6 SWAP1 SWAP6 MSTORE POP SWAP2 ISZERO ISZERO PUSH1 0x80 DUP4 ADD MSTORE PUSH1 0xA0 SWAP1 SWAP2 ADD MSTORE SWAP4 SWAP3 POP POP POP JUMP JUMPDEST DUP1 CALLDATALOAD PUSH1 0x1 PUSH1 0x1 PUSH1 0xA0 SHL SUB DUP2 AND DUP2 EQ PUSH2 0x40B7 JUMPI PUSH1 0x0 DUP1 REVERT JUMPDEST SWAP2 SWAP1 POP JUMP JUMPDEST PUSH1 0x0 PUSH1 0x20 DUP3 DUP5 SUB SLT ISZERO PUSH2 0x40CE JUMPI PUSH1 0x0 DUP1 REVERT JUMPDEST PUSH2 0x3C52 DUP3 PUSH2 0x40A0 JUMP JUMPDEST PUSH1 0x0 DUP1 DUP4 PUSH1 0x1F DUP5 ADD SLT PUSH2 0x40E9 JUMPI PUSH1 0x0 DUP1 REVERT JUMPDEST POP DUP2 CALLDATALOAD PUSH8 0xFFFFFFFFFFFFFFFF DUP2 GT ISZERO PUSH2 0x4101 JUMPI PUSH1 0x0 DUP1 REVERT JUMPDEST PUSH1 0x20 DUP4 ADD SWAP2 POP DUP4 PUSH1 0x20 DUP3 DUP6 ADD ADD GT ISZERO PUSH2 0x4119 JUMPI PUSH1 0x0 DUP1 REVERT JUMPDEST SWAP3 POP SWAP3 SWAP1 POP JUMP JUMPDEST PUSH1 0x0 DUP1 PUSH1 0x0 PUSH1 0x40 DUP5 DUP7 SUB SLT ISZERO PUSH2 0x4135 JUMPI PUSH1 0x0 DUP1 REVERT JUMPDEST DUP4 CALLDATALOAD SWAP3 POP PUSH1 0x20 DUP5 ADD CALLDATALOAD PUSH8 0xFFFFFFFFFFFFFFFF DUP2 GT ISZERO PUSH2 0x4153 JUMPI PUSH1 0x0 DUP1 REVERT JUMPDEST PUSH2 0x415F DUP7 DUP3 DUP8 ADD PUSH2 0x40D7 JUMP JUMPDEST SWAP5 SWAP8 SWAP1 SWAP7 POP SWAP4 SWAP5 POP POP POP POP JUMP JUMPDEST PUSH4 0x4E487B71 PUSH1 0xE0 SHL PUSH1 0x0 MSTORE PUSH1 0x41 PUSH1 0x4 MSTORE PUSH1 0x24 PUSH1 0x0 REVERT JUMPDEST PUSH1 0x0 PUSH8 0xFFFFFFFFFFFFFFFF DUP1 DUP5 GT ISZERO PUSH2 0x419D JUMPI PUSH2 0x419D PUSH2 0x416C JUMP JUMPDEST PUSH1 0x40 MLOAD PUSH1 0x1F DUP6 ADD PUSH1 0x1F NOT SWAP1 DUP2 AND PUSH1 0x3F ADD AND DUP2 ADD SWAP1 DUP3 DUP3 GT DUP2 DUP4 LT OR ISZERO PUSH2 0x41C5 JUMPI PUSH2 0x41C5 PUSH2 0x416C JUMP JUMPDEST DUP2 PUSH1 0x40 MSTORE DUP1 SWAP4 POP DUP6 DUP2 MSTORE DUP7 DUP7 DUP7 ADD GT ISZERO PUSH2 0x41DE JUMPI PUSH1 0x0 DUP1 REVERT JUMPDEST DUP6 DUP6 PUSH1 0x20 DUP4 ADD CALLDATACOPY PUSH1 0x0 PUSH1 0x20 DUP8 DUP4 ADD ADD MSTORE POP POP POP SWAP4 SWAP3 POP POP POP JUMP JUMPDEST PUSH1 0x0 DUP1 PUSH1 0x40 DUP4 DUP6 SUB SLT ISZERO PUSH2 0x420B JUMPI PUSH1 0x0 DUP1 REVERT JUMPDEST PUSH2 0x4214 DUP4 PUSH2 0x40A0 JUMP JUMPDEST SWAP2 POP PUSH1 0x20 DUP4 ADD CALLDATALOAD PUSH8 0xFFFFFFFFFFFFFFFF DUP2 GT ISZERO PUSH2 0x4230 JUMPI PUSH1 0x0 DUP1 REVERT JUMPDEST DUP4 ADD PUSH1 0x1F DUP2 ADD DUP6 SGT PUSH2 0x4241 JUMPI PUSH1 0x0 DUP1 REVERT JUMPDEST PUSH2 0x4250 DUP6 DUP3 CALLDATALOAD PUSH1 0x20 DUP5 ADD PUSH2 0x4182 JUMP JUMPDEST SWAP2 POP POP SWAP3 POP SWAP3 SWAP1 POP JUMP JUMPDEST PUSH1 0x0 DUP1 PUSH1 0x0 DUP1 PUSH1 0x60 DUP6 DUP8 SUB SLT ISZERO PUSH2 0x4270 JUMPI PUSH1 0x0 DUP1 REVERT JUMPDEST PUSH2 0x4279 DUP6 PUSH2 0x40A0 JUMP JUMPDEST SWAP4 POP PUSH1 0x20 DUP6 ADD CALLDATALOAD PUSH8 0xFFFFFFFFFFFFFFFF DUP2 GT ISZERO PUSH2 0x4295 JUMPI PUSH1 0x0 DUP1 REVERT JUMPDEST PUSH2 0x42A1 DUP8 DUP3 DUP9 ADD PUSH2 0x40D7 JUMP JUMPDEST SWAP6 SWAP9 SWAP1 SWAP8 POP SWAP5 SWAP6 PUSH1 0x40 ADD CALLDATALOAD SWAP5 SWAP4 POP POP POP POP JUMP JUMPDEST PUSH1 0x0 DUP1 PUSH1 0x40 DUP4 DUP6 SUB SLT ISZERO PUSH2 0x42C7 JUMPI PUSH1 0x0 DUP1 REVERT JUMPDEST PUSH2 0x42D0 DUP4 PUSH2 0x40A0 JUMP JUMPDEST SWAP5 PUSH1 0x20 SWAP4 SWAP1 SWAP4 ADD CALLDATALOAD SWAP4 POP POP POP JUMP JUMPDEST PUSH1 0x0 PUSH1 0x20 DUP3 DUP5 SUB SLT ISZERO PUSH2 0x42F0 JUMPI PUSH1 0x0 DUP1 REVERT JUMPDEST DUP2 CALLDATALOAD PUSH8 0xFFFFFFFFFFFFFFFF DUP2 GT ISZERO PUSH2 0x4307 JUMPI PUSH1 0x0 DUP1 REVERT JUMPDEST DUP3 ADD PUSH1 0x1F DUP2 ADD DUP5 SGT PUSH2 0x4318 JUMPI PUSH1 0x0 DUP1 REVERT JUMPDEST PUSH2 0x3F40 DUP5 DUP3 CALLDATALOAD PUSH1 0x20 DUP5 ADD PUSH2 0x4182 JUMP JUMPDEST PUSH1 0x1 PUSH1 0x1 PUSH1 0xA0 SHL SUB DUP9 DUP2 AND DUP3 MSTORE DUP8 AND PUSH1 0x20 DUP3 ADD MSTORE PUSH1 0xE0 PUSH1 0x40 DUP3 ADD DUP2 SWAP1 MSTORE PUSH1 0x0 SWAP1 PUSH2 0x4353 SWAP1 DUP4 ADD DUP9 PUSH2 0x3FAF JUMP JUMPDEST DUP7 PUSH1 0x60 DUP5 ADD MSTORE DUP6 PUSH1 0x80 DUP5 ADD MSTORE DUP5 ISZERO ISZERO PUSH1 0xA0 DUP5 ADD MSTORE DUP3 DUP2 SUB PUSH1 0xC0 DUP5 ADD MSTORE PUSH2 0x4379 DUP2 DUP6 PUSH2 0x3FAF JUMP JUMPDEST SWAP11 SWAP10 POP POP POP POP POP POP POP POP POP POP JUMP JUMPDEST PUSH1 0x0 DUP1 PUSH2 0x120 DUP1 DUP5 DUP7 SUB SLT ISZERO PUSH2 0x439C JUMPI PUSH1 0x0 DUP1 REVERT JUMPDEST PUSH2 0x43A5 DUP5 PUSH2 0x40A0 JUMP JUMPDEST SWAP3 POP DUP5 DUP2 DUP6 ADD GT ISZERO PUSH2 0x43B6 JUMPI PUSH1 0x0 DUP1 REVERT JUMPDEST POP PUSH1 0x20 DUP4 ADD SWAP1 POP SWAP3 POP SWAP3 SWAP1 POP JUMP JUMPDEST PUSH1 0x0 DUP1 PUSH1 0x0 DUP1 PUSH1 0x0 PUSH1 0x60 DUP7 DUP9 SUB SLT ISZERO PUSH2 0x43DC JUMPI PUSH1 0x0 DUP1 REVERT JUMPDEST DUP6 CALLDATALOAD PUSH8 0xFFFFFFFFFFFFFFFF DUP1 DUP3 GT ISZERO PUSH2 0x43F4 JUMPI PUSH1 0x0 DUP1 REVERT JUMPDEST PUSH2 0x4400 DUP10 DUP4 DUP11 ADD PUSH2 0x40D7 JUMP JUMPDEST SWAP1 SWAP8 POP SWAP6 POP PUSH1 0x20 DUP9 ADD CALLDATALOAD SWAP2 POP DUP1 DUP3 GT ISZERO PUSH2 0x4419 JUMPI PUSH1 0x0 DUP1 REVERT JUMPDEST POP PUSH2 0x4426 DUP9 DUP3 DUP10 ADD PUSH2 0x40D7 JUMP JUMPDEST SWAP7 SWAP10 SWAP6 SWAP9 POP SWAP7 PUSH1 0x40 ADD CALLDATALOAD SWAP5 SWAP4 POP POP POP POP JUMP JUMPDEST PUSH1 0x0 DUP1 PUSH1 0x0 PUSH1 0x40 DUP5 DUP7 SUB SLT ISZERO PUSH2 0x444D JUMPI PUSH1 0x0 DUP1 REVERT JUMPDEST PUSH2 0x4456 DUP5 PUSH2 0x40A0 JUMP JUMPDEST SWAP3 POP PUSH1 0x20 DUP5 ADD CALLDATALOAD PUSH8 0xFFFFFFFFFFFFFFFF DUP2 GT ISZERO PUSH2 0x4153 JUMPI PUSH1 0x0 DUP1 REVERT JUMPDEST PUSH1 0x20 DUP2 MSTORE PUSH1 0x0 PUSH1 0x1 DUP1 PUSH1 0xA0 SHL SUB DUP1 DUP5 MLOAD AND PUSH1 0x20 DUP5 ADD MSTORE DUP1 PUSH1 0x20 DUP6 ADD MLOAD AND PUSH1 0x40 DUP5 ADD MSTORE POP PUSH1 0x40 DUP4 ADD MLOAD PUSH1 0xE0 PUSH1 0x60 DUP5 ADD MSTORE PUSH2 0x44AF PUSH2 0x100 DUP5 ADD DUP3 PUSH2 0x3FAF JUMP JUMPDEST SWAP1 POP PUSH1 0x60 DUP5 ADD MLOAD PUSH1 0x80 DUP5 ADD MSTORE PUSH1 0x80 DUP5 ADD MLOAD PUSH1 0xA0 DUP5 ADD MSTORE PUSH1 0xA0 DUP5 ADD MLOAD ISZERO ISZERO PUSH1 0xC0 DUP5 ADD MSTORE PUSH1 0xC0 DUP5 ADD MLOAD PUSH1 0x1F NOT DUP5 DUP4 SUB ADD PUSH1 0xE0 DUP6 ADD MSTORE PUSH2 0x44EC DUP3 DUP3 PUSH2 0x3FAF JUMP JUMPDEST SWAP6 SWAP5 POP POP POP POP POP JUMP JUMPDEST PUSH1 0x20 DUP2 MSTORE PUSH1 0x0 DUP3 MLOAD PUSH2 0x140 DUP1 PUSH1 0x20 DUP6 ADD MSTORE PUSH2 0x4514 PUSH2 0x160 DUP6 ADD DUP4 PUSH2 0x3FAF JUMP JUMPDEST SWAP2 POP PUSH1 0x20 DUP6 ADD MLOAD PUSH1 0x1F NOT DUP6 DUP5 SUB ADD PUSH1 0x40 DUP7 ADD MSTORE PUSH2 0x4531 DUP4 DUP3 PUSH2 0x3FAF JUMP JUMPDEST SWAP3 POP POP PUSH1 0x40 DUP6 ADD MLOAD PUSH1 0x60 DUP6 ADD MSTORE PUSH1 0x60 DUP6 ADD MLOAD PUSH2 0x4551 PUSH1 0x80 DUP7 ADD DUP3 ISZERO ISZERO SWAP1 MSTORE JUMP JUMPDEST POP PUSH1 0x80 DUP6 ADD MLOAD PUSH1 0xA0 DUP6 ADD MSTORE PUSH1 0xA0 DUP6 ADD MLOAD PUSH1 0xC0 DUP6 ADD MSTORE PUSH1 0xC0 DUP6 ADD MLOAD PUSH1 0xE0 DUP6 ADD MSTORE PUSH1 0xE0 DUP6 ADD MLOAD PUSH2 0x100 DUP2 DUP2 DUP8 ADD MSTORE DUP1 DUP8 ADD MLOAD SWAP2 POP POP PUSH2 0x120 DUP2 DUP2 DUP8 ADD MSTORE DUP1 DUP8 ADD MLOAD SWAP2 POP POP PUSH2 0x45A0 DUP3 DUP7 ADD DUP3 ISZERO ISZERO SWAP1 MSTORE JUMP JUMPDEST POP SWAP1 SWAP5 SWAP4 POP POP POP POP JUMP JUMPDEST PUSH1 0x0 PUSH2 0x140 DUP1 DUP4 MSTORE PUSH2 0x45BE DUP2 DUP5 ADD DUP15 PUSH2 0x3FAF JUMP JUMPDEST SWAP1 POP DUP3 DUP2 SUB PUSH1 0x20 DUP5 ADD MSTORE PUSH2 0x45D2 DUP2 DUP14 PUSH2 0x3FAF JUMP JUMPDEST PUSH1 0x40 DUP5 ADD SWAP12 SWAP1 SWAP12 MSTORE POP POP SWAP7 ISZERO ISZERO PUSH1 0x60 DUP9 ADD MSTORE PUSH1 0x80 DUP8 ADD SWAP6 SWAP1 SWAP6 MSTORE PUSH1 0xA0 DUP7 ADD SWAP4 SWAP1 SWAP4 MSTORE PUSH1 0xC0 DUP6 ADD SWAP2 SWAP1 SWAP2 MSTORE PUSH1 0xE0 DUP5 ADD MSTORE PUSH2 0x100 DUP4 ADD MSTORE ISZERO ISZERO PUSH2 0x120 SWAP1 SWAP2 ADD MSTORE SWAP3 SWAP2 POP POP JUMP JUMPDEST PUSH1 0x1 DUP2 DUP2 SHR SWAP1 DUP3 AND DUP1 PUSH2 0x462A JUMPI PUSH1 0x7F DUP3 AND SWAP2 POP JUMPDEST PUSH1 0x20 DUP3 LT DUP2 SUB PUSH2 0x464A JUMPI PUSH4 0x4E487B71 PUSH1 0xE0 SHL PUSH1 0x0 MSTORE PUSH1 0x22 PUSH1 0x4 MSTORE PUSH1 0x24 PUSH1 0x0 REVERT JUMPDEST POP SWAP2 SWAP1 POP JUMP JUMPDEST PUSH1 0x20 DUP1 DUP3 MSTORE PUSH1 0x2C SWAP1 DUP3 ADD MSTORE PUSH32 0x46756E6374696F6E206D7573742062652063616C6C6564207468726F75676820 PUSH1 0x40 DUP3 ADD MSTORE PUSH12 0x19195B1959D85D1958D85B1B PUSH1 0xA2 SHL PUSH1 0x60 DUP3 ADD MSTORE PUSH1 0x80 ADD SWAP1 JUMP JUMPDEST PUSH1 0x20 DUP1 DUP3 MSTORE PUSH1 0x2C SWAP1 DUP3 ADD MSTORE PUSH32 0x46756E6374696F6E206D7573742062652063616C6C6564207468726F75676820 PUSH1 0x40 DUP3 ADD MSTORE PUSH12 0x6163746976652070726F7879 PUSH1 0xA0 SHL PUSH1 0x60 DUP3 ADD MSTORE PUSH1 0x80 ADD SWAP1 JUMP JUMPDEST PUSH1 0x1F DUP3 GT ISZERO PUSH2 0x19E4 JUMPI PUSH1 0x0 DUP2 DUP2 MSTORE PUSH1 0x20 DUP2 KECCAK256 PUSH1 0x1F DUP6 ADD PUSH1 0x5 SHR DUP2 ADD PUSH1 0x20 DUP7 LT ISZERO PUSH2 0x470F JUMPI POP DUP1 JUMPDEST PUSH1 0x1F DUP6 ADD PUSH1 0x5 SHR DUP3 ADD SWAP2 POP JUMPDEST DUP2 DUP2 LT ISZERO PUSH2 0x472E JUMPI DUP3 DUP2 SSTORE PUSH1 0x1 ADD PUSH2 0x471B JUMP JUMPDEST POP POP POP POP POP POP JUMP JUMPDEST PUSH8 0xFFFFFFFFFFFFFFFF DUP4 GT ISZERO PUSH2 0x474E JUMPI PUSH2 0x474E PUSH2 0x416C JUMP JUMPDEST PUSH2 0x4762 DUP4 PUSH2 0x475C DUP4 SLOAD PUSH2 0x4616 JUMP JUMPDEST DUP4 PUSH2 0x46E8 JUMP JUMPDEST PUSH1 0x0 PUSH1 0x1F DUP5 GT PUSH1 0x1 DUP2 EQ PUSH2 0x4796 JUMPI PUSH1 0x0 DUP6 ISZERO PUSH2 0x477E JUMPI POP DUP4 DUP3 ADD CALLDATALOAD JUMPDEST PUSH1 0x0 NOT PUSH1 0x3 DUP8 SWAP1 SHL SHR NOT AND PUSH1 0x1 DUP7 SWAP1 SHL OR DUP4 SSTORE PUSH2 0x2C40 JUMP JUMPDEST PUSH1 0x0 DUP4 DUP2 MSTORE PUSH1 0x20 SWAP1 KECCAK256 PUSH1 0x1F NOT DUP7 AND SWAP1 DUP4 JUMPDEST DUP3 DUP2 LT ISZERO PUSH2 0x47C7 JUMPI DUP7 DUP6 ADD CALLDATALOAD DUP3 SSTORE PUSH1 0x20 SWAP5 DUP6 ADD SWAP5 PUSH1 0x1 SWAP1 SWAP3 ADD SWAP2 ADD PUSH2 0x47A7 JUMP JUMPDEST POP DUP7 DUP3 LT ISZERO PUSH2 0x47E4 JUMPI PUSH1 0x0 NOT PUSH1 0xF8 DUP9 PUSH1 0x3 SHL AND SHR NOT DUP5 DUP8 ADD CALLDATALOAD AND DUP2 SSTORE JUMPDEST POP POP PUSH1 0x1 DUP6 PUSH1 0x1 SHL ADD DUP4 SSTORE POP POP POP POP POP JUMP JUMPDEST DUP2 MLOAD PUSH8 0xFFFFFFFFFFFFFFFF DUP2 GT ISZERO PUSH2 0x4810 JUMPI PUSH2 0x4810 PUSH2 0x416C JUMP JUMPDEST PUSH2 0x4824 DUP2 PUSH2 0x481E DUP5 SLOAD PUSH2 0x4616 JUMP JUMPDEST DUP5 PUSH2 0x46E8 JUMP JUMPDEST PUSH1 0x20 DUP1 PUSH1 0x1F DUP4 GT PUSH1 0x1 DUP2 EQ PUSH2 0x4859 JUMPI PUSH1 0x0 DUP5 ISZERO PUSH2 0x4841 JUMPI POP DUP6 DUP4 ADD MLOAD JUMPDEST PUSH1 0x0 NOT PUSH1 0x3 DUP7 SWAP1 SHL SHR NOT AND PUSH1 0x1 DUP6 SWAP1 SHL OR DUP6 SSTORE PUSH2 0x472E JUMP JUMPDEST PUSH1 0x0 DUP6 DUP2 MSTORE PUSH1 0x20 DUP2 KECCAK256 PUSH1 0x1F NOT DUP7 AND SWAP2 JUMPDEST DUP3 DUP2 LT ISZERO PUSH2 0x4888 JUMPI DUP9 DUP7 ADD MLOAD DUP3 SSTORE SWAP5 DUP5 ADD SWAP5 PUSH1 0x1 SWAP1 SWAP2 ADD SWAP1 DUP5 ADD PUSH2 0x4869 JUMP JUMPDEST POP DUP6 DUP3 LT ISZERO PUSH2 0x48A6 JUMPI DUP8 DUP6 ADD MLOAD PUSH1 0x0 NOT PUSH1 0x3 DUP9 SWAP1 SHL PUSH1 0xF8 AND SHR NOT AND DUP2 SSTORE JUMPDEST POP POP POP POP POP PUSH1 0x1 SWAP1 DUP2 SHL ADD SWAP1 SSTORE POP JUMP JUMPDEST PUSH4 0x4E487B71 PUSH1 0xE0 SHL PUSH1 0x0 MSTORE PUSH1 0x11 PUSH1 0x4 MSTORE PUSH1 0x24 PUSH1 0x0 REVERT JUMPDEST PUSH1 0x0 PUSH1 0x1 DUP3 ADD PUSH2 0x48DE JUMPI PUSH2 0x48DE PUSH2 0x48B6 JUMP JUMPDEST POP PUSH1 0x1 ADD SWAP1 JUMP JUMPDEST PUSH1 0x1 PUSH1 0x1 PUSH1 0xA0 SHL SUB SWAP4 DUP5 AND DUP2 MSTORE SWAP2 SWAP1 SWAP3 AND PUSH1 0x20 DUP3 ADD MSTORE PUSH1 0x40 DUP2 ADD SWAP2 SWAP1 SWAP2 MSTORE PUSH1 0x60 ADD SWAP1 JUMP JUMPDEST DUP1 DUP3 ADD DUP1 DUP3 GT ISZERO PUSH2 0x3C55 JUMPI PUSH2 0x3C55 PUSH2 0x48B6 JUMP JUMPDEST DUP2 DUP2 SUB DUP2 DUP2 GT ISZERO PUSH2 0x3C55 JUMPI PUSH2 0x3C55 PUSH2 0x48B6 JUMP JUMPDEST DUP1 DUP3 MUL DUP2 ISZERO DUP3 DUP3 DIV DUP5 EQ OR PUSH2 0x3C55 JUMPI PUSH2 0x3C55 PUSH2 0x48B6 JUMP JUMPDEST PUSH1 0x0 DUP3 PUSH2 0x4963 JUMPI PUSH4 0x4E487B71 PUSH1 0xE0 SHL PUSH1 0x0 MSTORE PUSH1 0x12 PUSH1 0x4 MSTORE PUSH1 0x24 PUSH1 0x0 REVERT JUMPDEST POP DIV SWAP1 JUMP JUMPDEST PUSH1 0x0 PUSH1 0x20 DUP3 DUP5 SUB SLT ISZERO PUSH2 0x497A JUMPI PUSH1 0x0 DUP1 REVERT JUMPDEST POP MLOAD SWAP2 SWAP1 POP JUMP JUMPDEST PUSH1 0x0 PUSH1 0x20 DUP3 DUP5 SUB SLT ISZERO PUSH2 0x4993 JUMPI PUSH1 0x0 DUP1 REVERT JUMPDEST DUP2 MLOAD DUP1 ISZERO ISZERO DUP2 EQ PUSH2 0x49A3 JUMPI PUSH1 0x0 DUP1 REVERT JUMPDEST SWAP4 SWAP3 POP POP POP JUMP JUMPDEST PUSH1 0x20 DUP1 DUP3 MSTORE PUSH1 0x15 SWAP1 DUP3 ADD MSTORE PUSH21 0x151BDAD95B881D1C985B9CD9995C8819985A5B1959 PUSH1 0x5A SHL PUSH1 0x40 DUP3 ADD MSTORE PUSH1 0x60 ADD SWAP1 JUMP JUMPDEST PUSH1 0x40 DUP2 MSTORE DUP3 PUSH1 0x40 DUP3 ADD MSTORE DUP3 DUP5 PUSH1 0x60 DUP4 ADD CALLDATACOPY PUSH1 0x0 PUSH1 0x60 DUP5 DUP4 ADD ADD MSTORE PUSH1 0x0 PUSH1 0x60 PUSH1 0x1F NOT PUSH1 0x1F DUP7 ADD AND DUP4 ADD ADD SWAP1 POP DUP3 PUSH1 0x20 DUP4 ADD MSTORE SWAP5 SWAP4 POP POP POP POP JUMP JUMPDEST PUSH1 0x0 PUSH1 0x1 PUSH1 0xFF SHL DUP3 ADD PUSH2 0x4A27 JUMPI PUSH2 0x4A27 PUSH2 0x48B6 JUMP JUMPDEST POP PUSH1 0x0 SUB SWAP1 JUMP JUMPDEST PUSH4 0x4E487B71 PUSH1 0xE0 SHL PUSH1 0x0 MSTORE PUSH1 0x32 PUSH1 0x4 MSTORE PUSH1 0x24 PUSH1 0x0 REVERT JUMPDEST PUSH1 0x20 DUP1 DUP3 MSTORE PUSH1 0x14 SWAP1 DUP3 ADD MSTORE PUSH20 0x1059D95B9D081B9BDD081C9959DA5CDD195C9959 PUSH1 0x62 SHL PUSH1 0x40 DUP3 ADD MSTORE PUSH1 0x60 ADD SWAP1 JUMP JUMPDEST PUSH4 0x4E487B71 PUSH1 0xE0 SHL PUSH1 0x0 MSTORE PUSH1 0x31 PUSH1 0x4 MSTORE PUSH1 0x24 PUSH1 0x0 REVERT JUMPDEST PUSH1 0x0 DUP2 PUSH2 0x4A97 JUMPI PUSH2 0x4A97 PUSH2 0x48B6 JUMP JUMPDEST POP PUSH1 0x0 NOT ADD SWAP1 JUMP JUMPDEST DUP2 DUP4 DUP3 CALLDATACOPY PUSH1 0x0 SWAP2 ADD SWAP1 DUP2 MSTORE SWAP2 SWAP1 POP JUMP JUMPDEST PUSH1 0x0 PUSH12 0xFFFFFFFFFFFFFFFFFFFFFFFF NOT DUP1 DUP9 PUSH1 0x60 SHL AND DUP4 MSTORE DUP1 DUP8 PUSH1 0x60 SHL AND PUSH1 0x14 DUP5 ADD MSTORE POP DUP4 DUP6 PUSH1 0x28 DUP5 ADD CALLDATACOPY POP PUSH1 0x28 SWAP3 ADD SWAP2 DUP3 ADD MSTORE PUSH1 0x48 ADD SWAP4 SWAP3 POP POP POP JUMP JUMPDEST PUSH1 0x20 DUP1 DUP3 MSTORE PUSH1 0x2B SWAP1 DUP3 ADD MSTORE PUSH32 0x496E697469616C697A61626C653A20636F6E7472616374206973206E6F742069 PUSH1 0x40 DUP3 ADD MSTORE PUSH11 0x6E697469616C697A696E67 PUSH1 0xA8 SHL PUSH1 0x60 DUP3 ADD MSTORE PUSH1 0x80 ADD SWAP1 JUMP JUMPDEST PUSH1 0x0 DUP3 MLOAD PUSH2 0x4B4A DUP2 DUP5 PUSH1 0x20 DUP8 ADD PUSH2 0x3F8B JUMP JUMPDEST SWAP2 SWAP1 SWAP2 ADD SWAP3 SWAP2 POP POP JUMP INVALID CALLDATASIZE ADDMOD SWAP5 LOG1 EXTCODESIZE LOG1 LOG3 0x21 MOD PUSH8 0xC828492DB98DCA3E KECCAK256 PUSH23 0xCC3735A920A3CA505D382BBC416464726573733A206C6F PUSH24 0x2D6C6576656C2064656C65676174652063616C6C20666169 PUSH13 0x6564A264697066735822122047 BASEFEE 0xB1 PUSH4 0x4F9B4DAE EQ PUSH26 0x4B39750FCF8FA21F531E177944E609017F2730A7248664736F6C PUSH4 0x43000813 STOP CALLER "},"methodIdentifiers":{"BATCH_SIZE()":"49faa4d4","agentIndex(address)":"a74d344e","agentList(uint256)":"2f80c54f","agentMetadataCID(address)":"8e7a15bc","agents(address)":"fd66091e","completeService(uint256,string)":"67ee313d","createService(address,string,uint256)":"6076cf55","didToAgent(string)":"702e827c","distributeRewards()":"6f4a2cd0","getAgent(address)":"fb3551ff","getMessage(bytes32)":"0139a221","getNetworkStats()":"4a662f48","getService(uint256)":"ef0e239b","initialize(address)":"c4d66de8","lastProcessedIndex()":"3009a609","lastRewardTime()":"9231cf74","lockPeriod()":"3fd8b02f","messageFee()":"1a90a219","messages(bytes32)":"2bbd59ca","minStakeAmount()":"f1887684","owner()":"8da5cb5b","pause()":"8456cb59","paused()":"5c975abb","pendingRewards()":"eded3fda","processRewardBatch()":"7069c649","proxiableUUID()":"52d1902d","registerAgent(string,string,uint256)":"da6b03bc","registrationFee()":"14c44e09","renounceOwnership()":"715018a6","reputationThreshold()":"d410e8ba","rewardRate()":"7b0a47ee","sendMessage(address,string)":"de6f24bb","serviceFeeRate()":"61d1bc94","serviceMetadataCID(uint256)":"18aad383","services(uint256)":"c22c4f43","setAgentMetadataCID(address,string)":"deb7bba9","setMessageFee(uint256)":"23aa2a9d","setMinStakeAmount(uint256)":"eb4af045","setRegistrationFee(uint256)":"c320c727","setRewardRate(uint256)":"9e447fc6","setServiceFeeRate(uint256)":"9b1d3091","setServiceMetadataCID(uint256,string)":"460ef44c","setVerificationContract(address)":"fb48d6be","token()":"fc0c546a","totalAgents()":"c5053712","totalMessages()":"951166c0","totalRewards()":"0e15561a","totalServices()":"6301ac8f","totalStaked()":"817b1cd2","totalVolume()":"5f81a57c","transferOwnership(address)":"f2fde38b","unpause()":"3f4ba83a","unstakeAgent()":"d88e1ab9","updateReputation(address,int256)":"6a08b511","upgradeTo(address)":"3659cfe6","upgradeToAndCall(address,bytes)":"4f1ef286","verification()":"4ffe2a8b","verifyAgent(address,uint256[8])":"d420051d"}}}}}