{
  "_format": "hh-sol-artifact-1",
  "contractName": "DIAPVerification",
  "sourceName": "contracts/DIAPVerification.sol",
  "abi": [
    {
      "anonymous": false,
      "inputs": [
        {
          "indexed": false,
          "internalType": "address",
          "name": "previousAdmin",
          "type": "address"
        },
        {
          "indexed": false,
          "internalType": "address",
          "name": "newAdmin",
          "type": "address"
        }
      ],
      "name": "AdminChanged",
      "type": "event"
    },
    {
      "anonymous": false,
      "inputs": [
        {
          "indexed": true,
          "internalType": "address",
          "name": "agent",
          "type": "address"
        },
        {
          "indexed": false,
          "internalType": "string",
          "name": "reason",
          "type": "string"
        },
        {
          "indexed": false,
          "internalType": "uint256",
          "name": "timestamp",
          "type": "uint256"
        }
      ],
      "name": "AgentBlacklisted",
      "type": "event"
    },
    {
      "anonymous": false,
      "inputs": [
        {
          "indexed": true,
          "internalType": "address",
          "name": "agent",
          "type": "address"
        },
        {
          "indexed": false,
          "internalType": "uint256",
          "name": "timestamp",
          "type": "uint256"
        }
      ],
      "name": "AgentWhitelisted",
      "type": "event"
    },
    {
      "anonymous": false,
      "inputs": [
        {
          "indexed": true,
          "internalType": "address",
          "name": "beacon",
          "type": "address"
        }
      ],
      "name": "BeaconUpgraded",
      "type": "event"
    },
    {
      "anonymous": false,
      "inputs": [
        {
          "indexed": true,
          "internalType": "address",
          "name": "agent",
          "type": "address"
        },
        {
          "indexed": false,
          "internalType": "string",
          "name": "didDocument",
          "type": "string"
        },
        {
          "indexed": false,
          "internalType": "uint256",
          "name": "timestamp",
          "type": "uint256"
        }
      ],
      "name": "IdentityVerified",
      "type": "event"
    },
    {
      "anonymous": false,
      "inputs": [
        {
          "indexed": false,
          "internalType": "uint8",
          "name": "version",
          "type": "uint8"
        }
      ],
      "name": "Initialized",
      "type": "event"
    },
    {
      "anonymous": false,
      "inputs": [
        {
          "indexed": false,
          "internalType": "uint256",
          "name": "oldAttempts",
          "type": "uint256"
        },
        {
          "indexed": false,
          "internalType": "uint256",
          "name": "newAttempts",
          "type": "uint256"
        }
      ],
      "name": "MaxVerificationAttemptsUpdated",
      "type": "event"
    },
    {
      "anonymous": false,
      "inputs": [
        {
          "indexed": true,
          "internalType": "bytes32",
          "name": "nullifier",
          "type": "bytes32"
        },
        {
          "indexed": true,
          "internalType": "address",
          "name": "agent",
          "type": "address"
        }
      ],
      "name": "NullifierUsed",
      "type": "event"
    },
    {
      "anonymous": false,
      "inputs": [
        {
          "indexed": true,
          "internalType": "address",
          "name": "previousOwner",
          "type": "address"
        },
        {
          "indexed": true,
          "internalType": "address",
          "name": "newOwner",
          "type": "address"
        }
      ],
      "name": "OwnershipTransferred",
      "type": "event"
    },
    {
      "anonymous": false,
      "inputs": [
        {
          "indexed": false,
          "internalType": "uint256",
          "name": "oldThreshold",
          "type": "uint256"
        },
        {
          "indexed": false,
          "internalType": "uint256",
          "name": "newThreshold",
          "type": "uint256"
        }
      ],
      "name": "ReputationThresholdUpdated",
      "type": "event"
    },
    {
      "anonymous": false,
      "inputs": [
        {
          "indexed": true,
          "internalType": "address",
          "name": "agent",
          "type": "address"
        },
        {
          "indexed": false,
          "internalType": "uint256",
          "name": "reputation",
          "type": "uint256"
        },
        {
          "indexed": false,
          "internalType": "uint256",
          "name": "timestamp",
          "type": "uint256"
        }
      ],
      "name": "ReputationVerified",
      "type": "event"
    },
    {
      "anonymous": false,
      "inputs": [
        {
          "indexed": true,
          "internalType": "address",
          "name": "implementation",
          "type": "address"
        }
      ],
      "name": "Upgraded",
      "type": "event"
    },
    {
      "anonymous": false,
      "inputs": [
        {
          "indexed": true,
          "internalType": "bytes32",
          "name": "sessionId",
          "type": "bytes32"
        },
        {
          "indexed": true,
          "internalType": "address",
          "name": "agent",
          "type": "address"
        },
        {
          "indexed": false,
          "internalType": "bool",
          "name": "isValid",
          "type": "bool"
        }
      ],
      "name": "VerificationCompleted",
      "type": "event"
    },
    {
      "anonymous": false,
      "inputs": [
        {
          "indexed": true,
          "internalType": "bytes32",
          "name": "sessionId",
          "type": "bytes32"
        },
        {
          "indexed": true,
          "internalType": "address",
          "name": "agent",
          "type": "address"
        },
        {
          "indexed": false,
          "internalType": "string",
          "name": "didDocument",
          "type": "string"
        }
      ],
      "name": "VerificationInitiated",
      "type": "event"
    },
    {
      "anonymous": false,
      "inputs": [
        {
          "indexed": false,
          "internalType": "enum DIAPVerification.VerificationMode",
          "name": "newMode",
          "type": "uint8"
        }
      ],
      "name": "VerificationModeUpdated",
      "type": "event"
    },
    {
      "anonymous": false,
      "inputs": [
        {
          "indexed": false,
          "internalType": "uint256",
          "name": "oldTimeout",
          "type": "uint256"
        },
        {
          "indexed": false,
          "internalType": "uint256",
          "name": "newTimeout",
          "type": "uint256"
        }
      ],
      "name": "VerificationTimeoutUpdated",
      "type": "event"
    },
    {
      "anonymous": false,
      "inputs": [
        {
          "indexed": false,
          "internalType": "address",
          "name": "oldVerifier",
          "type": "address"
        },
        {
          "indexed": false,
          "internalType": "address",
          "name": "newVerifier",
          "type": "address"
        }
      ],
      "name": "ZKPVerifierUpdated",
      "type": "event"
    },
    {
      "inputs": [],
      "name": "MAX_STRING_LENGTH",
      "outputs": [
        {
          "internalType": "uint256",
          "name": "",
          "type": "uint256"
        }
      ],
      "stateMutability": "view",
      "type": "function"
    },
    {
      "inputs": [],
      "name": "agentNetwork",
      "outputs": [
        {
          "internalType": "contract DIAPAgentNetwork",
          "name": "",
          "type": "address"
        }
      ],
      "stateMutability": "view",
      "type": "function"
    },
    {
      "inputs": [
        {
          "internalType": "address[]",
          "name": "agents",
          "type": "address[]"
        },
        {
          "internalType": "uint256[8][]",
          "name": "proofs",
          "type": "uint256[8][]"
        }
      ],
      "name": "batchVerifyAgents",
      "outputs": [
        {
          "internalType": "bool[]",
          "name": "",
          "type": "bool[]"
        }
      ],
      "stateMutability": "view",
      "type": "function"
    },
    {
      "inputs": [
        {
          "internalType": "address",
          "name": "",
          "type": "address"
        }
      ],
      "name": "blacklistedAgents",
      "outputs": [
        {
          "internalType": "bool",
          "name": "",
          "type": "bool"
        }
      ],
      "stateMutability": "view",
      "type": "function"
    },
    {
      "inputs": [
        {
          "internalType": "address",
          "name": "agent",
          "type": "address"
        },
        {
          "internalType": "string",
          "name": "behaviorType",
          "type": "string"
        },
        {
          "internalType": "string",
          "name": "",
          "type": "string"
        }
      ],
      "name": "detectMaliciousBehavior",
      "outputs": [],
      "stateMutability": "nonpayable",
      "type": "function"
    },
    {
      "inputs": [
        {
          "internalType": "address",
          "name": "",
          "type": "address"
        }
      ],
      "name": "failedAttempts",
      "outputs": [
        {
          "internalType": "uint256",
          "name": "",
          "type": "uint256"
        }
      ],
      "stateMutability": "view",
      "type": "function"
    },
    {
      "inputs": [
        {
          "internalType": "address",
          "name": "agent",
          "type": "address"
        }
      ],
      "name": "getFailedAttempts",
      "outputs": [
        {
          "internalType": "uint256",
          "name": "",
          "type": "uint256"
        }
      ],
      "stateMutability": "view",
      "type": "function"
    },
    {
      "inputs": [
        {
          "internalType": "address",
          "name": "agent",
          "type": "address"
        }
      ],
      "name": "getIdentityProof",
      "outputs": [
        {
          "components": [
            {
              "internalType": "string",
              "name": "didDocument",
              "type": "string"
            },
            {
              "internalType": "string",
              "name": "publicKey",
              "type": "string"
            },
            {
              "internalType": "bytes32",
              "name": "commitment",
              "type": "bytes32"
            },
            {
              "internalType": "bytes32",
              "name": "nullifier",
              "type": "bytes32"
            },
            {
              "internalType": "uint256[8]",
              "name": "proof",
              "type": "uint256[8]"
            },
            {
              "internalType": "uint256",
              "name": "timestamp",
              "type": "uint256"
            },
            {
              "internalType": "bool",
              "name": "isVerified",
              "type": "bool"
            }
          ],
          "internalType": "struct DIAPVerification.IdentityProof",
          "name": "",
          "type": "tuple"
        }
      ],
      "stateMutability": "view",
      "type": "function"
    },
    {
      "inputs": [
        {
          "internalType": "address",
          "name": "agent",
          "type": "address"
        }
      ],
      "name": "getReputationProof",
      "outputs": [
        {
          "components": [
            {
              "internalType": "address",
              "name": "agent",
              "type": "address"
            },
            {
              "internalType": "uint256",
              "name": "reputation",
              "type": "uint256"
            },
            {
              "internalType": "uint256",
              "name": "timestamp",
              "type": "uint256"
            },
            {
              "internalType": "uint256[8]",
              "name": "proof",
              "type": "uint256[8]"
            },
            {
              "internalType": "bool",
              "name": "isValid",
              "type": "bool"
            }
          ],
          "internalType": "struct DIAPVerification.ReputationProof",
          "name": "",
          "type": "tuple"
        }
      ],
      "stateMutability": "view",
      "type": "function"
    },
    {
      "inputs": [
        {
          "internalType": "bytes32",
          "name": "sessionId",
          "type": "bytes32"
        }
      ],
      "name": "getVerificationSession",
      "outputs": [
        {
          "components": [
            {
              "internalType": "address",
              "name": "agent",
              "type": "address"
            },
            {
              "internalType": "string",
              "name": "didDocument",
              "type": "string"
            },
            {
              "internalType": "string",
              "name": "publicKey",
              "type": "string"
            },
            {
              "internalType": "bytes32",
              "name": "commitment",
              "type": "bytes32"
            },
            {
              "internalType": "bytes32",
              "name": "nullifier",
              "type": "bytes32"
            },
            {
              "internalType": "uint256",
              "name": "timestamp",
              "type": "uint256"
            },
            {
              "internalType": "enum DIAPVerification.VerificationStatus",
              "name": "status",
              "type": "uint8"
            },
            {
              "internalType": "uint256[8]",
              "name": "proof",
              "type": "uint256[8]"
            },
            {
              "internalType": "bool",
              "name": "isValid",
              "type": "bool"
            }
          ],
          "internalType": "struct DIAPVerification.VerificationSession",
          "name": "",
          "type": "tuple"
        }
      ],
      "stateMutability": "view",
      "type": "function"
    },
    {
      "inputs": [],
      "name": "getVerificationStats",
      "outputs": [
        {
          "internalType": "uint256",
          "name": "_totalVerifications",
          "type": "uint256"
        },
        {
          "internalType": "uint256",
          "name": "_totalSuccessfulVerifications",
          "type": "uint256"
        },
        {
          "internalType": "uint256",
          "name": "_totalFailedVerifications",
          "type": "uint256"
        }
      ],
      "stateMutability": "view",
      "type": "function"
    },
    {
      "inputs": [],
      "name": "getVerifierStatus",
      "outputs": [
        {
          "internalType": "address",
          "name": "verifier",
          "type": "address"
        },
        {
          "internalType": "bool",
          "name": "isAvailable",
          "type": "bool"
        }
      ],
      "stateMutability": "view",
      "type": "function"
    },
    {
      "inputs": [
        {
          "internalType": "address",
          "name": "",
          "type": "address"
        }
      ],
      "name": "identityProofs",
      "outputs": [
        {
          "internalType": "string",
          "name": "didDocument",
          "type": "string"
        },
        {
          "internalType": "string",
          "name": "publicKey",
          "type": "string"
        },
        {
          "internalType": "bytes32",
          "name": "commitment",
          "type": "bytes32"
        },
        {
          "internalType": "bytes32",
          "name": "nullifier",
          "type": "bytes32"
        },
        {
          "internalType": "uint256",
          "name": "timestamp",
          "type": "uint256"
        },
        {
          "internalType": "bool",
          "name": "isVerified",
          "type": "bool"
        }
      ],
      "stateMutability": "view",
      "type": "function"
    },
    {
      "inputs": [
        {
          "internalType": "address",
          "name": "_agentNetwork",
          "type": "address"
        }
      ],
      "name": "initialize",
      "outputs": [],
      "stateMutability": "nonpayable",
      "type": "function"
    },
    {
      "inputs": [
        {
          "internalType": "string",
          "name": "didDocument",
          "type": "string"
        },
        {
          "internalType": "string",
          "name": "publicKey",
          "type": "string"
        },
        {
          "internalType": "bytes32",
          "name": "commitment",
          "type": "bytes32"
        },
        {
          "internalType": "bytes32",
          "name": "nullifier",
          "type": "bytes32"
        },
        {
          "internalType": "uint256[8]",
          "name": "proof",
          "type": "uint256[8]"
        }
      ],
      "name": "initiateIdentityVerification",
      "outputs": [
        {
          "internalType": "bytes32",
          "name": "",
          "type": "bytes32"
        }
      ],
      "stateMutability": "nonpayable",
      "type": "function"
    },
    {
      "inputs": [
        {
          "internalType": "address",
          "name": "agent",
          "type": "address"
        }
      ],
      "name": "isAgentBlacklisted",
      "outputs": [
        {
          "internalType": "bool",
          "name": "",
          "type": "bool"
        }
      ],
      "stateMutability": "view",
      "type": "function"
    },
    {
      "inputs": [
        {
          "internalType": "address",
          "name": "agent",
          "type": "address"
        }
      ],
      "name": "isIdentityVerified",
      "outputs": [
        {
          "internalType": "bool",
          "name": "",
          "type": "bool"
        }
      ],
      "stateMutability": "view",
      "type": "function"
    },
    {
      "inputs": [
        {
          "internalType": "bytes32",
          "name": "nullifier",
          "type": "bytes32"
        }
      ],
      "name": "isNullifierUsed",
      "outputs": [
        {
          "internalType": "bool",
          "name": "",
          "type": "bool"
        }
      ],
      "stateMutability": "view",
      "type": "function"
    },
    {
      "inputs": [
        {
          "internalType": "address",
          "name": "agent",
          "type": "address"
        }
      ],
      "name": "isReputationVerified",
      "outputs": [
        {
          "internalType": "bool",
          "name": "",
          "type": "bool"
        }
      ],
      "stateMutability": "view",
      "type": "function"
    },
    {
      "inputs": [
        {
          "internalType": "address",
          "name": "",
          "type": "address"
        }
      ],
      "name": "lastFailedAttempt",
      "outputs": [
        {
          "internalType": "uint256",
          "name": "",
          "type": "uint256"
        }
      ],
      "stateMutability": "view",
      "type": "function"
    },
    {
      "inputs": [],
      "name": "maxVerificationAttempts",
      "outputs": [
        {
          "internalType": "uint256",
          "name": "",
          "type": "uint256"
        }
      ],
      "stateMutability": "view",
      "type": "function"
    },
    {
      "inputs": [],
      "name": "owner",
      "outputs": [
        {
          "internalType": "address",
          "name": "",
          "type": "address"
        }
      ],
      "stateMutability": "view",
      "type": "function"
    },
    {
      "inputs": [],
      "name": "proxiableUUID",
      "outputs": [
        {
          "internalType": "bytes32",
          "name": "",
          "type": "bytes32"
        }
      ],
      "stateMutability": "view",
      "type": "function"
    },
    {
      "inputs": [
        {
          "internalType": "address",
          "name": "agent",
          "type": "address"
        }
      ],
      "name": "removeFromBlacklist",
      "outputs": [],
      "stateMutability": "nonpayable",
      "type": "function"
    },
    {
      "inputs": [],
      "name": "renounceOwnership",
      "outputs": [],
      "stateMutability": "nonpayable",
      "type": "function"
    },
    {
      "inputs": [
        {
          "internalType": "address",
          "name": "",
          "type": "address"
        }
      ],
      "name": "reputationProofs",
      "outputs": [
        {
          "internalType": "address",
          "name": "agent",
          "type": "address"
        },
        {
          "internalType": "uint256",
          "name": "reputation",
          "type": "uint256"
        },
        {
          "internalType": "uint256",
          "name": "timestamp",
          "type": "uint256"
        },
        {
          "internalType": "bool",
          "name": "isValid",
          "type": "bool"
        }
      ],
      "stateMutability": "view",
      "type": "function"
    },
    {
      "inputs": [],
      "name": "reputationThreshold",
      "outputs": [
        {
          "internalType": "uint256",
          "name": "",
          "type": "uint256"
        }
      ],
      "stateMutability": "view",
      "type": "function"
    },
    {
      "inputs": [
        {
          "internalType": "uint256",
          "name": "_attempts",
          "type": "uint256"
        }
      ],
      "name": "setMaxVerificationAttempts",
      "outputs": [],
      "stateMutability": "nonpayable",
      "type": "function"
    },
    {
      "inputs": [
        {
          "internalType": "uint256",
          "name": "_threshold",
          "type": "uint256"
        }
      ],
      "name": "setReputationThreshold",
      "outputs": [],
      "stateMutability": "nonpayable",
      "type": "function"
    },
    {
      "inputs": [
        {
          "internalType": "enum DIAPVerification.VerificationMode",
          "name": "_mode",
          "type": "uint8"
        }
      ],
      "name": "setVerificationMode",
      "outputs": [],
      "stateMutability": "nonpayable",
      "type": "function"
    },
    {
      "inputs": [
        {
          "internalType": "uint256",
          "name": "_timeout",
          "type": "uint256"
        }
      ],
      "name": "setVerificationTimeout",
      "outputs": [],
      "stateMutability": "nonpayable",
      "type": "function"
    },
    {
      "inputs": [
        {
          "internalType": "address",
          "name": "_verifier",
          "type": "address"
        }
      ],
      "name": "setZKPVerifier",
      "outputs": [],
      "stateMutability": "nonpayable",
      "type": "function"
    },
    {
      "inputs": [],
      "name": "totalFailedVerifications",
      "outputs": [
        {
          "internalType": "uint256",
          "name": "",
          "type": "uint256"
        }
      ],
      "stateMutability": "view",
      "type": "function"
    },
    {
      "inputs": [],
      "name": "totalSuccessfulVerifications",
      "outputs": [
        {
          "internalType": "uint256",
          "name": "",
          "type": "uint256"
        }
      ],
      "stateMutability": "view",
      "type": "function"
    },
    {
      "inputs": [],
      "name": "totalVerifications",
      "outputs": [
        {
          "internalType": "uint256",
          "name": "",
          "type": "uint256"
        }
      ],
      "stateMutability": "view",
      "type": "function"
    },
    {
      "inputs": [
        {
          "internalType": "address",
          "name": "newOwner",
          "type": "address"
        }
      ],
      "name": "transferOwnership",
      "outputs": [],
      "stateMutability": "nonpayable",
      "type": "function"
    },
    {
      "inputs": [
        {
          "internalType": "address",
          "name": "newImplementation",
          "type": "address"
        }
      ],
      "name": "upgradeTo",
      "outputs": [],
      "stateMutability": "nonpayable",
      "type": "function"
    },
    {
      "inputs": [
        {
          "internalType": "address",
          "name": "newImplementation",
          "type": "address"
        },
        {
          "internalType": "bytes",
          "name": "data",
          "type": "bytes"
        }
      ],
      "name": "upgradeToAndCall",
      "outputs": [],
      "stateMutability": "payable",
      "type": "function"
    },
    {
      "inputs": [
        {
          "internalType": "bytes32",
          "name": "",
          "type": "bytes32"
        }
      ],
      "name": "usedNullifiers",
      "outputs": [
        {
          "internalType": "bool",
          "name": "",
          "type": "bool"
        }
      ],
      "stateMutability": "view",
      "type": "function"
    },
    {
      "inputs": [],
      "name": "verificationMode",
      "outputs": [
        {
          "internalType": "enum DIAPVerification.VerificationMode",
          "name": "",
          "type": "uint8"
        }
      ],
      "stateMutability": "view",
      "type": "function"
    },
    {
      "inputs": [
        {
          "internalType": "bytes32",
          "name": "",
          "type": "bytes32"
        }
      ],
      "name": "verificationSessions",
      "outputs": [
        {
          "internalType": "address",
          "name": "agent",
          "type": "address"
        },
        {
          "internalType": "string",
          "name": "didDocument",
          "type": "string"
        },
        {
          "internalType": "string",
          "name": "publicKey",
          "type": "string"
        },
        {
          "internalType": "bytes32",
          "name": "commitment",
          "type": "bytes32"
        },
        {
          "internalType": "bytes32",
          "name": "nullifier",
          "type": "bytes32"
        },
        {
          "internalType": "uint256",
          "name": "timestamp",
          "type": "uint256"
        },
        {
          "internalType": "enum DIAPVerification.VerificationStatus",
          "name": "status",
          "type": "uint8"
        },
        {
          "internalType": "bool",
          "name": "isValid",
          "type": "bool"
        }
      ],
      "stateMutability": "view",
      "type": "function"
    },
    {
      "inputs": [],
      "name": "verificationTimeout",
      "outputs": [
        {
          "internalType": "uint256",
          "name": "",
          "type": "uint256"
        }
      ],
      "stateMutability": "view",
      "type": "function"
    },
    {
      "inputs": [
        {
          "internalType": "bytes32",
          "name": "sessionId",
          "type": "bytes32"
        }
      ],
      "name": "verifyIdentity",
      "outputs": [
        {
          "internalType": "bool",
          "name": "",
          "type": "bool"
        }
      ],
      "stateMutability": "nonpayable",
      "type": "function"
    },
    {
      "inputs": [
        {
          "internalType": "address",
          "name": "agent",
          "type": "address"
        },
        {
          "internalType": "uint256",
          "name": "reputation",
          "type": "uint256"
        },
        {
          "internalType": "uint256[8]",
          "name": "proof",
          "type": "uint256[8]"
        }
      ],
      "name": "verifyReputation",
      "outputs": [
        {
          "internalType": "bool",
          "name": "",
          "type": "bool"
        }
      ],
      "stateMutability": "nonpayable",
      "type": "function"
    },
    {
      "inputs": [],
      "name": "zkpVerifier",
      "outputs": [
        {
          "internalType": "address",
          "name": "",
          "type": "address"
        }
      ],
      "stateMutability": "view",
      "type": "function"
    }
  ],
  "bytecode": "0x60a06040523060805261010a805460ff1916600217905534801561002257600080fd5b506080516143b461005a60003960008181610f5e01528181610f9e015281816111fb0152818161123b015261135401526143b46000f3fe6080604052600436106102725760003560e01c8063624812d31161014f578063afc1d8cc116100c1578063e57f6d6c1161007a578063e57f6d6c14610893578063e634edc9146108b3578063e858462c146108d3578063efcf6a8d14610900578063f2fde38b14610933578063f63ac7621461095357600080fd5b8063afc1d8cc146107cb578063c4d66de8146107e2578063d410e8ba14610802578063da6a49c214610819578063dd8b556814610853578063e00514331461087357600080fd5b80637b969e1d116101135780637b969e1d146107125780637eacb7da146107405780638da5cb5b146107605780639ea0e3e61461077e578063aaf80e281461079e578063ac90c140146107b557600080fd5b8063624812d3146106395780636aebbd6614610659578063715018a614610692578063768ee07f146106a7578063771d1441146106de57600080fd5b80633659cfe6116101e8578063511773bb116101ac578063511773bb1461055b57806351b00e9b1461058f57806352d1902d146105a6578063537df3b6146105bb5780635b0e83c1146105db57806361120a4c1461060c57600080fd5b80633659cfe6146104bc578063402c51b8146104dc57806344dfdb321461050457806348da3842146105315780634f1ef2861461054857600080fd5b8063206137aa1161023a578063206137aa1461039c57806322dc7b4c146103dd578063315ecb641461040e5780633214d3e61461042e57806332627ec71461046a57806334ccc5ea146104a657600080fd5b80631532ff3b1461027757806318055a17146102ad57806318433a7e146102df5780631a538b74146103015780631bd29c811461037c575b600080fd5b34801561028357600080fd5b506102976102923660046135e2565b61098f565b6040516102a49190613698565b60405180910390f35b3480156102b957600080fd5b506102cd6102c836600461375e565b610b89565b6040516102a496959493929190613779565b3480156102eb57600080fd5b506102ff6102fa3660046135e2565b610cd1565b005b34801561030d57600080fd5b5061035061031c36600461375e565b60fe602052600090815260409020805460018201546002830154600b909301546001600160a01b0390921692909160ff1684565b604080516001600160a01b039095168552602085019390935291830152151560608201526080016102a4565b34801561038857600080fd5b506102ff61039736600461380f565b610d75565b3480156103a857600080fd5b506103cd6103b73660046135e2565b6101096020526000908152604090205460ff1681565b60405190151581526020016102a4565b3480156103e957600080fd5b506103cd6103f83660046135e2565b6000908152610109602052604090205460ff1690565b34801561041a57600080fd5b506102ff6104293660046135e2565b610f0d565b34801561043a57600080fd5b506103cd61044936600461375e565b6001600160a01b0316600090815260fe60205260409020600b015460ff1690565b34801561047657600080fd5b5061049861048536600461375e565b6101066020526000908152604090205481565b6040519081526020016102a4565b3480156104b257600080fd5b506104986103e881565b3480156104c857600080fd5b506102ff6104d736600461375e565b610f54565b3480156104e857600080fd5b5061010a546104f79060ff1681565b6040516102a49190613890565b34801561051057600080fd5b5061052461051f36600461375e565b611033565b6040516102a491906138aa565b34801561053d57600080fd5b506104986101035481565b6102ff6105563660046139c9565b6111f1565b34801561056757600080fd5b506105706112c1565b604080516001600160a01b0390931683529015156020830152016102a4565b34801561059b57600080fd5b506104986101015481565b3480156105b257600080fd5b50610498611347565b3480156105c757600080fd5b506102ff6105d636600461375e565b6113fa565b3480156105e757600080fd5b506103cd6105f636600461375e565b6101086020526000908152604090205460ff1681565b34801561061857600080fd5b5061062c61062736600461375e565b6114c6565b6040516102a49190613a5a565b34801561064557600080fd5b506103cd6106543660046135e2565b611560565b34801561066557600080fd5b506101055461067a906001600160a01b031681565b6040516001600160a01b0390911681526020016102a4565b34801561069e57600080fd5b506102ff611dfb565b3480156106b357600080fd5b506104986106c236600461375e565b6001600160a01b03166000908152610106602052604090205490565b3480156106ea57600080fd5b506106fe6106f93660046135e2565b611e0f565b6040516102a4989796959493929190613aa7565b34801561071e57600080fd5b5061049861072d36600461375e565b6101076020526000908152604090205481565b34801561074c57600080fd5b506102ff61075b366004613b17565b611f72565b34801561076c57600080fd5b506097546001600160a01b031661067a565b34801561078a57600080fd5b506103cd610799366004613b4a565b611fd9565b3480156107aa57600080fd5b506104986101005481565b3480156107c157600080fd5b5061049860ff5481565b3480156107d757600080fd5b506104986101025481565b3480156107ee57600080fd5b506102ff6107fd36600461375e565b61232f565b34801561080e57600080fd5b506104986101045481565b34801561082557600080fd5b506103cd61083436600461375e565b6001600160a01b03166000908152610108602052604090205460ff1690565b34801561085f57600080fd5b5060fb5461067a906001600160a01b031681565b34801561087f57600080fd5b5061049861088e366004613b88565b6124ce565b34801561089f57600080fd5b506102ff6108ae3660046135e2565b61298a565b3480156108bf57600080fd5b506102ff6108ce36600461375e565b612a21565b3480156108df57600080fd5b506108f36108ee366004613c1d565b612a84565b6040516102a49190613ce5565b34801561090c57600080fd5b5060ff546101005461010154604080519384526020840192909252908201526060016102a4565b34801561093f57600080fd5b506102ff61094e36600461375e565b612d66565b34801561095f57600080fd5b506103cd61096e36600461375e565b6001600160a01b0316600090815260fd60205260409020600d015460ff1690565b6109976134a3565b600082815260fc60209081526040918290208251610120810190935280546001600160a01b0316835260018101805491928401916109d490613d2b565b80601f0160208091040260200160405190810160405280929190818152602001828054610a0090613d2b565b8015610a4d5780601f10610a2257610100808354040283529160200191610a4d565b820191906000526020600020905b815481529060010190602001808311610a3057829003601f168201915b50505050508152602001600282018054610a6690613d2b565b80601f0160208091040260200160405190810160405280929190818152602001828054610a9290613d2b565b8015610adf5780601f10610ab457610100808354040283529160200191610adf565b820191906000526020600020905b815481529060010190602001808311610ac257829003601f168201915b505050918352505060038281015460208301526004830154604083015260058301546060830152600683015460809092019160ff1690811115610b2457610b2461364b565b6003811115610b3557610b3561364b565b81526040805161010081019182905260209092019190600784019060089082845b815481526020019060010190808311610b56575050509183525050600f919091015460ff16151560209091015292915050565b60fd60205260009081526040902080548190610ba490613d2b565b80601f0160208091040260200160405190810160405280929190818152602001828054610bd090613d2b565b8015610c1d5780601f10610bf257610100808354040283529160200191610c1d565b820191906000526020600020905b815481529060010190602001808311610c0057829003601f168201915b505050505090806001018054610c3290613d2b565b80601f0160208091040260200160405190810160405280929190818152602001828054610c5e90613d2b565b8015610cab5780601f10610c8057610100808354040283529160200191610cab565b820191906000526020600020905b815481529060010190602001808311610c8e57829003601f168201915b5050505060028301546003840154600c850154600d909501549394919390925060ff1686565b610cd9612ddc565b60008111610d2e5760405162461bcd60e51b815260206004820152601e60248201527f54696d656f7574206d7573742062652067726561746572207468616e2030000060448201526064015b60405180910390fd5b61010280549082905560408051828152602081018490527fc1ef737bf7102bbdaa760e4f22f3e142338e7e2e233811046825e752125beafc91015b60405180910390a15050565b610d7d612ddc565b6001600160a01b0385166000908152610108602052604090205460ff1615610de75760405162461bcd60e51b815260206004820152601960248201527f4167656e7420616c726561647920626c61636b6c6973746564000000000000006044820152606401610d25565b7f739a90aa8c4210220c3ac2e84422de2c3738210e4ea7f6862b44ee1262f1a5b58484604051610e18929190613d65565b604051809103902003610e3357610e2e85612e36565b610ec1565b7f01cdace648f81642e3d86eb540483168b47d1062d81b985ffadd427b1e7ce23f8484604051610e64929190613d65565b604051809103902003610e7a57610e2e85612e36565b7f97f11fce5afffef14226842a845865bc83ba3996898a99c06b258d77550865238484604051610eab929190613d65565b604051809103902003610ec157610ec185612e36565b846001600160a01b03167f4c44bcfe62396d16242327c3369b7b2f1696e63c1e748ce1ab47024ea898a5e1858542604051610efe93929190613d9e565b60405180910390a25050505050565b610f15612ddc565b61010480549082905560408051828152602081018490527f0b3aa458e08e72cc8890fe5789d911bc6d7212f9adddfa6ada2a7fcb2be6796e9101610d69565b6001600160a01b037f0000000000000000000000000000000000000000000000000000000000000000163003610f9c5760405162461bcd60e51b8152600401610d2590613dc2565b7f00000000000000000000000000000000000000000000000000000000000000006001600160a01b0316610fe5600080516020614338833981519152546001600160a01b031690565b6001600160a01b03161461100b5760405162461bcd60e51b8152600401610d2590613e0e565b61101481612e5b565b6040805160008082526020820190925261103091839190612e63565b50565b61103b6134f6565b6001600160a01b038216600090815260fd602052604090819020815160e0810190925280548290829061106d90613d2b565b80601f016020809104026020016040519081016040528092919081815260200182805461109990613d2b565b80156110e65780601f106110bb576101008083540402835291602001916110e6565b820191906000526020600020905b8154815290600101906020018083116110c957829003601f168201915b505050505081526020016001820180546110ff90613d2b565b80601f016020809104026020016040519081016040528092919081815260200182805461112b90613d2b565b80156111785780601f1061114d57610100808354040283529160200191611178565b820191906000526020600020905b81548152906001019060200180831161115b57829003601f168201915b5050509183525050600282015460208201526003820154604080830191909152805161010081019182905260609092019190600484019060089082845b8154815260200190600101908083116111b5575050509183525050600c8201546020820152600d9091015460ff16151560409091015292915050565b6001600160a01b037f00000000000000000000000000000000000000000000000000000000000000001630036112395760405162461bcd60e51b8152600401610d2590613dc2565b7f00000000000000000000000000000000000000000000000000000000000000006001600160a01b0316611282600080516020614338833981519152546001600160a01b031690565b6001600160a01b0316146112a85760405162461bcd60e51b8152600401610d2590613e0e565b6112b182612e5b565b6112bd82826001612e63565b5050565b610105546001600160a01b03166000816112dc575060009091565b816001600160a01b031663856c71dd6040518163ffffffff1660e01b8152600401602060405180830381865afa925050508015611336575060408051601f3d908101601f1916820190925261133391810190613e6a565b60015b611341575060009091565b90509091565b6000306001600160a01b037f000000000000000000000000000000000000000000000000000000000000000016146113e75760405162461bcd60e51b815260206004820152603860248201527f555550535570677261646561626c653a206d757374206e6f742062652063616c60448201527f6c6564207468726f7567682064656c656761746563616c6c00000000000000006064820152608401610d25565b5060008051602061433883398151915290565b611402612ddc565b6001600160a01b0381166000908152610108602052604090205460ff166114635760405162461bcd60e51b81526020600482015260156024820152741059d95b9d081b9bdd08189b1858dadb1a5cdd1959605a1b6044820152606401610d25565b6001600160a01b038116600081815261010860209081526040808320805460ff1916905561010682528083209290925590514281527ff67a15457310dc945e1c8228f1b50f0f3fa28985aa795add5dae23dbe5865b26910160405180910390a250565b6114ce61353f565b6001600160a01b03828116600090815260fe6020908152604091829020825160a0810184528154909416845260018101549184019190915260028101548383015281516101008101928390529091606084019190600384019060089082845b81548152602001906001019080831161152d575050509183525050600b919091015460ff16151560209091015292915050565b60008061010a5460ff16600281111561157b5761157b61364b565b036115d7576097546001600160a01b031633146115d25760405162461bcd60e51b81526020600482015260156024820152744f6e6c79206f776e65722063616e2076657269667960581b6044820152606401610d25565b6116b9565b600161010a5460ff1660028111156115f1576115f161364b565b0361165157610105546001600160a01b031633146115d25760405162461bcd60e51b815260206004820152601c60248201527f4f6e6c79205a4b502076657269666965722063616e20766572696679000000006044820152606401610d25565b6097546001600160a01b03163314806116755750610105546001600160a01b031633145b6116b95760405162461bcd60e51b81526020600482015260156024820152742ab730baba3437b934bd32b2103b32b934b334b2b960591b6044820152606401610d25565b600082815260fc60205260409020600581015461170c5760405162461bcd60e51b815260206004820152601160248201527014d95cdcda5bdb881b9bdd08199bdd5b99607a1b6044820152606401610d25565b6000600682015460ff1660038111156117275761172761364b565b1461176a5760405162461bcd60e51b815260206004820152601360248201527253657373696f6e206e6f742070656e64696e6760681b6044820152606401610d25565b61010254816005015461177d9190613e9b565b4211156117be5760405162461bcd60e51b815260206004820152600f60248201526e14d95cdcda5bdb88195e1c1a5c9959608a1b6044820152606401610d25565b60408051610100810191829052600091600784019060089082845b8154815260200190600101908083116117d9575050505050905060006119188284600101805461180890613d2b565b80601f016020809104026020016040519081016040528092919081815260200182805461183490613d2b565b80156118815780601f1061185657610100808354040283529160200191611881565b820191906000526020600020905b81548152906001019060200180831161186457829003601f168201915b505050505085600201805461189590613d2b565b80601f01602080910402602001604051908101604052809291908181526020018280546118c190613d2b565b801561190e5780601f106118e35761010080835404028352916020019161190e565b820191906000526020600020905b8154815290600101906020018083116118f157829003601f168201915b5050505050612fd3565b90508015611c60576006830180546001919060ff191682800217905550600f8301805460ff19166001179055610100805490600061195583613eae565b91905055506040518060e0016040528084600101805461197490613d2b565b80601f01602080910402602001604051908101604052809291908181526020018280546119a090613d2b565b80156119ed5780601f106119c2576101008083540402835291602001916119ed565b820191906000526020600020905b8154815290600101906020018083116119d057829003601f168201915b50505050508152602001846002018054611a0690613d2b565b80601f0160208091040260200160405190810160405280929190818152602001828054611a3290613d2b565b8015611a7f5780601f10611a5457610100808354040283529160200191611a7f565b820191906000526020600020905b815481529060010190602001808311611a6257829003601f168201915b5050509183525050600385015460208201526004850154604080830191909152805161010081019182905260609092019190600787019060089082845b815481526020019060010190808311611abc57505050918352505042602080830191909152600160409283015285546001600160a01b0316600090815260fd9091522081518190611b0d9082613f15565b5060208201516001820190611b229082613f15565b5060408201516002820155606082015160038201556080820151611b4c9060048301906008613570565b5060a0820151600c82015560c090910151600d909101805460ff191691151591909117905582546001600160a01b03908116600090815261010660209081526040808320929092558554915160018152919092169187917f97c9b29a58b5d7da659547427f1268ebbd60e66aa1d11950e653ef16b09a10f1910160405180910390a382546040516001600160a01b03909116907f5d57bd940ff05dca0f7ab8f29a0dd87b33dad597a52d26003d642a4076e38bc290611c119060018701904290613fd5565b60405180910390a2825460048401546040516001600160a01b03909216917f17a971f4f4d9677ca183a8819b6b1cfb84ee86aaa80b1805d2dba12abdc0167190600090a3506001949350505050565b60068301805460ff19908116600217909155600f8401805490911690556101018054906000611c8e83613eae565b909155505082546001600160a01b0316600090815261010660205260408120805491611cb983613eae565b909155505082546001600160a01b03908116600090815261010760209081526040808320429055610103548754909416835261010690915290205410611da75782546001600160a01b039081166000908152610108602052604090819020805460ff19166001179055845490519116907f4c44bcfe62396d16242327c3369b7b2f1696e63c1e748ce1ab47024ea898a5e190611d9e90429060408082526025908201527f546f6f206d616e79206661696c656420766572696669636174696f6e20617474606082015264656d70747360d81b6080820152602081019190915260a00190565b60405180910390a25b8254604051600081526001600160a01b039091169086907f97c9b29a58b5d7da659547427f1268ebbd60e66aa1d11950e653ef16b09a10f19060200160405180910390a3506000949350505050565b919050565b611e03612ddc565b611e0d6000613079565b565b60fc60205260009081526040902080546001820180546001600160a01b039092169291611e3b90613d2b565b80601f0160208091040260200160405190810160405280929190818152602001828054611e6790613d2b565b8015611eb45780601f10611e8957610100808354040283529160200191611eb4565b820191906000526020600020905b815481529060010190602001808311611e9757829003601f168201915b505050505090806002018054611ec990613d2b565b80601f0160208091040260200160405190810160405280929190818152602001828054611ef590613d2b565b8015611f425780601f10611f1757610100808354040283529160200191611f42565b820191906000526020600020905b815481529060010190602001808311611f2557829003601f168201915b5050506003840154600485015460058601546006870154600f9097015495969295919450925060ff918216911688565b611f7a612ddc565b61010a805482919060ff19166001836002811115611f9a57611f9a61364b565b02179055507fc5fc43171aab09e52b7572f38155eb0ef29e930b3337d94843f7cfbe433ffd9681604051611fce9190613890565b60405180910390a150565b60008061010a5460ff166002811115611ff457611ff461364b565b03612050576097546001600160a01b0316331461204b5760405162461bcd60e51b81526020600482015260156024820152744f6e6c79206f776e65722063616e2076657269667960581b6044820152606401610d25565b612132565b600161010a5460ff16600281111561206a5761206a61364b565b036120ca57610105546001600160a01b0316331461204b5760405162461bcd60e51b815260206004820152601c60248201527f4f6e6c79205a4b502076657269666965722063616e20766572696679000000006044820152606401610d25565b6097546001600160a01b03163314806120ee5750610105546001600160a01b031633145b6121325760405162461bcd60e51b81526020600482015260156024820152742ab730baba3437b934bd32b2103b32b934b334b2b960591b6044820152606401610d25565b61213a6130cb565b6001600160a01b0384166000908152610108602052604090205460ff161561219b5760405162461bcd60e51b81526020600482015260146024820152731059d95b9d081a5cc8189b1858dadb1a5cdd195960621b6044820152606401610d25565b6127108311156121ed5760405162461bcd60e51b815260206004820152601860248201527f496e76616c69642072657075746174696f6e2073636f726500000000000000006044820152606401610d25565b60006121fa838686613124565b90508015612318576040518060a00160405280866001600160a01b0316815260200185815260200142815260200184600880602002604051908101604052809291908260086020028082843760009201829052509284525050600160209283018190526001600160a01b03898116835260fe8452604092839020855181546001600160a01b03191692169190911781559284015190830155820151600282015560608201516122af9060038301906008613570565b5060809190910151600b909101805460ff1916911515919091179055604080518581524260208201526001600160a01b038716917f7db3c95d2daeb7ebdc8d651d02552d8a4eb8da48020eeed5f1319c7becb5e7ce910160405180910390a2600191505061231e565b60009150505b612328600160c955565b9392505050565b600054610100900460ff161580801561234f5750600054600160ff909116105b806123695750303b158015612369575060005460ff166001145b6123cc5760405162461bcd60e51b815260206004820152602e60248201527f496e697469616c697a61626c653a20636f6e747261637420697320616c72656160448201526d191e481a5b9a5d1a585b1a5e995960921b6064820152608401610d25565b6000805460ff1916600117905580156123ef576000805461ff0019166101001790555b6001600160a01b0382166124455760405162461bcd60e51b815260206004820152601d60248201527f496e76616c6964206167656e74206e6574776f726b20616464726573730000006044820152606401610d25565b61244d61317c565b6124556131ab565b61245d6131d2565b60fb80546001600160a01b0319166001600160a01b038416179055610e10610102556003610103556103e86101045580156112bd576000805461ff0019169055604051600181527f7f26b83ff96e1f2b6a682f133852f6798a09c465da95921460cefb384740249890602001610d69565b60006124d86130cb565b336000908152610108602052604090205460ff16156125305760405162461bcd60e51b81526020600482015260146024820152731059d95b9d081a5cc8189b1858dadb1a5cdd195960621b6044820152606401610d25565b861580159061254157506103e88711155b61258d5760405162461bcd60e51b815260206004820152601b60248201527f496e76616c69642044494420646f63756d656e74206c656e67746800000000006044820152606401610d25565b841580159061259e57506103e88511155b6125ea5760405162461bcd60e51b815260206004820152601960248201527f496e76616c6964207075626c6963206b6579206c656e677468000000000000006044820152606401610d25565b8361262c5760405162461bcd60e51b8152602060048201526012602482015271125b9d985b1a590818dbdb5b5a5d1b595b9d60721b6044820152606401610d25565b8261266d5760405162461bcd60e51b815260206004820152601160248201527024b73b30b634b210373ab63634b334b2b960791b6044820152606401610d25565b6000838152610109602052604090205460ff16156126c65760405162461bcd60e51b8152602060048201526016602482015275139d5b1b1a599a595c88185b1c9958591e481d5cd95960521b6044820152606401610d25565b600083815261010960209081526040808320805460ff191660011790556101035433845261010690925290912054106127415760405162461bcd60e51b815260206004820152601860248201527f546f6f206d616e79206661696c656420617474656d70747300000000000000006044820152606401610d25565b600033898989898989424360405160200161276499989796959493929190614069565b60408051601f198184030181528282528051602091820120610120840183523384528251601f8d018390048302810183019093528b8352935082810191908c908c9081908401838280828437600092019190915250505090825250604080516020601f8b0181900481028201810190925289815291810191908a908a908190840183828082843760009201829052509385525050506020820188905260408201879052426060830152608090910190815260200184600880602002604051908101604052809291908260086020028082843760009201829052509284525050602091820181905283815260fc825260409020825181546001600160a01b0319166001600160a01b039091161781559082015160018201906128859082613f15565b506040820151600282019061289a9082613f15565b50606082015181600301556080820151816004015560a0820151816005015560c08201518160060160006101000a81548160ff021916908360038111156128e3576128e361364b565b021790555060e08201516128fd9060078301906008613570565b506101009190910151600f909101805460ff191691151591909117905560ff805490600061292a83613eae565b9190505550336001600160a01b0316817f941cc11b7922ad4177c4ef187dcbf8241b8e3c38d83cfbddd453862054db06818b8b60405161296b9291906140c1565b60405180910390a3905061297f600160c955565b979650505050505050565b612992612ddc565b600081116129e25760405162461bcd60e51b815260206004820152601f60248201527f417474656d707473206d7573742062652067726561746572207468616e2030006044820152606401610d25565b61010380549082905560408051828152602081018490527f0e9ccbd069458b034aef3fe64e05a52901db8b6691404c206fd1912a94cf9d959101610d69565b612a29612ddc565b61010580546001600160a01b038381166001600160a01b031983168117909355604080519190921680825260208201939093527f568f493769992355f5c1dea0f6167ea2f375bb6250fc89f5c2e0ecce976516c39101610d69565b6060612a8e612ddc565b838214612ad65760405162461bcd60e51b8152602060048201526016602482015275082e4e4c2f2e640d8cadccee8d040dad2e6dac2e8c6d60531b6044820152606401610d25565b600a841115612b195760405162461bcd60e51b815260206004820152600f60248201526e546f6f206d616e79206167656e747360881b6044820152606401610d25565b60008467ffffffffffffffff811115612b3457612b34613930565b604051908082528060200260200182016040528015612b5d578160200160208202803683370190505b50905060005b85811015612d5a576101086000888884818110612b8257612b826140d5565b9050602002016020810190612b97919061375e565b6001600160a01b0316815260208101919091526040016000205460ff1615612be2576000828281518110612bcd57612bcd6140d5565b91151560209283029190910190910152612d48565b60fb546001600160a01b031663fb3551ff888884818110612c0557612c056140d5565b9050602002016020810190612c1a919061375e565b6040516001600160e01b031960e084901b1681526001600160a01b039091166004820152602401600060405180830381865afa925050508015612c7f57506040513d6000823e601f3d908101601f19168201604052612c7c9190810190614130565b60015b612c97576000828281518110612bcd57612bcd6140d5565b806060015115612d21576000868684818110612cb557612cb56140d5565b9050610100020160088060200260405190810160405280929190826008602002808284376000920191909152505083516020850151929350612cf992849250612fd3565b848481518110612d0b57612d0b6140d5565b9115156020928302919091019091015250612d46565b6000838381518110612d3557612d356140d5565b911515602092830291909101909101525b505b80612d5281613eae565b915050612b63565b5090505b949350505050565b612d6e612ddc565b6001600160a01b038116612dd35760405162461bcd60e51b815260206004820152602660248201527f4f776e61626c653a206e6577206f776e657220697320746865207a65726f206160448201526564647265737360d01b6064820152608401610d25565b61103081613079565b6097546001600160a01b03163314611e0d5760405162461bcd60e51b815260206004820181905260248201527f4f776e61626c653a2063616c6c6572206973206e6f7420746865206f776e65726044820152606401610d25565b6001600160a01b0316600090815261010860205260409020805460ff19166001179055565b611030612ddc565b7f4910fdfa16fed3260ed0e7147f7cc6da11a60208b5b9406d12a635614ffd91435460ff1615612e9b57612e9683613201565b505050565b826001600160a01b03166352d1902d6040518163ffffffff1660e01b8152600401602060405180830381865afa925050508015612ef5575060408051601f3d908101601f19168201909252612ef291810190614228565b60015b612f585760405162461bcd60e51b815260206004820152602e60248201527f45524331393637557067726164653a206e657720696d706c656d656e7461746960448201526d6f6e206973206e6f74205555505360901b6064820152608401610d25565b6000805160206143388339815191528114612fc75760405162461bcd60e51b815260206004820152602960248201527f45524331393637557067726164653a20756e737570706f727465642070726f786044820152681a58589b195555525160ba1b6064820152608401610d25565b50612e9683838361329d565b610105546000906001600160a01b0316612fff57835115801590612ff8575060008351115b9050612328565b610105546040516302aaf33360e11b81526001600160a01b0390911690630555e6669061303490879087908790600401614241565b602060405180830381865afa92505050801561306d575060408051601f3d908101601f1916820190925261306a91810190613e6a565b60015b612ff857506000612328565b609780546001600160a01b038381166001600160a01b0319831681179093556040519116919082907f8be0079c531659141344cd1fd0a4f28419497f9722a3daafe3b4186f6b6457e090600090a35050565b600260c9540361311d5760405162461bcd60e51b815260206004820152601f60248201527f5265656e7472616e637947756172643a207265656e7472616e742063616c6c006044820152606401610d25565b600260c955565b610105546000906001600160a01b031661314057506000612328565b6101055460405163704011a360e01b81526001600160a01b039091169063704011a39061303490879087908790600401614294565b600160c955565b600054610100900460ff166131a35760405162461bcd60e51b8152600401610d25906142bd565b611e0d6132c8565b600054610100900460ff16611e0d5760405162461bcd60e51b8152600401610d25906142bd565b600054610100900460ff166131f95760405162461bcd60e51b8152600401610d25906142bd565b611e0d6132f8565b6001600160a01b0381163b61326e5760405162461bcd60e51b815260206004820152602d60248201527f455243313936373a206e657720696d706c656d656e746174696f6e206973206e60448201526c1bdd08184818dbdb9d1c9858dd609a1b6064820152608401610d25565b60008051602061433883398151915280546001600160a01b0319166001600160a01b0392909216919091179055565b6132a68361331f565b6000825111806132b35750805b15612e96576132c2838361335f565b50505050565b600054610100900460ff166132ef5760405162461bcd60e51b8152600401610d25906142bd565b611e0d33613079565b600054610100900460ff166131755760405162461bcd60e51b8152600401610d25906142bd565b61332881613201565b6040516001600160a01b038216907fbc7cd75a20ee27fd9adebab32041f755214dbc6bffa90cc0225b39da2e5c2d3b90600090a250565b606061338483836040518060600160405280602781526020016143586027913961338d565b90505b92915050565b6060600080856001600160a01b0316856040516133aa9190614308565b600060405180830381855af49150503d80600081146133e5576040519150601f19603f3d011682016040523d82523d6000602084013e6133ea565b606091505b50915091506133fb86838387613405565b9695505050505050565b6060831561347457825160000361346d576001600160a01b0385163b61346d5760405162461bcd60e51b815260206004820152601d60248201527f416464726573733a2063616c6c20746f206e6f6e2d636f6e74726163740000006044820152606401610d25565b5081612d5e565b612d5e83838151156134895781518083602001fd5b8060405162461bcd60e51b8152600401610d259190614324565b604080516101208101825260008082526060602083018190529282018390529181018290526080810182905260a081018290529060c082019081526020016134e96135ae565b8152600060209091015290565b6040518060e001604052806060815260200160608152602001600080191681526020016000801916815260200161352b6135ae565b815260006020820181905260409091015290565b6040518060a0016040528060006001600160a01b0316815260200160008152602001600081526020016134e96135ae565b826008810192821561359e579160200282015b8281111561359e578251825591602001919060010190613583565b506135aa9291506135cd565b5090565b6040518061010001604052806008906020820280368337509192915050565b5b808211156135aa57600081556001016135ce565b6000602082840312156135f457600080fd5b5035919050565b60005b838110156136165781810151838201526020016135fe565b50506000910152565b600081518084526136378160208601602086016135fb565b601f01601f19169290920160200192915050565b634e487b7160e01b600052602160045260246000fd5b600481106136715761367161364b565b9052565b8060005b60088110156132c2578151845260209384019390910190600101613679565b602081526136b26020820183516001600160a01b03169052565b600060208301516102008060408501526136d061022085018361361f565b91506040850151601f198584030160608601526136ed838261361f565b92505060608501516080850152608085015160a085015260a085015160c085015260c085015161372060e0860182613661565b5060e085015161010061373581870183613675565b90950151151593019290925250919050565b80356001600160a01b0381168114611df657600080fd5b60006020828403121561377057600080fd5b61338482613747565b60c08152600061378c60c083018961361f565b828103602084015261379e818961361f565b91505085604083015284606083015283608083015282151560a0830152979650505050505050565b60008083601f8401126137d857600080fd5b50813567ffffffffffffffff8111156137f057600080fd5b60208301915083602082850101111561380857600080fd5b9250929050565b60008060008060006060868803121561382757600080fd5b61383086613747565b9450602086013567ffffffffffffffff8082111561384d57600080fd5b61385989838a016137c6565b9096509450604088013591508082111561387257600080fd5b5061387f888289016137c6565b969995985093965092949392505050565b60208101600383106138a4576138a461364b565b91905290565b60208152600082516101c08060208501526138c96101e085018361361f565b91506020850151601f198584030160408601526138e6838261361f565b9250506040850151606085015260608501516080850152608085015161390f60a0860182613675565b5060a08501516101a085015260c09094015115159390920192909252919050565b634e487b7160e01b600052604160045260246000fd5b604051610140810167ffffffffffffffff8111828210171561396a5761396a613930565b60405290565b604051601f8201601f1916810167ffffffffffffffff8111828210171561399957613999613930565b604052919050565b600067ffffffffffffffff8211156139bb576139bb613930565b50601f01601f191660200190565b600080604083850312156139dc57600080fd5b6139e583613747565b9150602083013567ffffffffffffffff811115613a0157600080fd5b8301601f81018513613a1257600080fd5b8035613a25613a20826139a1565b613970565b818152866020838501011115613a3a57600080fd5b816020840160208301376000602083830101528093505050509250929050565b81516001600160a01b031681526020808301519082015260408083015190820152606080830151610180830191613a9390840182613675565b506080830151151561016083015292915050565b6001600160a01b038916815261010060208201819052600090613acc8382018b61361f565b90508281036040840152613ae0818a61361f565b9150508660608301528560808301528460a0830152613b0260c0830185613661565b82151560e08301529998505050505050505050565b600060208284031215613b2957600080fd5b81356003811061232857600080fd5b80610100810183101561338757600080fd5b60008060006101408486031215613b6057600080fd5b613b6984613747565b925060208401359150613b7f8560408601613b38565b90509250925092565b6000806000806000806000610180888a031215613ba457600080fd5b873567ffffffffffffffff80821115613bbc57600080fd5b613bc88b838c016137c6565b909950975060208a0135915080821115613be157600080fd5b50613bee8a828b016137c6565b9096509450506040880135925060608801359150613c0f8960808a01613b38565b905092959891949750929550565b60008060008060408587031215613c3357600080fd5b843567ffffffffffffffff80821115613c4b57600080fd5b818701915087601f830112613c5f57600080fd5b813581811115613c6e57600080fd5b8860208260051b8501011115613c8357600080fd5b602092830196509450908601359080821115613c9e57600080fd5b818701915087601f830112613cb257600080fd5b813581811115613cc157600080fd5b8860208260081b8501011115613cd657600080fd5b95989497505060200194505050565b6020808252825182820181905260009190848201906040850190845b81811015613d1f578351151583529284019291840191600101613d01565b50909695505050505050565b600181811c90821680613d3f57607f821691505b602082108103613d5f57634e487b7160e01b600052602260045260246000fd5b50919050565b8183823760009101908152919050565b81835281816020850137506000828201602090810191909152601f909101601f19169091010190565b604081526000613db2604083018587613d75565b9050826020830152949350505050565b6020808252602c908201527f46756e6374696f6e206d7573742062652063616c6c6564207468726f7567682060408201526b19195b1959d85d1958d85b1b60a21b606082015260800190565b6020808252602c908201527f46756e6374696f6e206d7573742062652063616c6c6564207468726f7567682060408201526b6163746976652070726f787960a01b606082015260800190565b80518015158114611df657600080fd5b600060208284031215613e7c57600080fd5b61338482613e5a565b634e487b7160e01b600052601160045260246000fd5b8082018082111561338757613387613e85565b600060018201613ec057613ec0613e85565b5060010190565b601f821115612e9657600081815260208120601f850160051c81016020861015613eee5750805b601f850160051c820191505b81811015613f0d57828155600101613efa565b505050505050565b815167ffffffffffffffff811115613f2f57613f2f613930565b613f4381613f3d8454613d2b565b84613ec7565b602080601f831160018114613f785760008415613f605750858301515b600019600386901b1c1916600185901b178555613f0d565b600085815260208120601f198616915b82811015613fa757888601518255948401946001909101908401613f88565b5085821015613fc55787850151600019600388901b60f8161c191681555b5050505050600190811b01905550565b604081526000808454613fe781613d2b565b8060408601526060600180841660008114614009576001811461402357614054565b60ff1985168884015283151560051b880183019550614054565b8960005260208060002060005b8681101561404b5781548b8201870152908401908201614030565b8a018501975050505b50505050506020929092019290925292915050565b6bffffffffffffffffffffffff198a60601b1681528789601483013760008882016014810160008152888a82375060149701968701959095525060348501929092526054840152607483015250609401949350505050565b602081526000612d5e602083018486613d75565b634e487b7160e01b600052603260045260246000fd5b600082601f8301126140fc57600080fd5b815161410a613a20826139a1565b81815284602083860101111561411f57600080fd5b612d5e8260208301602087016135fb565b60006020828403121561414257600080fd5b815167ffffffffffffffff8082111561415a57600080fd5b90830190610140828603121561416f57600080fd5b614177613946565b82518281111561418657600080fd5b614192878286016140eb565b8252506020830151828111156141a757600080fd5b6141b3878286016140eb565b602083015250604083015160408201526141cf60608401613e5a565b60608201526080830151608082015260a083015160a082015260c083015160c082015260e083015160e0820152610100915081830151828201526101209150614219828401613e5a565b91810191909152949350505050565b60006020828403121561423a57600080fd5b5051919050565b60006101408286835b600881101561426957815183526020928301929091019060010161424a565b5050508061010084015261427f8184018661361f565b90508281036101208401526133fb818561361f565b6101408101610100808684376001600160a01b0394909416938201939093526101200152919050565b6020808252602b908201527f496e697469616c697a61626c653a20636f6e7472616374206973206e6f74206960408201526a6e697469616c697a696e6760a81b606082015260800190565b6000825161431a8184602087016135fb565b9190910192915050565b602081526000613384602083018461361f56fe360894a13ba1a3210667c828492db98dca3e2076cc3735a920a3ca505d382bbc416464726573733a206c6f772d6c6576656c2064656c65676174652063616c6c206661696c6564a2646970667358221220e24d24e58a303795b1a738777c28efb7d5b625a6d788222e97fddb1dc4847acc64736f6c63430008130033",
  "linkReferences": {},
  "deployedLinkReferences": {}
}