{
  "_format": "hh-sol-artifact-1",
  "contractName": "DIAPVerification",
  "sourceName": "contracts/DIAPVerification.sol",
  "abi": [
    {
      "anonymous": false,
      "inputs": [
        {
          "indexed": false,
          "internalType": "address",
          "name": "previousAdmin",
          "type": "address"
        },
        {
          "indexed": false,
          "internalType": "address",
          "name": "newAdmin",
          "type": "address"
        }
      ],
      "name": "AdminChanged",
      "type": "event"
    },
    {
      "anonymous": false,
      "inputs": [
        {
          "indexed": true,
          "internalType": "address",
          "name": "agent",
          "type": "address"
        },
        {
          "indexed": false,
          "internalType": "string",
          "name": "reason",
          "type": "string"
        },
        {
          "indexed": false,
          "internalType": "uint256",
          "name": "timestamp",
          "type": "uint256"
        }
      ],
      "name": "AgentBlacklisted",
      "type": "event"
    },
    {
      "anonymous": false,
      "inputs": [
        {
          "indexed": true,
          "internalType": "address",
          "name": "agent",
          "type": "address"
        },
        {
          "indexed": false,
          "internalType": "uint256",
          "name": "timestamp",
          "type": "uint256"
        }
      ],
      "name": "AgentWhitelisted",
      "type": "event"
    },
    {
      "anonymous": false,
      "inputs": [
        {
          "indexed": true,
          "internalType": "address",
          "name": "beacon",
          "type": "address"
        }
      ],
      "name": "BeaconUpgraded",
      "type": "event"
    },
    {
      "anonymous": false,
      "inputs": [
        {
          "indexed": true,
          "internalType": "address",
          "name": "agent",
          "type": "address"
        },
        {
          "indexed": false,
          "internalType": "string",
          "name": "didDocument",
          "type": "string"
        },
        {
          "indexed": false,
          "internalType": "uint256",
          "name": "timestamp",
          "type": "uint256"
        }
      ],
      "name": "IdentityVerified",
      "type": "event"
    },
    {
      "anonymous": false,
      "inputs": [
        {
          "indexed": false,
          "internalType": "uint8",
          "name": "version",
          "type": "uint8"
        }
      ],
      "name": "Initialized",
      "type": "event"
    },
    {
      "anonymous": false,
      "inputs": [
        {
          "indexed": false,
          "internalType": "uint256",
          "name": "oldAttempts",
          "type": "uint256"
        },
        {
          "indexed": false,
          "internalType": "uint256",
          "name": "newAttempts",
          "type": "uint256"
        }
      ],
      "name": "MaxVerificationAttemptsUpdated",
      "type": "event"
    },
    {
      "anonymous": false,
      "inputs": [
        {
          "indexed": true,
          "internalType": "bytes32",
          "name": "nullifier",
          "type": "bytes32"
        },
        {
          "indexed": true,
          "internalType": "address",
          "name": "agent",
          "type": "address"
        }
      ],
      "name": "NullifierUsed",
      "type": "event"
    },
    {
      "anonymous": false,
      "inputs": [
        {
          "indexed": true,
          "internalType": "address",
          "name": "previousOwner",
          "type": "address"
        },
        {
          "indexed": true,
          "internalType": "address",
          "name": "newOwner",
          "type": "address"
        }
      ],
      "name": "OwnershipTransferred",
      "type": "event"
    },
    {
      "anonymous": false,
      "inputs": [
        {
          "indexed": false,
          "internalType": "uint256",
          "name": "oldThreshold",
          "type": "uint256"
        },
        {
          "indexed": false,
          "internalType": "uint256",
          "name": "newThreshold",
          "type": "uint256"
        }
      ],
      "name": "ReputationThresholdUpdated",
      "type": "event"
    },
    {
      "anonymous": false,
      "inputs": [
        {
          "indexed": true,
          "internalType": "address",
          "name": "agent",
          "type": "address"
        },
        {
          "indexed": false,
          "internalType": "uint256",
          "name": "reputation",
          "type": "uint256"
        },
        {
          "indexed": false,
          "internalType": "uint256",
          "name": "timestamp",
          "type": "uint256"
        }
      ],
      "name": "ReputationVerified",
      "type": "event"
    },
    {
      "anonymous": false,
      "inputs": [
        {
          "indexed": true,
          "internalType": "address",
          "name": "implementation",
          "type": "address"
        }
      ],
      "name": "Upgraded",
      "type": "event"
    },
    {
      "anonymous": false,
      "inputs": [
        {
          "indexed": true,
          "internalType": "bytes32",
          "name": "sessionId",
          "type": "bytes32"
        },
        {
          "indexed": true,
          "internalType": "address",
          "name": "agent",
          "type": "address"
        },
        {
          "indexed": false,
          "internalType": "bool",
          "name": "isValid",
          "type": "bool"
        }
      ],
      "name": "VerificationCompleted",
      "type": "event"
    },
    {
      "anonymous": false,
      "inputs": [
        {
          "indexed": true,
          "internalType": "bytes32",
          "name": "sessionId",
          "type": "bytes32"
        },
        {
          "indexed": true,
          "internalType": "address",
          "name": "agent",
          "type": "address"
        },
        {
          "indexed": false,
          "internalType": "string",
          "name": "didDocument",
          "type": "string"
        }
      ],
      "name": "VerificationInitiated",
      "type": "event"
    },
    {
      "anonymous": false,
      "inputs": [
        {
          "indexed": false,
          "internalType": "enum DIAPVerification.VerificationMode",
          "name": "newMode",
          "type": "uint8"
        }
      ],
      "name": "VerificationModeUpdated",
      "type": "event"
    },
    {
      "anonymous": false,
      "inputs": [
        {
          "indexed": false,
          "internalType": "uint256",
          "name": "oldTimeout",
          "type": "uint256"
        },
        {
          "indexed": false,
          "internalType": "uint256",
          "name": "newTimeout",
          "type": "uint256"
        }
      ],
      "name": "VerificationTimeoutUpdated",
      "type": "event"
    },
    {
      "anonymous": false,
      "inputs": [
        {
          "indexed": false,
          "internalType": "address",
          "name": "oldVerifier",
          "type": "address"
        },
        {
          "indexed": false,
          "internalType": "address",
          "name": "newVerifier",
          "type": "address"
        }
      ],
      "name": "ZKPVerifierUpdated",
      "type": "event"
    },
    {
      "inputs": [],
      "name": "MAX_STRING_LENGTH",
      "outputs": [
        {
          "internalType": "uint256",
          "name": "",
          "type": "uint256"
        }
      ],
      "stateMutability": "view",
      "type": "function"
    },
    {
      "inputs": [],
      "name": "agentNetwork",
      "outputs": [
        {
          "internalType": "contract DIAPAgentNetwork",
          "name": "",
          "type": "address"
        }
      ],
      "stateMutability": "view",
      "type": "function"
    },
    {
      "inputs": [
        {
          "internalType": "address[]",
          "name": "agents",
          "type": "address[]"
        },
        {
          "internalType": "uint256[8][]",
          "name": "proofs",
          "type": "uint256[8][]"
        }
      ],
      "name": "batchVerifyAgents",
      "outputs": [
        {
          "internalType": "bool[]",
          "name": "",
          "type": "bool[]"
        }
      ],
      "stateMutability": "view",
      "type": "function"
    },
    {
      "inputs": [
        {
          "internalType": "address",
          "name": "",
          "type": "address"
        }
      ],
      "name": "blacklistedAgents",
      "outputs": [
        {
          "internalType": "bool",
          "name": "",
          "type": "bool"
        }
      ],
      "stateMutability": "view",
      "type": "function"
    },
    {
      "inputs": [
        {
          "internalType": "address",
          "name": "agent",
          "type": "address"
        },
        {
          "internalType": "string",
          "name": "behaviorType",
          "type": "string"
        },
        {
          "internalType": "string",
          "name": "",
          "type": "string"
        }
      ],
      "name": "detectMaliciousBehavior",
      "outputs": [],
      "stateMutability": "nonpayable",
      "type": "function"
    },
    {
      "inputs": [
        {
          "internalType": "address",
          "name": "",
          "type": "address"
        }
      ],
      "name": "failedAttempts",
      "outputs": [
        {
          "internalType": "uint256",
          "name": "",
          "type": "uint256"
        }
      ],
      "stateMutability": "view",
      "type": "function"
    },
    {
      "inputs": [
        {
          "internalType": "address",
          "name": "agent",
          "type": "address"
        }
      ],
      "name": "getFailedAttempts",
      "outputs": [
        {
          "internalType": "uint256",
          "name": "",
          "type": "uint256"
        }
      ],
      "stateMutability": "view",
      "type": "function"
    },
    {
      "inputs": [
        {
          "internalType": "address",
          "name": "agent",
          "type": "address"
        }
      ],
      "name": "getIdentityProof",
      "outputs": [
        {
          "components": [
            {
              "internalType": "string",
              "name": "didDocument",
              "type": "string"
            },
            {
              "internalType": "string",
              "name": "publicKey",
              "type": "string"
            },
            {
              "internalType": "bytes32",
              "name": "commitment",
              "type": "bytes32"
            },
            {
              "internalType": "bytes32",
              "name": "nullifier",
              "type": "bytes32"
            },
            {
              "internalType": "uint256[8]",
              "name": "proof",
              "type": "uint256[8]"
            },
            {
              "internalType": "uint256",
              "name": "timestamp",
              "type": "uint256"
            },
            {
              "internalType": "bool",
              "name": "isVerified",
              "type": "bool"
            }
          ],
          "internalType": "struct DIAPVerification.IdentityProof",
          "name": "",
          "type": "tuple"
        }
      ],
      "stateMutability": "view",
      "type": "function"
    },
    {
      "inputs": [
        {
          "internalType": "address",
          "name": "agent",
          "type": "address"
        }
      ],
      "name": "getReputationProof",
      "outputs": [
        {
          "components": [
            {
              "internalType": "address",
              "name": "agent",
              "type": "address"
            },
            {
              "internalType": "uint256",
              "name": "reputation",
              "type": "uint256"
            },
            {
              "internalType": "uint256",
              "name": "timestamp",
              "type": "uint256"
            },
            {
              "internalType": "uint256[8]",
              "name": "proof",
              "type": "uint256[8]"
            },
            {
              "internalType": "bool",
              "name": "isValid",
              "type": "bool"
            }
          ],
          "internalType": "struct DIAPVerification.ReputationProof",
          "name": "",
          "type": "tuple"
        }
      ],
      "stateMutability": "view",
      "type": "function"
    },
    {
      "inputs": [
        {
          "internalType": "bytes32",
          "name": "sessionId",
          "type": "bytes32"
        }
      ],
      "name": "getVerificationSession",
      "outputs": [
        {
          "components": [
            {
              "internalType": "address",
              "name": "agent",
              "type": "address"
            },
            {
              "internalType": "string",
              "name": "didDocument",
              "type": "string"
            },
            {
              "internalType": "string",
              "name": "publicKey",
              "type": "string"
            },
            {
              "internalType": "bytes32",
              "name": "commitment",
              "type": "bytes32"
            },
            {
              "internalType": "bytes32",
              "name": "nullifier",
              "type": "bytes32"
            },
            {
              "internalType": "uint256",
              "name": "timestamp",
              "type": "uint256"
            },
            {
              "internalType": "enum DIAPVerification.VerificationStatus",
              "name": "status",
              "type": "uint8"
            },
            {
              "internalType": "uint256[8]",
              "name": "proof",
              "type": "uint256[8]"
            },
            {
              "internalType": "bool",
              "name": "isValid",
              "type": "bool"
            }
          ],
          "internalType": "struct DIAPVerification.VerificationSession",
          "name": "",
          "type": "tuple"
        }
      ],
      "stateMutability": "view",
      "type": "function"
    },
    {
      "inputs": [],
      "name": "getVerificationStats",
      "outputs": [
        {
          "internalType": "uint256",
          "name": "_totalVerifications",
          "type": "uint256"
        },
        {
          "internalType": "uint256",
          "name": "_totalSuccessfulVerifications",
          "type": "uint256"
        },
        {
          "internalType": "uint256",
          "name": "_totalFailedVerifications",
          "type": "uint256"
        }
      ],
      "stateMutability": "view",
      "type": "function"
    },
    {
      "inputs": [],
      "name": "getVerifierStatus",
      "outputs": [
        {
          "internalType": "address",
          "name": "verifier",
          "type": "address"
        },
        {
          "internalType": "bool",
          "name": "isAvailable",
          "type": "bool"
        }
      ],
      "stateMutability": "view",
      "type": "function"
    },
    {
      "inputs": [
        {
          "internalType": "address",
          "name": "",
          "type": "address"
        }
      ],
      "name": "identityProofs",
      "outputs": [
        {
          "internalType": "string",
          "name": "didDocument",
          "type": "string"
        },
        {
          "internalType": "string",
          "name": "publicKey",
          "type": "string"
        },
        {
          "internalType": "bytes32",
          "name": "commitment",
          "type": "bytes32"
        },
        {
          "internalType": "bytes32",
          "name": "nullifier",
          "type": "bytes32"
        },
        {
          "internalType": "uint256",
          "name": "timestamp",
          "type": "uint256"
        },
        {
          "internalType": "bool",
          "name": "isVerified",
          "type": "bool"
        }
      ],
      "stateMutability": "view",
      "type": "function"
    },
    {
      "inputs": [
        {
          "internalType": "address",
          "name": "_agentNetwork",
          "type": "address"
        }
      ],
      "name": "initialize",
      "outputs": [],
      "stateMutability": "nonpayable",
      "type": "function"
    },
    {
      "inputs": [
        {
          "internalType": "string",
          "name": "didDocument",
          "type": "string"
        },
        {
          "internalType": "string",
          "name": "publicKey",
          "type": "string"
        },
        {
          "internalType": "bytes32",
          "name": "commitment",
          "type": "bytes32"
        },
        {
          "internalType": "bytes32",
          "name": "nullifier",
          "type": "bytes32"
        },
        {
          "internalType": "uint256[8]",
          "name": "proof",
          "type": "uint256[8]"
        }
      ],
      "name": "initiateIdentityVerification",
      "outputs": [
        {
          "internalType": "bytes32",
          "name": "",
          "type": "bytes32"
        }
      ],
      "stateMutability": "nonpayable",
      "type": "function"
    },
    {
      "inputs": [
        {
          "internalType": "address",
          "name": "agent",
          "type": "address"
        }
      ],
      "name": "isAgentBlacklisted",
      "outputs": [
        {
          "internalType": "bool",
          "name": "",
          "type": "bool"
        }
      ],
      "stateMutability": "view",
      "type": "function"
    },
    {
      "inputs": [
        {
          "internalType": "address",
          "name": "agent",
          "type": "address"
        }
      ],
      "name": "isIdentityVerified",
      "outputs": [
        {
          "internalType": "bool",
          "name": "",
          "type": "bool"
        }
      ],
      "stateMutability": "view",
      "type": "function"
    },
    {
      "inputs": [
        {
          "internalType": "bytes32",
          "name": "nullifier",
          "type": "bytes32"
        }
      ],
      "name": "isNullifierUsed",
      "outputs": [
        {
          "internalType": "bool",
          "name": "",
          "type": "bool"
        }
      ],
      "stateMutability": "view",
      "type": "function"
    },
    {
      "inputs": [
        {
          "internalType": "address",
          "name": "agent",
          "type": "address"
        }
      ],
      "name": "isReputationVerified",
      "outputs": [
        {
          "internalType": "bool",
          "name": "",
          "type": "bool"
        }
      ],
      "stateMutability": "view",
      "type": "function"
    },
    {
      "inputs": [
        {
          "internalType": "address",
          "name": "",
          "type": "address"
        }
      ],
      "name": "lastFailedAttempt",
      "outputs": [
        {
          "internalType": "uint256",
          "name": "",
          "type": "uint256"
        }
      ],
      "stateMutability": "view",
      "type": "function"
    },
    {
      "inputs": [],
      "name": "maxVerificationAttempts",
      "outputs": [
        {
          "internalType": "uint256",
          "name": "",
          "type": "uint256"
        }
      ],
      "stateMutability": "view",
      "type": "function"
    },
    {
      "inputs": [],
      "name": "owner",
      "outputs": [
        {
          "internalType": "address",
          "name": "",
          "type": "address"
        }
      ],
      "stateMutability": "view",
      "type": "function"
    },
    {
      "inputs": [],
      "name": "proxiableUUID",
      "outputs": [
        {
          "internalType": "bytes32",
          "name": "",
          "type": "bytes32"
        }
      ],
      "stateMutability": "view",
      "type": "function"
    },
    {
      "inputs": [
        {
          "internalType": "address",
          "name": "agent",
          "type": "address"
        }
      ],
      "name": "removeFromBlacklist",
      "outputs": [],
      "stateMutability": "nonpayable",
      "type": "function"
    },
    {
      "inputs": [],
      "name": "renounceOwnership",
      "outputs": [],
      "stateMutability": "nonpayable",
      "type": "function"
    },
    {
      "inputs": [
        {
          "internalType": "address",
          "name": "",
          "type": "address"
        }
      ],
      "name": "reputationProofs",
      "outputs": [
        {
          "internalType": "address",
          "name": "agent",
          "type": "address"
        },
        {
          "internalType": "uint256",
          "name": "reputation",
          "type": "uint256"
        },
        {
          "internalType": "uint256",
          "name": "timestamp",
          "type": "uint256"
        },
        {
          "internalType": "bool",
          "name": "isValid",
          "type": "bool"
        }
      ],
      "stateMutability": "view",
      "type": "function"
    },
    {
      "inputs": [],
      "name": "reputationThreshold",
      "outputs": [
        {
          "internalType": "uint256",
          "name": "",
          "type": "uint256"
        }
      ],
      "stateMutability": "view",
      "type": "function"
    },
    {
      "inputs": [
        {
          "internalType": "bytes32",
          "name": "nullifier",
          "type": "bytes32"
        }
      ],
      "name": "resetNullifier",
      "outputs": [],
      "stateMutability": "nonpayable",
      "type": "function"
    },
    {
      "inputs": [
        {
          "internalType": "uint256",
          "name": "_attempts",
          "type": "uint256"
        }
      ],
      "name": "setMaxVerificationAttempts",
      "outputs": [],
      "stateMutability": "nonpayable",
      "type": "function"
    },
    {
      "inputs": [
        {
          "internalType": "uint256",
          "name": "_threshold",
          "type": "uint256"
        }
      ],
      "name": "setReputationThreshold",
      "outputs": [],
      "stateMutability": "nonpayable",
      "type": "function"
    },
    {
      "inputs": [
        {
          "internalType": "enum DIAPVerification.VerificationMode",
          "name": "_mode",
          "type": "uint8"
        }
      ],
      "name": "setVerificationMode",
      "outputs": [],
      "stateMutability": "nonpayable",
      "type": "function"
    },
    {
      "inputs": [
        {
          "internalType": "uint256",
          "name": "_timeout",
          "type": "uint256"
        }
      ],
      "name": "setVerificationTimeout",
      "outputs": [],
      "stateMutability": "nonpayable",
      "type": "function"
    },
    {
      "inputs": [
        {
          "internalType": "address",
          "name": "_verifier",
          "type": "address"
        }
      ],
      "name": "setZKPVerifier",
      "outputs": [],
      "stateMutability": "nonpayable",
      "type": "function"
    },
    {
      "inputs": [],
      "name": "totalFailedVerifications",
      "outputs": [
        {
          "internalType": "uint256",
          "name": "",
          "type": "uint256"
        }
      ],
      "stateMutability": "view",
      "type": "function"
    },
    {
      "inputs": [],
      "name": "totalSuccessfulVerifications",
      "outputs": [
        {
          "internalType": "uint256",
          "name": "",
          "type": "uint256"
        }
      ],
      "stateMutability": "view",
      "type": "function"
    },
    {
      "inputs": [],
      "name": "totalVerifications",
      "outputs": [
        {
          "internalType": "uint256",
          "name": "",
          "type": "uint256"
        }
      ],
      "stateMutability": "view",
      "type": "function"
    },
    {
      "inputs": [
        {
          "internalType": "address",
          "name": "newOwner",
          "type": "address"
        }
      ],
      "name": "transferOwnership",
      "outputs": [],
      "stateMutability": "nonpayable",
      "type": "function"
    },
    {
      "inputs": [
        {
          "internalType": "address",
          "name": "newImplementation",
          "type": "address"
        }
      ],
      "name": "upgradeTo",
      "outputs": [],
      "stateMutability": "nonpayable",
      "type": "function"
    },
    {
      "inputs": [
        {
          "internalType": "address",
          "name": "newImplementation",
          "type": "address"
        },
        {
          "internalType": "bytes",
          "name": "data",
          "type": "bytes"
        }
      ],
      "name": "upgradeToAndCall",
      "outputs": [],
      "stateMutability": "payable",
      "type": "function"
    },
    {
      "inputs": [
        {
          "internalType": "bytes32",
          "name": "",
          "type": "bytes32"
        }
      ],
      "name": "usedNullifiers",
      "outputs": [
        {
          "internalType": "bool",
          "name": "",
          "type": "bool"
        }
      ],
      "stateMutability": "view",
      "type": "function"
    },
    {
      "inputs": [],
      "name": "verificationMode",
      "outputs": [
        {
          "internalType": "enum DIAPVerification.VerificationMode",
          "name": "",
          "type": "uint8"
        }
      ],
      "stateMutability": "view",
      "type": "function"
    },
    {
      "inputs": [
        {
          "internalType": "bytes32",
          "name": "",
          "type": "bytes32"
        }
      ],
      "name": "verificationSessions",
      "outputs": [
        {
          "internalType": "address",
          "name": "agent",
          "type": "address"
        },
        {
          "internalType": "string",
          "name": "didDocument",
          "type": "string"
        },
        {
          "internalType": "string",
          "name": "publicKey",
          "type": "string"
        },
        {
          "internalType": "bytes32",
          "name": "commitment",
          "type": "bytes32"
        },
        {
          "internalType": "bytes32",
          "name": "nullifier",
          "type": "bytes32"
        },
        {
          "internalType": "uint256",
          "name": "timestamp",
          "type": "uint256"
        },
        {
          "internalType": "enum DIAPVerification.VerificationStatus",
          "name": "status",
          "type": "uint8"
        },
        {
          "internalType": "bool",
          "name": "isValid",
          "type": "bool"
        }
      ],
      "stateMutability": "view",
      "type": "function"
    },
    {
      "inputs": [],
      "name": "verificationTimeout",
      "outputs": [
        {
          "internalType": "uint256",
          "name": "",
          "type": "uint256"
        }
      ],
      "stateMutability": "view",
      "type": "function"
    },
    {
      "inputs": [
        {
          "internalType": "bytes32",
          "name": "sessionId",
          "type": "bytes32"
        }
      ],
      "name": "verifyIdentity",
      "outputs": [
        {
          "internalType": "bool",
          "name": "",
          "type": "bool"
        }
      ],
      "stateMutability": "nonpayable",
      "type": "function"
    },
    {
      "inputs": [
        {
          "internalType": "address",
          "name": "agent",
          "type": "address"
        },
        {
          "internalType": "uint256",
          "name": "reputation",
          "type": "uint256"
        },
        {
          "internalType": "uint256[8]",
          "name": "proof",
          "type": "uint256[8]"
        }
      ],
      "name": "verifyReputation",
      "outputs": [
        {
          "internalType": "bool",
          "name": "",
          "type": "bool"
        }
      ],
      "stateMutability": "nonpayable",
      "type": "function"
    },
    {
      "inputs": [],
      "name": "zkpVerifier",
      "outputs": [
        {
          "internalType": "address",
          "name": "",
          "type": "address"
        }
      ],
      "stateMutability": "view",
      "type": "function"
    }
  ],
  "bytecode": "0x60a06040523060805261010a805460ff19166002179055348015602157600080fd5b5060805161438261005960003960008181610f6401528181610fa4015281816111ea0152818161122a015261132c01526143826000f3fe60806040526004361061020d5760003560e01c80631532ff3b1461021257806318055a171461024857806318433a7e1461027a5780631a538b741461029c5780631bd29c8114610317578063206137aa1461033757806322dc7b4c146103785780632fb60c1a146103a9578063315ecb64146103c95780633214d3e6146103e957806332627ec71461042557806334ccc5ea146104615780633659cfe614610477578063402c51b81461049757806344dfdb32146104bf57806348da3842146104ec5780634f1ef28614610503578063511773bb1461051657806351b00e9b1461054a57806352d1902d14610561578063537df3b6146105765780635b0e83c11461059657806361120a4c146105c7578063624812d3146105f45780636aebbd6614610614578063715018a614610642578063768ee07f14610657578063771d14411461068e5780637b969e1d146106c25780637eacb7da146106f05780638da5cb5b146107105780639ea0e3e614610725578063aaf80e2814610745578063ac90c1401461075c578063afc1d8cc14610772578063c4d66de814610789578063d410e8ba146107a9578063da6a49c2146107c0578063dd8b5568146107fa578063e00514331461081a578063e57f6d6c1461083a578063e634edc91461085a578063e858462c1461087a578063efcf6a8d146108a7578063f2fde38b146108da578063f63ac762146108fa575b600080fd5b34801561021e57600080fd5b5061023261022d366004613485565b610936565b60405161023f919061353b565b60405180910390f35b34801561025457600080fd5b50610268610263366004613605565b610b30565b60405161023f96959493929190613620565b34801561028657600080fd5b5061029a610295366004613485565b610c78565b005b3480156102a857600080fd5b506102eb6102b7366004613605565b60fe602052600090815260409020805460018201546002830154600b909301546001600160a01b0390921692909160ff1684565b604080516001600160a01b0390951685526020850193909352918301521515606082015260800161023f565b34801561032357600080fd5b5061029a6103323660046136b5565b610d1c565b34801561034357600080fd5b50610368610352366004613485565b6101096020526000908152604090205460ff1681565b604051901515815260200161023f565b34801561038457600080fd5b50610368610393366004613485565b6000908152610109602052604090205460ff1690565b3480156103b557600080fd5b5061029a6103c4366004613485565b610e9e565b3480156103d557600080fd5b5061029a6103e4366004613485565b610f13565b3480156103f557600080fd5b50610368610404366004613605565b6001600160a01b0316600090815260fe60205260409020600b015460ff1690565b34801561043157600080fd5b50610453610440366004613605565b6101066020526000908152604090205481565b60405190815260200161023f565b34801561046d57600080fd5b506104536103e881565b34801561048357600080fd5b5061029a610492366004613605565b610f5a565b3480156104a357600080fd5b5061010a546104b29060ff1681565b60405161023f9190613739565b3480156104cb57600080fd5b506104df6104da366004613605565b611022565b60405161023f9190613753565b3480156104f857600080fd5b506104536101035481565b61029a61051136600461386f565b6111e0565b34801561052257600080fd5b5061052b611299565b604080516001600160a01b03909316835290151560208301520161023f565b34801561055657600080fd5b506104536101015481565b34801561056d57600080fd5b5061045361131f565b34801561058257600080fd5b5061029a610591366004613605565b6113cd565b3480156105a257600080fd5b506103686105b1366004613605565b6101086020526000908152604090205460ff1681565b3480156105d357600080fd5b506105e76105e2366004613605565b611499565b60405161023f91906138ff565b34801561060057600080fd5b5061036861060f366004613485565b611533565b34801561062057600080fd5b5061010554610635906001600160a01b031681565b60405161023f919061394c565b34801561064e57600080fd5b5061029a611d34565b34801561066357600080fd5b50610453610672366004613605565b6001600160a01b03166000908152610106602052604090205490565b34801561069a57600080fd5b506106ae6106a9366004613485565b611d48565b60405161023f989796959493929190613960565b3480156106ce57600080fd5b506104536106dd366004613605565b6101076020526000908152604090205481565b3480156106fc57600080fd5b5061029a61070b3660046139ce565b611eab565b34801561071c57600080fd5b50610635611f12565b34801561073157600080fd5b50610368610740366004613a01565b611f21565b34801561075157600080fd5b506104536101005481565b34801561076857600080fd5b5061045360ff5481565b34801561077e57600080fd5b506104536101025481565b34801561079557600080fd5b5061029a6107a4366004613605565b6121e7565b3480156107b557600080fd5b506104536101045481565b3480156107cc57600080fd5b506103686107db366004613605565b6001600160a01b03166000908152610108602052604090205460ff1690565b34801561080657600080fd5b5060fb54610635906001600160a01b031681565b34801561082657600080fd5b50610453610835366004613a3f565b61238d565b34801561084657600080fd5b5061029a610855366004613485565b612817565b34801561086657600080fd5b5061029a610875366004613605565b6128ae565b34801561088657600080fd5b5061089a610895366004613b1b565b612911565b60405161023f9190613bbb565b3480156108b357600080fd5b5060ff5461010054610101546040805193845260208401929092529082015260600161023f565b3480156108e657600080fd5b5061029a6108f5366004613605565b612bdd565b34801561090657600080fd5b50610368610915366004613605565b6001600160a01b0316600090815260fd60205260409020600d015460ff1690565b61093e613346565b600082815260fc60209081526040918290208251610120810190935280546001600160a01b03168352600181018054919284019161097b90613c00565b80601f01602080910402602001604051908101604052809291908181526020018280546109a790613c00565b80156109f45780601f106109c9576101008083540402835291602001916109f4565b820191906000526020600020905b8154815290600101906020018083116109d757829003601f168201915b50505050508152602001600282018054610a0d90613c00565b80601f0160208091040260200160405190810160405280929190818152602001828054610a3990613c00565b8015610a865780601f10610a5b57610100808354040283529160200191610a86565b820191906000526020600020905b815481529060010190602001808311610a6957829003601f168201915b505050918352505060038281015460208301526004830154604083015260058301546060830152600683015460809092019160ff1690811115610acb57610acb6134ee565b6003811115610adc57610adc6134ee565b81526040805161010081019182905260209092019190600784019060089082845b815481526020019060010190808311610afd575050509183525050600f919091015460ff16151560209091015292915050565b60fd60205260009081526040902080548190610b4b90613c00565b80601f0160208091040260200160405190810160405280929190818152602001828054610b7790613c00565b8015610bc45780601f10610b9957610100808354040283529160200191610bc4565b820191906000526020600020905b815481529060010190602001808311610ba757829003601f168201915b505050505090806001018054610bd990613c00565b80601f0160208091040260200160405190810160405280929190818152602001828054610c0590613c00565b8015610c525780601f10610c2757610100808354040283529160200191610c52565b820191906000526020600020905b815481529060010190602001808311610c3557829003601f168201915b5050505060028301546003840154600c850154600d909501549394919390925060ff1686565b610c80612c53565b60008111610cd55760405162461bcd60e51b815260206004820152601e60248201527f54696d656f7574206d7573742062652067726561746572207468616e2030000060448201526064015b60405180910390fd5b61010280549082905560408051828152602081018490527fc1ef737bf7102bbdaa760e4f22f3e142338e7e2e233811046825e752125beafc91015b60405180910390a15050565b610d24612c53565b6001600160a01b0385166000908152610108602052604090205460ff1615610d8a5760405162461bcd60e51b81526020600482015260196024820152781059d95b9d08185b1c9958591e48189b1858dadb1a5cdd1959603a1b6044820152606401610ccc565b7f739a90aa8c4210220c3ac2e84422de2c3738210e4ea7f6862b44ee1262f1a5b58484604051610dbb929190613c3a565b604051809103902003610dd657610dd185612cb2565b610e64565b7f01cdace648f81642e3d86eb540483168b47d1062d81b985ffadd427b1e7ce23f8484604051610e07929190613c3a565b604051809103902003610e1d57610dd185612cb2565b7f97f11fce5afffef14226842a845865bc83ba3996898a99c06b258d77550865238484604051610e4e929190613c3a565b604051809103902003610e6457610e6485612cb2565b846001600160a01b031660008051602061432d833981519152858542604051610e8f93929190613c73565b60405180910390a25050505050565b610ea6612c53565b6000818152610109602052604090205460ff16610efa5760405162461bcd60e51b8152602060048201526012602482015271139d5b1b1a599a595c881b9bdd081d5cd95960721b6044820152606401610ccc565b600090815261010960205260409020805460ff19169055565b610f1b612c53565b61010480549082905560408051828152602081018490527f0b3aa458e08e72cc8890fe5789d911bc6d7212f9adddfa6ada2a7fcb2be6796e9101610d10565b6001600160a01b037f0000000000000000000000000000000000000000000000000000000000000000163003610fa25760405162461bcd60e51b8152600401610ccc90613c97565b7f00000000000000000000000000000000000000000000000000000000000000006001600160a01b0316610fd4612cd7565b6001600160a01b031614610ffa5760405162461bcd60e51b8152600401610ccc90613cd1565b61100381612cf3565b6040805160008082526020820190925261101f91839190612cfb565b50565b61102a613399565b6001600160a01b038216600090815260fd602052604090819020815160e0810190925280548290829061105c90613c00565b80601f016020809104026020016040519081016040528092919081815260200182805461108890613c00565b80156110d55780601f106110aa576101008083540402835291602001916110d5565b820191906000526020600020905b8154815290600101906020018083116110b857829003601f168201915b505050505081526020016001820180546110ee90613c00565b80601f016020809104026020016040519081016040528092919081815260200182805461111a90613c00565b80156111675780601f1061113c57610100808354040283529160200191611167565b820191906000526020600020905b81548152906001019060200180831161114a57829003601f168201915b5050509183525050600282015460208201526003820154604080830191909152805161010081019182905260609092019190600484019060089082845b8154815260200190600101908083116111a4575050509183525050600c8201546020820152600d9091015460ff16151560409091015292915050565b6001600160a01b037f00000000000000000000000000000000000000000000000000000000000000001630036112285760405162461bcd60e51b8152600401610ccc90613c97565b7f00000000000000000000000000000000000000000000000000000000000000006001600160a01b031661125a612cd7565b6001600160a01b0316146112805760405162461bcd60e51b8152600401610ccc90613cd1565b61128982612cf3565b61129582826001612cfb565b5050565b610105546001600160a01b03166000816112b4575060009091565b816001600160a01b031663856c71dd6040518163ffffffff1660e01b8152600401602060405180830381865afa92505050801561130e575060408051601f3d908101601f1916820190925261130b91810190613d1b565b60015b611319575060009091565b90509091565b6000306001600160a01b037f000000000000000000000000000000000000000000000000000000000000000016146113ba5760405162461bcd60e51b815260206004820152603860248201527f555550535570677261646561626c653a206d757374206e6f742062652063616c6044820152771b1959081d1a1c9bdd59da0819195b1959d85d1958d85b1b60421b6064820152608401610ccc565b506000805160206142c683398151915290565b6113d5612c53565b6001600160a01b0381166000908152610108602052604090205460ff166114365760405162461bcd60e51b81526020600482015260156024820152741059d95b9d081b9bdd08189b1858dadb1a5cdd1959605a1b6044820152606401610ccc565b6001600160a01b038116600081815261010860209081526040808320805460ff1916905561010682528083209290925590514281527ff67a15457310dc945e1c8228f1b50f0f3fa28985aa795add5dae23dbe5865b26910160405180910390a250565b6114a16133e2565b6001600160a01b03828116600090815260fe6020908152604091829020825160a0810184528154909416845260018101549184019190915260028101548383015281516101008101928390529091606084019190600384019060089082845b815481526020019060010190808311611500575050509183525050600b919091015460ff16151560209091015292915050565b60008061010a5460ff16600281111561154e5761154e6134ee565b036115905761155b611f12565b6001600160a01b0316336001600160a01b03161461158b5760405162461bcd60e51b8152600401610ccc90613d36565b611628565b600161010a5460ff1660028111156115aa576115aa6134ee565b036115da57610105546001600160a01b0316331461158b5760405162461bcd60e51b8152600401610ccc90613d65565b6115e2611f12565b6001600160a01b0316336001600160a01b0316148061160c5750610105546001600160a01b031633145b6116285760405162461bcd60e51b8152600401610ccc90613d9b565b600082815260fc60205260409020600581015461167b5760405162461bcd60e51b815260206004820152601160248201527014d95cdcda5bdb881b9bdd08199bdd5b99607a1b6044820152606401610ccc565b6000600682015460ff166003811115611696576116966134ee565b146116d95760405162461bcd60e51b815260206004820152601360248201527253657373696f6e206e6f742070656e64696e6760681b6044820152606401610ccc565b6101025481600501546116ec9190613de0565b42111561172d5760405162461bcd60e51b815260206004820152600f60248201526e14d95cdcda5bdb88195e1c1a5c9959608a1b6044820152606401610ccc565b60408051610100810191829052600091600784019060089082845b815481526020019060010190808311611748575050505050905060006118878284600101805461177790613c00565b80601f01602080910402602001604051908101604052809291908181526020018280546117a390613c00565b80156117f05780601f106117c5576101008083540402835291602001916117f0565b820191906000526020600020905b8154815290600101906020018083116117d357829003601f168201915b505050505085600201805461180490613c00565b80601f016020809104026020016040519081016040528092919081815260200182805461183090613c00565b801561187d5780601f106118525761010080835404028352916020019161187d565b820191906000526020600020905b81548152906001019060200180831161186057829003601f168201915b5050505050612e6b565b90508015611bbd576006830180546001919060ff191682800217905550600f8301805460ff1916600117905561010080549060006118c483613df3565b91905055506040518060e001604052808460010180546118e390613c00565b80601f016020809104026020016040519081016040528092919081815260200182805461190f90613c00565b801561195c5780601f106119315761010080835404028352916020019161195c565b820191906000526020600020905b81548152906001019060200180831161193f57829003601f168201915b5050505050815260200184600201805461197590613c00565b80601f01602080910402602001604051908101604052809291908181526020018280546119a190613c00565b80156119ee5780601f106119c3576101008083540402835291602001916119ee565b820191906000526020600020905b8154815290600101906020018083116119d157829003601f168201915b5050509183525050600385015460208201526004850154604080830191909152805161010081019182905260609092019190600787019060089082845b815481526020019060010190808311611a2b57505050918352505042602080830191909152600160409283015285546001600160a01b0316600090815260fd9091522081518190611a7c9082613e5a565b5060208201516001820190611a919082613e5a565b5060408201516002820155606082015160038201556080820151611abb9060048301906008613413565b5060a0820151600c82015560c090910151600d909101805460ff191691151591909117905582546001600160a01b03908116600090815261010660209081526040808320929092558554915160018152919092169187916000805160206142e6833981519152910160405180910390a382546040516001600160a01b03909116907f5d57bd940ff05dca0f7ab8f29a0dd87b33dad597a52d26003d642a4076e38bc290611b6e9060018701904290613f18565b60405180910390a2825460048401546040516001600160a01b03909216917f17a971f4f4d9677ca183a8819b6b1cfb84ee86aaa80b1805d2dba12abdc0167190600090a3506001949350505050565b60068301805460ff19908116600217909155600f8401805490911690556101018054906000611beb83613df3565b909155505082546001600160a01b0316600090815261010660205260408120805491611c1683613df3565b909155505082546001600160a01b03908116600090815261010760209081526040808320429055610103548754909416835261010690915290205410611cf25782546001600160a01b039081166000908152610108602052604090819020805460ff191660011790558454905191169060008051602061432d83398151915290611ce990429060408082526025908201527f546f6f206d616e79206661696c656420766572696669636174696f6e20617474606082015264656d70747360d81b6080820152602081019190915260a00190565b60405180910390a25b8254604051600081526001600160a01b039091169086906000805160206142e68339815191529060200160405180910390a3506000949350505050565b919050565b611d3c612c53565b611d466000612f11565b565b60fc60205260009081526040902080546001820180546001600160a01b039092169291611d7490613c00565b80601f0160208091040260200160405190810160405280929190818152602001828054611da090613c00565b8015611ded5780601f10611dc257610100808354040283529160200191611ded565b820191906000526020600020905b815481529060010190602001808311611dd057829003601f168201915b505050505090806002018054611e0290613c00565b80601f0160208091040260200160405190810160405280929190818152602001828054611e2e90613c00565b8015611e7b5780601f10611e5057610100808354040283529160200191611e7b565b820191906000526020600020905b815481529060010190602001808311611e5e57829003601f168201915b5050506003840154600485015460058601546006870154600f9097015495969295919450925060ff918216911688565b611eb3612c53565b61010a805482919060ff19166001836002811115611ed357611ed36134ee565b02179055507fc5fc43171aab09e52b7572f38155eb0ef29e930b3337d94843f7cfbe433ffd9681604051611f079190613739565b60405180910390a150565b6097546001600160a01b031690565b60008061010a5460ff166002811115611f3c57611f3c6134ee565b03611f7e57611f49611f12565b6001600160a01b0316336001600160a01b031614611f795760405162461bcd60e51b8152600401610ccc90613d36565b612016565b600161010a5460ff166002811115611f9857611f986134ee565b03611fc857610105546001600160a01b03163314611f795760405162461bcd60e51b8152600401610ccc90613d65565b611fd0611f12565b6001600160a01b0316336001600160a01b03161480611ffa5750610105546001600160a01b031633145b6120165760405162461bcd60e51b8152600401610ccc90613d9b565b61201e612f63565b6001600160a01b0384166000908152610108602052604090205460ff16156120585760405162461bcd60e51b8152600401610ccc90613fac565b6127108311156120a55760405162461bcd60e51b8152602060048201526018602482015277496e76616c69642072657075746174696f6e2073636f726560401b6044820152606401610ccc565b60006120b2838686612fbc565b905080156121d0576040518060a00160405280866001600160a01b0316815260200185815260200142815260200184600880602002604051908101604052809291908260086020028082843760009201829052509284525050600160209283018190526001600160a01b03898116835260fe8452604092839020855181546001600160a01b03191692169190911781559284015190830155820151600282015560608201516121679060038301906008613413565b5060809190910151600b909101805460ff1916911515919091179055604080518581524260208201526001600160a01b038716917f7db3c95d2daeb7ebdc8d651d02552d8a4eb8da48020eeed5f1319c7becb5e7ce910160405180910390a260019150506121d6565b60009150505b6121e0600160c955565b9392505050565b600054610100900460ff16158080156122075750600054600160ff909116105b80612228575061221630613014565b158015612228575060005460ff166001145b61228b5760405162461bcd60e51b815260206004820152602e60248201527f496e697469616c697a61626c653a20636f6e747261637420697320616c72656160448201526d191e481a5b9a5d1a585b1a5e995960921b6064820152608401610ccc565b6000805460ff1916600117905580156122ae576000805461ff0019166101001790555b6001600160a01b0382166123045760405162461bcd60e51b815260206004820152601d60248201527f496e76616c6964206167656e74206e6574776f726b20616464726573730000006044820152606401610ccc565b61230c613023565b612314613052565b61231c613079565b60fb80546001600160a01b0319166001600160a01b038416179055610e10610102556003610103556103e8610104558015611295576000805461ff0019169055604051600181527f7f26b83ff96e1f2b6a682f133852f6798a09c465da95921460cefb384740249890602001610d10565b6000612397612f63565b336000908152610108602052604090205460ff16156123c85760405162461bcd60e51b8152600401610ccc90613fac565b86158015906123d957506103e88711155b6124235760405162461bcd60e51b815260206004820152601b60248201527a092dcecc2d8d2c84088928840c8dec6eadacadce840d8cadccee8d602b1b6044820152606401610ccc565b841580159061243457506103e88511155b61247c5760405162461bcd60e51b8152602060048201526019602482015278092dcecc2d8d2c840e0eac4d8d2c640d6caf240d8cadccee8d603b1b6044820152606401610ccc565b836124be5760405162461bcd60e51b8152602060048201526012602482015271125b9d985b1a590818dbdb5b5a5d1b595b9d60721b6044820152606401610ccc565b826124ff5760405162461bcd60e51b815260206004820152601160248201527024b73b30b634b210373ab63634b334b2b960791b6044820152606401610ccc565b6000838152610109602052604090205460ff16156125585760405162461bcd60e51b8152602060048201526016602482015275139d5b1b1a599a595c88185b1c9958591e481d5cd95960521b6044820152606401610ccc565b600083815261010960209081526040808320805460ff191660011790556101035433845261010690925290912054106125ce5760405162461bcd60e51b8152602060048201526018602482015277546f6f206d616e79206661696c656420617474656d70747360401b6044820152606401610ccc565b60003389898989898942436040516020016125f199989796959493929190613fda565b60408051601f198184030181528282528051602091820120610120840183523384528251601f8d018390048302810183019093528b8352935082810191908c908c9081908401838280828437600092019190915250505090825250604080516020601f8b0181900481028201810190925289815291810191908a908a908190840183828082843760009201829052509385525050506020820188905260408201879052426060830152608090910190815260200184600880602002604051908101604052809291908260086020028082843760009201829052509284525050602091820181905283815260fc825260409020825181546001600160a01b0319166001600160a01b039091161781559082015160018201906127129082613e5a565b50604082015160028201906127279082613e5a565b50606082015181600301556080820151816004015560a0820151816005015560c08201518160060160006101000a81548160ff02191690836003811115612770576127706134ee565b021790555060e082015161278a9060078301906008613413565b506101009190910151600f909101805460ff191691151591909117905560ff80549060006127b783613df3565b9190505550336001600160a01b0316817f941cc11b7922ad4177c4ef187dcbf8241b8e3c38d83cfbddd453862054db06818b8b6040516127f892919061402e565b60405180910390a3905061280c600160c955565b979650505050505050565b61281f612c53565b6000811161286f5760405162461bcd60e51b815260206004820152601f60248201527f417474656d707473206d7573742062652067726561746572207468616e2030006044820152606401610ccc565b61010380549082905560408051828152602081018490527f0e9ccbd069458b034aef3fe64e05a52901db8b6691404c206fd1912a94cf9d959101610d10565b6128b6612c53565b61010580546001600160a01b038381166001600160a01b031983168117909355604080519190921680825260208201939093527f568f493769992355f5c1dea0f6167ea2f375bb6250fc89f5c2e0ecce976516c39101610d10565b606061291b612c53565b8382146129635760405162461bcd60e51b8152602060048201526016602482015275082e4e4c2f2e640d8cadccee8d040dad2e6dac2e8c6d60531b6044820152606401610ccc565b600a8411156129a65760405162461bcd60e51b815260206004820152600f60248201526e546f6f206d616e79206167656e747360881b6044820152606401610ccc565b6000846001600160401b038111156129c0576129c06137d9565b6040519080825280602002602001820160405280156129e9578160200160208202803683370190505b50905060005b85811015612bd1576101086000888884818110612a0e57612a0e614042565b9050602002016020810190612a239190613605565b6001600160a01b0316815260208101919091526040016000205460ff1615612a6e576000828281518110612a5957612a59614042565b91151560209283029190910190910152612bc9565b60fb546001600160a01b031663fb3551ff888884818110612a9157612a91614042565b9050602002016020810190612aa69190613605565b6040518263ffffffff1660e01b8152600401612ac2919061394c565b600060405180830381865afa925050508015612b0057506040513d6000823e601f3d908101601f19168201604052612afd919081019061409d565b60015b612b18576000828281518110612a5957612a59614042565b806060015115612ba2576000868684818110612b3657612b36614042565b9050610100020160088060200260405190810160405280929190826008602002808284376000920191909152505083516020850151929350612b7a92849250612e6b565b848481518110612b8c57612b8c614042565b9115156020928302919091019091015250612bc7565b6000838381518110612bb657612bb6614042565b911515602092830291909101909101525b505b6001016129ef565b5090505b949350505050565b612be5612c53565b6001600160a01b038116612c4a5760405162461bcd60e51b815260206004820152602660248201527f4f776e61626c653a206e6577206f776e657220697320746865207a65726f206160448201526564647265737360d01b6064820152608401610ccc565b61101f81612f11565b33612c5c611f12565b6001600160a01b031614611d465760405162461bcd60e51b815260206004820181905260248201527f4f776e61626c653a2063616c6c6572206973206e6f7420746865206f776e65726044820152606401610ccc565b6001600160a01b0316600090815261010860205260409020805460ff19166001179055565b6000805160206142c6833981519152546001600160a01b031690565b61101f612c53565b7f4910fdfa16fed3260ed0e7147f7cc6da11a60208b5b9406d12a635614ffd91435460ff1615612d3357612d2e836130a8565b505050565b826001600160a01b03166352d1902d6040518163ffffffff1660e01b8152600401602060405180830381865afa925050508015612d8d575060408051601f3d908101601f19168201909252612d8a91810190614199565b60015b612df05760405162461bcd60e51b815260206004820152602e60248201527f45524331393637557067726164653a206e657720696d706c656d656e7461746960448201526d6f6e206973206e6f74205555505360901b6064820152608401610ccc565b6000805160206142c68339815191528114612e5f5760405162461bcd60e51b815260206004820152602960248201527f45524331393637557067726164653a20756e737570706f727465642070726f786044820152681a58589b195555525160ba1b6064820152608401610ccc565b50612d2e838383613142565b610105546000906001600160a01b0316612e9757835115801590612e90575060008351115b90506121e0565b610105546040516302aaf33360e11b81526001600160a01b0390911690630555e66690612ecc908790879087906004016141b2565b602060405180830381865afa925050508015612f05575060408051601f3d908101601f19168201909252612f0291810190613d1b565b60015b612e90575060006121e0565b609780546001600160a01b038381166001600160a01b0319831681179093556040519116919082907f8be0079c531659141344cd1fd0a4f28419497f9722a3daafe3b4186f6b6457e090600090a35050565b600260c95403612fb55760405162461bcd60e51b815260206004820152601f60248201527f5265656e7472616e637947756172643a207265656e7472616e742063616c6c006044820152606401610ccc565b600260c955565b610105546000906001600160a01b0316612fd8575060006121e0565b6101055460405163704011a360e01b81526001600160a01b039091169063704011a390612ecc90879087908790600401614204565b600160c955565b6001600160a01b03163b151590565b600054610100900460ff1661304a5760405162461bcd60e51b8152600401610ccc9061422b565b611d4661316d565b600054610100900460ff16611d465760405162461bcd60e51b8152600401610ccc9061422b565b600054610100900460ff166130a05760405162461bcd60e51b8152600401610ccc9061422b565b611d4661319d565b6130b181613014565b6131135760405162461bcd60e51b815260206004820152602d60248201527f455243313936373a206e657720696d706c656d656e746174696f6e206973206e60448201526c1bdd08184818dbdb9d1c9858dd609a1b6064820152608401610ccc565b6000805160206142c683398151915280546001600160a01b0319166001600160a01b0392909216919091179055565b61314b836131c4565b6000825111806131585750805b15612d2e576131678383613204565b50505050565b600054610100900460ff166131945760405162461bcd60e51b8152600401610ccc9061422b565b611d4633612f11565b600054610100900460ff1661300d5760405162461bcd60e51b8152600401610ccc9061422b565b6131cd816130a8565b6040516001600160a01b038216907fbc7cd75a20ee27fd9adebab32041f755214dbc6bffa90cc0225b39da2e5c2d3b90600090a250565b6060613229838360405180606001604052806027815260200161430660279139613232565b90505b92915050565b6060600080856001600160a01b03168560405161324f9190614276565b600060405180830381855af49150503d806000811461328a576040519150601f19603f3d011682016040523d82523d6000602084013e61328f565b606091505b50915091506132a0868383876132aa565b9695505050505050565b60608315613317578251600003613310576132c485613014565b6133105760405162461bcd60e51b815260206004820152601d60248201527f416464726573733a2063616c6c20746f206e6f6e2d636f6e74726163740000006044820152606401610ccc565b5081612bd5565b612bd5838381511561332c5781518083602001fd5b8060405162461bcd60e51b8152600401610ccc9190614292565b604080516101208101825260008082526060602083018190529282018390529181018290526080810182905260a081018290529060c0820190815260200161338c613451565b8152600060209091015290565b6040518060e00160405280606081526020016060815260200160008019168152602001600080191681526020016133ce613451565b815260006020820181905260409091015290565b6040518060a0016040528060006001600160a01b03168152602001600081526020016000815260200161338c613451565b8260088101928215613441579160200282015b82811115613441578251825591602001919060010190613426565b5061344d929150613470565b5090565b6040518061010001604052806008906020820280368337509192915050565b5b8082111561344d5760008155600101613471565b60006020828403121561349757600080fd5b5035919050565b60005b838110156134b95781810151838201526020016134a1565b50506000910152565b600081518084526134da81602086016020860161349e565b601f01601f19169290920160200192915050565b634e487b7160e01b600052602160045260246000fd5b60048110613514576135146134ee565b9052565b8060005b600881101561316757815184526020938401939091019060010161351c565b602081526135556020820183516001600160a01b03169052565b6000602083015161020060408401526135726102208401826134c2565b90506040840151601f1984830301606085015261358f82826134c2565b91505060608401516080840152608084015160a084015260a084015160c084015260c08401516135c260e0850182613504565b5060e08401516135d6610100850182613518565b50610100840151801515610200850152509392505050565b80356001600160a01b0381168114611d2f57600080fd5b60006020828403121561361757600080fd5b613229826135ee565b60c08152600061363360c08301896134c2565b828103602084015261364581896134c2565b91505085604083015284606083015283608083015282151560a0830152979650505050505050565b60008083601f84011261367f57600080fd5b5081356001600160401b0381111561369657600080fd5b6020830191508360208285010111156136ae57600080fd5b9250929050565b6000806000806000606086880312156136cd57600080fd5b6136d6866135ee565b945060208601356001600160401b038111156136f157600080fd5b6136fd8882890161366d565b90955093505060408601356001600160401b0381111561371c57600080fd5b6137288882890161366d565b969995985093965092949392505050565b602081016003831061374d5761374d6134ee565b91905290565b60208152600082516101c060208401526137716101e08401826134c2565b90506020840151601f1984830301604085015261378e82826134c2565b915050604084015160608401526060840151608084015260808401516137b760a0850182613518565b5060a08401516101a084015260c09093015115156101c0909201919091525090565b634e487b7160e01b600052604160045260246000fd5b60405161014081016001600160401b0381118282101715613812576138126137d9565b60405290565b604051601f8201601f191681016001600160401b0381118282101715613840576138406137d9565b604052919050565b60006001600160401b03821115613861576138616137d9565b50601f01601f191660200190565b6000806040838503121561388257600080fd5b61388b836135ee565b915060208301356001600160401b038111156138a657600080fd5b8301601f810185136138b757600080fd5b80356138ca6138c582613848565b613818565b8181528660208385010111156138df57600080fd5b816020840160208301376000602083830101528093505050509250929050565b81516001600160a01b03168152602080830151908201526040808301519082015260608083015161018083019161393890840182613518565b506080830151151561016083015292915050565b6001600160a01b0391909116815260200190565b6001600160a01b0389168152610100602082018190526000906139859083018a6134c2565b8281036040840152613997818a6134c2565b9150508660608301528560808301528460a08301526139b960c0830185613504565b82151560e08301529998505050505050505050565b6000602082840312156139e057600080fd5b8135600381106121e057600080fd5b80610100810183101561322c57600080fd5b60008060006101408486031215613a1757600080fd5b613a20846135ee565b925060208401359150613a3685604086016139ef565b90509250925092565b6000806000806000806000610180888a031215613a5b57600080fd5b87356001600160401b03811115613a7157600080fd5b613a7d8a828b0161366d565b90985096505060208801356001600160401b03811115613a9c57600080fd5b613aa88a828b0161366d565b9096509450506040880135925060608801359150613ac98960808a016139ef565b905092959891949750929550565b60008083601f840112613ae957600080fd5b5081356001600160401b03811115613b0057600080fd5b6020830191508360208260081b85010111156136ae57600080fd5b60008060008060408587031215613b3157600080fd5b84356001600160401b03811115613b4757600080fd5b8501601f81018713613b5857600080fd5b80356001600160401b03811115613b6e57600080fd5b8760208260051b8401011115613b8357600080fd5b6020918201955093508501356001600160401b03811115613ba357600080fd5b613baf87828801613ad7565b95989497509550505050565b602080825282518282018190526000918401906040840190835b81811015613bf55783511515835260209384019390920191600101613bd5565b509095945050505050565b600181811c90821680613c1457607f821691505b602082108103613c3457634e487b7160e01b600052602260045260246000fd5b50919050565b8183823760009101908152919050565b81835281816020850137506000828201602090810191909152601f909101601f19169091010190565b604081526000613c87604083018587613c4a565b9050826020830152949350505050565b6020808252602c908201526000805160206142a683398151915260408201526b19195b1959d85d1958d85b1b60a21b606082015260800190565b6020808252602c908201526000805160206142a683398151915260408201526b6163746976652070726f787960a01b606082015260800190565b80518015158114611d2f57600080fd5b600060208284031215613d2d57600080fd5b61322982613d0b565b6020808252601590820152744f6e6c79206f776e65722063616e2076657269667960581b604082015260600190565b6020808252601c908201527b4f6e6c79205a4b502076657269666965722063616e2076657269667960201b604082015260600190565b6020808252601590820152742ab730baba3437b934bd32b2103b32b934b334b2b960591b604082015260600190565b634e487b7160e01b600052601160045260246000fd5b8082018082111561322c5761322c613dca565b600060018201613e0557613e05613dca565b5060010190565b601f821115612d2e57806000526020600020601f840160051c81016020851015613e335750805b601f840160051c820191505b81811015613e535760008155600101613e3f565b5050505050565b81516001600160401b03811115613e7357613e736137d9565b613e8781613e818454613c00565b84613e0c565b6020601f821160018114613ebb5760008315613ea35750848201515b600019600385901b1c1916600184901b178455613e53565b600084815260208120601f198516915b82811015613eeb5787850151825560209485019460019092019101613ecb565b5084821015613f095786840151600019600387901b60f8161c191681555b50505050600190811b01905550565b604081526000808454613f2a81613c00565b8060408601526001821660008114613f495760018114613f6557613f99565b60ff1983166060870152606082151560051b8701019350613f99565b87600052602060002060005b83811015613f9057815488820160600152600190910190602001613f71565b87016060019450505b5050506020929092019290925292915050565b6020808252601490820152731059d95b9d081a5cc8189b1858dadb1a5cdd195960621b604082015260600190565b60608a901b6001600160601b03191681528789601483013760008882016014810160008152888a82375090960160148101959095525060348401929092526054830152607482015260940195945050505050565b602081526000612bd5602083018486613c4a565b634e487b7160e01b600052603260045260246000fd5b600082601f83011261406957600080fd5b81516140776138c582613848565b81815284602083860101111561408c57600080fd5b612bd582602083016020870161349e565b6000602082840312156140af57600080fd5b81516001600160401b038111156140c557600080fd5b820161014081850312156140d857600080fd5b6140e06137ef565b81516001600160401b038111156140f657600080fd5b61410286828501614058565b82525060208201516001600160401b0381111561411e57600080fd5b61412a86828501614058565b6020830152506040828101519082015261414660608301613d0b565b60608201526080828101519082015260a0808301519082015260c0808301519082015260e08083015190820152610100808301519082015261418b6101208301613d0b565b610120820152949350505050565b6000602082840312156141ab57600080fd5b5051919050565b60008185825b60088110156141d75781518352602092830192909101906001016141b8565b5050506101406101008301526141f16101408301856134c2565b8281036101208401526132a081856134c2565b61014081016101008583376001600160a01b03939093166101008201526101200152919050565b6020808252602b908201527f496e697469616c697a61626c653a20636f6e7472616374206973206e6f74206960408201526a6e697469616c697a696e6760a81b606082015260800190565b6000825161428881846020870161349e565b9190910192915050565b60208152600061322960208301846134c256fe46756e6374696f6e206d7573742062652063616c6c6564207468726f75676820360894a13ba1a3210667c828492db98dca3e2076cc3735a920a3ca505d382bbc97c9b29a58b5d7da659547427f1268ebbd60e66aa1d11950e653ef16b09a10f1416464726573733a206c6f772d6c6576656c2064656c65676174652063616c6c206661696c65644c44bcfe62396d16242327c3369b7b2f1696e63c1e748ce1ab47024ea898a5e1a26469706673582212203d79c20c4cd3c674d1f4d2f89cebc7a82224a2643969ecb9e636bfc0931f309864736f6c634300081e0033",
  "linkReferences": {},
  "deployedLinkReferences": {}
}