{
  "_format": "hh-sol-artifact-1",
  "contractName": "DIAPVerification",
  "sourceName": "contracts/DIAPVerification.sol",
  "abi": [
    {
      "inputs": [],
      "name": "AgentAlreadyBlacklisted",
      "type": "error"
    },
    {
      "inputs": [],
      "name": "AgentIsBlacklisted",
      "type": "error"
    },
    {
      "inputs": [],
      "name": "AgentNotBlacklisted",
      "type": "error"
    },
    {
      "inputs": [],
      "name": "ArraysLengthMismatch",
      "type": "error"
    },
    {
      "inputs": [],
      "name": "AttemptsMustBeGreaterThanZero",
      "type": "error"
    },
    {
      "inputs": [],
      "name": "InvalidAgentNetworkAddress",
      "type": "error"
    },
    {
      "inputs": [],
      "name": "InvalidCommitment",
      "type": "error"
    },
    {
      "inputs": [],
      "name": "InvalidDIDDocumentLength",
      "type": "error"
    },
    {
      "inputs": [],
      "name": "InvalidNullifier",
      "type": "error"
    },
    {
      "inputs": [],
      "name": "InvalidPublicKeyLength",
      "type": "error"
    },
    {
      "inputs": [],
      "name": "InvalidReputationScore",
      "type": "error"
    },
    {
      "inputs": [],
      "name": "NullifierAlreadyUsed",
      "type": "error"
    },
    {
      "inputs": [],
      "name": "NullifierNotUsed",
      "type": "error"
    },
    {
      "inputs": [],
      "name": "OnlyOwnerCanVerify",
      "type": "error"
    },
    {
      "inputs": [],
      "name": "OnlyZKPVerifierCanVerify",
      "type": "error"
    },
    {
      "inputs": [],
      "name": "SessionExpired",
      "type": "error"
    },
    {
      "inputs": [],
      "name": "SessionNotFound",
      "type": "error"
    },
    {
      "inputs": [],
      "name": "SessionNotPending",
      "type": "error"
    },
    {
      "inputs": [],
      "name": "TimeoutMustBeGreaterThanZero",
      "type": "error"
    },
    {
      "inputs": [],
      "name": "TooManyAgents",
      "type": "error"
    },
    {
      "inputs": [],
      "name": "TooManyFailedAttempts",
      "type": "error"
    },
    {
      "inputs": [],
      "name": "UnauthorizedVerifier",
      "type": "error"
    },
    {
      "anonymous": false,
      "inputs": [
        {
          "indexed": false,
          "internalType": "address",
          "name": "previousAdmin",
          "type": "address"
        },
        {
          "indexed": false,
          "internalType": "address",
          "name": "newAdmin",
          "type": "address"
        }
      ],
      "name": "AdminChanged",
      "type": "event"
    },
    {
      "anonymous": false,
      "inputs": [
        {
          "indexed": true,
          "internalType": "address",
          "name": "agent",
          "type": "address"
        },
        {
          "indexed": false,
          "internalType": "string",
          "name": "reason",
          "type": "string"
        },
        {
          "indexed": false,
          "internalType": "uint256",
          "name": "timestamp",
          "type": "uint256"
        }
      ],
      "name": "AgentBlacklisted",
      "type": "event"
    },
    {
      "anonymous": false,
      "inputs": [
        {
          "indexed": true,
          "internalType": "address",
          "name": "agent",
          "type": "address"
        },
        {
          "indexed": false,
          "internalType": "uint256",
          "name": "timestamp",
          "type": "uint256"
        }
      ],
      "name": "AgentWhitelisted",
      "type": "event"
    },
    {
      "anonymous": false,
      "inputs": [
        {
          "indexed": true,
          "internalType": "address",
          "name": "beacon",
          "type": "address"
        }
      ],
      "name": "BeaconUpgraded",
      "type": "event"
    },
    {
      "anonymous": false,
      "inputs": [
        {
          "indexed": true,
          "internalType": "address",
          "name": "agent",
          "type": "address"
        },
        {
          "indexed": false,
          "internalType": "string",
          "name": "didDocument",
          "type": "string"
        },
        {
          "indexed": false,
          "internalType": "uint256",
          "name": "timestamp",
          "type": "uint256"
        }
      ],
      "name": "IdentityVerified",
      "type": "event"
    },
    {
      "anonymous": false,
      "inputs": [
        {
          "indexed": false,
          "internalType": "uint8",
          "name": "version",
          "type": "uint8"
        }
      ],
      "name": "Initialized",
      "type": "event"
    },
    {
      "anonymous": false,
      "inputs": [
        {
          "indexed": false,
          "internalType": "uint256",
          "name": "oldAttempts",
          "type": "uint256"
        },
        {
          "indexed": false,
          "internalType": "uint256",
          "name": "newAttempts",
          "type": "uint256"
        }
      ],
      "name": "MaxVerificationAttemptsUpdated",
      "type": "event"
    },
    {
      "anonymous": false,
      "inputs": [
        {
          "indexed": true,
          "internalType": "bytes32",
          "name": "nullifier",
          "type": "bytes32"
        },
        {
          "indexed": true,
          "internalType": "address",
          "name": "agent",
          "type": "address"
        }
      ],
      "name": "NullifierUsed",
      "type": "event"
    },
    {
      "anonymous": false,
      "inputs": [
        {
          "indexed": true,
          "internalType": "address",
          "name": "previousOwner",
          "type": "address"
        },
        {
          "indexed": true,
          "internalType": "address",
          "name": "newOwner",
          "type": "address"
        }
      ],
      "name": "OwnershipTransferred",
      "type": "event"
    },
    {
      "anonymous": false,
      "inputs": [
        {
          "indexed": false,
          "internalType": "uint256",
          "name": "oldThreshold",
          "type": "uint256"
        },
        {
          "indexed": false,
          "internalType": "uint256",
          "name": "newThreshold",
          "type": "uint256"
        }
      ],
      "name": "ReputationThresholdUpdated",
      "type": "event"
    },
    {
      "anonymous": false,
      "inputs": [
        {
          "indexed": true,
          "internalType": "address",
          "name": "agent",
          "type": "address"
        },
        {
          "indexed": false,
          "internalType": "uint256",
          "name": "reputation",
          "type": "uint256"
        },
        {
          "indexed": false,
          "internalType": "uint256",
          "name": "timestamp",
          "type": "uint256"
        }
      ],
      "name": "ReputationVerified",
      "type": "event"
    },
    {
      "anonymous": false,
      "inputs": [
        {
          "indexed": true,
          "internalType": "address",
          "name": "implementation",
          "type": "address"
        }
      ],
      "name": "Upgraded",
      "type": "event"
    },
    {
      "anonymous": false,
      "inputs": [
        {
          "indexed": true,
          "internalType": "bytes32",
          "name": "sessionId",
          "type": "bytes32"
        },
        {
          "indexed": true,
          "internalType": "address",
          "name": "agent",
          "type": "address"
        },
        {
          "indexed": false,
          "internalType": "bool",
          "name": "isValid",
          "type": "bool"
        }
      ],
      "name": "VerificationCompleted",
      "type": "event"
    },
    {
      "anonymous": false,
      "inputs": [
        {
          "indexed": true,
          "internalType": "bytes32",
          "name": "sessionId",
          "type": "bytes32"
        },
        {
          "indexed": true,
          "internalType": "address",
          "name": "agent",
          "type": "address"
        },
        {
          "indexed": false,
          "internalType": "string",
          "name": "didDocument",
          "type": "string"
        }
      ],
      "name": "VerificationInitiated",
      "type": "event"
    },
    {
      "anonymous": false,
      "inputs": [
        {
          "indexed": false,
          "internalType": "enum DIAPVerification.VerificationMode",
          "name": "newMode",
          "type": "uint8"
        }
      ],
      "name": "VerificationModeUpdated",
      "type": "event"
    },
    {
      "anonymous": false,
      "inputs": [
        {
          "indexed": false,
          "internalType": "uint256",
          "name": "oldTimeout",
          "type": "uint256"
        },
        {
          "indexed": false,
          "internalType": "uint256",
          "name": "newTimeout",
          "type": "uint256"
        }
      ],
      "name": "VerificationTimeoutUpdated",
      "type": "event"
    },
    {
      "anonymous": false,
      "inputs": [
        {
          "indexed": false,
          "internalType": "address",
          "name": "oldVerifier",
          "type": "address"
        },
        {
          "indexed": false,
          "internalType": "address",
          "name": "newVerifier",
          "type": "address"
        }
      ],
      "name": "ZKPVerifierUpdated",
      "type": "event"
    },
    {
      "inputs": [],
      "name": "MAX_STRING_LENGTH",
      "outputs": [
        {
          "internalType": "uint256",
          "name": "",
          "type": "uint256"
        }
      ],
      "stateMutability": "view",
      "type": "function"
    },
    {
      "inputs": [],
      "name": "agentNetwork",
      "outputs": [
        {
          "internalType": "contract DIAPAgentNetwork",
          "name": "",
          "type": "address"
        }
      ],
      "stateMutability": "view",
      "type": "function"
    },
    {
      "inputs": [
        {
          "internalType": "address[]",
          "name": "agents",
          "type": "address[]"
        },
        {
          "internalType": "uint256[8][]",
          "name": "proofs",
          "type": "uint256[8][]"
        }
      ],
      "name": "batchVerifyAgents",
      "outputs": [
        {
          "internalType": "bool[]",
          "name": "",
          "type": "bool[]"
        }
      ],
      "stateMutability": "view",
      "type": "function"
    },
    {
      "inputs": [
        {
          "internalType": "address",
          "name": "",
          "type": "address"
        }
      ],
      "name": "blacklistedAgents",
      "outputs": [
        {
          "internalType": "bool",
          "name": "",
          "type": "bool"
        }
      ],
      "stateMutability": "view",
      "type": "function"
    },
    {
      "inputs": [
        {
          "internalType": "address",
          "name": "agent",
          "type": "address"
        },
        {
          "internalType": "string",
          "name": "behaviorType",
          "type": "string"
        },
        {
          "internalType": "string",
          "name": "",
          "type": "string"
        }
      ],
      "name": "detectMaliciousBehavior",
      "outputs": [],
      "stateMutability": "nonpayable",
      "type": "function"
    },
    {
      "inputs": [
        {
          "internalType": "address",
          "name": "",
          "type": "address"
        }
      ],
      "name": "failedAttempts",
      "outputs": [
        {
          "internalType": "uint256",
          "name": "",
          "type": "uint256"
        }
      ],
      "stateMutability": "view",
      "type": "function"
    },
    {
      "inputs": [
        {
          "internalType": "address",
          "name": "agent",
          "type": "address"
        }
      ],
      "name": "getFailedAttempts",
      "outputs": [
        {
          "internalType": "uint256",
          "name": "",
          "type": "uint256"
        }
      ],
      "stateMutability": "view",
      "type": "function"
    },
    {
      "inputs": [
        {
          "internalType": "address",
          "name": "agent",
          "type": "address"
        }
      ],
      "name": "getIdentityProof",
      "outputs": [
        {
          "components": [
            {
              "internalType": "string",
              "name": "didDocument",
              "type": "string"
            },
            {
              "internalType": "string",
              "name": "publicKey",
              "type": "string"
            },
            {
              "internalType": "bytes32",
              "name": "commitment",
              "type": "bytes32"
            },
            {
              "internalType": "bytes32",
              "name": "nullifier",
              "type": "bytes32"
            },
            {
              "internalType": "uint256[8]",
              "name": "proof",
              "type": "uint256[8]"
            },
            {
              "internalType": "uint256",
              "name": "timestamp",
              "type": "uint256"
            },
            {
              "internalType": "bool",
              "name": "isVerified",
              "type": "bool"
            }
          ],
          "internalType": "struct DIAPVerification.IdentityProof",
          "name": "",
          "type": "tuple"
        }
      ],
      "stateMutability": "view",
      "type": "function"
    },
    {
      "inputs": [
        {
          "internalType": "address",
          "name": "agent",
          "type": "address"
        }
      ],
      "name": "getReputationProof",
      "outputs": [
        {
          "components": [
            {
              "internalType": "address",
              "name": "agent",
              "type": "address"
            },
            {
              "internalType": "uint256",
              "name": "reputation",
              "type": "uint256"
            },
            {
              "internalType": "uint256",
              "name": "timestamp",
              "type": "uint256"
            },
            {
              "internalType": "uint256[8]",
              "name": "proof",
              "type": "uint256[8]"
            },
            {
              "internalType": "bool",
              "name": "isValid",
              "type": "bool"
            }
          ],
          "internalType": "struct DIAPVerification.ReputationProof",
          "name": "",
          "type": "tuple"
        }
      ],
      "stateMutability": "view",
      "type": "function"
    },
    {
      "inputs": [
        {
          "internalType": "bytes32",
          "name": "sessionId",
          "type": "bytes32"
        }
      ],
      "name": "getVerificationSession",
      "outputs": [
        {
          "components": [
            {
              "internalType": "address",
              "name": "agent",
              "type": "address"
            },
            {
              "internalType": "string",
              "name": "didDocument",
              "type": "string"
            },
            {
              "internalType": "string",
              "name": "publicKey",
              "type": "string"
            },
            {
              "internalType": "bytes32",
              "name": "commitment",
              "type": "bytes32"
            },
            {
              "internalType": "bytes32",
              "name": "nullifier",
              "type": "bytes32"
            },
            {
              "internalType": "uint256",
              "name": "timestamp",
              "type": "uint256"
            },
            {
              "internalType": "enum DIAPVerification.VerificationStatus",
              "name": "status",
              "type": "uint8"
            },
            {
              "internalType": "uint256[8]",
              "name": "proof",
              "type": "uint256[8]"
            },
            {
              "internalType": "bool",
              "name": "isValid",
              "type": "bool"
            }
          ],
          "internalType": "struct DIAPVerification.VerificationSession",
          "name": "",
          "type": "tuple"
        }
      ],
      "stateMutability": "view",
      "type": "function"
    },
    {
      "inputs": [],
      "name": "getVerificationStats",
      "outputs": [
        {
          "internalType": "uint256",
          "name": "_totalVerifications",
          "type": "uint256"
        },
        {
          "internalType": "uint256",
          "name": "_totalSuccessfulVerifications",
          "type": "uint256"
        },
        {
          "internalType": "uint256",
          "name": "_totalFailedVerifications",
          "type": "uint256"
        }
      ],
      "stateMutability": "view",
      "type": "function"
    },
    {
      "inputs": [],
      "name": "getVerifierStatus",
      "outputs": [
        {
          "internalType": "address",
          "name": "verifier",
          "type": "address"
        },
        {
          "internalType": "bool",
          "name": "isAvailable",
          "type": "bool"
        }
      ],
      "stateMutability": "view",
      "type": "function"
    },
    {
      "inputs": [
        {
          "internalType": "address",
          "name": "",
          "type": "address"
        }
      ],
      "name": "identityProofs",
      "outputs": [
        {
          "internalType": "string",
          "name": "didDocument",
          "type": "string"
        },
        {
          "internalType": "string",
          "name": "publicKey",
          "type": "string"
        },
        {
          "internalType": "bytes32",
          "name": "commitment",
          "type": "bytes32"
        },
        {
          "internalType": "bytes32",
          "name": "nullifier",
          "type": "bytes32"
        },
        {
          "internalType": "uint256",
          "name": "timestamp",
          "type": "uint256"
        },
        {
          "internalType": "bool",
          "name": "isVerified",
          "type": "bool"
        }
      ],
      "stateMutability": "view",
      "type": "function"
    },
    {
      "inputs": [
        {
          "internalType": "address",
          "name": "_agentNetwork",
          "type": "address"
        }
      ],
      "name": "initialize",
      "outputs": [],
      "stateMutability": "nonpayable",
      "type": "function"
    },
    {
      "inputs": [
        {
          "internalType": "string",
          "name": "didDocument",
          "type": "string"
        },
        {
          "internalType": "string",
          "name": "publicKey",
          "type": "string"
        },
        {
          "internalType": "bytes32",
          "name": "commitment",
          "type": "bytes32"
        },
        {
          "internalType": "bytes32",
          "name": "nullifier",
          "type": "bytes32"
        },
        {
          "internalType": "uint256[8]",
          "name": "proof",
          "type": "uint256[8]"
        }
      ],
      "name": "initiateIdentityVerification",
      "outputs": [
        {
          "internalType": "bytes32",
          "name": "",
          "type": "bytes32"
        }
      ],
      "stateMutability": "nonpayable",
      "type": "function"
    },
    {
      "inputs": [
        {
          "internalType": "address",
          "name": "agent",
          "type": "address"
        }
      ],
      "name": "isAgentBlacklisted",
      "outputs": [
        {
          "internalType": "bool",
          "name": "",
          "type": "bool"
        }
      ],
      "stateMutability": "view",
      "type": "function"
    },
    {
      "inputs": [
        {
          "internalType": "address",
          "name": "agent",
          "type": "address"
        }
      ],
      "name": "isIdentityVerified",
      "outputs": [
        {
          "internalType": "bool",
          "name": "",
          "type": "bool"
        }
      ],
      "stateMutability": "view",
      "type": "function"
    },
    {
      "inputs": [
        {
          "internalType": "bytes32",
          "name": "nullifier",
          "type": "bytes32"
        }
      ],
      "name": "isNullifierUsed",
      "outputs": [
        {
          "internalType": "bool",
          "name": "",
          "type": "bool"
        }
      ],
      "stateMutability": "view",
      "type": "function"
    },
    {
      "inputs": [
        {
          "internalType": "address",
          "name": "agent",
          "type": "address"
        }
      ],
      "name": "isReputationVerified",
      "outputs": [
        {
          "internalType": "bool",
          "name": "",
          "type": "bool"
        }
      ],
      "stateMutability": "view",
      "type": "function"
    },
    {
      "inputs": [
        {
          "internalType": "address",
          "name": "",
          "type": "address"
        }
      ],
      "name": "lastFailedAttempt",
      "outputs": [
        {
          "internalType": "uint256",
          "name": "",
          "type": "uint256"
        }
      ],
      "stateMutability": "view",
      "type": "function"
    },
    {
      "inputs": [],
      "name": "maxVerificationAttempts",
      "outputs": [
        {
          "internalType": "uint256",
          "name": "",
          "type": "uint256"
        }
      ],
      "stateMutability": "view",
      "type": "function"
    },
    {
      "inputs": [],
      "name": "owner",
      "outputs": [
        {
          "internalType": "address",
          "name": "",
          "type": "address"
        }
      ],
      "stateMutability": "view",
      "type": "function"
    },
    {
      "inputs": [],
      "name": "proxiableUUID",
      "outputs": [
        {
          "internalType": "bytes32",
          "name": "",
          "type": "bytes32"
        }
      ],
      "stateMutability": "view",
      "type": "function"
    },
    {
      "inputs": [
        {
          "internalType": "address",
          "name": "agent",
          "type": "address"
        }
      ],
      "name": "removeFromBlacklist",
      "outputs": [],
      "stateMutability": "nonpayable",
      "type": "function"
    },
    {
      "inputs": [],
      "name": "renounceOwnership",
      "outputs": [],
      "stateMutability": "nonpayable",
      "type": "function"
    },
    {
      "inputs": [
        {
          "internalType": "address",
          "name": "",
          "type": "address"
        }
      ],
      "name": "reputationProofs",
      "outputs": [
        {
          "internalType": "address",
          "name": "agent",
          "type": "address"
        },
        {
          "internalType": "uint256",
          "name": "reputation",
          "type": "uint256"
        },
        {
          "internalType": "uint256",
          "name": "timestamp",
          "type": "uint256"
        },
        {
          "internalType": "bool",
          "name": "isValid",
          "type": "bool"
        }
      ],
      "stateMutability": "view",
      "type": "function"
    },
    {
      "inputs": [],
      "name": "reputationThreshold",
      "outputs": [
        {
          "internalType": "uint256",
          "name": "",
          "type": "uint256"
        }
      ],
      "stateMutability": "view",
      "type": "function"
    },
    {
      "inputs": [
        {
          "internalType": "bytes32",
          "name": "nullifier",
          "type": "bytes32"
        }
      ],
      "name": "resetNullifier",
      "outputs": [],
      "stateMutability": "nonpayable",
      "type": "function"
    },
    {
      "inputs": [
        {
          "internalType": "uint256",
          "name": "_attempts",
          "type": "uint256"
        }
      ],
      "name": "setMaxVerificationAttempts",
      "outputs": [],
      "stateMutability": "nonpayable",
      "type": "function"
    },
    {
      "inputs": [
        {
          "internalType": "uint256",
          "name": "_threshold",
          "type": "uint256"
        }
      ],
      "name": "setReputationThreshold",
      "outputs": [],
      "stateMutability": "nonpayable",
      "type": "function"
    },
    {
      "inputs": [
        {
          "internalType": "enum DIAPVerification.VerificationMode",
          "name": "_mode",
          "type": "uint8"
        }
      ],
      "name": "setVerificationMode",
      "outputs": [],
      "stateMutability": "nonpayable",
      "type": "function"
    },
    {
      "inputs": [
        {
          "internalType": "uint256",
          "name": "_timeout",
          "type": "uint256"
        }
      ],
      "name": "setVerificationTimeout",
      "outputs": [],
      "stateMutability": "nonpayable",
      "type": "function"
    },
    {
      "inputs": [
        {
          "internalType": "address",
          "name": "_verifier",
          "type": "address"
        }
      ],
      "name": "setZKPVerifier",
      "outputs": [],
      "stateMutability": "nonpayable",
      "type": "function"
    },
    {
      "inputs": [],
      "name": "totalFailedVerifications",
      "outputs": [
        {
          "internalType": "uint256",
          "name": "",
          "type": "uint256"
        }
      ],
      "stateMutability": "view",
      "type": "function"
    },
    {
      "inputs": [],
      "name": "totalSuccessfulVerifications",
      "outputs": [
        {
          "internalType": "uint256",
          "name": "",
          "type": "uint256"
        }
      ],
      "stateMutability": "view",
      "type": "function"
    },
    {
      "inputs": [],
      "name": "totalVerifications",
      "outputs": [
        {
          "internalType": "uint256",
          "name": "",
          "type": "uint256"
        }
      ],
      "stateMutability": "view",
      "type": "function"
    },
    {
      "inputs": [
        {
          "internalType": "address",
          "name": "newOwner",
          "type": "address"
        }
      ],
      "name": "transferOwnership",
      "outputs": [],
      "stateMutability": "nonpayable",
      "type": "function"
    },
    {
      "inputs": [
        {
          "internalType": "address",
          "name": "newImplementation",
          "type": "address"
        }
      ],
      "name": "upgradeTo",
      "outputs": [],
      "stateMutability": "nonpayable",
      "type": "function"
    },
    {
      "inputs": [
        {
          "internalType": "address",
          "name": "newImplementation",
          "type": "address"
        },
        {
          "internalType": "bytes",
          "name": "data",
          "type": "bytes"
        }
      ],
      "name": "upgradeToAndCall",
      "outputs": [],
      "stateMutability": "payable",
      "type": "function"
    },
    {
      "inputs": [
        {
          "internalType": "bytes32",
          "name": "",
          "type": "bytes32"
        }
      ],
      "name": "usedNullifiers",
      "outputs": [
        {
          "internalType": "bool",
          "name": "",
          "type": "bool"
        }
      ],
      "stateMutability": "view",
      "type": "function"
    },
    {
      "inputs": [],
      "name": "verificationMode",
      "outputs": [
        {
          "internalType": "enum DIAPVerification.VerificationMode",
          "name": "",
          "type": "uint8"
        }
      ],
      "stateMutability": "view",
      "type": "function"
    },
    {
      "inputs": [
        {
          "internalType": "bytes32",
          "name": "",
          "type": "bytes32"
        }
      ],
      "name": "verificationSessions",
      "outputs": [
        {
          "internalType": "address",
          "name": "agent",
          "type": "address"
        },
        {
          "internalType": "string",
          "name": "didDocument",
          "type": "string"
        },
        {
          "internalType": "string",
          "name": "publicKey",
          "type": "string"
        },
        {
          "internalType": "bytes32",
          "name": "commitment",
          "type": "bytes32"
        },
        {
          "internalType": "bytes32",
          "name": "nullifier",
          "type": "bytes32"
        },
        {
          "internalType": "uint256",
          "name": "timestamp",
          "type": "uint256"
        },
        {
          "internalType": "enum DIAPVerification.VerificationStatus",
          "name": "status",
          "type": "uint8"
        },
        {
          "internalType": "bool",
          "name": "isValid",
          "type": "bool"
        }
      ],
      "stateMutability": "view",
      "type": "function"
    },
    {
      "inputs": [],
      "name": "verificationTimeout",
      "outputs": [
        {
          "internalType": "uint256",
          "name": "",
          "type": "uint256"
        }
      ],
      "stateMutability": "view",
      "type": "function"
    },
    {
      "inputs": [
        {
          "internalType": "bytes32",
          "name": "sessionId",
          "type": "bytes32"
        }
      ],
      "name": "verifyIdentity",
      "outputs": [
        {
          "internalType": "bool",
          "name": "",
          "type": "bool"
        }
      ],
      "stateMutability": "nonpayable",
      "type": "function"
    },
    {
      "inputs": [
        {
          "internalType": "address",
          "name": "agent",
          "type": "address"
        },
        {
          "internalType": "uint256",
          "name": "reputation",
          "type": "uint256"
        },
        {
          "internalType": "uint256[8]",
          "name": "proof",
          "type": "uint256[8]"
        }
      ],
      "name": "verifyReputation",
      "outputs": [
        {
          "internalType": "bool",
          "name": "",
          "type": "bool"
        }
      ],
      "stateMutability": "nonpayable",
      "type": "function"
    },
    {
      "inputs": [],
      "name": "zkpVerifier",
      "outputs": [
        {
          "internalType": "address",
          "name": "",
          "type": "address"
        }
      ],
      "stateMutability": "view",
      "type": "function"
    }
  ],
  "bytecode": "0x60a06040523060805261010a805460ff19166002179055348015602157600080fd5b5060805161407161005960003960008181610ee101528181610f2a01528181611170015281816111b001526112b201526140716000f3fe60806040526004361061020d5760003560e01c80631532ff3b1461021257806318055a171461024857806318433a7e1461027a5780631a538b741461029c5780631bd29c8114610317578063206137aa1461033757806322dc7b4c146103785780632fb60c1a146103a9578063315ecb64146103c95780633214d3e6146103e957806332627ec71461042557806334ccc5ea146104615780633659cfe614610477578063402c51b81461049757806344dfdb32146104bf57806348da3842146104ec5780634f1ef28614610503578063511773bb1461051657806351b00e9b1461054a57806352d1902d14610561578063537df3b6146105765780635b0e83c11461059657806361120a4c146105c7578063624812d3146105f45780636aebbd6614610614578063715018a614610642578063768ee07f14610657578063771d14411461068e5780637b969e1d146106c25780637eacb7da146106f05780638da5cb5b146107105780639ea0e3e614610725578063aaf80e2814610745578063ac90c1401461075c578063afc1d8cc14610772578063c4d66de814610789578063d410e8ba146107a9578063da6a49c2146107c0578063dd8b5568146107fa578063e00514331461081a578063e57f6d6c1461083a578063e634edc91461085a578063e858462c1461087a578063efcf6a8d146108a7578063f2fde38b146108da578063f63ac762146108fa575b600080fd5b34801561021e57600080fd5b5061023261022d3660046131c9565b610936565b60405161023f919061327f565b60405180910390f35b34801561025457600080fd5b50610268610263366004613349565b610b30565b60405161023f96959493929190613364565b34801561028657600080fd5b5061029a6102953660046131c9565b610c78565b005b3480156102a857600080fd5b506102eb6102b7366004613349565b60fe602052600090815260409020805460018201546002830154600b909301546001600160a01b0390921692909160ff1684565b604080516001600160a01b0390951685526020850193909352918301521515606082015260800161023f565b34801561032357600080fd5b5061029a6103323660046133f9565b610ce8565b34801561034357600080fd5b506103686103523660046131c9565b6101096020526000908152604090205460ff1681565b604051901515815260200161023f565b34801561038457600080fd5b506103686103933660046131c9565b6000908152610109602052604090205460ff1690565b3480156103b557600080fd5b5061029a6103c43660046131c9565b610e3f565b3480156103d557600080fd5b5061029a6103e43660046131c9565b610e90565b3480156103f557600080fd5b50610368610404366004613349565b6001600160a01b0316600090815260fe60205260409020600b015460ff1690565b34801561043157600080fd5b50610453610440366004613349565b6101066020526000908152604090205481565b60405190815260200161023f565b34801561046d57600080fd5b506104536103e881565b34801561048357600080fd5b5061029a610492366004613349565b610ed7565b3480156104a357600080fd5b5061010a546104b29060ff1681565b60405161023f919061347d565b3480156104cb57600080fd5b506104df6104da366004613349565b610fa8565b60405161023f9190613497565b3480156104f857600080fd5b506104536101035481565b61029a6105113660046135b3565b611166565b34801561052257600080fd5b5061052b61121f565b604080516001600160a01b03909316835290151560208301520161023f565b34801561055657600080fd5b506104536101015481565b34801561056d57600080fd5b506104536112a5565b34801561058257600080fd5b5061029a610591366004613349565b611353565b3480156105a257600080fd5b506103686105b1366004613349565b6101086020526000908152604090205460ff1681565b3480156105d357600080fd5b506105e76105e2366004613349565b6113f8565b60405161023f9190613643565b34801561060057600080fd5b5061036861060f3660046131c9565b611492565b34801561062057600080fd5b5061010554610635906001600160a01b031681565b60405161023f9190613690565b34801561064e57600080fd5b5061029a611c34565b34801561066357600080fd5b50610453610672366004613349565b6001600160a01b03166000908152610106602052604090205490565b34801561069a57600080fd5b506106ae6106a93660046131c9565b611c48565b60405161023f9897969594939291906136a4565b3480156106ce57600080fd5b506104536106dd366004613349565b6101076020526000908152604090205481565b3480156106fc57600080fd5b5061029a61070b366004613712565b611dab565b34801561071c57600080fd5b50610635611e12565b34801561073157600080fd5b50610368610740366004613745565b611e21565b34801561075157600080fd5b506104536101005481565b34801561076857600080fd5b5061045360ff5481565b34801561077e57600080fd5b506104536101025481565b34801561079557600080fd5b5061029a6107a4366004613349565b6120c5565b3480156107b557600080fd5b506104536101045481565b3480156107cc57600080fd5b506103686107db366004613349565b6001600160a01b03166000908152610108602052604090205460ff1690565b34801561080657600080fd5b5060fb54610635906001600160a01b031681565b34801561082657600080fd5b50610453610835366004613783565b61223c565b34801561084657600080fd5b5061029a6108553660046131c9565b6125d2565b34801561086657600080fd5b5061029a610875366004613349565b61263a565b34801561088657600080fd5b5061089a61089536600461385f565b61269d565b60405161023f91906138ff565b3480156108b357600080fd5b5060ff5461010054610101546040805193845260208401929092529082015260600161023f565b3480156108e657600080fd5b5061029a6108f5366004613349565b612921565b34801561090657600080fd5b50610368610915366004613349565b6001600160a01b0316600090815260fd60205260409020600d015460ff1690565b61093e61308a565b600082815260fc60209081526040918290208251610120810190935280546001600160a01b03168352600181018054919284019161097b90613944565b80601f01602080910402602001604051908101604052809291908181526020018280546109a790613944565b80156109f45780601f106109c9576101008083540402835291602001916109f4565b820191906000526020600020905b8154815290600101906020018083116109d757829003601f168201915b50505050508152602001600282018054610a0d90613944565b80601f0160208091040260200160405190810160405280929190818152602001828054610a3990613944565b8015610a865780601f10610a5b57610100808354040283529160200191610a86565b820191906000526020600020905b815481529060010190602001808311610a6957829003601f168201915b505050918352505060038281015460208301526004830154604083015260058301546060830152600683015460809092019160ff1690811115610acb57610acb613232565b6003811115610adc57610adc613232565b81526040805161010081019182905260209092019190600784019060089082845b815481526020019060010190808311610afd575050509183525050600f919091015460ff16151560209091015292915050565b60fd60205260009081526040902080548190610b4b90613944565b80601f0160208091040260200160405190810160405280929190818152602001828054610b7790613944565b8015610bc45780601f10610b9957610100808354040283529160200191610bc4565b820191906000526020600020905b815481529060010190602001808311610ba757829003601f168201915b505050505090806001018054610bd990613944565b80601f0160208091040260200160405190810160405280929190818152602001828054610c0590613944565b8015610c525780601f10610c2757610100808354040283529160200191610c52565b820191906000526020600020905b815481529060010190602001808311610c3557829003601f168201915b5050505060028301546003840154600c850154600d909501549394919390925060ff1686565b610c80612997565b80600003610ca157604051632fc4c49760e11b815260040160405180910390fd5b61010280549082905560408051828152602081018490527fc1ef737bf7102bbdaa760e4f22f3e142338e7e2e233811046825e752125beafc91015b60405180910390a15050565b610cf0612997565b6001600160a01b0385166000908152610108602052604090205460ff1615610d2b5760405163c72e5a5f60e01b815260040160405180910390fd5b7f739a90aa8c4210220c3ac2e84422de2c3738210e4ea7f6862b44ee1262f1a5b58484604051610d5c92919061397e565b604051809103902003610d7757610d72856129f6565b610e05565b7f01cdace648f81642e3d86eb540483168b47d1062d81b985ffadd427b1e7ce23f8484604051610da892919061397e565b604051809103902003610dbe57610d72856129f6565b7f97f11fce5afffef14226842a845865bc83ba3996898a99c06b258d77550865238484604051610def92919061397e565b604051809103902003610e0557610e05856129f6565b846001600160a01b031660008051602061401c833981519152858542604051610e30939291906139b7565b60405180910390a25050505050565b610e47612997565b6000818152610109602052604090205460ff16610e775760405163ba39131f60e01b815260040160405180910390fd5b600090815261010960205260409020805460ff19169055565b610e98612997565b61010480549082905560408051828152602081018490527f0b3aa458e08e72cc8890fe5789d911bc6d7212f9adddfa6ada2a7fcb2be6796e9101610cdc565b6001600160a01b037f0000000000000000000000000000000000000000000000000000000000000000163003610f285760405162461bcd60e51b8152600401610f1f906139db565b60405180910390fd5b7f00000000000000000000000000000000000000000000000000000000000000006001600160a01b0316610f5a612a1b565b6001600160a01b031614610f805760405162461bcd60e51b8152600401610f1f90613a15565b610f8981612a37565b60408051600080825260208201909252610fa591839190612a3f565b50565b610fb06130dd565b6001600160a01b038216600090815260fd602052604090819020815160e08101909252805482908290610fe290613944565b80601f016020809104026020016040519081016040528092919081815260200182805461100e90613944565b801561105b5780601f106110305761010080835404028352916020019161105b565b820191906000526020600020905b81548152906001019060200180831161103e57829003601f168201915b5050505050815260200160018201805461107490613944565b80601f01602080910402602001604051908101604052809291908181526020018280546110a090613944565b80156110ed5780601f106110c2576101008083540402835291602001916110ed565b820191906000526020600020905b8154815290600101906020018083116110d057829003601f168201915b5050509183525050600282015460208201526003820154604080830191909152805161010081019182905260609092019190600484019060089082845b81548152602001906001019080831161112a575050509183525050600c8201546020820152600d9091015460ff16151560409091015292915050565b6001600160a01b037f00000000000000000000000000000000000000000000000000000000000000001630036111ae5760405162461bcd60e51b8152600401610f1f906139db565b7f00000000000000000000000000000000000000000000000000000000000000006001600160a01b03166111e0612a1b565b6001600160a01b0316146112065760405162461bcd60e51b8152600401610f1f90613a15565b61120f82612a37565b61121b82826001612a3f565b5050565b610105546001600160a01b031660008161123a575060009091565b816001600160a01b031663856c71dd6040518163ffffffff1660e01b8152600401602060405180830381865afa925050508015611294575060408051601f3d908101601f1916820190925261129191810190613a5f565b60015b61129f575060009091565b90509091565b6000306001600160a01b037f000000000000000000000000000000000000000000000000000000000000000016146113405760405162461bcd60e51b815260206004820152603860248201527f555550535570677261646561626c653a206d757374206e6f742062652063616c6044820152771b1959081d1a1c9bdd59da0819195b1959d85d1958d85b1b60421b6064820152608401610f1f565b50600080516020613fb583398151915290565b61135b612997565b6001600160a01b0381166000908152610108602052604090205460ff166113955760405163ab9bfea760e01b815260040160405180910390fd5b6001600160a01b038116600081815261010860209081526040808320805460ff1916905561010682528083209290925590514281527ff67a15457310dc945e1c8228f1b50f0f3fa28985aa795add5dae23dbe5865b26910160405180910390a250565b611400613126565b6001600160a01b03828116600090815260fe6020908152604091829020825160a0810184528154909416845260018101549184019190915260028101548383015281516101008101928390529091606084019190600384019060089082845b81548152602001906001019080831161145f575050509183525050600b919091015460ff16151560209091015292915050565b60008061010a5460ff1660028111156114ad576114ad613232565b036114f0576114ba611e12565b6001600160a01b0316336001600160a01b0316146114eb57604051634de8d36560e11b815260040160405180910390fd5b61158e565b600161010a5460ff16600281111561150a5761150a613232565b0361153b57610105546001600160a01b031633146114eb5760405163b676441960e01b815260040160405180910390fd5b611543611e12565b6001600160a01b0316336001600160a01b0316141580156115705750610105546001600160a01b03163314155b1561158e5760405163b9857aa160e01b815260040160405180910390fd5b600082815260fc6020526040812060058101549091036115c1576040516396c95f8160e01b815260040160405180910390fd5b6000600682015460ff1660038111156115dc576115dc613232565b146115fa57604051631f4083d360e01b815260040160405180910390fd5b61010254816005015461160d9190613a90565b42111561162d57604051630fe82d2560e11b815260040160405180910390fd5b60408051610100810191829052600091600784019060089082845b815481526020019060010190808311611648575050505050905060006117878284600101805461167790613944565b80601f01602080910402602001604051908101604052809291908181526020018280546116a390613944565b80156116f05780601f106116c5576101008083540402835291602001916116f0565b820191906000526020600020905b8154815290600101906020018083116116d357829003601f168201915b505050505085600201805461170490613944565b80601f016020809104026020016040519081016040528092919081815260200182805461173090613944565b801561177d5780601f106117525761010080835404028352916020019161177d565b820191906000526020600020905b81548152906001019060200180831161176057829003601f168201915b5050505050612baf565b90508015611abd576006830180546001919060ff191682800217905550600f8301805460ff1916600117905561010080549060006117c483613aa3565b91905055506040518060e001604052808460010180546117e390613944565b80601f016020809104026020016040519081016040528092919081815260200182805461180f90613944565b801561185c5780601f106118315761010080835404028352916020019161185c565b820191906000526020600020905b81548152906001019060200180831161183f57829003601f168201915b5050505050815260200184600201805461187590613944565b80601f01602080910402602001604051908101604052809291908181526020018280546118a190613944565b80156118ee5780601f106118c3576101008083540402835291602001916118ee565b820191906000526020600020905b8154815290600101906020018083116118d157829003601f168201915b5050509183525050600385015460208201526004850154604080830191909152805161010081019182905260609092019190600787019060089082845b81548152602001906001019080831161192b57505050918352505042602080830191909152600160409283015285546001600160a01b0316600090815260fd909152208151819061197c9082613b0a565b50602082015160018201906119919082613b0a565b50604082015160028201556060820151600382015560808201516119bb9060048301906008613157565b5060a0820151600c82015560c090910151600d909101805460ff191691151591909117905582546001600160a01b0390811660009081526101066020908152604080832092909255855491516001815291909216918791600080516020613fd5833981519152910160405180910390a382546040516001600160a01b03909116907f5d57bd940ff05dca0f7ab8f29a0dd87b33dad597a52d26003d642a4076e38bc290611a6e9060018701904290613bc8565b60405180910390a2825460048401546040516001600160a01b03909216917f17a971f4f4d9677ca183a8819b6b1cfb84ee86aaa80b1805d2dba12abdc0167190600090a3506001949350505050565b60068301805460ff19908116600217909155600f8401805490911690556101018054906000611aeb83613aa3565b909155505082546001600160a01b0316600090815261010660205260408120805491611b1683613aa3565b909155505082546001600160a01b03908116600090815261010760209081526040808320429055610103548754909416835261010690915290205410611bf25782546001600160a01b039081166000908152610108602052604090819020805460ff191660011790558454905191169060008051602061401c83398151915290611be990429060408082526025908201527f546f6f206d616e79206661696c656420766572696669636174696f6e20617474606082015264656d70747360d81b6080820152602081019190915260a00190565b60405180910390a25b8254604051600081526001600160a01b03909116908690600080516020613fd58339815191529060200160405180910390a3506000949350505050565b919050565b611c3c612997565b611c466000612c55565b565b60fc60205260009081526040902080546001820180546001600160a01b039092169291611c7490613944565b80601f0160208091040260200160405190810160405280929190818152602001828054611ca090613944565b8015611ced5780601f10611cc257610100808354040283529160200191611ced565b820191906000526020600020905b815481529060010190602001808311611cd057829003601f168201915b505050505090806002018054611d0290613944565b80601f0160208091040260200160405190810160405280929190818152602001828054611d2e90613944565b8015611d7b5780601f10611d5057610100808354040283529160200191611d7b565b820191906000526020600020905b815481529060010190602001808311611d5e57829003601f168201915b5050506003840154600485015460058601546006870154600f9097015495969295919450925060ff918216911688565b611db3612997565b61010a805482919060ff19166001836002811115611dd357611dd3613232565b02179055507fc5fc43171aab09e52b7572f38155eb0ef29e930b3337d94843f7cfbe433ffd9681604051611e07919061347d565b60405180910390a150565b6097546001600160a01b031690565b60008061010a5460ff166002811115611e3c57611e3c613232565b03611e7f57611e49611e12565b6001600160a01b0316336001600160a01b031614611e7a57604051634de8d36560e11b815260040160405180910390fd5b611f1d565b600161010a5460ff166002811115611e9957611e99613232565b03611eca57610105546001600160a01b03163314611e7a5760405163b676441960e01b815260040160405180910390fd5b611ed2611e12565b6001600160a01b0316336001600160a01b031614158015611eff5750610105546001600160a01b03163314155b15611f1d5760405163b9857aa160e01b815260040160405180910390fd5b611f25612ca7565b6001600160a01b0384166000908152610108602052604090205460ff1615611f6057604051635e8a9f4960e01b815260040160405180910390fd5b612710831115611f8357604051631839676f60e21b815260040160405180910390fd5b6000611f90838686612d00565b905080156120ae576040518060a00160405280866001600160a01b0316815260200185815260200142815260200184600880602002604051908101604052809291908260086020028082843760009201829052509284525050600160209283018190526001600160a01b03898116835260fe8452604092839020855181546001600160a01b03191692169190911781559284015190830155820151600282015560608201516120459060038301906008613157565b5060809190910151600b909101805460ff1916911515919091179055604080518581524260208201526001600160a01b038716917f7db3c95d2daeb7ebdc8d651d02552d8a4eb8da48020eeed5f1319c7becb5e7ce910160405180910390a260019150506120b4565b60009150505b6120be600160c955565b9392505050565b600054610100900460ff16158080156120e55750600054600160ff909116105b8061210657506120f430612d58565b158015612106575060005460ff166001145b6121695760405162461bcd60e51b815260206004820152602e60248201527f496e697469616c697a61626c653a20636f6e747261637420697320616c72656160448201526d191e481a5b9a5d1a585b1a5e995960921b6064820152608401610f1f565b6000805460ff19166001179055801561218c576000805461ff0019166101001790555b6001600160a01b0382166121b35760405163dec75edf60e01b815260040160405180910390fd5b6121bb612d67565b6121c3612d96565b6121cb612dbd565b60fb80546001600160a01b0319166001600160a01b038416179055610e10610102556003610103556103e861010455801561121b576000805461ff0019169055604051600181527f7f26b83ff96e1f2b6a682f133852f6798a09c465da95921460cefb384740249890602001610cdc565b6000612246612ca7565b336000908152610108602052604090205460ff161561227857604051635e8a9f4960e01b815260040160405180910390fd5b86158061228657506103e887115b156122a45760405163370abb5f60e01b815260040160405180910390fd5b8415806122b257506103e885115b156122d0576040516318dca5e960e21b815260040160405180910390fd5b836122ee57604051636033c4fd60e11b815260040160405180910390fd5b8261230c57604051632ec8265960e11b815260040160405180910390fd5b6000838152610109602052604090205460ff161561233d57604051636569570160e11b815260040160405180910390fd5b600083815261010960209081526040808320805460ff191660011790556101035433845261010690925290912054106123895760405163340ca0fd60e21b815260040160405180910390fd5b60003389898989898942436040516020016123ac99989796959493929190613c5c565b60408051601f198184030181528282528051602091820120610120840183523384528251601f8d018390048302810183019093528b8352935082810191908c908c9081908401838280828437600092019190915250505090825250604080516020601f8b0181900481028201810190925289815291810191908a908a908190840183828082843760009201829052509385525050506020820188905260408201879052426060830152608090910190815260200184600880602002604051908101604052809291908260086020028082843760009201829052509284525050602091820181905283815260fc825260409020825181546001600160a01b0319166001600160a01b039091161781559082015160018201906124cd9082613b0a565b50604082015160028201906124e29082613b0a565b50606082015181600301556080820151816004015560a0820151816005015560c08201518160060160006101000a81548160ff0219169083600381111561252b5761252b613232565b021790555060e08201516125459060078301906008613157565b506101009190910151600f909101805460ff191691151591909117905560ff805490600061257283613aa3565b9190505550336001600160a01b0316817f941cc11b7922ad4177c4ef187dcbf8241b8e3c38d83cfbddd453862054db06818b8b6040516125b3929190613cb0565b60405180910390a390506125c7600160c955565b979650505050505050565b6125da612997565b806000036125fb5760405163172f322f60e31b815260040160405180910390fd5b61010380549082905560408051828152602081018490527f0e9ccbd069458b034aef3fe64e05a52901db8b6691404c206fd1912a94cf9d959101610cdc565b612642612997565b61010580546001600160a01b038381166001600160a01b031983168117909355604080519190921680825260208201939093527f568f493769992355f5c1dea0f6167ea2f375bb6250fc89f5c2e0ecce976516c39101610cdc565b60606126a7612997565b8382146126c7576040516307e11acb60e51b815260040160405180910390fd5b600a8411156126e9576040516323ea9a1b60e11b815260040160405180910390fd5b6000846001600160401b038111156127035761270361351d565b60405190808252806020026020018201604052801561272c578160200160208202803683370190505b50905060005b8581101561291557610108600088888481811061275157612751613cc4565b90506020020160208101906127669190613349565b6001600160a01b0316815260208101919091526040016000205460ff16156127b157600082828151811061279c5761279c613cc4565b9115156020928302919091019091015261290d565b60fb546001600160a01b031663fb3551ff8888848181106127d4576127d4613cc4565b90506020020160208101906127e99190613349565b6040518263ffffffff1660e01b81526004016128059190613690565b600060405180830381865afa92505050801561284357506040513d6000823e601f3d908101601f191682016040526128409190810190613d61565b60015b61285b57600082828151811061279c5761279c613cc4565b806101000151156128e657600086868481811061287a5761287a613cc4565b90506101000201600880602002604051908101604052809291908260086020028082843760009201919091525050835160208501519293506128be92849250612baf565b8484815181106128d0576128d0613cc4565b911515602092830291909101909101525061290b565b60008383815181106128fa576128fa613cc4565b911515602092830291909101909101525b505b600101612732565b5090505b949350505050565b612929612997565b6001600160a01b03811661298e5760405162461bcd60e51b815260206004820152602660248201527f4f776e61626c653a206e6577206f776e657220697320746865207a65726f206160448201526564647265737360d01b6064820152608401610f1f565b610fa581612c55565b336129a0611e12565b6001600160a01b031614611c465760405162461bcd60e51b815260206004820181905260248201527f4f776e61626c653a2063616c6c6572206973206e6f7420746865206f776e65726044820152606401610f1f565b6001600160a01b0316600090815261010860205260409020805460ff19166001179055565b600080516020613fb5833981519152546001600160a01b031690565b610fa5612997565b7f4910fdfa16fed3260ed0e7147f7cc6da11a60208b5b9406d12a635614ffd91435460ff1615612a7757612a7283612dec565b505050565b826001600160a01b03166352d1902d6040518163ffffffff1660e01b8152600401602060405180830381865afa925050508015612ad1575060408051601f3d908101601f19168201909252612ace91810190613e88565b60015b612b345760405162461bcd60e51b815260206004820152602e60248201527f45524331393637557067726164653a206e657720696d706c656d656e7461746960448201526d6f6e206973206e6f74205555505360901b6064820152608401610f1f565b600080516020613fb58339815191528114612ba35760405162461bcd60e51b815260206004820152602960248201527f45524331393637557067726164653a20756e737570706f727465642070726f786044820152681a58589b195555525160ba1b6064820152608401610f1f565b50612a72838383612e86565b610105546000906001600160a01b0316612bdb57835115801590612bd4575060008351115b90506120be565b610105546040516302aaf33360e11b81526001600160a01b0390911690630555e66690612c1090879087908790600401613ea1565b602060405180830381865afa925050508015612c49575060408051601f3d908101601f19168201909252612c4691810190613a5f565b60015b612bd4575060006120be565b609780546001600160a01b038381166001600160a01b0319831681179093556040519116919082907f8be0079c531659141344cd1fd0a4f28419497f9722a3daafe3b4186f6b6457e090600090a35050565b600260c95403612cf95760405162461bcd60e51b815260206004820152601f60248201527f5265656e7472616e637947756172643a207265656e7472616e742063616c6c006044820152606401610f1f565b600260c955565b610105546000906001600160a01b0316612d1c575060006120be565b6101055460405163704011a360e01b81526001600160a01b039091169063704011a390612c1090879087908790600401613ef3565b600160c955565b6001600160a01b03163b151590565b600054610100900460ff16612d8e5760405162461bcd60e51b8152600401610f1f90613f1a565b611c46612eb1565b600054610100900460ff16611c465760405162461bcd60e51b8152600401610f1f90613f1a565b600054610100900460ff16612de45760405162461bcd60e51b8152600401610f1f90613f1a565b611c46612ee1565b612df581612d58565b612e575760405162461bcd60e51b815260206004820152602d60248201527f455243313936373a206e657720696d706c656d656e746174696f6e206973206e60448201526c1bdd08184818dbdb9d1c9858dd609a1b6064820152608401610f1f565b600080516020613fb583398151915280546001600160a01b0319166001600160a01b0392909216919091179055565b612e8f83612f08565b600082511180612e9c5750805b15612a7257612eab8383612f48565b50505050565b600054610100900460ff16612ed85760405162461bcd60e51b8152600401610f1f90613f1a565b611c4633612c55565b600054610100900460ff16612d515760405162461bcd60e51b8152600401610f1f90613f1a565b612f1181612dec565b6040516001600160a01b038216907fbc7cd75a20ee27fd9adebab32041f755214dbc6bffa90cc0225b39da2e5c2d3b90600090a250565b6060612f6d8383604051806060016040528060278152602001613ff560279139612f76565b90505b92915050565b6060600080856001600160a01b031685604051612f939190613f65565b600060405180830381855af49150503d8060008114612fce576040519150601f19603f3d011682016040523d82523d6000602084013e612fd3565b606091505b5091509150612fe486838387612fee565b9695505050505050565b6060831561305b5782516000036130545761300885612d58565b6130545760405162461bcd60e51b815260206004820152601d60248201527f416464726573733a2063616c6c20746f206e6f6e2d636f6e74726163740000006044820152606401610f1f565b5081612919565b61291983838151156130705781518083602001fd5b8060405162461bcd60e51b8152600401610f1f9190613f81565b604080516101208101825260008082526060602083018190529282018390529181018290526080810182905260a081018290529060c082019081526020016130d0613195565b8152600060209091015290565b6040518060e0016040528060608152602001606081526020016000801916815260200160008019168152602001613112613195565b815260006020820181905260409091015290565b6040518060a0016040528060006001600160a01b0316815260200160008152602001600081526020016130d0613195565b8260088101928215613185579160200282015b8281111561318557825182559160200191906001019061316a565b506131919291506131b4565b5090565b6040518061010001604052806008906020820280368337509192915050565b5b8082111561319157600081556001016131b5565b6000602082840312156131db57600080fd5b5035919050565b60005b838110156131fd5781810151838201526020016131e5565b50506000910152565b6000815180845261321e8160208601602086016131e2565b601f01601f19169290920160200192915050565b634e487b7160e01b600052602160045260246000fd5b6004811061325857613258613232565b9052565b8060005b6008811015612eab578151845260209384019390910190600101613260565b602081526132996020820183516001600160a01b03169052565b6000602083015161020060408401526132b6610220840182613206565b90506040840151601f198483030160608501526132d38282613206565b91505060608401516080840152608084015160a084015260a084015160c084015260c084015161330660e0850182613248565b5060e084015161331a61010085018261325c565b50610100840151801515610200850152509392505050565b80356001600160a01b0381168114611c2f57600080fd5b60006020828403121561335b57600080fd5b612f6d82613332565b60c08152600061337760c0830189613206565b82810360208401526133898189613206565b91505085604083015284606083015283608083015282151560a0830152979650505050505050565b60008083601f8401126133c357600080fd5b5081356001600160401b038111156133da57600080fd5b6020830191508360208285010111156133f257600080fd5b9250929050565b60008060008060006060868803121561341157600080fd5b61341a86613332565b945060208601356001600160401b0381111561343557600080fd5b613441888289016133b1565b90955093505060408601356001600160401b0381111561346057600080fd5b61346c888289016133b1565b969995985093965092949392505050565b602081016003831061349157613491613232565b91905290565b60208152600082516101c060208401526134b56101e0840182613206565b90506020840151601f198483030160408501526134d28282613206565b915050604084015160608401526060840151608084015260808401516134fb60a085018261325c565b5060a08401516101a084015260c09093015115156101c0909201919091525090565b634e487b7160e01b600052604160045260246000fd5b60405161014081016001600160401b03811182821017156135565761355661351d565b60405290565b604051601f8201601f191681016001600160401b03811182821017156135845761358461351d565b604052919050565b60006001600160401b038211156135a5576135a561351d565b50601f01601f191660200190565b600080604083850312156135c657600080fd5b6135cf83613332565b915060208301356001600160401b038111156135ea57600080fd5b8301601f810185136135fb57600080fd5b803561360e6136098261358c565b61355c565b81815286602083850101111561362357600080fd5b816020840160208301376000602083830101528093505050509250929050565b81516001600160a01b03168152602080830151908201526040808301519082015260608083015161018083019161367c9084018261325c565b506080830151151561016083015292915050565b6001600160a01b0391909116815260200190565b6001600160a01b0389168152610100602082018190526000906136c99083018a613206565b82810360408401526136db818a613206565b9150508660608301528560808301528460a08301526136fd60c0830185613248565b82151560e08301529998505050505050505050565b60006020828403121561372457600080fd5b8135600381106120be57600080fd5b806101008101831015612f7057600080fd5b6000806000610140848603121561375b57600080fd5b61376484613332565b92506020840135915061377a8560408601613733565b90509250925092565b6000806000806000806000610180888a03121561379f57600080fd5b87356001600160401b038111156137b557600080fd5b6137c18a828b016133b1565b90985096505060208801356001600160401b038111156137e057600080fd5b6137ec8a828b016133b1565b909650945050604088013592506060880135915061380d8960808a01613733565b905092959891949750929550565b60008083601f84011261382d57600080fd5b5081356001600160401b0381111561384457600080fd5b6020830191508360208260081b85010111156133f257600080fd5b6000806000806040858703121561387557600080fd5b84356001600160401b0381111561388b57600080fd5b8501601f8101871361389c57600080fd5b80356001600160401b038111156138b257600080fd5b8760208260051b84010111156138c757600080fd5b6020918201955093508501356001600160401b038111156138e757600080fd5b6138f38782880161381b565b95989497509550505050565b602080825282518282018190526000918401906040840190835b818110156139395783511515835260209384019390920191600101613919565b509095945050505050565b600181811c9082168061395857607f821691505b60208210810361397857634e487b7160e01b600052602260045260246000fd5b50919050565b8183823760009101908152919050565b81835281816020850137506000828201602090810191909152601f909101601f19169091010190565b6040815260006139cb60408301858761398e565b9050826020830152949350505050565b6020808252602c90820152600080516020613f9583398151915260408201526b19195b1959d85d1958d85b1b60a21b606082015260800190565b6020808252602c90820152600080516020613f9583398151915260408201526b6163746976652070726f787960a01b606082015260800190565b80518015158114611c2f57600080fd5b600060208284031215613a7157600080fd5b612f6d82613a4f565b634e487b7160e01b600052601160045260246000fd5b80820180821115612f7057612f70613a7a565b600060018201613ab557613ab5613a7a565b5060010190565b601f821115612a7257806000526020600020601f840160051c81016020851015613ae35750805b601f840160051c820191505b81811015613b035760008155600101613aef565b5050505050565b81516001600160401b03811115613b2357613b2361351d565b613b3781613b318454613944565b84613abc565b6020601f821160018114613b6b5760008315613b535750848201515b600019600385901b1c1916600184901b178455613b03565b600084815260208120601f198516915b82811015613b9b5787850151825560209485019460019092019101613b7b565b5084821015613bb95786840151600019600387901b60f8161c191681555b50505050600190811b01905550565b604081526000808454613bda81613944565b8060408601526001821660008114613bf95760018114613c1557613c49565b60ff1983166060870152606082151560051b8701019350613c49565b87600052602060002060005b83811015613c4057815488820160600152600190910190602001613c21565b87016060019450505b5050506020929092019290925292915050565b60608a901b6001600160601b03191681528789601483013760008882016014810160008152888a82375090960160148101959095525060348401929092526054830152607482015260940195945050505050565b60208152600061291960208301848661398e565b634e487b7160e01b600052603260045260246000fd5b600082601f830112613ceb57600080fd5b8151613cf96136098261358c565b818152846020838601011115613d0e57600080fd5b6129198260208301602087016131e2565b80516001600160801b0381168114611c2f57600080fd5b80516001600160401b0381168114611c2f57600080fd5b805163ffffffff81168114611c2f57600080fd5b600060208284031215613d7357600080fd5b81516001600160401b03811115613d8957600080fd5b82016101408185031215613d9c57600080fd5b613da4613533565b81516001600160401b03811115613dba57600080fd5b613dc686828501613cda565b82525060208201516001600160401b03811115613de257600080fd5b613dee86828501613cda565b602083015250613e0060408301613d1f565b6040820152613e1160608301613d1f565b6060820152613e2260808301613d36565b6080820152613e3360a08301613d36565b60a0820152613e4460c08301613d36565b60c0820152613e5560e08301613d4d565b60e0820152613e676101008301613a4f565b610100820152613e7a6101208301613a4f565b610120820152949350505050565b600060208284031215613e9a57600080fd5b5051919050565b60008185825b6008811015613ec6578151835260209283019290910190600101613ea7565b505050610140610100830152613ee0610140830185613206565b828103610120840152612fe48185613206565b61014081016101008583376001600160a01b03939093166101008201526101200152919050565b6020808252602b908201527f496e697469616c697a61626c653a20636f6e7472616374206973206e6f74206960408201526a6e697469616c697a696e6760a81b606082015260800190565b60008251613f778184602087016131e2565b9190910192915050565b602081526000612f6d602083018461320656fe46756e6374696f6e206d7573742062652063616c6c6564207468726f75676820360894a13ba1a3210667c828492db98dca3e2076cc3735a920a3ca505d382bbc97c9b29a58b5d7da659547427f1268ebbd60e66aa1d11950e653ef16b09a10f1416464726573733a206c6f772d6c6576656c2064656c65676174652063616c6c206661696c65644c44bcfe62396d16242327c3369b7b2f1696e63c1e748ce1ab47024ea898a5e1a2646970667358221220c3b32af6ae051a393e034a0e687768d8d3a1b01fb5304e9e96ac3118ce263da064736f6c634300081e0033",
  "linkReferences": {},
  "deployedLinkReferences": {}
}