{
  "_format": "hh-sol-artifact-1",
  "contractName": "DIAPAgentNetwork",
  "sourceName": "contracts/DIAPAgentNetwork.sol",
  "abi": [
    {
      "anonymous": false,
      "inputs": [
        {
          "indexed": false,
          "internalType": "address",
          "name": "previousAdmin",
          "type": "address"
        },
        {
          "indexed": false,
          "internalType": "address",
          "name": "newAdmin",
          "type": "address"
        }
      ],
      "name": "AdminChanged",
      "type": "event"
    },
    {
      "anonymous": false,
      "inputs": [
        {
          "indexed": true,
          "internalType": "address",
          "name": "agent",
          "type": "address"
        },
        {
          "indexed": false,
          "internalType": "string",
          "name": "didDocument",
          "type": "string"
        },
        {
          "indexed": false,
          "internalType": "uint256",
          "name": "stakedAmount",
          "type": "uint256"
        }
      ],
      "name": "AgentRegistered",
      "type": "event"
    },
    {
      "anonymous": false,
      "inputs": [
        {
          "indexed": true,
          "internalType": "address",
          "name": "agent",
          "type": "address"
        },
        {
          "indexed": false,
          "internalType": "uint256",
          "name": "stakedAmount",
          "type": "uint256"
        }
      ],
      "name": "AgentUnstaked",
      "type": "event"
    },
    {
      "anonymous": false,
      "inputs": [
        {
          "indexed": true,
          "internalType": "address",
          "name": "agent",
          "type": "address"
        },
        {
          "indexed": false,
          "internalType": "bool",
          "name": "isVerified",
          "type": "bool"
        }
      ],
      "name": "AgentVerified",
      "type": "event"
    },
    {
      "anonymous": false,
      "inputs": [
        {
          "indexed": true,
          "internalType": "address",
          "name": "beacon",
          "type": "address"
        }
      ],
      "name": "BeaconUpgraded",
      "type": "event"
    },
    {
      "anonymous": false,
      "inputs": [
        {
          "indexed": true,
          "internalType": "address",
          "name": "to",
          "type": "address"
        },
        {
          "indexed": false,
          "internalType": "uint256",
          "name": "amount",
          "type": "uint256"
        },
        {
          "indexed": false,
          "internalType": "uint256",
          "name": "timestamp",
          "type": "uint256"
        }
      ],
      "name": "FeesWithdrawn",
      "type": "event"
    },
    {
      "anonymous": false,
      "inputs": [
        {
          "indexed": false,
          "internalType": "uint8",
          "name": "version",
          "type": "uint8"
        }
      ],
      "name": "Initialized",
      "type": "event"
    },
    {
      "anonymous": false,
      "inputs": [
        {
          "indexed": true,
          "internalType": "bytes32",
          "name": "messageId",
          "type": "bytes32"
        },
        {
          "indexed": false,
          "internalType": "address",
          "name": "from",
          "type": "address"
        },
        {
          "indexed": false,
          "internalType": "address",
          "name": "to",
          "type": "address"
        },
        {
          "indexed": false,
          "internalType": "uint256",
          "name": "fee",
          "type": "uint256"
        }
      ],
      "name": "MessageSent",
      "type": "event"
    },
    {
      "anonymous": false,
      "inputs": [
        {
          "indexed": true,
          "internalType": "address",
          "name": "previousOwner",
          "type": "address"
        },
        {
          "indexed": true,
          "internalType": "address",
          "name": "newOwner",
          "type": "address"
        }
      ],
      "name": "OwnershipTransferred",
      "type": "event"
    },
    {
      "anonymous": false,
      "inputs": [
        {
          "indexed": false,
          "internalType": "address",
          "name": "account",
          "type": "address"
        }
      ],
      "name": "Paused",
      "type": "event"
    },
    {
      "anonymous": false,
      "inputs": [
        {
          "indexed": true,
          "internalType": "address",
          "name": "agent",
          "type": "address"
        },
        {
          "indexed": false,
          "internalType": "uint256",
          "name": "oldReputation",
          "type": "uint256"
        },
        {
          "indexed": false,
          "internalType": "uint256",
          "name": "newReputation",
          "type": "uint256"
        }
      ],
      "name": "ReputationUpdated",
      "type": "event"
    },
    {
      "anonymous": false,
      "inputs": [
        {
          "indexed": false,
          "internalType": "uint256",
          "name": "totalAmount",
          "type": "uint256"
        },
        {
          "indexed": false,
          "internalType": "uint256",
          "name": "timestamp",
          "type": "uint256"
        }
      ],
      "name": "RewardsDistributed",
      "type": "event"
    },
    {
      "anonymous": false,
      "inputs": [
        {
          "indexed": true,
          "internalType": "uint256",
          "name": "serviceId",
          "type": "uint256"
        },
        {
          "indexed": false,
          "internalType": "string",
          "name": "resultCID",
          "type": "string"
        },
        {
          "indexed": false,
          "internalType": "uint256",
          "name": "reward",
          "type": "uint256"
        }
      ],
      "name": "ServiceCompleted",
      "type": "event"
    },
    {
      "anonymous": false,
      "inputs": [
        {
          "indexed": true,
          "internalType": "uint256",
          "name": "serviceId",
          "type": "uint256"
        },
        {
          "indexed": false,
          "internalType": "address",
          "name": "provider",
          "type": "address"
        },
        {
          "indexed": false,
          "internalType": "address",
          "name": "consumer",
          "type": "address"
        },
        {
          "indexed": false,
          "internalType": "uint256",
          "name": "price",
          "type": "uint256"
        }
      ],
      "name": "ServiceCreated",
      "type": "event"
    },
    {
      "anonymous": false,
      "inputs": [
        {
          "indexed": true,
          "internalType": "address",
          "name": "oldAddress",
          "type": "address"
        },
        {
          "indexed": true,
          "internalType": "address",
          "name": "newAddress",
          "type": "address"
        }
      ],
      "name": "TreasuryAddressUpdated",
      "type": "event"
    },
    {
      "anonymous": false,
      "inputs": [
        {
          "indexed": false,
          "internalType": "address",
          "name": "account",
          "type": "address"
        }
      ],
      "name": "Unpaused",
      "type": "event"
    },
    {
      "anonymous": false,
      "inputs": [
        {
          "indexed": true,
          "internalType": "address",
          "name": "implementation",
          "type": "address"
        }
      ],
      "name": "Upgraded",
      "type": "event"
    },
    {
      "inputs": [],
      "name": "BATCH_SIZE",
      "outputs": [
        {
          "internalType": "uint256",
          "name": "",
          "type": "uint256"
        }
      ],
      "stateMutability": "view",
      "type": "function"
    },
    {
      "inputs": [],
      "name": "accumulatedFees",
      "outputs": [
        {
          "internalType": "uint256",
          "name": "",
          "type": "uint256"
        }
      ],
      "stateMutability": "view",
      "type": "function"
    },
    {
      "inputs": [
        {
          "internalType": "address",
          "name": "",
          "type": "address"
        }
      ],
      "name": "agentIndex",
      "outputs": [
        {
          "internalType": "uint256",
          "name": "",
          "type": "uint256"
        }
      ],
      "stateMutability": "view",
      "type": "function"
    },
    {
      "inputs": [
        {
          "internalType": "uint256",
          "name": "",
          "type": "uint256"
        }
      ],
      "name": "agentList",
      "outputs": [
        {
          "internalType": "address",
          "name": "",
          "type": "address"
        }
      ],
      "stateMutability": "view",
      "type": "function"
    },
    {
      "inputs": [
        {
          "internalType": "address",
          "name": "",
          "type": "address"
        }
      ],
      "name": "agentMetadataCID",
      "outputs": [
        {
          "internalType": "string",
          "name": "",
          "type": "string"
        }
      ],
      "stateMutability": "view",
      "type": "function"
    },
    {
      "inputs": [
        {
          "internalType": "address",
          "name": "",
          "type": "address"
        }
      ],
      "name": "agents",
      "outputs": [
        {
          "internalType": "string",
          "name": "didDocument",
          "type": "string"
        },
        {
          "internalType": "string",
          "name": "publicKey",
          "type": "string"
        },
        {
          "internalType": "uint256",
          "name": "reputation",
          "type": "uint256"
        },
        {
          "internalType": "bool",
          "name": "isActive",
          "type": "bool"
        },
        {
          "internalType": "uint256",
          "name": "registrationTime",
          "type": "uint256"
        },
        {
          "internalType": "uint256",
          "name": "lastActivity",
          "type": "uint256"
        },
        {
          "internalType": "uint256",
          "name": "stakedAmount",
          "type": "uint256"
        },
        {
          "internalType": "uint256",
          "name": "totalEarnings",
          "type": "uint256"
        },
        {
          "internalType": "uint256",
          "name": "totalServices",
          "type": "uint256"
        },
        {
          "internalType": "bool",
          "name": "isVerified",
          "type": "bool"
        }
      ],
      "stateMutability": "view",
      "type": "function"
    },
    {
      "inputs": [
        {
          "internalType": "uint256",
          "name": "serviceId",
          "type": "uint256"
        },
        {
          "internalType": "string",
          "name": "resultCID",
          "type": "string"
        }
      ],
      "name": "completeService",
      "outputs": [],
      "stateMutability": "nonpayable",
      "type": "function"
    },
    {
      "inputs": [
        {
          "internalType": "address",
          "name": "consumer",
          "type": "address"
        },
        {
          "internalType": "string",
          "name": "serviceType",
          "type": "string"
        },
        {
          "internalType": "uint256",
          "name": "price",
          "type": "uint256"
        }
      ],
      "name": "createService",
      "outputs": [],
      "stateMutability": "nonpayable",
      "type": "function"
    },
    {
      "inputs": [
        {
          "internalType": "string",
          "name": "",
          "type": "string"
        }
      ],
      "name": "didToAgent",
      "outputs": [
        {
          "internalType": "address",
          "name": "",
          "type": "address"
        }
      ],
      "stateMutability": "view",
      "type": "function"
    },
    {
      "inputs": [],
      "name": "distributeRewards",
      "outputs": [],
      "stateMutability": "nonpayable",
      "type": "function"
    },
    {
      "inputs": [
        {
          "internalType": "address",
          "name": "agent",
          "type": "address"
        }
      ],
      "name": "getAgent",
      "outputs": [
        {
          "components": [
            {
              "internalType": "string",
              "name": "didDocument",
              "type": "string"
            },
            {
              "internalType": "string",
              "name": "publicKey",
              "type": "string"
            },
            {
              "internalType": "uint256",
              "name": "reputation",
              "type": "uint256"
            },
            {
              "internalType": "bool",
              "name": "isActive",
              "type": "bool"
            },
            {
              "internalType": "uint256",
              "name": "registrationTime",
              "type": "uint256"
            },
            {
              "internalType": "uint256",
              "name": "lastActivity",
              "type": "uint256"
            },
            {
              "internalType": "uint256",
              "name": "stakedAmount",
              "type": "uint256"
            },
            {
              "internalType": "uint256",
              "name": "totalEarnings",
              "type": "uint256"
            },
            {
              "internalType": "uint256",
              "name": "totalServices",
              "type": "uint256"
            },
            {
              "internalType": "bool",
              "name": "isVerified",
              "type": "bool"
            }
          ],
          "internalType": "struct DIAPAgentNetwork.Agent",
          "name": "",
          "type": "tuple"
        }
      ],
      "stateMutability": "view",
      "type": "function"
    },
    {
      "inputs": [
        {
          "internalType": "bytes32",
          "name": "messageId",
          "type": "bytes32"
        }
      ],
      "name": "getMessage",
      "outputs": [
        {
          "components": [
            {
              "internalType": "address",
              "name": "fromAgent",
              "type": "address"
            },
            {
              "internalType": "address",
              "name": "toAgent",
              "type": "address"
            },
            {
              "internalType": "string",
              "name": "messageCID",
              "type": "string"
            },
            {
              "internalType": "uint256",
              "name": "timestamp",
              "type": "uint256"
            },
            {
              "internalType": "bool",
              "name": "isVerified",
              "type": "bool"
            },
            {
              "internalType": "uint256",
              "name": "fee",
              "type": "uint256"
            }
          ],
          "internalType": "struct DIAPAgentNetwork.Message",
          "name": "",
          "type": "tuple"
        }
      ],
      "stateMutability": "view",
      "type": "function"
    },
    {
      "inputs": [],
      "name": "getNetworkStats",
      "outputs": [
        {
          "internalType": "uint256",
          "name": "_totalAgents",
          "type": "uint256"
        },
        {
          "internalType": "uint256",
          "name": "_totalMessages",
          "type": "uint256"
        },
        {
          "internalType": "uint256",
          "name": "_totalServices",
          "type": "uint256"
        },
        {
          "internalType": "uint256",
          "name": "_totalVolume",
          "type": "uint256"
        },
        {
          "internalType": "uint256",
          "name": "_totalRewards",
          "type": "uint256"
        }
      ],
      "stateMutability": "view",
      "type": "function"
    },
    {
      "inputs": [
        {
          "internalType": "uint256",
          "name": "serviceId",
          "type": "uint256"
        }
      ],
      "name": "getService",
      "outputs": [
        {
          "components": [
            {
              "internalType": "address",
              "name": "provider",
              "type": "address"
            },
            {
              "internalType": "address",
              "name": "consumer",
              "type": "address"
            },
            {
              "internalType": "string",
              "name": "serviceType",
              "type": "string"
            },
            {
              "internalType": "uint256",
              "name": "price",
              "type": "uint256"
            },
            {
              "internalType": "uint256",
              "name": "timestamp",
              "type": "uint256"
            },
            {
              "internalType": "bool",
              "name": "isCompleted",
              "type": "bool"
            },
            {
              "internalType": "string",
              "name": "resultCID",
              "type": "string"
            }
          ],
          "internalType": "struct DIAPAgentNetwork.Service",
          "name": "",
          "type": "tuple"
        }
      ],
      "stateMutability": "view",
      "type": "function"
    },
    {
      "inputs": [
        {
          "internalType": "address",
          "name": "_token",
          "type": "address"
        }
      ],
      "name": "initialize",
      "outputs": [],
      "stateMutability": "nonpayable",
      "type": "function"
    },
    {
      "inputs": [],
      "name": "lastProcessedIndex",
      "outputs": [
        {
          "internalType": "uint256",
          "name": "",
          "type": "uint256"
        }
      ],
      "stateMutability": "view",
      "type": "function"
    },
    {
      "inputs": [],
      "name": "lastRewardTime",
      "outputs": [
        {
          "internalType": "uint256",
          "name": "",
          "type": "uint256"
        }
      ],
      "stateMutability": "view",
      "type": "function"
    },
    {
      "inputs": [],
      "name": "lockPeriod",
      "outputs": [
        {
          "internalType": "uint256",
          "name": "",
          "type": "uint256"
        }
      ],
      "stateMutability": "view",
      "type": "function"
    },
    {
      "inputs": [],
      "name": "messageFee",
      "outputs": [
        {
          "internalType": "uint256",
          "name": "",
          "type": "uint256"
        }
      ],
      "stateMutability": "view",
      "type": "function"
    },
    {
      "inputs": [
        {
          "internalType": "bytes32",
          "name": "",
          "type": "bytes32"
        }
      ],
      "name": "messages",
      "outputs": [
        {
          "internalType": "address",
          "name": "fromAgent",
          "type": "address"
        },
        {
          "internalType": "address",
          "name": "toAgent",
          "type": "address"
        },
        {
          "internalType": "string",
          "name": "messageCID",
          "type": "string"
        },
        {
          "internalType": "uint256",
          "name": "timestamp",
          "type": "uint256"
        },
        {
          "internalType": "bool",
          "name": "isVerified",
          "type": "bool"
        },
        {
          "internalType": "uint256",
          "name": "fee",
          "type": "uint256"
        }
      ],
      "stateMutability": "view",
      "type": "function"
    },
    {
      "inputs": [],
      "name": "minStakeAmount",
      "outputs": [
        {
          "internalType": "uint256",
          "name": "",
          "type": "uint256"
        }
      ],
      "stateMutability": "view",
      "type": "function"
    },
    {
      "inputs": [],
      "name": "owner",
      "outputs": [
        {
          "internalType": "address",
          "name": "",
          "type": "address"
        }
      ],
      "stateMutability": "view",
      "type": "function"
    },
    {
      "inputs": [],
      "name": "pause",
      "outputs": [],
      "stateMutability": "nonpayable",
      "type": "function"
    },
    {
      "inputs": [],
      "name": "paused",
      "outputs": [
        {
          "internalType": "bool",
          "name": "",
          "type": "bool"
        }
      ],
      "stateMutability": "view",
      "type": "function"
    },
    {
      "inputs": [],
      "name": "pendingRewards",
      "outputs": [
        {
          "internalType": "uint256",
          "name": "",
          "type": "uint256"
        }
      ],
      "stateMutability": "view",
      "type": "function"
    },
    {
      "inputs": [],
      "name": "processRewardBatch",
      "outputs": [
        {
          "internalType": "bool",
          "name": "",
          "type": "bool"
        }
      ],
      "stateMutability": "nonpayable",
      "type": "function"
    },
    {
      "inputs": [],
      "name": "proxiableUUID",
      "outputs": [
        {
          "internalType": "bytes32",
          "name": "",
          "type": "bytes32"
        }
      ],
      "stateMutability": "view",
      "type": "function"
    },
    {
      "inputs": [
        {
          "internalType": "string",
          "name": "didDocument",
          "type": "string"
        },
        {
          "internalType": "string",
          "name": "publicKey",
          "type": "string"
        },
        {
          "internalType": "uint256",
          "name": "stakedAmount",
          "type": "uint256"
        }
      ],
      "name": "registerAgent",
      "outputs": [],
      "stateMutability": "nonpayable",
      "type": "function"
    },
    {
      "inputs": [],
      "name": "registrationFee",
      "outputs": [
        {
          "internalType": "uint256",
          "name": "",
          "type": "uint256"
        }
      ],
      "stateMutability": "view",
      "type": "function"
    },
    {
      "inputs": [],
      "name": "renounceOwnership",
      "outputs": [],
      "stateMutability": "nonpayable",
      "type": "function"
    },
    {
      "inputs": [],
      "name": "reputationThreshold",
      "outputs": [
        {
          "internalType": "uint256",
          "name": "",
          "type": "uint256"
        }
      ],
      "stateMutability": "view",
      "type": "function"
    },
    {
      "inputs": [],
      "name": "rewardRate",
      "outputs": [
        {
          "internalType": "uint256",
          "name": "",
          "type": "uint256"
        }
      ],
      "stateMutability": "view",
      "type": "function"
    },
    {
      "inputs": [
        {
          "internalType": "address",
          "name": "toAgent",
          "type": "address"
        },
        {
          "internalType": "string",
          "name": "messageCID",
          "type": "string"
        }
      ],
      "name": "sendMessage",
      "outputs": [],
      "stateMutability": "nonpayable",
      "type": "function"
    },
    {
      "inputs": [],
      "name": "serviceFeeRate",
      "outputs": [
        {
          "internalType": "uint256",
          "name": "",
          "type": "uint256"
        }
      ],
      "stateMutability": "view",
      "type": "function"
    },
    {
      "inputs": [
        {
          "internalType": "uint256",
          "name": "",
          "type": "uint256"
        }
      ],
      "name": "serviceMetadataCID",
      "outputs": [
        {
          "internalType": "string",
          "name": "",
          "type": "string"
        }
      ],
      "stateMutability": "view",
      "type": "function"
    },
    {
      "inputs": [
        {
          "internalType": "uint256",
          "name": "",
          "type": "uint256"
        }
      ],
      "name": "services",
      "outputs": [
        {
          "internalType": "address",
          "name": "provider",
          "type": "address"
        },
        {
          "internalType": "address",
          "name": "consumer",
          "type": "address"
        },
        {
          "internalType": "string",
          "name": "serviceType",
          "type": "string"
        },
        {
          "internalType": "uint256",
          "name": "price",
          "type": "uint256"
        },
        {
          "internalType": "uint256",
          "name": "timestamp",
          "type": "uint256"
        },
        {
          "internalType": "bool",
          "name": "isCompleted",
          "type": "bool"
        },
        {
          "internalType": "string",
          "name": "resultCID",
          "type": "string"
        }
      ],
      "stateMutability": "view",
      "type": "function"
    },
    {
      "inputs": [
        {
          "internalType": "address",
          "name": "agent",
          "type": "address"
        },
        {
          "internalType": "string",
          "name": "metadataCID",
          "type": "string"
        }
      ],
      "name": "setAgentMetadataCID",
      "outputs": [],
      "stateMutability": "nonpayable",
      "type": "function"
    },
    {
      "inputs": [
        {
          "internalType": "uint256",
          "name": "_fee",
          "type": "uint256"
        }
      ],
      "name": "setMessageFee",
      "outputs": [],
      "stateMutability": "nonpayable",
      "type": "function"
    },
    {
      "inputs": [
        {
          "internalType": "uint256",
          "name": "_amount",
          "type": "uint256"
        }
      ],
      "name": "setMinStakeAmount",
      "outputs": [],
      "stateMutability": "nonpayable",
      "type": "function"
    },
    {
      "inputs": [
        {
          "internalType": "uint256",
          "name": "_fee",
          "type": "uint256"
        }
      ],
      "name": "setRegistrationFee",
      "outputs": [],
      "stateMutability": "nonpayable",
      "type": "function"
    },
    {
      "inputs": [
        {
          "internalType": "uint256",
          "name": "_rate",
          "type": "uint256"
        }
      ],
      "name": "setRewardRate",
      "outputs": [],
      "stateMutability": "nonpayable",
      "type": "function"
    },
    {
      "inputs": [
        {
          "internalType": "uint256",
          "name": "_rate",
          "type": "uint256"
        }
      ],
      "name": "setServiceFeeRate",
      "outputs": [],
      "stateMutability": "nonpayable",
      "type": "function"
    },
    {
      "inputs": [
        {
          "internalType": "uint256",
          "name": "serviceId",
          "type": "uint256"
        },
        {
          "internalType": "string",
          "name": "metadataCID",
          "type": "string"
        }
      ],
      "name": "setServiceMetadataCID",
      "outputs": [],
      "stateMutability": "nonpayable",
      "type": "function"
    },
    {
      "inputs": [
        {
          "internalType": "address",
          "name": "_treasury",
          "type": "address"
        }
      ],
      "name": "setTreasuryAddress",
      "outputs": [],
      "stateMutability": "nonpayable",
      "type": "function"
    },
    {
      "inputs": [
        {
          "internalType": "address",
          "name": "_verification",
          "type": "address"
        }
      ],
      "name": "setVerificationContract",
      "outputs": [],
      "stateMutability": "nonpayable",
      "type": "function"
    },
    {
      "inputs": [],
      "name": "token",
      "outputs": [
        {
          "internalType": "contract IERC20",
          "name": "",
          "type": "address"
        }
      ],
      "stateMutability": "view",
      "type": "function"
    },
    {
      "inputs": [],
      "name": "totalAgents",
      "outputs": [
        {
          "internalType": "uint256",
          "name": "",
          "type": "uint256"
        }
      ],
      "stateMutability": "view",
      "type": "function"
    },
    {
      "inputs": [],
      "name": "totalMessages",
      "outputs": [
        {
          "internalType": "uint256",
          "name": "",
          "type": "uint256"
        }
      ],
      "stateMutability": "view",
      "type": "function"
    },
    {
      "inputs": [],
      "name": "totalRewards",
      "outputs": [
        {
          "internalType": "uint256",
          "name": "",
          "type": "uint256"
        }
      ],
      "stateMutability": "view",
      "type": "function"
    },
    {
      "inputs": [],
      "name": "totalServices",
      "outputs": [
        {
          "internalType": "uint256",
          "name": "",
          "type": "uint256"
        }
      ],
      "stateMutability": "view",
      "type": "function"
    },
    {
      "inputs": [],
      "name": "totalStaked",
      "outputs": [
        {
          "internalType": "uint256",
          "name": "",
          "type": "uint256"
        }
      ],
      "stateMutability": "view",
      "type": "function"
    },
    {
      "inputs": [],
      "name": "totalVolume",
      "outputs": [
        {
          "internalType": "uint256",
          "name": "",
          "type": "uint256"
        }
      ],
      "stateMutability": "view",
      "type": "function"
    },
    {
      "inputs": [
        {
          "internalType": "address",
          "name": "newOwner",
          "type": "address"
        }
      ],
      "name": "transferOwnership",
      "outputs": [],
      "stateMutability": "nonpayable",
      "type": "function"
    },
    {
      "inputs": [],
      "name": "treasuryAddress",
      "outputs": [
        {
          "internalType": "address",
          "name": "",
          "type": "address"
        }
      ],
      "stateMutability": "view",
      "type": "function"
    },
    {
      "inputs": [],
      "name": "unpause",
      "outputs": [],
      "stateMutability": "nonpayable",
      "type": "function"
    },
    {
      "inputs": [],
      "name": "unstakeAgent",
      "outputs": [],
      "stateMutability": "nonpayable",
      "type": "function"
    },
    {
      "inputs": [
        {
          "internalType": "address",
          "name": "agent",
          "type": "address"
        },
        {
          "internalType": "int256",
          "name": "reputationChange",
          "type": "int256"
        }
      ],
      "name": "updateReputation",
      "outputs": [],
      "stateMutability": "nonpayable",
      "type": "function"
    },
    {
      "inputs": [
        {
          "internalType": "address",
          "name": "newImplementation",
          "type": "address"
        }
      ],
      "name": "upgradeTo",
      "outputs": [],
      "stateMutability": "nonpayable",
      "type": "function"
    },
    {
      "inputs": [
        {
          "internalType": "address",
          "name": "newImplementation",
          "type": "address"
        },
        {
          "internalType": "bytes",
          "name": "data",
          "type": "bytes"
        }
      ],
      "name": "upgradeToAndCall",
      "outputs": [],
      "stateMutability": "payable",
      "type": "function"
    },
    {
      "inputs": [],
      "name": "verification",
      "outputs": [
        {
          "internalType": "address",
          "name": "",
          "type": "address"
        }
      ],
      "stateMutability": "view",
      "type": "function"
    },
    {
      "inputs": [
        {
          "internalType": "address",
          "name": "agent",
          "type": "address"
        },
        {
          "internalType": "uint256[8]",
          "name": "proof",
          "type": "uint256[8]"
        }
      ],
      "name": "verifyAgent",
      "outputs": [],
      "stateMutability": "nonpayable",
      "type": "function"
    },
    {
      "inputs": [],
      "name": "withdrawFees",
      "outputs": [],
      "stateMutability": "nonpayable",
      "type": "function"
    },
    {
      "stateMutability": "payable",
      "type": "receive"
    }
  ],
  "bytecode": "0x60a060405230608052348015601357600080fd5b50608051614de961004b60003960008181610d7401528181610dbd0152818161105101528181611091015261110d0152614de96000f3fe6080604052600436106102d15760003560e01c8063715018a611610177578063715018a6146106bf5780637b0a47ee146106d4578063817b1cd2146106eb5780638456cb59146107025780638da5cb5b146107175780638e7a15bc1461072c5780639231cf741461074c578063951166c0146107635780639b1d30911461077a5780639e447fc61461079a578063a74d344e146107ba578063c22c4f43146107e8578063c320c7271461081b578063c4d66de81461083b578063c50537121461085b578063c5f956af14610872578063d410e8ba14610893578063d420051d146108aa578063d88e1ab9146108ca578063da6b03bc146108df578063de6f24bb146108ff578063deb7bba91461091f578063eb4af0451461093f578063eded3fda1461095f578063ef0e239b14610976578063f1887684146109a3578063f2fde38b146109ba578063fb3551ff146109da578063fb48d6be14610a07578063fc0c546a14610a27578063fd66091e14610a4857600080fd5b80630139a221146102dd5780630e15561a1461031357806314c44e091461033857806318aad3831461034f5780631a90a2191461037c57806323aa2a9d146103935780632bbd59ca146103b55780632f80c54f146103e75780633009a609146104145780633659cfe61461042b5780633f4ba83a1461044b5780633fd8b02f14610460578063460ef44c14610477578063476343ee1461049757806349faa4d4146104ac5780634a662f48146104c15780634f1ef2861461050a5780634ffe2a8b1461051d57806352d1902d1461053e578063587f5ed7146105535780635c975abb1461056a5780635f81a57c1461058e5780636076cf55146105a557806361d1bc94146105c55780636301ac8f146105dc5780636605bfda146105f357806367ee313d146106135780636a08b511146106335780636f4a2cd014610653578063702e827c146106685780637069c649146106aa57600080fd5b366102d857005b600080fd5b3480156102e957600080fd5b506102fd6102f8366004614049565b610a7e565b60405161030a91906140b2565b60405180910390f35b34801561031f57600080fd5b5061032a6101425481565b60405190815260200161030a565b34801561034457600080fd5b5061032a6101395481565b34801561035b57600080fd5b5061036f61036a366004614049565b610bc5565b60405161030a919061411c565b34801561038857600080fd5b5061032a61013a5481565b34801561039f57600080fd5b506103b36103ae366004614049565b610c60565b005b3480156103c157600080fd5b506103d56103d0366004614049565b610c6e565b60405161030a9695949392919061412f565b3480156103f357600080fd5b50610407610402366004614049565b610d3f565b60405161030a9190614179565b34801561042057600080fd5b5061032a6101435481565b34801561043757600080fd5b506103b36104463660046141a9565b610d6a565b34801561045757600080fd5b506103b3610e3b565b34801561046c57600080fd5b5061032a61013e5481565b34801561048357600080fd5b506103b361049236600461420c565b610e4d565b3480156104a357600080fd5b506103b3610ea4565b3480156104b857600080fd5b5061032a603281565b3480156104cd57600080fd5b506101355461013654610137546101385461014254604080519586526020860194909452928401919091526060830152608082015260a00161030a565b6103b36105183660046142e5565b611047565b34801561052957600080fd5b5061012e54610407906001600160a01b031681565b34801561054a57600080fd5b5061032a611100565b34801561055f57600080fd5b5061032a6101475481565b34801561057657600080fd5b5060fb5460ff165b604051901515815260200161030a565b34801561059a57600080fd5b5061032a6101385481565b3480156105b157600080fd5b506103b36105c0366004614346565b6111ae565b3480156105d157600080fd5b5061032a61013b5481565b3480156105e857600080fd5b5061032a6101375481565b3480156105ff57600080fd5b506103b361060e3660046141a9565b6115b6565b34801561061f57600080fd5b506103b361062e36600461420c565b611662565b34801561063f57600080fd5b506103b361064e36600461439f565b611aef565b34801561065f57600080fd5b506103b3611c21565b34801561067457600080fd5b506104076106833660046143c9565b8051602081830181018051610130825292820191909301209152546001600160a01b031681565b3480156106b657600080fd5b5061057e611d70565b3480156106cb57600080fd5b506103b3611e98565b3480156106e057600080fd5b5061032a6101405481565b3480156106f757600080fd5b5061032a61013f5481565b34801561070e57600080fd5b506103b3611eaa565b34801561072357600080fd5b50610407611eba565b34801561073857600080fd5b5061036f6107473660046141a9565b611ec9565b34801561075857600080fd5b5061032a6101415481565b34801561076f57600080fd5b5061032a6101365481565b34801561078657600080fd5b506103b3610795366004614049565b611ee3565b3480156107a657600080fd5b506103b36107b5366004614049565b611f37565b3480156107c657600080fd5b5061032a6107d53660046141a9565b6101346020526000908152604090205481565b3480156107f457600080fd5b50610808610803366004614049565b611f45565b60405161030a9796959493929190614411565b34801561082757600080fd5b506103b3610836366004614049565b6120a7565b34801561084757600080fd5b506103b36108563660046141a9565b6120b5565b34801561086757600080fd5b5061032a6101355481565b34801561087e57600080fd5b5061014854610407906001600160a01b031681565b34801561089f57600080fd5b5061032a61013d5481565b3480156108b657600080fd5b506103b36108c5366004614471565b61229f565b3480156108d657600080fd5b506103b36124e5565b3480156108eb57600080fd5b506103b36108fa3660046144ad565b612783565b34801561090b57600080fd5b506103b361091a366004614524565b612d4c565b34801561092b57600080fd5b506103b361093a366004614524565b6131d5565b34801561094b57600080fd5b506103b361095a366004614049565b613260565b34801561096b57600080fd5b5061032a6101445481565b34801561098257600080fd5b50610996610991366004614049565b61326e565b60405161030a919061455d565b3480156109af57600080fd5b5061032a61013c5481565b3480156109c657600080fd5b506103b36109d53660046141a9565b613430565b3480156109e657600080fd5b506109fa6109f53660046141a9565b6134a6565b60405161030a91906145e2565b348015610a1357600080fd5b506103b3610a223660046141a9565b6136ac565b348015610a3357600080fd5b5061012d54610407906001600160a01b031681565b348015610a5457600080fd5b50610a68610a633660046141a9565b61373b565b60405161030a9a99989796959493929190614690565b610acb6040518060c0016040528060006001600160a01b0316815260200160006001600160a01b031681526020016060815260200160008152602001600015158152602001600081525090565b60008281526101316020908152604091829020825160c08101845281546001600160a01b039081168252600183015416928101929092526002810180549293919291840191610b19906146fb565b80601f0160208091040260200160405190810160405280929190818152602001828054610b45906146fb565b8015610b925780601f10610b6757610100808354040283529160200191610b92565b820191906000526020600020905b815481529060010190602001808311610b7557829003601f168201915b505050918352505060038201546020820152600482015460ff161515604082015260059091015460609091015292915050565b6101466020526000908152604090208054610bdf906146fb565b80601f0160208091040260200160405190810160405280929190818152602001828054610c0b906146fb565b8015610c585780601f10610c2d57610100808354040283529160200191610c58565b820191906000526020600020905b815481529060010190602001808311610c3b57829003601f168201915b505050505081565b610c686138a3565b61013a55565b610131602052600090815260409020805460018201546002830180546001600160a01b03938416949290931692610ca4906146fb565b80601f0160208091040260200160405190810160405280929190818152602001828054610cd0906146fb565b8015610d1d5780601f10610cf257610100808354040283529160200191610d1d565b820191906000526020600020905b815481529060010190602001808311610d0057829003601f168201915b50505050600383015460048401546005909401549293909260ff909116915086565b6101338181548110610d5057600080fd5b6000918252602090912001546001600160a01b0316905081565b6001600160a01b037f0000000000000000000000000000000000000000000000000000000000000000163003610dbb5760405162461bcd60e51b8152600401610db290614735565b60405180910390fd5b7f00000000000000000000000000000000000000000000000000000000000000006001600160a01b0316610ded613902565b6001600160a01b031614610e135760405162461bcd60e51b8152600401610db29061476f565b610e1c8161391e565b60408051600080825260208201909252610e3891839190613926565b50565b610e436138a3565b610e4b613a91565b565b610e556138a3565b60008381526101326020526040902060040154610e845760405162461bcd60e51b8152600401610db2906147a9565b600083815261014660205260409020610e9e828483614830565b50505050565b610eac6138a3565b610eb4613add565b610148546001600160a01b0316610f085760405162461bcd60e51b8152602060048201526018602482015277151c99585cdd5c9e481859191c995cdcc81b9bdd081cd95d60421b6044820152606401610db2565b60006101475411610f515760405162461bcd60e51b81526020600482015260136024820152724e6f206665657320746f20776974686472617760681b6044820152606401610db2565b6101478054600090915561012d546101485460405163a9059cbb60e01b81526001600160a01b039283169263a9059cbb92610f939291169085906004016148e9565b6020604051808303816000875af1158015610fb2573d6000803e3d6000fd5b505050506040513d601f19601f82011682018060405250810190610fd69190614902565b610ff25760405162461bcd60e51b8152600401610db29061492b565b610148546040516001600160a01b03909116907fdeb5099d7943aa2b4c1142e5d53d2f7636aa8f7bd130ec79816f151572bcdf4590611034908490429061495a565b60405180910390a250610e4b600160c955565b6001600160a01b037f000000000000000000000000000000000000000000000000000000000000000016300361108f5760405162461bcd60e51b8152600401610db290614735565b7f00000000000000000000000000000000000000000000000000000000000000006001600160a01b03166110c1613902565b6001600160a01b0316146110e75760405162461bcd60e51b8152600401610db29061476f565b6110f08261391e565b6110fc82826001613926565b5050565b6000306001600160a01b037f0000000000000000000000000000000000000000000000000000000000000000161461119b5760405162461bcd60e51b815260206004820152603860248201527f555550535570677261646561626c653a206d757374206e6f742062652063616c6044820152771b1959081d1a1c9bdd59da0819195b1959d85d1958d85b1b60421b6064820152608401610db2565b50600080516020614d4d83398151915290565b33600090815261012f602052604090206009015460ff166111e15760405162461bcd60e51b8152600401610db290614968565b6111e9613add565b6111f1613b3d565b6001600160a01b0384166112425760405162461bcd60e51b8152602060048201526018602482015277496e76616c696420636f6e73756d6572206164647265737360401b6044820152606401610db2565b336001600160a01b0385160361129a5760405162461bcd60e51b815260206004820152601e60248201527f43616e6e6f7420637265617465207365727669636520666f722073656c6600006044820152606401610db2565b6001600160a01b038416600090815261012f602052604090206003015460ff166112fc5760405162461bcd60e51b8152602060048201526013602482015272436f6e73756d6572206e6f742061637469766560681b6044820152606401610db2565b6001600160a01b038416600090815261012f602052604090206009015460ff166113605760405162461bcd60e51b815260206004820152601560248201527410dbdb9cdd5b595c881b9bdd081d995c9a599a5959605a1b6044820152606401610db2565b600081116113a05760405162461bcd60e51b815260206004820152600d60248201526c496e76616c696420707269636560981b6044820152606401610db2565b816113e55760405162461bcd60e51b815260206004820152601560248201527414d95c9d9a58d9481d1e5c19481c995c5d5a5c9959605a1b6044820152606401610db2565b69d3c21bcecceda10000008111156114305760405162461bcd60e51b815260206004820152600e60248201526d0a0e4d2c6ca40e8dede40d0d2ced60931b6044820152606401610db2565b60006101375490506040518060e00160405280336001600160a01b03168152602001866001600160a01b0316815260200185858080601f01602080910402602001604051908101604052809392919081815260200183838082843760009201829052509385525050506020808301869052426040808501919091526060840183905280518083018252838152608090940193909352848252610132815290829020835181546001600160a01b03199081166001600160a01b03928316178355928501516001830180549094169116179091559082015160028201906115159082614994565b50606082015160038201556080820151600482015560a082015160058201805460ff191691151591909117905560c082015160068201906115569082614994565b505061013780549150600061156a83614a62565b9190505550807f06dec7c18c6d88222831a8e9c277ddd5ce160c41bc15314e7d93f6b45353d90f3387856040516115a393929190614a7b565b60405180910390a250610e9e600160c955565b6115be6138a3565b6001600160a01b03811661160f5760405162461bcd60e51b8152602060048201526018602482015277496e76616c6964207472656173757279206164647265737360401b6044820152606401610db2565b61014880546001600160a01b038381166001600160a01b0319831681179093556040519116919082907f430359a6d97ced2b6f93c77a91e7ce9dfd43252eb91e916adba170485cd8a6a490600090a35050565b33600090815261012f602052604090206009015460ff166116955760405162461bcd60e51b8152600401610db290614968565b61169d613add565b6116a5613b3d565b60008381526101326020526040902080546001600160a01b031633146117045760405162461bcd60e51b81526020600482015260146024820152732737ba1039b2b93b34b1b290383937bb34b232b960611b6044820152606401610db2565b600581015460ff16156117555760405162461bcd60e51b815260206004820152601960248201527814d95c9d9a58d948185b1c9958591e4818dbdb5c1b195d1959603a1b6044820152606401610db2565b816117975760405162461bcd60e51b8152602060048201526012602482015271125b9d985b1a59081c995cdd5b1d0810d25160721b6044820152606401610db2565b60008160040154116117bb5760405162461bcd60e51b8152600401610db2906147a9565b60048101546117cd9062278d00614a9f565b42111561180e5760405162461bcd60e51b815260206004820152600f60248201526e14d95c9d9a58d948195e1c1a5c9959608a1b6044820152606401610db2565b60058101805460ff191660011790556006810161182c838583614830565b50600061271061013b546127106118439190614ab2565b83600301546118529190614ac5565b61185c9190614adc565b61012d546040516370a0823160e01b815291925082916001600160a01b03909116906370a0823190611892903090600401614179565b602060405180830381865afa1580156118af573d6000803e3d6000fd5b505050506040513d601f19601f820116820180604052508101906118d39190614afe565b1061196f5761012d5460405163a9059cbb60e01b81526001600160a01b039091169063a9059cbb9061190b90339085906004016148e9565b6020604051808303816000875af115801561192a573d6000803e3d6000fd5b505050506040513d601f19601f8201168201806040525081019061194e9190614902565b61196a5760405162461bcd60e51b8152600401610db29061492b565b6119c9565b60405162461bcd60e51b815260206004820152602960248201527f496e73756666696369656e7420636f6e74726163742062616c616e636520666f60448201526872207265776172647360b81b6064820152608401610db2565b33600090815261012f60205260408120600281015460079091018054919284926119f4908490614a9f565b909155505033600090815261012f60205260408120600801805491611a1883614a62565b909155505033600090815261012f602052604081206002018054600a9290611a41908490614a9f565b909155505060038301546101388054600090611a5e908490614a9f565b92505081905550857f58e249b9328bc8509283e8d24898ab201b6fd08cd489de5995fff808670b897c868685604051611a9993929190614b17565b60405180910390a233600081815261012f602052604090819020600201549051600080516020614d6d83398151915291611ad59185919061495a565b60405180910390a2505050611aea600160c955565b505050565b611af76138a3565b6001600160a01b038216600090815261012f6020526040902060020154612710811115611b615760405162461bcd60e51b8152602060048201526018602482015277496e76616c69642072657075746174696f6e2073636f726560401b6044820152606401610db2565b6001600160a01b038316600090815261012f60205260408120600201549080841315611ba757611b918483614a9f565b9050612710811115611ba257506127105b611bd3565b6000611bb285614b50565b9050828110611bc45760009150611bd1565b611bce8184614ab2565b91505b505b6001600160a01b038516600081815261012f60205260409081902060020183905551600080516020614d6d83398151915290611c12908590859061495a565b60405180910390a25050505050565b611c296138a3565b60006101415442611c3a9190614ab2565b90506000611c4861013f5490565b9050600081118015611c5a5750600082115b156110fc57600064496cebb800836101405484611c779190614ac5565b611c819190614ac5565b611c8b9190614adc565b9050600081118015611d175750611ca28282614a9f565b61012d546040516370a0823160e01b81526001600160a01b03909116906370a0823190611cd3903090600401614179565b602060405180830381865afa158015611cf0573d6000803e3d6000fd5b505050506040513d601f19601f82011682018060405250810190611d149190614afe565b10155b15611aea57611d2581613b83565b806101426000828254611d389190614a9f565b909155505042610141819055604051600080516020614d0d83398151915291611d639184919061495a565b60405180910390a1505050565b6000611d7a6138a3565b610144541580611d8b575061013f54155b15611d965750600190565b610143546000611da7603283614a9f565b61013354909150811115611dbb5750610133545b6000825b82811015611e675760006101338281548110611ddd57611ddd614b6c565b60009182526020808320909101546001600160a01b031680835261012f909152604090912060038101549192509060ff168015611e1e575060008160060154115b15611e5d57600061013f54826006015461014454611e3c9190614ac5565b611e469190614adc565b90508015611e5b57611e588186614a9f565b94505b505b5050600101611dbf565b50610143829055610133548210611e8e575050600061014481905561014355506001905090565b6000935050505090565b611ea06138a3565b610e4b6000613bd4565b611eb26138a3565b610e4b613c26565b6097546001600160a01b031690565b6101456020526000908152604090208054610bdf906146fb565b611eeb6138a3565b6103e8811115611f315760405162461bcd60e51b815260206004820152601160248201527008ccaca40e4c2e8ca40e8dede40d0d2ced607b1b6044820152606401610db2565b61013b55565b611f3f6138a3565b61014055565b610132602052600090815260409020805460018201546002830180546001600160a01b03938416949290931692611f7b906146fb565b80601f0160208091040260200160405190810160405280929190818152602001828054611fa7906146fb565b8015611ff45780601f10611fc957610100808354040283529160200191611ff4565b820191906000526020600020905b815481529060010190602001808311611fd757829003601f168201915b5050506003840154600485015460058601546006870180549697939692955060ff909116935090612024906146fb565b80601f0160208091040260200160405190810160405280929190818152602001828054612050906146fb565b801561209d5780601f106120725761010080835404028352916020019161209d565b820191906000526020600020905b81548152906001019060200180831161208057829003601f168201915b5050505050905087565b6120af6138a3565b61013955565b600054610100900460ff16158080156120d55750600054600160ff909116105b806120f657506120e430613c63565b1580156120f6575060005460ff166001145b6121595760405162461bcd60e51b815260206004820152602e60248201527f496e697469616c697a61626c653a20636f6e747261637420697320616c72656160448201526d191e481a5b9a5d1a585b1a5e995960921b6064820152608401610db2565b6000805460ff19166001179055801561217c576000805461ff0019166101001790555b6001600160a01b0382166121ca5760405162461bcd60e51b8152602060048201526015602482015274496e76616c696420746f6b656e206164647265737360581b6044820152606401610db2565b6121d2613c72565b6121da613ca1565b6121e2613cc8565b6121ea613cf7565b61012d80546001600160a01b0319166001600160a01b03841617905568056bc75e2d6310000061013955670de0b6b3a764000061013a5561012c61013b55683635c9adc5dea0000061013c556103e861013d5562278d0061013e556005610140554261014155600061013f5580156110fc576000805461ff0019169055604051600181527f7f26b83ff96e1f2b6a682f133852f6798a09c465da95921460cefb38474024989060200160405180910390a15050565b6122a76138a3565b6001600160a01b038216600090815261012f602052604090206003015460ff166122e35760405162461bcd60e51b8152600401610db290614b82565b6001600160a01b038216600090815261012f602052604090206009015460ff16156123495760405162461bcd60e51b81526020600482015260166024820152751059d95b9d08185b1c9958591e481d995c9a599a595960521b6044820152606401610db2565b61012e546001600160a01b03166123a25760405162461bcd60e51b815260206004820152601d60248201527f566572696669636174696f6e20636f6e7472616374206e6f74207365740000006044820152606401610db2565b60006123ae8383613d26565b9050806123f15760405162461bcd60e51b815260206004820152601160248201527024b73b30b634b2102d25a810383937b7b360791b6044820152606401610db2565b6001600160a01b038316600090815261012f6020526040812060098101805460ff1916600117905560020180546103e8929061242e908490614a9f565b9091555050604051600181526001600160a01b038416907fb0c56617ec919721f803618b5f53891e275c7aaddbdf3c17c45f3252854fa70b9060200160405180910390a26001600160a01b038316600081815261012f6020526040902060020154600080516020614d6d833981519152906124ac906103e890614ab2565b6001600160a01b038616600090815261012f6020526040908190206002015490516124d892919061495a565b60405180910390a2505050565b6124ed613add565b33600090815261012f60205260409020600381015460ff166125215760405162461bcd60e51b8152600401610db290614b82565b61013e5481600401546125349190614a9f565b42101561257b5760405162461bcd60e51b8152602060048201526015602482015274131bd8dac81c195c9a5bd9081b9bdd08195b991959605a1b6044820152606401610db2565b600681015460038201805460ff191690553360009081526101346020526040812054610133549091906125b090600190614ab2565b905080821461263b57600061013382815481106125cf576125cf614b6c565b60009182526020909120015461013380546001600160a01b0390921692508291859081106125ff576125ff614b6c565b600091825260208083209190910180546001600160a01b0319166001600160a01b03948516179055929091168152610134909152604090208290555b61013380548061264d5761264d614bb0565b60008281526020808220830160001990810180546001600160a01b031916905590920190925533825261013490526040812081905561013580549161269183614bc6565b91905055508261013f60008282546126a99190614ab2565b909155505061012d5460405163a9059cbb60e01b81526001600160a01b039091169063a9059cbb906126e190339087906004016148e9565b6020604051808303816000875af1158015612700573d6000803e3d6000fd5b505050506040513d601f19601f820116820180604052508101906127249190614902565b6127405760405162461bcd60e51b8152600401610db29061492b565b60405183815233907f366aad71786c86a25c8e70832e1308e87662a4861edda4ae85ad947d858b9d119060200160405180910390a250505050610e4b600160c955565b61278b613add565b612793613b3d565b33600090815261012f602052604090206003015460ff16156127f25760405162461bcd60e51b81526020600482015260186024820152771059d95b9d08185b1c9958591e481c9959da5cdd195c995960421b6044820152606401610db2565b61013c548110156128415760405162461bcd60e51b8152602060048201526019602482015278125b9cdd59999a58da595b9d081cdd185ad948185b5bdd5b9d603a1b6044820152606401610db2565b836128855760405162461bcd60e51b8152602060048201526014602482015273125b9d985b1a590811125108191bd8dd5b595b9d60621b6044820152606401610db2565b60006001600160a01b031661013086866040516128a3929190614bdd565b908152604051908190036020019020546001600160a01b0316146128fe5760405162461bcd60e51b815260206004820152601260248201527144494420616c72656164792065786973747360701b6044820152606401610db2565b6000610139548261290f9190614a9f565b61012d546040516370a0823160e01b815291925082916001600160a01b03909116906370a0823190612945903390600401614179565b602060405180830381865afa158015612962573d6000803e3d6000fd5b505050506040513d601f19601f820116820180604052508101906129869190614afe565b10156129a45760405162461bcd60e51b8152600401610db290614bed565b61012d54604051636eb1769f60e11b815282916001600160a01b03169063dd62ed3e906129d79033903090600401614c21565b602060405180830381865afa1580156129f4573d6000803e3d6000fd5b505050506040513d601f19601f82011682018060405250810190612a189190614afe565b1015612a365760405162461bcd60e51b8152600401610db290614c3b565b61012d546040516323b872dd60e01b81526001600160a01b03909116906323b872dd90612a6b90339030908690600401614a7b565b6020604051808303816000875af1158015612a8a573d6000803e3d6000fd5b505050506040513d601f19601f82011682018060405250810190612aae9190614902565b612aca5760405162461bcd60e51b8152600401610db29061492b565b610139546101476000828254612ae09190614a9f565b9091555050604080516101606020601f89018190040282018101909252610140810187815290918291908990899081908501838280828437600092019190915250505090825250604080516020601f880181900481028201810190925286815291810191908790879081908401838280828437600092018290525093855250506103e860208085019190915260016040808601919091524260608601819052608086015260a0850188905260c0850184905260e0850184905261010090940183905233835261012f9052502081518190612bba9082614994565b5060208201516001820190612bcf9082614994565b506040828101516002830155606083015160038301805491151560ff199283161790556080840151600484015560a0840151600584015560c0840151600684015560e0840151600784015561010084015160088401556101209093015160099092018054921515929093169190911790915551339061013090612c559089908990614bdd565b9081526040805191829003602090810190922080546001600160a01b03949094166001600160a01b031994851617905561013380543360008181526101349095529284208190556001810182559083527f92e985329fb94cc1b424ebb0f7f2929b6d27383ca94c0ec71c44fb48bdf96d2c01805490931617909155610135805491612cdf83614a62565b91905055508161013f6000828254612cf79190614a9f565b909155505060405133907f023c5efe572c42192271951adb0e77f97d7fc84bc761d026189ac0861734682490612d3290899089908790614b17565b60405180910390a250612d45600160c955565b5050505050565b33600090815261012f602052604090206003015460ff16612d7f5760405162461bcd60e51b8152600401610db290614b82565b612d87613add565b6001600160a01b038316600090815261012f602052604090206003015460ff16612ded5760405162461bcd60e51b8152602060048201526017602482015276546172676574206167656e74206e6f742061637469766560481b6044820152606401610db2565b80612e305760405162461bcd60e51b8152602060048201526013602482015272125b9d985b1a59081b595cdcd859d94810d251606a1b6044820152606401610db2565b61013a5461012d546040516370a0823160e01b81526001600160a01b03909116906370a0823190612e65903390600401614179565b602060405180830381865afa158015612e82573d6000803e3d6000fd5b505050506040513d601f19601f82011682018060405250810190612ea69190614afe565b1015612ec45760405162461bcd60e51b8152600401610db290614bed565b61013a5461012d54604051636eb1769f60e11b81526001600160a01b039091169063dd62ed3e90612efb9033903090600401614c21565b602060405180830381865afa158015612f18573d6000803e3d6000fd5b505050506040513d601f19601f82011682018060405250810190612f3c9190614afe565b1015612f5a5760405162461bcd60e51b8152600401610db290614c3b565b61012d5461013a546040516323b872dd60e01b81526001600160a01b03909216916323b872dd91612f919133913091600401614a7b565b6020604051808303816000875af1158015612fb0573d6000803e3d6000fd5b505050506040513d601f19601f82011682018060405250810190612fd49190614902565b612ff05760405162461bcd60e51b8152600401610db29061492b565b61013a5461014760008282546130069190614a9f565b90915550506040516000906130279033908690869086904290602001614c71565b60408051601f19818403018152828252805160209182012060c0840183523384526001600160a01b038816848301528251601f87018390048302810183018452868152909450918301919086908690819084018382808284376000920182905250938552505042602080850191909152604080850184905261013a54606090950194909452858352610131815291839020845181546001600160a01b03199081166001600160a01b0392831617835593860151600183018054909516911617909255509082015160028201906130fd9082614994565b5060608201516003820155608082015160048201805460ff191691151591909117905560a090910151600590910155610136805490600061313d83614a62565b919050555061013a5461013860008282546131589190614a9f565b909155505033600081815261012f60205260408082204260059182018190556001600160a01b038916845292829020019190915561013a54905183927f3c20d4e8f42599eddf3cdb1184580d4ad4d4a3063dbd500a519f8fcf11ea2414926131c292899190614a7b565b60405180910390a250611aea600160c955565b6131dd6138a3565b6001600160a01b038316600090815261012f602052604090206003015460ff1661323c5760405162461bcd60e51b815260206004820152601060248201526f4167656e74206e6f742061637469766560801b6044820152606401610db2565b6001600160a01b038316600090815261014560205260409020610e9e828483614830565b6132686138a3565b61013c55565b6040805160e080820183526000808352602080840182905260608486018190528085018390526080850183905260a0850183905260c08501528582526101328152908490208451928301855280546001600160a01b039081168452600182015416918301919091526002810180549394929391928401916132ee906146fb565b80601f016020809104026020016040519081016040528092919081815260200182805461331a906146fb565b80156133675780601f1061333c57610100808354040283529160200191613367565b820191906000526020600020905b81548152906001019060200180831161334a57829003601f168201915b50505091835250506003820154602082015260048201546040820152600582015460ff16151560608201526006820180546080909201916133a7906146fb565b80601f01602080910402602001604051908101604052809291908181526020018280546133d3906146fb565b80156134205780601f106133f557610100808354040283529160200191613420565b820191906000526020600020905b81548152906001019060200180831161340357829003601f168201915b5050505050815250509050919050565b6134386138a3565b6001600160a01b03811661349d5760405162461bcd60e51b815260206004820152602660248201527f4f776e61626c653a206e6577206f776e657220697320746865207a65726f206160448201526564647265737360d01b6064820152608401610db2565b610e3881613bd4565b61350060405180610140016040528060608152602001606081526020016000815260200160001515815260200160008152602001600081526020016000815260200160008152602001600081526020016000151581525090565b6001600160a01b038216600090815261012f60205260409081902081516101408101909252805482908290613534906146fb565b80601f0160208091040260200160405190810160405280929190818152602001828054613560906146fb565b80156135ad5780601f10613582576101008083540402835291602001916135ad565b820191906000526020600020905b81548152906001019060200180831161359057829003601f168201915b505050505081526020016001820180546135c6906146fb565b80601f01602080910402602001604051908101604052809291908181526020018280546135f2906146fb565b801561363f5780601f106136145761010080835404028352916020019161363f565b820191906000526020600020905b81548152906001019060200180831161362257829003601f168201915b505050918352505060028201546020820152600382015460ff908116151560408301526004830154606083015260058301546080830152600683015460a0830152600783015460c0830152600883015460e083015260099092015490911615156101009091015292915050565b6136b46138a3565b6001600160a01b0381166137185760405162461bcd60e51b815260206004820152602560248201527f496e76616c696420766572696669636174696f6e20636f6e7472616374206164604482015264647265737360d81b6064820152608401610db2565b61012e80546001600160a01b0319166001600160a01b0392909216919091179055565b61012f60205260009081526040902080548190613757906146fb565b80601f0160208091040260200160405190810160405280929190818152602001828054613783906146fb565b80156137d05780601f106137a5576101008083540402835291602001916137d0565b820191906000526020600020905b8154815290600101906020018083116137b357829003601f168201915b5050505050908060010180546137e5906146fb565b80601f0160208091040260200160405190810160405280929190818152602001828054613811906146fb565b801561385e5780601f106138335761010080835404028352916020019161385e565b820191906000526020600020905b81548152906001019060200180831161384157829003601f168201915b5050505060028301546003840154600485015460058601546006870154600788015460088901546009909901549798959760ff9586169750939592949193909291168a565b336138ac611eba565b6001600160a01b031614610e4b5760405162461bcd60e51b815260206004820181905260248201527f4f776e61626c653a2063616c6c6572206973206e6f7420746865206f776e65726044820152606401610db2565b600080516020614d4d833981519152546001600160a01b031690565b610e386138a3565b7f4910fdfa16fed3260ed0e7147f7cc6da11a60208b5b9406d12a635614ffd91435460ff161561395957611aea83613d36565b826001600160a01b03166352d1902d6040518163ffffffff1660e01b8152600401602060405180830381865afa9250505080156139b3575060408051601f3d908101601f191682019092526139b091810190614afe565b60015b613a165760405162461bcd60e51b815260206004820152602e60248201527f45524331393637557067726164653a206e657720696d706c656d656e7461746960448201526d6f6e206973206e6f74205555505360901b6064820152608401610db2565b600080516020614d4d8339815191528114613a855760405162461bcd60e51b815260206004820152602960248201527f45524331393637557067726164653a20756e737570706f727465642070726f786044820152681a58589b195555525160ba1b6064820152608401610db2565b50611aea838383613dd0565b613a99613df5565b60fb805460ff191690557f5db9ee0a495bf2e6ff9c91a7834c1ba4fdd244a5e8aa4e537bd38aeae4b073aa335b604051613ad39190614179565b60405180910390a1565b600260c95403613b2f5760405162461bcd60e51b815260206004820152601f60248201527f5265656e7472616e637947756172643a207265656e7472616e742063616c6c006044820152606401610db2565b600260c955565b600160c955565b60fb5460ff1615610e4b5760405162461bcd60e51b815260206004820152601060248201526f14185d5cd8589b194e881c185d5cd95960821b6044820152606401610db2565b61013f54600003613b915750565b806101446000828254613ba49190614a9f565b9091555050604051600080516020614d0d83398151915290613bc9908390429061495a565b60405180910390a150565b609780546001600160a01b038381166001600160a01b0319831681179093556040519116919082907f8be0079c531659141344cd1fd0a4f28419497f9722a3daafe3b4186f6b6457e090600090a35050565b613c2e613b3d565b60fb805460ff191660011790557f62e78cea01bee320cd4e420270b5ea74000d11b0c9f74754ebdbfc544b05a258613ac63390565b6001600160a01b03163b151590565b600054610100900460ff16613c995760405162461bcd60e51b8152600401610db290614ca5565b610e4b613e3e565b600054610100900460ff16610e4b5760405162461bcd60e51b8152600401610db290614ca5565b600054610100900460ff16613cef5760405162461bcd60e51b8152600401610db290614ca5565b610e4b613e6e565b600054610100900460ff16613d1e5760405162461bcd60e51b8152600401610db290614ca5565b610e4b613e95565b6000813515155b90505b92915050565b613d3f81613c63565b613da15760405162461bcd60e51b815260206004820152602d60248201527f455243313936373a206e657720696d706c656d656e746174696f6e206973206e60448201526c1bdd08184818dbdb9d1c9858dd609a1b6064820152608401610db2565b600080516020614d4d83398151915280546001600160a01b0319166001600160a01b0392909216919091179055565b613dd983613ec8565b600082511180613de65750805b15611aea57610e9e8383613f08565b60fb5460ff16610e4b5760405162461bcd60e51b815260206004820152601460248201527314185d5cd8589b194e881b9bdd081c185d5cd95960621b6044820152606401610db2565b600054610100900460ff16613e655760405162461bcd60e51b8152600401610db290614ca5565b610e4b33613bd4565b600054610100900460ff16613b365760405162461bcd60e51b8152600401610db290614ca5565b600054610100900460ff16613ebc5760405162461bcd60e51b8152600401610db290614ca5565b60fb805460ff19169055565b613ed181613d36565b6040516001600160a01b038216907fbc7cd75a20ee27fd9adebab32041f755214dbc6bffa90cc0225b39da2e5c2d3b90600090a250565b6060613d2d8383604051806060016040528060278152602001614d8d602791396060600080856001600160a01b031685604051613f459190614cf0565b600060405180830381855af49150503d8060008114613f80576040519150601f19603f3d011682016040523d82523d6000602084013e613f85565b606091505b5091509150613f9686838387613fa0565b9695505050505050565b6060831561400d57825160000361400657613fba85613c63565b6140065760405162461bcd60e51b815260206004820152601d60248201527f416464726573733a2063616c6c20746f206e6f6e2d636f6e74726163740000006044820152606401610db2565b5081614017565b614017838361401f565b949350505050565b81511561402f5781518083602001fd5b8060405162461bcd60e51b8152600401610db2919061411c565b60006020828403121561405b57600080fd5b5035919050565b60005b8381101561407d578181015183820152602001614065565b50506000910152565b6000815180845261409e816020860160208601614062565b601f01601f19169290920160200192915050565b602080825282516001600160a01b0390811683830152908301511660408083019190915282015160c060608301526000906140f060e0840182614086565b9050606084015160808401526080840151151560a084015260a084015160c08401528091505092915050565b602081526000613d2d6020830184614086565b6001600160a01b0387811682528616602082015260c06040820181905260009061415b90830187614086565b606083019590955250911515608083015260a0909101529392505050565b6001600160a01b0391909116815260200190565b80356001600160a01b03811681146141a457600080fd5b919050565b6000602082840312156141bb57600080fd5b613d2d8261418d565b60008083601f8401126141d657600080fd5b5081356001600160401b038111156141ed57600080fd5b60208301915083602082850101111561420557600080fd5b9250929050565b60008060006040848603121561422157600080fd5b8335925060208401356001600160401b0381111561423e57600080fd5b61424a868287016141c4565b9497909650939450505050565b634e487b7160e01b600052604160045260246000fd5b6000806001600160401b0384111561428757614287614257565b50604051601f19601f85018116603f011681018181106001600160401b03821117156142b5576142b5614257565b6040528381529050808284018510156142cd57600080fd5b83836020830137600060208583010152509392505050565b600080604083850312156142f857600080fd5b6143018361418d565b915060208301356001600160401b0381111561431c57600080fd5b8301601f8101851361432d57600080fd5b61433c8582356020840161426d565b9150509250929050565b6000806000806060858703121561435c57600080fd5b6143658561418d565b935060208501356001600160401b0381111561438057600080fd5b61438c878288016141c4565b9598909750949560400135949350505050565b600080604083850312156143b257600080fd5b6143bb8361418d565b946020939093013593505050565b6000602082840312156143db57600080fd5b81356001600160401b038111156143f157600080fd5b8201601f8101841361440257600080fd5b6140178482356020840161426d565b6001600160a01b0388811682528716602082015260e06040820181905260009061443d90830188614086565b86606084015285608084015284151560a084015282810360c08401526144638185614086565b9a9950505050505050505050565b600080610120838503121561448557600080fd5b61448e8361418d565b915083610120840111156144a157600080fd5b50926020919091019150565b6000806000806000606086880312156144c557600080fd5b85356001600160401b038111156144db57600080fd5b6144e7888289016141c4565b90965094505060208601356001600160401b0381111561450657600080fd5b614512888289016141c4565b96999598509660400135949350505050565b60008060006040848603121561453957600080fd5b6145428461418d565b925060208401356001600160401b0381111561423e57600080fd5b602080825282516001600160a01b0390811683830152908301511660408083019190915282015160e0606083015260009061459c610100840182614086565b905060608401516080840152608084015160a084015260a0840151151560c084015260c0840151601f198483030160e08501526145d98282614086565b95945050505050565b60208152600082516101406020840152614600610160840182614086565b90506020840151601f1984830301604085015261461d8282614086565b91505060408401516060840152606084015161463d608085018215159052565b50608084015160a084015260a084015160c084015260c084015160e084015260e084015161010084015261010084015161012084015261012084015161468861014085018215159052565b509392505050565b610140815260006146a561014083018d614086565b82810360208401526146b7818d614086565b604084019b909b5250509615156060880152608087019590955260a086019390935260c085019190915260e084015261010083015215156101209091015292915050565b600181811c9082168061470f57607f821691505b60208210810361472f57634e487b7160e01b600052602260045260246000fd5b50919050565b6020808252602c90820152600080516020614d2d83398151915260408201526b19195b1959d85d1958d85b1b60a21b606082015260800190565b6020808252602c90820152600080516020614d2d83398151915260408201526b6163746976652070726f787960a01b606082015260800190565b60208082526011908201527014d95c9d9a58d9481b9bdd08199bdd5b99607a1b604082015260600190565b601f821115611aea57806000526020600020601f840160051c810160208510156147fb5750805b601f840160051c820191505b81811015612d455760008155600101614807565b600019600383901b1c191660019190911b1790565b6001600160401b0383111561484757614847614257565b61485b8361485583546146fb565b836147d4565b6000601f84116001811461488957600085156148775750838201355b614881868261481b565b845550612d45565b600083815260209020601f19861690835b828110156148ba578685013582556020948501946001909201910161489a565b50868210156148d75760001960f88860031b161c19848701351681555b505060018560011b0183555050505050565b6001600160a01b03929092168252602082015260400190565b60006020828403121561491457600080fd5b8151801515811461492457600080fd5b9392505050565b602080825260159082015274151bdad95b881d1c985b9cd9995c8819985a5b1959605a1b604082015260600190565b918252602082015260400190565b6020808252601290820152711059d95b9d081b9bdd081d995c9a599a595960721b604082015260600190565b81516001600160401b038111156149ad576149ad614257565b6149c1816149bb84546146fb565b846147d4565b6020601f8211600181146149ef57600083156149dd5750848201515b6149e7848261481b565b855550612d45565b600084815260208120601f198516915b82811015614a1f57878501518255602094850194600190920191016149ff565b5084821015614a3d5786840151600019600387901b60f8161c191681555b50505050600190811b01905550565b634e487b7160e01b600052601160045260246000fd5b600060018201614a7457614a74614a4c565b5060010190565b6001600160a01b039384168152919092166020820152604081019190915260600190565b80820180821115613d3057613d30614a4c565b81810381811115613d3057613d30614a4c565b8082028115828204841417613d3057613d30614a4c565b600082614af957634e487b7160e01b600052601260045260246000fd5b500490565b600060208284031215614b1057600080fd5b5051919050565b604081528260408201528284606083013760006060848301015260006060601f19601f8601168301019050826020830152949350505050565b6000600160ff1b8201614b6557614b65614a4c565b5060000390565b634e487b7160e01b600052603260045260246000fd5b6020808252601490820152731059d95b9d081b9bdd081c9959da5cdd195c995960621b604082015260600190565b634e487b7160e01b600052603160045260246000fd5b600081614bd557614bd5614a4c565b506000190190565b8183823760009101908152919050565b6020808252601a9082015279496e73756666696369656e7420746f6b656e2062616c616e636560301b604082015260600190565b6001600160a01b0392831681529116602082015260400190565b6020808252601c908201527b496e73756666696369656e7420746f6b656e20616c6c6f77616e636560201b604082015260600190565b6001600160601b0319606087811b8216835286901b1660148201528284602883013760289201918201526048019392505050565b6020808252602b908201527f496e697469616c697a61626c653a20636f6e7472616374206973206e6f74206960408201526a6e697469616c697a696e6760a81b606082015260800190565b60008251614d02818460208701614062565b919091019291505056fe29e98ba00d07f171959c4ddcd2f3020debc7c52cf537a034d7e664340d098c6c46756e6374696f6e206d7573742062652063616c6c6564207468726f75676820360894a13ba1a3210667c828492db98dca3e2076cc3735a920a3ca505d382bbc5b88a2e3fc1a53234357ab78c104df11c33ccfa79886793654565ad70b8afb6e416464726573733a206c6f772d6c6576656c2064656c65676174652063616c6c206661696c6564a2646970667358221220342e7bfcea43e3ee78f240f087ee54b146aa5053bb593703e6d205563a0e582e64736f6c634300081e0033",
  "linkReferences": {},
  "deployedLinkReferences": {}
}