{
  "_format": "hh-sol-artifact-1",
  "contractName": "DIAPAgentNetwork",
  "sourceName": "contracts/DIAPAgentNetwork.sol",
  "abi": [
    {
      "anonymous": false,
      "inputs": [
        {
          "indexed": false,
          "internalType": "address",
          "name": "previousAdmin",
          "type": "address"
        },
        {
          "indexed": false,
          "internalType": "address",
          "name": "newAdmin",
          "type": "address"
        }
      ],
      "name": "AdminChanged",
      "type": "event"
    },
    {
      "anonymous": false,
      "inputs": [
        {
          "indexed": true,
          "internalType": "address",
          "name": "agent",
          "type": "address"
        },
        {
          "indexed": false,
          "internalType": "string",
          "name": "didDocument",
          "type": "string"
        },
        {
          "indexed": false,
          "internalType": "uint256",
          "name": "stakedAmount",
          "type": "uint256"
        }
      ],
      "name": "AgentRegistered",
      "type": "event"
    },
    {
      "anonymous": false,
      "inputs": [
        {
          "indexed": true,
          "internalType": "address",
          "name": "agent",
          "type": "address"
        },
        {
          "indexed": false,
          "internalType": "string",
          "name": "ipnsName",
          "type": "string"
        },
        {
          "indexed": false,
          "internalType": "uint256",
          "name": "stakedAmount",
          "type": "uint256"
        },
        {
          "indexed": false,
          "internalType": "uint256",
          "name": "timestamp",
          "type": "uint256"
        }
      ],
      "name": "AgentRegisteredWithIPNS",
      "type": "event"
    },
    {
      "anonymous": false,
      "inputs": [
        {
          "indexed": true,
          "internalType": "address",
          "name": "agent",
          "type": "address"
        },
        {
          "indexed": false,
          "internalType": "uint256",
          "name": "stakedAmount",
          "type": "uint256"
        }
      ],
      "name": "AgentUnstaked",
      "type": "event"
    },
    {
      "anonymous": false,
      "inputs": [
        {
          "indexed": true,
          "internalType": "address",
          "name": "agent",
          "type": "address"
        },
        {
          "indexed": false,
          "internalType": "bool",
          "name": "isVerified",
          "type": "bool"
        }
      ],
      "name": "AgentVerified",
      "type": "event"
    },
    {
      "anonymous": false,
      "inputs": [
        {
          "indexed": true,
          "internalType": "address",
          "name": "beacon",
          "type": "address"
        }
      ],
      "name": "BeaconUpgraded",
      "type": "event"
    },
    {
      "anonymous": false,
      "inputs": [
        {
          "indexed": true,
          "internalType": "address",
          "name": "to",
          "type": "address"
        },
        {
          "indexed": false,
          "internalType": "uint256",
          "name": "amount",
          "type": "uint256"
        },
        {
          "indexed": false,
          "internalType": "uint256",
          "name": "timestamp",
          "type": "uint256"
        }
      ],
      "name": "FeesWithdrawn",
      "type": "event"
    },
    {
      "anonymous": false,
      "inputs": [
        {
          "indexed": false,
          "internalType": "uint8",
          "name": "version",
          "type": "uint8"
        }
      ],
      "name": "Initialized",
      "type": "event"
    },
    {
      "anonymous": false,
      "inputs": [
        {
          "indexed": true,
          "internalType": "bytes32",
          "name": "messageId",
          "type": "bytes32"
        },
        {
          "indexed": false,
          "internalType": "address",
          "name": "from",
          "type": "address"
        },
        {
          "indexed": false,
          "internalType": "address",
          "name": "to",
          "type": "address"
        },
        {
          "indexed": false,
          "internalType": "uint256",
          "name": "fee",
          "type": "uint256"
        }
      ],
      "name": "MessageSent",
      "type": "event"
    },
    {
      "anonymous": false,
      "inputs": [
        {
          "indexed": true,
          "internalType": "address",
          "name": "previousOwner",
          "type": "address"
        },
        {
          "indexed": true,
          "internalType": "address",
          "name": "newOwner",
          "type": "address"
        }
      ],
      "name": "OwnershipTransferred",
      "type": "event"
    },
    {
      "anonymous": false,
      "inputs": [
        {
          "indexed": false,
          "internalType": "address",
          "name": "account",
          "type": "address"
        }
      ],
      "name": "Paused",
      "type": "event"
    },
    {
      "anonymous": false,
      "inputs": [
        {
          "indexed": true,
          "internalType": "address",
          "name": "agent",
          "type": "address"
        },
        {
          "indexed": false,
          "internalType": "uint256",
          "name": "oldReputation",
          "type": "uint256"
        },
        {
          "indexed": false,
          "internalType": "uint256",
          "name": "newReputation",
          "type": "uint256"
        }
      ],
      "name": "ReputationUpdated",
      "type": "event"
    },
    {
      "anonymous": false,
      "inputs": [
        {
          "indexed": false,
          "internalType": "uint256",
          "name": "totalAmount",
          "type": "uint256"
        },
        {
          "indexed": false,
          "internalType": "uint256",
          "name": "timestamp",
          "type": "uint256"
        }
      ],
      "name": "RewardsDistributed",
      "type": "event"
    },
    {
      "anonymous": false,
      "inputs": [
        {
          "indexed": true,
          "internalType": "uint256",
          "name": "serviceId",
          "type": "uint256"
        },
        {
          "indexed": false,
          "internalType": "string",
          "name": "resultCID",
          "type": "string"
        },
        {
          "indexed": false,
          "internalType": "uint256",
          "name": "reward",
          "type": "uint256"
        }
      ],
      "name": "ServiceCompleted",
      "type": "event"
    },
    {
      "anonymous": false,
      "inputs": [
        {
          "indexed": true,
          "internalType": "uint256",
          "name": "serviceId",
          "type": "uint256"
        },
        {
          "indexed": false,
          "internalType": "address",
          "name": "provider",
          "type": "address"
        },
        {
          "indexed": false,
          "internalType": "address",
          "name": "consumer",
          "type": "address"
        },
        {
          "indexed": false,
          "internalType": "uint256",
          "name": "price",
          "type": "uint256"
        }
      ],
      "name": "ServiceCreated",
      "type": "event"
    },
    {
      "anonymous": false,
      "inputs": [
        {
          "indexed": true,
          "internalType": "address",
          "name": "oldAddress",
          "type": "address"
        },
        {
          "indexed": true,
          "internalType": "address",
          "name": "newAddress",
          "type": "address"
        }
      ],
      "name": "TreasuryAddressUpdated",
      "type": "event"
    },
    {
      "anonymous": false,
      "inputs": [
        {
          "indexed": false,
          "internalType": "address",
          "name": "account",
          "type": "address"
        }
      ],
      "name": "Unpaused",
      "type": "event"
    },
    {
      "anonymous": false,
      "inputs": [
        {
          "indexed": true,
          "internalType": "address",
          "name": "implementation",
          "type": "address"
        }
      ],
      "name": "Upgraded",
      "type": "event"
    },
    {
      "inputs": [],
      "name": "BATCH_SIZE",
      "outputs": [
        {
          "internalType": "uint256",
          "name": "",
          "type": "uint256"
        }
      ],
      "stateMutability": "view",
      "type": "function"
    },
    {
      "inputs": [],
      "name": "accumulatedFees",
      "outputs": [
        {
          "internalType": "uint256",
          "name": "",
          "type": "uint256"
        }
      ],
      "stateMutability": "view",
      "type": "function"
    },
    {
      "inputs": [
        {
          "internalType": "address",
          "name": "",
          "type": "address"
        }
      ],
      "name": "agentIndex",
      "outputs": [
        {
          "internalType": "uint256",
          "name": "",
          "type": "uint256"
        }
      ],
      "stateMutability": "view",
      "type": "function"
    },
    {
      "inputs": [
        {
          "internalType": "uint256",
          "name": "",
          "type": "uint256"
        }
      ],
      "name": "agentList",
      "outputs": [
        {
          "internalType": "address",
          "name": "",
          "type": "address"
        }
      ],
      "stateMutability": "view",
      "type": "function"
    },
    {
      "inputs": [
        {
          "internalType": "address",
          "name": "",
          "type": "address"
        }
      ],
      "name": "agentMetadataCID",
      "outputs": [
        {
          "internalType": "string",
          "name": "",
          "type": "string"
        }
      ],
      "stateMutability": "view",
      "type": "function"
    },
    {
      "inputs": [
        {
          "internalType": "address",
          "name": "",
          "type": "address"
        }
      ],
      "name": "agents",
      "outputs": [
        {
          "internalType": "string",
          "name": "didDocument",
          "type": "string"
        },
        {
          "internalType": "string",
          "name": "publicKey",
          "type": "string"
        },
        {
          "internalType": "uint128",
          "name": "stakedAmount",
          "type": "uint128"
        },
        {
          "internalType": "uint128",
          "name": "totalEarnings",
          "type": "uint128"
        },
        {
          "internalType": "uint64",
          "name": "reputation",
          "type": "uint64"
        },
        {
          "internalType": "uint64",
          "name": "registrationTime",
          "type": "uint64"
        },
        {
          "internalType": "uint64",
          "name": "lastActivity",
          "type": "uint64"
        },
        {
          "internalType": "uint32",
          "name": "totalServices",
          "type": "uint32"
        },
        {
          "internalType": "bool",
          "name": "isActive",
          "type": "bool"
        },
        {
          "internalType": "bool",
          "name": "isVerified",
          "type": "bool"
        }
      ],
      "stateMutability": "view",
      "type": "function"
    },
    {
      "inputs": [
        {
          "internalType": "uint256",
          "name": "serviceId",
          "type": "uint256"
        },
        {
          "internalType": "string",
          "name": "resultCID",
          "type": "string"
        }
      ],
      "name": "completeService",
      "outputs": [],
      "stateMutability": "nonpayable",
      "type": "function"
    },
    {
      "inputs": [
        {
          "internalType": "address",
          "name": "consumer",
          "type": "address"
        },
        {
          "internalType": "string",
          "name": "serviceType",
          "type": "string"
        },
        {
          "internalType": "uint256",
          "name": "price",
          "type": "uint256"
        }
      ],
      "name": "createService",
      "outputs": [],
      "stateMutability": "nonpayable",
      "type": "function"
    },
    {
      "inputs": [
        {
          "internalType": "string",
          "name": "",
          "type": "string"
        }
      ],
      "name": "didToAgent",
      "outputs": [
        {
          "internalType": "address",
          "name": "",
          "type": "address"
        }
      ],
      "stateMutability": "view",
      "type": "function"
    },
    {
      "inputs": [],
      "name": "distributeRewards",
      "outputs": [],
      "stateMutability": "nonpayable",
      "type": "function"
    },
    {
      "inputs": [
        {
          "internalType": "address",
          "name": "agent",
          "type": "address"
        }
      ],
      "name": "getAgent",
      "outputs": [
        {
          "components": [
            {
              "internalType": "string",
              "name": "didDocument",
              "type": "string"
            },
            {
              "internalType": "string",
              "name": "publicKey",
              "type": "string"
            },
            {
              "internalType": "uint128",
              "name": "stakedAmount",
              "type": "uint128"
            },
            {
              "internalType": "uint128",
              "name": "totalEarnings",
              "type": "uint128"
            },
            {
              "internalType": "uint64",
              "name": "reputation",
              "type": "uint64"
            },
            {
              "internalType": "uint64",
              "name": "registrationTime",
              "type": "uint64"
            },
            {
              "internalType": "uint64",
              "name": "lastActivity",
              "type": "uint64"
            },
            {
              "internalType": "uint32",
              "name": "totalServices",
              "type": "uint32"
            },
            {
              "internalType": "bool",
              "name": "isActive",
              "type": "bool"
            },
            {
              "internalType": "bool",
              "name": "isVerified",
              "type": "bool"
            }
          ],
          "internalType": "struct DIAPAgentNetwork.Agent",
          "name": "",
          "type": "tuple"
        }
      ],
      "stateMutability": "view",
      "type": "function"
    },
    {
      "inputs": [
        {
          "internalType": "address",
          "name": "agent",
          "type": "address"
        }
      ],
      "name": "getAgentIdentifierType",
      "outputs": [
        {
          "internalType": "enum DIAPAgentNetwork.IdentifierType",
          "name": "",
          "type": "uint8"
        }
      ],
      "stateMutability": "view",
      "type": "function"
    },
    {
      "inputs": [
        {
          "internalType": "bytes32",
          "name": "messageId",
          "type": "bytes32"
        }
      ],
      "name": "getMessage",
      "outputs": [
        {
          "components": [
            {
              "internalType": "address",
              "name": "fromAgent",
              "type": "address"
            },
            {
              "internalType": "address",
              "name": "toAgent",
              "type": "address"
            },
            {
              "internalType": "string",
              "name": "messageCID",
              "type": "string"
            },
            {
              "internalType": "uint256",
              "name": "timestamp",
              "type": "uint256"
            },
            {
              "internalType": "bool",
              "name": "isVerified",
              "type": "bool"
            },
            {
              "internalType": "uint256",
              "name": "fee",
              "type": "uint256"
            }
          ],
          "internalType": "struct DIAPAgentNetwork.Message",
          "name": "",
          "type": "tuple"
        }
      ],
      "stateMutability": "view",
      "type": "function"
    },
    {
      "inputs": [],
      "name": "getNetworkStats",
      "outputs": [
        {
          "internalType": "uint256",
          "name": "_totalAgents",
          "type": "uint256"
        },
        {
          "internalType": "uint256",
          "name": "_totalMessages",
          "type": "uint256"
        },
        {
          "internalType": "uint256",
          "name": "_totalServices",
          "type": "uint256"
        },
        {
          "internalType": "uint256",
          "name": "_totalVolume",
          "type": "uint256"
        },
        {
          "internalType": "uint256",
          "name": "_totalRewards",
          "type": "uint256"
        }
      ],
      "stateMutability": "view",
      "type": "function"
    },
    {
      "inputs": [
        {
          "internalType": "uint256",
          "name": "serviceId",
          "type": "uint256"
        }
      ],
      "name": "getService",
      "outputs": [
        {
          "components": [
            {
              "internalType": "address",
              "name": "provider",
              "type": "address"
            },
            {
              "internalType": "address",
              "name": "consumer",
              "type": "address"
            },
            {
              "internalType": "string",
              "name": "serviceType",
              "type": "string"
            },
            {
              "internalType": "uint256",
              "name": "price",
              "type": "uint256"
            },
            {
              "internalType": "uint256",
              "name": "timestamp",
              "type": "uint256"
            },
            {
              "internalType": "bool",
              "name": "isCompleted",
              "type": "bool"
            },
            {
              "internalType": "string",
              "name": "resultCID",
              "type": "string"
            }
          ],
          "internalType": "struct DIAPAgentNetwork.Service",
          "name": "",
          "type": "tuple"
        }
      ],
      "stateMutability": "view",
      "type": "function"
    },
    {
      "inputs": [
        {
          "internalType": "address",
          "name": "_token",
          "type": "address"
        }
      ],
      "name": "initialize",
      "outputs": [],
      "stateMutability": "nonpayable",
      "type": "function"
    },
    {
      "inputs": [],
      "name": "lastProcessedIndex",
      "outputs": [
        {
          "internalType": "uint256",
          "name": "",
          "type": "uint256"
        }
      ],
      "stateMutability": "view",
      "type": "function"
    },
    {
      "inputs": [],
      "name": "lastRewardTime",
      "outputs": [
        {
          "internalType": "uint256",
          "name": "",
          "type": "uint256"
        }
      ],
      "stateMutability": "view",
      "type": "function"
    },
    {
      "inputs": [],
      "name": "lockPeriod",
      "outputs": [
        {
          "internalType": "uint256",
          "name": "",
          "type": "uint256"
        }
      ],
      "stateMutability": "view",
      "type": "function"
    },
    {
      "inputs": [],
      "name": "messageFee",
      "outputs": [
        {
          "internalType": "uint256",
          "name": "",
          "type": "uint256"
        }
      ],
      "stateMutability": "view",
      "type": "function"
    },
    {
      "inputs": [
        {
          "internalType": "bytes32",
          "name": "",
          "type": "bytes32"
        }
      ],
      "name": "messages",
      "outputs": [
        {
          "internalType": "address",
          "name": "fromAgent",
          "type": "address"
        },
        {
          "internalType": "address",
          "name": "toAgent",
          "type": "address"
        },
        {
          "internalType": "string",
          "name": "messageCID",
          "type": "string"
        },
        {
          "internalType": "uint256",
          "name": "timestamp",
          "type": "uint256"
        },
        {
          "internalType": "bool",
          "name": "isVerified",
          "type": "bool"
        },
        {
          "internalType": "uint256",
          "name": "fee",
          "type": "uint256"
        }
      ],
      "stateMutability": "view",
      "type": "function"
    },
    {
      "inputs": [],
      "name": "minStakeAmount",
      "outputs": [
        {
          "internalType": "uint256",
          "name": "",
          "type": "uint256"
        }
      ],
      "stateMutability": "view",
      "type": "function"
    },
    {
      "inputs": [],
      "name": "owner",
      "outputs": [
        {
          "internalType": "address",
          "name": "",
          "type": "address"
        }
      ],
      "stateMutability": "view",
      "type": "function"
    },
    {
      "inputs": [],
      "name": "pause",
      "outputs": [],
      "stateMutability": "nonpayable",
      "type": "function"
    },
    {
      "inputs": [],
      "name": "paused",
      "outputs": [
        {
          "internalType": "bool",
          "name": "",
          "type": "bool"
        }
      ],
      "stateMutability": "view",
      "type": "function"
    },
    {
      "inputs": [],
      "name": "pendingRewards",
      "outputs": [
        {
          "internalType": "uint256",
          "name": "",
          "type": "uint256"
        }
      ],
      "stateMutability": "view",
      "type": "function"
    },
    {
      "inputs": [],
      "name": "processRewardBatch",
      "outputs": [
        {
          "internalType": "bool",
          "name": "",
          "type": "bool"
        }
      ],
      "stateMutability": "nonpayable",
      "type": "function"
    },
    {
      "inputs": [],
      "name": "proxiableUUID",
      "outputs": [
        {
          "internalType": "bytes32",
          "name": "",
          "type": "bytes32"
        }
      ],
      "stateMutability": "view",
      "type": "function"
    },
    {
      "inputs": [
        {
          "internalType": "string",
          "name": "didDocument",
          "type": "string"
        },
        {
          "internalType": "string",
          "name": "publicKey",
          "type": "string"
        },
        {
          "internalType": "uint256",
          "name": "stakedAmount",
          "type": "uint256"
        }
      ],
      "name": "registerAgent",
      "outputs": [],
      "stateMutability": "nonpayable",
      "type": "function"
    },
    {
      "inputs": [],
      "name": "registrationFee",
      "outputs": [
        {
          "internalType": "uint256",
          "name": "",
          "type": "uint256"
        }
      ],
      "stateMutability": "view",
      "type": "function"
    },
    {
      "inputs": [],
      "name": "renounceOwnership",
      "outputs": [],
      "stateMutability": "nonpayable",
      "type": "function"
    },
    {
      "inputs": [],
      "name": "reputationThreshold",
      "outputs": [
        {
          "internalType": "uint256",
          "name": "",
          "type": "uint256"
        }
      ],
      "stateMutability": "view",
      "type": "function"
    },
    {
      "inputs": [],
      "name": "rewardRate",
      "outputs": [
        {
          "internalType": "uint256",
          "name": "",
          "type": "uint256"
        }
      ],
      "stateMutability": "view",
      "type": "function"
    },
    {
      "inputs": [
        {
          "internalType": "address",
          "name": "toAgent",
          "type": "address"
        },
        {
          "internalType": "string",
          "name": "messageCID",
          "type": "string"
        }
      ],
      "name": "sendMessage",
      "outputs": [],
      "stateMutability": "nonpayable",
      "type": "function"
    },
    {
      "inputs": [],
      "name": "serviceFeeRate",
      "outputs": [
        {
          "internalType": "uint256",
          "name": "",
          "type": "uint256"
        }
      ],
      "stateMutability": "view",
      "type": "function"
    },
    {
      "inputs": [
        {
          "internalType": "uint256",
          "name": "",
          "type": "uint256"
        }
      ],
      "name": "serviceMetadataCID",
      "outputs": [
        {
          "internalType": "string",
          "name": "",
          "type": "string"
        }
      ],
      "stateMutability": "view",
      "type": "function"
    },
    {
      "inputs": [
        {
          "internalType": "uint256",
          "name": "",
          "type": "uint256"
        }
      ],
      "name": "services",
      "outputs": [
        {
          "internalType": "address",
          "name": "provider",
          "type": "address"
        },
        {
          "internalType": "address",
          "name": "consumer",
          "type": "address"
        },
        {
          "internalType": "string",
          "name": "serviceType",
          "type": "string"
        },
        {
          "internalType": "uint256",
          "name": "price",
          "type": "uint256"
        },
        {
          "internalType": "uint256",
          "name": "timestamp",
          "type": "uint256"
        },
        {
          "internalType": "bool",
          "name": "isCompleted",
          "type": "bool"
        },
        {
          "internalType": "string",
          "name": "resultCID",
          "type": "string"
        }
      ],
      "stateMutability": "view",
      "type": "function"
    },
    {
      "inputs": [
        {
          "internalType": "address",
          "name": "agent",
          "type": "address"
        },
        {
          "internalType": "string",
          "name": "metadataCID",
          "type": "string"
        }
      ],
      "name": "setAgentMetadataCID",
      "outputs": [],
      "stateMutability": "nonpayable",
      "type": "function"
    },
    {
      "inputs": [
        {
          "internalType": "uint256",
          "name": "_fee",
          "type": "uint256"
        }
      ],
      "name": "setMessageFee",
      "outputs": [],
      "stateMutability": "nonpayable",
      "type": "function"
    },
    {
      "inputs": [
        {
          "internalType": "uint256",
          "name": "_amount",
          "type": "uint256"
        }
      ],
      "name": "setMinStakeAmount",
      "outputs": [],
      "stateMutability": "nonpayable",
      "type": "function"
    },
    {
      "inputs": [
        {
          "internalType": "uint256",
          "name": "_fee",
          "type": "uint256"
        }
      ],
      "name": "setRegistrationFee",
      "outputs": [],
      "stateMutability": "nonpayable",
      "type": "function"
    },
    {
      "inputs": [
        {
          "internalType": "uint256",
          "name": "_rate",
          "type": "uint256"
        }
      ],
      "name": "setRewardRate",
      "outputs": [],
      "stateMutability": "nonpayable",
      "type": "function"
    },
    {
      "inputs": [
        {
          "internalType": "uint256",
          "name": "_rate",
          "type": "uint256"
        }
      ],
      "name": "setServiceFeeRate",
      "outputs": [],
      "stateMutability": "nonpayable",
      "type": "function"
    },
    {
      "inputs": [
        {
          "internalType": "uint256",
          "name": "serviceId",
          "type": "uint256"
        },
        {
          "internalType": "string",
          "name": "metadataCID",
          "type": "string"
        }
      ],
      "name": "setServiceMetadataCID",
      "outputs": [],
      "stateMutability": "nonpayable",
      "type": "function"
    },
    {
      "inputs": [
        {
          "internalType": "address",
          "name": "_treasury",
          "type": "address"
        }
      ],
      "name": "setTreasuryAddress",
      "outputs": [],
      "stateMutability": "nonpayable",
      "type": "function"
    },
    {
      "inputs": [
        {
          "internalType": "address",
          "name": "_verification",
          "type": "address"
        }
      ],
      "name": "setVerificationContract",
      "outputs": [],
      "stateMutability": "nonpayable",
      "type": "function"
    },
    {
      "inputs": [],
      "name": "token",
      "outputs": [
        {
          "internalType": "contract IERC20",
          "name": "",
          "type": "address"
        }
      ],
      "stateMutability": "view",
      "type": "function"
    },
    {
      "inputs": [],
      "name": "totalAgents",
      "outputs": [
        {
          "internalType": "uint256",
          "name": "",
          "type": "uint256"
        }
      ],
      "stateMutability": "view",
      "type": "function"
    },
    {
      "inputs": [],
      "name": "totalMessages",
      "outputs": [
        {
          "internalType": "uint256",
          "name": "",
          "type": "uint256"
        }
      ],
      "stateMutability": "view",
      "type": "function"
    },
    {
      "inputs": [],
      "name": "totalRewards",
      "outputs": [
        {
          "internalType": "uint256",
          "name": "",
          "type": "uint256"
        }
      ],
      "stateMutability": "view",
      "type": "function"
    },
    {
      "inputs": [],
      "name": "totalServices",
      "outputs": [
        {
          "internalType": "uint256",
          "name": "",
          "type": "uint256"
        }
      ],
      "stateMutability": "view",
      "type": "function"
    },
    {
      "inputs": [],
      "name": "totalStaked",
      "outputs": [
        {
          "internalType": "uint256",
          "name": "",
          "type": "uint256"
        }
      ],
      "stateMutability": "view",
      "type": "function"
    },
    {
      "inputs": [],
      "name": "totalVolume",
      "outputs": [
        {
          "internalType": "uint256",
          "name": "",
          "type": "uint256"
        }
      ],
      "stateMutability": "view",
      "type": "function"
    },
    {
      "inputs": [
        {
          "internalType": "address",
          "name": "newOwner",
          "type": "address"
        }
      ],
      "name": "transferOwnership",
      "outputs": [],
      "stateMutability": "nonpayable",
      "type": "function"
    },
    {
      "inputs": [],
      "name": "treasuryAddress",
      "outputs": [
        {
          "internalType": "address",
          "name": "",
          "type": "address"
        }
      ],
      "stateMutability": "view",
      "type": "function"
    },
    {
      "inputs": [],
      "name": "unpause",
      "outputs": [],
      "stateMutability": "nonpayable",
      "type": "function"
    },
    {
      "inputs": [],
      "name": "unstakeAgent",
      "outputs": [],
      "stateMutability": "nonpayable",
      "type": "function"
    },
    {
      "inputs": [
        {
          "internalType": "address",
          "name": "agent",
          "type": "address"
        },
        {
          "internalType": "int256",
          "name": "reputationChange",
          "type": "int256"
        }
      ],
      "name": "updateReputation",
      "outputs": [],
      "stateMutability": "nonpayable",
      "type": "function"
    },
    {
      "inputs": [
        {
          "internalType": "address",
          "name": "newImplementation",
          "type": "address"
        }
      ],
      "name": "upgradeTo",
      "outputs": [],
      "stateMutability": "nonpayable",
      "type": "function"
    },
    {
      "inputs": [
        {
          "internalType": "address",
          "name": "newImplementation",
          "type": "address"
        },
        {
          "internalType": "bytes",
          "name": "data",
          "type": "bytes"
        }
      ],
      "name": "upgradeToAndCall",
      "outputs": [],
      "stateMutability": "payable",
      "type": "function"
    },
    {
      "inputs": [],
      "name": "verification",
      "outputs": [
        {
          "internalType": "address",
          "name": "",
          "type": "address"
        }
      ],
      "stateMutability": "view",
      "type": "function"
    },
    {
      "inputs": [
        {
          "internalType": "address",
          "name": "agent",
          "type": "address"
        },
        {
          "internalType": "uint256[8]",
          "name": "proof",
          "type": "uint256[8]"
        }
      ],
      "name": "verifyAgent",
      "outputs": [],
      "stateMutability": "nonpayable",
      "type": "function"
    },
    {
      "inputs": [],
      "name": "withdrawFees",
      "outputs": [],
      "stateMutability": "nonpayable",
      "type": "function"
    },
    {
      "stateMutability": "payable",
      "type": "receive"
    }
  ],
  "bytecode": "0x60a060405230608052348015601357600080fd5b5060805161586561004b60003960008181610dac01528181610df501528181611087015281816110c7015261114301526158656000f3fe6080604052600436106102dc5760003560e01c80637069c649116101825780637069c649146106e2578063715018a6146106f75780637b0a47ee1461070c578063817b1cd2146107235780638456cb591461073a5780638da5cb5b1461074f5780638e7a15bc146107645780639231cf7414610784578063951166c01461079b5780639b1d3091146107b25780639e447fc6146107d2578063a74d344e146107f2578063c22c4f4314610820578063c320c72714610853578063c4d66de814610873578063c505371214610893578063c5f956af146108aa578063d410e8ba146108cb578063d420051d146108e2578063d88e1ab914610902578063da6b03bc14610917578063de6f24bb14610937578063deb7bba914610957578063eb4af04514610977578063eded3fda14610997578063ef0e239b146109ae578063f1887684146109db578063f2fde38b146109f2578063fb3551ff14610a12578063fb48d6be14610a3f578063fc0c546a14610a5f578063fd66091e14610a8057600080fd5b80630139a221146102e85780630e15561a1461031e57806314c44e091461034357806318aad3831461035a5780631a90a2191461038757806323aa2a9d1461039e5780632bbd59ca146103c05780632f80c54f146103f25780633009a6091461041f5780633659cfe6146104365780633f4ba83a146104565780633fd8b02f1461046b578063460ef44c14610482578063476343ee146104a257806349faa4d4146104b75780634a662f48146104cc5780634f1ef286146105155780634ffe2a8b1461052857806352d1902d14610549578063587f5ed71461055e5780635c975abb146105755780635f81a57c146105995780636076cf55146105b057806361d1bc94146105d05780636301ac8f146105e7578063631a57df146105fe5780636605bfda1461062b57806367ee313d1461064b5780636a08b5111461066b5780636f4a2cd01461068b578063702e827c146106a057600080fd5b366102e357005b600080fd5b3480156102f457600080fd5b506103086103033660046149b9565b610ab6565b6040516103159190614a22565b60405180910390f35b34801561032a57600080fd5b506103356101425481565b604051908152602001610315565b34801561034f57600080fd5b506103356101395481565b34801561036657600080fd5b5061037a6103753660046149b9565b610bfd565b6040516103159190614a8c565b34801561039357600080fd5b5061033561013a5481565b3480156103aa57600080fd5b506103be6103b93660046149b9565b610c98565b005b3480156103cc57600080fd5b506103e06103db3660046149b9565b610ca6565b60405161031596959493929190614a9f565b3480156103fe57600080fd5b5061041261040d3660046149b9565b610d77565b6040516103159190614ae9565b34801561042b57600080fd5b506103356101435481565b34801561044257600080fd5b506103be610451366004614b19565b610da2565b34801561046257600080fd5b506103be610e73565b34801561047757600080fd5b5061033561013e5481565b34801561048e57600080fd5b506103be61049d366004614b7c565b610e85565b3480156104ae57600080fd5b506103be610edc565b3480156104c357600080fd5b50610335603281565b3480156104d857600080fd5b506101355461013654610137546101385461014254604080519586526020860194909452928401919091526060830152608082015260a001610315565b6103be610523366004614c55565b61107d565b34801561053457600080fd5b5061012e54610412906001600160a01b031681565b34801561055557600080fd5b50610335611136565b34801561056a57600080fd5b506103356101475481565b34801561058157600080fd5b5060fb5460ff165b6040519015158152602001610315565b3480156105a557600080fd5b506103356101385481565b3480156105bc57600080fd5b506103be6105cb366004614cb6565b6111e4565b3480156105dc57600080fd5b5061033561013b5481565b3480156105f357600080fd5b506103356101375481565b34801561060a57600080fd5b5061061e610619366004614b19565b611601565b6040516103159190614d25565b34801561063757600080fd5b506103be610646366004614b19565b6116f6565b34801561065757600080fd5b506103be610666366004614b7c565b6117a2565b34801561067757600080fd5b506103be610686366004614d4d565b611dda565b34801561069757600080fd5b506103be611f4d565b3480156106ac57600080fd5b506104126106bb366004614d77565b8051602081830181018051610130825292820191909301209152546001600160a01b031681565b3480156106ee57600080fd5b5061058961209d565b34801561070357600080fd5b506103be6121e2565b34801561071857600080fd5b506103356101405481565b34801561072f57600080fd5b5061033561013f5481565b34801561074657600080fd5b506103be6121f4565b34801561075b57600080fd5b50610412612204565b34801561077057600080fd5b5061037a61077f366004614b19565b612213565b34801561079057600080fd5b506103356101415481565b3480156107a757600080fd5b506103356101365481565b3480156107be57600080fd5b506103be6107cd3660046149b9565b61222d565b3480156107de57600080fd5b506103be6107ed3660046149b9565b612281565b3480156107fe57600080fd5b5061033561080d366004614b19565b6101346020526000908152604090205481565b34801561082c57600080fd5b5061084061083b3660046149b9565b61228f565b6040516103159796959493929190614dbf565b34801561085f57600080fd5b506103be61086e3660046149b9565b6123f1565b34801561087f57600080fd5b506103be61088e366004614b19565b6123ff565b34801561089f57600080fd5b506103356101355481565b3480156108b657600080fd5b5061014854610412906001600160a01b031681565b3480156108d757600080fd5b5061033561013d5481565b3480156108ee57600080fd5b506103be6108fd366004614e1f565b6125e9565b34801561090e57600080fd5b506103be612881565b34801561092357600080fd5b506103be610932366004614e5b565b612b45565b34801561094357600080fd5b506103be610952366004614ed2565b61333e565b34801561096357600080fd5b506103be610972366004614ed2565b6137fe565b34801561098357600080fd5b506103be6109923660046149b9565b613890565b3480156109a357600080fd5b506103356101445481565b3480156109ba57600080fd5b506109ce6109c93660046149b9565b61389e565b6040516103159190614f0b565b3480156109e757600080fd5b5061033561013c5481565b3480156109fe57600080fd5b506103be610a0d366004614b19565b613a60565b348015610a1e57600080fd5b50610a32610a2d366004614b19565b613ad6565b6040516103159190614f90565b348015610a4b57600080fd5b506103be610a5a366004614b19565b613cff565b348015610a6b57600080fd5b5061012d54610412906001600160a01b031681565b348015610a8c57600080fd5b50610aa0610a9b366004614b19565b613d8e565b6040516103159a99989796959493929190615077565b610b036040518060c0016040528060006001600160a01b0316815260200160006001600160a01b031681526020016060815260200160008152602001600015158152602001600081525090565b60008281526101316020908152604091829020825160c08101845281546001600160a01b039081168252600183015416928101929092526002810180549293919291840191610b519061510a565b80601f0160208091040260200160405190810160405280929190818152602001828054610b7d9061510a565b8015610bca5780601f10610b9f57610100808354040283529160200191610bca565b820191906000526020600020905b815481529060010190602001808311610bad57829003601f168201915b505050918352505060038201546020820152600482015460ff161515604082015260059091015460609091015292915050565b6101466020526000908152604090208054610c179061510a565b80601f0160208091040260200160405190810160405280929190818152602001828054610c439061510a565b8015610c905780601f10610c6557610100808354040283529160200191610c90565b820191906000526020600020905b815481529060010190602001808311610c7357829003601f168201915b505050505081565b610ca0613f1b565b61013a55565b610131602052600090815260409020805460018201546002830180546001600160a01b03938416949290931692610cdc9061510a565b80601f0160208091040260200160405190810160405280929190818152602001828054610d089061510a565b8015610d555780601f10610d2a57610100808354040283529160200191610d55565b820191906000526020600020905b815481529060010190602001808311610d3857829003601f168201915b50505050600383015460048401546005909401549293909260ff909116915086565b6101338181548110610d8857600080fd5b6000918252602090912001546001600160a01b0316905081565b6001600160a01b037f0000000000000000000000000000000000000000000000000000000000000000163003610df35760405162461bcd60e51b8152600401610dea90615144565b60405180910390fd5b7f00000000000000000000000000000000000000000000000000000000000000006001600160a01b0316610e25613f7a565b6001600160a01b031614610e4b5760405162461bcd60e51b8152600401610dea9061517e565b610e5481613f96565b60408051600080825260208201909252610e7091839190613f9e565b50565b610e7b613f1b565b610e83614109565b565b610e8d613f1b565b60008381526101326020526040902060040154610ebc5760405162461bcd60e51b8152600401610dea906151b8565b600083815261014660205260409020610ed682848361523f565b50505050565b610ee4613f1b565b610eec614155565b610148546001600160a01b0316610f405760405162461bcd60e51b8152602060048201526018602482015277151c99585cdd5c9e481859191c995cdcc81b9bdd081cd95d60421b6044820152606401610dea565b60006101475411610f895760405162461bcd60e51b81526020600482015260136024820152724e6f206665657320746f20776974686472617760681b6044820152606401610dea565b6101478054600090915561012d546101485460405163a9059cbb60e01b81526001600160a01b039283169263a9059cbb92610fcb9291169085906004016152f8565b6020604051808303816000875af1158015610fea573d6000803e3d6000fd5b505050506040513d601f19601f8201168201806040525081019061100e9190615311565b61102a5760405162461bcd60e51b8152600401610dea90615333565b61014854604080518381524260208201526001600160a01b03909216917fdeb5099d7943aa2b4c1142e5d53d2f7636aa8f7bd130ec79816f151572bcdf45910160405180910390a250610e83600160c955565b6001600160a01b037f00000000000000000000000000000000000000000000000000000000000000001630036110c55760405162461bcd60e51b8152600401610dea90615144565b7f00000000000000000000000000000000000000000000000000000000000000006001600160a01b03166110f7613f7a565b6001600160a01b03161461111d5760405162461bcd60e51b8152600401610dea9061517e565b61112682613f96565b61113282826001613f9e565b5050565b6000306001600160a01b037f000000000000000000000000000000000000000000000000000000000000000016146111d15760405162461bcd60e51b815260206004820152603860248201527f555550535570677261646561626c653a206d757374206e6f742062652063616c6044820152771b1959081d1a1c9bdd59da0819195b1959d85d1958d85b1b60421b6064820152608401610dea565b506000805160206157c983398151915290565b33600090815261012f6020526040902060030154600160e81b900460ff1661121e5760405162461bcd60e51b8152600401610dea90615362565b611226614155565b61122e6141b5565b6001600160a01b03841661127f5760405162461bcd60e51b8152602060048201526018602482015277496e76616c696420636f6e73756d6572206164647265737360401b6044820152606401610dea565b336001600160a01b038516036112d75760405162461bcd60e51b815260206004820152601e60248201527f43616e6e6f7420637265617465207365727669636520666f722073656c6600006044820152606401610dea565b6001600160a01b038416600090815261012f6020526040902060030154600160e01b900460ff166113405760405162461bcd60e51b8152602060048201526013602482015272436f6e73756d6572206e6f742061637469766560681b6044820152606401610dea565b6001600160a01b038416600090815261012f6020526040902060030154600160e81b900460ff166113ab5760405162461bcd60e51b815260206004820152601560248201527410dbdb9cdd5b595c881b9bdd081d995c9a599a5959605a1b6044820152606401610dea565b600081116113eb5760405162461bcd60e51b815260206004820152600d60248201526c496e76616c696420707269636560981b6044820152606401610dea565b816114305760405162461bcd60e51b815260206004820152601560248201527414d95c9d9a58d9481d1e5c19481c995c5d5a5c9959605a1b6044820152606401610dea565b69d3c21bcecceda100000081111561147b5760405162461bcd60e51b815260206004820152600e60248201526d0a0e4d2c6ca40e8dede40d0d2ced60931b6044820152606401610dea565b60006101375490506040518060e00160405280336001600160a01b03168152602001866001600160a01b0316815260200185858080601f01602080910402602001604051908101604052809392919081815260200183838082843760009201829052509385525050506020808301869052426040808501919091526060840183905280518083018252838152608090940193909352848252610132815290829020835181546001600160a01b03199081166001600160a01b0392831617835592850151600183018054909416911617909155908201516002820190611560908261538e565b50606082015160038201556080820151600482015560a082015160058201805460ff191691151591909117905560c082015160068201906115a1908261538e565b50506101378054915060006115b58361545c565b9190505550807f06dec7c18c6d88222831a8e9c277ddd5ce160c41bc15314e7d93f6b45353d90f3387856040516115ee93929190615475565b60405180910390a250610ed6600160c955565b6001600160a01b038116600090815261012f6020526040812060030154600160e01b900460ff166116445760405162461bcd60e51b8152600401610dea90615499565b6001600160a01b038216600090815261012f6020526040902080546116f0919061166d9061510a565b80601f01602080910402602001604051908101604052809291908181526020018280546116999061510a565b80156116e65780601f106116bb576101008083540402835291602001916116e6565b820191906000526020600020905b8154815290600101906020018083116116c957829003601f168201915b50505050506141fb565b92915050565b6116fe613f1b565b6001600160a01b03811661174f5760405162461bcd60e51b8152602060048201526018602482015277496e76616c6964207472656173757279206164647265737360401b6044820152606401610dea565b61014880546001600160a01b038381166001600160a01b0319831681179093556040519116919082907f430359a6d97ced2b6f93c77a91e7ce9dfd43252eb91e916adba170485cd8a6a490600090a35050565b33600090815261012f6020526040902060030154600160e81b900460ff166117dc5760405162461bcd60e51b8152600401610dea90615362565b6117e4614155565b6117ec6141b5565b60008381526101326020526040902080546001600160a01b0316331461184b5760405162461bcd60e51b81526020600482015260146024820152732737ba1039b2b93b34b1b290383937bb34b232b960611b6044820152606401610dea565b600581015460ff161561189c5760405162461bcd60e51b815260206004820152601960248201527814d95c9d9a58d948185b1c9958591e4818dbdb5c1b195d1959603a1b6044820152606401610dea565b816118de5760405162461bcd60e51b8152602060048201526012602482015271125b9d985b1a59081c995cdd5b1d0810d25160721b6044820152606401610dea565b60008160040154116119025760405162461bcd60e51b8152600401610dea906151b8565b60048101546119149062278d006154c7565b4211156119555760405162461bcd60e51b815260206004820152600f60248201526e14d95c9d9a58d948195e1c1a5c9959608a1b6044820152606401610dea565b60058101805460ff191660011790556006810161197383858361523f565b50600061271061013b5461271061198a91906154da565b836003015461199991906154ed565b6119a39190615504565b61012d546040516370a0823160e01b815291925082916001600160a01b03909116906370a08231906119d9903090600401614ae9565b602060405180830381865afa1580156119f6573d6000803e3d6000fd5b505050506040513d601f19601f82011682018060405250810190611a1a9190615526565b10611ab65761012d5460405163a9059cbb60e01b81526001600160a01b039091169063a9059cbb90611a5290339085906004016152f8565b6020604051808303816000875af1158015611a71573d6000803e3d6000fd5b505050506040513d601f19601f82011682018060405250810190611a959190615311565b611ab15760405162461bcd60e51b8152600401610dea90615333565b611b10565b60405162461bcd60e51b815260206004820152602960248201527f496e73756666696369656e7420636f6e74726163742062616c616e636520666f60448201526872207265776172647360b81b6064820152608401610dea565b33600090815261012f60205260409020600381015460028201546001600160401b03909116906001600160801b0390611b53908590600160801b900483166154c7565b1115611b9b5760405162461bcd60e51b8152602060048201526017602482015276546f74616c206561726e696e6773206f766572666c6f7760481b6044820152606401610dea565b600382015463ffffffff600160c01b909104811610611bf65760405162461bcd60e51b8152602060048201526017602482015276546f74616c207365727669636573206f766572666c6f7760481b6044820152606401610dea565b60038201546001600160401b0390611c11908216600a61553f565b6001600160401b03161115611c5e5760405162461bcd60e51b815260206004820152601360248201527252657075746174696f6e206f766572666c6f7760681b6044820152606401610dea565b828260020160108282829054906101000a90046001600160801b0316611c84919061555e565b92506101000a8154816001600160801b0302191690836001600160801b0316021790555081600301601881819054906101000a900463ffffffff1680929190611ccc9061557d565b91906101000a81548163ffffffff021916908363ffffffff16021790555050600a8260030160008282829054906101000a90046001600160401b0316611d12919061553f565b92506101000a8154816001600160401b0302191690836001600160401b0316021790555083600301546101386000828254611d4d91906154c7565b92505081905550867f58e249b9328bc8509283e8d24898ab201b6fd08cd489de5995fff808670b897c878786604051611d88939291906155a2565b60405180910390a26003820154604080518381526001600160401b03909216602083015233916000805160206157e9833981519152910160405180910390a250505050611dd5600160c955565b505050565b611de2613f1b565b6001600160a01b038216600090815261012f60205260409020600301546001600160401b0316612710811115611e555760405162461bcd60e51b8152602060048201526018602482015277496e76616c69642072657075746174696f6e2073636f726560401b6044820152606401610dea565b6001600160a01b038316600090815261012f60205260408120600301546001600160401b03169080841315611ebd57611e8e84836154c7565b9050612710811115611e9f57506127105b6001600160401b03811115611eb857506001600160401b035b611ee9565b6000611ec8856155db565b9050828110611eda5760009150611ee7565b611ee481846154da565b91505b505b6001600160a01b038516600081815261012f602090815260409182902060030180546001600160401b0319166001600160401b03861617905581518581529081018490526000805160206157e9833981519152910160405180910390a25050505050565b611f55613f1b565b60006101415442611f6691906154da565b90506000611f7461013f5490565b9050600081118015611f865750600082115b1561113257600064496cebb800836101405484611fa391906154ed565b611fad91906154ed565b611fb79190615504565b90506000811180156120435750611fce82826154c7565b61012d546040516370a0823160e01b81526001600160a01b03909116906370a0823190611fff903090600401614ae9565b602060405180830381865afa15801561201c573d6000803e3d6000fd5b505050506040513d601f19601f820116820180604052508101906120409190615526565b10155b15611dd55761205181614378565b80610142600082825461206491906154c7565b909155505042610141819055604080518381526020810192909252600080516020615789833981519152910160405180910390a1505050565b60006120a7613f1b565b6101445415806120b8575061013f54155b156120c35750600190565b6101435460006120d46032836154c7565b610133549091508111156120e85750610133545b6000825b828110156121b1576000610133828154811061210a5761210a6155f7565b60009182526020808320909101546001600160a01b031680835261012f909152604090912060038101549192509060ff600160e01b90910416801561215b575060028101546001600160801b031615155b156121a75761013f5460028201546101445460009291612186916001600160801b03909116906154ed565b6121909190615504565b905080156121a5576121a281866154c7565b94505b505b50506001016120ec565b506101438290556101335482106121d8575050600061014481905561014355506001905090565b6000935050505090565b6121ea613f1b565b610e8360006143c7565b6121fc613f1b565b610e83614419565b6097546001600160a01b031690565b6101456020526000908152604090208054610c179061510a565b612235613f1b565b6103e881111561227b5760405162461bcd60e51b815260206004820152601160248201527008ccaca40e4c2e8ca40e8dede40d0d2ced607b1b6044820152606401610dea565b61013b55565b612289613f1b565b61014055565b610132602052600090815260409020805460018201546002830180546001600160a01b039384169492909316926122c59061510a565b80601f01602080910402602001604051908101604052809291908181526020018280546122f19061510a565b801561233e5780601f106123135761010080835404028352916020019161233e565b820191906000526020600020905b81548152906001019060200180831161232157829003601f168201915b5050506003840154600485015460058601546006870180549697939692955060ff90911693509061236e9061510a565b80601f016020809104026020016040519081016040528092919081815260200182805461239a9061510a565b80156123e75780601f106123bc576101008083540402835291602001916123e7565b820191906000526020600020905b8154815290600101906020018083116123ca57829003601f168201915b5050505050905087565b6123f9613f1b565b61013955565b600054610100900460ff161580801561241f5750600054600160ff909116105b80612440575061242e30614456565b158015612440575060005460ff166001145b6124a35760405162461bcd60e51b815260206004820152602e60248201527f496e697469616c697a61626c653a20636f6e747261637420697320616c72656160448201526d191e481a5b9a5d1a585b1a5e995960921b6064820152608401610dea565b6000805460ff1916600117905580156124c6576000805461ff0019166101001790555b6001600160a01b0382166125145760405162461bcd60e51b8152602060048201526015602482015274496e76616c696420746f6b656e206164647265737360581b6044820152606401610dea565b61251c614465565b612524614494565b61252c6144bb565b6125346144ea565b61012d80546001600160a01b0319166001600160a01b03841617905568056bc75e2d6310000061013955670de0b6b3a764000061013a5561012c61013b55683635c9adc5dea0000061013c556103e861013d5562278d0061013e556005610140554261014155600061013f558015611132576000805461ff0019169055604051600181527f7f26b83ff96e1f2b6a682f133852f6798a09c465da95921460cefb38474024989060200160405180910390a15050565b6125f1613f1b565b6001600160a01b038216600090815261012f6020526040902060030154600160e01b900460ff166126345760405162461bcd60e51b8152600401610dea90615499565b6001600160a01b038216600090815261012f6020526040902060030154600160e81b900460ff16156126a15760405162461bcd60e51b81526020600482015260166024820152751059d95b9d08185b1c9958591e481d995c9a599a595960521b6044820152606401610dea565b61012e546001600160a01b03166126fa5760405162461bcd60e51b815260206004820152601d60248201527f566572696669636174696f6e20636f6e7472616374206e6f74207365740000006044820152606401610dea565b60006127068383614519565b9050806127495760405162461bcd60e51b815260206004820152601160248201527024b73b30b634b2102d25a810383937b7b360791b6044820152606401610dea565b6001600160a01b038316600090815261012f60205260408120600301805460ff60e81b198116600160e81b1782556103e892906127909084906001600160401b031661553f565b92506101000a8154816001600160401b0302191690836001600160401b03160217905550826001600160a01b03167fb0c56617ec919721f803618b5f53891e275c7aaddbdf3c17c45f3252854fa70b60016040516127f2911515815260200190565b60405180910390a26001600160a01b038316600081815261012f60205260409020600301546000805160206157e98339815191529061283d906103e8906001600160401b031661560d565b6001600160a01b038616600090815261012f60209081526040918290206003015482516001600160401b0394851681529316908301520160405180910390a2505050565b612889614155565b33600090815261012f602052604090206003810154600160e01b900460ff166128c45760405162461bcd60e51b8152600401610dea90615499565b61013e5460038201546128e79190600160401b90046001600160401b03166154c7565b42101561292e5760405162461bcd60e51b8152602060048201526015602482015274131bd8dac81c195c9a5bd9081b9bdd08195b991959605a1b6044820152606401610dea565b600281015460038201805460ff60e01b191690553360009081526101346020526040812054610133546001600160801b0390931692909190612972906001906154da565b90508082146129fd5760006101338281548110612991576129916155f7565b60009182526020909120015461013380546001600160a01b0390921692508291859081106129c1576129c16155f7565b600091825260208083209190910180546001600160a01b0319166001600160a01b03948516179055929091168152610134909152604090208290555b610133805480612a0f57612a0f61562c565b60008281526020808220830160001990810180546001600160a01b0319169055909201909255338252610134905260408120819055610135805491612a5383615642565b91905055508261013f6000828254612a6b91906154da565b909155505061012d5460405163a9059cbb60e01b81526001600160a01b039091169063a9059cbb90612aa390339087906004016152f8565b6020604051808303816000875af1158015612ac2573d6000803e3d6000fd5b505050506040513d601f19601f82011682018060405250810190612ae69190615311565b612b025760405162461bcd60e51b8152600401610dea90615333565b60405183815233907f366aad71786c86a25c8e70832e1308e87662a4861edda4ae85ad947d858b9d119060200160405180910390a250505050610e83600160c955565b612b4d614155565b612b556141b5565b33600090815261012f6020526040902060030154600160e01b900460ff1615612bbb5760405162461bcd60e51b81526020600482015260186024820152771059d95b9d08185b1c9958591e481c9959da5cdd195c995960421b6044820152606401610dea565b61013c54811015612c0a5760405162461bcd60e51b8152602060048201526019602482015278125b9cdd59999a58da595b9d081cdd185ad948185b5bdd5b9d603a1b6044820152606401610dea565b6001600160801b03811115612c5a5760405162461bcd60e51b81526020600482015260166024820152755374616b6520616d6f756e7420746f6f206c6172676560501b6044820152606401610dea565b83612c9e5760405162461bcd60e51b8152602060048201526014602482015273125b9d985b1a590811125108191bd8dd5b595b9d60621b6044820152606401610dea565b612cdd85858080601f01602080910402602001604051908101604052809392919081815260200183838082843760009201919091525061452792505050565b612d255760405162461bcd60e51b8152602060048201526019602482015278125b9d985b1a59081a59195b9d1a599a595c88199bdc9b585d603a1b6044820152606401610dea565b6000612d6686868080601f0160208091040260200160405190810160405280939291908181526020018383808284376000920191909152506141fb92505050565b90506002816002811115612d7c57612d7c614d0f565b1480612d9957506001816002811115612d9757612d97614d0f565b145b612df85760405162461bcd60e51b815260206004820152602a60248201527f4d757374207573652049504e53206e616d65202870726566657272656429206f6044820152691c8812541194c810d25160b21b6064820152608401610dea565b60006001600160a01b03166101308787604051612e16929190615659565b908152604051908190036020019020546001600160a01b031614612e715760405162461bcd60e51b815260206004820152601260248201527144494420616c72656164792065786973747360701b6044820152606401610dea565b60006101395483612e8291906154c7565b61012d546040516370a0823160e01b815291925082916001600160a01b03909116906370a0823190612eb8903390600401614ae9565b602060405180830381865afa158015612ed5573d6000803e3d6000fd5b505050506040513d601f19601f82011682018060405250810190612ef99190615526565b1015612f175760405162461bcd60e51b8152600401610dea90615669565b61012d54604051636eb1769f60e11b815282916001600160a01b03169063dd62ed3e90612f4a903390309060040161569d565b602060405180830381865afa158015612f67573d6000803e3d6000fd5b505050506040513d601f19601f82011682018060405250810190612f8b9190615526565b1015612fa95760405162461bcd60e51b8152600401610dea906156b7565b61012d546040516323b872dd60e01b81526001600160a01b03909116906323b872dd90612fde90339030908690600401615475565b6020604051808303816000875af1158015612ffd573d6000803e3d6000fd5b505050506040513d601f19601f820116820180604052508101906130219190615311565b61303d5760405162461bcd60e51b8152600401610dea90615333565b61013954610147600082825461305391906154c7565b9091555050604080516101606020601f8a018190040282018101909252610140810188815290918291908a908a9081908501838280828437600092019190915250505090825250604080516020601f89018190048102820181019092528781529181019190889088908190840183828082843760009201829052509385525050506001600160801b03861660208084019190915260408084018390526103e86060850152426001600160401b03166080850181905260a085015260c08401839052600160e085015261010090930182905233825261012f9052208151819061313b908261538e565b5060208201516001820190613150908261538e565b5060408281015160608401516001600160801b03918216600160801b92909116820217600284015560808401516003909301805460a086015160c087015160e0880151610100890151610120909901516001600160401b039889166001600160801b031990951694909417600160401b9389169390930292909217600160801b600160e01b031916961690930263ffffffff60c01b191694909417600160c01b63ffffffff909316929092029190911761ffff60e01b1916600160e01b9415159490940260ff60e81b191693909317600160e81b921515929092029190911790915551339061013090613246908a908a90615659565b9081526040805191829003602090810190922080546001600160a01b03949094166001600160a01b031994851617905561013380543360008181526101349095529284208190556001810182559083527f92e985329fb94cc1b424ebb0f7f2929b6d27383ca94c0ec71c44fb48bdf96d2c018054909316179091556101358054916132d08361545c565b91905055508261013f60008282546132e891906154c7565b909155505060405133907f023c5efe572c42192271951adb0e77f97d7fc84bc761d026189ac0861734682490613323908a908a9088906155a2565b60405180910390a25050613337600160c955565b5050505050565b33600090815261012f6020526040902060030154600160e01b900460ff166133785760405162461bcd60e51b8152600401610dea90615499565b613380614155565b6001600160a01b038316600090815261012f6020526040902060030154600160e01b900460ff166133ed5760405162461bcd60e51b8152602060048201526017602482015276546172676574206167656e74206e6f742061637469766560481b6044820152606401610dea565b806134305760405162461bcd60e51b8152602060048201526013602482015272125b9d985b1a59081b595cdcd859d94810d251606a1b6044820152606401610dea565b61013a5461012d546040516370a0823160e01b81526001600160a01b03909116906370a0823190613465903390600401614ae9565b602060405180830381865afa158015613482573d6000803e3d6000fd5b505050506040513d601f19601f820116820180604052508101906134a69190615526565b10156134c45760405162461bcd60e51b8152600401610dea90615669565b61013a5461012d54604051636eb1769f60e11b81526001600160a01b039091169063dd62ed3e906134fb903390309060040161569d565b602060405180830381865afa158015613518573d6000803e3d6000fd5b505050506040513d601f19601f8201168201806040525081019061353c9190615526565b101561355a5760405162461bcd60e51b8152600401610dea906156b7565b61012d5461013a546040516323b872dd60e01b81526001600160a01b03909216916323b872dd916135919133913091600401615475565b6020604051808303816000875af11580156135b0573d6000803e3d6000fd5b505050506040513d601f19601f820116820180604052508101906135d49190615311565b6135f05760405162461bcd60e51b8152600401610dea90615333565b61013a54610147600082825461360691906154c7565b909155505060405160009061362790339086908690869042906020016156ed565b60408051601f19818403018152828252805160209182012060c0840183523384526001600160a01b038816848301528251601f87018390048302810183018452868152909450918301919086908690819084018382808284376000920182905250938552505042602080850191909152604080850184905261013a54606090950194909452858352610131815291839020845181546001600160a01b03199081166001600160a01b0392831617835593860151600183018054909516911617909255509082015160028201906136fd908261538e565b5060608201516003820155608082015160048201805460ff191691151591909117905560a090910151600590910155610136805490600061373d8361545c565b919050555061013a54610138600082825461375891906154c7565b909155505033600081815261012f6020526040808220600390810180546001600160401b034216600160801b02600160801b600160c01b031991821681179092556001600160a01b038a1685529383902090910180549093161790915561013a54905183927f3c20d4e8f42599eddf3cdb1184580d4ad4d4a3063dbd500a519f8fcf11ea2414926137eb92899190615475565b60405180910390a250611dd5600160c955565b613806613f1b565b6001600160a01b038316600090815261012f6020526040902060030154600160e01b900460ff1661386c5760405162461bcd60e51b815260206004820152601060248201526f4167656e74206e6f742061637469766560801b6044820152606401610dea565b6001600160a01b038316600090815261014560205260409020610ed682848361523f565b613898613f1b565b61013c55565b6040805160e080820183526000808352602080840182905260608486018190528085018390526080850183905260a0850183905260c08501528582526101328152908490208451928301855280546001600160a01b0390811684526001820154169183019190915260028101805493949293919284019161391e9061510a565b80601f016020809104026020016040519081016040528092919081815260200182805461394a9061510a565b80156139975780601f1061396c57610100808354040283529160200191613997565b820191906000526020600020905b81548152906001019060200180831161397a57829003601f168201915b50505091835250506003820154602082015260048201546040820152600582015460ff16151560608201526006820180546080909201916139d79061510a565b80601f0160208091040260200160405190810160405280929190818152602001828054613a039061510a565b8015613a505780601f10613a2557610100808354040283529160200191613a50565b820191906000526020600020905b815481529060010190602001808311613a3357829003601f168201915b5050505050815250509050919050565b613a68613f1b565b6001600160a01b038116613acd5760405162461bcd60e51b815260206004820152602660248201527f4f776e61626c653a206e6577206f776e657220697320746865207a65726f206160448201526564647265737360d01b6064820152608401610dea565b610e70816143c7565b6040805161014081018252606080825260208201819052600092820183905281018290526080810182905260a0810182905260c0810182905260e0810182905261010081018290526101208101919091526001600160a01b038216600090815261012f60205260409081902081516101408101909252805482908290613b5b9061510a565b80601f0160208091040260200160405190810160405280929190818152602001828054613b879061510a565b8015613bd45780601f10613ba957610100808354040283529160200191613bd4565b820191906000526020600020905b815481529060010190602001808311613bb757829003601f168201915b50505050508152602001600182018054613bed9061510a565b80601f0160208091040260200160405190810160405280929190818152602001828054613c199061510a565b8015613c665780601f10613c3b57610100808354040283529160200191613c66565b820191906000526020600020905b815481529060010190602001808311613c4957829003601f168201915b505050918352505060028201546001600160801b038082166020840152600160801b918290041660408301526003909201546001600160401b038082166060840152600160401b82048116608084015292810490921660a082015263ffffffff600160c01b83041660c082015260ff600160e01b83048116151560e0830152600160e81b90920490911615156101009091015292915050565b613d07613f1b565b6001600160a01b038116613d6b5760405162461bcd60e51b815260206004820152602560248201527f496e76616c696420766572696669636174696f6e20636f6e7472616374206164604482015264647265737360d81b6064820152608401610dea565b61012e80546001600160a01b0319166001600160a01b0392909216919091179055565b61012f60205260009081526040902080548190613daa9061510a565b80601f0160208091040260200160405190810160405280929190818152602001828054613dd69061510a565b8015613e235780601f10613df857610100808354040283529160200191613e23565b820191906000526020600020905b815481529060010190602001808311613e0657829003601f168201915b505050505090806001018054613e389061510a565b80601f0160208091040260200160405190810160405280929190818152602001828054613e649061510a565b8015613eb15780601f10613e8657610100808354040283529160200191613eb1565b820191906000526020600020905b815481529060010190602001808311613e9457829003601f168201915b505050600284015460039094015492936001600160801b0380821694600160801b9283900490911693506001600160401b038082169350600160401b82048116928204169063ffffffff600160c01b8204169060ff600160e01b8204811691600160e81b9004168a565b33613f24612204565b6001600160a01b031614610e835760405162461bcd60e51b815260206004820181905260248201527f4f776e61626c653a2063616c6c6572206973206e6f7420746865206f776e65726044820152606401610dea565b6000805160206157c9833981519152546001600160a01b031690565b610e70613f1b565b7f4910fdfa16fed3260ed0e7147f7cc6da11a60208b5b9406d12a635614ffd91435460ff1615613fd157611dd5836146a6565b826001600160a01b03166352d1902d6040518163ffffffff1660e01b8152600401602060405180830381865afa92505050801561402b575060408051601f3d908101601f1916820190925261402891810190615526565b60015b61408e5760405162461bcd60e51b815260206004820152602e60248201527f45524331393637557067726164653a206e657720696d706c656d656e7461746960448201526d6f6e206973206e6f74205555505360901b6064820152608401610dea565b6000805160206157c983398151915281146140fd5760405162461bcd60e51b815260206004820152602960248201527f45524331393637557067726164653a20756e737570706f727465642070726f786044820152681a58589b195555525160ba1b6064820152608401610dea565b50611dd5838383614740565b614111614765565b60fb805460ff191690557f5db9ee0a495bf2e6ff9c91a7834c1ba4fdd244a5e8aa4e537bd38aeae4b073aa335b60405161414b9190614ae9565b60405180910390a1565b600260c954036141a75760405162461bcd60e51b815260206004820152601f60248201527f5265656e7472616e637947756172643a207265656e7472616e742063616c6c006044820152606401610dea565b600260c955565b600160c955565b60fb5460ff1615610e835760405162461bcd60e51b815260206004820152601060248201526f14185d5cd8589b194e881c185d5cd95960821b6044820152606401610dea565b805160009082906002811015614215575060009392505050565b81600081518110614228576142286155f7565b6020910101516001600160f81b031916606b60f81b14801561424b575060328110155b8015614258575060418111155b15614267575060029392505050565b8160008151811061427a5761427a6155f7565b6020910101516001600160f81b031916605160f81b1480156142c15750816001815181106142aa576142aa6155f7565b6020910101516001600160f81b031916606d60f81b145b8061435f5750600481101580156142fd5750816000815181106142e6576142e66155f7565b6020910101516001600160f81b031916603160f91b145b801561432e575081600181518110614317576143176155f7565b6020910101516001600160f81b031916606160f81b145b801561435f575081600281518110614348576143486155f7565b6020910101516001600160f81b031916603360f91b145b1561436e575060019392505050565b5060009392505050565b61013f546000036143865750565b80610144600082825461439991906154c7565b909155505060408051828152426020820152600080516020615789833981519152910160405180910390a150565b609780546001600160a01b038381166001600160a01b0319831681179093556040519116919082907f8be0079c531659141344cd1fd0a4f28419497f9722a3daafe3b4186f6b6457e090600090a35050565b6144216141b5565b60fb805460ff191660011790557f62e78cea01bee320cd4e420270b5ea74000d11b0c9f74754ebdbfc544b05a25861413e3390565b6001600160a01b03163b151590565b600054610100900460ff1661448c5760405162461bcd60e51b8152600401610dea90615721565b610e836147ae565b600054610100900460ff16610e835760405162461bcd60e51b8152600401610dea90615721565b600054610100900460ff166144e25760405162461bcd60e51b8152600401610dea90615721565b610e836147de565b600054610100900460ff166145115760405162461bcd60e51b8152600401610dea90615721565b610e83614805565b6000813515155b9392505050565b80516000908290600a81108061453d5750606481115b1561454c575060009392505050565b6002811061436e5781600081518110614567576145676155f7565b6020910101516001600160f81b031916605160f81b1480156145ae575081600181518110614597576145976155f7565b6020910101516001600160f81b031916606d60f81b145b156145bd575060019392505050565b600481101580156145f35750816000815181106145dc576145dc6155f7565b6020910101516001600160f81b031916603160f91b145b801561462457508160018151811061460d5761460d6155f7565b6020910101516001600160f81b031916606160f81b145b801561465557508160028151811061463e5761463e6155f7565b6020910101516001600160f81b031916603360f91b145b15614664575060019392505050565b81600081518110614677576146776155f7565b6020910101516001600160f81b031916606b60f81b14801561435f57506032811061436e575060019392505050565b6146af81614456565b6147115760405162461bcd60e51b815260206004820152602d60248201527f455243313936373a206e657720696d706c656d656e746174696f6e206973206e60448201526c1bdd08184818dbdb9d1c9858dd609a1b6064820152608401610dea565b6000805160206157c983398151915280546001600160a01b0319166001600160a01b0392909216919091179055565b61474983614838565b6000825111806147565750805b15611dd557610ed68383614878565b60fb5460ff16610e835760405162461bcd60e51b815260206004820152601460248201527314185d5cd8589b194e881b9bdd081c185d5cd95960621b6044820152606401610dea565b600054610100900460ff166147d55760405162461bcd60e51b8152600401610dea90615721565b610e83336143c7565b600054610100900460ff166141ae5760405162461bcd60e51b8152600401610dea90615721565b600054610100900460ff1661482c5760405162461bcd60e51b8152600401610dea90615721565b60fb805460ff19169055565b614841816146a6565b6040516001600160a01b038216907fbc7cd75a20ee27fd9adebab32041f755214dbc6bffa90cc0225b39da2e5c2d3b90600090a250565b60606145208383604051806060016040528060278152602001615809602791396060600080856001600160a01b0316856040516148b5919061576c565b600060405180830381855af49150503d80600081146148f0576040519150601f19603f3d011682016040523d82523d6000602084013e6148f5565b606091505b509150915061490686838387614910565b9695505050505050565b6060831561497d5782516000036149765761492a85614456565b6149765760405162461bcd60e51b815260206004820152601d60248201527f416464726573733a2063616c6c20746f206e6f6e2d636f6e74726163740000006044820152606401610dea565b5081614987565b614987838361498f565b949350505050565b81511561499f5781518083602001fd5b8060405162461bcd60e51b8152600401610dea9190614a8c565b6000602082840312156149cb57600080fd5b5035919050565b60005b838110156149ed5781810151838201526020016149d5565b50506000910152565b60008151808452614a0e8160208601602086016149d2565b601f01601f19169290920160200192915050565b602080825282516001600160a01b0390811683830152908301511660408083019190915282015160c06060830152600090614a6060e08401826149f6565b9050606084015160808401526080840151151560a084015260a084015160c08401528091505092915050565b60208152600061452060208301846149f6565b6001600160a01b0387811682528616602082015260c060408201819052600090614acb908301876149f6565b606083019590955250911515608083015260a0909101529392505050565b6001600160a01b0391909116815260200190565b80356001600160a01b0381168114614b1457600080fd5b919050565b600060208284031215614b2b57600080fd5b61452082614afd565b60008083601f840112614b4657600080fd5b5081356001600160401b03811115614b5d57600080fd5b602083019150836020828501011115614b7557600080fd5b9250929050565b600080600060408486031215614b9157600080fd5b8335925060208401356001600160401b03811115614bae57600080fd5b614bba86828701614b34565b9497909650939450505050565b634e487b7160e01b600052604160045260246000fd5b6000806001600160401b03841115614bf757614bf7614bc7565b50604051601f19601f85018116603f011681018181106001600160401b0382111715614c2557614c25614bc7565b604052838152905080828401851015614c3d57600080fd5b83836020830137600060208583010152509392505050565b60008060408385031215614c6857600080fd5b614c7183614afd565b915060208301356001600160401b03811115614c8c57600080fd5b8301601f81018513614c9d57600080fd5b614cac85823560208401614bdd565b9150509250929050565b60008060008060608587031215614ccc57600080fd5b614cd585614afd565b935060208501356001600160401b03811115614cf057600080fd5b614cfc87828801614b34565b9598909750949560400135949350505050565b634e487b7160e01b600052602160045260246000fd5b6020810160038310614d4757634e487b7160e01b600052602160045260246000fd5b91905290565b60008060408385031215614d6057600080fd5b614d6983614afd565b946020939093013593505050565b600060208284031215614d8957600080fd5b81356001600160401b03811115614d9f57600080fd5b8201601f81018413614db057600080fd5b61498784823560208401614bdd565b6001600160a01b0388811682528716602082015260e060408201819052600090614deb908301886149f6565b86606084015285608084015284151560a084015282810360c0840152614e1181856149f6565b9a9950505050505050505050565b6000806101208385031215614e3357600080fd5b614e3c83614afd565b91508361012084011115614e4f57600080fd5b50926020919091019150565b600080600080600060608688031215614e7357600080fd5b85356001600160401b03811115614e8957600080fd5b614e9588828901614b34565b90965094505060208601356001600160401b03811115614eb457600080fd5b614ec088828901614b34565b96999598509660400135949350505050565b600080600060408486031215614ee757600080fd5b614ef084614afd565b925060208401356001600160401b03811115614bae57600080fd5b602080825282516001600160a01b0390811683830152908301511660408083019190915282015160e06060830152600090614f4a6101008401826149f6565b905060608401516080840152608084015160a084015260a0840151151560c084015260c0840151601f198483030160e0850152614f8782826149f6565b95945050505050565b60208152600082516101406020840152614fae6101608401826149f6565b90506020840151601f19848303016040850152614fcb82826149f6565b9150506040840151614fe860608501826001600160801b03169052565b5060608401516001600160801b03811660808501525060808401516001600160401b03811660a08501525060a08401516001600160401b03811660c08501525060c08401516001600160401b03811660e08501525060e084015163ffffffff81166101008501525061010084015180151561012085015250610120840151801515610140850152509392505050565b6101408152600061508c61014083018d6149f6565b828103602084015261509e818d6149f6565b6001600160801b038c811660408601528b1660608501526001600160401b038a8116608086015289811660a0860152881660c085015263ffffffff871660e085015285151561010085015291506150f29050565b8215156101208301529b9a5050505050505050505050565b600181811c9082168061511e57607f821691505b60208210810361513e57634e487b7160e01b600052602260045260246000fd5b50919050565b6020808252602c908201526000805160206157a983398151915260408201526b19195b1959d85d1958d85b1b60a21b606082015260800190565b6020808252602c908201526000805160206157a983398151915260408201526b6163746976652070726f787960a01b606082015260800190565b60208082526011908201527014d95c9d9a58d9481b9bdd08199bdd5b99607a1b604082015260600190565b601f821115611dd557806000526020600020601f840160051c8101602085101561520a5750805b601f840160051c820191505b818110156133375760008155600101615216565b600019600383901b1c191660019190911b1790565b6001600160401b0383111561525657615256614bc7565b61526a83615264835461510a565b836151e3565b6000601f84116001811461529857600085156152865750838201355b615290868261522a565b845550613337565b600083815260209020601f19861690835b828110156152c957868501358255602094850194600190920191016152a9565b50868210156152e65760001960f88860031b161c19848701351681555b505060018560011b0183555050505050565b6001600160a01b03929092168252602082015260400190565b60006020828403121561532357600080fd5b8151801515811461452057600080fd5b602080825260159082015274151bdad95b881d1c985b9cd9995c8819985a5b1959605a1b604082015260600190565b6020808252601290820152711059d95b9d081b9bdd081d995c9a599a595960721b604082015260600190565b81516001600160401b038111156153a7576153a7614bc7565b6153bb816153b5845461510a565b846151e3565b6020601f8211600181146153e957600083156153d75750848201515b6153e1848261522a565b855550613337565b600084815260208120601f198516915b8281101561541957878501518255602094850194600190920191016153f9565b50848210156154375786840151600019600387901b60f8161c191681555b50505050600190811b01905550565b634e487b7160e01b600052601160045260246000fd5b60006001820161546e5761546e615446565b5060010190565b6001600160a01b039384168152919092166020820152604081019190915260600190565b6020808252601490820152731059d95b9d081b9bdd081c9959da5cdd195c995960621b604082015260600190565b808201808211156116f0576116f0615446565b818103818111156116f0576116f0615446565b80820281158282048414176116f0576116f0615446565b60008261552157634e487b7160e01b600052601260045260246000fd5b500490565b60006020828403121561553857600080fd5b5051919050565b6001600160401b0381811683821601908111156116f0576116f0615446565b6001600160801b0381811683821601908111156116f0576116f0615446565b600063ffffffff821663ffffffff810361559957615599615446565b60010192915050565b604081528260408201528284606083013760006060848301015260006060601f19601f8601168301019050826020830152949350505050565b6000600160ff1b82016155f0576155f0615446565b5060000390565b634e487b7160e01b600052603260045260246000fd5b6001600160401b0382811682821603908111156116f0576116f0615446565b634e487b7160e01b600052603160045260246000fd5b60008161565157615651615446565b506000190190565b8183823760009101908152919050565b6020808252601a9082015279496e73756666696369656e7420746f6b656e2062616c616e636560301b604082015260600190565b6001600160a01b0392831681529116602082015260400190565b6020808252601c908201527b496e73756666696369656e7420746f6b656e20616c6c6f77616e636560201b604082015260600190565b6001600160601b0319606087811b8216835286901b1660148201528284602883013760289201918201526048019392505050565b6020808252602b908201527f496e697469616c697a61626c653a20636f6e7472616374206973206e6f74206960408201526a6e697469616c697a696e6760a81b606082015260800190565b6000825161577e8184602087016149d2565b919091019291505056fe29e98ba00d07f171959c4ddcd2f3020debc7c52cf537a034d7e664340d098c6c46756e6374696f6e206d7573742062652063616c6c6564207468726f75676820360894a13ba1a3210667c828492db98dca3e2076cc3735a920a3ca505d382bbc5b88a2e3fc1a53234357ab78c104df11c33ccfa79886793654565ad70b8afb6e416464726573733a206c6f772d6c6576656c2064656c65676174652063616c6c206661696c6564a26469706673582212205fd32e7ea4f6617429e7276bb5f1fecb067338bad3f47bbb3496db9014c73b0464736f6c634300081e0033",
  "linkReferences": {},
  "deployedLinkReferences": {}
}