{
  "_format": "hh-sol-artifact-1",
  "contractName": "DIAPAgentNetwork",
  "sourceName": "contracts/DIAPAgentNetwork.sol",
  "abi": [
    {
      "anonymous": false,
      "inputs": [
        {
          "indexed": false,
          "internalType": "address",
          "name": "previousAdmin",
          "type": "address"
        },
        {
          "indexed": false,
          "internalType": "address",
          "name": "newAdmin",
          "type": "address"
        }
      ],
      "name": "AdminChanged",
      "type": "event"
    },
    {
      "anonymous": false,
      "inputs": [
        {
          "indexed": true,
          "internalType": "address",
          "name": "agent",
          "type": "address"
        },
        {
          "indexed": false,
          "internalType": "string",
          "name": "didDocument",
          "type": "string"
        },
        {
          "indexed": false,
          "internalType": "uint256",
          "name": "stakedAmount",
          "type": "uint256"
        }
      ],
      "name": "AgentRegistered",
      "type": "event"
    },
    {
      "anonymous": false,
      "inputs": [
        {
          "indexed": true,
          "internalType": "address",
          "name": "agent",
          "type": "address"
        },
        {
          "indexed": false,
          "internalType": "uint256",
          "name": "stakedAmount",
          "type": "uint256"
        }
      ],
      "name": "AgentUnstaked",
      "type": "event"
    },
    {
      "anonymous": false,
      "inputs": [
        {
          "indexed": true,
          "internalType": "address",
          "name": "agent",
          "type": "address"
        },
        {
          "indexed": false,
          "internalType": "bool",
          "name": "isVerified",
          "type": "bool"
        }
      ],
      "name": "AgentVerified",
      "type": "event"
    },
    {
      "anonymous": false,
      "inputs": [
        {
          "indexed": true,
          "internalType": "address",
          "name": "beacon",
          "type": "address"
        }
      ],
      "name": "BeaconUpgraded",
      "type": "event"
    },
    {
      "anonymous": false,
      "inputs": [
        {
          "indexed": false,
          "internalType": "uint8",
          "name": "version",
          "type": "uint8"
        }
      ],
      "name": "Initialized",
      "type": "event"
    },
    {
      "anonymous": false,
      "inputs": [
        {
          "indexed": true,
          "internalType": "bytes32",
          "name": "messageId",
          "type": "bytes32"
        },
        {
          "indexed": false,
          "internalType": "address",
          "name": "from",
          "type": "address"
        },
        {
          "indexed": false,
          "internalType": "address",
          "name": "to",
          "type": "address"
        },
        {
          "indexed": false,
          "internalType": "uint256",
          "name": "fee",
          "type": "uint256"
        }
      ],
      "name": "MessageSent",
      "type": "event"
    },
    {
      "anonymous": false,
      "inputs": [
        {
          "indexed": true,
          "internalType": "address",
          "name": "previousOwner",
          "type": "address"
        },
        {
          "indexed": true,
          "internalType": "address",
          "name": "newOwner",
          "type": "address"
        }
      ],
      "name": "OwnershipTransferred",
      "type": "event"
    },
    {
      "anonymous": false,
      "inputs": [
        {
          "indexed": false,
          "internalType": "address",
          "name": "account",
          "type": "address"
        }
      ],
      "name": "Paused",
      "type": "event"
    },
    {
      "anonymous": false,
      "inputs": [
        {
          "indexed": true,
          "internalType": "address",
          "name": "agent",
          "type": "address"
        },
        {
          "indexed": false,
          "internalType": "uint256",
          "name": "oldReputation",
          "type": "uint256"
        },
        {
          "indexed": false,
          "internalType": "uint256",
          "name": "newReputation",
          "type": "uint256"
        }
      ],
      "name": "ReputationUpdated",
      "type": "event"
    },
    {
      "anonymous": false,
      "inputs": [
        {
          "indexed": false,
          "internalType": "uint256",
          "name": "totalAmount",
          "type": "uint256"
        },
        {
          "indexed": false,
          "internalType": "uint256",
          "name": "timestamp",
          "type": "uint256"
        }
      ],
      "name": "RewardsDistributed",
      "type": "event"
    },
    {
      "anonymous": false,
      "inputs": [
        {
          "indexed": true,
          "internalType": "uint256",
          "name": "serviceId",
          "type": "uint256"
        },
        {
          "indexed": false,
          "internalType": "string",
          "name": "resultCID",
          "type": "string"
        },
        {
          "indexed": false,
          "internalType": "uint256",
          "name": "reward",
          "type": "uint256"
        }
      ],
      "name": "ServiceCompleted",
      "type": "event"
    },
    {
      "anonymous": false,
      "inputs": [
        {
          "indexed": true,
          "internalType": "uint256",
          "name": "serviceId",
          "type": "uint256"
        },
        {
          "indexed": false,
          "internalType": "address",
          "name": "provider",
          "type": "address"
        },
        {
          "indexed": false,
          "internalType": "address",
          "name": "consumer",
          "type": "address"
        },
        {
          "indexed": false,
          "internalType": "uint256",
          "name": "price",
          "type": "uint256"
        }
      ],
      "name": "ServiceCreated",
      "type": "event"
    },
    {
      "anonymous": false,
      "inputs": [
        {
          "indexed": false,
          "internalType": "address",
          "name": "account",
          "type": "address"
        }
      ],
      "name": "Unpaused",
      "type": "event"
    },
    {
      "anonymous": false,
      "inputs": [
        {
          "indexed": true,
          "internalType": "address",
          "name": "implementation",
          "type": "address"
        }
      ],
      "name": "Upgraded",
      "type": "event"
    },
    {
      "inputs": [],
      "name": "BATCH_SIZE",
      "outputs": [
        {
          "internalType": "uint256",
          "name": "",
          "type": "uint256"
        }
      ],
      "stateMutability": "view",
      "type": "function"
    },
    {
      "inputs": [
        {
          "internalType": "address",
          "name": "",
          "type": "address"
        }
      ],
      "name": "agentIndex",
      "outputs": [
        {
          "internalType": "uint256",
          "name": "",
          "type": "uint256"
        }
      ],
      "stateMutability": "view",
      "type": "function"
    },
    {
      "inputs": [
        {
          "internalType": "uint256",
          "name": "",
          "type": "uint256"
        }
      ],
      "name": "agentList",
      "outputs": [
        {
          "internalType": "address",
          "name": "",
          "type": "address"
        }
      ],
      "stateMutability": "view",
      "type": "function"
    },
    {
      "inputs": [
        {
          "internalType": "address",
          "name": "",
          "type": "address"
        }
      ],
      "name": "agentMetadataCID",
      "outputs": [
        {
          "internalType": "string",
          "name": "",
          "type": "string"
        }
      ],
      "stateMutability": "view",
      "type": "function"
    },
    {
      "inputs": [
        {
          "internalType": "address",
          "name": "",
          "type": "address"
        }
      ],
      "name": "agents",
      "outputs": [
        {
          "internalType": "string",
          "name": "didDocument",
          "type": "string"
        },
        {
          "internalType": "string",
          "name": "publicKey",
          "type": "string"
        },
        {
          "internalType": "uint256",
          "name": "reputation",
          "type": "uint256"
        },
        {
          "internalType": "bool",
          "name": "isActive",
          "type": "bool"
        },
        {
          "internalType": "uint256",
          "name": "registrationTime",
          "type": "uint256"
        },
        {
          "internalType": "uint256",
          "name": "lastActivity",
          "type": "uint256"
        },
        {
          "internalType": "uint256",
          "name": "stakedAmount",
          "type": "uint256"
        },
        {
          "internalType": "uint256",
          "name": "totalEarnings",
          "type": "uint256"
        },
        {
          "internalType": "uint256",
          "name": "totalServices",
          "type": "uint256"
        },
        {
          "internalType": "bool",
          "name": "isVerified",
          "type": "bool"
        }
      ],
      "stateMutability": "view",
      "type": "function"
    },
    {
      "inputs": [
        {
          "internalType": "uint256",
          "name": "serviceId",
          "type": "uint256"
        },
        {
          "internalType": "string",
          "name": "resultCID",
          "type": "string"
        }
      ],
      "name": "completeService",
      "outputs": [],
      "stateMutability": "nonpayable",
      "type": "function"
    },
    {
      "inputs": [
        {
          "internalType": "address",
          "name": "consumer",
          "type": "address"
        },
        {
          "internalType": "string",
          "name": "serviceType",
          "type": "string"
        },
        {
          "internalType": "uint256",
          "name": "price",
          "type": "uint256"
        }
      ],
      "name": "createService",
      "outputs": [],
      "stateMutability": "nonpayable",
      "type": "function"
    },
    {
      "inputs": [
        {
          "internalType": "string",
          "name": "",
          "type": "string"
        }
      ],
      "name": "didToAgent",
      "outputs": [
        {
          "internalType": "address",
          "name": "",
          "type": "address"
        }
      ],
      "stateMutability": "view",
      "type": "function"
    },
    {
      "inputs": [],
      "name": "distributeRewards",
      "outputs": [],
      "stateMutability": "nonpayable",
      "type": "function"
    },
    {
      "inputs": [
        {
          "internalType": "address",
          "name": "agent",
          "type": "address"
        }
      ],
      "name": "getAgent",
      "outputs": [
        {
          "components": [
            {
              "internalType": "string",
              "name": "didDocument",
              "type": "string"
            },
            {
              "internalType": "string",
              "name": "publicKey",
              "type": "string"
            },
            {
              "internalType": "uint256",
              "name": "reputation",
              "type": "uint256"
            },
            {
              "internalType": "bool",
              "name": "isActive",
              "type": "bool"
            },
            {
              "internalType": "uint256",
              "name": "registrationTime",
              "type": "uint256"
            },
            {
              "internalType": "uint256",
              "name": "lastActivity",
              "type": "uint256"
            },
            {
              "internalType": "uint256",
              "name": "stakedAmount",
              "type": "uint256"
            },
            {
              "internalType": "uint256",
              "name": "totalEarnings",
              "type": "uint256"
            },
            {
              "internalType": "uint256",
              "name": "totalServices",
              "type": "uint256"
            },
            {
              "internalType": "bool",
              "name": "isVerified",
              "type": "bool"
            }
          ],
          "internalType": "struct DIAPAgentNetwork.Agent",
          "name": "",
          "type": "tuple"
        }
      ],
      "stateMutability": "view",
      "type": "function"
    },
    {
      "inputs": [
        {
          "internalType": "bytes32",
          "name": "messageId",
          "type": "bytes32"
        }
      ],
      "name": "getMessage",
      "outputs": [
        {
          "components": [
            {
              "internalType": "address",
              "name": "fromAgent",
              "type": "address"
            },
            {
              "internalType": "address",
              "name": "toAgent",
              "type": "address"
            },
            {
              "internalType": "string",
              "name": "messageCID",
              "type": "string"
            },
            {
              "internalType": "uint256",
              "name": "timestamp",
              "type": "uint256"
            },
            {
              "internalType": "bool",
              "name": "isVerified",
              "type": "bool"
            },
            {
              "internalType": "uint256",
              "name": "fee",
              "type": "uint256"
            }
          ],
          "internalType": "struct DIAPAgentNetwork.Message",
          "name": "",
          "type": "tuple"
        }
      ],
      "stateMutability": "view",
      "type": "function"
    },
    {
      "inputs": [],
      "name": "getNetworkStats",
      "outputs": [
        {
          "internalType": "uint256",
          "name": "_totalAgents",
          "type": "uint256"
        },
        {
          "internalType": "uint256",
          "name": "_totalMessages",
          "type": "uint256"
        },
        {
          "internalType": "uint256",
          "name": "_totalServices",
          "type": "uint256"
        },
        {
          "internalType": "uint256",
          "name": "_totalVolume",
          "type": "uint256"
        },
        {
          "internalType": "uint256",
          "name": "_totalRewards",
          "type": "uint256"
        }
      ],
      "stateMutability": "view",
      "type": "function"
    },
    {
      "inputs": [
        {
          "internalType": "uint256",
          "name": "serviceId",
          "type": "uint256"
        }
      ],
      "name": "getService",
      "outputs": [
        {
          "components": [
            {
              "internalType": "address",
              "name": "provider",
              "type": "address"
            },
            {
              "internalType": "address",
              "name": "consumer",
              "type": "address"
            },
            {
              "internalType": "string",
              "name": "serviceType",
              "type": "string"
            },
            {
              "internalType": "uint256",
              "name": "price",
              "type": "uint256"
            },
            {
              "internalType": "uint256",
              "name": "timestamp",
              "type": "uint256"
            },
            {
              "internalType": "bool",
              "name": "isCompleted",
              "type": "bool"
            },
            {
              "internalType": "string",
              "name": "resultCID",
              "type": "string"
            }
          ],
          "internalType": "struct DIAPAgentNetwork.Service",
          "name": "",
          "type": "tuple"
        }
      ],
      "stateMutability": "view",
      "type": "function"
    },
    {
      "inputs": [
        {
          "internalType": "address",
          "name": "_token",
          "type": "address"
        }
      ],
      "name": "initialize",
      "outputs": [],
      "stateMutability": "nonpayable",
      "type": "function"
    },
    {
      "inputs": [],
      "name": "lastProcessedIndex",
      "outputs": [
        {
          "internalType": "uint256",
          "name": "",
          "type": "uint256"
        }
      ],
      "stateMutability": "view",
      "type": "function"
    },
    {
      "inputs": [],
      "name": "lastRewardTime",
      "outputs": [
        {
          "internalType": "uint256",
          "name": "",
          "type": "uint256"
        }
      ],
      "stateMutability": "view",
      "type": "function"
    },
    {
      "inputs": [],
      "name": "lockPeriod",
      "outputs": [
        {
          "internalType": "uint256",
          "name": "",
          "type": "uint256"
        }
      ],
      "stateMutability": "view",
      "type": "function"
    },
    {
      "inputs": [],
      "name": "messageFee",
      "outputs": [
        {
          "internalType": "uint256",
          "name": "",
          "type": "uint256"
        }
      ],
      "stateMutability": "view",
      "type": "function"
    },
    {
      "inputs": [
        {
          "internalType": "bytes32",
          "name": "",
          "type": "bytes32"
        }
      ],
      "name": "messages",
      "outputs": [
        {
          "internalType": "address",
          "name": "fromAgent",
          "type": "address"
        },
        {
          "internalType": "address",
          "name": "toAgent",
          "type": "address"
        },
        {
          "internalType": "string",
          "name": "messageCID",
          "type": "string"
        },
        {
          "internalType": "uint256",
          "name": "timestamp",
          "type": "uint256"
        },
        {
          "internalType": "bool",
          "name": "isVerified",
          "type": "bool"
        },
        {
          "internalType": "uint256",
          "name": "fee",
          "type": "uint256"
        }
      ],
      "stateMutability": "view",
      "type": "function"
    },
    {
      "inputs": [],
      "name": "minStakeAmount",
      "outputs": [
        {
          "internalType": "uint256",
          "name": "",
          "type": "uint256"
        }
      ],
      "stateMutability": "view",
      "type": "function"
    },
    {
      "inputs": [],
      "name": "owner",
      "outputs": [
        {
          "internalType": "address",
          "name": "",
          "type": "address"
        }
      ],
      "stateMutability": "view",
      "type": "function"
    },
    {
      "inputs": [],
      "name": "pause",
      "outputs": [],
      "stateMutability": "nonpayable",
      "type": "function"
    },
    {
      "inputs": [],
      "name": "paused",
      "outputs": [
        {
          "internalType": "bool",
          "name": "",
          "type": "bool"
        }
      ],
      "stateMutability": "view",
      "type": "function"
    },
    {
      "inputs": [],
      "name": "pendingRewards",
      "outputs": [
        {
          "internalType": "uint256",
          "name": "",
          "type": "uint256"
        }
      ],
      "stateMutability": "view",
      "type": "function"
    },
    {
      "inputs": [],
      "name": "processRewardBatch",
      "outputs": [
        {
          "internalType": "bool",
          "name": "",
          "type": "bool"
        }
      ],
      "stateMutability": "nonpayable",
      "type": "function"
    },
    {
      "inputs": [],
      "name": "proxiableUUID",
      "outputs": [
        {
          "internalType": "bytes32",
          "name": "",
          "type": "bytes32"
        }
      ],
      "stateMutability": "view",
      "type": "function"
    },
    {
      "inputs": [
        {
          "internalType": "string",
          "name": "didDocument",
          "type": "string"
        },
        {
          "internalType": "string",
          "name": "publicKey",
          "type": "string"
        },
        {
          "internalType": "uint256",
          "name": "stakedAmount",
          "type": "uint256"
        }
      ],
      "name": "registerAgent",
      "outputs": [],
      "stateMutability": "nonpayable",
      "type": "function"
    },
    {
      "inputs": [],
      "name": "registrationFee",
      "outputs": [
        {
          "internalType": "uint256",
          "name": "",
          "type": "uint256"
        }
      ],
      "stateMutability": "view",
      "type": "function"
    },
    {
      "inputs": [],
      "name": "renounceOwnership",
      "outputs": [],
      "stateMutability": "nonpayable",
      "type": "function"
    },
    {
      "inputs": [],
      "name": "reputationThreshold",
      "outputs": [
        {
          "internalType": "uint256",
          "name": "",
          "type": "uint256"
        }
      ],
      "stateMutability": "view",
      "type": "function"
    },
    {
      "inputs": [],
      "name": "rewardRate",
      "outputs": [
        {
          "internalType": "uint256",
          "name": "",
          "type": "uint256"
        }
      ],
      "stateMutability": "view",
      "type": "function"
    },
    {
      "inputs": [
        {
          "internalType": "address",
          "name": "toAgent",
          "type": "address"
        },
        {
          "internalType": "string",
          "name": "messageCID",
          "type": "string"
        }
      ],
      "name": "sendMessage",
      "outputs": [],
      "stateMutability": "nonpayable",
      "type": "function"
    },
    {
      "inputs": [],
      "name": "serviceFeeRate",
      "outputs": [
        {
          "internalType": "uint256",
          "name": "",
          "type": "uint256"
        }
      ],
      "stateMutability": "view",
      "type": "function"
    },
    {
      "inputs": [
        {
          "internalType": "uint256",
          "name": "",
          "type": "uint256"
        }
      ],
      "name": "serviceMetadataCID",
      "outputs": [
        {
          "internalType": "string",
          "name": "",
          "type": "string"
        }
      ],
      "stateMutability": "view",
      "type": "function"
    },
    {
      "inputs": [
        {
          "internalType": "uint256",
          "name": "",
          "type": "uint256"
        }
      ],
      "name": "services",
      "outputs": [
        {
          "internalType": "address",
          "name": "provider",
          "type": "address"
        },
        {
          "internalType": "address",
          "name": "consumer",
          "type": "address"
        },
        {
          "internalType": "string",
          "name": "serviceType",
          "type": "string"
        },
        {
          "internalType": "uint256",
          "name": "price",
          "type": "uint256"
        },
        {
          "internalType": "uint256",
          "name": "timestamp",
          "type": "uint256"
        },
        {
          "internalType": "bool",
          "name": "isCompleted",
          "type": "bool"
        },
        {
          "internalType": "string",
          "name": "resultCID",
          "type": "string"
        }
      ],
      "stateMutability": "view",
      "type": "function"
    },
    {
      "inputs": [
        {
          "internalType": "address",
          "name": "agent",
          "type": "address"
        },
        {
          "internalType": "string",
          "name": "metadataCID",
          "type": "string"
        }
      ],
      "name": "setAgentMetadataCID",
      "outputs": [],
      "stateMutability": "nonpayable",
      "type": "function"
    },
    {
      "inputs": [
        {
          "internalType": "uint256",
          "name": "_fee",
          "type": "uint256"
        }
      ],
      "name": "setMessageFee",
      "outputs": [],
      "stateMutability": "nonpayable",
      "type": "function"
    },
    {
      "inputs": [
        {
          "internalType": "uint256",
          "name": "_amount",
          "type": "uint256"
        }
      ],
      "name": "setMinStakeAmount",
      "outputs": [],
      "stateMutability": "nonpayable",
      "type": "function"
    },
    {
      "inputs": [
        {
          "internalType": "uint256",
          "name": "_fee",
          "type": "uint256"
        }
      ],
      "name": "setRegistrationFee",
      "outputs": [],
      "stateMutability": "nonpayable",
      "type": "function"
    },
    {
      "inputs": [
        {
          "internalType": "uint256",
          "name": "_rate",
          "type": "uint256"
        }
      ],
      "name": "setRewardRate",
      "outputs": [],
      "stateMutability": "nonpayable",
      "type": "function"
    },
    {
      "inputs": [
        {
          "internalType": "uint256",
          "name": "_rate",
          "type": "uint256"
        }
      ],
      "name": "setServiceFeeRate",
      "outputs": [],
      "stateMutability": "nonpayable",
      "type": "function"
    },
    {
      "inputs": [
        {
          "internalType": "uint256",
          "name": "serviceId",
          "type": "uint256"
        },
        {
          "internalType": "string",
          "name": "metadataCID",
          "type": "string"
        }
      ],
      "name": "setServiceMetadataCID",
      "outputs": [],
      "stateMutability": "nonpayable",
      "type": "function"
    },
    {
      "inputs": [
        {
          "internalType": "address",
          "name": "_verification",
          "type": "address"
        }
      ],
      "name": "setVerificationContract",
      "outputs": [],
      "stateMutability": "nonpayable",
      "type": "function"
    },
    {
      "inputs": [],
      "name": "token",
      "outputs": [
        {
          "internalType": "contract IERC20",
          "name": "",
          "type": "address"
        }
      ],
      "stateMutability": "view",
      "type": "function"
    },
    {
      "inputs": [],
      "name": "totalAgents",
      "outputs": [
        {
          "internalType": "uint256",
          "name": "",
          "type": "uint256"
        }
      ],
      "stateMutability": "view",
      "type": "function"
    },
    {
      "inputs": [],
      "name": "totalMessages",
      "outputs": [
        {
          "internalType": "uint256",
          "name": "",
          "type": "uint256"
        }
      ],
      "stateMutability": "view",
      "type": "function"
    },
    {
      "inputs": [],
      "name": "totalRewards",
      "outputs": [
        {
          "internalType": "uint256",
          "name": "",
          "type": "uint256"
        }
      ],
      "stateMutability": "view",
      "type": "function"
    },
    {
      "inputs": [],
      "name": "totalServices",
      "outputs": [
        {
          "internalType": "uint256",
          "name": "",
          "type": "uint256"
        }
      ],
      "stateMutability": "view",
      "type": "function"
    },
    {
      "inputs": [],
      "name": "totalStaked",
      "outputs": [
        {
          "internalType": "uint256",
          "name": "",
          "type": "uint256"
        }
      ],
      "stateMutability": "view",
      "type": "function"
    },
    {
      "inputs": [],
      "name": "totalVolume",
      "outputs": [
        {
          "internalType": "uint256",
          "name": "",
          "type": "uint256"
        }
      ],
      "stateMutability": "view",
      "type": "function"
    },
    {
      "inputs": [
        {
          "internalType": "address",
          "name": "newOwner",
          "type": "address"
        }
      ],
      "name": "transferOwnership",
      "outputs": [],
      "stateMutability": "nonpayable",
      "type": "function"
    },
    {
      "inputs": [],
      "name": "unpause",
      "outputs": [],
      "stateMutability": "nonpayable",
      "type": "function"
    },
    {
      "inputs": [],
      "name": "unstakeAgent",
      "outputs": [],
      "stateMutability": "nonpayable",
      "type": "function"
    },
    {
      "inputs": [
        {
          "internalType": "address",
          "name": "agent",
          "type": "address"
        },
        {
          "internalType": "int256",
          "name": "reputationChange",
          "type": "int256"
        }
      ],
      "name": "updateReputation",
      "outputs": [],
      "stateMutability": "nonpayable",
      "type": "function"
    },
    {
      "inputs": [
        {
          "internalType": "address",
          "name": "newImplementation",
          "type": "address"
        }
      ],
      "name": "upgradeTo",
      "outputs": [],
      "stateMutability": "nonpayable",
      "type": "function"
    },
    {
      "inputs": [
        {
          "internalType": "address",
          "name": "newImplementation",
          "type": "address"
        },
        {
          "internalType": "bytes",
          "name": "data",
          "type": "bytes"
        }
      ],
      "name": "upgradeToAndCall",
      "outputs": [],
      "stateMutability": "payable",
      "type": "function"
    },
    {
      "inputs": [],
      "name": "verification",
      "outputs": [
        {
          "internalType": "address",
          "name": "",
          "type": "address"
        }
      ],
      "stateMutability": "view",
      "type": "function"
    },
    {
      "inputs": [
        {
          "internalType": "address",
          "name": "agent",
          "type": "address"
        },
        {
          "internalType": "uint256[8]",
          "name": "proof",
          "type": "uint256[8]"
        }
      ],
      "name": "verifyAgent",
      "outputs": [],
      "stateMutability": "nonpayable",
      "type": "function"
    },
    {
      "stateMutability": "payable",
      "type": "receive"
    }
  ],
  "bytecode": "0x60a06040523060805234801561001457600080fd5b50608051614bd161004c60003960008181610dcf01528181610e1801528181610f4401528181610f8401526110170152614bd16000f3fe6080604052600436106103855760003560e01c80637b0a47ee116101d1578063d410e8ba11610102578063eded3fda116100a0578063fb3551ff1161006f578063fb3551ff14610a35578063fb48d6be14610a62578063fc0c546a14610a82578063fd66091e14610aa357600080fd5b8063eded3fda146109ba578063ef0e239b146109d1578063f1887684146109fe578063f2fde38b14610a1557600080fd5b8063da6b03bc116100dc578063da6b03bc1461093a578063de6f24bb1461095a578063deb7bba91461097a578063eb4af0451461099a57600080fd5b8063d410e8ba146108ee578063d420051d14610905578063d88e1ab91461092557600080fd5b80639b1d30911161016f578063c22c4f4311610149578063c22c4f4314610864578063c320c72714610897578063c4d66de8146108b7578063c5053712146108d757600080fd5b80639b1d3091146107f65780639e447fc614610816578063a74d344e1461083657600080fd5b80638da5cb5b116101ab5780638da5cb5b1461078a5780638e7a15bc146107a85780639231cf74146107c8578063951166c0146107df57600080fd5b80637b0a47ee14610747578063817b1cd21461075e5780638456cb591461077557600080fd5b80634a662f48116102b657806361d1bc94116102545780636f4a2cd0116102235780636f4a2cd0146106c6578063702e827c146106db5780637069c6491461071d578063715018a61461073257600080fd5b806361d1bc94146106585780636301ac8f1461066f57806367ee313d146106865780636a08b511146106a657600080fd5b806352d1902d1161029057806352d1902d146105e85780635c975abb146105fd5780635f81a57c146106215780636076cf551461063857600080fd5b80634a662f481461056b5780634f1ef286146105b45780634ffe2a8b146105c757600080fd5b80632f80c54f116103235780633f4ba83a116102fd5780633f4ba83a1461050a5780633fd8b02f1461051f578063460ef44c1461053657806349faa4d41461055657600080fd5b80632f80c54f1461049b5780633009a609146104d35780633659cfe6146104ea57600080fd5b806318aad3831161035f57806318aad383146104035780631a90a2191461043057806323aa2a9d146104475780632bbd59ca1461046957600080fd5b80630139a221146103915780630e15561a146103c757806314c44e09146103ec57600080fd5b3661038c57005b600080fd5b34801561039d57600080fd5b506103b16103ac366004613f72565b610ad9565b6040516103be9190613fdb565b60405180910390f35b3480156103d357600080fd5b506103de6101425481565b6040519081526020016103be565b3480156103f857600080fd5b506103de6101395481565b34801561040f57600080fd5b5061042361041e366004613f72565b610c20565b6040516103be9190614043565b34801561043c57600080fd5b506103de61013a5481565b34801561045357600080fd5b50610467610462366004613f72565b610cbb565b005b34801561047557600080fd5b50610489610484366004613f72565b610cc9565b6040516103be96959493929190614056565b3480156104a757600080fd5b506104bb6104b6366004613f72565b610d9a565b6040516001600160a01b0390911681526020016103be565b3480156104df57600080fd5b506103de6101435481565b3480156104f657600080fd5b506104676105053660046140bc565b610dc5565b34801561051657600080fd5b50610467610ead565b34801561052b57600080fd5b506103de61013e5481565b34801561054257600080fd5b50610467610551366004614120565b610ebf565b34801561056257600080fd5b506103de603281565b34801561057757600080fd5b506101355461013654610137546101385461014254604080519586526020860194909452928401919091526060830152608082015260a0016103be565b6104676105c23660046141f8565b610f3a565b3480156105d357600080fd5b5061012e546104bb906001600160a01b031681565b3480156105f457600080fd5b506103de61100a565b34801561060957600080fd5b5060fb5460ff165b60405190151581526020016103be565b34801561062d57600080fd5b506103de6101385481565b34801561064457600080fd5b5061046761065336600461425a565b6110bd565b34801561066457600080fd5b506103de61013b5481565b34801561067b57600080fd5b506103de6101375481565b34801561069257600080fd5b506104676106a1366004614120565b6114ef565b3480156106b257600080fd5b506104676106c13660046142b4565b6119e9565b3480156106d257600080fd5b50610467611b32565b3480156106e757600080fd5b506104bb6106f63660046142de565b8051602081830181018051610130825292820191909301209152546001600160a01b031681565b34801561072957600080fd5b50610611611c1a565b34801561073e57600080fd5b50610467611d4d565b34801561075357600080fd5b506103de6101405481565b34801561076a57600080fd5b506103de61013f5481565b34801561078157600080fd5b50610467611d5f565b34801561079657600080fd5b506097546001600160a01b03166104bb565b3480156107b457600080fd5b506104236107c33660046140bc565b611d6f565b3480156107d457600080fd5b506103de6101415481565b3480156107eb57600080fd5b506103de6101365481565b34801561080257600080fd5b50610467610811366004613f72565b611d89565b34801561082257600080fd5b50610467610831366004613f72565b611ddd565b34801561084257600080fd5b506103de6108513660046140bc565b6101346020526000908152604090205481565b34801561087057600080fd5b5061088461087f366004613f72565b611deb565b6040516103be9796959493929190614327565b3480156108a357600080fd5b506104676108b2366004613f72565b611f4d565b3480156108c357600080fd5b506104676108d23660046140bc565b611f5b565b3480156108e357600080fd5b506103de6101355481565b3480156108fa57600080fd5b506103de61013d5481565b34801561091157600080fd5b50610467610920366004614387565b61213e565b34801561093157600080fd5b50610467612395565b34801561094657600080fd5b506104676109553660046143c4565b612633565b34801561096657600080fd5b50610467610975366004614438565b612c47565b34801561098657600080fd5b50610467610995366004614438565b613114565b3480156109a657600080fd5b506104676109b5366004613f72565b61319f565b3480156109c657600080fd5b506103de6101445481565b3480156109dd57600080fd5b506109f16109ec366004613f72565b6131ad565b6040516103be9190614472565b348015610a0a57600080fd5b506103de61013c5481565b348015610a2157600080fd5b50610467610a303660046140bc565b61336f565b348015610a4157600080fd5b50610a55610a503660046140bc565b6133e5565b6040516103be91906144f5565b348015610a6e57600080fd5b50610467610a7d3660046140bc565b6135eb565b348015610a8e57600080fd5b5061012d546104bb906001600160a01b031681565b348015610aaf57600080fd5b50610ac3610abe3660046140bc565b61367a565b6040516103be9a999897969594939291906145aa565b610b266040518060c0016040528060006001600160a01b0316815260200160006001600160a01b031681526020016060815260200160008152602001600015158152602001600081525090565b60008281526101316020908152604091829020825160c08101845281546001600160a01b039081168252600183015416928101929092526002810180549293919291840191610b7490614616565b80601f0160208091040260200160405190810160405280929190818152602001828054610ba090614616565b8015610bed5780601f10610bc257610100808354040283529160200191610bed565b820191906000526020600020905b815481529060010190602001808311610bd057829003601f168201915b505050918352505060038201546020820152600482015460ff161515604082015260059091015460609091015292915050565b6101466020526000908152604090208054610c3a90614616565b80601f0160208091040260200160405190810160405280929190818152602001828054610c6690614616565b8015610cb35780601f10610c8857610100808354040283529160200191610cb3565b820191906000526020600020905b815481529060010190602001808311610c9657829003601f168201915b505050505081565b610cc36137e2565b61013a55565b610131602052600090815260409020805460018201546002830180546001600160a01b03938416949290931692610cff90614616565b80601f0160208091040260200160405190810160405280929190818152602001828054610d2b90614616565b8015610d785780601f10610d4d57610100808354040283529160200191610d78565b820191906000526020600020905b815481529060010190602001808311610d5b57829003601f168201915b50505050600383015460048401546005909401549293909260ff909116915086565b6101338181548110610dab57600080fd5b6000918252602090912001546001600160a01b0316905081565b6001600160a01b037f0000000000000000000000000000000000000000000000000000000000000000163003610e165760405162461bcd60e51b8152600401610e0d90614650565b60405180910390fd5b7f00000000000000000000000000000000000000000000000000000000000000006001600160a01b0316610e5f600080516020614b55833981519152546001600160a01b031690565b6001600160a01b031614610e855760405162461bcd60e51b8152600401610e0d9061469c565b610e8e8161383c565b60408051600080825260208201909252610eaa91839190613844565b50565b610eb56137e2565b610ebd6139af565b565b610ec76137e2565b60008381526101326020526040902060040154610f1a5760405162461bcd60e51b815260206004820152601160248201527014d95c9d9a58d9481b9bdd08199bdd5b99607a1b6044820152606401610e0d565b600083815261014660205260409020610f34828483614736565b50505050565b6001600160a01b037f0000000000000000000000000000000000000000000000000000000000000000163003610f825760405162461bcd60e51b8152600401610e0d90614650565b7f00000000000000000000000000000000000000000000000000000000000000006001600160a01b0316610fcb600080516020614b55833981519152546001600160a01b031690565b6001600160a01b031614610ff15760405162461bcd60e51b8152600401610e0d9061469c565b610ffa8261383c565b61100682826001613844565b5050565b6000306001600160a01b037f000000000000000000000000000000000000000000000000000000000000000016146110aa5760405162461bcd60e51b815260206004820152603860248201527f555550535570677261646561626c653a206d757374206e6f742062652063616c60448201527f6c6564207468726f7567682064656c656761746563616c6c00000000000000006064820152608401610e0d565b50600080516020614b5583398151915290565b33600090815261012f602052604090206009015460ff166111155760405162461bcd60e51b81526020600482015260126024820152711059d95b9d081b9bdd081d995c9a599a595960721b6044820152606401610e0d565b61111d613a01565b611125613a5a565b6001600160a01b03841661117b5760405162461bcd60e51b815260206004820152601860248201527f496e76616c696420636f6e73756d6572206164647265737300000000000000006044820152606401610e0d565b336001600160a01b038516036111d35760405162461bcd60e51b815260206004820152601e60248201527f43616e6e6f7420637265617465207365727669636520666f722073656c6600006044820152606401610e0d565b6001600160a01b038416600090815261012f602052604090206003015460ff166112355760405162461bcd60e51b8152602060048201526013602482015272436f6e73756d6572206e6f742061637469766560681b6044820152606401610e0d565b6001600160a01b038416600090815261012f602052604090206009015460ff166112995760405162461bcd60e51b815260206004820152601560248201527410dbdb9cdd5b595c881b9bdd081d995c9a599a5959605a1b6044820152606401610e0d565b600081116112d95760405162461bcd60e51b815260206004820152600d60248201526c496e76616c696420707269636560981b6044820152606401610e0d565b8161131e5760405162461bcd60e51b815260206004820152601560248201527414d95c9d9a58d9481d1e5c19481c995c5d5a5c9959605a1b6044820152606401610e0d565b69d3c21bcecceda10000008111156113695760405162461bcd60e51b815260206004820152600e60248201526d0a0e4d2c6ca40e8dede40d0d2ced60931b6044820152606401610e0d565b60006101375490506040518060e00160405280336001600160a01b03168152602001866001600160a01b0316815260200185858080601f01602080910402602001604051908101604052809392919081815260200183838082843760009201829052509385525050506020808301869052426040808501919091526060840183905280518083018252838152608090940193909352848252610132815290829020835181546001600160a01b03199081166001600160a01b039283161783559285015160018301805490941691161790915590820151600282019061144e90826147f6565b50606082015160038201556080820151600482015560a082015160058201805460ff191691151591909117905560c0820151600682019061148f90826147f6565b50506101378054915060006114a3836148cc565b9190505550807f06dec7c18c6d88222831a8e9c277ddd5ce160c41bc15314e7d93f6b45353d90f3387856040516114dc939291906148e5565b60405180910390a250610f34600160c955565b33600090815261012f602052604090206009015460ff166115475760405162461bcd60e51b81526020600482015260126024820152711059d95b9d081b9bdd081d995c9a599a595960721b6044820152606401610e0d565b61154f613a01565b611557613a5a565b60008381526101326020526040902080546001600160a01b031633146115b65760405162461bcd60e51b81526020600482015260146024820152732737ba1039b2b93b34b1b290383937bb34b232b960611b6044820152606401610e0d565b600581015460ff161561160b5760405162461bcd60e51b815260206004820152601960248201527f5365727669636520616c726561647920636f6d706c65746564000000000000006044820152606401610e0d565b8161164d5760405162461bcd60e51b8152602060048201526012602482015271125b9d985b1a59081c995cdd5b1d0810d25160721b6044820152606401610e0d565b60008160040154116116955760405162461bcd60e51b815260206004820152601160248201527014d95c9d9a58d9481b9bdd08199bdd5b99607a1b6044820152606401610e0d565b60048101546116a79062278d00614909565b4211156116e85760405162461bcd60e51b815260206004820152600f60248201526e14d95c9d9a58d948195e1c1a5c9959608a1b6044820152606401610e0d565b60058101805460ff1916600117905560068101611706838583614736565b50600061271061013b5461271061171d919061491c565b836003015461172c919061492f565b6117369190614946565b9050600081836003015461174a919061491c565b61012d546040516370a0823160e01b815230600482015291925083916001600160a01b03909116906370a0823190602401602060405180830381865afa158015611798573d6000803e3d6000fd5b505050506040513d601f19601f820116820180604052508101906117bc9190614968565b106118585761012d5460405163a9059cbb60e01b8152336004820152602481018490526001600160a01b039091169063a9059cbb906044016020604051808303816000875af1158015611813573d6000803e3d6000fd5b505050506040513d601f19601f820116820180604052508101906118379190614981565b6118535760405162461bcd60e51b8152600401610e0d906149aa565b6118b2565b60405162461bcd60e51b815260206004820152602960248201527f496e73756666696369656e7420636f6e74726163742062616c616e636520666f60448201526872207265776172647360b81b6064820152608401610e0d565b33600090815261012f60205260408120600281015460079091018054919285926118dd908490614909565b909155505033600090815261012f60205260408120600801805491611901836148cc565b909155505033600090815261012f602052604081206002018054600a929061192a908490614909565b909155505060038401546101388054600090611947908490614909565b92505081905550867f58e249b9328bc8509283e8d24898ab201b6fd08cd489de5995fff808670b897c878786604051611982939291906149d9565b60405180910390a233600081815261012f6020908152604091829020600201548251858152918201527f5b88a2e3fc1a53234357ab78c104df11c33ccfa79886793654565ad70b8afb6e910160405180910390a2505050506119e4600160c955565b505050565b6119f16137e2565b6001600160a01b038216600090815261012f6020526040902060020154612710811115611a605760405162461bcd60e51b815260206004820152601860248201527f496e76616c69642072657075746174696f6e2073636f726500000000000000006044820152606401610e0d565b6001600160a01b038316600090815261012f60205260408120600201549080841315611aa657611a908483614909565b9050612710811115611aa157506127105b611ad2565b6000611ab185614a12565b9050828110611ac35760009150611ad0565b611acd818461491c565b91505b505b6001600160a01b038516600081815261012f602090815260409182902060020184905581518581529081018490527f5b88a2e3fc1a53234357ab78c104df11c33ccfa79886793654565ad70b8afb6e910160405180910390a25050505050565b611b3a6137e2565b60006101415442611b4b919061491c565b90506000611b5961013f5490565b9050600081118015611b6b5750600082115b1561100657600064496cebb800836101405484611b88919061492f565b611b92919061492f565b611b9c9190614946565b9050600081118015611bae5750804710155b156119e457611bbc81613aa7565b806101426000828254611bcf9190614909565b9091555050426101418190556040805183815260208101929092527f29e98ba00d07f171959c4ddcd2f3020debc7c52cf537a034d7e664340d098c6c910160405180910390a1505050565b6000611c246137e2565b610144541580611c35575061013f54155b15611c405750600190565b610143546000611c51603283614909565b61013354909150811115611c655750610133545b6000825b82811015611d1c5760006101338281548110611c8757611c87614a2e565b60009182526020808320909101546001600160a01b031680835261012f909152604090912060038101549192509060ff168015611cc8575060008160060154115b15611d0757600061013f54826006015461014454611ce6919061492f565b611cf09190614946565b90508015611d0557611d028186614909565b94505b505b50508080611d14906148cc565b915050611c69565b50610143829055610133548210611d43575050600061014481905561014355506001905090565b6000935050505090565b611d556137e2565b610ebd6000613b08565b611d676137e2565b610ebd613b5a565b6101456020526000908152604090208054610c3a90614616565b611d916137e2565b6103e8811115611dd75760405162461bcd60e51b815260206004820152601160248201527008ccaca40e4c2e8ca40e8dede40d0d2ced607b1b6044820152606401610e0d565b61013b55565b611de56137e2565b61014055565b610132602052600090815260409020805460018201546002830180546001600160a01b03938416949290931692611e2190614616565b80601f0160208091040260200160405190810160405280929190818152602001828054611e4d90614616565b8015611e9a5780601f10611e6f57610100808354040283529160200191611e9a565b820191906000526020600020905b815481529060010190602001808311611e7d57829003601f168201915b5050506003840154600485015460058601546006870180549697939692955060ff909116935090611eca90614616565b80601f0160208091040260200160405190810160405280929190818152602001828054611ef690614616565b8015611f435780601f10611f1857610100808354040283529160200191611f43565b820191906000526020600020905b815481529060010190602001808311611f2657829003601f168201915b5050505050905087565b611f556137e2565b61013955565b600054610100900460ff1615808015611f7b5750600054600160ff909116105b80611f955750303b158015611f95575060005460ff166001145b611ff85760405162461bcd60e51b815260206004820152602e60248201527f496e697469616c697a61626c653a20636f6e747261637420697320616c72656160448201526d191e481a5b9a5d1a585b1a5e995960921b6064820152608401610e0d565b6000805460ff19166001179055801561201b576000805461ff0019166101001790555b6001600160a01b0382166120695760405162461bcd60e51b8152602060048201526015602482015274496e76616c696420746f6b656e206164647265737360581b6044820152606401610e0d565b612071613b97565b612079613bc6565b612081613bed565b612089613c1c565b61012d80546001600160a01b0319166001600160a01b03841617905568056bc75e2d6310000061013955670de0b6b3a764000061013a5561012c61013b55683635c9adc5dea0000061013c556103e861013d5562278d0061013e556005610140554261014155600061013f558015611006576000805461ff0019169055604051600181527f7f26b83ff96e1f2b6a682f133852f6798a09c465da95921460cefb38474024989060200160405180910390a15050565b6121466137e2565b6001600160a01b038216600090815261012f602052604090206003015460ff166121825760405162461bcd60e51b8152600401610e0d90614a44565b6001600160a01b038216600090815261012f602052604090206009015460ff16156121e85760405162461bcd60e51b81526020600482015260166024820152751059d95b9d08185b1c9958591e481d995c9a599a595960521b6044820152606401610e0d565b61012e546001600160a01b03166122415760405162461bcd60e51b815260206004820152601d60248201527f566572696669636174696f6e20636f6e7472616374206e6f74207365740000006044820152606401610e0d565b600061224d8383613c4b565b9050806122905760405162461bcd60e51b815260206004820152601160248201527024b73b30b634b2102d25a810383937b7b360791b6044820152606401610e0d565b6001600160a01b038316600090815261012f6020526040812060098101805460ff1916600117905560020180546103e892906122cd908490614909565b9091555050604051600181526001600160a01b038416907fb0c56617ec919721f803618b5f53891e275c7aaddbdf3c17c45f3252854fa70b9060200160405180910390a26001600160a01b038316600081815261012f60205260409020600201547f5b88a2e3fc1a53234357ab78c104df11c33ccfa79886793654565ad70b8afb6e9061235d906103e89061491c565b6001600160a01b038616600090815261012f6020908152604091829020600201548251938452908301520160405180910390a2505050565b61239d613a01565b33600090815261012f60205260409020600381015460ff166123d15760405162461bcd60e51b8152600401610e0d90614a44565b61013e5481600401546123e49190614909565b42101561242b5760405162461bcd60e51b8152602060048201526015602482015274131bd8dac81c195c9a5bd9081b9bdd08195b991959605a1b6044820152606401610e0d565b600681015460038201805460ff191690553360009081526101346020526040812054610133549091906124609060019061491c565b90508082146124eb576000610133828154811061247f5761247f614a2e565b60009182526020909120015461013380546001600160a01b0390921692508291859081106124af576124af614a2e565b600091825260208083209190910180546001600160a01b0319166001600160a01b03948516179055929091168152610134909152604090208290555b6101338054806124fd576124fd614a72565b60008281526020808220830160001990810180546001600160a01b031916905590920190925533825261013490526040812081905561013580549161254183614a88565b91905055508261013f6000828254612559919061491c565b909155505061012d5460405163a9059cbb60e01b8152336004820152602481018590526001600160a01b039091169063a9059cbb906044016020604051808303816000875af11580156125b0573d6000803e3d6000fd5b505050506040513d601f19601f820116820180604052508101906125d49190614981565b6125f05760405162461bcd60e51b8152600401610e0d906149aa565b60405183815233907f366aad71786c86a25c8e70832e1308e87662a4861edda4ae85ad947d858b9d119060200160405180910390a250505050610ebd600160c955565b61263b613a01565b612643613a5a565b33600090815261012f602052604090206003015460ff16156126a75760405162461bcd60e51b815260206004820152601860248201527f4167656e7420616c7265616479207265676973746572656400000000000000006044820152606401610e0d565b61013c548110156126fa5760405162461bcd60e51b815260206004820152601960248201527f496e73756666696369656e74207374616b6520616d6f756e74000000000000006044820152606401610e0d565b8361273e5760405162461bcd60e51b8152602060048201526014602482015273125b9d985b1a590811125108191bd8dd5b595b9d60621b6044820152606401610e0d565b60006001600160a01b0316610130868660405161275c929190614a9f565b908152604051908190036020019020546001600160a01b0316146127b75760405162461bcd60e51b815260206004820152601260248201527144494420616c72656164792065786973747360701b6044820152606401610e0d565b600061013954826127c89190614909565b61012d546040516370a0823160e01b815233600482015291925082916001600160a01b03909116906370a0823190602401602060405180830381865afa158015612816573d6000803e3d6000fd5b505050506040513d601f19601f8201168201806040525081019061283a9190614968565b10156128885760405162461bcd60e51b815260206004820152601a60248201527f496e73756666696369656e7420746f6b656e2062616c616e63650000000000006044820152606401610e0d565b61012d54604051636eb1769f60e11b815233600482015230602482015282916001600160a01b03169063dd62ed3e90604401602060405180830381865afa1580156128d7573d6000803e3d6000fd5b505050506040513d601f19601f820116820180604052508101906128fb9190614968565b10156129495760405162461bcd60e51b815260206004820152601c60248201527f496e73756666696369656e7420746f6b656e20616c6c6f77616e6365000000006044820152606401610e0d565b61012d546040516323b872dd60e01b81526001600160a01b03909116906323b872dd9061297e903390309086906004016148e5565b6020604051808303816000875af115801561299d573d6000803e3d6000fd5b505050506040513d601f19601f820116820180604052508101906129c19190614981565b6129dd5760405162461bcd60e51b8152600401610e0d906149aa565b60405180610140016040528087878080601f016020809104026020016040519081016040528093929190818152602001838380828437600092019190915250505090825250604080516020601f880181900481028201810190925286815291810191908790879081908401838280828437600092018290525093855250506103e860208085019190915260016040808601919091524260608601819052608086015260a0850188905260c0850184905260e0850184905261010090940183905233835261012f9052502081518190612ab590826147f6565b5060208201516001820190612aca90826147f6565b506040828101516002830155606083015160038301805491151560ff199283161790556080840151600484015560a0840151600584015560c0840151600684015560e0840151600784015561010084015160088401556101209093015160099092018054921515929093169190911790915551339061013090612b509089908990614a9f565b9081526040805191829003602090810190922080546001600160a01b03949094166001600160a01b031994851617905561013380543360008181526101349095529284208190556001810182559083527f92e985329fb94cc1b424ebb0f7f2929b6d27383ca94c0ec71c44fb48bdf96d2c01805490931617909155610135805491612bda836148cc565b91905055508161013f6000828254612bf29190614909565b909155505060405133907f023c5efe572c42192271951adb0e77f97d7fc84bc761d026189ac0861734682490612c2d908990899087906149d9565b60405180910390a250612c40600160c955565b5050505050565b33600090815261012f602052604090206003015460ff16612c7a5760405162461bcd60e51b8152600401610e0d90614a44565b612c82613a01565b6001600160a01b038316600090815261012f602052604090206003015460ff16612cee5760405162461bcd60e51b815260206004820152601760248201527f546172676574206167656e74206e6f74206163746976650000000000000000006044820152606401610e0d565b80612d315760405162461bcd60e51b8152602060048201526013602482015272125b9d985b1a59081b595cdcd859d94810d251606a1b6044820152606401610e0d565b61013a5461012d546040516370a0823160e01b81523360048201526001600160a01b03909116906370a0823190602401602060405180830381865afa158015612d7e573d6000803e3d6000fd5b505050506040513d601f19601f82011682018060405250810190612da29190614968565b1015612df05760405162461bcd60e51b815260206004820152601a60248201527f496e73756666696369656e7420746f6b656e2062616c616e63650000000000006044820152606401610e0d565b61013a5461012d54604051636eb1769f60e11b81523360048201523060248201526001600160a01b039091169063dd62ed3e90604401602060405180830381865afa158015612e43573d6000803e3d6000fd5b505050506040513d601f19601f82011682018060405250810190612e679190614968565b1015612eb55760405162461bcd60e51b815260206004820152601c60248201527f496e73756666696369656e7420746f6b656e20616c6c6f77616e6365000000006044820152606401610e0d565b61012d5461013a546040516323b872dd60e01b81526001600160a01b03909216916323b872dd91612eec91339130916004016148e5565b6020604051808303816000875af1158015612f0b573d6000803e3d6000fd5b505050506040513d601f19601f82011682018060405250810190612f2f9190614981565b612f4b5760405162461bcd60e51b8152600401610e0d906149aa565b60003384848442604051602001612f66959493929190614aaf565b60408051601f19818403018152828252805160209182012060c0840183523384526001600160a01b038816848301528251601f87018390048302810183018452868152909450918301919086908690819084018382808284376000920182905250938552505042602080850191909152604080850184905261013a54606090950194909452858352610131815291839020845181546001600160a01b03199081166001600160a01b03928316178355938601516001830180549095169116179092555090820151600282019061303c90826147f6565b5060608201516003820155608082015160048201805460ff191691151591909117905560a090910151600590910155610136805490600061307c836148cc565b919050555061013a5461013860008282546130979190614909565b909155505033600081815261012f60205260408082204260059182018190556001600160a01b038916845292829020019190915561013a54905183927f3c20d4e8f42599eddf3cdb1184580d4ad4d4a3063dbd500a519f8fcf11ea241492613101928991906148e5565b60405180910390a2506119e4600160c955565b61311c6137e2565b6001600160a01b038316600090815261012f602052604090206003015460ff1661317b5760405162461bcd60e51b815260206004820152601060248201526f4167656e74206e6f742061637469766560801b6044820152606401610e0d565b6001600160a01b038316600090815261014560205260409020610f34828483614736565b6131a76137e2565b61013c55565b6040805160e080820183526000808352602080840182905260608486018190528085018390526080850183905260a0850183905260c08501528582526101328152908490208451928301855280546001600160a01b0390811684526001820154169183019190915260028101805493949293919284019161322d90614616565b80601f016020809104026020016040519081016040528092919081815260200182805461325990614616565b80156132a65780601f1061327b576101008083540402835291602001916132a6565b820191906000526020600020905b81548152906001019060200180831161328957829003601f168201915b50505091835250506003820154602082015260048201546040820152600582015460ff16151560608201526006820180546080909201916132e690614616565b80601f016020809104026020016040519081016040528092919081815260200182805461331290614616565b801561335f5780601f106133345761010080835404028352916020019161335f565b820191906000526020600020905b81548152906001019060200180831161334257829003601f168201915b5050505050815250509050919050565b6133776137e2565b6001600160a01b0381166133dc5760405162461bcd60e51b815260206004820152602660248201527f4f776e61626c653a206e6577206f776e657220697320746865207a65726f206160448201526564647265737360d01b6064820152608401610e0d565b610eaa81613b08565b61343f60405180610140016040528060608152602001606081526020016000815260200160001515815260200160008152602001600081526020016000815260200160008152602001600081526020016000151581525090565b6001600160a01b038216600090815261012f6020526040908190208151610140810190925280548290829061347390614616565b80601f016020809104026020016040519081016040528092919081815260200182805461349f90614616565b80156134ec5780601f106134c1576101008083540402835291602001916134ec565b820191906000526020600020905b8154815290600101906020018083116134cf57829003601f168201915b5050505050815260200160018201805461350590614616565b80601f016020809104026020016040519081016040528092919081815260200182805461353190614616565b801561357e5780601f106135535761010080835404028352916020019161357e565b820191906000526020600020905b81548152906001019060200180831161356157829003601f168201915b505050918352505060028201546020820152600382015460ff908116151560408301526004830154606083015260058301546080830152600683015460a0830152600783015460c0830152600883015460e083015260099092015490911615156101009091015292915050565b6135f36137e2565b6001600160a01b0381166136575760405162461bcd60e51b815260206004820152602560248201527f496e76616c696420766572696669636174696f6e20636f6e7472616374206164604482015264647265737360d81b6064820152608401610e0d565b61012e80546001600160a01b0319166001600160a01b0392909216919091179055565b61012f6020526000908152604090208054819061369690614616565b80601f01602080910402602001604051908101604052809291908181526020018280546136c290614616565b801561370f5780601f106136e45761010080835404028352916020019161370f565b820191906000526020600020905b8154815290600101906020018083116136f257829003601f168201915b50505050509080600101805461372490614616565b80601f016020809104026020016040519081016040528092919081815260200182805461375090614616565b801561379d5780601f106137725761010080835404028352916020019161379d565b820191906000526020600020905b81548152906001019060200180831161378057829003601f168201915b5050505060028301546003840154600485015460058601546006870154600788015460088901546009909901549798959760ff9586169750939592949193909291168a565b6097546001600160a01b03163314610ebd5760405162461bcd60e51b815260206004820181905260248201527f4f776e61626c653a2063616c6c6572206973206e6f7420746865206f776e65726044820152606401610e0d565b610eaa6137e2565b7f4910fdfa16fed3260ed0e7147f7cc6da11a60208b5b9406d12a635614ffd91435460ff1615613877576119e483613c5b565b826001600160a01b03166352d1902d6040518163ffffffff1660e01b8152600401602060405180830381865afa9250505080156138d1575060408051601f3d908101601f191682019092526138ce91810190614968565b60015b6139345760405162461bcd60e51b815260206004820152602e60248201527f45524331393637557067726164653a206e657720696d706c656d656e7461746960448201526d6f6e206973206e6f74205555505360901b6064820152608401610e0d565b600080516020614b5583398151915281146139a35760405162461bcd60e51b815260206004820152602960248201527f45524331393637557067726164653a20756e737570706f727465642070726f786044820152681a58589b195555525160ba1b6064820152608401610e0d565b506119e4838383613cf7565b6139b7613d1c565b60fb805460ff191690557f5db9ee0a495bf2e6ff9c91a7834c1ba4fdd244a5e8aa4e537bd38aeae4b073aa335b6040516001600160a01b03909116815260200160405180910390a1565b600260c95403613a535760405162461bcd60e51b815260206004820152601f60248201527f5265656e7472616e637947756172643a207265656e7472616e742063616c6c006044820152606401610e0d565b600260c955565b60fb5460ff1615610ebd5760405162461bcd60e51b815260206004820152601060248201526f14185d5cd8589b194e881c185d5cd95960821b6044820152606401610e0d565b600160c955565b61013f54600003613ab55750565b806101446000828254613ac89190614909565b9091555050604080518281524260208201527f29e98ba00d07f171959c4ddcd2f3020debc7c52cf537a034d7e664340d098c6c910160405180910390a150565b609780546001600160a01b038381166001600160a01b0319831681179093556040519116919082907f8be0079c531659141344cd1fd0a4f28419497f9722a3daafe3b4186f6b6457e090600090a35050565b613b62613a5a565b60fb805460ff191660011790557f62e78cea01bee320cd4e420270b5ea74000d11b0c9f74754ebdbfc544b05a2586139e43390565b600054610100900460ff16613bbe5760405162461bcd60e51b8152600401610e0d90614aed565b610ebd613d65565b600054610100900460ff16610ebd5760405162461bcd60e51b8152600401610e0d90614aed565b600054610100900460ff16613c145760405162461bcd60e51b8152600401610e0d90614aed565b610ebd613d95565b600054610100900460ff16613c435760405162461bcd60e51b8152600401610e0d90614aed565b610ebd613dbc565b6000813515155b90505b92915050565b6001600160a01b0381163b613cc85760405162461bcd60e51b815260206004820152602d60248201527f455243313936373a206e657720696d706c656d656e746174696f6e206973206e60448201526c1bdd08184818dbdb9d1c9858dd609a1b6064820152608401610e0d565b600080516020614b5583398151915280546001600160a01b0319166001600160a01b0392909216919091179055565b613d0083613def565b600082511180613d0d5750805b156119e457610f348383613e2f565b60fb5460ff16610ebd5760405162461bcd60e51b815260206004820152601460248201527314185d5cd8589b194e881b9bdd081c185d5cd95960621b6044820152606401610e0d565b600054610100900460ff16613d8c5760405162461bcd60e51b8152600401610e0d90614aed565b610ebd33613b08565b600054610100900460ff16613aa05760405162461bcd60e51b8152600401610e0d90614aed565b600054610100900460ff16613de35760405162461bcd60e51b8152600401610e0d90614aed565b60fb805460ff19169055565b613df881613c5b565b6040516001600160a01b038216907fbc7cd75a20ee27fd9adebab32041f755214dbc6bffa90cc0225b39da2e5c2d3b90600090a250565b6060613c528383604051806060016040528060278152602001614b75602791396060600080856001600160a01b031685604051613e6c9190614b38565b600060405180830381855af49150503d8060008114613ea7576040519150601f19603f3d011682016040523d82523d6000602084013e613eac565b606091505b5091509150613ebd86838387613ec7565b9695505050505050565b60608315613f36578251600003613f2f576001600160a01b0385163b613f2f5760405162461bcd60e51b815260206004820152601d60248201527f416464726573733a2063616c6c20746f206e6f6e2d636f6e74726163740000006044820152606401610e0d565b5081613f40565b613f408383613f48565b949350505050565b815115613f585781518083602001fd5b8060405162461bcd60e51b8152600401610e0d9190614043565b600060208284031215613f8457600080fd5b5035919050565b60005b83811015613fa6578181015183820152602001613f8e565b50506000910152565b60008151808452613fc7816020860160208601613f8b565b601f01601f19169290920160200192915050565b60208152600060018060a01b0380845116602084015280602085015116604084015250604083015160c0606084015261401760e0840182613faf565b9050606084015160808401526080840151151560a084015260a084015160c08401528091505092915050565b602081526000613c526020830184613faf565b6001600160a01b0387811682528616602082015260c06040820181905260009061408290830187613faf565b606083019590955250911515608083015260a0909101529392505050565b80356001600160a01b03811681146140b757600080fd5b919050565b6000602082840312156140ce57600080fd5b613c52826140a0565b60008083601f8401126140e957600080fd5b50813567ffffffffffffffff81111561410157600080fd5b60208301915083602082850101111561411957600080fd5b9250929050565b60008060006040848603121561413557600080fd5b83359250602084013567ffffffffffffffff81111561415357600080fd5b61415f868287016140d7565b9497909650939450505050565b634e487b7160e01b600052604160045260246000fd5b600067ffffffffffffffff8084111561419d5761419d61416c565b604051601f8501601f19908116603f011681019082821181831017156141c5576141c561416c565b816040528093508581528686860111156141de57600080fd5b858560208301376000602087830101525050509392505050565b6000806040838503121561420b57600080fd5b614214836140a0565b9150602083013567ffffffffffffffff81111561423057600080fd5b8301601f8101851361424157600080fd5b61425085823560208401614182565b9150509250929050565b6000806000806060858703121561427057600080fd5b614279856140a0565b9350602085013567ffffffffffffffff81111561429557600080fd5b6142a1878288016140d7565b9598909750949560400135949350505050565b600080604083850312156142c757600080fd5b6142d0836140a0565b946020939093013593505050565b6000602082840312156142f057600080fd5b813567ffffffffffffffff81111561430757600080fd5b8201601f8101841361431857600080fd5b613f4084823560208401614182565b6001600160a01b0388811682528716602082015260e06040820181905260009061435390830188613faf565b86606084015285608084015284151560a084015282810360c08401526143798185613faf565b9a9950505050505050505050565b60008061012080848603121561439c57600080fd5b6143a5846140a0565b92508481850111156143b657600080fd5b506020830190509250929050565b6000806000806000606086880312156143dc57600080fd5b853567ffffffffffffffff808211156143f457600080fd5b61440089838a016140d7565b9097509550602088013591508082111561441957600080fd5b50614426888289016140d7565b96999598509660400135949350505050565b60008060006040848603121561444d57600080fd5b614456846140a0565b9250602084013567ffffffffffffffff81111561415357600080fd5b60208152600060018060a01b0380845116602084015280602085015116604084015250604083015160e060608401526144af610100840182613faf565b905060608401516080840152608084015160a084015260a0840151151560c084015260c0840151601f198483030160e08501526144ec8282613faf565b95945050505050565b6020815260008251610140806020850152614514610160850183613faf565b91506020850151601f198584030160408601526145318382613faf565b925050604085015160608501526060850151614551608086018215159052565b50608085015160a085015260a085015160c085015260c085015160e085015260e08501516101008181870152808701519150506101208181870152808701519150506145a08286018215159052565b5090949350505050565b60006101408083526145be8184018e613faf565b905082810360208401526145d2818d613faf565b604084019b909b5250509615156060880152608087019590955260a086019390935260c085019190915260e084015261010083015215156101209091015292915050565b600181811c9082168061462a57607f821691505b60208210810361464a57634e487b7160e01b600052602260045260246000fd5b50919050565b6020808252602c908201527f46756e6374696f6e206d7573742062652063616c6c6564207468726f7567682060408201526b19195b1959d85d1958d85b1b60a21b606082015260800190565b6020808252602c908201527f46756e6374696f6e206d7573742062652063616c6c6564207468726f7567682060408201526b6163746976652070726f787960a01b606082015260800190565b601f8211156119e457600081815260208120601f850160051c8101602086101561470f5750805b601f850160051c820191505b8181101561472e5782815560010161471b565b505050505050565b67ffffffffffffffff83111561474e5761474e61416c565b6147628361475c8354614616565b836146e8565b6000601f841160018114614796576000851561477e5750838201355b600019600387901b1c1916600186901b178355612c40565b600083815260209020601f19861690835b828110156147c757868501358255602094850194600190920191016147a7565b50868210156147e45760001960f88860031b161c19848701351681555b505060018560011b0183555050505050565b815167ffffffffffffffff8111156148105761481061416c565b6148248161481e8454614616565b846146e8565b602080601f83116001811461485957600084156148415750858301515b600019600386901b1c1916600185901b17855561472e565b600085815260208120601f198616915b8281101561488857888601518255948401946001909101908401614869565b50858210156148a65787850151600019600388901b60f8161c191681555b5050505050600190811b01905550565b634e487b7160e01b600052601160045260246000fd5b6000600182016148de576148de6148b6565b5060010190565b6001600160a01b039384168152919092166020820152604081019190915260600190565b80820180821115613c5557613c556148b6565b81810381811115613c5557613c556148b6565b8082028115828204841417613c5557613c556148b6565b60008261496357634e487b7160e01b600052601260045260246000fd5b500490565b60006020828403121561497a57600080fd5b5051919050565b60006020828403121561499357600080fd5b815180151581146149a357600080fd5b9392505050565b602080825260159082015274151bdad95b881d1c985b9cd9995c8819985a5b1959605a1b604082015260600190565b604081528260408201528284606083013760006060848301015260006060601f19601f8601168301019050826020830152949350505050565b6000600160ff1b8201614a2757614a276148b6565b5060000390565b634e487b7160e01b600052603260045260246000fd5b6020808252601490820152731059d95b9d081b9bdd081c9959da5cdd195c995960621b604082015260600190565b634e487b7160e01b600052603160045260246000fd5b600081614a9757614a976148b6565b506000190190565b8183823760009101908152919050565b60006bffffffffffffffffffffffff19808860601b168352808760601b16601484015250838560288401375060289201918201526048019392505050565b6020808252602b908201527f496e697469616c697a61626c653a20636f6e7472616374206973206e6f74206960408201526a6e697469616c697a696e6760a81b606082015260800190565b60008251614b4a818460208701613f8b565b919091019291505056fe360894a13ba1a3210667c828492db98dca3e2076cc3735a920a3ca505d382bbc416464726573733a206c6f772d6c6576656c2064656c65676174652063616c6c206661696c6564a26469706673582212204748b1634f9b4dae14794b39750fcf8fa21f531e177944e609017f2730a7248664736f6c63430008130033",
  "linkReferences": {},
  "deployedLinkReferences": {}
}