{
  "_format": "hh-sol-artifact-1",
  "contractName": "DIAPToken",
  "sourceName": "contracts/DIAPToken.sol",
  "abi": [
    {
      "anonymous": false,
      "inputs": [
        {
          "indexed": true,
          "internalType": "bytes32",
          "name": "actionHash",
          "type": "bytes32"
        }
      ],
      "name": "ActionExecuted",
      "type": "event"
    },
    {
      "anonymous": false,
      "inputs": [
        {
          "indexed": true,
          "internalType": "bytes32",
          "name": "actionHash",
          "type": "bytes32"
        },
        {
          "indexed": false,
          "internalType": "uint256",
          "name": "executeTime",
          "type": "uint256"
        }
      ],
      "name": "ActionScheduled",
      "type": "event"
    },
    {
      "anonymous": false,
      "inputs": [
        {
          "indexed": false,
          "internalType": "address",
          "name": "previousAdmin",
          "type": "address"
        },
        {
          "indexed": false,
          "internalType": "address",
          "name": "newAdmin",
          "type": "address"
        }
      ],
      "name": "AdminChanged",
      "type": "event"
    },
    {
      "anonymous": false,
      "inputs": [
        {
          "indexed": true,
          "internalType": "address",
          "name": "owner",
          "type": "address"
        },
        {
          "indexed": true,
          "internalType": "address",
          "name": "spender",
          "type": "address"
        },
        {
          "indexed": false,
          "internalType": "uint256",
          "name": "value",
          "type": "uint256"
        }
      ],
      "name": "Approval",
      "type": "event"
    },
    {
      "anonymous": false,
      "inputs": [
        {
          "indexed": true,
          "internalType": "address",
          "name": "beacon",
          "type": "address"
        }
      ],
      "name": "BeaconUpgraded",
      "type": "event"
    },
    {
      "anonymous": false,
      "inputs": [
        {
          "indexed": false,
          "internalType": "uint256",
          "name": "newRate",
          "type": "uint256"
        }
      ],
      "name": "BurnRateUpdated",
      "type": "event"
    },
    {
      "anonymous": false,
      "inputs": [
        {
          "indexed": false,
          "internalType": "uint256",
          "name": "timestamp",
          "type": "uint256"
        }
      ],
      "name": "EmergencyPaused",
      "type": "event"
    },
    {
      "anonymous": false,
      "inputs": [
        {
          "indexed": false,
          "internalType": "uint256",
          "name": "timestamp",
          "type": "uint256"
        }
      ],
      "name": "EmergencyUnpaused",
      "type": "event"
    },
    {
      "anonymous": false,
      "inputs": [
        {
          "indexed": true,
          "internalType": "address",
          "name": "user",
          "type": "address"
        },
        {
          "indexed": false,
          "internalType": "uint256",
          "name": "amount",
          "type": "uint256"
        }
      ],
      "name": "EmergencyWithdraw",
      "type": "event"
    },
    {
      "anonymous": false,
      "inputs": [
        {
          "indexed": false,
          "internalType": "uint256",
          "name": "timestamp",
          "type": "uint256"
        }
      ],
      "name": "EmergencyWithdrawEnabled",
      "type": "event"
    },
    {
      "anonymous": false,
      "inputs": [
        {
          "indexed": false,
          "internalType": "uint256",
          "name": "communityAmount",
          "type": "uint256"
        },
        {
          "indexed": false,
          "internalType": "uint256",
          "name": "teamAmount",
          "type": "uint256"
        },
        {
          "indexed": false,
          "internalType": "uint256",
          "name": "treasuryAmount",
          "type": "uint256"
        },
        {
          "indexed": false,
          "internalType": "uint256",
          "name": "stakingAmount",
          "type": "uint256"
        },
        {
          "indexed": false,
          "internalType": "uint256",
          "name": "liquidityAmount",
          "type": "uint256"
        }
      ],
      "name": "InitialDistributionCompleted",
      "type": "event"
    },
    {
      "anonymous": false,
      "inputs": [
        {
          "indexed": false,
          "internalType": "uint8",
          "name": "version",
          "type": "uint8"
        }
      ],
      "name": "Initialized",
      "type": "event"
    },
    {
      "anonymous": false,
      "inputs": [
        {
          "indexed": true,
          "internalType": "address",
          "name": "previousOwner",
          "type": "address"
        },
        {
          "indexed": true,
          "internalType": "address",
          "name": "newOwner",
          "type": "address"
        }
      ],
      "name": "OwnershipTransferred",
      "type": "event"
    },
    {
      "anonymous": false,
      "inputs": [
        {
          "indexed": false,
          "internalType": "address",
          "name": "account",
          "type": "address"
        }
      ],
      "name": "Paused",
      "type": "event"
    },
    {
      "anonymous": false,
      "inputs": [
        {
          "indexed": true,
          "internalType": "address",
          "name": "user",
          "type": "address"
        },
        {
          "indexed": false,
          "internalType": "uint256",
          "name": "amount",
          "type": "uint256"
        }
      ],
      "name": "RewardsClaimed",
      "type": "event"
    },
    {
      "anonymous": false,
      "inputs": [
        {
          "indexed": true,
          "internalType": "address",
          "name": "user",
          "type": "address"
        },
        {
          "indexed": false,
          "internalType": "uint256",
          "name": "amount",
          "type": "uint256"
        },
        {
          "indexed": false,
          "internalType": "uint256",
          "name": "lockPeriod",
          "type": "uint256"
        },
        {
          "indexed": false,
          "internalType": "uint256",
          "name": "tier",
          "type": "uint256"
        }
      ],
      "name": "Staked",
      "type": "event"
    },
    {
      "anonymous": false,
      "inputs": [
        {
          "indexed": false,
          "internalType": "uint256",
          "name": "newRate",
          "type": "uint256"
        }
      ],
      "name": "StakingRewardRateUpdated",
      "type": "event"
    },
    {
      "anonymous": false,
      "inputs": [
        {
          "indexed": false,
          "internalType": "uint256",
          "name": "tier",
          "type": "uint256"
        },
        {
          "indexed": false,
          "internalType": "uint256",
          "name": "minAmount",
          "type": "uint256"
        },
        {
          "indexed": false,
          "internalType": "uint256",
          "name": "multiplier",
          "type": "uint256"
        },
        {
          "indexed": false,
          "internalType": "uint256",
          "name": "lockPeriod",
          "type": "uint256"
        }
      ],
      "name": "StakingTierUpdated",
      "type": "event"
    },
    {
      "anonymous": false,
      "inputs": [
        {
          "indexed": true,
          "internalType": "address",
          "name": "from",
          "type": "address"
        },
        {
          "indexed": false,
          "internalType": "uint256",
          "name": "amount",
          "type": "uint256"
        },
        {
          "indexed": false,
          "internalType": "string",
          "name": "reason",
          "type": "string"
        }
      ],
      "name": "TokensBurned",
      "type": "event"
    },
    {
      "anonymous": false,
      "inputs": [
        {
          "indexed": true,
          "internalType": "address",
          "name": "from",
          "type": "address"
        },
        {
          "indexed": true,
          "internalType": "address",
          "name": "to",
          "type": "address"
        },
        {
          "indexed": false,
          "internalType": "uint256",
          "name": "value",
          "type": "uint256"
        }
      ],
      "name": "Transfer",
      "type": "event"
    },
    {
      "anonymous": false,
      "inputs": [
        {
          "indexed": false,
          "internalType": "address",
          "name": "account",
          "type": "address"
        }
      ],
      "name": "Unpaused",
      "type": "event"
    },
    {
      "anonymous": false,
      "inputs": [
        {
          "indexed": true,
          "internalType": "address",
          "name": "user",
          "type": "address"
        },
        {
          "indexed": false,
          "internalType": "uint256",
          "name": "amount",
          "type": "uint256"
        },
        {
          "indexed": false,
          "internalType": "uint256",
          "name": "rewards",
          "type": "uint256"
        }
      ],
      "name": "Unstaked",
      "type": "event"
    },
    {
      "anonymous": false,
      "inputs": [
        {
          "indexed": true,
          "internalType": "address",
          "name": "implementation",
          "type": "address"
        }
      ],
      "name": "Upgraded",
      "type": "event"
    },
    {
      "inputs": [],
      "name": "COMMUNITY_ALLOCATION",
      "outputs": [
        {
          "internalType": "uint256",
          "name": "",
          "type": "uint256"
        }
      ],
      "stateMutability": "view",
      "type": "function"
    },
    {
      "inputs": [],
      "name": "INITIAL_SUPPLY",
      "outputs": [
        {
          "internalType": "uint256",
          "name": "",
          "type": "uint256"
        }
      ],
      "stateMutability": "view",
      "type": "function"
    },
    {
      "inputs": [],
      "name": "LIQUIDITY_ALLOCATION",
      "outputs": [
        {
          "internalType": "uint256",
          "name": "",
          "type": "uint256"
        }
      ],
      "stateMutability": "view",
      "type": "function"
    },
    {
      "inputs": [],
      "name": "MAX_REWARD_RATE",
      "outputs": [
        {
          "internalType": "uint256",
          "name": "",
          "type": "uint256"
        }
      ],
      "stateMutability": "view",
      "type": "function"
    },
    {
      "inputs": [],
      "name": "MAX_SUPPLY",
      "outputs": [
        {
          "internalType": "uint256",
          "name": "",
          "type": "uint256"
        }
      ],
      "stateMutability": "view",
      "type": "function"
    },
    {
      "inputs": [],
      "name": "MIN_REWARD_RATE",
      "outputs": [
        {
          "internalType": "uint256",
          "name": "",
          "type": "uint256"
        }
      ],
      "stateMutability": "view",
      "type": "function"
    },
    {
      "inputs": [],
      "name": "RATE_ADJUSTMENT_INTERVAL",
      "outputs": [
        {
          "internalType": "uint256",
          "name": "",
          "type": "uint256"
        }
      ],
      "stateMutability": "view",
      "type": "function"
    },
    {
      "inputs": [],
      "name": "STAKING_ALLOCATION",
      "outputs": [
        {
          "internalType": "uint256",
          "name": "",
          "type": "uint256"
        }
      ],
      "stateMutability": "view",
      "type": "function"
    },
    {
      "inputs": [],
      "name": "TEAM_ALLOCATION",
      "outputs": [
        {
          "internalType": "uint256",
          "name": "",
          "type": "uint256"
        }
      ],
      "stateMutability": "view",
      "type": "function"
    },
    {
      "inputs": [],
      "name": "TIER_BRONZE",
      "outputs": [
        {
          "internalType": "uint256",
          "name": "",
          "type": "uint256"
        }
      ],
      "stateMutability": "view",
      "type": "function"
    },
    {
      "inputs": [],
      "name": "TIER_GOLD",
      "outputs": [
        {
          "internalType": "uint256",
          "name": "",
          "type": "uint256"
        }
      ],
      "stateMutability": "view",
      "type": "function"
    },
    {
      "inputs": [],
      "name": "TIER_PLATINUM",
      "outputs": [
        {
          "internalType": "uint256",
          "name": "",
          "type": "uint256"
        }
      ],
      "stateMutability": "view",
      "type": "function"
    },
    {
      "inputs": [],
      "name": "TIER_SILVER",
      "outputs": [
        {
          "internalType": "uint256",
          "name": "",
          "type": "uint256"
        }
      ],
      "stateMutability": "view",
      "type": "function"
    },
    {
      "inputs": [],
      "name": "TIMELOCK_DELAY",
      "outputs": [
        {
          "internalType": "uint256",
          "name": "",
          "type": "uint256"
        }
      ],
      "stateMutability": "view",
      "type": "function"
    },
    {
      "inputs": [],
      "name": "TREASURY_ALLOCATION",
      "outputs": [
        {
          "internalType": "uint256",
          "name": "",
          "type": "uint256"
        }
      ],
      "stateMutability": "view",
      "type": "function"
    },
    {
      "inputs": [
        {
          "internalType": "address",
          "name": "owner",
          "type": "address"
        },
        {
          "internalType": "address",
          "name": "spender",
          "type": "address"
        }
      ],
      "name": "allowance",
      "outputs": [
        {
          "internalType": "uint256",
          "name": "",
          "type": "uint256"
        }
      ],
      "stateMutability": "view",
      "type": "function"
    },
    {
      "inputs": [
        {
          "internalType": "address",
          "name": "spender",
          "type": "address"
        },
        {
          "internalType": "uint256",
          "name": "amount",
          "type": "uint256"
        }
      ],
      "name": "approve",
      "outputs": [
        {
          "internalType": "bool",
          "name": "",
          "type": "bool"
        }
      ],
      "stateMutability": "nonpayable",
      "type": "function"
    },
    {
      "inputs": [
        {
          "internalType": "address",
          "name": "account",
          "type": "address"
        }
      ],
      "name": "balanceOf",
      "outputs": [
        {
          "internalType": "uint256",
          "name": "",
          "type": "uint256"
        }
      ],
      "stateMutability": "view",
      "type": "function"
    },
    {
      "inputs": [
        {
          "internalType": "uint256",
          "name": "amount",
          "type": "uint256"
        }
      ],
      "name": "burn",
      "outputs": [],
      "stateMutability": "nonpayable",
      "type": "function"
    },
    {
      "inputs": [],
      "name": "burnAddress",
      "outputs": [
        {
          "internalType": "address",
          "name": "",
          "type": "address"
        }
      ],
      "stateMutability": "view",
      "type": "function"
    },
    {
      "inputs": [
        {
          "internalType": "address",
          "name": "account",
          "type": "address"
        },
        {
          "internalType": "uint256",
          "name": "amount",
          "type": "uint256"
        }
      ],
      "name": "burnFrom",
      "outputs": [],
      "stateMutability": "nonpayable",
      "type": "function"
    },
    {
      "inputs": [],
      "name": "burnRate",
      "outputs": [
        {
          "internalType": "uint256",
          "name": "",
          "type": "uint256"
        }
      ],
      "stateMutability": "view",
      "type": "function"
    },
    {
      "inputs": [
        {
          "internalType": "uint256",
          "name": "amount",
          "type": "uint256"
        },
        {
          "internalType": "string",
          "name": "reason",
          "type": "string"
        }
      ],
      "name": "burnTokens",
      "outputs": [],
      "stateMutability": "nonpayable",
      "type": "function"
    },
    {
      "inputs": [],
      "name": "claimRewards",
      "outputs": [],
      "stateMutability": "nonpayable",
      "type": "function"
    },
    {
      "inputs": [],
      "name": "decimals",
      "outputs": [
        {
          "internalType": "uint8",
          "name": "",
          "type": "uint8"
        }
      ],
      "stateMutability": "view",
      "type": "function"
    },
    {
      "inputs": [
        {
          "internalType": "address",
          "name": "spender",
          "type": "address"
        },
        {
          "internalType": "uint256",
          "name": "subtractedValue",
          "type": "uint256"
        }
      ],
      "name": "decreaseAllowance",
      "outputs": [
        {
          "internalType": "bool",
          "name": "",
          "type": "bool"
        }
      ],
      "stateMutability": "nonpayable",
      "type": "function"
    },
    {
      "inputs": [],
      "name": "emergencyPause",
      "outputs": [],
      "stateMutability": "nonpayable",
      "type": "function"
    },
    {
      "inputs": [],
      "name": "emergencyPaused",
      "outputs": [
        {
          "internalType": "bool",
          "name": "",
          "type": "bool"
        }
      ],
      "stateMutability": "view",
      "type": "function"
    },
    {
      "inputs": [],
      "name": "emergencyUnpause",
      "outputs": [],
      "stateMutability": "nonpayable",
      "type": "function"
    },
    {
      "inputs": [],
      "name": "emergencyWithdraw",
      "outputs": [],
      "stateMutability": "nonpayable",
      "type": "function"
    },
    {
      "inputs": [],
      "name": "emergencyWithdrawEnabled",
      "outputs": [
        {
          "internalType": "bool",
          "name": "",
          "type": "bool"
        }
      ],
      "stateMutability": "view",
      "type": "function"
    },
    {
      "inputs": [],
      "name": "enableEmergencyWithdraw",
      "outputs": [],
      "stateMutability": "nonpayable",
      "type": "function"
    },
    {
      "inputs": [
        {
          "internalType": "address",
          "name": "user",
          "type": "address"
        }
      ],
      "name": "getStakingInfo",
      "outputs": [
        {
          "internalType": "uint256",
          "name": "amount",
          "type": "uint256"
        },
        {
          "internalType": "uint256",
          "name": "startTime",
          "type": "uint256"
        },
        {
          "internalType": "uint256",
          "name": "lockPeriod",
          "type": "uint256"
        },
        {
          "internalType": "uint256",
          "name": "lastClaimTime",
          "type": "uint256"
        },
        {
          "internalType": "uint256",
          "name": "pendingRewards",
          "type": "uint256"
        },
        {
          "internalType": "uint256",
          "name": "tier",
          "type": "uint256"
        }
      ],
      "stateMutability": "view",
      "type": "function"
    },
    {
      "inputs": [
        {
          "internalType": "uint256",
          "name": "tier",
          "type": "uint256"
        }
      ],
      "name": "getStakingTier",
      "outputs": [
        {
          "internalType": "uint256",
          "name": "minAmount",
          "type": "uint256"
        },
        {
          "internalType": "uint256",
          "name": "multiplier",
          "type": "uint256"
        },
        {
          "internalType": "uint256",
          "name": "lockPeriod",
          "type": "uint256"
        }
      ],
      "stateMutability": "view",
      "type": "function"
    },
    {
      "inputs": [],
      "name": "getTokenStats",
      "outputs": [
        {
          "internalType": "uint256",
          "name": "totalSupply_",
          "type": "uint256"
        },
        {
          "internalType": "uint256",
          "name": "totalStaked_",
          "type": "uint256"
        },
        {
          "internalType": "uint256",
          "name": "totalBurned_",
          "type": "uint256"
        },
        {
          "internalType": "uint256",
          "name": "totalRewards_",
          "type": "uint256"
        }
      ],
      "stateMutability": "view",
      "type": "function"
    },
    {
      "inputs": [
        {
          "internalType": "address",
          "name": "spender",
          "type": "address"
        },
        {
          "internalType": "uint256",
          "name": "addedValue",
          "type": "uint256"
        }
      ],
      "name": "increaseAllowance",
      "outputs": [
        {
          "internalType": "bool",
          "name": "",
          "type": "bool"
        }
      ],
      "stateMutability": "nonpayable",
      "type": "function"
    },
    {
      "inputs": [],
      "name": "initialize",
      "outputs": [],
      "stateMutability": "nonpayable",
      "type": "function"
    },
    {
      "inputs": [],
      "name": "lastRateAdjustment",
      "outputs": [
        {
          "internalType": "uint256",
          "name": "",
          "type": "uint256"
        }
      ],
      "stateMutability": "view",
      "type": "function"
    },
    {
      "inputs": [],
      "name": "lastRewardTime",
      "outputs": [
        {
          "internalType": "uint256",
          "name": "",
          "type": "uint256"
        }
      ],
      "stateMutability": "view",
      "type": "function"
    },
    {
      "inputs": [
        {
          "internalType": "address",
          "name": "to",
          "type": "address"
        },
        {
          "internalType": "uint256",
          "name": "amount",
          "type": "uint256"
        }
      ],
      "name": "mint",
      "outputs": [],
      "stateMutability": "nonpayable",
      "type": "function"
    },
    {
      "inputs": [],
      "name": "name",
      "outputs": [
        {
          "internalType": "string",
          "name": "",
          "type": "string"
        }
      ],
      "stateMutability": "view",
      "type": "function"
    },
    {
      "inputs": [],
      "name": "owner",
      "outputs": [
        {
          "internalType": "address",
          "name": "",
          "type": "address"
        }
      ],
      "stateMutability": "view",
      "type": "function"
    },
    {
      "inputs": [],
      "name": "pause",
      "outputs": [],
      "stateMutability": "nonpayable",
      "type": "function"
    },
    {
      "inputs": [],
      "name": "paused",
      "outputs": [
        {
          "internalType": "bool",
          "name": "",
          "type": "bool"
        }
      ],
      "stateMutability": "view",
      "type": "function"
    },
    {
      "inputs": [
        {
          "internalType": "bytes32",
          "name": "",
          "type": "bytes32"
        }
      ],
      "name": "pendingActions",
      "outputs": [
        {
          "internalType": "uint256",
          "name": "",
          "type": "uint256"
        }
      ],
      "stateMutability": "view",
      "type": "function"
    },
    {
      "inputs": [],
      "name": "proxiableUUID",
      "outputs": [
        {
          "internalType": "bytes32",
          "name": "",
          "type": "bytes32"
        }
      ],
      "stateMutability": "view",
      "type": "function"
    },
    {
      "inputs": [],
      "name": "renounceOwnership",
      "outputs": [],
      "stateMutability": "nonpayable",
      "type": "function"
    },
    {
      "inputs": [
        {
          "internalType": "uint256",
          "name": "",
          "type": "uint256"
        }
      ],
      "name": "rewardRateHistory",
      "outputs": [
        {
          "internalType": "uint256",
          "name": "",
          "type": "uint256"
        }
      ],
      "stateMutability": "view",
      "type": "function"
    },
    {
      "inputs": [
        {
          "internalType": "uint256",
          "name": "_rate",
          "type": "uint256"
        }
      ],
      "name": "scheduleRewardRateChange",
      "outputs": [],
      "stateMutability": "nonpayable",
      "type": "function"
    },
    {
      "inputs": [
        {
          "internalType": "uint256",
          "name": "_rate",
          "type": "uint256"
        }
      ],
      "name": "setBurnRate",
      "outputs": [],
      "stateMutability": "nonpayable",
      "type": "function"
    },
    {
      "inputs": [
        {
          "internalType": "uint256",
          "name": "_rate",
          "type": "uint256"
        }
      ],
      "name": "setStakingRewardRate",
      "outputs": [],
      "stateMutability": "nonpayable",
      "type": "function"
    },
    {
      "inputs": [
        {
          "internalType": "uint256",
          "name": "amount",
          "type": "uint256"
        },
        {
          "internalType": "uint256",
          "name": "tier",
          "type": "uint256"
        }
      ],
      "name": "stake",
      "outputs": [],
      "stateMutability": "nonpayable",
      "type": "function"
    },
    {
      "inputs": [
        {
          "internalType": "address",
          "name": "",
          "type": "address"
        }
      ],
      "name": "stakingInfo",
      "outputs": [
        {
          "internalType": "uint256",
          "name": "amount",
          "type": "uint256"
        },
        {
          "internalType": "uint256",
          "name": "startTime",
          "type": "uint256"
        },
        {
          "internalType": "uint256",
          "name": "lockPeriod",
          "type": "uint256"
        },
        {
          "internalType": "uint256",
          "name": "lastClaimTime",
          "type": "uint256"
        },
        {
          "internalType": "uint256",
          "name": "pendingRewards",
          "type": "uint256"
        }
      ],
      "stateMutability": "view",
      "type": "function"
    },
    {
      "inputs": [],
      "name": "stakingRewardRate",
      "outputs": [
        {
          "internalType": "uint256",
          "name": "",
          "type": "uint256"
        }
      ],
      "stateMutability": "view",
      "type": "function"
    },
    {
      "inputs": [
        {
          "internalType": "uint256",
          "name": "",
          "type": "uint256"
        }
      ],
      "name": "stakingTiers",
      "outputs": [
        {
          "internalType": "uint256",
          "name": "minAmount",
          "type": "uint256"
        },
        {
          "internalType": "uint256",
          "name": "multiplier",
          "type": "uint256"
        },
        {
          "internalType": "uint256",
          "name": "lockPeriod",
          "type": "uint256"
        }
      ],
      "stateMutability": "view",
      "type": "function"
    },
    {
      "inputs": [],
      "name": "symbol",
      "outputs": [
        {
          "internalType": "string",
          "name": "",
          "type": "string"
        }
      ],
      "stateMutability": "view",
      "type": "function"
    },
    {
      "inputs": [],
      "name": "totalBurned",
      "outputs": [
        {
          "internalType": "uint256",
          "name": "",
          "type": "uint256"
        }
      ],
      "stateMutability": "view",
      "type": "function"
    },
    {
      "inputs": [],
      "name": "totalRewardsDistributed",
      "outputs": [
        {
          "internalType": "uint256",
          "name": "",
          "type": "uint256"
        }
      ],
      "stateMutability": "view",
      "type": "function"
    },
    {
      "inputs": [],
      "name": "totalStaked",
      "outputs": [
        {
          "internalType": "uint256",
          "name": "",
          "type": "uint256"
        }
      ],
      "stateMutability": "view",
      "type": "function"
    },
    {
      "inputs": [],
      "name": "totalSupply",
      "outputs": [
        {
          "internalType": "uint256",
          "name": "",
          "type": "uint256"
        }
      ],
      "stateMutability": "view",
      "type": "function"
    },
    {
      "inputs": [
        {
          "internalType": "address",
          "name": "to",
          "type": "address"
        },
        {
          "internalType": "uint256",
          "name": "amount",
          "type": "uint256"
        }
      ],
      "name": "transfer",
      "outputs": [
        {
          "internalType": "bool",
          "name": "",
          "type": "bool"
        }
      ],
      "stateMutability": "nonpayable",
      "type": "function"
    },
    {
      "inputs": [
        {
          "internalType": "address",
          "name": "from",
          "type": "address"
        },
        {
          "internalType": "address",
          "name": "to",
          "type": "address"
        },
        {
          "internalType": "uint256",
          "name": "amount",
          "type": "uint256"
        }
      ],
      "name": "transferFrom",
      "outputs": [
        {
          "internalType": "bool",
          "name": "",
          "type": "bool"
        }
      ],
      "stateMutability": "nonpayable",
      "type": "function"
    },
    {
      "inputs": [
        {
          "internalType": "address",
          "name": "newOwner",
          "type": "address"
        }
      ],
      "name": "transferOwnership",
      "outputs": [],
      "stateMutability": "nonpayable",
      "type": "function"
    },
    {
      "inputs": [],
      "name": "unpause",
      "outputs": [],
      "stateMutability": "nonpayable",
      "type": "function"
    },
    {
      "inputs": [],
      "name": "unstake",
      "outputs": [],
      "stateMutability": "nonpayable",
      "type": "function"
    },
    {
      "inputs": [
        {
          "internalType": "uint256",
          "name": "tier",
          "type": "uint256"
        },
        {
          "internalType": "uint256",
          "name": "minAmount",
          "type": "uint256"
        },
        {
          "internalType": "uint256",
          "name": "multiplier",
          "type": "uint256"
        },
        {
          "internalType": "uint256",
          "name": "lockPeriod",
          "type": "uint256"
        }
      ],
      "name": "updateStakingTier",
      "outputs": [],
      "stateMutability": "nonpayable",
      "type": "function"
    },
    {
      "inputs": [
        {
          "internalType": "address",
          "name": "newImplementation",
          "type": "address"
        }
      ],
      "name": "upgradeTo",
      "outputs": [],
      "stateMutability": "nonpayable",
      "type": "function"
    },
    {
      "inputs": [
        {
          "internalType": "address",
          "name": "newImplementation",
          "type": "address"
        },
        {
          "internalType": "bytes",
          "name": "data",
          "type": "bytes"
        }
      ],
      "name": "upgradeToAndCall",
      "outputs": [],
      "stateMutability": "payable",
      "type": "function"
    }
  ],
  "bytecode": "0x60a0604052306080526101cd805461ffff60a01b1916905534801561002357600080fd5b50608051613ee961005b60003960008181611082015281816110c20152818161132f0152818161136f015261144c0152613ee96000f3fe6080604052600436106103ef5760003560e01c8063718dc3c311610208578063b7d6851911610118578063d89135cd116100ab578063e3d3f8431161007a578063e3d3f84314610bf1578063ee17254614610c06578063f2fde38b14610c1d578063f9428f3814610803578063fd99cbed14610c3d57600080fd5b8063d89135cd14610b77578063db2e21bc14610b8e578063dd62ed3e14610ba3578063e30569e514610bc357600080fd5b8063bf1ad7e0116100e7578063bf1ad7e014610ac1578063c3fb4d6214610b0e578063d50267ee14610b25578063d86b56f714610b6257600080fd5b8063b7d6851914610aa1578063b99dcae514610ac1578063be6fe8e914610ad7578063bed9985014610af757600080fd5b80639231cf741161019b5780639a46e4121161016a5780639a46e4121461098d578063a457c2d7146109a2578063a9059cbb146109c2578063aa4704f3146109e2578063b3c6cd7614610a2f57600080fd5b80639231cf74146108d857806394eecb50146108ef57806395d89b4114610962578063993eb1c51461097757600080fd5b8063817b1cd2116101d7578063817b1cd21461086e5780638456cb59146108855780638da5cb5b1461089a5780638faa1856146108b857600080fd5b8063718dc3c31461080357806379cc6790146108195780637b0472f0146108395780638129fc1c1461085957600080fd5b80633c0847f51161030357806352d1902d11610296578063683d12b011610265578063683d12b01461073c5780636b12686b1461076a57806370a082311461077f57806370d5ae05146107b5578063715018a6146107ee57600080fd5b806352d1902d146106d65780635747e69f146106eb5780635ba1c1a91461070d5780635c975abb1461072457600080fd5b80634a4e3bd5116102d25780634a4e3bd5146106825780634f1ef286146106975780634f3fc2df146106aa57806351858e27146106c157600080fd5b80633c0847f5146106185780633f4ba83a1461062d57806340c10f191461064257806342966c681461066257600080fd5b80632ff2e9dc11610386578063363015331161035557806336301533146105975780633659cfe6146105ac578063372500ab146105cc57806339509351146105e1578063399585aa1461060157600080fd5b80632ff2e9dc1461051c578063313ce5671461053b57806332cb6b0c1461055757806335c3c8bf1461057757600080fd5b8063189d165e116103c2578063189d165e146104a357806323b872dd146104c557806327c830a9146104e55780632def66201461050757600080fd5b806306fdde03146103f4578063095ea7b31461041f578063097cd9bf1461044f57806318160ddd14610484575b600080fd5b34801561040057600080fd5b50610409610c53565b604051610416919061384c565b60405180910390f35b34801561042b57600080fd5b5061043f61043a36600461389b565b610ce5565b6040519015158152602001610416565b34801561045b57600080fd5b50610464610cff565b604080519485526020850193909352918301526060820152608001610416565b34801561049057600080fd5b506035545b604051908152602001610416565b3480156104af57600080fd5b506104c36104be3660046138c5565b610d28565b005b3480156104d157600080fd5b5061043f6104e03660046138de565b610d97565b3480156104f157600080fd5b506101cd5461043f90600160a01b900460ff1681565b34801561051357600080fd5b506104c3610dbb565b34801561052857600080fd5b506104956a52b7d2dcc80cd2e400000081565b34801561054757600080fd5b5060405160128152602001610416565b34801561056357600080fd5b506104956b033b2e3c9fd0803ce800000081565b34801561058357600080fd5b506104c361059236600461391a565b610f0b565b3480156105a357600080fd5b506104c3611020565b3480156105b857600080fd5b506104c36105c736600461394c565b611078565b3480156105d857600080fd5b506104c3611157565b3480156105ed57600080fd5b5061043f6105fc36600461389b565b611229565b34801561060d57600080fd5b506104956101ca5481565b34801561062457600080fd5b50610495600081565b34801561063957600080fd5b506104c361124b565b34801561064e57600080fd5b506104c361065d36600461389b565b61125b565b34801561066e57600080fd5b506104c361067d3660046138c5565b6112d5565b34801561068e57600080fd5b506104c36112df565b6104c36106a536600461397d565b611325565b3480156106b657600080fd5b506104956101c75481565b3480156106cd57600080fd5b506104c36113f1565b3480156106e257600080fd5b5061049561143f565b3480156106f757600080fd5b506101cd5461043f90600160a81b900460ff1681565b34801561071957600080fd5b506104956202a30081565b34801561073057600080fd5b5060975460ff1661043f565b34801561074857600080fd5b506104956107573660046138c5565b6101c96020526000908152604090205481565b34801561077657600080fd5b50610495606481565b34801561078b57600080fd5b5061049561079a36600461394c565b6001600160a01b031660009081526033602052604090205490565b3480156107c157600080fd5b506101cd546107d6906001600160a01b031681565b6040516001600160a01b039091168152602001610416565b3480156107fa57600080fd5b506104c36114f2565b34801561080f57600080fd5b506104956103e881565b34801561082557600080fd5b506104c361083436600461389b565b611504565b34801561084557600080fd5b506104c3610854366004613a3f565b611519565b34801561086557600080fd5b506104c36118d9565b34801561087a57600080fd5b506104956101c55481565b34801561089157600080fd5b506104c3611cf1565b3480156108a657600080fd5b5060fb546001600160a01b03166107d6565b3480156108c457600080fd5b506104c36108d3366004613a61565b611d01565b3480156108e457600080fd5b506104956101c85481565b3480156108fb57600080fd5b5061093a61090a36600461394c565b6101c360205260009081526040902080546001820154600283015460038401546004909401549293919290919085565b604080519586526020860194909452928401919091526060830152608082015260a001610416565b34801561096e57600080fd5b50610409611e0c565b34801561098357600080fd5b50610495610fa081565b34801561099957600080fd5b50610495600181565b3480156109ae57600080fd5b5061043f6109bd36600461389b565b611e1b565b3480156109ce57600080fd5b5061043f6109dd36600461389b565b611e96565b3480156109ee57600080fd5b50610a026109fd36600461394c565b611ea4565b604080519687526020870195909552938501929092526060840152608083015260a082015260c001610416565b348015610a3b57600080fd5b50610a86610a4a3660046138c5565b60008181526101c46020908152604091829020825160608101845281548082526001830154938201849052600290920154930183905293909250565b60408051938452602084019290925290820152606001610416565b348015610aad57600080fd5b506104c3610abc3660046138c5565b611f33565b348015610acd57600080fd5b506104956105dc81565b348015610ae357600080fd5b506104c3610af23660046138c5565b6120d4565b348015610b0357600080fd5b506104956101cc5481565b348015610b1a57600080fd5b5061049562278d0081565b348015610b3157600080fd5b50610a86610b403660046138c5565b6101c46020526000908152604090208054600182015460029092015490919083565b348015610b6e57600080fd5b50610495600381565b348015610b8357600080fd5b506104956101cb5481565b348015610b9a57600080fd5b506104c36121a7565b348015610baf57600080fd5b50610495610bbe366004613add565b6122b5565b348015610bcf57600080fd5b50610495610bde3660046138c5565b6101ce6020526000908152604090205481565b348015610bfd57600080fd5b50610495600281565b348015610c1257600080fd5b506104956101c65481565b348015610c2957600080fd5b506104c3610c3836600461394c565b6122e0565b348015610c4957600080fd5b506104956107d081565b606060368054610c6290613b10565b80601f0160208091040260200160405190810160405280929190818152602001828054610c8e90613b10565b8015610cdb5780601f10610cb057610100808354040283529160200191610cdb565b820191906000526020600020905b815481529060010190602001808311610cbe57829003601f168201915b5050505050905090565b600033610cf3818585612356565b60019150505b92915050565b600080600080610d0e60355490565b6101c5546101cb546101c654935093509350935090919293565b610d3061247a565b6064811115610d5a5760405162461bcd60e51b8152600401610d5190613b4a565b60405180910390fd5b6101cc8190556040518181527f47863b595116a31383855975a4078913dce7881e717b75a06ced2db5d534ff78906020015b60405180910390a150565b600033610da58582856124d4565b610db085858561254e565b506001949350505050565b610dc361265c565b3360009081526101c3602052604090208054610df15760405162461bcd60e51b8152600401610d5190613b71565b80600201548160010154610e059190613bb1565b421015610e4c5760405162461bcd60e51b8152602060048201526015602482015274131bd8dac81c195c9a5bd9081b9bdd08195b991959605a1b6044820152606401610d51565b6000610e57336126b7565b905081600001546101c56000828254610e709190613bc4565b90915550503360008181526101c360205260408120818155600181018290556002810182905560038101829055600401558254610eae91309161254e565b8015610ebe57610ebe33826127fa565b8154604080519182526020820183905233917f7fc4727e062e336010f2c282598ef5f14facb3de68cf8195c2f23e1454b2b74e91015b60405180910390a25050610f09600161012d55565b565b610f1361247a565b6003841115610f535760405162461bcd60e51b815260206004820152600c60248201526b24b73b30b634b2103a34b2b960a11b6044820152606401610d51565b612710821015610f9a5760405162461bcd60e51b81526020600482015260126024820152714d756c7469706c69657220746f6f206c6f7760701b6044820152606401610d51565b6040805160608082018352858252602080830186815283850186815260008a81526101c484528690209451855590516001850155516002909301929092558251878152918201869052818301859052810183905290517f91940991fd73ef268916dee3054fe76c2defd6b2f7ea5936da2aca2ebfa568559181900360800190a150505050565b61102861247a565b6101cd805460ff60a81b1916600160a81b1790556040517f25004abd8ec665bad2ee0fe374e3b11952166214e204b05d2ea4122417dc22049061106e9042815260200190565b60405180910390a1565b6001600160a01b037f00000000000000000000000000000000000000000000000000000000000000001630036110c05760405162461bcd60e51b8152600401610d5190613bd7565b7f00000000000000000000000000000000000000000000000000000000000000006001600160a01b0316611109600080516020613e6d833981519152546001600160a01b031690565b6001600160a01b03161461112f5760405162461bcd60e51b8152600401610d5190613c23565b611138816128d7565b60408051600080825260208201909252611154918391906128df565b50565b61115f61265c565b3360009081526101c360205260409020805461118d5760405162461bcd60e51b8152600401610d5190613b71565b6000611198336126b7565b9050600081116111e05760405162461bcd60e51b81526020600482015260136024820152724e6f207265776172647320746f20636c61696d60681b6044820152606401610d51565b426003830155600060048301556111f733826127fa565b60405181815233907ffc30cddea38e2bf4d6ea7d3f9ed3b6ad7f176419f4963bd81318067a4aee73fe90602001610ef4565b600033610cf381858561123c83836122b5565b6112469190613bb1565b612356565b61125361247a565b610f09612a4a565b61126361247a565b6b033b2e3c9fd0803ce80000008161127a60355490565b6112849190613bb1565b11156112c75760405162461bcd60e51b815260206004820152601260248201527145786365656473206d617820737570706c7960701b6044820152606401610d51565b6112d18282612a97565b5050565b6111543382612b64565b6112e761247a565b6101cd805460ff60a01b191690556040514281527f4e8fee6624a216c6c87fdeaeaab7686889991b2c1ffcd95d51e9a30352e290809060200161106e565b6001600160a01b037f000000000000000000000000000000000000000000000000000000000000000016300361136d5760405162461bcd60e51b8152600401610d5190613bd7565b7f00000000000000000000000000000000000000000000000000000000000000006001600160a01b03166113b6600080516020613e6d833981519152546001600160a01b031690565b6001600160a01b0316146113dc5760405162461bcd60e51b8152600401610d5190613c23565b6113e5826128d7565b6112d1828260016128df565b6113f961247a565b6101cd805460ff60a01b1916600160a01b1790556040517f11d8c430ae8dff60717610a0356ce3ac35187fc9569e6adfe01d281cc1c167d59061106e9042815260200190565b6000306001600160a01b037f000000000000000000000000000000000000000000000000000000000000000016146114df5760405162461bcd60e51b815260206004820152603860248201527f555550535570677261646561626c653a206d757374206e6f742062652063616c60448201527f6c6564207468726f7567682064656c656761746563616c6c00000000000000006064820152608401610d51565b50600080516020613e6d83398151915290565b6114fa61247a565b610f096000612ca4565b61150f8233836124d4565b6112d18282612b64565b61152161265c565b611529612cf6565b6101cd54600160a01b900460ff16156115845760405162461bcd60e51b815260206004820152601c60248201527f436f6e747261637420697320656d657267656e637920706175736564000000006044820152606401610d51565b600082116115d45760405162461bcd60e51b815260206004820152601d60248201527f416d6f756e74206d7573742062652067726561746572207468616e20300000006044820152606401610d51565b60038111156116145760405162461bcd60e51b815260206004820152600c60248201526b24b73b30b634b2103a34b2b960a11b6044820152606401610d51565b60008181526101c46020908152604091829020825160608101845281548082526001830154938201939093526002909101549281019290925283101561169c5760405162461bcd60e51b815260206004820152601960248201527f416d6f756e742062656c6f772074696572206d696e696d756d000000000000006044820152606401610d51565b3360009081526101c36020526040902080541561183f5760006116be336126b7565b9050808260040160008282546116d49190613bb1565b909155505081546000906116e9908790613bb1565b905060006116fa8460000154612d3c565b9050600061170783612d3c565b905081811461176d5760405162461bcd60e51b815260206004820152602c60248201527f54696572206368616e6765206e6f7420616c6c6f77656420666f72206164646960448201526b74696f6e616c207374616b6560a01b6064820152608401610d51565b8681146117ac5760405162461bcd60e51b815260206004820152600d60248201526c0a8d2cae440dad2e6dac2e8c6d609b1b6044820152606401610d51565b600387101561182f576101c460006117c5896001613bb1565b815260200190815260200160002060000154831061182f5760405162461bcd60e51b815260206004820152602160248201527f416d6f756e7420657863656564732063757272656e742074696572206c696d696044820152601d60fa1b6064820152608401610d51565b5050825550426003820155611861565b8381554260018201819055604083015160028301556003820155600060048201555b61186c33308661254e565b836101c5600082825461187f9190613bb1565b90915550506040828101518151868152602081019190915290810184905233907fb4caaf29adda3eefee3ad552a8e85058589bf834c7466cae4ee58787f70589ed9060600160405180910390a250506112d1600161012d55565b600054610100900460ff16158080156118f95750600054600160ff909116105b806119135750303b158015611913575060005460ff166001145b6119765760405162461bcd60e51b815260206004820152602e60248201527f496e697469616c697a61626c653a20636f6e747261637420697320616c72656160448201526d191e481a5b9a5d1a585b1a5e995960921b6064820152608401610d51565b6000805460ff191660011790558015611999576000805461ff0019166101001790555b6119e16040518060400160405280600a8152602001692224a0a8102a37b5b2b760b11b815250604051806040016040528060048152602001630444941560e41b815250612df7565b6119e9612e28565b6119f1612e4f565b6119f9612e7e565b611a01612ead565b611a09612e28565b6101f46101c75560196101cc556101cd80546001600160a01b03191661dead179055426101c88190556101ca55611ca76040805160608082018352683635c9adc5dea000008252612710602080840191825262278d0084860190815260008080526101c480845295517f900a14da7b74a618a1c29a2c66a3b979a3228cef88a1bb8e8ee5ed807c9db89f5592517f900a14da7b74a618a1c29a2c66a3b979a3228cef88a1bb8e8ee5ed807c9db8a055517f900a14da7b74a618a1c29a2c66a3b979a3228cef88a1bb8e8ee5ed807c9db8a1558451808401865269021e19e0c9bab24000008152613a988183019081526276a7008288019081526001855286845291517ff6ccb3c78ad86b3231879707325826c087a2d02dd70eb918b97f248746719e7055517ff6ccb3c78ad86b3231879707325826c087a2d02dd70eb918b97f248746719e7155517ff6ccb3c78ad86b3231879707325826c087a2d02dd70eb918b97f248746719e725584518084018652690a968163f0a57b4000008152614e2081830190815262ed4e008288019081526002855286845291517f2a271a6e4d4f3524cc28dcdc2fc7eb3733f7b596bb6a78b6597c134ac9f9f96655517f2a271a6e4d4f3524cc28dcdc2fc7eb3733f7b596bb6a78b6597c134ac9f9f96755517f2a271a6e4d4f3524cc28dcdc2fc7eb3733f7b596bb6a78b6597c134ac9f9f968558451928301855269152d02c7e14af680000083526175308382019081526301e13380958401958652600390925292909252517f01fe604e604fe8f473951b43558adbf7f983ccc6feb0f0f4bfbc8e2d38dfcd2655517f01fe604e604fe8f473951b43558adbf7f983ccc6feb0f0f4bfbc8e2d38dfcd2755517f01fe604e604fe8f473951b43558adbf7f983ccc6feb0f0f4bfbc8e2d38dfcd2855565b611caf612edc565b8015611154576000805461ff0019169055604051600181527f7f26b83ff96e1f2b6a682f133852f6798a09c465da95921460cefb384740249890602001610d8c565b611cf961247a565b610f096130c7565b60008311611d515760405162461bcd60e51b815260206004820152601d60248201527f416d6f756e74206d7573742062652067726561746572207468616e20300000006044820152606401610d51565b33600090815260336020526040902054831115611da75760405162461bcd60e51b8152602060048201526014602482015273496e73756666696369656e742062616c616e636560601b6044820152606401610d51565b611db13384612b64565b826101cb6000828254611dc49190613bb1565b909155505060405133907ffad31924d655455395c87544c8aa1ffdb5a7505a22a3c2e03f28003b6556a75f90611dff90869086908690613c6f565b60405180910390a2505050565b606060378054610c6290613b10565b60003381611e2982866122b5565b905083811015611e895760405162461bcd60e51b815260206004820152602560248201527f45524332303a2064656372656173656420616c6c6f77616e63652062656c6f77604482015264207a65726f60d81b6064820152608401610d51565b610db08286868403612356565b600033610cf381858561254e565b6001600160a01b03811660009081526101c360209081526040808320815160a081018352815480825260018301549482018590526002830154938201849052600383015460608301819052600490930154608083015285948594859485948594909390929091611f138c6126b7565b8551611f1e90612d3c565b949d939c50919a509850965090945092505050565b611f3b61247a565b604051737365745374616b696e675265776172645261746560601b6020820152603481018290526000906054016040516020818303038152906040528051906020012090506101ce600082815260200190815260200160002054600003611fdb5760405162461bcd60e51b81526020600482015260146024820152731058dd1a5bdb881b9bdd081cd8da19591d5b195960621b6044820152606401610d51565b60008181526101ce60205260409020544210156120315760405162461bcd60e51b8152602060048201526014602482015273151a5b595b1bd8dac81b9bdd08195e1c1a5c995960621b6044820152606401610d51565b6103e88211156120535760405162461bcd60e51b8152600401610d5190613b4a565b6101c782905560008181526101ce602052604080822091909155517f39c078e0c9be5a018723ae5517e933105b55d82377b3f6b19db1933767a21bdc9061209d9084815260200190565b60405180910390a160405181907f9b5a634ce9dbcc1cc28dbce24cd5b30136689ff28f9ae433837bd68895d7d5e090600090a25050565b6120dc61247a565b6103e88111156120fe5760405162461bcd60e51b8152600401610d5190613b4a565b604051737365745374616b696e675265776172645261746560601b6020820152603481018290526000906054016040516020818303038152906040528051906020012090506202a300426121529190613bb1565b60008281526101ce6020526040902055807fcea0074f4f4b38eaa71c648790bc6a479e43332613889d0b0f0aec9554d40e686121916202a30042613bb1565b6040519081526020015b60405180910390a25050565b6101cd54600160a81b900460ff166122015760405162461bcd60e51b815260206004820152601e60248201527f456d657267656e6379207769746864726177206e6f7420656e61626c656400006044820152606401610d51565b3360009081526101c360205260409020805461222f5760405162461bcd60e51b8152600401610d5190613b71565b80543360009081526101c3602052604081208181556001810182905560028101829055600381018290556004018190556101c58054839290612272908490613bc4565b90915550612283905030338361254e565b60405181815233907f5fafa99d0643513820be26656b45130b01e1c03062e1266bf36f88cbd3bd96959060200161219b565b6001600160a01b03918216600090815260346020908152604080832093909416825291909152205490565b6122e861247a565b6001600160a01b03811661234d5760405162461bcd60e51b815260206004820152602660248201527f4f776e61626c653a206e6577206f776e657220697320746865207a65726f206160448201526564647265737360d01b6064820152608401610d51565b61115481612ca4565b6001600160a01b0383166123b85760405162461bcd60e51b8152602060048201526024808201527f45524332303a20617070726f76652066726f6d20746865207a65726f206164646044820152637265737360e01b6064820152608401610d51565b6001600160a01b0382166124195760405162461bcd60e51b815260206004820152602260248201527f45524332303a20617070726f766520746f20746865207a65726f206164647265604482015261737360f01b6064820152608401610d51565b6001600160a01b0383811660008181526034602090815260408083209487168084529482529182902085905590518481527f8c5be1e5ebec7d5bd14f71427d1e84f3dd0314c0f7b2291e5b200ac8c7c3b925910160405180910390a3505050565b60fb546001600160a01b03163314610f095760405162461bcd60e51b815260206004820181905260248201527f4f776e61626c653a2063616c6c6572206973206e6f7420746865206f776e65726044820152606401610d51565b60006124e084846122b5565b90506000198114612548578181101561253b5760405162461bcd60e51b815260206004820152601d60248201527f45524332303a20696e73756666696369656e7420616c6c6f77616e63650000006044820152606401610d51565b6125488484848403612356565b50505050565b60006101cc5411801561256a57506001600160a01b0383163014155b801561257f57506001600160a01b0382163014155b1561264c5760006127106101cc54836125989190613ca5565b6125a29190613cbc565b9050801561264a576125b48482612b64565b806101cb60008282546125c79190613bb1565b909155506125d790508183613bc4565b9150836001600160a01b03167ffad31924d655455395c87544c8aa1ffdb5a7505a22a3c2e03f28003b6556a75f826040516126419181526040602082018190526015908201527420baba3796b13ab9371037b7103a3930b739b332b960591b606082015260800190565b60405180910390a25b505b612657838383613104565b505050565b600261012d54036126af5760405162461bcd60e51b815260206004820152601f60248201527f5265656e7472616e637947756172643a207265656e7472616e742063616c6c006044820152606401610d51565b600261012d55565b6001600160a01b03811660009081526101c360209081526040808320815160a08101835281548082526001830154948201949094526002820154928101929092526003810154606083015260040154608082015290820361271b5750600092915050565b600061272a8260000151612d3c565b60008181526101c460209081526040808320815160608082018452825482526001830154948201949094526002909101549181019190915290850151929350916127749042613bc4565b90508060000361278b575050506080015192915050565b600064496cebb800826101c75487600001516127a79190613ca5565b6127b19190613ca5565b6127bb9190613cbc565b905060006127108460200151836127d29190613ca5565b6127dc9190613cbc565b90508086608001516127ee9190613bb1565b98975050505050505050565b3060009081526033602052604090205481811061283a5761281c30848461254e565b816101c6600082825461282f9190613bb1565b909155506126579050565b6128426132ba565b600061284d846126b7565b905080821061287f5761286130858361254e565b806101c660008282546128749190613bb1565b909155506125489050565b6101c754600090612891606484613ca5565b61289b9190613cbc565b90508083106128c8576128af30868361254e565b806101c660008282546128c29190613bb1565b90915550505b5050505050565b600161012d55565b61115461247a565b7f4910fdfa16fed3260ed0e7147f7cc6da11a60208b5b9406d12a635614ffd91435460ff16156129125761265783613454565b826001600160a01b03166352d1902d6040518163ffffffff1660e01b8152600401602060405180830381865afa92505050801561296c575060408051601f3d908101601f1916820190925261296991810190613cde565b60015b6129cf5760405162461bcd60e51b815260206004820152602e60248201527f45524331393637557067726164653a206e657720696d706c656d656e7461746960448201526d6f6e206973206e6f74205555505360901b6064820152608401610d51565b600080516020613e6d8339815191528114612a3e5760405162461bcd60e51b815260206004820152602960248201527f45524331393637557067726164653a20756e737570706f727465642070726f786044820152681a58589b195555525160ba1b6064820152608401610d51565b506126578383836134f0565b612a52613515565b6097805460ff191690557f5db9ee0a495bf2e6ff9c91a7834c1ba4fdd244a5e8aa4e537bd38aeae4b073aa335b6040516001600160a01b03909116815260200161106e565b6001600160a01b038216612aed5760405162461bcd60e51b815260206004820152601f60248201527f45524332303a206d696e7420746f20746865207a65726f2061646472657373006044820152606401610d51565b612af96000838361355e565b8060356000828254612b0b9190613bb1565b90915550506001600160a01b0382166000818152603360209081526040808320805486019055518481527fddf252ad1be2c89b69c2b068fc378daa952ba7f163c4a11628f55a4df523b3ef910160405180910390a35050565b6001600160a01b038216612bc45760405162461bcd60e51b815260206004820152602160248201527f45524332303a206275726e2066726f6d20746865207a65726f206164647265736044820152607360f81b6064820152608401610d51565b612bd08260008361355e565b6001600160a01b03821660009081526033602052604090205481811015612c445760405162461bcd60e51b815260206004820152602260248201527f45524332303a206275726e20616d6f756e7420657863656564732062616c616e604482015261636560f01b6064820152608401610d51565b6001600160a01b03831660008181526033602090815260408083208686039055603580548790039055518581529192917fddf252ad1be2c89b69c2b068fc378daa952ba7f163c4a11628f55a4df523b3ef910160405180910390a3505050565b60fb80546001600160a01b038381166001600160a01b0319831681179093556040519116919082907f8be0079c531659141344cd1fd0a4f28419497f9722a3daafe3b4186f6b6457e090600090a35050565b60975460ff1615610f095760405162461bcd60e51b815260206004820152601060248201526f14185d5cd8589b194e881c185d5cd95960821b6044820152606401610d51565b600360009081526101c46020527f01fe604e604fe8f473951b43558adbf7f983ccc6feb0f0f4bfbc8e2d38dfcd26548210612d7957506003919050565b60026000526101c46020527f2a271a6e4d4f3524cc28dcdc2fc7eb3733f7b596bb6a78b6597c134ac9f9f966548210612db457506002919050565b60016000526101c46020527ff6ccb3c78ad86b3231879707325826c087a2d02dd70eb918b97f248746719e70548210612def57506001919050565b506000919050565b600054610100900460ff16612e1e5760405162461bcd60e51b8152600401610d5190613cf7565b6112d18282613569565b600054610100900460ff16610f095760405162461bcd60e51b8152600401610d5190613cf7565b600054610100900460ff16612e765760405162461bcd60e51b8152600401610d5190613cf7565b610f096135a9565b600054610100900460ff16612ea55760405162461bcd60e51b8152600401610d5190613cf7565b610f096135dc565b600054610100900460ff16612ed45760405162461bcd60e51b8152600401610d5190613cf7565b610f0961360c565b6000612710612ef8610fa06a52b7d2dcc80cd2e4000000613ca5565b612f029190613cbc565b9050612f0e3382612a97565b6000612710612f2a6107d06a52b7d2dcc80cd2e4000000613ca5565b612f349190613cbc565b9050612f403382612a97565b6000612710612f5c6105dc6a52b7d2dcc80cd2e4000000613ca5565b612f669190613cbc565b9050612f723382612a97565b6000612710612f8e6105dc6a52b7d2dcc80cd2e4000000613ca5565b612f989190613cbc565b9050612fa43082612a97565b6000612710612fc06103e86a52b7d2dcc80cd2e4000000613ca5565b612fca9190613cbc565b9050612fd63382612a97565b6000818385612fe5888a613bb1565b612fef9190613bb1565b612ff99190613bb1565b6130039190613bb1565b90506a52b7d2dcc80cd2e40000008111156130705760405162461bcd60e51b815260206004820152602760248201527f546f74616c20616c6c6f636174696f6e206578636565647320696e697469616c60448201526620737570706c7960c81b6064820152608401610d51565b604080518781526020810187905290810185905260608101849052608081018390527f3befad135675625e5587bd75e1c3e27a96bf101bfdca64e2e7d89ab01632c9379060a00160405180910390a1505050505050565b6130cf612cf6565b6097805460ff191660011790557f62e78cea01bee320cd4e420270b5ea74000d11b0c9f74754ebdbfc544b05a258612a7f3390565b6001600160a01b0383166131685760405162461bcd60e51b815260206004820152602560248201527f45524332303a207472616e736665722066726f6d20746865207a65726f206164604482015264647265737360d81b6064820152608401610d51565b6001600160a01b0382166131ca5760405162461bcd60e51b815260206004820152602360248201527f45524332303a207472616e7366657220746f20746865207a65726f206164647260448201526265737360e81b6064820152608401610d51565b6131d583838361355e565b6001600160a01b0383166000908152603360205260409020548181101561324d5760405162461bcd60e51b815260206004820152602660248201527f45524332303a207472616e7366657220616d6f756e7420657863656564732062604482015265616c616e636560d01b6064820152608401610d51565b6001600160a01b0380851660008181526033602052604080822086860390559286168082529083902080548601905591517fddf252ad1be2c89b69c2b068fc378daa952ba7f163c4a11628f55a4df523b3ef906132ad9086815260200190565b60405180910390a3612548565b62278d006101ca546132cc9190613bb1565b42101561331b5760405162461bcd60e51b815260206004820152601c60248201527f526174652061646a7573746d656e7420746f6f206672657175656e74000000006044820152606401610d51565b306000908152603360205260408120546101c554909181900361333c575050565b60008161334b84612710613ca5565b6133559190613cbc565b90506103e88110156133865760646101c75460506133739190613ca5565b61337d9190613cbc565b6101c7556133cd565b6107d08110156133a25760646101c754605a6133739190613ca5565b6113888111156133cd5760646101c75460696133be9190613ca5565b6133c89190613cbc565b6101c7555b60646101c75410156133e45760646101c7556133f9565b6103e86101c75411156133f9576103e86101c7555b6101c7544360009081526101c9602052604090819020829055426101ca55517f39c078e0c9be5a018723ae5517e933105b55d82377b3f6b19db1933767a21bdc916134479190815260200190565b60405180910390a1505050565b6001600160a01b0381163b6134c15760405162461bcd60e51b815260206004820152602d60248201527f455243313936373a206e657720696d706c656d656e746174696f6e206973206e60448201526c1bdd08184818dbdb9d1c9858dd609a1b6064820152608401610d51565b600080516020613e6d83398151915280546001600160a01b0319166001600160a01b0392909216919091179055565b6134f983613633565b6000825111806135065750805b15612657576125488383613673565b60975460ff16610f095760405162461bcd60e51b815260206004820152601460248201527314185d5cd8589b194e881b9bdd081c185d5cd95960621b6044820152606401610d51565b61265783838361369f565b600054610100900460ff166135905760405162461bcd60e51b8152600401610d5190613cf7565b603661359c8382613d90565b5060376126578282613d90565b600054610100900460ff166135d05760405162461bcd60e51b8152600401610d5190613cf7565b6097805460ff19169055565b600054610100900460ff166136035760405162461bcd60e51b8152600401610d5190613cf7565b610f0933612ca4565b600054610100900460ff166128cf5760405162461bcd60e51b8152600401610d5190613cf7565b61363c81613454565b6040516001600160a01b038216907fbc7cd75a20ee27fd9adebab32041f755214dbc6bffa90cc0225b39da2e5c2d3b90600090a250565b60606136988383604051806060016040528060278152602001613e8d60279139613705565b9392505050565b60975460ff16156126575760405162461bcd60e51b815260206004820152602a60248201527f45524332305061757361626c653a20746f6b656e207472616e736665722077686044820152691a5b19481c185d5cd95960b21b6064820152608401610d51565b6060600080856001600160a01b0316856040516137229190613e50565b600060405180830381855af49150503d806000811461375d576040519150601f19603f3d011682016040523d82523d6000602084013e613762565b606091505b50915091506137738683838761377d565b9695505050505050565b606083156137ec5782516000036137e5576001600160a01b0385163b6137e55760405162461bcd60e51b815260206004820152601d60248201527f416464726573733a2063616c6c20746f206e6f6e2d636f6e74726163740000006044820152606401610d51565b50816137f6565b6137f683836137fe565b949350505050565b81511561380e5781518083602001fd5b8060405162461bcd60e51b8152600401610d51919061384c565b60005b8381101561384357818101518382015260200161382b565b50506000910152565b602081526000825180602084015261386b816040850160208701613828565b601f01601f19169190910160400192915050565b80356001600160a01b038116811461389657600080fd5b919050565b600080604083850312156138ae57600080fd5b6138b78361387f565b946020939093013593505050565b6000602082840312156138d757600080fd5b5035919050565b6000806000606084860312156138f357600080fd5b6138fc8461387f565b925061390a6020850161387f565b9150604084013590509250925092565b6000806000806080858703121561393057600080fd5b5050823594602084013594506040840135936060013592509050565b60006020828403121561395e57600080fd5b6136988261387f565b634e487b7160e01b600052604160045260246000fd5b6000806040838503121561399057600080fd5b6139998361387f565b9150602083013567ffffffffffffffff808211156139b657600080fd5b818501915085601f8301126139ca57600080fd5b8135818111156139dc576139dc613967565b604051601f8201601f19908116603f01168101908382118183101715613a0457613a04613967565b81604052828152886020848701011115613a1d57600080fd5b8260208601602083013760006020848301015280955050505050509250929050565b60008060408385031215613a5257600080fd5b50508035926020909101359150565b600080600060408486031215613a7657600080fd5b83359250602084013567ffffffffffffffff80821115613a9557600080fd5b818601915086601f830112613aa957600080fd5b813581811115613ab857600080fd5b876020828501011115613aca57600080fd5b6020830194508093505050509250925092565b60008060408385031215613af057600080fd5b613af98361387f565b9150613b076020840161387f565b90509250929050565b600181811c90821680613b2457607f821691505b602082108103613b4457634e487b7160e01b600052602260045260246000fd5b50919050565b6020808252600d908201526c0a4c2e8ca40e8dede40d0d2ced609b1b604082015260600190565b60208082526010908201526f139bc81cdd185ada5b99c8199bdd5b9960821b604082015260600190565b634e487b7160e01b600052601160045260246000fd5b80820180821115610cf957610cf9613b9b565b81810381811115610cf957610cf9613b9b565b6020808252602c908201527f46756e6374696f6e206d7573742062652063616c6c6564207468726f7567682060408201526b19195b1959d85d1958d85b1b60a21b606082015260800190565b6020808252602c908201527f46756e6374696f6e206d7573742062652063616c6c6564207468726f7567682060408201526b6163746976652070726f787960a01b606082015260800190565b83815260406020820152816040820152818360608301376000818301606090810191909152601f909201601f1916010192915050565b8082028115828204841417610cf957610cf9613b9b565b600082613cd957634e487b7160e01b600052601260045260246000fd5b500490565b600060208284031215613cf057600080fd5b5051919050565b6020808252602b908201527f496e697469616c697a61626c653a20636f6e7472616374206973206e6f74206960408201526a6e697469616c697a696e6760a81b606082015260800190565b601f82111561265757600081815260208120601f850160051c81016020861015613d695750805b601f850160051c820191505b81811015613d8857828155600101613d75565b505050505050565b815167ffffffffffffffff811115613daa57613daa613967565b613dbe81613db88454613b10565b84613d42565b602080601f831160018114613df35760008415613ddb5750858301515b600019600386901b1c1916600185901b178555613d88565b600085815260208120601f198616915b82811015613e2257888601518255948401946001909101908401613e03565b5085821015613e405787850151600019600388901b60f8161c191681555b5050505050600190811b01905550565b60008251613e62818460208701613828565b919091019291505056fe360894a13ba1a3210667c828492db98dca3e2076cc3735a920a3ca505d382bbc416464726573733a206c6f772d6c6576656c2064656c65676174652063616c6c206661696c6564a26469706673582212209717550adcdf9532558fef28865ddcf56c87c949db2cccd0f1ed51c0f9b3756564736f6c63430008130033",
  "linkReferences": {},
  "deployedLinkReferences": {}
}