{
  "_format": "hh-sol-artifact-1",
  "contractName": "DIAPToken",
  "sourceName": "contracts/DIAPToken.sol",
  "abi": [
    {
      "anonymous": false,
      "inputs": [
        {
          "indexed": true,
          "internalType": "bytes32",
          "name": "actionHash",
          "type": "bytes32"
        }
      ],
      "name": "ActionExecuted",
      "type": "event"
    },
    {
      "anonymous": false,
      "inputs": [
        {
          "indexed": true,
          "internalType": "bytes32",
          "name": "actionHash",
          "type": "bytes32"
        },
        {
          "indexed": false,
          "internalType": "uint256",
          "name": "executeTime",
          "type": "uint256"
        }
      ],
      "name": "ActionScheduled",
      "type": "event"
    },
    {
      "anonymous": false,
      "inputs": [
        {
          "indexed": false,
          "internalType": "address",
          "name": "previousAdmin",
          "type": "address"
        },
        {
          "indexed": false,
          "internalType": "address",
          "name": "newAdmin",
          "type": "address"
        }
      ],
      "name": "AdminChanged",
      "type": "event"
    },
    {
      "anonymous": false,
      "inputs": [
        {
          "indexed": true,
          "internalType": "address",
          "name": "owner",
          "type": "address"
        },
        {
          "indexed": true,
          "internalType": "address",
          "name": "spender",
          "type": "address"
        },
        {
          "indexed": false,
          "internalType": "uint256",
          "name": "value",
          "type": "uint256"
        }
      ],
      "name": "Approval",
      "type": "event"
    },
    {
      "anonymous": false,
      "inputs": [
        {
          "indexed": true,
          "internalType": "address",
          "name": "beacon",
          "type": "address"
        }
      ],
      "name": "BeaconUpgraded",
      "type": "event"
    },
    {
      "anonymous": false,
      "inputs": [
        {
          "indexed": false,
          "internalType": "uint256",
          "name": "newRate",
          "type": "uint256"
        }
      ],
      "name": "BurnRateUpdated",
      "type": "event"
    },
    {
      "anonymous": false,
      "inputs": [
        {
          "indexed": false,
          "internalType": "uint256",
          "name": "timestamp",
          "type": "uint256"
        }
      ],
      "name": "EmergencyPaused",
      "type": "event"
    },
    {
      "anonymous": false,
      "inputs": [
        {
          "indexed": false,
          "internalType": "uint256",
          "name": "timestamp",
          "type": "uint256"
        }
      ],
      "name": "EmergencyUnpaused",
      "type": "event"
    },
    {
      "anonymous": false,
      "inputs": [
        {
          "indexed": true,
          "internalType": "address",
          "name": "user",
          "type": "address"
        },
        {
          "indexed": false,
          "internalType": "uint256",
          "name": "amount",
          "type": "uint256"
        }
      ],
      "name": "EmergencyWithdraw",
      "type": "event"
    },
    {
      "anonymous": false,
      "inputs": [
        {
          "indexed": false,
          "internalType": "uint256",
          "name": "timestamp",
          "type": "uint256"
        }
      ],
      "name": "EmergencyWithdrawEnabled",
      "type": "event"
    },
    {
      "anonymous": false,
      "inputs": [
        {
          "indexed": false,
          "internalType": "uint256",
          "name": "communityAmount",
          "type": "uint256"
        },
        {
          "indexed": false,
          "internalType": "uint256",
          "name": "teamAmount",
          "type": "uint256"
        },
        {
          "indexed": false,
          "internalType": "uint256",
          "name": "treasuryAmount",
          "type": "uint256"
        },
        {
          "indexed": false,
          "internalType": "uint256",
          "name": "stakingAmount",
          "type": "uint256"
        },
        {
          "indexed": false,
          "internalType": "uint256",
          "name": "liquidityAmount",
          "type": "uint256"
        }
      ],
      "name": "InitialDistributionCompleted",
      "type": "event"
    },
    {
      "anonymous": false,
      "inputs": [
        {
          "indexed": false,
          "internalType": "uint8",
          "name": "version",
          "type": "uint8"
        }
      ],
      "name": "Initialized",
      "type": "event"
    },
    {
      "anonymous": false,
      "inputs": [
        {
          "indexed": true,
          "internalType": "address",
          "name": "previousOwner",
          "type": "address"
        },
        {
          "indexed": true,
          "internalType": "address",
          "name": "newOwner",
          "type": "address"
        }
      ],
      "name": "OwnershipTransferred",
      "type": "event"
    },
    {
      "anonymous": false,
      "inputs": [
        {
          "indexed": false,
          "internalType": "address",
          "name": "account",
          "type": "address"
        }
      ],
      "name": "Paused",
      "type": "event"
    },
    {
      "anonymous": false,
      "inputs": [
        {
          "indexed": true,
          "internalType": "address",
          "name": "user",
          "type": "address"
        },
        {
          "indexed": false,
          "internalType": "uint256",
          "name": "amount",
          "type": "uint256"
        }
      ],
      "name": "RewardsClaimed",
      "type": "event"
    },
    {
      "anonymous": false,
      "inputs": [
        {
          "indexed": true,
          "internalType": "address",
          "name": "user",
          "type": "address"
        },
        {
          "indexed": false,
          "internalType": "uint256",
          "name": "amount",
          "type": "uint256"
        },
        {
          "indexed": false,
          "internalType": "uint256",
          "name": "lockPeriod",
          "type": "uint256"
        },
        {
          "indexed": false,
          "internalType": "uint256",
          "name": "tier",
          "type": "uint256"
        }
      ],
      "name": "Staked",
      "type": "event"
    },
    {
      "anonymous": false,
      "inputs": [
        {
          "indexed": false,
          "internalType": "uint256",
          "name": "newRate",
          "type": "uint256"
        }
      ],
      "name": "StakingRewardRateUpdated",
      "type": "event"
    },
    {
      "anonymous": false,
      "inputs": [
        {
          "indexed": false,
          "internalType": "uint256",
          "name": "tier",
          "type": "uint256"
        },
        {
          "indexed": false,
          "internalType": "uint256",
          "name": "minAmount",
          "type": "uint256"
        },
        {
          "indexed": false,
          "internalType": "uint256",
          "name": "multiplier",
          "type": "uint256"
        },
        {
          "indexed": false,
          "internalType": "uint256",
          "name": "lockPeriod",
          "type": "uint256"
        }
      ],
      "name": "StakingTierUpdated",
      "type": "event"
    },
    {
      "anonymous": false,
      "inputs": [
        {
          "indexed": true,
          "internalType": "address",
          "name": "from",
          "type": "address"
        },
        {
          "indexed": false,
          "internalType": "uint256",
          "name": "amount",
          "type": "uint256"
        },
        {
          "indexed": false,
          "internalType": "string",
          "name": "reason",
          "type": "string"
        }
      ],
      "name": "TokensBurned",
      "type": "event"
    },
    {
      "anonymous": false,
      "inputs": [
        {
          "indexed": true,
          "internalType": "address",
          "name": "from",
          "type": "address"
        },
        {
          "indexed": true,
          "internalType": "address",
          "name": "to",
          "type": "address"
        },
        {
          "indexed": false,
          "internalType": "uint256",
          "name": "value",
          "type": "uint256"
        }
      ],
      "name": "Transfer",
      "type": "event"
    },
    {
      "anonymous": false,
      "inputs": [
        {
          "indexed": false,
          "internalType": "address",
          "name": "account",
          "type": "address"
        }
      ],
      "name": "Unpaused",
      "type": "event"
    },
    {
      "anonymous": false,
      "inputs": [
        {
          "indexed": true,
          "internalType": "address",
          "name": "user",
          "type": "address"
        },
        {
          "indexed": false,
          "internalType": "uint256",
          "name": "amount",
          "type": "uint256"
        },
        {
          "indexed": false,
          "internalType": "uint256",
          "name": "rewards",
          "type": "uint256"
        }
      ],
      "name": "Unstaked",
      "type": "event"
    },
    {
      "anonymous": false,
      "inputs": [
        {
          "indexed": true,
          "internalType": "address",
          "name": "implementation",
          "type": "address"
        }
      ],
      "name": "Upgraded",
      "type": "event"
    },
    {
      "inputs": [],
      "name": "COMMUNITY_ALLOCATION",
      "outputs": [
        {
          "internalType": "uint256",
          "name": "",
          "type": "uint256"
        }
      ],
      "stateMutability": "view",
      "type": "function"
    },
    {
      "inputs": [],
      "name": "INITIAL_SUPPLY",
      "outputs": [
        {
          "internalType": "uint256",
          "name": "",
          "type": "uint256"
        }
      ],
      "stateMutability": "view",
      "type": "function"
    },
    {
      "inputs": [],
      "name": "LIQUIDITY_ALLOCATION",
      "outputs": [
        {
          "internalType": "uint256",
          "name": "",
          "type": "uint256"
        }
      ],
      "stateMutability": "view",
      "type": "function"
    },
    {
      "inputs": [],
      "name": "MAX_REWARD_RATE",
      "outputs": [
        {
          "internalType": "uint256",
          "name": "",
          "type": "uint256"
        }
      ],
      "stateMutability": "view",
      "type": "function"
    },
    {
      "inputs": [],
      "name": "MAX_SUPPLY",
      "outputs": [
        {
          "internalType": "uint256",
          "name": "",
          "type": "uint256"
        }
      ],
      "stateMutability": "view",
      "type": "function"
    },
    {
      "inputs": [],
      "name": "MIN_REWARD_RATE",
      "outputs": [
        {
          "internalType": "uint256",
          "name": "",
          "type": "uint256"
        }
      ],
      "stateMutability": "view",
      "type": "function"
    },
    {
      "inputs": [],
      "name": "RATE_ADJUSTMENT_INTERVAL",
      "outputs": [
        {
          "internalType": "uint256",
          "name": "",
          "type": "uint256"
        }
      ],
      "stateMutability": "view",
      "type": "function"
    },
    {
      "inputs": [],
      "name": "STAKING_ALLOCATION",
      "outputs": [
        {
          "internalType": "uint256",
          "name": "",
          "type": "uint256"
        }
      ],
      "stateMutability": "view",
      "type": "function"
    },
    {
      "inputs": [],
      "name": "TEAM_ALLOCATION",
      "outputs": [
        {
          "internalType": "uint256",
          "name": "",
          "type": "uint256"
        }
      ],
      "stateMutability": "view",
      "type": "function"
    },
    {
      "inputs": [],
      "name": "TIER_BRONZE",
      "outputs": [
        {
          "internalType": "uint256",
          "name": "",
          "type": "uint256"
        }
      ],
      "stateMutability": "view",
      "type": "function"
    },
    {
      "inputs": [],
      "name": "TIER_GOLD",
      "outputs": [
        {
          "internalType": "uint256",
          "name": "",
          "type": "uint256"
        }
      ],
      "stateMutability": "view",
      "type": "function"
    },
    {
      "inputs": [],
      "name": "TIER_PLATINUM",
      "outputs": [
        {
          "internalType": "uint256",
          "name": "",
          "type": "uint256"
        }
      ],
      "stateMutability": "view",
      "type": "function"
    },
    {
      "inputs": [],
      "name": "TIER_SILVER",
      "outputs": [
        {
          "internalType": "uint256",
          "name": "",
          "type": "uint256"
        }
      ],
      "stateMutability": "view",
      "type": "function"
    },
    {
      "inputs": [],
      "name": "TIMELOCK_DELAY",
      "outputs": [
        {
          "internalType": "uint256",
          "name": "",
          "type": "uint256"
        }
      ],
      "stateMutability": "view",
      "type": "function"
    },
    {
      "inputs": [],
      "name": "TREASURY_ALLOCATION",
      "outputs": [
        {
          "internalType": "uint256",
          "name": "",
          "type": "uint256"
        }
      ],
      "stateMutability": "view",
      "type": "function"
    },
    {
      "inputs": [
        {
          "internalType": "address",
          "name": "owner",
          "type": "address"
        },
        {
          "internalType": "address",
          "name": "spender",
          "type": "address"
        }
      ],
      "name": "allowance",
      "outputs": [
        {
          "internalType": "uint256",
          "name": "",
          "type": "uint256"
        }
      ],
      "stateMutability": "view",
      "type": "function"
    },
    {
      "inputs": [
        {
          "internalType": "address",
          "name": "spender",
          "type": "address"
        },
        {
          "internalType": "uint256",
          "name": "amount",
          "type": "uint256"
        }
      ],
      "name": "approve",
      "outputs": [
        {
          "internalType": "bool",
          "name": "",
          "type": "bool"
        }
      ],
      "stateMutability": "nonpayable",
      "type": "function"
    },
    {
      "inputs": [
        {
          "internalType": "address",
          "name": "account",
          "type": "address"
        }
      ],
      "name": "balanceOf",
      "outputs": [
        {
          "internalType": "uint256",
          "name": "",
          "type": "uint256"
        }
      ],
      "stateMutability": "view",
      "type": "function"
    },
    {
      "inputs": [
        {
          "internalType": "uint256",
          "name": "amount",
          "type": "uint256"
        }
      ],
      "name": "burn",
      "outputs": [],
      "stateMutability": "nonpayable",
      "type": "function"
    },
    {
      "inputs": [],
      "name": "burnAddress",
      "outputs": [
        {
          "internalType": "address",
          "name": "",
          "type": "address"
        }
      ],
      "stateMutability": "view",
      "type": "function"
    },
    {
      "inputs": [
        {
          "internalType": "address",
          "name": "account",
          "type": "address"
        },
        {
          "internalType": "uint256",
          "name": "amount",
          "type": "uint256"
        }
      ],
      "name": "burnFrom",
      "outputs": [],
      "stateMutability": "nonpayable",
      "type": "function"
    },
    {
      "inputs": [],
      "name": "burnRate",
      "outputs": [
        {
          "internalType": "uint256",
          "name": "",
          "type": "uint256"
        }
      ],
      "stateMutability": "view",
      "type": "function"
    },
    {
      "inputs": [
        {
          "internalType": "uint256",
          "name": "amount",
          "type": "uint256"
        },
        {
          "internalType": "string",
          "name": "reason",
          "type": "string"
        }
      ],
      "name": "burnTokens",
      "outputs": [],
      "stateMutability": "nonpayable",
      "type": "function"
    },
    {
      "inputs": [],
      "name": "claimRewards",
      "outputs": [],
      "stateMutability": "nonpayable",
      "type": "function"
    },
    {
      "inputs": [],
      "name": "decimals",
      "outputs": [
        {
          "internalType": "uint8",
          "name": "",
          "type": "uint8"
        }
      ],
      "stateMutability": "view",
      "type": "function"
    },
    {
      "inputs": [
        {
          "internalType": "address",
          "name": "spender",
          "type": "address"
        },
        {
          "internalType": "uint256",
          "name": "subtractedValue",
          "type": "uint256"
        }
      ],
      "name": "decreaseAllowance",
      "outputs": [
        {
          "internalType": "bool",
          "name": "",
          "type": "bool"
        }
      ],
      "stateMutability": "nonpayable",
      "type": "function"
    },
    {
      "inputs": [],
      "name": "emergencyPause",
      "outputs": [],
      "stateMutability": "nonpayable",
      "type": "function"
    },
    {
      "inputs": [],
      "name": "emergencyPaused",
      "outputs": [
        {
          "internalType": "bool",
          "name": "",
          "type": "bool"
        }
      ],
      "stateMutability": "view",
      "type": "function"
    },
    {
      "inputs": [],
      "name": "emergencyUnpause",
      "outputs": [],
      "stateMutability": "nonpayable",
      "type": "function"
    },
    {
      "inputs": [],
      "name": "emergencyWithdraw",
      "outputs": [],
      "stateMutability": "nonpayable",
      "type": "function"
    },
    {
      "inputs": [],
      "name": "emergencyWithdrawEnabled",
      "outputs": [
        {
          "internalType": "bool",
          "name": "",
          "type": "bool"
        }
      ],
      "stateMutability": "view",
      "type": "function"
    },
    {
      "inputs": [],
      "name": "enableEmergencyWithdraw",
      "outputs": [],
      "stateMutability": "nonpayable",
      "type": "function"
    },
    {
      "inputs": [
        {
          "internalType": "address",
          "name": "user",
          "type": "address"
        }
      ],
      "name": "getStakingInfo",
      "outputs": [
        {
          "internalType": "uint256",
          "name": "amount",
          "type": "uint256"
        },
        {
          "internalType": "uint256",
          "name": "startTime",
          "type": "uint256"
        },
        {
          "internalType": "uint256",
          "name": "lockPeriod",
          "type": "uint256"
        },
        {
          "internalType": "uint256",
          "name": "lastClaimTime",
          "type": "uint256"
        },
        {
          "internalType": "uint256",
          "name": "pendingRewards",
          "type": "uint256"
        },
        {
          "internalType": "uint256",
          "name": "tier",
          "type": "uint256"
        }
      ],
      "stateMutability": "view",
      "type": "function"
    },
    {
      "inputs": [
        {
          "internalType": "uint256",
          "name": "tier",
          "type": "uint256"
        }
      ],
      "name": "getStakingTier",
      "outputs": [
        {
          "internalType": "uint256",
          "name": "minAmount",
          "type": "uint256"
        },
        {
          "internalType": "uint256",
          "name": "multiplier",
          "type": "uint256"
        },
        {
          "internalType": "uint256",
          "name": "lockPeriod",
          "type": "uint256"
        }
      ],
      "stateMutability": "view",
      "type": "function"
    },
    {
      "inputs": [],
      "name": "getTokenStats",
      "outputs": [
        {
          "internalType": "uint256",
          "name": "totalSupply_",
          "type": "uint256"
        },
        {
          "internalType": "uint256",
          "name": "totalStaked_",
          "type": "uint256"
        },
        {
          "internalType": "uint256",
          "name": "totalBurned_",
          "type": "uint256"
        },
        {
          "internalType": "uint256",
          "name": "totalRewards_",
          "type": "uint256"
        }
      ],
      "stateMutability": "view",
      "type": "function"
    },
    {
      "inputs": [
        {
          "internalType": "address",
          "name": "spender",
          "type": "address"
        },
        {
          "internalType": "uint256",
          "name": "addedValue",
          "type": "uint256"
        }
      ],
      "name": "increaseAllowance",
      "outputs": [
        {
          "internalType": "bool",
          "name": "",
          "type": "bool"
        }
      ],
      "stateMutability": "nonpayable",
      "type": "function"
    },
    {
      "inputs": [
        {
          "internalType": "string",
          "name": "tokenName",
          "type": "string"
        },
        {
          "internalType": "string",
          "name": "tokenSymbol",
          "type": "string"
        }
      ],
      "name": "initialize",
      "outputs": [],
      "stateMutability": "nonpayable",
      "type": "function"
    },
    {
      "inputs": [],
      "name": "lastRateAdjustment",
      "outputs": [
        {
          "internalType": "uint256",
          "name": "",
          "type": "uint256"
        }
      ],
      "stateMutability": "view",
      "type": "function"
    },
    {
      "inputs": [],
      "name": "lastRewardTime",
      "outputs": [
        {
          "internalType": "uint256",
          "name": "",
          "type": "uint256"
        }
      ],
      "stateMutability": "view",
      "type": "function"
    },
    {
      "inputs": [
        {
          "internalType": "address",
          "name": "to",
          "type": "address"
        },
        {
          "internalType": "uint256",
          "name": "amount",
          "type": "uint256"
        }
      ],
      "name": "mint",
      "outputs": [],
      "stateMutability": "nonpayable",
      "type": "function"
    },
    {
      "inputs": [],
      "name": "name",
      "outputs": [
        {
          "internalType": "string",
          "name": "",
          "type": "string"
        }
      ],
      "stateMutability": "view",
      "type": "function"
    },
    {
      "inputs": [],
      "name": "owner",
      "outputs": [
        {
          "internalType": "address",
          "name": "",
          "type": "address"
        }
      ],
      "stateMutability": "view",
      "type": "function"
    },
    {
      "inputs": [],
      "name": "pause",
      "outputs": [],
      "stateMutability": "nonpayable",
      "type": "function"
    },
    {
      "inputs": [],
      "name": "paused",
      "outputs": [
        {
          "internalType": "bool",
          "name": "",
          "type": "bool"
        }
      ],
      "stateMutability": "view",
      "type": "function"
    },
    {
      "inputs": [
        {
          "internalType": "bytes32",
          "name": "",
          "type": "bytes32"
        }
      ],
      "name": "pendingActions",
      "outputs": [
        {
          "internalType": "uint256",
          "name": "",
          "type": "uint256"
        }
      ],
      "stateMutability": "view",
      "type": "function"
    },
    {
      "inputs": [],
      "name": "proxiableUUID",
      "outputs": [
        {
          "internalType": "bytes32",
          "name": "",
          "type": "bytes32"
        }
      ],
      "stateMutability": "view",
      "type": "function"
    },
    {
      "inputs": [],
      "name": "renounceOwnership",
      "outputs": [],
      "stateMutability": "nonpayable",
      "type": "function"
    },
    {
      "inputs": [
        {
          "internalType": "uint256",
          "name": "",
          "type": "uint256"
        }
      ],
      "name": "rewardRateHistory",
      "outputs": [
        {
          "internalType": "uint256",
          "name": "",
          "type": "uint256"
        }
      ],
      "stateMutability": "view",
      "type": "function"
    },
    {
      "inputs": [
        {
          "internalType": "uint256",
          "name": "_rate",
          "type": "uint256"
        }
      ],
      "name": "scheduleRewardRateChange",
      "outputs": [],
      "stateMutability": "nonpayable",
      "type": "function"
    },
    {
      "inputs": [
        {
          "internalType": "uint256",
          "name": "_rate",
          "type": "uint256"
        }
      ],
      "name": "setBurnRate",
      "outputs": [],
      "stateMutability": "nonpayable",
      "type": "function"
    },
    {
      "inputs": [
        {
          "internalType": "uint256",
          "name": "_rate",
          "type": "uint256"
        }
      ],
      "name": "setStakingRewardRate",
      "outputs": [],
      "stateMutability": "nonpayable",
      "type": "function"
    },
    {
      "inputs": [
        {
          "internalType": "uint256",
          "name": "amount",
          "type": "uint256"
        },
        {
          "internalType": "uint256",
          "name": "tier",
          "type": "uint256"
        }
      ],
      "name": "stake",
      "outputs": [],
      "stateMutability": "nonpayable",
      "type": "function"
    },
    {
      "inputs": [
        {
          "internalType": "address",
          "name": "",
          "type": "address"
        }
      ],
      "name": "stakingInfo",
      "outputs": [
        {
          "internalType": "uint256",
          "name": "amount",
          "type": "uint256"
        },
        {
          "internalType": "uint256",
          "name": "startTime",
          "type": "uint256"
        },
        {
          "internalType": "uint256",
          "name": "lockPeriod",
          "type": "uint256"
        },
        {
          "internalType": "uint256",
          "name": "lastClaimTime",
          "type": "uint256"
        },
        {
          "internalType": "uint256",
          "name": "pendingRewards",
          "type": "uint256"
        }
      ],
      "stateMutability": "view",
      "type": "function"
    },
    {
      "inputs": [],
      "name": "stakingRewardRate",
      "outputs": [
        {
          "internalType": "uint256",
          "name": "",
          "type": "uint256"
        }
      ],
      "stateMutability": "view",
      "type": "function"
    },
    {
      "inputs": [
        {
          "internalType": "uint256",
          "name": "",
          "type": "uint256"
        }
      ],
      "name": "stakingTiers",
      "outputs": [
        {
          "internalType": "uint256",
          "name": "minAmount",
          "type": "uint256"
        },
        {
          "internalType": "uint256",
          "name": "multiplier",
          "type": "uint256"
        },
        {
          "internalType": "uint256",
          "name": "lockPeriod",
          "type": "uint256"
        }
      ],
      "stateMutability": "view",
      "type": "function"
    },
    {
      "inputs": [],
      "name": "symbol",
      "outputs": [
        {
          "internalType": "string",
          "name": "",
          "type": "string"
        }
      ],
      "stateMutability": "view",
      "type": "function"
    },
    {
      "inputs": [],
      "name": "totalBurned",
      "outputs": [
        {
          "internalType": "uint256",
          "name": "",
          "type": "uint256"
        }
      ],
      "stateMutability": "view",
      "type": "function"
    },
    {
      "inputs": [],
      "name": "totalRewardsDistributed",
      "outputs": [
        {
          "internalType": "uint256",
          "name": "",
          "type": "uint256"
        }
      ],
      "stateMutability": "view",
      "type": "function"
    },
    {
      "inputs": [],
      "name": "totalStaked",
      "outputs": [
        {
          "internalType": "uint256",
          "name": "",
          "type": "uint256"
        }
      ],
      "stateMutability": "view",
      "type": "function"
    },
    {
      "inputs": [],
      "name": "totalSupply",
      "outputs": [
        {
          "internalType": "uint256",
          "name": "",
          "type": "uint256"
        }
      ],
      "stateMutability": "view",
      "type": "function"
    },
    {
      "inputs": [
        {
          "internalType": "address",
          "name": "to",
          "type": "address"
        },
        {
          "internalType": "uint256",
          "name": "amount",
          "type": "uint256"
        }
      ],
      "name": "transfer",
      "outputs": [
        {
          "internalType": "bool",
          "name": "",
          "type": "bool"
        }
      ],
      "stateMutability": "nonpayable",
      "type": "function"
    },
    {
      "inputs": [
        {
          "internalType": "address",
          "name": "from",
          "type": "address"
        },
        {
          "internalType": "address",
          "name": "to",
          "type": "address"
        },
        {
          "internalType": "uint256",
          "name": "amount",
          "type": "uint256"
        }
      ],
      "name": "transferFrom",
      "outputs": [
        {
          "internalType": "bool",
          "name": "",
          "type": "bool"
        }
      ],
      "stateMutability": "nonpayable",
      "type": "function"
    },
    {
      "inputs": [
        {
          "internalType": "address",
          "name": "newOwner",
          "type": "address"
        }
      ],
      "name": "transferOwnership",
      "outputs": [],
      "stateMutability": "nonpayable",
      "type": "function"
    },
    {
      "inputs": [],
      "name": "unpause",
      "outputs": [],
      "stateMutability": "nonpayable",
      "type": "function"
    },
    {
      "inputs": [],
      "name": "unstake",
      "outputs": [],
      "stateMutability": "nonpayable",
      "type": "function"
    },
    {
      "inputs": [
        {
          "internalType": "uint256",
          "name": "tier",
          "type": "uint256"
        },
        {
          "internalType": "uint256",
          "name": "minAmount",
          "type": "uint256"
        },
        {
          "internalType": "uint256",
          "name": "multiplier",
          "type": "uint256"
        },
        {
          "internalType": "uint256",
          "name": "lockPeriod",
          "type": "uint256"
        }
      ],
      "name": "updateStakingTier",
      "outputs": [],
      "stateMutability": "nonpayable",
      "type": "function"
    },
    {
      "inputs": [
        {
          "internalType": "address",
          "name": "newImplementation",
          "type": "address"
        }
      ],
      "name": "upgradeTo",
      "outputs": [],
      "stateMutability": "nonpayable",
      "type": "function"
    },
    {
      "inputs": [
        {
          "internalType": "address",
          "name": "newImplementation",
          "type": "address"
        },
        {
          "internalType": "bytes",
          "name": "data",
          "type": "bytes"
        }
      ],
      "name": "upgradeToAndCall",
      "outputs": [],
      "stateMutability": "payable",
      "type": "function"
    }
  ],
  "bytecode": "0x60a0604052306080526101cd805461ffff60a01b19169055348015602257600080fd5b50608051613fb361005a6000396000818161108c015281816110cc01528181611787015281816117c701526118a40152613fb36000f3fe6080604052600436106103ef5760003560e01c8063715018a611610208578063b7d6851911610118578063d89135cd116100ab578063e3d3f8431161007a578063e3d3f84314610bfc578063ee17254614610c11578063f2fde38b14610c28578063f9428f3814610823578063fd99cbed14610c4857600080fd5b8063d89135cd14610b82578063db2e21bc14610b99578063dd62ed3e14610bae578063e30569e514610bce57600080fd5b8063bf1ad7e0116100e7578063bf1ad7e014610acc578063c3fb4d6214610b19578063d50267ee14610b30578063d86b56f714610b6d57600080fd5b8063b7d6851914610aac578063b99dcae514610acc578063be6fe8e914610ae2578063bed9985014610b0257600080fd5b80639231cf741161019b5780639a46e4121161016a5780639a46e41214610998578063a457c2d7146109ad578063a9059cbb146109cd578063aa4704f3146109ed578063b3c6cd7614610a3a57600080fd5b80639231cf74146108e357806394eecb50146108fa57806395d89b411461096d578063993eb1c51461098257600080fd5b8063817b1cd2116101d7578063817b1cd2146108795780638456cb59146108905780638da5cb5b146108a55780638faa1856146108c357600080fd5b8063715018a61461080e578063718dc3c31461082357806379cc6790146108395780637b0472f01461085957600080fd5b80633c0847f51161030357806351858e27116102965780635c975abb116102655780635c975abb14610744578063683d12b01461075c5780636b12686b1461078a57806370a082311461079f57806370d5ae05146107d557600080fd5b806351858e27146106e157806352d1902d146106f65780635747e69f1461070b5780635ba1c1a91461072d57600080fd5b80634a4e3bd5116102d25780634a4e3bd5146106825780634cd88b76146106975780634f1ef286146106b75780634f3fc2df146106ca57600080fd5b80633c0847f5146106185780633f4ba83a1461062d57806340c10f191461064257806342966c681461066257600080fd5b80632ff2e9dc11610386578063363015331161035557806336301533146105975780633659cfe6146105ac578063372500ab146105cc57806339509351146105e1578063399585aa1461060157600080fd5b80632ff2e9dc1461051c578063313ce5671461053b57806332cb6b0c1461055757806335c3c8bf1461057757600080fd5b8063189d165e116103c2578063189d165e146104a357806323b872dd146104c557806327c830a9146104e55780632def66201461050757600080fd5b806306fdde03146103f4578063095ea7b31461041f578063097cd9bf1461044f57806318160ddd14610484575b600080fd5b34801561040057600080fd5b50610409610c5e565b604051610416919061388b565b60405180910390f35b34801561042b57600080fd5b5061043f61043a3660046138da565b610cf0565b6040519015158152602001610416565b34801561045b57600080fd5b50610464610d0a565b604080519485526020850193909352918301526060820152608001610416565b34801561049057600080fd5b506035545b604051908152602001610416565b3480156104af57600080fd5b506104c36104be366004613904565b610d33565b005b3480156104d157600080fd5b5061043f6104e036600461391d565b610da1565b3480156104f157600080fd5b506101cd5461043f90600160a01b900460ff1681565b34801561051357600080fd5b506104c3610dc5565b34801561052857600080fd5b506104956a52b7d2dcc80cd2e400000081565b34801561054757600080fd5b5060405160128152602001610416565b34801561056357600080fd5b506104956b033b2e3c9fd0803ce800000081565b34801561058357600080fd5b506104c361059236600461395a565b610f15565b3480156105a357600080fd5b506104c361102a565b3480156105b857600080fd5b506104c36105c736600461398c565b611082565b3480156105d857600080fd5b506104c3611161565b3480156105ed57600080fd5b5061043f6105fc3660046138da565b611233565b34801561060d57600080fd5b506104956101ca5481565b34801561062457600080fd5b50610495600081565b34801561063957600080fd5b506104c3611255565b34801561064e57600080fd5b506104c361065d3660046138da565b611265565b34801561066e57600080fd5b506104c361067d366004613904565b6112df565b34801561068e57600080fd5b506104c36112e9565b3480156106a357600080fd5b506104c36106b23660046139f0565b61132f565b6104c36106c5366004613a77565b61177d565b3480156106d657600080fd5b506104956101c75481565b3480156106ed57600080fd5b506104c3611849565b34801561070257600080fd5b50610495611897565b34801561071757600080fd5b506101cd5461043f90600160a81b900460ff1681565b34801561073957600080fd5b506104956202a30081565b34801561075057600080fd5b5060975460ff1661043f565b34801561076857600080fd5b50610495610777366004613904565b6101c96020526000908152604090205481565b34801561079657600080fd5b50610495606481565b3480156107ab57600080fd5b506104956107ba36600461398c565b6001600160a01b031660009081526033602052604090205490565b3480156107e157600080fd5b506101cd546107f6906001600160a01b031681565b6040516001600160a01b039091168152602001610416565b34801561081a57600080fd5b506104c361194a565b34801561082f57600080fd5b506104956103e881565b34801561084557600080fd5b506104c36108543660046138da565b61195c565b34801561086557600080fd5b506104c3610874366004613b41565b611971565b34801561088557600080fd5b506104956101c55481565b34801561089c57600080fd5b506104c3611d31565b3480156108b157600080fd5b5060fb546001600160a01b03166107f6565b3480156108cf57600080fd5b506104c36108de366004613b63565b611d41565b3480156108ef57600080fd5b506104956101c85481565b34801561090657600080fd5b5061094561091536600461398c565b6101c360205260009081526040902080546001820154600283015460038401546004909401549293919290919085565b604080519586526020860194909452928401919091526060830152608082015260a001610416565b34801561097957600080fd5b50610409611e4c565b34801561098e57600080fd5b50610495610fa081565b3480156109a457600080fd5b50610495600181565b3480156109b957600080fd5b5061043f6109c83660046138da565b611e5b565b3480156109d957600080fd5b5061043f6109e83660046138da565b611ed6565b3480156109f957600080fd5b50610a0d610a0836600461398c565b611ee4565b604080519687526020870195909552938501929092526060840152608083015260a082015260c001610416565b348015610a4657600080fd5b50610a91610a55366004613904565b60008181526101c46020908152604091829020825160608101845281548082526001830154938201849052600290920154930183905293909250565b60408051938452602084019290925290820152606001610416565b348015610ab857600080fd5b506104c3610ac7366004613904565b611f73565b348015610ad857600080fd5b506104956105dc81565b348015610aee57600080fd5b506104c3610afd366004613904565b612114565b348015610b0e57600080fd5b506104956101cc5481565b348015610b2557600080fd5b5061049562278d0081565b348015610b3c57600080fd5b50610a91610b4b366004613904565b6101c46020526000908152604090208054600182015460029092015490919083565b348015610b7957600080fd5b50610495600381565b348015610b8e57600080fd5b506104956101cb5481565b348015610ba557600080fd5b506104c36121e7565b348015610bba57600080fd5b50610495610bc9366004613baf565b6122f5565b348015610bda57600080fd5b50610495610be9366004613904565b6101ce6020526000908152604090205481565b348015610c0857600080fd5b50610495600281565b348015610c1d57600080fd5b506104956101c65481565b348015610c3457600080fd5b506104c3610c4336600461398c565b612320565b348015610c5457600080fd5b506104956107d081565b606060368054610c6d90613be2565b80601f0160208091040260200160405190810160405280929190818152602001828054610c9990613be2565b8015610ce65780601f10610cbb57610100808354040283529160200191610ce6565b820191906000526020600020905b815481529060010190602001808311610cc957829003601f168201915b5050505050905090565b600033610cfe818585612396565b60019150505b92915050565b600080600080610d1960355490565b6101c5546101cb546101c654935093509350935090919293565b610d3b6124ba565b6064811115610d655760405162461bcd60e51b8152600401610d5c90613c1c565b60405180910390fd5b6101cc8190556040518181527f47863b595116a31383855975a4078913dce7881e717b75a06ced2db5d534ff789060200160405180910390a150565b600033610daf858285612514565b610dba85858561258e565b506001949350505050565b610dcd61269c565b3360009081526101c3602052604090208054610dfb5760405162461bcd60e51b8152600401610d5c90613c43565b80600201548160010154610e0f9190613c83565b421015610e565760405162461bcd60e51b8152602060048201526015602482015274131bd8dac81c195c9a5bd9081b9bdd08195b991959605a1b6044820152606401610d5c565b6000610e61336126f7565b905081600001546101c56000828254610e7a9190613c96565b90915550503360008181526101c360205260408120818155600181018290556002810182905560038101829055600401558254610eb891309161258e565b8015610ec857610ec8338261283a565b8154604080519182526020820183905233917f7fc4727e062e336010f2c282598ef5f14facb3de68cf8195c2f23e1454b2b74e91015b60405180910390a25050610f13600161012d55565b565b610f1d6124ba565b6003841115610f5d5760405162461bcd60e51b815260206004820152600c60248201526b24b73b30b634b2103a34b2b960a11b6044820152606401610d5c565b612710821015610fa45760405162461bcd60e51b81526020600482015260126024820152714d756c7469706c69657220746f6f206c6f7760701b6044820152606401610d5c565b6040805160608082018352858252602080830186815283850186815260008a81526101c484528690209451855590516001850155516002909301929092558251878152918201869052818301859052810183905290517f91940991fd73ef268916dee3054fe76c2defd6b2f7ea5936da2aca2ebfa568559181900360800190a150505050565b6110326124ba565b6101cd805460ff60a81b1916600160a81b1790556040517f25004abd8ec665bad2ee0fe374e3b11952166214e204b05d2ea4122417dc2204906110789042815260200190565b60405180910390a1565b6001600160a01b037f00000000000000000000000000000000000000000000000000000000000000001630036110ca5760405162461bcd60e51b8152600401610d5c90613ca9565b7f00000000000000000000000000000000000000000000000000000000000000006001600160a01b0316611113600080516020613f37833981519152546001600160a01b031690565b6001600160a01b0316146111395760405162461bcd60e51b8152600401610d5c90613cf5565b61114281612916565b6040805160008082526020820190925261115e9183919061291e565b50565b61116961269c565b3360009081526101c36020526040902080546111975760405162461bcd60e51b8152600401610d5c90613c43565b60006111a2336126f7565b9050600081116111ea5760405162461bcd60e51b81526020600482015260136024820152724e6f207265776172647320746f20636c61696d60681b6044820152606401610d5c565b42600383015560006004830155611201338261283a565b60405181815233907ffc30cddea38e2bf4d6ea7d3f9ed3b6ad7f176419f4963bd81318067a4aee73fe90602001610efe565b600033610cfe81858561124683836122f5565b6112509190613c83565b612396565b61125d6124ba565b610f13612a89565b61126d6124ba565b6b033b2e3c9fd0803ce80000008161128460355490565b61128e9190613c83565b11156112d15760405162461bcd60e51b815260206004820152601260248201527145786365656473206d617820737570706c7960701b6044820152606401610d5c565b6112db8282612ad6565b5050565b61115e3382612ba3565b6112f16124ba565b6101cd805460ff60a01b191690556040514281527f4e8fee6624a216c6c87fdeaeaab7686889991b2c1ffcd95d51e9a30352e2908090602001611078565b600054610100900460ff161580801561134f5750600054600160ff909116105b806113695750303b158015611369575060005460ff166001145b6113cc5760405162461bcd60e51b815260206004820152602e60248201527f496e697469616c697a61626c653a20636f6e747261637420697320616c72656160448201526d191e481a5b9a5d1a585b1a5e995960921b6064820152608401610d5c565b6000805460ff1916600117905580156113ef576000805461ff0019166101001790555b61146285858080601f01602080910402602001604051908101604052809392919081815260200183838082843760009201919091525050604080516020601f89018190048102820181019092528781529250879150869081908401838280828437600092019190915250612ce392505050565b61146a612d14565b611472612d3b565b61147a612d6a565b611482612d99565b61148a612d14565b6101f46101c75560196101cc556101cd80546001600160a01b03191661dead179055426101c88190556101ca556117286040805160608082018352683635c9adc5dea000008252612710602080840191825262278d0084860190815260008080526101c480845295517f900a14da7b74a618a1c29a2c66a3b979a3228cef88a1bb8e8ee5ed807c9db89f5592517f900a14da7b74a618a1c29a2c66a3b979a3228cef88a1bb8e8ee5ed807c9db8a055517f900a14da7b74a618a1c29a2c66a3b979a3228cef88a1bb8e8ee5ed807c9db8a1558451808401865269021e19e0c9bab24000008152613a988183019081526276a7008288019081526001855286845291517ff6ccb3c78ad86b3231879707325826c087a2d02dd70eb918b97f248746719e7055517ff6ccb3c78ad86b3231879707325826c087a2d02dd70eb918b97f248746719e7155517ff6ccb3c78ad86b3231879707325826c087a2d02dd70eb918b97f248746719e725584518084018652690a968163f0a57b4000008152614e2081830190815262ed4e008288019081526002855286845291517f2a271a6e4d4f3524cc28dcdc2fc7eb3733f7b596bb6a78b6597c134ac9f9f96655517f2a271a6e4d4f3524cc28dcdc2fc7eb3733f7b596bb6a78b6597c134ac9f9f96755517f2a271a6e4d4f3524cc28dcdc2fc7eb3733f7b596bb6a78b6597c134ac9f9f968558451928301855269152d02c7e14af680000083526175308382019081526301e13380958401958652600390925292909252517f01fe604e604fe8f473951b43558adbf7f983ccc6feb0f0f4bfbc8e2d38dfcd2655517f01fe604e604fe8f473951b43558adbf7f983ccc6feb0f0f4bfbc8e2d38dfcd2755517f01fe604e604fe8f473951b43558adbf7f983ccc6feb0f0f4bfbc8e2d38dfcd2855565b611730612dc8565b8015611776576000805461ff0019169055604051600181527f7f26b83ff96e1f2b6a682f133852f6798a09c465da95921460cefb38474024989060200160405180910390a15b5050505050565b6001600160a01b037f00000000000000000000000000000000000000000000000000000000000000001630036117c55760405162461bcd60e51b8152600401610d5c90613ca9565b7f00000000000000000000000000000000000000000000000000000000000000006001600160a01b031661180e600080516020613f37833981519152546001600160a01b031690565b6001600160a01b0316146118345760405162461bcd60e51b8152600401610d5c90613cf5565b61183d82612916565b6112db8282600161291e565b6118516124ba565b6101cd805460ff60a01b1916600160a01b1790556040517f11d8c430ae8dff60717610a0356ce3ac35187fc9569e6adfe01d281cc1c167d5906110789042815260200190565b6000306001600160a01b037f000000000000000000000000000000000000000000000000000000000000000016146119375760405162461bcd60e51b815260206004820152603860248201527f555550535570677261646561626c653a206d757374206e6f742062652063616c60448201527f6c6564207468726f7567682064656c656761746563616c6c00000000000000006064820152608401610d5c565b50600080516020613f3783398151915290565b6119526124ba565b610f136000612fb3565b611967823383612514565b6112db8282612ba3565b61197961269c565b611981613005565b6101cd54600160a01b900460ff16156119dc5760405162461bcd60e51b815260206004820152601c60248201527f436f6e747261637420697320656d657267656e637920706175736564000000006044820152606401610d5c565b60008211611a2c5760405162461bcd60e51b815260206004820152601d60248201527f416d6f756e74206d7573742062652067726561746572207468616e20300000006044820152606401610d5c565b6003811115611a6c5760405162461bcd60e51b815260206004820152600c60248201526b24b73b30b634b2103a34b2b960a11b6044820152606401610d5c565b60008181526101c460209081526040918290208251606081018452815480825260018301549382019390935260029091015492810192909252831015611af45760405162461bcd60e51b815260206004820152601960248201527f416d6f756e742062656c6f772074696572206d696e696d756d000000000000006044820152606401610d5c565b3360009081526101c360205260409020805415611c97576000611b16336126f7565b905080826004016000828254611b2c9190613c83565b90915550508154600090611b41908790613c83565b90506000611b52846000015461304b565b90506000611b5f8361304b565b9050818114611bc55760405162461bcd60e51b815260206004820152602c60248201527f54696572206368616e6765206e6f7420616c6c6f77656420666f72206164646960448201526b74696f6e616c207374616b6560a01b6064820152608401610d5c565b868114611c045760405162461bcd60e51b815260206004820152600d60248201526c0a8d2cae440dad2e6dac2e8c6d609b1b6044820152606401610d5c565b6003871015611c87576101c46000611c1d896001613c83565b8152602001908152602001600020600001548310611c875760405162461bcd60e51b815260206004820152602160248201527f416d6f756e7420657863656564732063757272656e742074696572206c696d696044820152601d60fa1b6064820152608401610d5c565b5050825550426003820155611cb9565b8381554260018201819055604083015160028301556003820155600060048201555b611cc433308661258e565b836101c56000828254611cd79190613c83565b90915550506040828101518151868152602081019190915290810184905233907fb4caaf29adda3eefee3ad552a8e85058589bf834c7466cae4ee58787f70589ed9060600160405180910390a250506112db600161012d55565b611d396124ba565b610f13613106565b60008311611d915760405162461bcd60e51b815260206004820152601d60248201527f416d6f756e74206d7573742062652067726561746572207468616e20300000006044820152606401610d5c565b33600090815260336020526040902054831115611de75760405162461bcd60e51b8152602060048201526014602482015273496e73756666696369656e742062616c616e636560601b6044820152606401610d5c565b611df13384612ba3565b826101cb6000828254611e049190613c83565b909155505060405133907ffad31924d655455395c87544c8aa1ffdb5a7505a22a3c2e03f28003b6556a75f90611e3f90869086908690613d41565b60405180910390a2505050565b606060378054610c6d90613be2565b60003381611e6982866122f5565b905083811015611ec95760405162461bcd60e51b815260206004820152602560248201527f45524332303a2064656372656173656420616c6c6f77616e63652062656c6f77604482015264207a65726f60d81b6064820152608401610d5c565b610dba8286868403612396565b600033610cfe81858561258e565b6001600160a01b03811660009081526101c360209081526040808320815160a081018352815480825260018301549482018590526002830154938201849052600383015460608301819052600490930154608083015285948594859485948594909390929091611f538c6126f7565b8551611f5e9061304b565b949d939c50919a509850965090945092505050565b611f7b6124ba565b604051737365745374616b696e675265776172645261746560601b6020820152603481018290526000906054016040516020818303038152906040528051906020012090506101ce60008281526020019081526020016000205460000361201b5760405162461bcd60e51b81526020600482015260146024820152731058dd1a5bdb881b9bdd081cd8da19591d5b195960621b6044820152606401610d5c565b60008181526101ce60205260409020544210156120715760405162461bcd60e51b8152602060048201526014602482015273151a5b595b1bd8dac81b9bdd08195e1c1a5c995960621b6044820152606401610d5c565b6103e88211156120935760405162461bcd60e51b8152600401610d5c90613c1c565b6101c782905560008181526101ce602052604080822091909155517f39c078e0c9be5a018723ae5517e933105b55d82377b3f6b19db1933767a21bdc906120dd9084815260200190565b60405180910390a160405181907f9b5a634ce9dbcc1cc28dbce24cd5b30136689ff28f9ae433837bd68895d7d5e090600090a25050565b61211c6124ba565b6103e881111561213e5760405162461bcd60e51b8152600401610d5c90613c1c565b604051737365745374616b696e675265776172645261746560601b6020820152603481018290526000906054016040516020818303038152906040528051906020012090506202a300426121929190613c83565b60008281526101ce6020526040902055807fcea0074f4f4b38eaa71c648790bc6a479e43332613889d0b0f0aec9554d40e686121d16202a30042613c83565b6040519081526020015b60405180910390a25050565b6101cd54600160a81b900460ff166122415760405162461bcd60e51b815260206004820152601e60248201527f456d657267656e6379207769746864726177206e6f7420656e61626c656400006044820152606401610d5c565b3360009081526101c360205260409020805461226f5760405162461bcd60e51b8152600401610d5c90613c43565b80543360009081526101c3602052604081208181556001810182905560028101829055600381018290556004018190556101c580548392906122b2908490613c96565b909155506122c3905030338361258e565b60405181815233907f5fafa99d0643513820be26656b45130b01e1c03062e1266bf36f88cbd3bd9695906020016121db565b6001600160a01b03918216600090815260346020908152604080832093909416825291909152205490565b6123286124ba565b6001600160a01b03811661238d5760405162461bcd60e51b815260206004820152602660248201527f4f776e61626c653a206e6577206f776e657220697320746865207a65726f206160448201526564647265737360d01b6064820152608401610d5c565b61115e81612fb3565b6001600160a01b0383166123f85760405162461bcd60e51b8152602060048201526024808201527f45524332303a20617070726f76652066726f6d20746865207a65726f206164646044820152637265737360e01b6064820152608401610d5c565b6001600160a01b0382166124595760405162461bcd60e51b815260206004820152602260248201527f45524332303a20617070726f766520746f20746865207a65726f206164647265604482015261737360f01b6064820152608401610d5c565b6001600160a01b0383811660008181526034602090815260408083209487168084529482529182902085905590518481527f8c5be1e5ebec7d5bd14f71427d1e84f3dd0314c0f7b2291e5b200ac8c7c3b925910160405180910390a3505050565b60fb546001600160a01b03163314610f135760405162461bcd60e51b815260206004820181905260248201527f4f776e61626c653a2063616c6c6572206973206e6f7420746865206f776e65726044820152606401610d5c565b600061252084846122f5565b90506000198114612588578181101561257b5760405162461bcd60e51b815260206004820152601d60248201527f45524332303a20696e73756666696369656e7420616c6c6f77616e63650000006044820152606401610d5c565b6125888484848403612396565b50505050565b60006101cc541180156125aa57506001600160a01b0383163014155b80156125bf57506001600160a01b0382163014155b1561268c5760006127106101cc54836125d89190613d77565b6125e29190613d8e565b9050801561268a576125f48482612ba3565b806101cb60008282546126079190613c83565b9091555061261790508183613c96565b9150836001600160a01b03167ffad31924d655455395c87544c8aa1ffdb5a7505a22a3c2e03f28003b6556a75f826040516126819181526040602082018190526015908201527420baba3796b13ab9371037b7103a3930b739b332b960591b606082015260800190565b60405180910390a25b505b612697838383613143565b505050565b600261012d54036126ef5760405162461bcd60e51b815260206004820152601f60248201527f5265656e7472616e637947756172643a207265656e7472616e742063616c6c006044820152606401610d5c565b600261012d55565b6001600160a01b03811660009081526101c360209081526040808320815160a08101835281548082526001830154948201949094526002820154928101929092526003810154606083015260040154608082015290820361275b5750600092915050565b600061276a826000015161304b565b60008181526101c460209081526040808320815160608082018452825482526001830154948201949094526002909101549181019190915290850151929350916127b49042613c96565b9050806000036127cb575050506080015192915050565b600064496cebb800826101c75487600001516127e79190613d77565b6127f19190613d77565b6127fb9190613d8e565b905060006127108460200151836128129190613d77565b61281c9190613d8e565b905080866080015161282e9190613c83565b98975050505050505050565b3060009081526033602052604090205481811061287a5761285c30848461258e565b816101c6600082825461286f9190613c83565b909155506126979050565b6128826132f9565b600061288d846126f7565b90508082106128bf576128a130858361258e565b806101c660008282546128b49190613c83565b909155506125889050565b6101c7546000906128d1606484613d77565b6128db9190613d8e565b9050808310611776576128ef30868361258e565b806101c660008282546129029190613c83565b90915550505050505050565b600161012d55565b61115e6124ba565b7f4910fdfa16fed3260ed0e7147f7cc6da11a60208b5b9406d12a635614ffd91435460ff16156129515761269783613493565b826001600160a01b03166352d1902d6040518163ffffffff1660e01b8152600401602060405180830381865afa9250505080156129ab575060408051601f3d908101601f191682019092526129a891810190613db0565b60015b612a0e5760405162461bcd60e51b815260206004820152602e60248201527f45524331393637557067726164653a206e657720696d706c656d656e7461746960448201526d6f6e206973206e6f74205555505360901b6064820152608401610d5c565b600080516020613f378339815191528114612a7d5760405162461bcd60e51b815260206004820152602960248201527f45524331393637557067726164653a20756e737570706f727465642070726f786044820152681a58589b195555525160ba1b6064820152608401610d5c565b5061269783838361352f565b612a91613554565b6097805460ff191690557f5db9ee0a495bf2e6ff9c91a7834c1ba4fdd244a5e8aa4e537bd38aeae4b073aa335b6040516001600160a01b039091168152602001611078565b6001600160a01b038216612b2c5760405162461bcd60e51b815260206004820152601f60248201527f45524332303a206d696e7420746f20746865207a65726f2061646472657373006044820152606401610d5c565b612b386000838361359d565b8060356000828254612b4a9190613c83565b90915550506001600160a01b0382166000818152603360209081526040808320805486019055518481527fddf252ad1be2c89b69c2b068fc378daa952ba7f163c4a11628f55a4df523b3ef910160405180910390a35050565b6001600160a01b038216612c035760405162461bcd60e51b815260206004820152602160248201527f45524332303a206275726e2066726f6d20746865207a65726f206164647265736044820152607360f81b6064820152608401610d5c565b612c0f8260008361359d565b6001600160a01b03821660009081526033602052604090205481811015612c835760405162461bcd60e51b815260206004820152602260248201527f45524332303a206275726e20616d6f756e7420657863656564732062616c616e604482015261636560f01b6064820152608401610d5c565b6001600160a01b03831660008181526033602090815260408083208686039055603580548790039055518581529192917fddf252ad1be2c89b69c2b068fc378daa952ba7f163c4a11628f55a4df523b3ef910160405180910390a3505050565b600054610100900460ff16612d0a5760405162461bcd60e51b8152600401610d5c90613dc9565b6112db82826135a8565b600054610100900460ff16610f135760405162461bcd60e51b8152600401610d5c90613dc9565b600054610100900460ff16612d625760405162461bcd60e51b8152600401610d5c90613dc9565b610f136135e8565b600054610100900460ff16612d915760405162461bcd60e51b8152600401610d5c90613dc9565b610f1361361b565b600054610100900460ff16612dc05760405162461bcd60e51b8152600401610d5c90613dc9565b610f1361364b565b6000612710612de4610fa06a52b7d2dcc80cd2e4000000613d77565b612dee9190613d8e565b9050612dfa3382612ad6565b6000612710612e166107d06a52b7d2dcc80cd2e4000000613d77565b612e209190613d8e565b9050612e2c3382612ad6565b6000612710612e486105dc6a52b7d2dcc80cd2e4000000613d77565b612e529190613d8e565b9050612e5e3382612ad6565b6000612710612e7a6105dc6a52b7d2dcc80cd2e4000000613d77565b612e849190613d8e565b9050612e903082612ad6565b6000612710612eac6103e86a52b7d2dcc80cd2e4000000613d77565b612eb69190613d8e565b9050612ec23382612ad6565b6000818385612ed1888a613c83565b612edb9190613c83565b612ee59190613c83565b612eef9190613c83565b90506a52b7d2dcc80cd2e4000000811115612f5c5760405162461bcd60e51b815260206004820152602760248201527f546f74616c20616c6c6f636174696f6e206578636565647320696e697469616c60448201526620737570706c7960c81b6064820152608401610d5c565b604080518781526020810187905290810185905260608101849052608081018390527f3befad135675625e5587bd75e1c3e27a96bf101bfdca64e2e7d89ab01632c9379060a00160405180910390a1505050505050565b60fb80546001600160a01b038381166001600160a01b0319831681179093556040519116919082907f8be0079c531659141344cd1fd0a4f28419497f9722a3daafe3b4186f6b6457e090600090a35050565b60975460ff1615610f135760405162461bcd60e51b815260206004820152601060248201526f14185d5cd8589b194e881c185d5cd95960821b6044820152606401610d5c565b600360009081526101c46020527f01fe604e604fe8f473951b43558adbf7f983ccc6feb0f0f4bfbc8e2d38dfcd2654821061308857506003919050565b60026000526101c46020527f2a271a6e4d4f3524cc28dcdc2fc7eb3733f7b596bb6a78b6597c134ac9f9f9665482106130c357506002919050565b60016000526101c46020527ff6ccb3c78ad86b3231879707325826c087a2d02dd70eb918b97f248746719e705482106130fe57506001919050565b506000919050565b61310e613005565b6097805460ff191660011790557f62e78cea01bee320cd4e420270b5ea74000d11b0c9f74754ebdbfc544b05a258612abe3390565b6001600160a01b0383166131a75760405162461bcd60e51b815260206004820152602560248201527f45524332303a207472616e736665722066726f6d20746865207a65726f206164604482015264647265737360d81b6064820152608401610d5c565b6001600160a01b0382166132095760405162461bcd60e51b815260206004820152602360248201527f45524332303a207472616e7366657220746f20746865207a65726f206164647260448201526265737360e81b6064820152608401610d5c565b61321483838361359d565b6001600160a01b0383166000908152603360205260409020548181101561328c5760405162461bcd60e51b815260206004820152602660248201527f45524332303a207472616e7366657220616d6f756e7420657863656564732062604482015265616c616e636560d01b6064820152608401610d5c565b6001600160a01b0380851660008181526033602052604080822086860390559286168082529083902080548601905591517fddf252ad1be2c89b69c2b068fc378daa952ba7f163c4a11628f55a4df523b3ef906132ec9086815260200190565b60405180910390a3612588565b62278d006101ca5461330b9190613c83565b42101561335a5760405162461bcd60e51b815260206004820152601c60248201527f526174652061646a7573746d656e7420746f6f206672657175656e74000000006044820152606401610d5c565b306000908152603360205260408120546101c554909181900361337b575050565b60008161338a84612710613d77565b6133949190613d8e565b90506103e88110156133c55760646101c75460506133b29190613d77565b6133bc9190613d8e565b6101c75561340c565b6107d08110156133e15760646101c754605a6133b29190613d77565b61138881111561340c5760646101c75460696133fd9190613d77565b6134079190613d8e565b6101c7555b60646101c75410156134235760646101c755613438565b6103e86101c7541115613438576103e86101c7555b6101c7544360009081526101c9602052604090819020829055426101ca55517f39c078e0c9be5a018723ae5517e933105b55d82377b3f6b19db1933767a21bdc916134869190815260200190565b60405180910390a1505050565b6001600160a01b0381163b6135005760405162461bcd60e51b815260206004820152602d60248201527f455243313936373a206e657720696d706c656d656e746174696f6e206973206e60448201526c1bdd08184818dbdb9d1c9858dd609a1b6064820152608401610d5c565b600080516020613f3783398151915280546001600160a01b0319166001600160a01b0392909216919091179055565b61353883613672565b6000825111806135455750805b156126975761258883836136b2565b60975460ff16610f135760405162461bcd60e51b815260206004820152601460248201527314185d5cd8589b194e881b9bdd081c185d5cd95960621b6044820152606401610d5c565b6126978383836136de565b600054610100900460ff166135cf5760405162461bcd60e51b8152600401610d5c90613dc9565b60366135db8382613e5b565b5060376126978282613e5b565b600054610100900460ff1661360f5760405162461bcd60e51b8152600401610d5c90613dc9565b6097805460ff19169055565b600054610100900460ff166136425760405162461bcd60e51b8152600401610d5c90613dc9565b610f1333612fb3565b600054610100900460ff1661290e5760405162461bcd60e51b8152600401610d5c90613dc9565b61367b81613493565b6040516001600160a01b038216907fbc7cd75a20ee27fd9adebab32041f755214dbc6bffa90cc0225b39da2e5c2d3b90600090a250565b60606136d78383604051806060016040528060278152602001613f5760279139613744565b9392505050565b60975460ff16156126975760405162461bcd60e51b815260206004820152602a60248201527f45524332305061757361626c653a20746f6b656e207472616e736665722077686044820152691a5b19481c185d5cd95960b21b6064820152608401610d5c565b6060600080856001600160a01b0316856040516137619190613f1a565b600060405180830381855af49150503d806000811461379c576040519150601f19603f3d011682016040523d82523d6000602084013e6137a1565b606091505b50915091506137b2868383876137bc565b9695505050505050565b6060831561382b578251600003613824576001600160a01b0385163b6138245760405162461bcd60e51b815260206004820152601d60248201527f416464726573733a2063616c6c20746f206e6f6e2d636f6e74726163740000006044820152606401610d5c565b5081613835565b613835838361383d565b949350505050565b81511561384d5781518083602001fd5b8060405162461bcd60e51b8152600401610d5c919061388b565b60005b8381101561388257818101518382015260200161386a565b50506000910152565b60208152600082518060208401526138aa816040850160208701613867565b601f01601f19169190910160400192915050565b80356001600160a01b03811681146138d557600080fd5b919050565b600080604083850312156138ed57600080fd5b6138f6836138be565b946020939093013593505050565b60006020828403121561391657600080fd5b5035919050565b60008060006060848603121561393257600080fd5b61393b846138be565b9250613949602085016138be565b929592945050506040919091013590565b6000806000806080858703121561397057600080fd5b5050823594602084013594506040840135936060013592509050565b60006020828403121561399e57600080fd5b6136d7826138be565b60008083601f8401126139b957600080fd5b50813567ffffffffffffffff8111156139d157600080fd5b6020830191508360208285010111156139e957600080fd5b9250929050565b60008060008060408587031215613a0657600080fd5b843567ffffffffffffffff811115613a1d57600080fd5b613a29878288016139a7565b909550935050602085013567ffffffffffffffff811115613a4957600080fd5b613a55878288016139a7565b95989497509550505050565b634e487b7160e01b600052604160045260246000fd5b60008060408385031215613a8a57600080fd5b613a93836138be565b9150602083013567ffffffffffffffff811115613aaf57600080fd5b8301601f81018513613ac057600080fd5b803567ffffffffffffffff811115613ada57613ada613a61565b604051601f8201601f19908116603f0116810167ffffffffffffffff81118282101715613b0957613b09613a61565b604052818152828201602001871015613b2157600080fd5b816020840160208301376000602083830101528093505050509250929050565b60008060408385031215613b5457600080fd5b50508035926020909101359150565b600080600060408486031215613b7857600080fd5b83359250602084013567ffffffffffffffff811115613b9657600080fd5b613ba2868287016139a7565b9497909650939450505050565b60008060408385031215613bc257600080fd5b613bcb836138be565b9150613bd9602084016138be565b90509250929050565b600181811c90821680613bf657607f821691505b602082108103613c1657634e487b7160e01b600052602260045260246000fd5b50919050565b6020808252600d908201526c0a4c2e8ca40e8dede40d0d2ced609b1b604082015260600190565b60208082526010908201526f139bc81cdd185ada5b99c8199bdd5b9960821b604082015260600190565b634e487b7160e01b600052601160045260246000fd5b80820180821115610d0457610d04613c6d565b81810381811115610d0457610d04613c6d565b6020808252602c908201527f46756e6374696f6e206d7573742062652063616c6c6564207468726f7567682060408201526b19195b1959d85d1958d85b1b60a21b606082015260800190565b6020808252602c908201527f46756e6374696f6e206d7573742062652063616c6c6564207468726f7567682060408201526b6163746976652070726f787960a01b606082015260800190565b83815260406020820152816040820152818360608301376000818301606090810191909152601f909201601f1916010192915050565b8082028115828204841417610d0457610d04613c6d565b600082613dab57634e487b7160e01b600052601260045260246000fd5b500490565b600060208284031215613dc257600080fd5b5051919050565b6020808252602b908201527f496e697469616c697a61626c653a20636f6e7472616374206973206e6f74206960408201526a6e697469616c697a696e6760a81b606082015260800190565b601f82111561269757806000526020600020601f840160051c81016020851015613e3b5750805b601f840160051c820191505b818110156117765760008155600101613e47565b815167ffffffffffffffff811115613e7557613e75613a61565b613e8981613e838454613be2565b84613e14565b6020601f821160018114613ebd5760008315613ea55750848201515b600019600385901b1c1916600184901b178455611776565b600084815260208120601f198516915b82811015613eed5787850151825560209485019460019092019101613ecd565b5084821015613f0b5786840151600019600387901b60f8161c191681555b50505050600190811b01905550565b60008251613f2c818460208701613867565b919091019291505056fe360894a13ba1a3210667c828492db98dca3e2076cc3735a920a3ca505d382bbc416464726573733a206c6f772d6c6576656c2064656c65676174652063616c6c206661696c6564a264697066735822122039cc1672ebc01630dd27fd1e75ca4d65f0afb1d075a31d4db4c02e7078c2602164736f6c634300081e0033",
  "linkReferences": {},
  "deployedLinkReferences": {}
}