{
  "_format": "hh-sol-artifact-1",
  "contractName": "DIAPToken",
  "sourceName": "contracts/DIAPToken.sol",
  "abi": [
    {
      "anonymous": false,
      "inputs": [
        {
          "indexed": true,
          "internalType": "bytes32",
          "name": "actionHash",
          "type": "bytes32"
        }
      ],
      "name": "ActionExecuted",
      "type": "event"
    },
    {
      "anonymous": false,
      "inputs": [
        {
          "indexed": true,
          "internalType": "bytes32",
          "name": "actionHash",
          "type": "bytes32"
        },
        {
          "indexed": false,
          "internalType": "uint256",
          "name": "executeTime",
          "type": "uint256"
        }
      ],
      "name": "ActionScheduled",
      "type": "event"
    },
    {
      "anonymous": false,
      "inputs": [
        {
          "indexed": false,
          "internalType": "address",
          "name": "previousAdmin",
          "type": "address"
        },
        {
          "indexed": false,
          "internalType": "address",
          "name": "newAdmin",
          "type": "address"
        }
      ],
      "name": "AdminChanged",
      "type": "event"
    },
    {
      "anonymous": false,
      "inputs": [
        {
          "indexed": true,
          "internalType": "address",
          "name": "owner",
          "type": "address"
        },
        {
          "indexed": true,
          "internalType": "address",
          "name": "spender",
          "type": "address"
        },
        {
          "indexed": false,
          "internalType": "uint256",
          "name": "value",
          "type": "uint256"
        }
      ],
      "name": "Approval",
      "type": "event"
    },
    {
      "anonymous": false,
      "inputs": [
        {
          "indexed": true,
          "internalType": "address",
          "name": "beacon",
          "type": "address"
        }
      ],
      "name": "BeaconUpgraded",
      "type": "event"
    },
    {
      "anonymous": false,
      "inputs": [
        {
          "indexed": false,
          "internalType": "uint256",
          "name": "newRate",
          "type": "uint256"
        }
      ],
      "name": "BurnRateUpdated",
      "type": "event"
    },
    {
      "anonymous": false,
      "inputs": [
        {
          "indexed": false,
          "internalType": "uint256",
          "name": "timestamp",
          "type": "uint256"
        }
      ],
      "name": "EmergencyPaused",
      "type": "event"
    },
    {
      "anonymous": false,
      "inputs": [
        {
          "indexed": false,
          "internalType": "uint256",
          "name": "timestamp",
          "type": "uint256"
        }
      ],
      "name": "EmergencyUnpaused",
      "type": "event"
    },
    {
      "anonymous": false,
      "inputs": [
        {
          "indexed": true,
          "internalType": "address",
          "name": "user",
          "type": "address"
        },
        {
          "indexed": false,
          "internalType": "uint256",
          "name": "amount",
          "type": "uint256"
        }
      ],
      "name": "EmergencyWithdraw",
      "type": "event"
    },
    {
      "anonymous": false,
      "inputs": [
        {
          "indexed": false,
          "internalType": "uint256",
          "name": "timestamp",
          "type": "uint256"
        }
      ],
      "name": "EmergencyWithdrawEnabled",
      "type": "event"
    },
    {
      "anonymous": false,
      "inputs": [
        {
          "indexed": false,
          "internalType": "uint256",
          "name": "communityAmount",
          "type": "uint256"
        },
        {
          "indexed": false,
          "internalType": "uint256",
          "name": "teamAmount",
          "type": "uint256"
        },
        {
          "indexed": false,
          "internalType": "uint256",
          "name": "treasuryAmount",
          "type": "uint256"
        },
        {
          "indexed": false,
          "internalType": "uint256",
          "name": "stakingAmount",
          "type": "uint256"
        },
        {
          "indexed": false,
          "internalType": "uint256",
          "name": "liquidityAmount",
          "type": "uint256"
        }
      ],
      "name": "InitialDistributionCompleted",
      "type": "event"
    },
    {
      "anonymous": false,
      "inputs": [
        {
          "indexed": false,
          "internalType": "uint8",
          "name": "version",
          "type": "uint8"
        }
      ],
      "name": "Initialized",
      "type": "event"
    },
    {
      "anonymous": false,
      "inputs": [
        {
          "indexed": true,
          "internalType": "address",
          "name": "previousOwner",
          "type": "address"
        },
        {
          "indexed": true,
          "internalType": "address",
          "name": "newOwner",
          "type": "address"
        }
      ],
      "name": "OwnershipTransferred",
      "type": "event"
    },
    {
      "anonymous": false,
      "inputs": [
        {
          "indexed": false,
          "internalType": "address",
          "name": "account",
          "type": "address"
        }
      ],
      "name": "Paused",
      "type": "event"
    },
    {
      "anonymous": false,
      "inputs": [
        {
          "indexed": true,
          "internalType": "address",
          "name": "user",
          "type": "address"
        },
        {
          "indexed": false,
          "internalType": "uint256",
          "name": "amount",
          "type": "uint256"
        }
      ],
      "name": "RewardsClaimed",
      "type": "event"
    },
    {
      "anonymous": false,
      "inputs": [
        {
          "indexed": true,
          "internalType": "address",
          "name": "user",
          "type": "address"
        },
        {
          "indexed": false,
          "internalType": "uint256",
          "name": "amount",
          "type": "uint256"
        },
        {
          "indexed": false,
          "internalType": "uint256",
          "name": "lockPeriod",
          "type": "uint256"
        },
        {
          "indexed": false,
          "internalType": "uint256",
          "name": "tier",
          "type": "uint256"
        }
      ],
      "name": "Staked",
      "type": "event"
    },
    {
      "anonymous": false,
      "inputs": [
        {
          "indexed": false,
          "internalType": "uint256",
          "name": "newRate",
          "type": "uint256"
        }
      ],
      "name": "StakingRewardRateUpdated",
      "type": "event"
    },
    {
      "anonymous": false,
      "inputs": [
        {
          "indexed": false,
          "internalType": "uint256",
          "name": "tier",
          "type": "uint256"
        },
        {
          "indexed": false,
          "internalType": "uint256",
          "name": "minAmount",
          "type": "uint256"
        },
        {
          "indexed": false,
          "internalType": "uint256",
          "name": "multiplier",
          "type": "uint256"
        },
        {
          "indexed": false,
          "internalType": "uint256",
          "name": "lockPeriod",
          "type": "uint256"
        }
      ],
      "name": "StakingTierUpdated",
      "type": "event"
    },
    {
      "anonymous": false,
      "inputs": [
        {
          "indexed": true,
          "internalType": "address",
          "name": "from",
          "type": "address"
        },
        {
          "indexed": false,
          "internalType": "uint256",
          "name": "amount",
          "type": "uint256"
        },
        {
          "indexed": false,
          "internalType": "string",
          "name": "reason",
          "type": "string"
        }
      ],
      "name": "TokensBurned",
      "type": "event"
    },
    {
      "anonymous": false,
      "inputs": [
        {
          "indexed": true,
          "internalType": "address",
          "name": "from",
          "type": "address"
        },
        {
          "indexed": true,
          "internalType": "address",
          "name": "to",
          "type": "address"
        },
        {
          "indexed": false,
          "internalType": "uint256",
          "name": "value",
          "type": "uint256"
        }
      ],
      "name": "Transfer",
      "type": "event"
    },
    {
      "anonymous": false,
      "inputs": [
        {
          "indexed": false,
          "internalType": "address",
          "name": "account",
          "type": "address"
        }
      ],
      "name": "Unpaused",
      "type": "event"
    },
    {
      "anonymous": false,
      "inputs": [
        {
          "indexed": true,
          "internalType": "address",
          "name": "user",
          "type": "address"
        },
        {
          "indexed": false,
          "internalType": "uint256",
          "name": "amount",
          "type": "uint256"
        },
        {
          "indexed": false,
          "internalType": "uint256",
          "name": "rewards",
          "type": "uint256"
        }
      ],
      "name": "Unstaked",
      "type": "event"
    },
    {
      "anonymous": false,
      "inputs": [
        {
          "indexed": true,
          "internalType": "address",
          "name": "implementation",
          "type": "address"
        }
      ],
      "name": "Upgraded",
      "type": "event"
    },
    {
      "inputs": [],
      "name": "COMMUNITY_ALLOCATION",
      "outputs": [
        {
          "internalType": "uint256",
          "name": "",
          "type": "uint256"
        }
      ],
      "stateMutability": "view",
      "type": "function"
    },
    {
      "inputs": [],
      "name": "INITIAL_SUPPLY",
      "outputs": [
        {
          "internalType": "uint256",
          "name": "",
          "type": "uint256"
        }
      ],
      "stateMutability": "view",
      "type": "function"
    },
    {
      "inputs": [],
      "name": "INVESTOR_ALLOCATION",
      "outputs": [
        {
          "internalType": "uint256",
          "name": "",
          "type": "uint256"
        }
      ],
      "stateMutability": "view",
      "type": "function"
    },
    {
      "inputs": [],
      "name": "LIQUIDITY_ALLOCATION",
      "outputs": [
        {
          "internalType": "uint256",
          "name": "",
          "type": "uint256"
        }
      ],
      "stateMutability": "view",
      "type": "function"
    },
    {
      "inputs": [],
      "name": "MAX_REWARD_RATE",
      "outputs": [
        {
          "internalType": "uint256",
          "name": "",
          "type": "uint256"
        }
      ],
      "stateMutability": "view",
      "type": "function"
    },
    {
      "inputs": [],
      "name": "MAX_SUPPLY",
      "outputs": [
        {
          "internalType": "uint256",
          "name": "",
          "type": "uint256"
        }
      ],
      "stateMutability": "view",
      "type": "function"
    },
    {
      "inputs": [],
      "name": "MIN_REWARD_RATE",
      "outputs": [
        {
          "internalType": "uint256",
          "name": "",
          "type": "uint256"
        }
      ],
      "stateMutability": "view",
      "type": "function"
    },
    {
      "inputs": [],
      "name": "RATE_ADJUSTMENT_INTERVAL",
      "outputs": [
        {
          "internalType": "uint256",
          "name": "",
          "type": "uint256"
        }
      ],
      "stateMutability": "view",
      "type": "function"
    },
    {
      "inputs": [],
      "name": "STAKING_ALLOCATION",
      "outputs": [
        {
          "internalType": "uint256",
          "name": "",
          "type": "uint256"
        }
      ],
      "stateMutability": "view",
      "type": "function"
    },
    {
      "inputs": [],
      "name": "TEAM_ALLOCATION",
      "outputs": [
        {
          "internalType": "uint256",
          "name": "",
          "type": "uint256"
        }
      ],
      "stateMutability": "view",
      "type": "function"
    },
    {
      "inputs": [],
      "name": "TIER_BRONZE",
      "outputs": [
        {
          "internalType": "uint256",
          "name": "",
          "type": "uint256"
        }
      ],
      "stateMutability": "view",
      "type": "function"
    },
    {
      "inputs": [],
      "name": "TIER_GOLD",
      "outputs": [
        {
          "internalType": "uint256",
          "name": "",
          "type": "uint256"
        }
      ],
      "stateMutability": "view",
      "type": "function"
    },
    {
      "inputs": [],
      "name": "TIER_PLATINUM",
      "outputs": [
        {
          "internalType": "uint256",
          "name": "",
          "type": "uint256"
        }
      ],
      "stateMutability": "view",
      "type": "function"
    },
    {
      "inputs": [],
      "name": "TIER_SILVER",
      "outputs": [
        {
          "internalType": "uint256",
          "name": "",
          "type": "uint256"
        }
      ],
      "stateMutability": "view",
      "type": "function"
    },
    {
      "inputs": [],
      "name": "TIMELOCK_DELAY",
      "outputs": [
        {
          "internalType": "uint256",
          "name": "",
          "type": "uint256"
        }
      ],
      "stateMutability": "view",
      "type": "function"
    },
    {
      "inputs": [],
      "name": "TREASURY_ALLOCATION",
      "outputs": [
        {
          "internalType": "uint256",
          "name": "",
          "type": "uint256"
        }
      ],
      "stateMutability": "view",
      "type": "function"
    },
    {
      "inputs": [
        {
          "internalType": "address",
          "name": "owner",
          "type": "address"
        },
        {
          "internalType": "address",
          "name": "spender",
          "type": "address"
        }
      ],
      "name": "allowance",
      "outputs": [
        {
          "internalType": "uint256",
          "name": "",
          "type": "uint256"
        }
      ],
      "stateMutability": "view",
      "type": "function"
    },
    {
      "inputs": [
        {
          "internalType": "address",
          "name": "spender",
          "type": "address"
        },
        {
          "internalType": "uint256",
          "name": "amount",
          "type": "uint256"
        }
      ],
      "name": "approve",
      "outputs": [
        {
          "internalType": "bool",
          "name": "",
          "type": "bool"
        }
      ],
      "stateMutability": "nonpayable",
      "type": "function"
    },
    {
      "inputs": [
        {
          "internalType": "address",
          "name": "account",
          "type": "address"
        }
      ],
      "name": "balanceOf",
      "outputs": [
        {
          "internalType": "uint256",
          "name": "",
          "type": "uint256"
        }
      ],
      "stateMutability": "view",
      "type": "function"
    },
    {
      "inputs": [
        {
          "internalType": "uint256",
          "name": "amount",
          "type": "uint256"
        }
      ],
      "name": "burn",
      "outputs": [],
      "stateMutability": "nonpayable",
      "type": "function"
    },
    {
      "inputs": [],
      "name": "burnAddress",
      "outputs": [
        {
          "internalType": "address",
          "name": "",
          "type": "address"
        }
      ],
      "stateMutability": "view",
      "type": "function"
    },
    {
      "inputs": [
        {
          "internalType": "address",
          "name": "account",
          "type": "address"
        },
        {
          "internalType": "uint256",
          "name": "amount",
          "type": "uint256"
        }
      ],
      "name": "burnFrom",
      "outputs": [],
      "stateMutability": "nonpayable",
      "type": "function"
    },
    {
      "inputs": [],
      "name": "burnRate",
      "outputs": [
        {
          "internalType": "uint256",
          "name": "",
          "type": "uint256"
        }
      ],
      "stateMutability": "view",
      "type": "function"
    },
    {
      "inputs": [
        {
          "internalType": "uint256",
          "name": "amount",
          "type": "uint256"
        },
        {
          "internalType": "string",
          "name": "reason",
          "type": "string"
        }
      ],
      "name": "burnTokens",
      "outputs": [],
      "stateMutability": "nonpayable",
      "type": "function"
    },
    {
      "inputs": [],
      "name": "claimRewards",
      "outputs": [],
      "stateMutability": "nonpayable",
      "type": "function"
    },
    {
      "inputs": [],
      "name": "decimals",
      "outputs": [
        {
          "internalType": "uint8",
          "name": "",
          "type": "uint8"
        }
      ],
      "stateMutability": "view",
      "type": "function"
    },
    {
      "inputs": [
        {
          "internalType": "address",
          "name": "spender",
          "type": "address"
        },
        {
          "internalType": "uint256",
          "name": "subtractedValue",
          "type": "uint256"
        }
      ],
      "name": "decreaseAllowance",
      "outputs": [
        {
          "internalType": "bool",
          "name": "",
          "type": "bool"
        }
      ],
      "stateMutability": "nonpayable",
      "type": "function"
    },
    {
      "inputs": [],
      "name": "emergencyPause",
      "outputs": [],
      "stateMutability": "nonpayable",
      "type": "function"
    },
    {
      "inputs": [],
      "name": "emergencyPaused",
      "outputs": [
        {
          "internalType": "bool",
          "name": "",
          "type": "bool"
        }
      ],
      "stateMutability": "view",
      "type": "function"
    },
    {
      "inputs": [],
      "name": "emergencyUnpause",
      "outputs": [],
      "stateMutability": "nonpayable",
      "type": "function"
    },
    {
      "inputs": [],
      "name": "emergencyWithdraw",
      "outputs": [],
      "stateMutability": "nonpayable",
      "type": "function"
    },
    {
      "inputs": [],
      "name": "emergencyWithdrawEnabled",
      "outputs": [
        {
          "internalType": "bool",
          "name": "",
          "type": "bool"
        }
      ],
      "stateMutability": "view",
      "type": "function"
    },
    {
      "inputs": [],
      "name": "enableEmergencyWithdraw",
      "outputs": [],
      "stateMutability": "nonpayable",
      "type": "function"
    },
    {
      "inputs": [
        {
          "internalType": "address",
          "name": "user",
          "type": "address"
        }
      ],
      "name": "getStakingInfo",
      "outputs": [
        {
          "internalType": "uint256",
          "name": "amount",
          "type": "uint256"
        },
        {
          "internalType": "uint256",
          "name": "startTime",
          "type": "uint256"
        },
        {
          "internalType": "uint256",
          "name": "lockPeriod",
          "type": "uint256"
        },
        {
          "internalType": "uint256",
          "name": "lastClaimTime",
          "type": "uint256"
        },
        {
          "internalType": "uint256",
          "name": "pendingRewards",
          "type": "uint256"
        },
        {
          "internalType": "uint256",
          "name": "tier",
          "type": "uint256"
        }
      ],
      "stateMutability": "view",
      "type": "function"
    },
    {
      "inputs": [
        {
          "internalType": "uint256",
          "name": "tier",
          "type": "uint256"
        }
      ],
      "name": "getStakingTier",
      "outputs": [
        {
          "internalType": "uint256",
          "name": "minAmount",
          "type": "uint256"
        },
        {
          "internalType": "uint256",
          "name": "multiplier",
          "type": "uint256"
        },
        {
          "internalType": "uint256",
          "name": "lockPeriod",
          "type": "uint256"
        }
      ],
      "stateMutability": "view",
      "type": "function"
    },
    {
      "inputs": [],
      "name": "getTokenStats",
      "outputs": [
        {
          "internalType": "uint256",
          "name": "totalSupply_",
          "type": "uint256"
        },
        {
          "internalType": "uint256",
          "name": "totalStaked_",
          "type": "uint256"
        },
        {
          "internalType": "uint256",
          "name": "totalBurned_",
          "type": "uint256"
        },
        {
          "internalType": "uint256",
          "name": "totalRewards_",
          "type": "uint256"
        }
      ],
      "stateMutability": "view",
      "type": "function"
    },
    {
      "inputs": [
        {
          "internalType": "address",
          "name": "spender",
          "type": "address"
        },
        {
          "internalType": "uint256",
          "name": "addedValue",
          "type": "uint256"
        }
      ],
      "name": "increaseAllowance",
      "outputs": [
        {
          "internalType": "bool",
          "name": "",
          "type": "bool"
        }
      ],
      "stateMutability": "nonpayable",
      "type": "function"
    },
    {
      "inputs": [
        {
          "internalType": "string",
          "name": "tokenName",
          "type": "string"
        },
        {
          "internalType": "string",
          "name": "tokenSymbol",
          "type": "string"
        }
      ],
      "name": "initialize",
      "outputs": [],
      "stateMutability": "nonpayable",
      "type": "function"
    },
    {
      "inputs": [],
      "name": "lastRateAdjustment",
      "outputs": [
        {
          "internalType": "uint256",
          "name": "",
          "type": "uint256"
        }
      ],
      "stateMutability": "view",
      "type": "function"
    },
    {
      "inputs": [],
      "name": "lastRewardTime",
      "outputs": [
        {
          "internalType": "uint256",
          "name": "",
          "type": "uint256"
        }
      ],
      "stateMutability": "view",
      "type": "function"
    },
    {
      "inputs": [
        {
          "internalType": "address",
          "name": "to",
          "type": "address"
        },
        {
          "internalType": "uint256",
          "name": "amount",
          "type": "uint256"
        }
      ],
      "name": "mint",
      "outputs": [],
      "stateMutability": "nonpayable",
      "type": "function"
    },
    {
      "inputs": [],
      "name": "name",
      "outputs": [
        {
          "internalType": "string",
          "name": "",
          "type": "string"
        }
      ],
      "stateMutability": "view",
      "type": "function"
    },
    {
      "inputs": [],
      "name": "owner",
      "outputs": [
        {
          "internalType": "address",
          "name": "",
          "type": "address"
        }
      ],
      "stateMutability": "view",
      "type": "function"
    },
    {
      "inputs": [],
      "name": "pause",
      "outputs": [],
      "stateMutability": "nonpayable",
      "type": "function"
    },
    {
      "inputs": [],
      "name": "paused",
      "outputs": [
        {
          "internalType": "bool",
          "name": "",
          "type": "bool"
        }
      ],
      "stateMutability": "view",
      "type": "function"
    },
    {
      "inputs": [
        {
          "internalType": "bytes32",
          "name": "",
          "type": "bytes32"
        }
      ],
      "name": "pendingActions",
      "outputs": [
        {
          "internalType": "uint256",
          "name": "",
          "type": "uint256"
        }
      ],
      "stateMutability": "view",
      "type": "function"
    },
    {
      "inputs": [],
      "name": "proxiableUUID",
      "outputs": [
        {
          "internalType": "bytes32",
          "name": "",
          "type": "bytes32"
        }
      ],
      "stateMutability": "view",
      "type": "function"
    },
    {
      "inputs": [],
      "name": "renounceOwnership",
      "outputs": [],
      "stateMutability": "nonpayable",
      "type": "function"
    },
    {
      "inputs": [
        {
          "internalType": "uint256",
          "name": "",
          "type": "uint256"
        }
      ],
      "name": "rewardRateHistory",
      "outputs": [
        {
          "internalType": "uint256",
          "name": "",
          "type": "uint256"
        }
      ],
      "stateMutability": "view",
      "type": "function"
    },
    {
      "inputs": [
        {
          "internalType": "uint256",
          "name": "_rate",
          "type": "uint256"
        }
      ],
      "name": "scheduleRewardRateChange",
      "outputs": [],
      "stateMutability": "nonpayable",
      "type": "function"
    },
    {
      "inputs": [
        {
          "internalType": "uint256",
          "name": "_rate",
          "type": "uint256"
        }
      ],
      "name": "setBurnRate",
      "outputs": [],
      "stateMutability": "nonpayable",
      "type": "function"
    },
    {
      "inputs": [
        {
          "internalType": "uint256",
          "name": "_rate",
          "type": "uint256"
        }
      ],
      "name": "setStakingRewardRate",
      "outputs": [],
      "stateMutability": "nonpayable",
      "type": "function"
    },
    {
      "inputs": [
        {
          "internalType": "uint256",
          "name": "amount",
          "type": "uint256"
        },
        {
          "internalType": "uint256",
          "name": "tier",
          "type": "uint256"
        }
      ],
      "name": "stake",
      "outputs": [],
      "stateMutability": "nonpayable",
      "type": "function"
    },
    {
      "inputs": [
        {
          "internalType": "address",
          "name": "",
          "type": "address"
        }
      ],
      "name": "stakingInfo",
      "outputs": [
        {
          "internalType": "uint256",
          "name": "amount",
          "type": "uint256"
        },
        {
          "internalType": "uint256",
          "name": "startTime",
          "type": "uint256"
        },
        {
          "internalType": "uint256",
          "name": "lockPeriod",
          "type": "uint256"
        },
        {
          "internalType": "uint256",
          "name": "lastClaimTime",
          "type": "uint256"
        },
        {
          "internalType": "uint256",
          "name": "pendingRewards",
          "type": "uint256"
        }
      ],
      "stateMutability": "view",
      "type": "function"
    },
    {
      "inputs": [],
      "name": "stakingRewardRate",
      "outputs": [
        {
          "internalType": "uint256",
          "name": "",
          "type": "uint256"
        }
      ],
      "stateMutability": "view",
      "type": "function"
    },
    {
      "inputs": [
        {
          "internalType": "uint256",
          "name": "",
          "type": "uint256"
        }
      ],
      "name": "stakingTiers",
      "outputs": [
        {
          "internalType": "uint256",
          "name": "minAmount",
          "type": "uint256"
        },
        {
          "internalType": "uint256",
          "name": "multiplier",
          "type": "uint256"
        },
        {
          "internalType": "uint256",
          "name": "lockPeriod",
          "type": "uint256"
        }
      ],
      "stateMutability": "view",
      "type": "function"
    },
    {
      "inputs": [],
      "name": "symbol",
      "outputs": [
        {
          "internalType": "string",
          "name": "",
          "type": "string"
        }
      ],
      "stateMutability": "view",
      "type": "function"
    },
    {
      "inputs": [],
      "name": "totalBurned",
      "outputs": [
        {
          "internalType": "uint256",
          "name": "",
          "type": "uint256"
        }
      ],
      "stateMutability": "view",
      "type": "function"
    },
    {
      "inputs": [],
      "name": "totalRewardsDistributed",
      "outputs": [
        {
          "internalType": "uint256",
          "name": "",
          "type": "uint256"
        }
      ],
      "stateMutability": "view",
      "type": "function"
    },
    {
      "inputs": [],
      "name": "totalStaked",
      "outputs": [
        {
          "internalType": "uint256",
          "name": "",
          "type": "uint256"
        }
      ],
      "stateMutability": "view",
      "type": "function"
    },
    {
      "inputs": [],
      "name": "totalSupply",
      "outputs": [
        {
          "internalType": "uint256",
          "name": "",
          "type": "uint256"
        }
      ],
      "stateMutability": "view",
      "type": "function"
    },
    {
      "inputs": [
        {
          "internalType": "address",
          "name": "to",
          "type": "address"
        },
        {
          "internalType": "uint256",
          "name": "amount",
          "type": "uint256"
        }
      ],
      "name": "transfer",
      "outputs": [
        {
          "internalType": "bool",
          "name": "",
          "type": "bool"
        }
      ],
      "stateMutability": "nonpayable",
      "type": "function"
    },
    {
      "inputs": [
        {
          "internalType": "address",
          "name": "from",
          "type": "address"
        },
        {
          "internalType": "address",
          "name": "to",
          "type": "address"
        },
        {
          "internalType": "uint256",
          "name": "amount",
          "type": "uint256"
        }
      ],
      "name": "transferFrom",
      "outputs": [
        {
          "internalType": "bool",
          "name": "",
          "type": "bool"
        }
      ],
      "stateMutability": "nonpayable",
      "type": "function"
    },
    {
      "inputs": [
        {
          "internalType": "address",
          "name": "newOwner",
          "type": "address"
        }
      ],
      "name": "transferOwnership",
      "outputs": [],
      "stateMutability": "nonpayable",
      "type": "function"
    },
    {
      "inputs": [],
      "name": "unpause",
      "outputs": [],
      "stateMutability": "nonpayable",
      "type": "function"
    },
    {
      "inputs": [],
      "name": "unstake",
      "outputs": [],
      "stateMutability": "nonpayable",
      "type": "function"
    },
    {
      "inputs": [
        {
          "internalType": "uint256",
          "name": "tier",
          "type": "uint256"
        },
        {
          "internalType": "uint256",
          "name": "minAmount",
          "type": "uint256"
        },
        {
          "internalType": "uint256",
          "name": "multiplier",
          "type": "uint256"
        },
        {
          "internalType": "uint256",
          "name": "lockPeriod",
          "type": "uint256"
        }
      ],
      "name": "updateStakingTier",
      "outputs": [],
      "stateMutability": "nonpayable",
      "type": "function"
    },
    {
      "inputs": [
        {
          "internalType": "address",
          "name": "newImplementation",
          "type": "address"
        }
      ],
      "name": "upgradeTo",
      "outputs": [],
      "stateMutability": "nonpayable",
      "type": "function"
    },
    {
      "inputs": [
        {
          "internalType": "address",
          "name": "newImplementation",
          "type": "address"
        },
        {
          "internalType": "bytes",
          "name": "data",
          "type": "bytes"
        }
      ],
      "name": "upgradeToAndCall",
      "outputs": [],
      "stateMutability": "payable",
      "type": "function"
    }
  ],
  "bytecode": "0x60a0604052306080526101cd805461ffff60a01b19169055348015602257600080fd5b50608051613e0561005a60003960008181610f3d01528181610f7d015281816115f20152818161163201526116f80152613e056000f3fe60806040526004361061031a5760003560e01c8063715018a6116101a3578063715018a614610707578063718dc3c31461071c57806379cc6790146107325780637b0472f014610752578063817b1cd2146107725780638456cb59146107895780638da5cb5b1461079e5780638faa1856146107b35780639231cf74146107d357806394eecb50146107ea57806395d89b4114610846578063993eb1c51461085b5780639a46e41214610871578063a457c2d714610886578063a9059cbb146108a6578063aa4704f3146108c6578063b3c6cd7614610913578063b7d6851914610985578063b99dcae514610532578063be6fe8e9146109a5578063bed99850146109c5578063bf1ad7e0146109dc578063c3fb4d62146109f2578063d50267ee14610a09578063d86b56f714610a46578063d89135cd14610a5b578063db2e21bc14610a72578063dd62ed3e14610a87578063e2571f5d14610aa7578063e30569e514610abd578063e3d3f84314610aeb578063ee17254614610b00578063f2fde38b14610b17578063f9428f3814610532578063fd99cbed14610aa757600080fd5b806306fdde031461031f578063095ea7b31461034a578063097cd9bf1461037a57806318160ddd1461039f578063189d165e146103be57806323b872dd146103e057806327c830a9146104005780632def6620146104225780632ff2e9dc14610437578063313ce5671461045657806332cb6b0c1461047257806335c3c8bf1461049157806336301533146104b15780633659cfe6146104c6578063372500ab146104e657806339509351146104fb578063399585aa1461051b5780633c0847f5146105325780633f4ba83a1461054757806340c10f191461055c57806342966c681461057c5780634a4e3bd51461059c5780634cd88b76146105b15780634f1ef286146105d15780634f3fc2df146105e457806351858e27146105fb57806352d1902d146106105780635747e69f146106255780635ba1c1a9146106475780635c975abb1461065e578063683d12b0146106765780636b12686b146106a457806370a08231146106b957806370d5ae05146106d9575b600080fd5b34801561032b57600080fd5b50610334610b37565b6040516103419190613552565b60405180910390f35b34801561035657600080fd5b5061036a6103653660046135a1565b610bc9565b6040519015158152602001610341565b34801561038657600080fd5b5061038f610be3565b60405161034194939291906135cb565b3480156103ab57600080fd5b506035545b604051908152602001610341565b3480156103ca57600080fd5b506103de6103d93660046135e6565b610c0c565b005b3480156103ec57600080fd5b5061036a6103fb3660046135ff565b610c7a565b34801561040c57600080fd5b506101cd5461036a90600160a01b900460ff1681565b34801561042e57600080fd5b506103de610c9e565b34801561044357600080fd5b506103b06a52b7d2dcc80cd2e400000081565b34801561046257600080fd5b5060405160128152602001610341565b34801561047e57600080fd5b506103b0676765c793fa10079d601b1b81565b34801561049d57600080fd5b506103de6104ac36600461363c565b610dee565b3480156104bd57600080fd5b506103de610edb565b3480156104d257600080fd5b506103de6104e136600461366e565b610f33565b3480156104f257600080fd5b506103de610ffb565b34801561050757600080fd5b5061036a6105163660046135a1565b6110cd565b34801561052757600080fd5b506103b06101ca5481565b34801561053e57600080fd5b506103b0600081565b34801561055357600080fd5b506103de6110ef565b34801561056857600080fd5b506103de6105773660046135a1565b6110ff565b34801561058857600080fd5b506103de6105973660046135e6565b611178565b3480156105a857600080fd5b506103de611182565b3480156105bd57600080fd5b506103de6105cc3660046136d1565b6111c8565b6103de6105df366004613756565b6115e8565b3480156105f057600080fd5b506103b06101c75481565b34801561060757600080fd5b506103de61169d565b34801561061c57600080fd5b506103b06116eb565b34801561063157600080fd5b506101cd5461036a90600160a81b900460ff1681565b34801561065357600080fd5b506103b06202a30081565b34801561066a57600080fd5b5060975460ff1661036a565b34801561068257600080fd5b506103b06106913660046135e6565b6101c96020526000908152604090205481565b3480156106b057600080fd5b506103b0606481565b3480156106c557600080fd5b506103b06106d436600461366e565b611799565b3480156106e557600080fd5b506101cd546106fa906001600160a01b031681565b604051610341919061381d565b34801561071357600080fd5b506103de6117b4565b34801561072857600080fd5b506103b06103e881565b34801561073e57600080fd5b506103de61074d3660046135a1565b6117c6565b34801561075e57600080fd5b506103de61076d366004613831565b6117db565b34801561077e57600080fd5b506103b06101c55481565b34801561079557600080fd5b506103de611b47565b3480156107aa57600080fd5b506106fa611b57565b3480156107bf57600080fd5b506103de6107ce366004613853565b611b66565b3480156107df57600080fd5b506103b06101c85481565b3480156107f657600080fd5b5061083561080536600461366e565b6101c360205260009081526040902080546001820154600283015460038401546004909401549293919290919085565b60405161034195949392919061389e565b34801561085257600080fd5b50610334611c28565b34801561086757600080fd5b506103b061119481565b34801561087d57600080fd5b506103b0600181565b34801561089257600080fd5b5061036a6108a13660046135a1565b611c37565b3480156108b257600080fd5b5061036a6108c13660046135a1565b611cb2565b3480156108d257600080fd5b506108e66108e136600461366e565b611cc0565b604080519687526020870195909552938501929092526060840152608083015260a082015260c001610341565b34801561091f57600080fd5b5061096a61092e3660046135e6565b60008181526101c46020908152604091829020825160608101845281548082526001830154938201849052600290920154930183905293909250565b60408051938452602084019290925290820152606001610341565b34801561099157600080fd5b506103de6109a03660046135e6565b611d4f565b3480156109b157600080fd5b506103de6109c03660046135e6565b611ec4565b3480156109d157600080fd5b506103b06101cc5481565b3480156109e857600080fd5b506103b06109c481565b3480156109fe57600080fd5b506103b062278d0081565b348015610a1557600080fd5b5061096a610a243660046135e6565b6101c46020526000908152604090208054600182015460029092015490919083565b348015610a5257600080fd5b506103b0600381565b348015610a6757600080fd5b506103b06101cb5481565b348015610a7e57600080fd5b506103de611f7d565b348015610a9357600080fd5b506103b0610aa23660046138c1565b61208b565b348015610ab357600080fd5b506103b06105dc81565b348015610ac957600080fd5b506103b0610ad83660046135e6565b6101ce6020526000908152604090205481565b348015610af757600080fd5b506103b0600281565b348015610b0c57600080fd5b506103b06101c65481565b348015610b2357600080fd5b506103de610b3236600461366e565b6120b6565b606060368054610b46906138f4565b80601f0160208091040260200160405190810160405280929190818152602001828054610b72906138f4565b8015610bbf5780601f10610b9457610100808354040283529160200191610bbf565b820191906000526020600020905b815481529060010190602001808311610ba257829003601f168201915b5050505050905090565b600033610bd781858561212c565b60019150505b92915050565b600080600080610bf260355490565b6101c5546101cb546101c654935093509350935090919293565b610c14612250565b6064811115610c3e5760405162461bcd60e51b8152600401610c359061392e565b60405180910390fd5b6101cc8190556040518181527f47863b595116a31383855975a4078913dce7881e717b75a06ced2db5d534ff789060200160405180910390a150565b600033610c888582856122af565b610c93858585612329565b506001949350505050565b610ca6612425565b3360009081526101c3602052604090208054610cd45760405162461bcd60e51b8152600401610c3590613955565b80600201548160010154610ce89190613995565b421015610d2f5760405162461bcd60e51b8152602060048201526015602482015274131bd8dac81c195c9a5bd9081b9bdd08195b991959605a1b6044820152606401610c35565b6000610d3a33612480565b905081600001546101c56000828254610d5391906139a8565b90915550503360008181526101c360205260408120818155600181018290556002810182905560038101829055600401558254610d91913091612329565b8015610da157610da133826125c3565b8154604080519182526020820183905233917f7fc4727e062e336010f2c282598ef5f14facb3de68cf8195c2f23e1454b2b74e91015b60405180910390a25050610dec600161012d55565b565b610df6612250565b6003841115610e175760405162461bcd60e51b8152600401610c35906139bb565b612710821015610e5e5760405162461bcd60e51b81526020600482015260126024820152714d756c7469706c69657220746f6f206c6f7760701b6044820152606401610c35565b60408051606081018252848152602080820185815282840185815260008981526101c4909352918490209251835551600183015551600290910155517f91940991fd73ef268916dee3054fe76c2defd6b2f7ea5936da2aca2ebfa5685590610ecd9086908690869086906135cb565b60405180910390a150505050565b610ee3612250565b6101cd805460ff60a81b1916600160a81b1790556040517f25004abd8ec665bad2ee0fe374e3b11952166214e204b05d2ea4122417dc220490610f299042815260200190565b60405180910390a1565b6001600160a01b037f0000000000000000000000000000000000000000000000000000000000000000163003610f7b5760405162461bcd60e51b8152600401610c35906139e1565b7f00000000000000000000000000000000000000000000000000000000000000006001600160a01b0316610fad61269c565b6001600160a01b031614610fd35760405162461bcd60e51b8152600401610c3590613a1b565b610fdc816126b8565b60408051600080825260208201909252610ff8918391906126c0565b50565b611003612425565b3360009081526101c36020526040902080546110315760405162461bcd60e51b8152600401610c3590613955565b600061103c33612480565b9050600081116110845760405162461bcd60e51b81526020600482015260136024820152724e6f207265776172647320746f20636c61696d60681b6044820152606401610c35565b4260038301556000600483015561109b33826125c3565b60405181815233907ffc30cddea38e2bf4d6ea7d3f9ed3b6ad7f176419f4963bd81318067a4aee73fe90602001610dd7565b600033610bd78185856110e0838361208b565b6110ea9190613995565b61212c565b6110f7612250565b610dec61282b565b611107612250565b676765c793fa10079d601b1b8161111d60355490565b6111279190613995565b111561116a5760405162461bcd60e51b815260206004820152601260248201527145786365656473206d617820737570706c7960701b6044820152606401610c35565b611174828261286d565b5050565b610ff83382612928565b61118a612250565b6101cd805460ff60a01b191690556040514281527f4e8fee6624a216c6c87fdeaeaab7686889991b2c1ffcd95d51e9a30352e2908090602001610f29565b600054610100900460ff16158080156111e85750600054600160ff909116105b8061120957506111f730612a56565b158015611209575060005460ff166001145b61126c5760405162461bcd60e51b815260206004820152602e60248201527f496e697469616c697a61626c653a20636f6e747261637420697320616c72656160448201526d191e481a5b9a5d1a585b1a5e995960921b6064820152608401610c35565b6000805460ff19166001179055801561128f576000805461ff0019166101001790555b61130285858080601f01602080910402602001604051908101604052809392919081815260200183838082843760009201919091525050604080516020601f89018190048102820181019092528781529250879150869081908401838280828437600092019190915250612a6592505050565b61130a612a96565b611312612abd565b61131a612aec565b611322612b1b565b61132a612a96565b6101f46101c75560196101cc556101cd80546001600160a01b03191661dead179055426101c88190556101ca556115926040805160608082018352683635c9adc5dea000008252612710602080840191825262278d0084860190815260008080526101c480845295517f900a14da7b74a618a1c29a2c66a3b979a3228cef88a1bb8e8ee5ed807c9db89f5592517f900a14da7b74a618a1c29a2c66a3b979a3228cef88a1bb8e8ee5ed807c9db8a055517f900a14da7b74a618a1c29a2c66a3b979a3228cef88a1bb8e8ee5ed807c9db8a1558451808401865269021e19e0c9bab24000008152613a988183019081526276a700828801908152600185528684529151600080516020613d9083398151915255517ff6ccb3c78ad86b3231879707325826c087a2d02dd70eb918b97f248746719e7155517ff6ccb3c78ad86b3231879707325826c087a2d02dd70eb918b97f248746719e725584518084018652690a968163f0a57b4000008152614e2081830190815262ed4e00828801908152600285528684529151600080516020613db083398151915255517f2a271a6e4d4f3524cc28dcdc2fc7eb3733f7b596bb6a78b6597c134ac9f9f96755517f2a271a6e4d4f3524cc28dcdc2fc7eb3733f7b596bb6a78b6597c134ac9f9f968558451928301855269152d02c7e14af680000083526175308382019081526301e1338095840195865260039092529290925251600080516020613cc983398151915255517f01fe604e604fe8f473951b43558adbf7f983ccc6feb0f0f4bfbc8e2d38dfcd2755517f01fe604e604fe8f473951b43558adbf7f983ccc6feb0f0f4bfbc8e2d38dfcd2855565b61159a612b4a565b80156115e1576000805461ff0019169055604051600181527f7f26b83ff96e1f2b6a682f133852f6798a09c465da95921460cefb3847402498906020015b60405180910390a15b5050505050565b6001600160a01b037f00000000000000000000000000000000000000000000000000000000000000001630036116305760405162461bcd60e51b8152600401610c35906139e1565b7f00000000000000000000000000000000000000000000000000000000000000006001600160a01b031661166261269c565b6001600160a01b0316146116885760405162461bcd60e51b8152600401610c3590613a1b565b611691826126b8565b611174828260016126c0565b6116a5612250565b6101cd805460ff60a01b1916600160a01b1790556040517f11d8c430ae8dff60717610a0356ce3ac35187fc9569e6adfe01d281cc1c167d590610f299042815260200190565b6000306001600160a01b037f000000000000000000000000000000000000000000000000000000000000000016146117865760405162461bcd60e51b815260206004820152603860248201527f555550535570677261646561626c653a206d757374206e6f742062652063616c6044820152771b1959081d1a1c9bdd59da0819195b1959d85d1958d85b1b60421b6064820152608401610c35565b50600080516020613d2983398151915290565b6001600160a01b031660009081526033602052604090205490565b6117bc612250565b610dec6000612cdb565b6117d18233836122af565b6111748282612928565b6117e3612425565b6117eb612d2d565b6101cd54600160a01b900460ff16156118455760405162461bcd60e51b815260206004820152601c60248201527b10dbdb9d1c9858dd081a5cc8195b595c99d95b98de481c185d5cd95960221b6044820152606401610c35565b600082116118655760405162461bcd60e51b8152600401610c3590613a55565b60038111156118865760405162461bcd60e51b8152600401610c35906139bb565b60008181526101c46020908152604091829020825160608101845281548082526001830154938201939093526002909101549281019290925283101561190a5760405162461bcd60e51b8152602060048201526019602482015278416d6f756e742062656c6f772074696572206d696e696d756d60381b6044820152606401610c35565b3360009081526101c360205260409020805415611aad57600061192c33612480565b9050808260040160008282546119429190613995565b90915550508154600090611957908790613995565b905060006119688460000154612d73565b9050600061197583612d73565b90508181146119db5760405162461bcd60e51b815260206004820152602c60248201527f54696572206368616e6765206e6f7420616c6c6f77656420666f72206164646960448201526b74696f6e616c207374616b6560a01b6064820152608401610c35565b868114611a1a5760405162461bcd60e51b815260206004820152600d60248201526c0a8d2cae440dad2e6dac2e8c6d609b1b6044820152606401610c35565b6003871015611a9d576101c46000611a33896001613995565b8152602001908152602001600020600001548310611a9d5760405162461bcd60e51b815260206004820152602160248201527f416d6f756e7420657863656564732063757272656e742074696572206c696d696044820152601d60fa1b6064820152608401610c35565b5050825550426003820155611acf565b8381554260018201819055604083015160028301556003820155600060048201555b611ada333086612329565b836101c56000828254611aed9190613995565b90915550506040828101518151868152602081019190915290810184905233907fb4caaf29adda3eefee3ad552a8e85058589bf834c7466cae4ee58787f70589ed9060600160405180910390a25050611174600161012d55565b611b4f612250565b610dec612df8565b60fb546001600160a01b031690565b60008311611b865760405162461bcd60e51b8152600401610c3590613a55565b82611b9033611799565b1015611bd55760405162461bcd60e51b8152602060048201526014602482015273496e73756666696369656e742062616c616e636560601b6044820152606401610c35565b611bdf3384612928565b826101cb6000828254611bf29190613995565b90915550506040513390600080516020613ca983398151915290611c1b90869086908690613a8c565b60405180910390a2505050565b606060378054610b46906138f4565b60003381611c45828661208b565b905083811015611ca55760405162461bcd60e51b815260206004820152602560248201527f45524332303a2064656372656173656420616c6c6f77616e63652062656c6f77604482015264207a65726f60d81b6064820152608401610c35565b610c93828686840361212c565b600033610bd7818585612329565b6001600160a01b03811660009081526101c360209081526040808320815160a081018352815480825260018301549482018590526002830154938201849052600383015460608301819052600490930154608083015285948594859485948594909390929091611d2f8c612480565b8551611d3a90612d73565b949d939c50919a509850965090945092505050565b611d57612250565b600081604051602001611d6a9190613ac2565b6040516020818303038152906040528051906020012090506101ce600082815260200190815260200160002054600003611ddd5760405162461bcd60e51b81526020600482015260146024820152731058dd1a5bdb881b9bdd081cd8da19591d5b195960621b6044820152606401610c35565b60008181526101ce6020526040902054421015611e335760405162461bcd60e51b8152602060048201526014602482015273151a5b595b1bd8dac81b9bdd08195e1c1a5c995960621b6044820152606401610c35565b6103e8821115611e555760405162461bcd60e51b8152600401610c359061392e565b6101c782905560008181526101ce60205260408082209190915551600080516020613ce983398151915290611e8d9084815260200190565b60405180910390a160405181907f9b5a634ce9dbcc1cc28dbce24cd5b30136689ff28f9ae433837bd68895d7d5e090600090a25050565b611ecc612250565b6103e8811115611eee5760405162461bcd60e51b8152600401610c359061392e565b600081604051602001611f019190613ac2565b6040516020818303038152906040528051906020012090506202a30042611f289190613995565b60008281526101ce6020526040902055807fcea0074f4f4b38eaa71c648790bc6a479e43332613889d0b0f0aec9554d40e68611f676202a30042613995565b6040519081526020015b60405180910390a25050565b6101cd54600160a81b900460ff16611fd75760405162461bcd60e51b815260206004820152601e60248201527f456d657267656e6379207769746864726177206e6f7420656e61626c656400006044820152606401610c35565b3360009081526101c36020526040902080546120055760405162461bcd60e51b8152600401610c3590613955565b80543360009081526101c3602052604081208181556001810182905560028101829055600381018290556004018190556101c580548392906120489084906139a8565b909155506120599050303383612329565b60405181815233907f5fafa99d0643513820be26656b45130b01e1c03062e1266bf36f88cbd3bd969590602001611f71565b6001600160a01b03918216600090815260346020908152604080832093909416825291909152205490565b6120be612250565b6001600160a01b0381166121235760405162461bcd60e51b815260206004820152602660248201527f4f776e61626c653a206e6577206f776e657220697320746865207a65726f206160448201526564647265737360d01b6064820152608401610c35565b610ff881612cdb565b6001600160a01b03831661218e5760405162461bcd60e51b8152602060048201526024808201527f45524332303a20617070726f76652066726f6d20746865207a65726f206164646044820152637265737360e01b6064820152608401610c35565b6001600160a01b0382166121ef5760405162461bcd60e51b815260206004820152602260248201527f45524332303a20617070726f766520746f20746865207a65726f206164647265604482015261737360f01b6064820152608401610c35565b6001600160a01b0383811660008181526034602090815260408083209487168084529482529182902085905590518481527f8c5be1e5ebec7d5bd14f71427d1e84f3dd0314c0f7b2291e5b200ac8c7c3b925910160405180910390a3505050565b33612259611b57565b6001600160a01b031614610dec5760405162461bcd60e51b815260206004820181905260248201527f4f776e61626c653a2063616c6c6572206973206e6f7420746865206f776e65726044820152606401610c35565b60006122bb848461208b565b9050600019811461232357818110156123165760405162461bcd60e51b815260206004820152601d60248201527f45524332303a20696e73756666696369656e7420616c6c6f77616e63650000006044820152606401610c35565b612323848484840361212c565b50505050565b60006101cc5411801561234557506001600160a01b0383163014155b801561235a57506001600160a01b0382163014155b156124155760006127106101cc54836123739190613aea565b61237d9190613b01565b905080156124135761238f8482612928565b806101cb60008282546123a29190613995565b909155506123b2905081836139a8565b9150836001600160a01b0316600080516020613ca98339815191528260405161240a9181526040602082018190526015908201527420baba3796b13ab9371037b7103a3930b739b332b960591b606082015260800190565b60405180910390a25b505b612420838383612e35565b505050565b600261012d54036124785760405162461bcd60e51b815260206004820152601f60248201527f5265656e7472616e637947756172643a207265656e7472616e742063616c6c006044820152606401610c35565b600261012d55565b6001600160a01b03811660009081526101c360209081526040808320815160a0810183528154808252600183015494820194909452600282015492810192909252600381015460608301526004015460808201529082036124e45750600092915050565b60006124f38260000151612d73565b60008181526101c4602090815260408083208151606080820184528254825260018301549482019490945260029091015491810191909152908501519293509161253d90426139a8565b905080600003612554575050506080015192915050565b600064496cebb800826101c75487600001516125709190613aea565b61257a9190613aea565b6125849190613b01565b9050600061271084602001518361259b9190613aea565b6125a59190613b01565b90508086608001516125b79190613995565b98975050505050505050565b60006125ce30611799565b9050818110612600576125e2308484612329565b816101c660008282546125f59190613995565b909155506124209050565b612608612fd9565b600061261384612480565b905080821061264557612627308583612329565b806101c6600082825461263a9190613995565b909155506123239050565b6101c754600090612657606484613aea565b6126619190613b01565b90508083106115e157612675308683612329565b806101c660008282546126889190613995565b90915550505050505050565b600161012d55565b600080516020613d29833981519152546001600160a01b031690565b610ff8612250565b7f4910fdfa16fed3260ed0e7147f7cc6da11a60208b5b9406d12a635614ffd91435460ff16156126f3576124208361315e565b826001600160a01b03166352d1902d6040518163ffffffff1660e01b8152600401602060405180830381865afa92505050801561274d575060408051601f3d908101601f1916820190925261274a91810190613b23565b60015b6127b05760405162461bcd60e51b815260206004820152602e60248201527f45524331393637557067726164653a206e657720696d706c656d656e7461746960448201526d6f6e206973206e6f74205555505360901b6064820152608401610c35565b600080516020613d29833981519152811461281f5760405162461bcd60e51b815260206004820152602960248201527f45524331393637557067726164653a20756e737570706f727465642070726f786044820152681a58589b195555525160ba1b6064820152608401610c35565b506124208383836131f8565b61283361321d565b6097805460ff191690557f5db9ee0a495bf2e6ff9c91a7834c1ba4fdd244a5e8aa4e537bd38aeae4b073aa335b604051610f29919061381d565b6001600160a01b0382166128c35760405162461bcd60e51b815260206004820152601f60248201527f45524332303a206d696e7420746f20746865207a65726f2061646472657373006044820152606401610c35565b6128cf60008383613266565b80603560008282546128e19190613995565b90915550506001600160a01b038216600081815260336020908152604080832080548601905551848152600080516020613d70833981519152910160405180910390a35050565b6001600160a01b0382166129885760405162461bcd60e51b815260206004820152602160248201527f45524332303a206275726e2066726f6d20746865207a65726f206164647265736044820152607360f81b6064820152608401610c35565b61299482600083613266565b6001600160a01b03821660009081526033602052604090205481811015612a085760405162461bcd60e51b815260206004820152602260248201527f45524332303a206275726e20616d6f756e7420657863656564732062616c616e604482015261636560f01b6064820152608401610c35565b6001600160a01b0383166000818152603360209081526040808320868603905560358054879003905551858152919291600080516020613d70833981519152910160405180910390a3505050565b6001600160a01b03163b151590565b600054610100900460ff16612a8c5760405162461bcd60e51b8152600401610c3590613b3c565b6111748282613271565b600054610100900460ff16610dec5760405162461bcd60e51b8152600401610c3590613b3c565b600054610100900460ff16612ae45760405162461bcd60e51b8152600401610c3590613b3c565b610dec6132b1565b600054610100900460ff16612b135760405162461bcd60e51b8152600401610c3590613b3c565b610dec6132e4565b600054610100900460ff16612b425760405162461bcd60e51b8152600401610c3590613b3c565b610dec613314565b6000612710612b666111946a52b7d2dcc80cd2e4000000613aea565b612b709190613b01565b9050612b7c338261286d565b6000612710612b986109c46a52b7d2dcc80cd2e4000000613aea565b612ba29190613b01565b9050612bae338261286d565b6000612710612bca6105dc6a52b7d2dcc80cd2e4000000613aea565b612bd49190613b01565b9050612be0338261286d565b6000612710612bfc6105dc6a52b7d2dcc80cd2e4000000613aea565b612c069190613b01565b9050612c12338261286d565b60008183612c208688613995565b612c2a9190613995565b612c349190613995565b90506a52b7d2dcc80cd2e40000008114612ca35760405162461bcd60e51b815260206004820152602a60248201527f546f74616c20616c6c6f636174696f6e206d75737420657175616c20696e697460448201526969616c20737570706c7960b01b6064820152608401610c35565b7f3befad135675625e5587bd75e1c3e27a96bf101bfdca64e2e7d89ab01632c9378584866000866040516115d895949392919061389e565b60fb80546001600160a01b038381166001600160a01b0319831681179093556040519116919082907f8be0079c531659141344cd1fd0a4f28419497f9722a3daafe3b4186f6b6457e090600090a35050565b60975460ff1615610dec5760405162461bcd60e51b815260206004820152601060248201526f14185d5cd8589b194e881c185d5cd95960821b6044820152606401610c35565b600360009081526101c4602052600080516020613cc9833981519152548210612d9e57506003919050565b60026000526101c4602052600080516020613db0833981519152548210612dc757506002919050565b60016000526101c4602052600080516020613d90833981519152548210612df057506001919050565b506000919050565b612e00612d2d565b6097805460ff191660011790557f62e78cea01bee320cd4e420270b5ea74000d11b0c9f74754ebdbfc544b05a2586128603390565b6001600160a01b038316612e995760405162461bcd60e51b815260206004820152602560248201527f45524332303a207472616e736665722066726f6d20746865207a65726f206164604482015264647265737360d81b6064820152608401610c35565b6001600160a01b038216612efb5760405162461bcd60e51b815260206004820152602360248201527f45524332303a207472616e7366657220746f20746865207a65726f206164647260448201526265737360e81b6064820152608401610c35565b612f06838383613266565b6001600160a01b03831660009081526033602052604090205481811015612f7e5760405162461bcd60e51b815260206004820152602660248201527f45524332303a207472616e7366657220616d6f756e7420657863656564732062604482015265616c616e636560d01b6064820152608401610c35565b6001600160a01b038085166000818152603360205260408082208686039055928616808252908390208054860190559151600080516020613d7083398151915290612fcc9086815260200190565b60405180910390a3612323565b62278d006101ca54612feb9190613995565b4210156130395760405162461bcd60e51b815260206004820152601c60248201527b14985d194818591a9d5cdd1b595b9d081d1bdbc8199c995c5d595b9d60221b6044820152606401610c35565b600061304430611799565b6101c5549091506000819003613058575050565b60008161306784612710613aea565b6130719190613b01565b90506103e88110156130a25760646101c754605061308f9190613aea565b6130999190613b01565b6101c7556130e9565b6107d08110156130be5760646101c754605a61308f9190613aea565b6113888111156130e95760646101c75460696130da9190613aea565b6130e49190613b01565b6101c7555b60646101c75410156131005760646101c755613115565b6103e86101c7541115613115576103e86101c7555b6101c7544360009081526101c9602052604090819020829055426101ca5551600080516020613ce9833981519152916131519190815260200190565b60405180910390a1505050565b61316781612a56565b6131c95760405162461bcd60e51b815260206004820152602d60248201527f455243313936373a206e657720696d706c656d656e746174696f6e206973206e60448201526c1bdd08184818dbdb9d1c9858dd609a1b6064820152608401610c35565b600080516020613d2983398151915280546001600160a01b0319166001600160a01b0392909216919091179055565b6132018361333b565b60008251118061320e5750805b1561242057612323838361337b565b60975460ff16610dec5760405162461bcd60e51b815260206004820152601460248201527314185d5cd8589b194e881b9bdd081c185d5cd95960621b6044820152606401610c35565b6124208383836133a7565b600054610100900460ff166132985760405162461bcd60e51b8152600401610c3590613b3c565b60366132a48382613bce565b5060376124208282613bce565b600054610100900460ff166132d85760405162461bcd60e51b8152600401610c3590613b3c565b6097805460ff19169055565b600054610100900460ff1661330b5760405162461bcd60e51b8152600401610c3590613b3c565b610dec33612cdb565b600054610100900460ff166126945760405162461bcd60e51b8152600401610c3590613b3c565b6133448161315e565b6040516001600160a01b038216907fbc7cd75a20ee27fd9adebab32041f755214dbc6bffa90cc0225b39da2e5c2d3b90600090a250565b60606133a08383604051806060016040528060278152602001613d496027913961340d565b9392505050565b60975460ff16156124205760405162461bcd60e51b815260206004820152602a60248201527f45524332305061757361626c653a20746f6b656e207472616e736665722077686044820152691a5b19481c185d5cd95960b21b6064820152608401610c35565b6060600080856001600160a01b03168560405161342a9190613c8c565b600060405180830381855af49150503d8060008114613465576040519150601f19603f3d011682016040523d82523d6000602084013e61346a565b606091505b509150915061347b86838387613485565b9695505050505050565b606083156134f25782516000036134eb5761349f85612a56565b6134eb5760405162461bcd60e51b815260206004820152601d60248201527f416464726573733a2063616c6c20746f206e6f6e2d636f6e74726163740000006044820152606401610c35565b50816134fc565b6134fc8383613504565b949350505050565b8151156135145781518083602001fd5b8060405162461bcd60e51b8152600401610c359190613552565b60005b83811015613549578181015183820152602001613531565b50506000910152565b602081526000825180602084015261357181604085016020870161352e565b601f01601f19169190910160400192915050565b80356001600160a01b038116811461359c57600080fd5b919050565b600080604083850312156135b457600080fd5b6135bd83613585565b946020939093013593505050565b93845260208401929092526040830152606082015260800190565b6000602082840312156135f857600080fd5b5035919050565b60008060006060848603121561361457600080fd5b61361d84613585565b925061362b60208501613585565b929592945050506040919091013590565b6000806000806080858703121561365257600080fd5b5050823594602084013594506040840135936060013592509050565b60006020828403121561368057600080fd5b6133a082613585565b60008083601f84011261369b57600080fd5b5081356001600160401b038111156136b257600080fd5b6020830191508360208285010111156136ca57600080fd5b9250929050565b600080600080604085870312156136e757600080fd5b84356001600160401b038111156136fd57600080fd5b61370987828801613689565b90955093505060208501356001600160401b0381111561372857600080fd5b61373487828801613689565b95989497509550505050565b634e487b7160e01b600052604160045260246000fd5b6000806040838503121561376957600080fd5b61377283613585565b915060208301356001600160401b0381111561378d57600080fd5b8301601f8101851361379e57600080fd5b80356001600160401b038111156137b7576137b7613740565b604051601f8201601f19908116603f011681016001600160401b03811182821017156137e5576137e5613740565b6040528181528282016020018710156137fd57600080fd5b816020840160208301376000602083830101528093505050509250929050565b6001600160a01b0391909116815260200190565b6000806040838503121561384457600080fd5b50508035926020909101359150565b60008060006040848603121561386857600080fd5b8335925060208401356001600160401b0381111561388557600080fd5b61389186828701613689565b9497909650939450505050565b948552602085019390935260408401919091526060830152608082015260a00190565b600080604083850312156138d457600080fd5b6138dd83613585565b91506138eb60208401613585565b90509250929050565b600181811c9082168061390857607f821691505b60208210810361392857634e487b7160e01b600052602260045260246000fd5b50919050565b6020808252600d908201526c0a4c2e8ca40e8dede40d0d2ced609b1b604082015260600190565b60208082526010908201526f139bc81cdd185ada5b99c8199bdd5b9960821b604082015260600190565b634e487b7160e01b600052601160045260246000fd5b80820180821115610bdd57610bdd61397f565b81810381811115610bdd57610bdd61397f565b6020808252600c908201526b24b73b30b634b2103a34b2b960a11b604082015260600190565b6020808252602c90820152600080516020613d0983398151915260408201526b19195b1959d85d1958d85b1b60a21b606082015260800190565b6020808252602c90820152600080516020613d0983398151915260408201526b6163746976652070726f787960a01b606082015260800190565b6020808252601d908201527f416d6f756e74206d7573742062652067726561746572207468616e2030000000604082015260600190565b83815260406020820152816040820152818360608301376000818301606090810191909152601f909201601f1916010192915050565b737365745374616b696e675265776172645261746560601b8152601481019190915260340190565b8082028115828204841417610bdd57610bdd61397f565b600082613b1e57634e487b7160e01b600052601260045260246000fd5b500490565b600060208284031215613b3557600080fd5b5051919050565b6020808252602b908201527f496e697469616c697a61626c653a20636f6e7472616374206973206e6f74206960408201526a6e697469616c697a696e6760a81b606082015260800190565b601f82111561242057806000526020600020601f840160051c81016020851015613bae5750805b601f840160051c820191505b818110156115e15760008155600101613bba565b81516001600160401b03811115613be757613be7613740565b613bfb81613bf584546138f4565b84613b87565b6020601f821160018114613c2f5760008315613c175750848201515b600019600385901b1c1916600184901b1784556115e1565b600084815260208120601f198516915b82811015613c5f5787850151825560209485019460019092019101613c3f565b5084821015613c7d5786840151600019600387901b60f8161c191681555b50505050600190811b01905550565b60008251613c9e81846020870161352e565b919091019291505056fefad31924d655455395c87544c8aa1ffdb5a7505a22a3c2e03f28003b6556a75f01fe604e604fe8f473951b43558adbf7f983ccc6feb0f0f4bfbc8e2d38dfcd2639c078e0c9be5a018723ae5517e933105b55d82377b3f6b19db1933767a21bdc46756e6374696f6e206d7573742062652063616c6c6564207468726f75676820360894a13ba1a3210667c828492db98dca3e2076cc3735a920a3ca505d382bbc416464726573733a206c6f772d6c6576656c2064656c65676174652063616c6c206661696c6564ddf252ad1be2c89b69c2b068fc378daa952ba7f163c4a11628f55a4df523b3eff6ccb3c78ad86b3231879707325826c087a2d02dd70eb918b97f248746719e702a271a6e4d4f3524cc28dcdc2fc7eb3733f7b596bb6a78b6597c134ac9f9f966a26469706673582212206a44af4b42fcc96852c1659457de988fbf5bae9e1bbdc3b6282d7d6bc56db6cf64736f6c634300081e0033",
  "linkReferences": {},
  "deployedLinkReferences": {}
}