{
  "_format": "hh-sol-artifact-1",
  "contractName": "DIAPToken",
  "sourceName": "contracts/DIAPToken.sol",
  "abi": [
    {
      "inputs": [],
      "name": "ActionNotScheduled",
      "type": "error"
    },
    {
      "inputs": [],
      "name": "AmountBelowTierMinimum",
      "type": "error"
    },
    {
      "inputs": [],
      "name": "AmountExceedsTierLimit",
      "type": "error"
    },
    {
      "inputs": [],
      "name": "AmountMustBeGreaterThanZero",
      "type": "error"
    },
    {
      "inputs": [],
      "name": "ContractEmergencyPaused",
      "type": "error"
    },
    {
      "inputs": [],
      "name": "EmergencyWithdrawNotEnabled",
      "type": "error"
    },
    {
      "inputs": [],
      "name": "ExceedsMaxSupply",
      "type": "error"
    },
    {
      "inputs": [],
      "name": "InsufficientBalance",
      "type": "error"
    },
    {
      "inputs": [],
      "name": "InvalidTier",
      "type": "error"
    },
    {
      "inputs": [],
      "name": "LockPeriodNotEnded",
      "type": "error"
    },
    {
      "inputs": [],
      "name": "MultiplierTooLow",
      "type": "error"
    },
    {
      "inputs": [],
      "name": "NoRewardsToClaim",
      "type": "error"
    },
    {
      "inputs": [],
      "name": "NoStakingFound",
      "type": "error"
    },
    {
      "inputs": [],
      "name": "RateAdjustmentTooFrequent",
      "type": "error"
    },
    {
      "inputs": [],
      "name": "RateTooHigh",
      "type": "error"
    },
    {
      "inputs": [],
      "name": "TierChangeNotAllowed",
      "type": "error"
    },
    {
      "inputs": [],
      "name": "TierMismatch",
      "type": "error"
    },
    {
      "inputs": [],
      "name": "TimelockNotExpired",
      "type": "error"
    },
    {
      "inputs": [],
      "name": "TotalAllocationMismatch",
      "type": "error"
    },
    {
      "anonymous": false,
      "inputs": [
        {
          "indexed": true,
          "internalType": "bytes32",
          "name": "actionHash",
          "type": "bytes32"
        }
      ],
      "name": "ActionExecuted",
      "type": "event"
    },
    {
      "anonymous": false,
      "inputs": [
        {
          "indexed": true,
          "internalType": "bytes32",
          "name": "actionHash",
          "type": "bytes32"
        },
        {
          "indexed": false,
          "internalType": "uint256",
          "name": "executeTime",
          "type": "uint256"
        }
      ],
      "name": "ActionScheduled",
      "type": "event"
    },
    {
      "anonymous": false,
      "inputs": [
        {
          "indexed": false,
          "internalType": "address",
          "name": "previousAdmin",
          "type": "address"
        },
        {
          "indexed": false,
          "internalType": "address",
          "name": "newAdmin",
          "type": "address"
        }
      ],
      "name": "AdminChanged",
      "type": "event"
    },
    {
      "anonymous": false,
      "inputs": [
        {
          "indexed": true,
          "internalType": "address",
          "name": "owner",
          "type": "address"
        },
        {
          "indexed": true,
          "internalType": "address",
          "name": "spender",
          "type": "address"
        },
        {
          "indexed": false,
          "internalType": "uint256",
          "name": "value",
          "type": "uint256"
        }
      ],
      "name": "Approval",
      "type": "event"
    },
    {
      "anonymous": false,
      "inputs": [
        {
          "indexed": true,
          "internalType": "address",
          "name": "beacon",
          "type": "address"
        }
      ],
      "name": "BeaconUpgraded",
      "type": "event"
    },
    {
      "anonymous": false,
      "inputs": [
        {
          "indexed": false,
          "internalType": "uint256",
          "name": "newRate",
          "type": "uint256"
        }
      ],
      "name": "BurnRateUpdated",
      "type": "event"
    },
    {
      "anonymous": false,
      "inputs": [
        {
          "indexed": false,
          "internalType": "uint256",
          "name": "timestamp",
          "type": "uint256"
        }
      ],
      "name": "EmergencyPaused",
      "type": "event"
    },
    {
      "anonymous": false,
      "inputs": [
        {
          "indexed": false,
          "internalType": "uint256",
          "name": "timestamp",
          "type": "uint256"
        }
      ],
      "name": "EmergencyUnpaused",
      "type": "event"
    },
    {
      "anonymous": false,
      "inputs": [
        {
          "indexed": true,
          "internalType": "address",
          "name": "user",
          "type": "address"
        },
        {
          "indexed": false,
          "internalType": "uint256",
          "name": "amount",
          "type": "uint256"
        }
      ],
      "name": "EmergencyWithdraw",
      "type": "event"
    },
    {
      "anonymous": false,
      "inputs": [
        {
          "indexed": false,
          "internalType": "uint256",
          "name": "timestamp",
          "type": "uint256"
        }
      ],
      "name": "EmergencyWithdrawEnabled",
      "type": "event"
    },
    {
      "anonymous": false,
      "inputs": [
        {
          "indexed": false,
          "internalType": "uint256",
          "name": "communityAmount",
          "type": "uint256"
        },
        {
          "indexed": false,
          "internalType": "uint256",
          "name": "teamAmount",
          "type": "uint256"
        },
        {
          "indexed": false,
          "internalType": "uint256",
          "name": "treasuryAmount",
          "type": "uint256"
        },
        {
          "indexed": false,
          "internalType": "uint256",
          "name": "stakingAmount",
          "type": "uint256"
        },
        {
          "indexed": false,
          "internalType": "uint256",
          "name": "liquidityAmount",
          "type": "uint256"
        }
      ],
      "name": "InitialDistributionCompleted",
      "type": "event"
    },
    {
      "anonymous": false,
      "inputs": [
        {
          "indexed": false,
          "internalType": "uint8",
          "name": "version",
          "type": "uint8"
        }
      ],
      "name": "Initialized",
      "type": "event"
    },
    {
      "anonymous": false,
      "inputs": [
        {
          "indexed": true,
          "internalType": "address",
          "name": "previousOwner",
          "type": "address"
        },
        {
          "indexed": true,
          "internalType": "address",
          "name": "newOwner",
          "type": "address"
        }
      ],
      "name": "OwnershipTransferred",
      "type": "event"
    },
    {
      "anonymous": false,
      "inputs": [
        {
          "indexed": false,
          "internalType": "address",
          "name": "account",
          "type": "address"
        }
      ],
      "name": "Paused",
      "type": "event"
    },
    {
      "anonymous": false,
      "inputs": [
        {
          "indexed": true,
          "internalType": "address",
          "name": "user",
          "type": "address"
        },
        {
          "indexed": false,
          "internalType": "uint256",
          "name": "amount",
          "type": "uint256"
        }
      ],
      "name": "RewardsClaimed",
      "type": "event"
    },
    {
      "anonymous": false,
      "inputs": [
        {
          "indexed": true,
          "internalType": "address",
          "name": "user",
          "type": "address"
        },
        {
          "indexed": false,
          "internalType": "uint256",
          "name": "amount",
          "type": "uint256"
        },
        {
          "indexed": false,
          "internalType": "uint256",
          "name": "lockPeriod",
          "type": "uint256"
        },
        {
          "indexed": false,
          "internalType": "uint256",
          "name": "tier",
          "type": "uint256"
        }
      ],
      "name": "Staked",
      "type": "event"
    },
    {
      "anonymous": false,
      "inputs": [
        {
          "indexed": false,
          "internalType": "uint256",
          "name": "newRate",
          "type": "uint256"
        }
      ],
      "name": "StakingRewardRateUpdated",
      "type": "event"
    },
    {
      "anonymous": false,
      "inputs": [
        {
          "indexed": false,
          "internalType": "uint256",
          "name": "tier",
          "type": "uint256"
        },
        {
          "indexed": false,
          "internalType": "uint256",
          "name": "minAmount",
          "type": "uint256"
        },
        {
          "indexed": false,
          "internalType": "uint256",
          "name": "multiplier",
          "type": "uint256"
        },
        {
          "indexed": false,
          "internalType": "uint256",
          "name": "lockPeriod",
          "type": "uint256"
        }
      ],
      "name": "StakingTierUpdated",
      "type": "event"
    },
    {
      "anonymous": false,
      "inputs": [
        {
          "indexed": true,
          "internalType": "address",
          "name": "from",
          "type": "address"
        },
        {
          "indexed": false,
          "internalType": "uint256",
          "name": "amount",
          "type": "uint256"
        },
        {
          "indexed": false,
          "internalType": "string",
          "name": "reason",
          "type": "string"
        }
      ],
      "name": "TokensBurned",
      "type": "event"
    },
    {
      "anonymous": false,
      "inputs": [
        {
          "indexed": true,
          "internalType": "address",
          "name": "from",
          "type": "address"
        },
        {
          "indexed": true,
          "internalType": "address",
          "name": "to",
          "type": "address"
        },
        {
          "indexed": false,
          "internalType": "uint256",
          "name": "value",
          "type": "uint256"
        }
      ],
      "name": "Transfer",
      "type": "event"
    },
    {
      "anonymous": false,
      "inputs": [
        {
          "indexed": false,
          "internalType": "address",
          "name": "account",
          "type": "address"
        }
      ],
      "name": "Unpaused",
      "type": "event"
    },
    {
      "anonymous": false,
      "inputs": [
        {
          "indexed": true,
          "internalType": "address",
          "name": "user",
          "type": "address"
        },
        {
          "indexed": false,
          "internalType": "uint256",
          "name": "amount",
          "type": "uint256"
        },
        {
          "indexed": false,
          "internalType": "uint256",
          "name": "rewards",
          "type": "uint256"
        }
      ],
      "name": "Unstaked",
      "type": "event"
    },
    {
      "anonymous": false,
      "inputs": [
        {
          "indexed": true,
          "internalType": "address",
          "name": "implementation",
          "type": "address"
        }
      ],
      "name": "Upgraded",
      "type": "event"
    },
    {
      "inputs": [],
      "name": "COMMUNITY_ALLOCATION",
      "outputs": [
        {
          "internalType": "uint256",
          "name": "",
          "type": "uint256"
        }
      ],
      "stateMutability": "view",
      "type": "function"
    },
    {
      "inputs": [],
      "name": "INITIAL_SUPPLY",
      "outputs": [
        {
          "internalType": "uint256",
          "name": "",
          "type": "uint256"
        }
      ],
      "stateMutability": "view",
      "type": "function"
    },
    {
      "inputs": [],
      "name": "INVESTOR_ALLOCATION",
      "outputs": [
        {
          "internalType": "uint256",
          "name": "",
          "type": "uint256"
        }
      ],
      "stateMutability": "view",
      "type": "function"
    },
    {
      "inputs": [],
      "name": "MAX_REWARD_RATE",
      "outputs": [
        {
          "internalType": "uint256",
          "name": "",
          "type": "uint256"
        }
      ],
      "stateMutability": "view",
      "type": "function"
    },
    {
      "inputs": [],
      "name": "MAX_SUPPLY",
      "outputs": [
        {
          "internalType": "uint256",
          "name": "",
          "type": "uint256"
        }
      ],
      "stateMutability": "view",
      "type": "function"
    },
    {
      "inputs": [],
      "name": "MIN_REWARD_RATE",
      "outputs": [
        {
          "internalType": "uint256",
          "name": "",
          "type": "uint256"
        }
      ],
      "stateMutability": "view",
      "type": "function"
    },
    {
      "inputs": [],
      "name": "RATE_ADJUSTMENT_INTERVAL",
      "outputs": [
        {
          "internalType": "uint256",
          "name": "",
          "type": "uint256"
        }
      ],
      "stateMutability": "view",
      "type": "function"
    },
    {
      "inputs": [],
      "name": "STAKING_ALLOCATION",
      "outputs": [
        {
          "internalType": "uint256",
          "name": "",
          "type": "uint256"
        }
      ],
      "stateMutability": "view",
      "type": "function"
    },
    {
      "inputs": [],
      "name": "TEAM_ALLOCATION",
      "outputs": [
        {
          "internalType": "uint256",
          "name": "",
          "type": "uint256"
        }
      ],
      "stateMutability": "view",
      "type": "function"
    },
    {
      "inputs": [],
      "name": "TIER_BRONZE",
      "outputs": [
        {
          "internalType": "uint256",
          "name": "",
          "type": "uint256"
        }
      ],
      "stateMutability": "view",
      "type": "function"
    },
    {
      "inputs": [],
      "name": "TIER_GOLD",
      "outputs": [
        {
          "internalType": "uint256",
          "name": "",
          "type": "uint256"
        }
      ],
      "stateMutability": "view",
      "type": "function"
    },
    {
      "inputs": [],
      "name": "TIER_PLATINUM",
      "outputs": [
        {
          "internalType": "uint256",
          "name": "",
          "type": "uint256"
        }
      ],
      "stateMutability": "view",
      "type": "function"
    },
    {
      "inputs": [],
      "name": "TIER_SILVER",
      "outputs": [
        {
          "internalType": "uint256",
          "name": "",
          "type": "uint256"
        }
      ],
      "stateMutability": "view",
      "type": "function"
    },
    {
      "inputs": [],
      "name": "TIMELOCK_DELAY",
      "outputs": [
        {
          "internalType": "uint256",
          "name": "",
          "type": "uint256"
        }
      ],
      "stateMutability": "view",
      "type": "function"
    },
    {
      "inputs": [],
      "name": "TREASURY_ALLOCATION",
      "outputs": [
        {
          "internalType": "uint256",
          "name": "",
          "type": "uint256"
        }
      ],
      "stateMutability": "view",
      "type": "function"
    },
    {
      "inputs": [
        {
          "internalType": "address",
          "name": "owner",
          "type": "address"
        },
        {
          "internalType": "address",
          "name": "spender",
          "type": "address"
        }
      ],
      "name": "allowance",
      "outputs": [
        {
          "internalType": "uint256",
          "name": "",
          "type": "uint256"
        }
      ],
      "stateMutability": "view",
      "type": "function"
    },
    {
      "inputs": [
        {
          "internalType": "address",
          "name": "spender",
          "type": "address"
        },
        {
          "internalType": "uint256",
          "name": "amount",
          "type": "uint256"
        }
      ],
      "name": "approve",
      "outputs": [
        {
          "internalType": "bool",
          "name": "",
          "type": "bool"
        }
      ],
      "stateMutability": "nonpayable",
      "type": "function"
    },
    {
      "inputs": [
        {
          "internalType": "address",
          "name": "account",
          "type": "address"
        }
      ],
      "name": "balanceOf",
      "outputs": [
        {
          "internalType": "uint256",
          "name": "",
          "type": "uint256"
        }
      ],
      "stateMutability": "view",
      "type": "function"
    },
    {
      "inputs": [
        {
          "internalType": "uint256",
          "name": "amount",
          "type": "uint256"
        }
      ],
      "name": "burn",
      "outputs": [],
      "stateMutability": "nonpayable",
      "type": "function"
    },
    {
      "inputs": [],
      "name": "burnAddress",
      "outputs": [
        {
          "internalType": "address",
          "name": "",
          "type": "address"
        }
      ],
      "stateMutability": "view",
      "type": "function"
    },
    {
      "inputs": [
        {
          "internalType": "address",
          "name": "account",
          "type": "address"
        },
        {
          "internalType": "uint256",
          "name": "amount",
          "type": "uint256"
        }
      ],
      "name": "burnFrom",
      "outputs": [],
      "stateMutability": "nonpayable",
      "type": "function"
    },
    {
      "inputs": [],
      "name": "burnRate",
      "outputs": [
        {
          "internalType": "uint256",
          "name": "",
          "type": "uint256"
        }
      ],
      "stateMutability": "view",
      "type": "function"
    },
    {
      "inputs": [
        {
          "internalType": "uint256",
          "name": "amount",
          "type": "uint256"
        },
        {
          "internalType": "string",
          "name": "reason",
          "type": "string"
        }
      ],
      "name": "burnTokens",
      "outputs": [],
      "stateMutability": "nonpayable",
      "type": "function"
    },
    {
      "inputs": [],
      "name": "claimRewards",
      "outputs": [],
      "stateMutability": "nonpayable",
      "type": "function"
    },
    {
      "inputs": [],
      "name": "decimals",
      "outputs": [
        {
          "internalType": "uint8",
          "name": "",
          "type": "uint8"
        }
      ],
      "stateMutability": "view",
      "type": "function"
    },
    {
      "inputs": [
        {
          "internalType": "address",
          "name": "spender",
          "type": "address"
        },
        {
          "internalType": "uint256",
          "name": "subtractedValue",
          "type": "uint256"
        }
      ],
      "name": "decreaseAllowance",
      "outputs": [
        {
          "internalType": "bool",
          "name": "",
          "type": "bool"
        }
      ],
      "stateMutability": "nonpayable",
      "type": "function"
    },
    {
      "inputs": [],
      "name": "emergencyPause",
      "outputs": [],
      "stateMutability": "nonpayable",
      "type": "function"
    },
    {
      "inputs": [],
      "name": "emergencyPaused",
      "outputs": [
        {
          "internalType": "bool",
          "name": "",
          "type": "bool"
        }
      ],
      "stateMutability": "view",
      "type": "function"
    },
    {
      "inputs": [],
      "name": "emergencyUnpause",
      "outputs": [],
      "stateMutability": "nonpayable",
      "type": "function"
    },
    {
      "inputs": [],
      "name": "emergencyWithdraw",
      "outputs": [],
      "stateMutability": "nonpayable",
      "type": "function"
    },
    {
      "inputs": [],
      "name": "emergencyWithdrawEnabled",
      "outputs": [
        {
          "internalType": "bool",
          "name": "",
          "type": "bool"
        }
      ],
      "stateMutability": "view",
      "type": "function"
    },
    {
      "inputs": [],
      "name": "enableEmergencyWithdraw",
      "outputs": [],
      "stateMutability": "nonpayable",
      "type": "function"
    },
    {
      "inputs": [
        {
          "internalType": "address",
          "name": "user",
          "type": "address"
        }
      ],
      "name": "getStakingInfo",
      "outputs": [
        {
          "internalType": "uint256",
          "name": "amount",
          "type": "uint256"
        },
        {
          "internalType": "uint256",
          "name": "startTime",
          "type": "uint256"
        },
        {
          "internalType": "uint256",
          "name": "lockPeriod",
          "type": "uint256"
        },
        {
          "internalType": "uint256",
          "name": "lastClaimTime",
          "type": "uint256"
        },
        {
          "internalType": "uint256",
          "name": "pendingRewards",
          "type": "uint256"
        },
        {
          "internalType": "uint256",
          "name": "tier",
          "type": "uint256"
        }
      ],
      "stateMutability": "view",
      "type": "function"
    },
    {
      "inputs": [
        {
          "internalType": "uint256",
          "name": "tier",
          "type": "uint256"
        }
      ],
      "name": "getStakingTier",
      "outputs": [
        {
          "internalType": "uint256",
          "name": "minAmount",
          "type": "uint256"
        },
        {
          "internalType": "uint256",
          "name": "multiplier",
          "type": "uint256"
        },
        {
          "internalType": "uint256",
          "name": "lockPeriod",
          "type": "uint256"
        }
      ],
      "stateMutability": "view",
      "type": "function"
    },
    {
      "inputs": [],
      "name": "getTokenStats",
      "outputs": [
        {
          "internalType": "uint256",
          "name": "totalSupply_",
          "type": "uint256"
        },
        {
          "internalType": "uint256",
          "name": "totalStaked_",
          "type": "uint256"
        },
        {
          "internalType": "uint256",
          "name": "totalBurned_",
          "type": "uint256"
        },
        {
          "internalType": "uint256",
          "name": "totalRewards_",
          "type": "uint256"
        }
      ],
      "stateMutability": "view",
      "type": "function"
    },
    {
      "inputs": [
        {
          "internalType": "address",
          "name": "spender",
          "type": "address"
        },
        {
          "internalType": "uint256",
          "name": "addedValue",
          "type": "uint256"
        }
      ],
      "name": "increaseAllowance",
      "outputs": [
        {
          "internalType": "bool",
          "name": "",
          "type": "bool"
        }
      ],
      "stateMutability": "nonpayable",
      "type": "function"
    },
    {
      "inputs": [
        {
          "internalType": "string",
          "name": "tokenName",
          "type": "string"
        },
        {
          "internalType": "string",
          "name": "tokenSymbol",
          "type": "string"
        }
      ],
      "name": "initialize",
      "outputs": [],
      "stateMutability": "nonpayable",
      "type": "function"
    },
    {
      "inputs": [],
      "name": "lastRateAdjustment",
      "outputs": [
        {
          "internalType": "uint256",
          "name": "",
          "type": "uint256"
        }
      ],
      "stateMutability": "view",
      "type": "function"
    },
    {
      "inputs": [],
      "name": "lastRewardTime",
      "outputs": [
        {
          "internalType": "uint256",
          "name": "",
          "type": "uint256"
        }
      ],
      "stateMutability": "view",
      "type": "function"
    },
    {
      "inputs": [
        {
          "internalType": "address",
          "name": "to",
          "type": "address"
        },
        {
          "internalType": "uint256",
          "name": "amount",
          "type": "uint256"
        }
      ],
      "name": "mint",
      "outputs": [],
      "stateMutability": "nonpayable",
      "type": "function"
    },
    {
      "inputs": [],
      "name": "name",
      "outputs": [
        {
          "internalType": "string",
          "name": "",
          "type": "string"
        }
      ],
      "stateMutability": "view",
      "type": "function"
    },
    {
      "inputs": [],
      "name": "owner",
      "outputs": [
        {
          "internalType": "address",
          "name": "",
          "type": "address"
        }
      ],
      "stateMutability": "view",
      "type": "function"
    },
    {
      "inputs": [],
      "name": "pause",
      "outputs": [],
      "stateMutability": "nonpayable",
      "type": "function"
    },
    {
      "inputs": [],
      "name": "paused",
      "outputs": [
        {
          "internalType": "bool",
          "name": "",
          "type": "bool"
        }
      ],
      "stateMutability": "view",
      "type": "function"
    },
    {
      "inputs": [
        {
          "internalType": "bytes32",
          "name": "",
          "type": "bytes32"
        }
      ],
      "name": "pendingActions",
      "outputs": [
        {
          "internalType": "uint256",
          "name": "",
          "type": "uint256"
        }
      ],
      "stateMutability": "view",
      "type": "function"
    },
    {
      "inputs": [],
      "name": "proxiableUUID",
      "outputs": [
        {
          "internalType": "bytes32",
          "name": "",
          "type": "bytes32"
        }
      ],
      "stateMutability": "view",
      "type": "function"
    },
    {
      "inputs": [],
      "name": "renounceOwnership",
      "outputs": [],
      "stateMutability": "nonpayable",
      "type": "function"
    },
    {
      "inputs": [
        {
          "internalType": "uint256",
          "name": "",
          "type": "uint256"
        }
      ],
      "name": "rewardRateHistory",
      "outputs": [
        {
          "internalType": "uint256",
          "name": "",
          "type": "uint256"
        }
      ],
      "stateMutability": "view",
      "type": "function"
    },
    {
      "inputs": [
        {
          "internalType": "uint256",
          "name": "_rate",
          "type": "uint256"
        }
      ],
      "name": "scheduleRewardRateChange",
      "outputs": [],
      "stateMutability": "nonpayable",
      "type": "function"
    },
    {
      "inputs": [
        {
          "internalType": "uint256",
          "name": "_rate",
          "type": "uint256"
        }
      ],
      "name": "setBurnRate",
      "outputs": [],
      "stateMutability": "nonpayable",
      "type": "function"
    },
    {
      "inputs": [
        {
          "internalType": "uint256",
          "name": "_rate",
          "type": "uint256"
        }
      ],
      "name": "setStakingRewardRate",
      "outputs": [],
      "stateMutability": "nonpayable",
      "type": "function"
    },
    {
      "inputs": [
        {
          "internalType": "uint256",
          "name": "amount",
          "type": "uint256"
        },
        {
          "internalType": "uint256",
          "name": "tier",
          "type": "uint256"
        }
      ],
      "name": "stake",
      "outputs": [],
      "stateMutability": "nonpayable",
      "type": "function"
    },
    {
      "inputs": [
        {
          "internalType": "address",
          "name": "",
          "type": "address"
        }
      ],
      "name": "stakingInfo",
      "outputs": [
        {
          "internalType": "uint256",
          "name": "amount",
          "type": "uint256"
        },
        {
          "internalType": "uint256",
          "name": "startTime",
          "type": "uint256"
        },
        {
          "internalType": "uint256",
          "name": "lockPeriod",
          "type": "uint256"
        },
        {
          "internalType": "uint256",
          "name": "lastClaimTime",
          "type": "uint256"
        },
        {
          "internalType": "uint256",
          "name": "pendingRewards",
          "type": "uint256"
        }
      ],
      "stateMutability": "view",
      "type": "function"
    },
    {
      "inputs": [],
      "name": "stakingRewardRate",
      "outputs": [
        {
          "internalType": "uint256",
          "name": "",
          "type": "uint256"
        }
      ],
      "stateMutability": "view",
      "type": "function"
    },
    {
      "inputs": [
        {
          "internalType": "uint256",
          "name": "",
          "type": "uint256"
        }
      ],
      "name": "stakingTiers",
      "outputs": [
        {
          "internalType": "uint256",
          "name": "minAmount",
          "type": "uint256"
        },
        {
          "internalType": "uint256",
          "name": "multiplier",
          "type": "uint256"
        },
        {
          "internalType": "uint256",
          "name": "lockPeriod",
          "type": "uint256"
        }
      ],
      "stateMutability": "view",
      "type": "function"
    },
    {
      "inputs": [],
      "name": "symbol",
      "outputs": [
        {
          "internalType": "string",
          "name": "",
          "type": "string"
        }
      ],
      "stateMutability": "view",
      "type": "function"
    },
    {
      "inputs": [],
      "name": "totalBurned",
      "outputs": [
        {
          "internalType": "uint256",
          "name": "",
          "type": "uint256"
        }
      ],
      "stateMutability": "view",
      "type": "function"
    },
    {
      "inputs": [],
      "name": "totalRewardsDistributed",
      "outputs": [
        {
          "internalType": "uint256",
          "name": "",
          "type": "uint256"
        }
      ],
      "stateMutability": "view",
      "type": "function"
    },
    {
      "inputs": [],
      "name": "totalStaked",
      "outputs": [
        {
          "internalType": "uint256",
          "name": "",
          "type": "uint256"
        }
      ],
      "stateMutability": "view",
      "type": "function"
    },
    {
      "inputs": [],
      "name": "totalSupply",
      "outputs": [
        {
          "internalType": "uint256",
          "name": "",
          "type": "uint256"
        }
      ],
      "stateMutability": "view",
      "type": "function"
    },
    {
      "inputs": [
        {
          "internalType": "address",
          "name": "to",
          "type": "address"
        },
        {
          "internalType": "uint256",
          "name": "amount",
          "type": "uint256"
        }
      ],
      "name": "transfer",
      "outputs": [
        {
          "internalType": "bool",
          "name": "",
          "type": "bool"
        }
      ],
      "stateMutability": "nonpayable",
      "type": "function"
    },
    {
      "inputs": [
        {
          "internalType": "address",
          "name": "from",
          "type": "address"
        },
        {
          "internalType": "address",
          "name": "to",
          "type": "address"
        },
        {
          "internalType": "uint256",
          "name": "amount",
          "type": "uint256"
        }
      ],
      "name": "transferFrom",
      "outputs": [
        {
          "internalType": "bool",
          "name": "",
          "type": "bool"
        }
      ],
      "stateMutability": "nonpayable",
      "type": "function"
    },
    {
      "inputs": [
        {
          "internalType": "address",
          "name": "newOwner",
          "type": "address"
        }
      ],
      "name": "transferOwnership",
      "outputs": [],
      "stateMutability": "nonpayable",
      "type": "function"
    },
    {
      "inputs": [],
      "name": "unpause",
      "outputs": [],
      "stateMutability": "nonpayable",
      "type": "function"
    },
    {
      "inputs": [],
      "name": "unstake",
      "outputs": [],
      "stateMutability": "nonpayable",
      "type": "function"
    },
    {
      "inputs": [
        {
          "internalType": "uint256",
          "name": "tier",
          "type": "uint256"
        },
        {
          "internalType": "uint256",
          "name": "minAmount",
          "type": "uint256"
        },
        {
          "internalType": "uint256",
          "name": "multiplier",
          "type": "uint256"
        },
        {
          "internalType": "uint256",
          "name": "lockPeriod",
          "type": "uint256"
        }
      ],
      "name": "updateStakingTier",
      "outputs": [],
      "stateMutability": "nonpayable",
      "type": "function"
    },
    {
      "inputs": [
        {
          "internalType": "address",
          "name": "newImplementation",
          "type": "address"
        }
      ],
      "name": "upgradeTo",
      "outputs": [],
      "stateMutability": "nonpayable",
      "type": "function"
    },
    {
      "inputs": [
        {
          "internalType": "address",
          "name": "newImplementation",
          "type": "address"
        },
        {
          "internalType": "bytes",
          "name": "data",
          "type": "bytes"
        }
      ],
      "name": "upgradeToAndCall",
      "outputs": [],
      "stateMutability": "payable",
      "type": "function"
    }
  ],
  "bytecode": "0x60a0604052306080526101cd805461ffff60a01b19169055348015602257600080fd5b50608051613b2661005a60003960008181610efa01528181610f4301528181611572015281816115b201526116780152613b266000f3fe60806040526004361061030f5760003560e01c8063715018a611610198578063715018a6146106fc578063718dc3c31461071157806379cc6790146107275780637b0472f014610747578063817b1cd2146107675780638456cb591461077e5780638da5cb5b146107935780638faa1856146107a85780639231cf74146107c857806394eecb50146107df57806395d89b411461083b578063993eb1c5146108505780639a46e41214610866578063a457c2d71461087b578063a9059cbb1461089b578063aa4704f3146108bb578063b3c6cd7614610908578063b7d685191461097a578063b99dcae51461099a578063be6fe8e9146109b0578063bed99850146109d0578063bf1ad7e0146109e7578063c3fb4d62146109fd578063d50267ee14610a14578063d86b56f714610a51578063d89135cd14610a66578063db2e21bc14610a7d578063dd62ed3e14610a92578063e2571f5d14610ab2578063e30569e514610ac8578063e3d3f84314610af6578063ee17254614610b0b578063f2fde38b14610b22578063fd99cbed14610ab257600080fd5b806306fdde0314610314578063095ea7b31461033f578063097cd9bf1461036f57806318160ddd14610394578063189d165e146103b357806323b872dd146103d557806327c830a9146103f55780632def6620146104175780632ff2e9dc1461042c578063313ce5671461044b57806332cb6b0c1461046757806335c3c8bf1461048657806336301533146104a65780633659cfe6146104bb578063372500ab146104db57806339509351146104f0578063399585aa146105105780633c0847f5146105275780633f4ba83a1461053c57806340c10f191461055157806342966c68146105715780634a4e3bd5146105915780634cd88b76146105a65780634f1ef286146105c65780634f3fc2df146105d957806351858e27146105f057806352d1902d146106055780635747e69f1461061a5780635ba1c1a91461063c5780635c975abb14610653578063683d12b01461066b5780636b12686b1461069957806370a08231146106ae57806370d5ae05146106ce575b600080fd5b34801561032057600080fd5b50610329610b42565b6040516103369190613321565b60405180910390f35b34801561034b57600080fd5b5061035f61035a366004613370565b610bd4565b6040519015158152602001610336565b34801561037b57600080fd5b50610384610bee565b604051610336949392919061339a565b3480156103a057600080fd5b506035545b604051908152602001610336565b3480156103bf57600080fd5b506103d36103ce3660046133b5565b610c17565b005b3480156103e157600080fd5b5061035f6103f03660046133ce565b610c7d565b34801561040157600080fd5b506101cd5461035f90600160a01b900460ff1681565b34801561042357600080fd5b506103d3610ca1565b34801561043857600080fd5b506103a56a52b7d2dcc80cd2e400000081565b34801561045757600080fd5b5060405160128152602001610336565b34801561047357600080fd5b506103a5676765c793fa10079d601b1b81565b34801561049257600080fd5b506103d36104a136600461340b565b610dce565b3480156104b257600080fd5b506103d3610e98565b3480156104c757600080fd5b506103d36104d636600461343d565b610ef0565b3480156104e757600080fd5b506103d3610fc1565b3480156104fc57600080fd5b5061035f61050b366004613370565b611072565b34801561051c57600080fd5b506103a56101ca5481565b34801561053357600080fd5b506103a5600081565b34801561054857600080fd5b506103d3611094565b34801561055d57600080fd5b506103d361056c366004613370565b6110a4565b34801561057d57600080fd5b506103d361058c3660046133b5565b6110f9565b34801561059d57600080fd5b506103d3611103565b3480156105b257600080fd5b506103d36105c13660046134a0565b611149565b6103d36105d4366004613525565b611568565b3480156105e557600080fd5b506103a56101c75481565b3480156105fc57600080fd5b506103d361161d565b34801561061157600080fd5b506103a561166b565b34801561062657600080fd5b506101cd5461035f90600160a81b900460ff1681565b34801561064857600080fd5b506103a56202a30081565b34801561065f57600080fd5b5060975460ff1661035f565b34801561067757600080fd5b506103a56106863660046133b5565b6101c96020526000908152604090205481565b3480156106a557600080fd5b506103a5606481565b3480156106ba57600080fd5b506103a56106c936600461343d565b611719565b3480156106da57600080fd5b506101cd546106ef906001600160a01b031681565b60405161033691906135ec565b34801561070857600080fd5b506103d3611734565b34801561071d57600080fd5b506103a56103e881565b34801561073357600080fd5b506103d3610742366004613370565b611746565b34801561075357600080fd5b506103d3610762366004613600565b61175b565b34801561077357600080fd5b506103a56101c55481565b34801561078a57600080fd5b506103d36119d4565b34801561079f57600080fd5b506106ef6119e4565b3480156107b457600080fd5b506103d36107c3366004613622565b6119f3565b3480156107d457600080fd5b506103a56101c85481565b3480156107eb57600080fd5b5061082a6107fa36600461343d565b6101c360205260009081526040902080546001820154600283015460038401546004909401549293919290919085565b60405161033695949392919061366d565b34801561084757600080fd5b50610329611a90565b34801561085c57600080fd5b506103a5610fa081565b34801561087257600080fd5b506103a5600181565b34801561088757600080fd5b5061035f610896366004613370565b611a9f565b3480156108a757600080fd5b5061035f6108b6366004613370565b611b1a565b3480156108c757600080fd5b506108db6108d636600461343d565b611b28565b604080519687526020870195909552938501929092526060840152608083015260a082015260c001610336565b34801561091457600080fd5b5061095f6109233660046133b5565b60008181526101c46020908152604091829020825160608101845281548082526001830154938201849052600290920154930183905293909250565b60408051938452602084019290925290820152606001610336565b34801561098657600080fd5b506103d36109953660046133b5565b611bb7565b3480156109a657600080fd5b506103a561032081565b3480156109bc57600080fd5b506103d36109cb3660046133b5565b611ce1565b3480156109dc57600080fd5b506103a56101cc5481565b3480156109f357600080fd5b506103a561089881565b348015610a0957600080fd5b506103a562278d0081565b348015610a2057600080fd5b5061095f610a2f3660046133b5565b6101c46020526000908152604090208054600182015460029092015490919083565b348015610a5d57600080fd5b506103a5600381565b348015610a7257600080fd5b506103a56101cb5481565b348015610a8957600080fd5b506103d3611d9b565b348015610a9e57600080fd5b506103a5610aad366004613690565b611e7e565b348015610abe57600080fd5b506103a56105dc81565b348015610ad457600080fd5b506103a5610ae33660046133b5565b6101ce6020526000908152604090205481565b348015610b0257600080fd5b506103a5600281565b348015610b1757600080fd5b506103a56101c65481565b348015610b2e57600080fd5b506103d3610b3d36600461343d565b611ea9565b606060368054610b51906136c3565b80601f0160208091040260200160405190810160405280929190818152602001828054610b7d906136c3565b8015610bca5780601f10610b9f57610100808354040283529160200191610bca565b820191906000526020600020905b815481529060010190602001808311610bad57829003601f168201915b5050505050905090565b600033610be2818585611f1f565b60019150505b92915050565b600080600080610bfd60355490565b6101c5546101cb546101c654935093509350935090919293565b610c1f612043565b6064811115610c41576040516347765d3b60e11b815260040160405180910390fd5b6101cc8190556040518181527f47863b595116a31383855975a4078913dce7881e717b75a06ced2db5d534ff789060200160405180910390a150565b600033610c8b8582856120a2565b610c9685858561211c565b506001949350505050565b610ca9612218565b3360009081526101c3602052604081208054909103610cdb5760405163118fcb6760e11b815260040160405180910390fd5b80600201548160010154610cef9190613713565b421015610d0f576040516387c0f2d560e01b815260040160405180910390fd5b6000610d1a33612273565b905081600001546101c56000828254610d339190613726565b90915550503360008181526101c360205260408120818155600181018290556002810182905560038101829055600401558254610d7191309161211c565b8015610d8157610d8133826123b6565b8154604080519182526020820183905233917f7fc4727e062e336010f2c282598ef5f14facb3de68cf8195c2f23e1454b2b74e91015b60405180910390a25050610dcc600161012d55565b565b610dd6612043565b6003841115610df85760405163e142361760e01b815260040160405180910390fd5b612710821015610e1b57604051630997be8760e21b815260040160405180910390fd5b60408051606081018252848152602080820185815282840185815260008981526101c4909352918490209251835551600183015551600290910155517f91940991fd73ef268916dee3054fe76c2defd6b2f7ea5936da2aca2ebfa5685590610e8a90869086908690869061339a565b60405180910390a150505050565b610ea0612043565b6101cd805460ff60a81b1916600160a81b1790556040517f25004abd8ec665bad2ee0fe374e3b11952166214e204b05d2ea4122417dc220490610ee69042815260200190565b60405180910390a1565b6001600160a01b037f0000000000000000000000000000000000000000000000000000000000000000163003610f415760405162461bcd60e51b8152600401610f3890613739565b60405180910390fd5b7f00000000000000000000000000000000000000000000000000000000000000006001600160a01b0316610f7361248f565b6001600160a01b031614610f995760405162461bcd60e51b8152600401610f3890613773565b610fa2816124ab565b60408051600080825260208201909252610fbe918391906124b3565b50565b610fc9612218565b3360009081526101c3602052604081208054909103610ffb5760405163118fcb6760e11b815260040160405180910390fd5b600061100633612273565b905080600003611029576040516373380d9960e01b815260040160405180910390fd5b4260038301556000600483015561104033826123b6565b60405181815233907ffc30cddea38e2bf4d6ea7d3f9ed3b6ad7f176419f4963bd81318067a4aee73fe90602001610db7565b600033610be28185856110858383611e7e565b61108f9190613713565b611f1f565b61109c612043565b610dcc61261e565b6110ac612043565b676765c793fa10079d601b1b816110c260355490565b6110cc9190613713565b11156110eb5760405163c30436e960e01b815260040160405180910390fd5b6110f58282612660565b5050565b610fbe338261271b565b61110b612043565b6101cd805460ff60a01b191690556040514281527f4e8fee6624a216c6c87fdeaeaab7686889991b2c1ffcd95d51e9a30352e2908090602001610ee6565b600054610100900460ff16158080156111695750600054600160ff909116105b8061118a575061117830612849565b15801561118a575060005460ff166001145b6111ed5760405162461bcd60e51b815260206004820152602e60248201527f496e697469616c697a61626c653a20636f6e747261637420697320616c72656160448201526d191e481a5b9a5d1a585b1a5e995960921b6064820152608401610f38565b6000805460ff191660011790558015611210576000805461ff0019166101001790555b61128385858080601f01602080910402602001604051908101604052809392919081815260200183838082843760009201919091525050604080516020601f8901819004810282018101909252878152925087915086908190840183828082843760009201919091525061285892505050565b61128b612889565b6112936128b0565b61129b6128df565b6112a361290e565b6112ab612889565b6101f46101c75560196101cc556101cd80546001600160a01b03191661dead179055426101c88190556101ca556115136040805160608082018352683635c9adc5dea000008252612710602080840191825262278d0084860190815260008080526101c480845295517f900a14da7b74a618a1c29a2c66a3b979a3228cef88a1bb8e8ee5ed807c9db89f5592517f900a14da7b74a618a1c29a2c66a3b979a3228cef88a1bb8e8ee5ed807c9db8a055517f900a14da7b74a618a1c29a2c66a3b979a3228cef88a1bb8e8ee5ed807c9db8a1558451808401865269021e19e0c9bab24000008152613a988183019081526276a700828801908152600185528684529151600080516020613ab183398151915255517ff6ccb3c78ad86b3231879707325826c087a2d02dd70eb918b97f248746719e7155517ff6ccb3c78ad86b3231879707325826c087a2d02dd70eb918b97f248746719e725584518084018652690a968163f0a57b4000008152614e2081830190815262ed4e00828801908152600285528684529151600080516020613ad183398151915255517f2a271a6e4d4f3524cc28dcdc2fc7eb3733f7b596bb6a78b6597c134ac9f9f96755517f2a271a6e4d4f3524cc28dcdc2fc7eb3733f7b596bb6a78b6597c134ac9f9f968558451928301855269152d02c7e14af680000083526175308382019081526301e13380958401958652600390925292909252516000805160206139ea83398151915255517f01fe604e604fe8f473951b43558adbf7f983ccc6feb0f0f4bfbc8e2d38dfcd2755517f01fe604e604fe8f473951b43558adbf7f983ccc6feb0f0f4bfbc8e2d38dfcd2855565b61151b61293d565b8015611561576000805461ff0019169055604051600181527f7f26b83ff96e1f2b6a682f133852f6798a09c465da95921460cefb38474024989060200160405180910390a15b5050505050565b6001600160a01b037f00000000000000000000000000000000000000000000000000000000000000001630036115b05760405162461bcd60e51b8152600401610f3890613739565b7f00000000000000000000000000000000000000000000000000000000000000006001600160a01b03166115e261248f565b6001600160a01b0316146116085760405162461bcd60e51b8152600401610f3890613773565b611611826124ab565b6110f5828260016124b3565b611625612043565b6101cd805460ff60a01b1916600160a01b1790556040517f11d8c430ae8dff60717610a0356ce3ac35187fc9569e6adfe01d281cc1c167d590610ee69042815260200190565b6000306001600160a01b037f000000000000000000000000000000000000000000000000000000000000000016146117065760405162461bcd60e51b815260206004820152603860248201527f555550535570677261646561626c653a206d757374206e6f742062652063616c6044820152771b1959081d1a1c9bdd59da0819195b1959d85d1958d85b1b60421b6064820152608401610f38565b50600080516020613a4a83398151915290565b6001600160a01b031660009081526033602052604090205490565b61173c612043565b610dcc6000612ad8565b6117518233836120a2565b6110f5828261271b565b611763612218565b61176b612b2a565b6101cd54600160a01b900460ff1615611797576040516359a3343160e11b815260040160405180910390fd5b816000036117b857604051635e85ae7360e01b815260040160405180910390fd5b60038111156117da5760405163e142361760e01b815260040160405180910390fd5b60008181526101c4602090815260409182902082516060810184528154808252600183015493820193909352600290910154928101929092528310156118335760405163344e7e3960e01b815260040160405180910390fd5b3360009081526101c36020526040902080541561193a57600061185533612273565b90508082600401600082825461186b9190613713565b90915550508154600090611880908790613713565b905060006118918460000154612b70565b9050600061189e83612b70565b90508181146118c057604051633742603560e11b815260040160405180910390fd5b8681146118e05760405163030bf62f60e01b815260040160405180910390fd5b600387101561192a576101c460006118f9896001613713565b815260200190815260200160002060000154831061192a57604051631f85c74360e31b815260040160405180910390fd5b505082555042600382015561195c565b8381554260018201819055604083015160028301556003820155600060048201555b61196733308661211c565b836101c5600082825461197a9190613713565b90915550506040828101518151868152602081019190915290810184905233907fb4caaf29adda3eefee3ad552a8e85058589bf834c7466cae4ee58787f70589ed9060600160405180910390a250506110f5600161012d55565b6119dc612043565b610dcc612bf5565b60fb546001600160a01b031690565b82600003611a1457604051635e85ae7360e01b815260040160405180910390fd5b82611a1e33611719565b1015611a3d57604051631e9acf1760e31b815260040160405180910390fd5b611a47338461271b565b826101cb6000828254611a5a9190613713565b909155505060405133906000805160206139ca83398151915290611a83908690869086906137ad565b60405180910390a2505050565b606060378054610b51906136c3565b60003381611aad8286611e7e565b905083811015611b0d5760405162461bcd60e51b815260206004820152602560248201527f45524332303a2064656372656173656420616c6c6f77616e63652062656c6f77604482015264207a65726f60d81b6064820152608401610f38565b610c968286868403611f1f565b600033610be281858561211c565b6001600160a01b03811660009081526101c360209081526040808320815160a081018352815480825260018301549482018590526002830154938201849052600383015460608301819052600490930154608083015285948594859485948594909390929091611b978c612273565b8551611ba290612b70565b949d939c50919a509850965090945092505050565b611bbf612043565b600081604051602001611bd291906137e3565b6040516020818303038152906040528051906020012090506101ce600082815260200190815260200160002054600003611c1f57604051635e4d29e960e01b815260040160405180910390fd5b60008181526101ce6020526040902054421015611c4f5760405163621e25c360e01b815260040160405180910390fd5b6103e8821115611c72576040516347765d3b60e11b815260040160405180910390fd5b6101c782905560008181526101ce60205260408082209190915551600080516020613a0a83398151915290611caa9084815260200190565b60405180910390a160405181907f9b5a634ce9dbcc1cc28dbce24cd5b30136689ff28f9ae433837bd68895d7d5e090600090a25050565b611ce9612043565b6103e8811115611d0c576040516347765d3b60e11b815260040160405180910390fd5b600081604051602001611d1f91906137e3565b6040516020818303038152906040528051906020012090506202a30042611d469190613713565b60008281526101ce6020526040902055807fcea0074f4f4b38eaa71c648790bc6a479e43332613889d0b0f0aec9554d40e68611d856202a30042613713565b6040519081526020015b60405180910390a25050565b6101cd54600160a81b900460ff16611dc657604051632457654760e11b815260040160405180910390fd5b3360009081526101c3602052604081208054909103611df85760405163118fcb6760e11b815260040160405180910390fd5b80543360009081526101c3602052604081208181556001810182905560028101829055600381018290556004018190556101c58054839290611e3b908490613726565b90915550611e4c905030338361211c565b60405181815233907f5fafa99d0643513820be26656b45130b01e1c03062e1266bf36f88cbd3bd969590602001611d8f565b6001600160a01b03918216600090815260346020908152604080832093909416825291909152205490565b611eb1612043565b6001600160a01b038116611f165760405162461bcd60e51b815260206004820152602660248201527f4f776e61626c653a206e6577206f776e657220697320746865207a65726f206160448201526564647265737360d01b6064820152608401610f38565b610fbe81612ad8565b6001600160a01b038316611f815760405162461bcd60e51b8152602060048201526024808201527f45524332303a20617070726f76652066726f6d20746865207a65726f206164646044820152637265737360e01b6064820152608401610f38565b6001600160a01b038216611fe25760405162461bcd60e51b815260206004820152602260248201527f45524332303a20617070726f766520746f20746865207a65726f206164647265604482015261737360f01b6064820152608401610f38565b6001600160a01b0383811660008181526034602090815260408083209487168084529482529182902085905590518481527f8c5be1e5ebec7d5bd14f71427d1e84f3dd0314c0f7b2291e5b200ac8c7c3b925910160405180910390a3505050565b3361204c6119e4565b6001600160a01b031614610dcc5760405162461bcd60e51b815260206004820181905260248201527f4f776e61626c653a2063616c6c6572206973206e6f7420746865206f776e65726044820152606401610f38565b60006120ae8484611e7e565b9050600019811461211657818110156121095760405162461bcd60e51b815260206004820152601d60248201527f45524332303a20696e73756666696369656e7420616c6c6f77616e63650000006044820152606401610f38565b6121168484848403611f1f565b50505050565b60006101cc5411801561213857506001600160a01b0383163014155b801561214d57506001600160a01b0382163014155b156122085760006127106101cc5483612166919061380b565b6121709190613822565b9050801561220657612182848261271b565b806101cb60008282546121959190613713565b909155506121a590508183613726565b9150836001600160a01b03166000805160206139ca833981519152826040516121fd9181526040602082018190526015908201527420baba3796b13ab9371037b7103a3930b739b332b960591b606082015260800190565b60405180910390a25b505b612213838383612c32565b505050565b600261012d540361226b5760405162461bcd60e51b815260206004820152601f60248201527f5265656e7472616e637947756172643a207265656e7472616e742063616c6c006044820152606401610f38565b600261012d55565b6001600160a01b03811660009081526101c360209081526040808320815160a0810183528154808252600183015494820194909452600282015492810192909252600381015460608301526004015460808201529082036122d75750600092915050565b60006122e68260000151612b70565b60008181526101c460209081526040808320815160608082018452825482526001830154948201949094526002909101549181019190915290850151929350916123309042613726565b905080600003612347575050506080015192915050565b600064496cebb800826101c7548760000151612363919061380b565b61236d919061380b565b6123779190613822565b9050600061271084602001518361238e919061380b565b6123989190613822565b90508086608001516123aa9190613713565b98975050505050505050565b60006123c130611719565b90508181106123f3576123d530848461211c565b816101c660008282546123e89190613713565b909155506122139050565b6123fb612dd6565b600061240684612273565b90508082106124385761241a30858361211c565b806101c6600082825461242d9190613713565b909155506121169050565b6101c75460009061244a60648461380b565b6124549190613822565b90508083106115615761246830868361211c565b806101c6600082825461247b9190613713565b90915550505050505050565b600161012d55565b600080516020613a4a833981519152546001600160a01b031690565b610fbe612043565b7f4910fdfa16fed3260ed0e7147f7cc6da11a60208b5b9406d12a635614ffd91435460ff16156124e65761221383612f2d565b826001600160a01b03166352d1902d6040518163ffffffff1660e01b8152600401602060405180830381865afa925050508015612540575060408051601f3d908101601f1916820190925261253d91810190613844565b60015b6125a35760405162461bcd60e51b815260206004820152602e60248201527f45524331393637557067726164653a206e657720696d706c656d656e7461746960448201526d6f6e206973206e6f74205555505360901b6064820152608401610f38565b600080516020613a4a83398151915281146126125760405162461bcd60e51b815260206004820152602960248201527f45524331393637557067726164653a20756e737570706f727465642070726f786044820152681a58589b195555525160ba1b6064820152608401610f38565b50612213838383612fc7565b612626612fec565b6097805460ff191690557f5db9ee0a495bf2e6ff9c91a7834c1ba4fdd244a5e8aa4e537bd38aeae4b073aa335b604051610ee691906135ec565b6001600160a01b0382166126b65760405162461bcd60e51b815260206004820152601f60248201527f45524332303a206d696e7420746f20746865207a65726f2061646472657373006044820152606401610f38565b6126c260008383613035565b80603560008282546126d49190613713565b90915550506001600160a01b038216600081815260336020908152604080832080548601905551848152600080516020613a91833981519152910160405180910390a35050565b6001600160a01b03821661277b5760405162461bcd60e51b815260206004820152602160248201527f45524332303a206275726e2066726f6d20746865207a65726f206164647265736044820152607360f81b6064820152608401610f38565b61278782600083613035565b6001600160a01b038216600090815260336020526040902054818110156127fb5760405162461bcd60e51b815260206004820152602260248201527f45524332303a206275726e20616d6f756e7420657863656564732062616c616e604482015261636560f01b6064820152608401610f38565b6001600160a01b0383166000818152603360209081526040808320868603905560358054879003905551858152919291600080516020613a91833981519152910160405180910390a3505050565b6001600160a01b03163b151590565b600054610100900460ff1661287f5760405162461bcd60e51b8152600401610f389061385d565b6110f58282613040565b600054610100900460ff16610dcc5760405162461bcd60e51b8152600401610f389061385d565b600054610100900460ff166128d75760405162461bcd60e51b8152600401610f389061385d565b610dcc613080565b600054610100900460ff166129065760405162461bcd60e51b8152600401610f389061385d565b610dcc6130b3565b600054610100900460ff166129355760405162461bcd60e51b8152600401610f389061385d565b610dcc6130e3565b6000612710612959610fa06a52b7d2dcc80cd2e400000061380b565b6129639190613822565b905061296f3382612660565b600061271061298b6108986a52b7d2dcc80cd2e400000061380b565b6129959190613822565b90506129a13382612660565b60006127106129bd6105dc6a52b7d2dcc80cd2e400000061380b565b6129c79190613822565b90506129d33382612660565b60006127106129ef6105dc6a52b7d2dcc80cd2e400000061380b565b6129f99190613822565b9050612a053382612660565b6000612710612a216103206a52b7d2dcc80cd2e400000061380b565b612a2b9190613822565b9050612a373082612660565b6000818385612a46888a613713565b612a509190613713565b612a5a9190613713565b612a649190613713565b90506a52b7d2dcc80cd2e40000008114612a91576040516321e7afd560e01b815260040160405180910390fd5b7f3befad135675625e5587bd75e1c3e27a96bf101bfdca64e2e7d89ab01632c9378685878587604051612ac895949392919061366d565b60405180910390a1505050505050565b60fb80546001600160a01b038381166001600160a01b0319831681179093556040519116919082907f8be0079c531659141344cd1fd0a4f28419497f9722a3daafe3b4186f6b6457e090600090a35050565b60975460ff1615610dcc5760405162461bcd60e51b815260206004820152601060248201526f14185d5cd8589b194e881c185d5cd95960821b6044820152606401610f38565b600360009081526101c46020526000805160206139ea833981519152548210612b9b57506003919050565b60026000526101c4602052600080516020613ad1833981519152548210612bc457506002919050565b60016000526101c4602052600080516020613ab1833981519152548210612bed57506001919050565b506000919050565b612bfd612b2a565b6097805460ff191660011790557f62e78cea01bee320cd4e420270b5ea74000d11b0c9f74754ebdbfc544b05a2586126533390565b6001600160a01b038316612c965760405162461bcd60e51b815260206004820152602560248201527f45524332303a207472616e736665722066726f6d20746865207a65726f206164604482015264647265737360d81b6064820152608401610f38565b6001600160a01b038216612cf85760405162461bcd60e51b815260206004820152602360248201527f45524332303a207472616e7366657220746f20746865207a65726f206164647260448201526265737360e81b6064820152608401610f38565b612d03838383613035565b6001600160a01b03831660009081526033602052604090205481811015612d7b5760405162461bcd60e51b815260206004820152602660248201527f45524332303a207472616e7366657220616d6f756e7420657863656564732062604482015265616c616e636560d01b6064820152608401610f38565b6001600160a01b038085166000818152603360205260408082208686039055928616808252908390208054860190559151600080516020613a9183398151915290612dc99086815260200190565b60405180910390a3612116565b62278d006101ca54612de89190613713565b421015612e085760405163fc2fee2760e01b815260040160405180910390fd5b6000612e1330611719565b6101c5549091506000819003612e27575050565b600081612e368461271061380b565b612e409190613822565b90506103e8811015612e715760646101c7546050612e5e919061380b565b612e689190613822565b6101c755612eb8565b6107d0811015612e8d5760646101c754605a612e5e919061380b565b611388811115612eb85760646101c7546069612ea9919061380b565b612eb39190613822565b6101c7555b60646101c7541015612ecf5760646101c755612ee4565b6103e86101c7541115612ee4576103e86101c7555b6101c7544360009081526101c9602052604090819020829055426101ca5551600080516020613a0a83398151915291612f209190815260200190565b60405180910390a1505050565b612f3681612849565b612f985760405162461bcd60e51b815260206004820152602d60248201527f455243313936373a206e657720696d706c656d656e746174696f6e206973206e60448201526c1bdd08184818dbdb9d1c9858dd609a1b6064820152608401610f38565b600080516020613a4a83398151915280546001600160a01b0319166001600160a01b0392909216919091179055565b612fd08361310a565b600082511180612fdd5750805b1561221357612116838361314a565b60975460ff16610dcc5760405162461bcd60e51b815260206004820152601460248201527314185d5cd8589b194e881b9bdd081c185d5cd95960621b6044820152606401610f38565b612213838383613176565b600054610100900460ff166130675760405162461bcd60e51b8152600401610f389061385d565b603661307383826138ef565b50603761221382826138ef565b600054610100900460ff166130a75760405162461bcd60e51b8152600401610f389061385d565b6097805460ff19169055565b600054610100900460ff166130da5760405162461bcd60e51b8152600401610f389061385d565b610dcc33612ad8565b600054610100900460ff166124875760405162461bcd60e51b8152600401610f389061385d565b61311381612f2d565b6040516001600160a01b038216907fbc7cd75a20ee27fd9adebab32041f755214dbc6bffa90cc0225b39da2e5c2d3b90600090a250565b606061316f8383604051806060016040528060278152602001613a6a602791396131dc565b9392505050565b60975460ff16156122135760405162461bcd60e51b815260206004820152602a60248201527f45524332305061757361626c653a20746f6b656e207472616e736665722077686044820152691a5b19481c185d5cd95960b21b6064820152608401610f38565b6060600080856001600160a01b0316856040516131f991906139ad565b600060405180830381855af49150503d8060008114613234576040519150601f19603f3d011682016040523d82523d6000602084013e613239565b606091505b509150915061324a86838387613254565b9695505050505050565b606083156132c15782516000036132ba5761326e85612849565b6132ba5760405162461bcd60e51b815260206004820152601d60248201527f416464726573733a2063616c6c20746f206e6f6e2d636f6e74726163740000006044820152606401610f38565b50816132cb565b6132cb83836132d3565b949350505050565b8151156132e35781518083602001fd5b8060405162461bcd60e51b8152600401610f389190613321565b60005b83811015613318578181015183820152602001613300565b50506000910152565b60208152600082518060208401526133408160408501602087016132fd565b601f01601f19169190910160400192915050565b80356001600160a01b038116811461336b57600080fd5b919050565b6000806040838503121561338357600080fd5b61338c83613354565b946020939093013593505050565b93845260208401929092526040830152606082015260800190565b6000602082840312156133c757600080fd5b5035919050565b6000806000606084860312156133e357600080fd5b6133ec84613354565b92506133fa60208501613354565b929592945050506040919091013590565b6000806000806080858703121561342157600080fd5b5050823594602084013594506040840135936060013592509050565b60006020828403121561344f57600080fd5b61316f82613354565b60008083601f84011261346a57600080fd5b5081356001600160401b0381111561348157600080fd5b60208301915083602082850101111561349957600080fd5b9250929050565b600080600080604085870312156134b657600080fd5b84356001600160401b038111156134cc57600080fd5b6134d887828801613458565b90955093505060208501356001600160401b038111156134f757600080fd5b61350387828801613458565b95989497509550505050565b634e487b7160e01b600052604160045260246000fd5b6000806040838503121561353857600080fd5b61354183613354565b915060208301356001600160401b0381111561355c57600080fd5b8301601f8101851361356d57600080fd5b80356001600160401b038111156135865761358661350f565b604051601f8201601f19908116603f011681016001600160401b03811182821017156135b4576135b461350f565b6040528181528282016020018710156135cc57600080fd5b816020840160208301376000602083830101528093505050509250929050565b6001600160a01b0391909116815260200190565b6000806040838503121561361357600080fd5b50508035926020909101359150565b60008060006040848603121561363757600080fd5b8335925060208401356001600160401b0381111561365457600080fd5b61366086828701613458565b9497909650939450505050565b948552602085019390935260408401919091526060830152608082015260a00190565b600080604083850312156136a357600080fd5b6136ac83613354565b91506136ba60208401613354565b90509250929050565b600181811c908216806136d757607f821691505b6020821081036136f757634e487b7160e01b600052602260045260246000fd5b50919050565b634e487b7160e01b600052601160045260246000fd5b80820180821115610be857610be86136fd565b81810381811115610be857610be86136fd565b6020808252602c90820152600080516020613a2a83398151915260408201526b19195b1959d85d1958d85b1b60a21b606082015260800190565b6020808252602c90820152600080516020613a2a83398151915260408201526b6163746976652070726f787960a01b606082015260800190565b83815260406020820152816040820152818360608301376000818301606090810191909152601f909201601f1916010192915050565b737365745374616b696e675265776172645261746560601b8152601481019190915260340190565b8082028115828204841417610be857610be86136fd565b60008261383f57634e487b7160e01b600052601260045260246000fd5b500490565b60006020828403121561385657600080fd5b5051919050565b6020808252602b908201527f496e697469616c697a61626c653a20636f6e7472616374206973206e6f74206960408201526a6e697469616c697a696e6760a81b606082015260800190565b601f82111561221357806000526020600020601f840160051c810160208510156138cf5750805b601f840160051c820191505b8181101561156157600081556001016138db565b81516001600160401b038111156139085761390861350f565b61391c8161391684546136c3565b846138a8565b6020601f82116001811461395057600083156139385750848201515b600019600385901b1c1916600184901b178455611561565b600084815260208120601f198516915b828110156139805787850151825560209485019460019092019101613960565b508482101561399e5786840151600019600387901b60f8161c191681555b50505050600190811b01905550565b600082516139bf8184602087016132fd565b919091019291505056fefad31924d655455395c87544c8aa1ffdb5a7505a22a3c2e03f28003b6556a75f01fe604e604fe8f473951b43558adbf7f983ccc6feb0f0f4bfbc8e2d38dfcd2639c078e0c9be5a018723ae5517e933105b55d82377b3f6b19db1933767a21bdc46756e6374696f6e206d7573742062652063616c6c6564207468726f75676820360894a13ba1a3210667c828492db98dca3e2076cc3735a920a3ca505d382bbc416464726573733a206c6f772d6c6576656c2064656c65676174652063616c6c206661696c6564ddf252ad1be2c89b69c2b068fc378daa952ba7f163c4a11628f55a4df523b3eff6ccb3c78ad86b3231879707325826c087a2d02dd70eb918b97f248746719e702a271a6e4d4f3524cc28dcdc2fc7eb3733f7b596bb6a78b6597c134ac9f9f966a2646970667358221220120db8410fdb65837a39aa0f751e608f283dc1442e81d074fc72394d94a02dcc64736f6c634300081e0033",
  "linkReferences": {},
  "deployedLinkReferences": {}
}