{
  "_format": "hh-sol-artifact-1",
  "contractName": "DIAPToken",
  "sourceName": "contracts/DIAPToken.sol",
  "abi": [
    {
      "anonymous": false,
      "inputs": [
        {
          "indexed": true,
          "internalType": "bytes32",
          "name": "actionHash",
          "type": "bytes32"
        }
      ],
      "name": "ActionExecuted",
      "type": "event"
    },
    {
      "anonymous": false,
      "inputs": [
        {
          "indexed": true,
          "internalType": "bytes32",
          "name": "actionHash",
          "type": "bytes32"
        },
        {
          "indexed": false,
          "internalType": "uint256",
          "name": "executeTime",
          "type": "uint256"
        }
      ],
      "name": "ActionScheduled",
      "type": "event"
    },
    {
      "anonymous": false,
      "inputs": [
        {
          "indexed": false,
          "internalType": "address",
          "name": "previousAdmin",
          "type": "address"
        },
        {
          "indexed": false,
          "internalType": "address",
          "name": "newAdmin",
          "type": "address"
        }
      ],
      "name": "AdminChanged",
      "type": "event"
    },
    {
      "anonymous": false,
      "inputs": [
        {
          "indexed": true,
          "internalType": "address",
          "name": "owner",
          "type": "address"
        },
        {
          "indexed": true,
          "internalType": "address",
          "name": "spender",
          "type": "address"
        },
        {
          "indexed": false,
          "internalType": "uint256",
          "name": "value",
          "type": "uint256"
        }
      ],
      "name": "Approval",
      "type": "event"
    },
    {
      "anonymous": false,
      "inputs": [
        {
          "indexed": true,
          "internalType": "address",
          "name": "beacon",
          "type": "address"
        }
      ],
      "name": "BeaconUpgraded",
      "type": "event"
    },
    {
      "anonymous": false,
      "inputs": [
        {
          "indexed": false,
          "internalType": "uint256",
          "name": "newRate",
          "type": "uint256"
        }
      ],
      "name": "BurnRateUpdated",
      "type": "event"
    },
    {
      "anonymous": false,
      "inputs": [
        {
          "indexed": false,
          "internalType": "uint256",
          "name": "timestamp",
          "type": "uint256"
        }
      ],
      "name": "EmergencyPaused",
      "type": "event"
    },
    {
      "anonymous": false,
      "inputs": [
        {
          "indexed": false,
          "internalType": "uint256",
          "name": "timestamp",
          "type": "uint256"
        }
      ],
      "name": "EmergencyUnpaused",
      "type": "event"
    },
    {
      "anonymous": false,
      "inputs": [
        {
          "indexed": true,
          "internalType": "address",
          "name": "user",
          "type": "address"
        },
        {
          "indexed": false,
          "internalType": "uint256",
          "name": "amount",
          "type": "uint256"
        }
      ],
      "name": "EmergencyWithdraw",
      "type": "event"
    },
    {
      "anonymous": false,
      "inputs": [
        {
          "indexed": false,
          "internalType": "uint256",
          "name": "timestamp",
          "type": "uint256"
        }
      ],
      "name": "EmergencyWithdrawEnabled",
      "type": "event"
    },
    {
      "anonymous": false,
      "inputs": [
        {
          "indexed": false,
          "internalType": "uint256",
          "name": "communityAmount",
          "type": "uint256"
        },
        {
          "indexed": false,
          "internalType": "uint256",
          "name": "teamAmount",
          "type": "uint256"
        },
        {
          "indexed": false,
          "internalType": "uint256",
          "name": "treasuryAmount",
          "type": "uint256"
        },
        {
          "indexed": false,
          "internalType": "uint256",
          "name": "stakingAmount",
          "type": "uint256"
        },
        {
          "indexed": false,
          "internalType": "uint256",
          "name": "liquidityAmount",
          "type": "uint256"
        }
      ],
      "name": "InitialDistributionCompleted",
      "type": "event"
    },
    {
      "anonymous": false,
      "inputs": [
        {
          "indexed": false,
          "internalType": "uint8",
          "name": "version",
          "type": "uint8"
        }
      ],
      "name": "Initialized",
      "type": "event"
    },
    {
      "anonymous": false,
      "inputs": [
        {
          "indexed": true,
          "internalType": "address",
          "name": "previousOwner",
          "type": "address"
        },
        {
          "indexed": true,
          "internalType": "address",
          "name": "newOwner",
          "type": "address"
        }
      ],
      "name": "OwnershipTransferred",
      "type": "event"
    },
    {
      "anonymous": false,
      "inputs": [
        {
          "indexed": false,
          "internalType": "address",
          "name": "account",
          "type": "address"
        }
      ],
      "name": "Paused",
      "type": "event"
    },
    {
      "anonymous": false,
      "inputs": [
        {
          "indexed": true,
          "internalType": "address",
          "name": "user",
          "type": "address"
        },
        {
          "indexed": false,
          "internalType": "uint256",
          "name": "amount",
          "type": "uint256"
        }
      ],
      "name": "RewardsClaimed",
      "type": "event"
    },
    {
      "anonymous": false,
      "inputs": [
        {
          "indexed": true,
          "internalType": "address",
          "name": "user",
          "type": "address"
        },
        {
          "indexed": false,
          "internalType": "uint256",
          "name": "amount",
          "type": "uint256"
        },
        {
          "indexed": false,
          "internalType": "uint256",
          "name": "lockPeriod",
          "type": "uint256"
        },
        {
          "indexed": false,
          "internalType": "uint256",
          "name": "tier",
          "type": "uint256"
        }
      ],
      "name": "Staked",
      "type": "event"
    },
    {
      "anonymous": false,
      "inputs": [
        {
          "indexed": false,
          "internalType": "uint256",
          "name": "newRate",
          "type": "uint256"
        }
      ],
      "name": "StakingRewardRateUpdated",
      "type": "event"
    },
    {
      "anonymous": false,
      "inputs": [
        {
          "indexed": false,
          "internalType": "uint256",
          "name": "tier",
          "type": "uint256"
        },
        {
          "indexed": false,
          "internalType": "uint256",
          "name": "minAmount",
          "type": "uint256"
        },
        {
          "indexed": false,
          "internalType": "uint256",
          "name": "multiplier",
          "type": "uint256"
        },
        {
          "indexed": false,
          "internalType": "uint256",
          "name": "lockPeriod",
          "type": "uint256"
        }
      ],
      "name": "StakingTierUpdated",
      "type": "event"
    },
    {
      "anonymous": false,
      "inputs": [
        {
          "indexed": true,
          "internalType": "address",
          "name": "from",
          "type": "address"
        },
        {
          "indexed": false,
          "internalType": "uint256",
          "name": "amount",
          "type": "uint256"
        },
        {
          "indexed": false,
          "internalType": "string",
          "name": "reason",
          "type": "string"
        }
      ],
      "name": "TokensBurned",
      "type": "event"
    },
    {
      "anonymous": false,
      "inputs": [
        {
          "indexed": true,
          "internalType": "address",
          "name": "from",
          "type": "address"
        },
        {
          "indexed": true,
          "internalType": "address",
          "name": "to",
          "type": "address"
        },
        {
          "indexed": false,
          "internalType": "uint256",
          "name": "value",
          "type": "uint256"
        }
      ],
      "name": "Transfer",
      "type": "event"
    },
    {
      "anonymous": false,
      "inputs": [
        {
          "indexed": false,
          "internalType": "address",
          "name": "account",
          "type": "address"
        }
      ],
      "name": "Unpaused",
      "type": "event"
    },
    {
      "anonymous": false,
      "inputs": [
        {
          "indexed": true,
          "internalType": "address",
          "name": "user",
          "type": "address"
        },
        {
          "indexed": false,
          "internalType": "uint256",
          "name": "amount",
          "type": "uint256"
        },
        {
          "indexed": false,
          "internalType": "uint256",
          "name": "rewards",
          "type": "uint256"
        }
      ],
      "name": "Unstaked",
      "type": "event"
    },
    {
      "anonymous": false,
      "inputs": [
        {
          "indexed": true,
          "internalType": "address",
          "name": "implementation",
          "type": "address"
        }
      ],
      "name": "Upgraded",
      "type": "event"
    },
    {
      "inputs": [],
      "name": "COMMUNITY_ALLOCATION",
      "outputs": [
        {
          "internalType": "uint256",
          "name": "",
          "type": "uint256"
        }
      ],
      "stateMutability": "view",
      "type": "function"
    },
    {
      "inputs": [],
      "name": "INITIAL_SUPPLY",
      "outputs": [
        {
          "internalType": "uint256",
          "name": "",
          "type": "uint256"
        }
      ],
      "stateMutability": "view",
      "type": "function"
    },
    {
      "inputs": [],
      "name": "LIQUIDITY_ALLOCATION",
      "outputs": [
        {
          "internalType": "uint256",
          "name": "",
          "type": "uint256"
        }
      ],
      "stateMutability": "view",
      "type": "function"
    },
    {
      "inputs": [],
      "name": "MAX_REWARD_RATE",
      "outputs": [
        {
          "internalType": "uint256",
          "name": "",
          "type": "uint256"
        }
      ],
      "stateMutability": "view",
      "type": "function"
    },
    {
      "inputs": [],
      "name": "MAX_SUPPLY",
      "outputs": [
        {
          "internalType": "uint256",
          "name": "",
          "type": "uint256"
        }
      ],
      "stateMutability": "view",
      "type": "function"
    },
    {
      "inputs": [],
      "name": "MIN_REWARD_RATE",
      "outputs": [
        {
          "internalType": "uint256",
          "name": "",
          "type": "uint256"
        }
      ],
      "stateMutability": "view",
      "type": "function"
    },
    {
      "inputs": [],
      "name": "RATE_ADJUSTMENT_INTERVAL",
      "outputs": [
        {
          "internalType": "uint256",
          "name": "",
          "type": "uint256"
        }
      ],
      "stateMutability": "view",
      "type": "function"
    },
    {
      "inputs": [],
      "name": "STAKING_ALLOCATION",
      "outputs": [
        {
          "internalType": "uint256",
          "name": "",
          "type": "uint256"
        }
      ],
      "stateMutability": "view",
      "type": "function"
    },
    {
      "inputs": [],
      "name": "TEAM_ALLOCATION",
      "outputs": [
        {
          "internalType": "uint256",
          "name": "",
          "type": "uint256"
        }
      ],
      "stateMutability": "view",
      "type": "function"
    },
    {
      "inputs": [],
      "name": "TIER_BRONZE",
      "outputs": [
        {
          "internalType": "uint256",
          "name": "",
          "type": "uint256"
        }
      ],
      "stateMutability": "view",
      "type": "function"
    },
    {
      "inputs": [],
      "name": "TIER_GOLD",
      "outputs": [
        {
          "internalType": "uint256",
          "name": "",
          "type": "uint256"
        }
      ],
      "stateMutability": "view",
      "type": "function"
    },
    {
      "inputs": [],
      "name": "TIER_PLATINUM",
      "outputs": [
        {
          "internalType": "uint256",
          "name": "",
          "type": "uint256"
        }
      ],
      "stateMutability": "view",
      "type": "function"
    },
    {
      "inputs": [],
      "name": "TIER_SILVER",
      "outputs": [
        {
          "internalType": "uint256",
          "name": "",
          "type": "uint256"
        }
      ],
      "stateMutability": "view",
      "type": "function"
    },
    {
      "inputs": [],
      "name": "TIMELOCK_DELAY",
      "outputs": [
        {
          "internalType": "uint256",
          "name": "",
          "type": "uint256"
        }
      ],
      "stateMutability": "view",
      "type": "function"
    },
    {
      "inputs": [],
      "name": "TREASURY_ALLOCATION",
      "outputs": [
        {
          "internalType": "uint256",
          "name": "",
          "type": "uint256"
        }
      ],
      "stateMutability": "view",
      "type": "function"
    },
    {
      "inputs": [
        {
          "internalType": "address",
          "name": "owner",
          "type": "address"
        },
        {
          "internalType": "address",
          "name": "spender",
          "type": "address"
        }
      ],
      "name": "allowance",
      "outputs": [
        {
          "internalType": "uint256",
          "name": "",
          "type": "uint256"
        }
      ],
      "stateMutability": "view",
      "type": "function"
    },
    {
      "inputs": [
        {
          "internalType": "address",
          "name": "spender",
          "type": "address"
        },
        {
          "internalType": "uint256",
          "name": "amount",
          "type": "uint256"
        }
      ],
      "name": "approve",
      "outputs": [
        {
          "internalType": "bool",
          "name": "",
          "type": "bool"
        }
      ],
      "stateMutability": "nonpayable",
      "type": "function"
    },
    {
      "inputs": [
        {
          "internalType": "address",
          "name": "account",
          "type": "address"
        }
      ],
      "name": "balanceOf",
      "outputs": [
        {
          "internalType": "uint256",
          "name": "",
          "type": "uint256"
        }
      ],
      "stateMutability": "view",
      "type": "function"
    },
    {
      "inputs": [
        {
          "internalType": "uint256",
          "name": "amount",
          "type": "uint256"
        }
      ],
      "name": "burn",
      "outputs": [],
      "stateMutability": "nonpayable",
      "type": "function"
    },
    {
      "inputs": [],
      "name": "burnAddress",
      "outputs": [
        {
          "internalType": "address",
          "name": "",
          "type": "address"
        }
      ],
      "stateMutability": "view",
      "type": "function"
    },
    {
      "inputs": [
        {
          "internalType": "address",
          "name": "account",
          "type": "address"
        },
        {
          "internalType": "uint256",
          "name": "amount",
          "type": "uint256"
        }
      ],
      "name": "burnFrom",
      "outputs": [],
      "stateMutability": "nonpayable",
      "type": "function"
    },
    {
      "inputs": [],
      "name": "burnRate",
      "outputs": [
        {
          "internalType": "uint256",
          "name": "",
          "type": "uint256"
        }
      ],
      "stateMutability": "view",
      "type": "function"
    },
    {
      "inputs": [
        {
          "internalType": "uint256",
          "name": "amount",
          "type": "uint256"
        },
        {
          "internalType": "string",
          "name": "reason",
          "type": "string"
        }
      ],
      "name": "burnTokens",
      "outputs": [],
      "stateMutability": "nonpayable",
      "type": "function"
    },
    {
      "inputs": [],
      "name": "claimRewards",
      "outputs": [],
      "stateMutability": "nonpayable",
      "type": "function"
    },
    {
      "inputs": [],
      "name": "decimals",
      "outputs": [
        {
          "internalType": "uint8",
          "name": "",
          "type": "uint8"
        }
      ],
      "stateMutability": "view",
      "type": "function"
    },
    {
      "inputs": [
        {
          "internalType": "address",
          "name": "spender",
          "type": "address"
        },
        {
          "internalType": "uint256",
          "name": "subtractedValue",
          "type": "uint256"
        }
      ],
      "name": "decreaseAllowance",
      "outputs": [
        {
          "internalType": "bool",
          "name": "",
          "type": "bool"
        }
      ],
      "stateMutability": "nonpayable",
      "type": "function"
    },
    {
      "inputs": [],
      "name": "emergencyPause",
      "outputs": [],
      "stateMutability": "nonpayable",
      "type": "function"
    },
    {
      "inputs": [],
      "name": "emergencyPaused",
      "outputs": [
        {
          "internalType": "bool",
          "name": "",
          "type": "bool"
        }
      ],
      "stateMutability": "view",
      "type": "function"
    },
    {
      "inputs": [],
      "name": "emergencyUnpause",
      "outputs": [],
      "stateMutability": "nonpayable",
      "type": "function"
    },
    {
      "inputs": [],
      "name": "emergencyWithdraw",
      "outputs": [],
      "stateMutability": "nonpayable",
      "type": "function"
    },
    {
      "inputs": [],
      "name": "emergencyWithdrawEnabled",
      "outputs": [
        {
          "internalType": "bool",
          "name": "",
          "type": "bool"
        }
      ],
      "stateMutability": "view",
      "type": "function"
    },
    {
      "inputs": [],
      "name": "enableEmergencyWithdraw",
      "outputs": [],
      "stateMutability": "nonpayable",
      "type": "function"
    },
    {
      "inputs": [
        {
          "internalType": "address",
          "name": "user",
          "type": "address"
        }
      ],
      "name": "getStakingInfo",
      "outputs": [
        {
          "internalType": "uint256",
          "name": "amount",
          "type": "uint256"
        },
        {
          "internalType": "uint256",
          "name": "startTime",
          "type": "uint256"
        },
        {
          "internalType": "uint256",
          "name": "lockPeriod",
          "type": "uint256"
        },
        {
          "internalType": "uint256",
          "name": "lastClaimTime",
          "type": "uint256"
        },
        {
          "internalType": "uint256",
          "name": "pendingRewards",
          "type": "uint256"
        },
        {
          "internalType": "uint256",
          "name": "tier",
          "type": "uint256"
        }
      ],
      "stateMutability": "view",
      "type": "function"
    },
    {
      "inputs": [
        {
          "internalType": "uint256",
          "name": "tier",
          "type": "uint256"
        }
      ],
      "name": "getStakingTier",
      "outputs": [
        {
          "internalType": "uint256",
          "name": "minAmount",
          "type": "uint256"
        },
        {
          "internalType": "uint256",
          "name": "multiplier",
          "type": "uint256"
        },
        {
          "internalType": "uint256",
          "name": "lockPeriod",
          "type": "uint256"
        }
      ],
      "stateMutability": "view",
      "type": "function"
    },
    {
      "inputs": [],
      "name": "getTokenStats",
      "outputs": [
        {
          "internalType": "uint256",
          "name": "totalSupply_",
          "type": "uint256"
        },
        {
          "internalType": "uint256",
          "name": "totalStaked_",
          "type": "uint256"
        },
        {
          "internalType": "uint256",
          "name": "totalBurned_",
          "type": "uint256"
        },
        {
          "internalType": "uint256",
          "name": "totalRewards_",
          "type": "uint256"
        }
      ],
      "stateMutability": "view",
      "type": "function"
    },
    {
      "inputs": [
        {
          "internalType": "address",
          "name": "spender",
          "type": "address"
        },
        {
          "internalType": "uint256",
          "name": "addedValue",
          "type": "uint256"
        }
      ],
      "name": "increaseAllowance",
      "outputs": [
        {
          "internalType": "bool",
          "name": "",
          "type": "bool"
        }
      ],
      "stateMutability": "nonpayable",
      "type": "function"
    },
    {
      "inputs": [
        {
          "internalType": "string",
          "name": "tokenName",
          "type": "string"
        },
        {
          "internalType": "string",
          "name": "tokenSymbol",
          "type": "string"
        }
      ],
      "name": "initialize",
      "outputs": [],
      "stateMutability": "nonpayable",
      "type": "function"
    },
    {
      "inputs": [],
      "name": "lastRateAdjustment",
      "outputs": [
        {
          "internalType": "uint256",
          "name": "",
          "type": "uint256"
        }
      ],
      "stateMutability": "view",
      "type": "function"
    },
    {
      "inputs": [],
      "name": "lastRewardTime",
      "outputs": [
        {
          "internalType": "uint256",
          "name": "",
          "type": "uint256"
        }
      ],
      "stateMutability": "view",
      "type": "function"
    },
    {
      "inputs": [
        {
          "internalType": "address",
          "name": "to",
          "type": "address"
        },
        {
          "internalType": "uint256",
          "name": "amount",
          "type": "uint256"
        }
      ],
      "name": "mint",
      "outputs": [],
      "stateMutability": "nonpayable",
      "type": "function"
    },
    {
      "inputs": [],
      "name": "name",
      "outputs": [
        {
          "internalType": "string",
          "name": "",
          "type": "string"
        }
      ],
      "stateMutability": "view",
      "type": "function"
    },
    {
      "inputs": [],
      "name": "owner",
      "outputs": [
        {
          "internalType": "address",
          "name": "",
          "type": "address"
        }
      ],
      "stateMutability": "view",
      "type": "function"
    },
    {
      "inputs": [],
      "name": "pause",
      "outputs": [],
      "stateMutability": "nonpayable",
      "type": "function"
    },
    {
      "inputs": [],
      "name": "paused",
      "outputs": [
        {
          "internalType": "bool",
          "name": "",
          "type": "bool"
        }
      ],
      "stateMutability": "view",
      "type": "function"
    },
    {
      "inputs": [
        {
          "internalType": "bytes32",
          "name": "",
          "type": "bytes32"
        }
      ],
      "name": "pendingActions",
      "outputs": [
        {
          "internalType": "uint256",
          "name": "",
          "type": "uint256"
        }
      ],
      "stateMutability": "view",
      "type": "function"
    },
    {
      "inputs": [],
      "name": "proxiableUUID",
      "outputs": [
        {
          "internalType": "bytes32",
          "name": "",
          "type": "bytes32"
        }
      ],
      "stateMutability": "view",
      "type": "function"
    },
    {
      "inputs": [],
      "name": "renounceOwnership",
      "outputs": [],
      "stateMutability": "nonpayable",
      "type": "function"
    },
    {
      "inputs": [
        {
          "internalType": "uint256",
          "name": "",
          "type": "uint256"
        }
      ],
      "name": "rewardRateHistory",
      "outputs": [
        {
          "internalType": "uint256",
          "name": "",
          "type": "uint256"
        }
      ],
      "stateMutability": "view",
      "type": "function"
    },
    {
      "inputs": [
        {
          "internalType": "uint256",
          "name": "_rate",
          "type": "uint256"
        }
      ],
      "name": "scheduleRewardRateChange",
      "outputs": [],
      "stateMutability": "nonpayable",
      "type": "function"
    },
    {
      "inputs": [
        {
          "internalType": "uint256",
          "name": "_rate",
          "type": "uint256"
        }
      ],
      "name": "setBurnRate",
      "outputs": [],
      "stateMutability": "nonpayable",
      "type": "function"
    },
    {
      "inputs": [
        {
          "internalType": "uint256",
          "name": "_rate",
          "type": "uint256"
        }
      ],
      "name": "setStakingRewardRate",
      "outputs": [],
      "stateMutability": "nonpayable",
      "type": "function"
    },
    {
      "inputs": [
        {
          "internalType": "uint256",
          "name": "amount",
          "type": "uint256"
        },
        {
          "internalType": "uint256",
          "name": "tier",
          "type": "uint256"
        }
      ],
      "name": "stake",
      "outputs": [],
      "stateMutability": "nonpayable",
      "type": "function"
    },
    {
      "inputs": [
        {
          "internalType": "address",
          "name": "",
          "type": "address"
        }
      ],
      "name": "stakingInfo",
      "outputs": [
        {
          "internalType": "uint256",
          "name": "amount",
          "type": "uint256"
        },
        {
          "internalType": "uint256",
          "name": "startTime",
          "type": "uint256"
        },
        {
          "internalType": "uint256",
          "name": "lockPeriod",
          "type": "uint256"
        },
        {
          "internalType": "uint256",
          "name": "lastClaimTime",
          "type": "uint256"
        },
        {
          "internalType": "uint256",
          "name": "pendingRewards",
          "type": "uint256"
        }
      ],
      "stateMutability": "view",
      "type": "function"
    },
    {
      "inputs": [],
      "name": "stakingRewardRate",
      "outputs": [
        {
          "internalType": "uint256",
          "name": "",
          "type": "uint256"
        }
      ],
      "stateMutability": "view",
      "type": "function"
    },
    {
      "inputs": [
        {
          "internalType": "uint256",
          "name": "",
          "type": "uint256"
        }
      ],
      "name": "stakingTiers",
      "outputs": [
        {
          "internalType": "uint256",
          "name": "minAmount",
          "type": "uint256"
        },
        {
          "internalType": "uint256",
          "name": "multiplier",
          "type": "uint256"
        },
        {
          "internalType": "uint256",
          "name": "lockPeriod",
          "type": "uint256"
        }
      ],
      "stateMutability": "view",
      "type": "function"
    },
    {
      "inputs": [],
      "name": "symbol",
      "outputs": [
        {
          "internalType": "string",
          "name": "",
          "type": "string"
        }
      ],
      "stateMutability": "view",
      "type": "function"
    },
    {
      "inputs": [],
      "name": "totalBurned",
      "outputs": [
        {
          "internalType": "uint256",
          "name": "",
          "type": "uint256"
        }
      ],
      "stateMutability": "view",
      "type": "function"
    },
    {
      "inputs": [],
      "name": "totalRewardsDistributed",
      "outputs": [
        {
          "internalType": "uint256",
          "name": "",
          "type": "uint256"
        }
      ],
      "stateMutability": "view",
      "type": "function"
    },
    {
      "inputs": [],
      "name": "totalStaked",
      "outputs": [
        {
          "internalType": "uint256",
          "name": "",
          "type": "uint256"
        }
      ],
      "stateMutability": "view",
      "type": "function"
    },
    {
      "inputs": [],
      "name": "totalSupply",
      "outputs": [
        {
          "internalType": "uint256",
          "name": "",
          "type": "uint256"
        }
      ],
      "stateMutability": "view",
      "type": "function"
    },
    {
      "inputs": [
        {
          "internalType": "address",
          "name": "to",
          "type": "address"
        },
        {
          "internalType": "uint256",
          "name": "amount",
          "type": "uint256"
        }
      ],
      "name": "transfer",
      "outputs": [
        {
          "internalType": "bool",
          "name": "",
          "type": "bool"
        }
      ],
      "stateMutability": "nonpayable",
      "type": "function"
    },
    {
      "inputs": [
        {
          "internalType": "address",
          "name": "from",
          "type": "address"
        },
        {
          "internalType": "address",
          "name": "to",
          "type": "address"
        },
        {
          "internalType": "uint256",
          "name": "amount",
          "type": "uint256"
        }
      ],
      "name": "transferFrom",
      "outputs": [
        {
          "internalType": "bool",
          "name": "",
          "type": "bool"
        }
      ],
      "stateMutability": "nonpayable",
      "type": "function"
    },
    {
      "inputs": [
        {
          "internalType": "address",
          "name": "newOwner",
          "type": "address"
        }
      ],
      "name": "transferOwnership",
      "outputs": [],
      "stateMutability": "nonpayable",
      "type": "function"
    },
    {
      "inputs": [],
      "name": "unpause",
      "outputs": [],
      "stateMutability": "nonpayable",
      "type": "function"
    },
    {
      "inputs": [],
      "name": "unstake",
      "outputs": [],
      "stateMutability": "nonpayable",
      "type": "function"
    },
    {
      "inputs": [
        {
          "internalType": "uint256",
          "name": "tier",
          "type": "uint256"
        },
        {
          "internalType": "uint256",
          "name": "minAmount",
          "type": "uint256"
        },
        {
          "internalType": "uint256",
          "name": "multiplier",
          "type": "uint256"
        },
        {
          "internalType": "uint256",
          "name": "lockPeriod",
          "type": "uint256"
        }
      ],
      "name": "updateStakingTier",
      "outputs": [],
      "stateMutability": "nonpayable",
      "type": "function"
    },
    {
      "inputs": [
        {
          "internalType": "address",
          "name": "newImplementation",
          "type": "address"
        }
      ],
      "name": "upgradeTo",
      "outputs": [],
      "stateMutability": "nonpayable",
      "type": "function"
    },
    {
      "inputs": [
        {
          "internalType": "address",
          "name": "newImplementation",
          "type": "address"
        },
        {
          "internalType": "bytes",
          "name": "data",
          "type": "bytes"
        }
      ],
      "name": "upgradeToAndCall",
      "outputs": [],
      "stateMutability": "payable",
      "type": "function"
    }
  ],
  "bytecode": "0x60a0604052306080526101cd805461ffff60a01b19169055348015602257600080fd5b50608051613e4361005a60003960008181610f3201528181610f72015281816115e60152818161162601526116ec0152613e436000f3fe60806040526004361061030f5760003560e01c8063715018a611610198578063715018a6146106fc578063718dc3c31461071157806379cc6790146107275780637b0472f014610747578063817b1cd2146107675780638456cb591461077e5780638da5cb5b146107935780638faa1856146107a85780639231cf74146107c857806394eecb50146107df57806395d89b411461083b578063993eb1c5146108505780639a46e41214610866578063a457c2d71461087b578063a9059cbb1461089b578063aa4704f3146108bb578063b3c6cd7614610908578063b7d685191461097a578063b99dcae51461099a578063be6fe8e9146109b0578063bed99850146109d0578063bf1ad7e01461099a578063c3fb4d62146109e7578063d50267ee146109fe578063d86b56f714610a3b578063d89135cd14610a50578063db2e21bc14610a67578063dd62ed3e14610a7c578063e30569e514610a9c578063e3d3f84314610aca578063ee17254614610adf578063f2fde38b14610af6578063f9428f3814610711578063fd99cbed14610b1657600080fd5b806306fdde0314610314578063095ea7b31461033f578063097cd9bf1461036f57806318160ddd14610394578063189d165e146103b357806323b872dd146103d557806327c830a9146103f55780632def6620146104175780632ff2e9dc1461042c578063313ce5671461044b57806332cb6b0c1461046757806335c3c8bf1461048657806336301533146104a65780633659cfe6146104bb578063372500ab146104db57806339509351146104f0578063399585aa146105105780633c0847f5146105275780633f4ba83a1461053c57806340c10f191461055157806342966c68146105715780634a4e3bd5146105915780634cd88b76146105a65780634f1ef286146105c65780634f3fc2df146105d957806351858e27146105f057806352d1902d146106055780635747e69f1461061a5780635ba1c1a91461063c5780635c975abb14610653578063683d12b01461066b5780636b12686b1461069957806370a08231146106ae57806370d5ae05146106ce575b600080fd5b34801561032057600080fd5b50610329610b2c565b6040516103369190613590565b60405180910390f35b34801561034b57600080fd5b5061035f61035a3660046135df565b610bbe565b6040519015158152602001610336565b34801561037b57600080fd5b50610384610bd8565b6040516103369493929190613609565b3480156103a057600080fd5b506035545b604051908152602001610336565b3480156103bf57600080fd5b506103d36103ce366004613624565b610c01565b005b3480156103e157600080fd5b5061035f6103f036600461363d565b610c6f565b34801561040157600080fd5b506101cd5461035f90600160a01b900460ff1681565b34801561042357600080fd5b506103d3610c93565b34801561043857600080fd5b506103a56a52b7d2dcc80cd2e400000081565b34801561045757600080fd5b5060405160128152602001610336565b34801561047357600080fd5b506103a5676765c793fa10079d601b1b81565b34801561049257600080fd5b506103d36104a136600461367a565b610de3565b3480156104b257600080fd5b506103d3610ed0565b3480156104c757600080fd5b506103d36104d63660046136ac565b610f28565b3480156104e757600080fd5b506103d3610ff0565b3480156104fc57600080fd5b5061035f61050b3660046135df565b6110c2565b34801561051c57600080fd5b506103a56101ca5481565b34801561053357600080fd5b506103a5600081565b34801561054857600080fd5b506103d36110e4565b34801561055d57600080fd5b506103d361056c3660046135df565b6110f4565b34801561057d57600080fd5b506103d361058c366004613624565b61116d565b34801561059d57600080fd5b506103d3611177565b3480156105b257600080fd5b506103d36105c136600461370f565b6111bd565b6103d36105d4366004613794565b6115dc565b3480156105e557600080fd5b506103a56101c75481565b3480156105fc57600080fd5b506103d3611691565b34801561061157600080fd5b506103a56116df565b34801561062657600080fd5b506101cd5461035f90600160a81b900460ff1681565b34801561064857600080fd5b506103a56202a30081565b34801561065f57600080fd5b5060975460ff1661035f565b34801561067757600080fd5b506103a5610686366004613624565b6101c96020526000908152604090205481565b3480156106a557600080fd5b506103a5606481565b3480156106ba57600080fd5b506103a56106c93660046136ac565b61178d565b3480156106da57600080fd5b506101cd546106ef906001600160a01b031681565b604051610336919061385b565b34801561070857600080fd5b506103d36117a8565b34801561071d57600080fd5b506103a56103e881565b34801561073357600080fd5b506103d36107423660046135df565b6117ba565b34801561075357600080fd5b506103d361076236600461386f565b6117cf565b34801561077357600080fd5b506103a56101c55481565b34801561078a57600080fd5b506103d3611b3b565b34801561079f57600080fd5b506106ef611b4b565b3480156107b457600080fd5b506103d36107c3366004613891565b611b5a565b3480156107d457600080fd5b506103a56101c85481565b3480156107eb57600080fd5b5061082a6107fa3660046136ac565b6101c360205260009081526040902080546001820154600283015460038401546004909401549293919290919085565b6040516103369594939291906138dc565b34801561084757600080fd5b50610329611c1c565b34801561085c57600080fd5b506103a5610fa081565b34801561087257600080fd5b506103a5600181565b34801561088757600080fd5b5061035f6108963660046135df565b611c2b565b3480156108a757600080fd5b5061035f6108b63660046135df565b611ca6565b3480156108c757600080fd5b506108db6108d63660046136ac565b611cb4565b604080519687526020870195909552938501929092526060840152608083015260a082015260c001610336565b34801561091457600080fd5b5061095f610923366004613624565b60008181526101c46020908152604091829020825160608101845281548082526001830154938201849052600290920154930183905293909250565b60408051938452602084019290925290820152606001610336565b34801561098657600080fd5b506103d3610995366004613624565b611d43565b3480156109a657600080fd5b506103a56105dc81565b3480156109bc57600080fd5b506103d36109cb366004613624565b611eb8565b3480156109dc57600080fd5b506103a56101cc5481565b3480156109f357600080fd5b506103a562278d0081565b348015610a0a57600080fd5b5061095f610a19366004613624565b6101c46020526000908152604090208054600182015460029092015490919083565b348015610a4757600080fd5b506103a5600381565b348015610a5c57600080fd5b506103a56101cb5481565b348015610a7357600080fd5b506103d3611f71565b348015610a8857600080fd5b506103a5610a973660046138ff565b61207f565b348015610aa857600080fd5b506103a5610ab7366004613624565b6101ce6020526000908152604090205481565b348015610ad657600080fd5b506103a5600281565b348015610aeb57600080fd5b506103a56101c65481565b348015610b0257600080fd5b506103d3610b113660046136ac565b6120aa565b348015610b2257600080fd5b506103a56107d081565b606060368054610b3b90613932565b80601f0160208091040260200160405190810160405280929190818152602001828054610b6790613932565b8015610bb45780601f10610b8957610100808354040283529160200191610bb4565b820191906000526020600020905b815481529060010190602001808311610b9757829003601f168201915b5050505050905090565b600033610bcc818585612120565b60019150505b92915050565b600080600080610be760355490565b6101c5546101cb546101c654935093509350935090919293565b610c09612244565b6064811115610c335760405162461bcd60e51b8152600401610c2a9061396c565b60405180910390fd5b6101cc8190556040518181527f47863b595116a31383855975a4078913dce7881e717b75a06ced2db5d534ff789060200160405180910390a150565b600033610c7d8582856122a3565b610c8885858561231d565b506001949350505050565b610c9b612419565b3360009081526101c3602052604090208054610cc95760405162461bcd60e51b8152600401610c2a90613993565b80600201548160010154610cdd91906139d3565b421015610d245760405162461bcd60e51b8152602060048201526015602482015274131bd8dac81c195c9a5bd9081b9bdd08195b991959605a1b6044820152606401610c2a565b6000610d2f33612474565b905081600001546101c56000828254610d4891906139e6565b90915550503360008181526101c360205260408120818155600181018290556002810182905560038101829055600401558254610d8691309161231d565b8015610d9657610d9633826125b7565b8154604080519182526020820183905233917f7fc4727e062e336010f2c282598ef5f14facb3de68cf8195c2f23e1454b2b74e91015b60405180910390a25050610de1600161012d55565b565b610deb612244565b6003841115610e0c5760405162461bcd60e51b8152600401610c2a906139f9565b612710821015610e535760405162461bcd60e51b81526020600482015260126024820152714d756c7469706c69657220746f6f206c6f7760701b6044820152606401610c2a565b60408051606081018252848152602080820185815282840185815260008981526101c4909352918490209251835551600183015551600290910155517f91940991fd73ef268916dee3054fe76c2defd6b2f7ea5936da2aca2ebfa5685590610ec2908690869086908690613609565b60405180910390a150505050565b610ed8612244565b6101cd805460ff60a81b1916600160a81b1790556040517f25004abd8ec665bad2ee0fe374e3b11952166214e204b05d2ea4122417dc220490610f1e9042815260200190565b60405180910390a1565b6001600160a01b037f0000000000000000000000000000000000000000000000000000000000000000163003610f705760405162461bcd60e51b8152600401610c2a90613a1f565b7f00000000000000000000000000000000000000000000000000000000000000006001600160a01b0316610fa2612690565b6001600160a01b031614610fc85760405162461bcd60e51b8152600401610c2a90613a59565b610fd1816126ac565b60408051600080825260208201909252610fed918391906126b4565b50565b610ff8612419565b3360009081526101c36020526040902080546110265760405162461bcd60e51b8152600401610c2a90613993565b600061103133612474565b9050600081116110795760405162461bcd60e51b81526020600482015260136024820152724e6f207265776172647320746f20636c61696d60681b6044820152606401610c2a565b4260038301556000600483015561109033826125b7565b60405181815233907ffc30cddea38e2bf4d6ea7d3f9ed3b6ad7f176419f4963bd81318067a4aee73fe90602001610dcc565b600033610bcc8185856110d5838361207f565b6110df91906139d3565b612120565b6110ec612244565b610de161281f565b6110fc612244565b676765c793fa10079d601b1b8161111260355490565b61111c91906139d3565b111561115f5760405162461bcd60e51b815260206004820152601260248201527145786365656473206d617820737570706c7960701b6044820152606401610c2a565b6111698282612861565b5050565b610fed338261291c565b61117f612244565b6101cd805460ff60a01b191690556040514281527f4e8fee6624a216c6c87fdeaeaab7686889991b2c1ffcd95d51e9a30352e2908090602001610f1e565b600054610100900460ff16158080156111dd5750600054600160ff909116105b806111fe57506111ec30612a4a565b1580156111fe575060005460ff166001145b6112615760405162461bcd60e51b815260206004820152602e60248201527f496e697469616c697a61626c653a20636f6e747261637420697320616c72656160448201526d191e481a5b9a5d1a585b1a5e995960921b6064820152608401610c2a565b6000805460ff191660011790558015611284576000805461ff0019166101001790555b6112f785858080601f01602080910402602001604051908101604052809392919081815260200183838082843760009201919091525050604080516020601f89018190048102820181019092528781529250879150869081908401838280828437600092019190915250612a5992505050565b6112ff612a8a565b611307612ab1565b61130f612ae0565b611317612b0f565b61131f612a8a565b6101f46101c75560196101cc556101cd80546001600160a01b03191661dead179055426101c88190556101ca556115876040805160608082018352683635c9adc5dea000008252612710602080840191825262278d0084860190815260008080526101c480845295517f900a14da7b74a618a1c29a2c66a3b979a3228cef88a1bb8e8ee5ed807c9db89f5592517f900a14da7b74a618a1c29a2c66a3b979a3228cef88a1bb8e8ee5ed807c9db8a055517f900a14da7b74a618a1c29a2c66a3b979a3228cef88a1bb8e8ee5ed807c9db8a1558451808401865269021e19e0c9bab24000008152613a988183019081526276a700828801908152600185528684529151600080516020613dce83398151915255517ff6ccb3c78ad86b3231879707325826c087a2d02dd70eb918b97f248746719e7155517ff6ccb3c78ad86b3231879707325826c087a2d02dd70eb918b97f248746719e725584518084018652690a968163f0a57b4000008152614e2081830190815262ed4e00828801908152600285528684529151600080516020613dee83398151915255517f2a271a6e4d4f3524cc28dcdc2fc7eb3733f7b596bb6a78b6597c134ac9f9f96755517f2a271a6e4d4f3524cc28dcdc2fc7eb3733f7b596bb6a78b6597c134ac9f9f968558451928301855269152d02c7e14af680000083526175308382019081526301e1338095840195865260039092529290925251600080516020613d0783398151915255517f01fe604e604fe8f473951b43558adbf7f983ccc6feb0f0f4bfbc8e2d38dfcd2755517f01fe604e604fe8f473951b43558adbf7f983ccc6feb0f0f4bfbc8e2d38dfcd2855565b61158f612b3e565b80156115d5576000805461ff0019169055604051600181527f7f26b83ff96e1f2b6a682f133852f6798a09c465da95921460cefb38474024989060200160405180910390a15b5050505050565b6001600160a01b037f00000000000000000000000000000000000000000000000000000000000000001630036116245760405162461bcd60e51b8152600401610c2a90613a1f565b7f00000000000000000000000000000000000000000000000000000000000000006001600160a01b0316611656612690565b6001600160a01b03161461167c5760405162461bcd60e51b8152600401610c2a90613a59565b611685826126ac565b611169828260016126b4565b611699612244565b6101cd805460ff60a01b1916600160a01b1790556040517f11d8c430ae8dff60717610a0356ce3ac35187fc9569e6adfe01d281cc1c167d590610f1e9042815260200190565b6000306001600160a01b037f0000000000000000000000000000000000000000000000000000000000000000161461177a5760405162461bcd60e51b815260206004820152603860248201527f555550535570677261646561626c653a206d757374206e6f742062652063616c6044820152771b1959081d1a1c9bdd59da0819195b1959d85d1958d85b1b60421b6064820152608401610c2a565b50600080516020613d6783398151915290565b6001600160a01b031660009081526033602052604090205490565b6117b0612244565b610de16000612d19565b6117c58233836122a3565b611169828261291c565b6117d7612419565b6117df612d6b565b6101cd54600160a01b900460ff16156118395760405162461bcd60e51b815260206004820152601c60248201527b10dbdb9d1c9858dd081a5cc8195b595c99d95b98de481c185d5cd95960221b6044820152606401610c2a565b600082116118595760405162461bcd60e51b8152600401610c2a90613a93565b600381111561187a5760405162461bcd60e51b8152600401610c2a906139f9565b60008181526101c4602090815260409182902082516060810184528154808252600183015493820193909352600290910154928101929092528310156118fe5760405162461bcd60e51b8152602060048201526019602482015278416d6f756e742062656c6f772074696572206d696e696d756d60381b6044820152606401610c2a565b3360009081526101c360205260409020805415611aa157600061192033612474565b90508082600401600082825461193691906139d3565b9091555050815460009061194b9087906139d3565b9050600061195c8460000154612db1565b9050600061196983612db1565b90508181146119cf5760405162461bcd60e51b815260206004820152602c60248201527f54696572206368616e6765206e6f7420616c6c6f77656420666f72206164646960448201526b74696f6e616c207374616b6560a01b6064820152608401610c2a565b868114611a0e5760405162461bcd60e51b815260206004820152600d60248201526c0a8d2cae440dad2e6dac2e8c6d609b1b6044820152606401610c2a565b6003871015611a91576101c46000611a278960016139d3565b8152602001908152602001600020600001548310611a915760405162461bcd60e51b815260206004820152602160248201527f416d6f756e7420657863656564732063757272656e742074696572206c696d696044820152601d60fa1b6064820152608401610c2a565b5050825550426003820155611ac3565b8381554260018201819055604083015160028301556003820155600060048201555b611ace33308661231d565b836101c56000828254611ae191906139d3565b90915550506040828101518151868152602081019190915290810184905233907fb4caaf29adda3eefee3ad552a8e85058589bf834c7466cae4ee58787f70589ed9060600160405180910390a25050611169600161012d55565b611b43612244565b610de1612e36565b60fb546001600160a01b031690565b60008311611b7a5760405162461bcd60e51b8152600401610c2a90613a93565b82611b843361178d565b1015611bc95760405162461bcd60e51b8152602060048201526014602482015273496e73756666696369656e742062616c616e636560601b6044820152606401610c2a565b611bd3338461291c565b826101cb6000828254611be691906139d3565b90915550506040513390600080516020613ce783398151915290611c0f90869086908690613aca565b60405180910390a2505050565b606060378054610b3b90613932565b60003381611c39828661207f565b905083811015611c995760405162461bcd60e51b815260206004820152602560248201527f45524332303a2064656372656173656420616c6c6f77616e63652062656c6f77604482015264207a65726f60d81b6064820152608401610c2a565b610c888286868403612120565b600033610bcc81858561231d565b6001600160a01b03811660009081526101c360209081526040808320815160a081018352815480825260018301549482018590526002830154938201849052600383015460608301819052600490930154608083015285948594859485948594909390929091611d238c612474565b8551611d2e90612db1565b949d939c50919a509850965090945092505050565b611d4b612244565b600081604051602001611d5e9190613b00565b6040516020818303038152906040528051906020012090506101ce600082815260200190815260200160002054600003611dd15760405162461bcd60e51b81526020600482015260146024820152731058dd1a5bdb881b9bdd081cd8da19591d5b195960621b6044820152606401610c2a565b60008181526101ce6020526040902054421015611e275760405162461bcd60e51b8152602060048201526014602482015273151a5b595b1bd8dac81b9bdd08195e1c1a5c995960621b6044820152606401610c2a565b6103e8821115611e495760405162461bcd60e51b8152600401610c2a9061396c565b6101c782905560008181526101ce60205260408082209190915551600080516020613d2783398151915290611e819084815260200190565b60405180910390a160405181907f9b5a634ce9dbcc1cc28dbce24cd5b30136689ff28f9ae433837bd68895d7d5e090600090a25050565b611ec0612244565b6103e8811115611ee25760405162461bcd60e51b8152600401610c2a9061396c565b600081604051602001611ef59190613b00565b6040516020818303038152906040528051906020012090506202a30042611f1c91906139d3565b60008281526101ce6020526040902055807fcea0074f4f4b38eaa71c648790bc6a479e43332613889d0b0f0aec9554d40e68611f5b6202a300426139d3565b6040519081526020015b60405180910390a25050565b6101cd54600160a81b900460ff16611fcb5760405162461bcd60e51b815260206004820152601e60248201527f456d657267656e6379207769746864726177206e6f7420656e61626c656400006044820152606401610c2a565b3360009081526101c3602052604090208054611ff95760405162461bcd60e51b8152600401610c2a90613993565b80543360009081526101c3602052604081208181556001810182905560028101829055600381018290556004018190556101c5805483929061203c9084906139e6565b9091555061204d905030338361231d565b60405181815233907f5fafa99d0643513820be26656b45130b01e1c03062e1266bf36f88cbd3bd969590602001611f65565b6001600160a01b03918216600090815260346020908152604080832093909416825291909152205490565b6120b2612244565b6001600160a01b0381166121175760405162461bcd60e51b815260206004820152602660248201527f4f776e61626c653a206e6577206f776e657220697320746865207a65726f206160448201526564647265737360d01b6064820152608401610c2a565b610fed81612d19565b6001600160a01b0383166121825760405162461bcd60e51b8152602060048201526024808201527f45524332303a20617070726f76652066726f6d20746865207a65726f206164646044820152637265737360e01b6064820152608401610c2a565b6001600160a01b0382166121e35760405162461bcd60e51b815260206004820152602260248201527f45524332303a20617070726f766520746f20746865207a65726f206164647265604482015261737360f01b6064820152608401610c2a565b6001600160a01b0383811660008181526034602090815260408083209487168084529482529182902085905590518481527f8c5be1e5ebec7d5bd14f71427d1e84f3dd0314c0f7b2291e5b200ac8c7c3b925910160405180910390a3505050565b3361224d611b4b565b6001600160a01b031614610de15760405162461bcd60e51b815260206004820181905260248201527f4f776e61626c653a2063616c6c6572206973206e6f7420746865206f776e65726044820152606401610c2a565b60006122af848461207f565b90506000198114612317578181101561230a5760405162461bcd60e51b815260206004820152601d60248201527f45524332303a20696e73756666696369656e7420616c6c6f77616e63650000006044820152606401610c2a565b6123178484848403612120565b50505050565b60006101cc5411801561233957506001600160a01b0383163014155b801561234e57506001600160a01b0382163014155b156124095760006127106101cc54836123679190613b28565b6123719190613b3f565b9050801561240757612383848261291c565b806101cb600082825461239691906139d3565b909155506123a6905081836139e6565b9150836001600160a01b0316600080516020613ce7833981519152826040516123fe9181526040602082018190526015908201527420baba3796b13ab9371037b7103a3930b739b332b960591b606082015260800190565b60405180910390a25b505b612414838383612e73565b505050565b600261012d540361246c5760405162461bcd60e51b815260206004820152601f60248201527f5265656e7472616e637947756172643a207265656e7472616e742063616c6c006044820152606401610c2a565b600261012d55565b6001600160a01b03811660009081526101c360209081526040808320815160a0810183528154808252600183015494820194909452600282015492810192909252600381015460608301526004015460808201529082036124d85750600092915050565b60006124e78260000151612db1565b60008181526101c4602090815260408083208151606080820184528254825260018301549482019490945260029091015491810191909152908501519293509161253190426139e6565b905080600003612548575050506080015192915050565b600064496cebb800826101c75487600001516125649190613b28565b61256e9190613b28565b6125789190613b3f565b9050600061271084602001518361258f9190613b28565b6125999190613b3f565b90508086608001516125ab91906139d3565b98975050505050505050565b60006125c23061178d565b90508181106125f4576125d630848461231d565b816101c660008282546125e991906139d3565b909155506124149050565b6125fc613017565b600061260784612474565b90508082106126395761261b30858361231d565b806101c6600082825461262e91906139d3565b909155506123179050565b6101c75460009061264b606484613b28565b6126559190613b3f565b90508083106115d55761266930868361231d565b806101c6600082825461267c91906139d3565b90915550505050505050565b600161012d55565b600080516020613d67833981519152546001600160a01b031690565b610fed612244565b7f4910fdfa16fed3260ed0e7147f7cc6da11a60208b5b9406d12a635614ffd91435460ff16156126e7576124148361319c565b826001600160a01b03166352d1902d6040518163ffffffff1660e01b8152600401602060405180830381865afa925050508015612741575060408051601f3d908101601f1916820190925261273e91810190613b61565b60015b6127a45760405162461bcd60e51b815260206004820152602e60248201527f45524331393637557067726164653a206e657720696d706c656d656e7461746960448201526d6f6e206973206e6f74205555505360901b6064820152608401610c2a565b600080516020613d6783398151915281146128135760405162461bcd60e51b815260206004820152602960248201527f45524331393637557067726164653a20756e737570706f727465642070726f786044820152681a58589b195555525160ba1b6064820152608401610c2a565b50612414838383613236565b61282761325b565b6097805460ff191690557f5db9ee0a495bf2e6ff9c91a7834c1ba4fdd244a5e8aa4e537bd38aeae4b073aa335b604051610f1e919061385b565b6001600160a01b0382166128b75760405162461bcd60e51b815260206004820152601f60248201527f45524332303a206d696e7420746f20746865207a65726f2061646472657373006044820152606401610c2a565b6128c3600083836132a4565b80603560008282546128d591906139d3565b90915550506001600160a01b038216600081815260336020908152604080832080548601905551848152600080516020613dae833981519152910160405180910390a35050565b6001600160a01b03821661297c5760405162461bcd60e51b815260206004820152602160248201527f45524332303a206275726e2066726f6d20746865207a65726f206164647265736044820152607360f81b6064820152608401610c2a565b612988826000836132a4565b6001600160a01b038216600090815260336020526040902054818110156129fc5760405162461bcd60e51b815260206004820152602260248201527f45524332303a206275726e20616d6f756e7420657863656564732062616c616e604482015261636560f01b6064820152608401610c2a565b6001600160a01b0383166000818152603360209081526040808320868603905560358054879003905551858152919291600080516020613dae833981519152910160405180910390a3505050565b6001600160a01b03163b151590565b600054610100900460ff16612a805760405162461bcd60e51b8152600401610c2a90613b7a565b61116982826132af565b600054610100900460ff16610de15760405162461bcd60e51b8152600401610c2a90613b7a565b600054610100900460ff16612ad85760405162461bcd60e51b8152600401610c2a90613b7a565b610de16132ef565b600054610100900460ff16612b075760405162461bcd60e51b8152600401610c2a90613b7a565b610de1613322565b600054610100900460ff16612b365760405162461bcd60e51b8152600401610c2a90613b7a565b610de1613352565b6000612710612b5a610fa06a52b7d2dcc80cd2e4000000613b28565b612b649190613b3f565b9050612b703382612861565b6000612710612b8c6107d06a52b7d2dcc80cd2e4000000613b28565b612b969190613b3f565b9050612ba23382612861565b6000612710612bbe6105dc6a52b7d2dcc80cd2e4000000613b28565b612bc89190613b3f565b9050612bd43382612861565b6000612710612bf06105dc6a52b7d2dcc80cd2e4000000613b28565b612bfa9190613b3f565b9050612c063082612861565b6000612710612c226103e86a52b7d2dcc80cd2e4000000613b28565b612c2c9190613b3f565b9050612c383382612861565b6000818385612c47888a6139d3565b612c5191906139d3565b612c5b91906139d3565b612c6591906139d3565b90506a52b7d2dcc80cd2e4000000811115612cd25760405162461bcd60e51b815260206004820152602760248201527f546f74616c20616c6c6f636174696f6e206578636565647320696e697469616c60448201526620737570706c7960c81b6064820152608401610c2a565b7f3befad135675625e5587bd75e1c3e27a96bf101bfdca64e2e7d89ab01632c9378686868686604051612d099594939291906138dc565b60405180910390a1505050505050565b60fb80546001600160a01b038381166001600160a01b0319831681179093556040519116919082907f8be0079c531659141344cd1fd0a4f28419497f9722a3daafe3b4186f6b6457e090600090a35050565b60975460ff1615610de15760405162461bcd60e51b815260206004820152601060248201526f14185d5cd8589b194e881c185d5cd95960821b6044820152606401610c2a565b600360009081526101c4602052600080516020613d07833981519152548210612ddc57506003919050565b60026000526101c4602052600080516020613dee833981519152548210612e0557506002919050565b60016000526101c4602052600080516020613dce833981519152548210612e2e57506001919050565b506000919050565b612e3e612d6b565b6097805460ff191660011790557f62e78cea01bee320cd4e420270b5ea74000d11b0c9f74754ebdbfc544b05a2586128543390565b6001600160a01b038316612ed75760405162461bcd60e51b815260206004820152602560248201527f45524332303a207472616e736665722066726f6d20746865207a65726f206164604482015264647265737360d81b6064820152608401610c2a565b6001600160a01b038216612f395760405162461bcd60e51b815260206004820152602360248201527f45524332303a207472616e7366657220746f20746865207a65726f206164647260448201526265737360e81b6064820152608401610c2a565b612f448383836132a4565b6001600160a01b03831660009081526033602052604090205481811015612fbc5760405162461bcd60e51b815260206004820152602660248201527f45524332303a207472616e7366657220616d6f756e7420657863656564732062604482015265616c616e636560d01b6064820152608401610c2a565b6001600160a01b038085166000818152603360205260408082208686039055928616808252908390208054860190559151600080516020613dae8339815191529061300a9086815260200190565b60405180910390a3612317565b62278d006101ca5461302991906139d3565b4210156130775760405162461bcd60e51b815260206004820152601c60248201527b14985d194818591a9d5cdd1b595b9d081d1bdbc8199c995c5d595b9d60221b6044820152606401610c2a565b60006130823061178d565b6101c5549091506000819003613096575050565b6000816130a584612710613b28565b6130af9190613b3f565b90506103e88110156130e05760646101c75460506130cd9190613b28565b6130d79190613b3f565b6101c755613127565b6107d08110156130fc5760646101c754605a6130cd9190613b28565b6113888111156131275760646101c75460696131189190613b28565b6131229190613b3f565b6101c7555b60646101c754101561313e5760646101c755613153565b6103e86101c7541115613153576103e86101c7555b6101c7544360009081526101c9602052604090819020829055426101ca5551600080516020613d278339815191529161318f9190815260200190565b60405180910390a1505050565b6131a581612a4a565b6132075760405162461bcd60e51b815260206004820152602d60248201527f455243313936373a206e657720696d706c656d656e746174696f6e206973206e60448201526c1bdd08184818dbdb9d1c9858dd609a1b6064820152608401610c2a565b600080516020613d6783398151915280546001600160a01b0319166001600160a01b0392909216919091179055565b61323f83613379565b60008251118061324c5750805b156124145761231783836133b9565b60975460ff16610de15760405162461bcd60e51b815260206004820152601460248201527314185d5cd8589b194e881b9bdd081c185d5cd95960621b6044820152606401610c2a565b6124148383836133e5565b600054610100900460ff166132d65760405162461bcd60e51b8152600401610c2a90613b7a565b60366132e28382613c0c565b5060376124148282613c0c565b600054610100900460ff166133165760405162461bcd60e51b8152600401610c2a90613b7a565b6097805460ff19169055565b600054610100900460ff166133495760405162461bcd60e51b8152600401610c2a90613b7a565b610de133612d19565b600054610100900460ff166126885760405162461bcd60e51b8152600401610c2a90613b7a565b6133828161319c565b6040516001600160a01b038216907fbc7cd75a20ee27fd9adebab32041f755214dbc6bffa90cc0225b39da2e5c2d3b90600090a250565b60606133de8383604051806060016040528060278152602001613d876027913961344b565b9392505050565b60975460ff16156124145760405162461bcd60e51b815260206004820152602a60248201527f45524332305061757361626c653a20746f6b656e207472616e736665722077686044820152691a5b19481c185d5cd95960b21b6064820152608401610c2a565b6060600080856001600160a01b0316856040516134689190613cca565b600060405180830381855af49150503d80600081146134a3576040519150601f19603f3d011682016040523d82523d6000602084013e6134a8565b606091505b50915091506134b9868383876134c3565b9695505050505050565b60608315613530578251600003613529576134dd85612a4a565b6135295760405162461bcd60e51b815260206004820152601d60248201527f416464726573733a2063616c6c20746f206e6f6e2d636f6e74726163740000006044820152606401610c2a565b508161353a565b61353a8383613542565b949350505050565b8151156135525781518083602001fd5b8060405162461bcd60e51b8152600401610c2a9190613590565b60005b8381101561358757818101518382015260200161356f565b50506000910152565b60208152600082518060208401526135af81604085016020870161356c565b601f01601f19169190910160400192915050565b80356001600160a01b03811681146135da57600080fd5b919050565b600080604083850312156135f257600080fd5b6135fb836135c3565b946020939093013593505050565b93845260208401929092526040830152606082015260800190565b60006020828403121561363657600080fd5b5035919050565b60008060006060848603121561365257600080fd5b61365b846135c3565b9250613669602085016135c3565b929592945050506040919091013590565b6000806000806080858703121561369057600080fd5b5050823594602084013594506040840135936060013592509050565b6000602082840312156136be57600080fd5b6133de826135c3565b60008083601f8401126136d957600080fd5b5081356001600160401b038111156136f057600080fd5b60208301915083602082850101111561370857600080fd5b9250929050565b6000806000806040858703121561372557600080fd5b84356001600160401b0381111561373b57600080fd5b613747878288016136c7565b90955093505060208501356001600160401b0381111561376657600080fd5b613772878288016136c7565b95989497509550505050565b634e487b7160e01b600052604160045260246000fd5b600080604083850312156137a757600080fd5b6137b0836135c3565b915060208301356001600160401b038111156137cb57600080fd5b8301601f810185136137dc57600080fd5b80356001600160401b038111156137f5576137f561377e565b604051601f8201601f19908116603f011681016001600160401b03811182821017156138235761382361377e565b60405281815282820160200187101561383b57600080fd5b816020840160208301376000602083830101528093505050509250929050565b6001600160a01b0391909116815260200190565b6000806040838503121561388257600080fd5b50508035926020909101359150565b6000806000604084860312156138a657600080fd5b8335925060208401356001600160401b038111156138c357600080fd5b6138cf868287016136c7565b9497909650939450505050565b948552602085019390935260408401919091526060830152608082015260a00190565b6000806040838503121561391257600080fd5b61391b836135c3565b9150613929602084016135c3565b90509250929050565b600181811c9082168061394657607f821691505b60208210810361396657634e487b7160e01b600052602260045260246000fd5b50919050565b6020808252600d908201526c0a4c2e8ca40e8dede40d0d2ced609b1b604082015260600190565b60208082526010908201526f139bc81cdd185ada5b99c8199bdd5b9960821b604082015260600190565b634e487b7160e01b600052601160045260246000fd5b80820180821115610bd257610bd26139bd565b81810381811115610bd257610bd26139bd565b6020808252600c908201526b24b73b30b634b2103a34b2b960a11b604082015260600190565b6020808252602c90820152600080516020613d4783398151915260408201526b19195b1959d85d1958d85b1b60a21b606082015260800190565b6020808252602c90820152600080516020613d4783398151915260408201526b6163746976652070726f787960a01b606082015260800190565b6020808252601d908201527f416d6f756e74206d7573742062652067726561746572207468616e2030000000604082015260600190565b83815260406020820152816040820152818360608301376000818301606090810191909152601f909201601f1916010192915050565b737365745374616b696e675265776172645261746560601b8152601481019190915260340190565b8082028115828204841417610bd257610bd26139bd565b600082613b5c57634e487b7160e01b600052601260045260246000fd5b500490565b600060208284031215613b7357600080fd5b5051919050565b6020808252602b908201527f496e697469616c697a61626c653a20636f6e7472616374206973206e6f74206960408201526a6e697469616c697a696e6760a81b606082015260800190565b601f82111561241457806000526020600020601f840160051c81016020851015613bec5750805b601f840160051c820191505b818110156115d55760008155600101613bf8565b81516001600160401b03811115613c2557613c2561377e565b613c3981613c338454613932565b84613bc5565b6020601f821160018114613c6d5760008315613c555750848201515b600019600385901b1c1916600184901b1784556115d5565b600084815260208120601f198516915b82811015613c9d5787850151825560209485019460019092019101613c7d565b5084821015613cbb5786840151600019600387901b60f8161c191681555b50505050600190811b01905550565b60008251613cdc81846020870161356c565b919091019291505056fefad31924d655455395c87544c8aa1ffdb5a7505a22a3c2e03f28003b6556a75f01fe604e604fe8f473951b43558adbf7f983ccc6feb0f0f4bfbc8e2d38dfcd2639c078e0c9be5a018723ae5517e933105b55d82377b3f6b19db1933767a21bdc46756e6374696f6e206d7573742062652063616c6c6564207468726f75676820360894a13ba1a3210667c828492db98dca3e2076cc3735a920a3ca505d382bbc416464726573733a206c6f772d6c6576656c2064656c65676174652063616c6c206661696c6564ddf252ad1be2c89b69c2b068fc378daa952ba7f163c4a11628f55a4df523b3eff6ccb3c78ad86b3231879707325826c087a2d02dd70eb918b97f248746719e702a271a6e4d4f3524cc28dcdc2fc7eb3733f7b596bb6a78b6597c134ac9f9f966a2646970667358221220243ff4047409917e40be38f7d0bac217ab641049b6501fbe9fe7037fca04f8b164736f6c634300081e0033",
  "linkReferences": {},
  "deployedLinkReferences": {}
}