{
  "_format": "hh-sol-artifact-1",
  "contractName": "DIAPToken",
  "sourceName": "contracts/DIAPToken.sol",
  "abi": [
    {
      "anonymous": false,
      "inputs": [
        {
          "indexed": true,
          "internalType": "bytes32",
          "name": "actionHash",
          "type": "bytes32"
        }
      ],
      "name": "ActionExecuted",
      "type": "event"
    },
    {
      "anonymous": false,
      "inputs": [
        {
          "indexed": true,
          "internalType": "bytes32",
          "name": "actionHash",
          "type": "bytes32"
        },
        {
          "indexed": false,
          "internalType": "uint256",
          "name": "executeTime",
          "type": "uint256"
        }
      ],
      "name": "ActionScheduled",
      "type": "event"
    },
    {
      "anonymous": false,
      "inputs": [
        {
          "indexed": false,
          "internalType": "address",
          "name": "previousAdmin",
          "type": "address"
        },
        {
          "indexed": false,
          "internalType": "address",
          "name": "newAdmin",
          "type": "address"
        }
      ],
      "name": "AdminChanged",
      "type": "event"
    },
    {
      "anonymous": false,
      "inputs": [
        {
          "indexed": true,
          "internalType": "address",
          "name": "owner",
          "type": "address"
        },
        {
          "indexed": true,
          "internalType": "address",
          "name": "spender",
          "type": "address"
        },
        {
          "indexed": false,
          "internalType": "uint256",
          "name": "value",
          "type": "uint256"
        }
      ],
      "name": "Approval",
      "type": "event"
    },
    {
      "anonymous": false,
      "inputs": [
        {
          "indexed": true,
          "internalType": "address",
          "name": "beacon",
          "type": "address"
        }
      ],
      "name": "BeaconUpgraded",
      "type": "event"
    },
    {
      "anonymous": false,
      "inputs": [
        {
          "indexed": false,
          "internalType": "uint256",
          "name": "newRate",
          "type": "uint256"
        }
      ],
      "name": "BurnRateUpdated",
      "type": "event"
    },
    {
      "anonymous": false,
      "inputs": [
        {
          "indexed": false,
          "internalType": "uint256",
          "name": "timestamp",
          "type": "uint256"
        }
      ],
      "name": "EmergencyPaused",
      "type": "event"
    },
    {
      "anonymous": false,
      "inputs": [
        {
          "indexed": false,
          "internalType": "uint256",
          "name": "timestamp",
          "type": "uint256"
        }
      ],
      "name": "EmergencyUnpaused",
      "type": "event"
    },
    {
      "anonymous": false,
      "inputs": [
        {
          "indexed": true,
          "internalType": "address",
          "name": "user",
          "type": "address"
        },
        {
          "indexed": false,
          "internalType": "uint256",
          "name": "amount",
          "type": "uint256"
        }
      ],
      "name": "EmergencyWithdraw",
      "type": "event"
    },
    {
      "anonymous": false,
      "inputs": [
        {
          "indexed": false,
          "internalType": "uint256",
          "name": "timestamp",
          "type": "uint256"
        }
      ],
      "name": "EmergencyWithdrawEnabled",
      "type": "event"
    },
    {
      "anonymous": false,
      "inputs": [
        {
          "indexed": false,
          "internalType": "uint256",
          "name": "communityAmount",
          "type": "uint256"
        },
        {
          "indexed": false,
          "internalType": "uint256",
          "name": "teamAmount",
          "type": "uint256"
        },
        {
          "indexed": false,
          "internalType": "uint256",
          "name": "treasuryAmount",
          "type": "uint256"
        },
        {
          "indexed": false,
          "internalType": "uint256",
          "name": "stakingAmount",
          "type": "uint256"
        },
        {
          "indexed": false,
          "internalType": "uint256",
          "name": "liquidityAmount",
          "type": "uint256"
        }
      ],
      "name": "InitialDistributionCompleted",
      "type": "event"
    },
    {
      "anonymous": false,
      "inputs": [
        {
          "indexed": false,
          "internalType": "uint8",
          "name": "version",
          "type": "uint8"
        }
      ],
      "name": "Initialized",
      "type": "event"
    },
    {
      "anonymous": false,
      "inputs": [
        {
          "indexed": true,
          "internalType": "address",
          "name": "previousOwner",
          "type": "address"
        },
        {
          "indexed": true,
          "internalType": "address",
          "name": "newOwner",
          "type": "address"
        }
      ],
      "name": "OwnershipTransferred",
      "type": "event"
    },
    {
      "anonymous": false,
      "inputs": [
        {
          "indexed": false,
          "internalType": "address",
          "name": "account",
          "type": "address"
        }
      ],
      "name": "Paused",
      "type": "event"
    },
    {
      "anonymous": false,
      "inputs": [
        {
          "indexed": true,
          "internalType": "address",
          "name": "user",
          "type": "address"
        },
        {
          "indexed": false,
          "internalType": "uint256",
          "name": "amount",
          "type": "uint256"
        }
      ],
      "name": "RewardsClaimed",
      "type": "event"
    },
    {
      "anonymous": false,
      "inputs": [
        {
          "indexed": true,
          "internalType": "address",
          "name": "user",
          "type": "address"
        },
        {
          "indexed": false,
          "internalType": "uint256",
          "name": "amount",
          "type": "uint256"
        },
        {
          "indexed": false,
          "internalType": "uint256",
          "name": "lockPeriod",
          "type": "uint256"
        },
        {
          "indexed": false,
          "internalType": "uint256",
          "name": "tier",
          "type": "uint256"
        }
      ],
      "name": "Staked",
      "type": "event"
    },
    {
      "anonymous": false,
      "inputs": [
        {
          "indexed": false,
          "internalType": "uint256",
          "name": "newRate",
          "type": "uint256"
        }
      ],
      "name": "StakingRewardRateUpdated",
      "type": "event"
    },
    {
      "anonymous": false,
      "inputs": [
        {
          "indexed": false,
          "internalType": "uint256",
          "name": "tier",
          "type": "uint256"
        },
        {
          "indexed": false,
          "internalType": "uint256",
          "name": "minAmount",
          "type": "uint256"
        },
        {
          "indexed": false,
          "internalType": "uint256",
          "name": "multiplier",
          "type": "uint256"
        },
        {
          "indexed": false,
          "internalType": "uint256",
          "name": "lockPeriod",
          "type": "uint256"
        }
      ],
      "name": "StakingTierUpdated",
      "type": "event"
    },
    {
      "anonymous": false,
      "inputs": [
        {
          "indexed": true,
          "internalType": "address",
          "name": "from",
          "type": "address"
        },
        {
          "indexed": false,
          "internalType": "uint256",
          "name": "amount",
          "type": "uint256"
        },
        {
          "indexed": false,
          "internalType": "string",
          "name": "reason",
          "type": "string"
        }
      ],
      "name": "TokensBurned",
      "type": "event"
    },
    {
      "anonymous": false,
      "inputs": [
        {
          "indexed": true,
          "internalType": "address",
          "name": "from",
          "type": "address"
        },
        {
          "indexed": true,
          "internalType": "address",
          "name": "to",
          "type": "address"
        },
        {
          "indexed": false,
          "internalType": "uint256",
          "name": "value",
          "type": "uint256"
        }
      ],
      "name": "Transfer",
      "type": "event"
    },
    {
      "anonymous": false,
      "inputs": [
        {
          "indexed": false,
          "internalType": "address",
          "name": "account",
          "type": "address"
        }
      ],
      "name": "Unpaused",
      "type": "event"
    },
    {
      "anonymous": false,
      "inputs": [
        {
          "indexed": true,
          "internalType": "address",
          "name": "user",
          "type": "address"
        },
        {
          "indexed": false,
          "internalType": "uint256",
          "name": "amount",
          "type": "uint256"
        },
        {
          "indexed": false,
          "internalType": "uint256",
          "name": "rewards",
          "type": "uint256"
        }
      ],
      "name": "Unstaked",
      "type": "event"
    },
    {
      "anonymous": false,
      "inputs": [
        {
          "indexed": true,
          "internalType": "address",
          "name": "implementation",
          "type": "address"
        }
      ],
      "name": "Upgraded",
      "type": "event"
    },
    {
      "inputs": [],
      "name": "COMMUNITY_ALLOCATION",
      "outputs": [
        {
          "internalType": "uint256",
          "name": "",
          "type": "uint256"
        }
      ],
      "stateMutability": "view",
      "type": "function"
    },
    {
      "inputs": [],
      "name": "INITIAL_SUPPLY",
      "outputs": [
        {
          "internalType": "uint256",
          "name": "",
          "type": "uint256"
        }
      ],
      "stateMutability": "view",
      "type": "function"
    },
    {
      "inputs": [],
      "name": "INVESTOR_ALLOCATION",
      "outputs": [
        {
          "internalType": "uint256",
          "name": "",
          "type": "uint256"
        }
      ],
      "stateMutability": "view",
      "type": "function"
    },
    {
      "inputs": [],
      "name": "MAX_REWARD_RATE",
      "outputs": [
        {
          "internalType": "uint256",
          "name": "",
          "type": "uint256"
        }
      ],
      "stateMutability": "view",
      "type": "function"
    },
    {
      "inputs": [],
      "name": "MAX_SUPPLY",
      "outputs": [
        {
          "internalType": "uint256",
          "name": "",
          "type": "uint256"
        }
      ],
      "stateMutability": "view",
      "type": "function"
    },
    {
      "inputs": [],
      "name": "MIN_REWARD_RATE",
      "outputs": [
        {
          "internalType": "uint256",
          "name": "",
          "type": "uint256"
        }
      ],
      "stateMutability": "view",
      "type": "function"
    },
    {
      "inputs": [],
      "name": "RATE_ADJUSTMENT_INTERVAL",
      "outputs": [
        {
          "internalType": "uint256",
          "name": "",
          "type": "uint256"
        }
      ],
      "stateMutability": "view",
      "type": "function"
    },
    {
      "inputs": [],
      "name": "STAKING_ALLOCATION",
      "outputs": [
        {
          "internalType": "uint256",
          "name": "",
          "type": "uint256"
        }
      ],
      "stateMutability": "view",
      "type": "function"
    },
    {
      "inputs": [],
      "name": "TEAM_ALLOCATION",
      "outputs": [
        {
          "internalType": "uint256",
          "name": "",
          "type": "uint256"
        }
      ],
      "stateMutability": "view",
      "type": "function"
    },
    {
      "inputs": [],
      "name": "TIER_BRONZE",
      "outputs": [
        {
          "internalType": "uint256",
          "name": "",
          "type": "uint256"
        }
      ],
      "stateMutability": "view",
      "type": "function"
    },
    {
      "inputs": [],
      "name": "TIER_GOLD",
      "outputs": [
        {
          "internalType": "uint256",
          "name": "",
          "type": "uint256"
        }
      ],
      "stateMutability": "view",
      "type": "function"
    },
    {
      "inputs": [],
      "name": "TIER_PLATINUM",
      "outputs": [
        {
          "internalType": "uint256",
          "name": "",
          "type": "uint256"
        }
      ],
      "stateMutability": "view",
      "type": "function"
    },
    {
      "inputs": [],
      "name": "TIER_SILVER",
      "outputs": [
        {
          "internalType": "uint256",
          "name": "",
          "type": "uint256"
        }
      ],
      "stateMutability": "view",
      "type": "function"
    },
    {
      "inputs": [],
      "name": "TIMELOCK_DELAY",
      "outputs": [
        {
          "internalType": "uint256",
          "name": "",
          "type": "uint256"
        }
      ],
      "stateMutability": "view",
      "type": "function"
    },
    {
      "inputs": [],
      "name": "TREASURY_ALLOCATION",
      "outputs": [
        {
          "internalType": "uint256",
          "name": "",
          "type": "uint256"
        }
      ],
      "stateMutability": "view",
      "type": "function"
    },
    {
      "inputs": [
        {
          "internalType": "address",
          "name": "owner",
          "type": "address"
        },
        {
          "internalType": "address",
          "name": "spender",
          "type": "address"
        }
      ],
      "name": "allowance",
      "outputs": [
        {
          "internalType": "uint256",
          "name": "",
          "type": "uint256"
        }
      ],
      "stateMutability": "view",
      "type": "function"
    },
    {
      "inputs": [
        {
          "internalType": "address",
          "name": "spender",
          "type": "address"
        },
        {
          "internalType": "uint256",
          "name": "amount",
          "type": "uint256"
        }
      ],
      "name": "approve",
      "outputs": [
        {
          "internalType": "bool",
          "name": "",
          "type": "bool"
        }
      ],
      "stateMutability": "nonpayable",
      "type": "function"
    },
    {
      "inputs": [
        {
          "internalType": "address",
          "name": "account",
          "type": "address"
        }
      ],
      "name": "balanceOf",
      "outputs": [
        {
          "internalType": "uint256",
          "name": "",
          "type": "uint256"
        }
      ],
      "stateMutability": "view",
      "type": "function"
    },
    {
      "inputs": [
        {
          "internalType": "uint256",
          "name": "amount",
          "type": "uint256"
        }
      ],
      "name": "burn",
      "outputs": [],
      "stateMutability": "nonpayable",
      "type": "function"
    },
    {
      "inputs": [],
      "name": "burnAddress",
      "outputs": [
        {
          "internalType": "address",
          "name": "",
          "type": "address"
        }
      ],
      "stateMutability": "view",
      "type": "function"
    },
    {
      "inputs": [
        {
          "internalType": "address",
          "name": "account",
          "type": "address"
        },
        {
          "internalType": "uint256",
          "name": "amount",
          "type": "uint256"
        }
      ],
      "name": "burnFrom",
      "outputs": [],
      "stateMutability": "nonpayable",
      "type": "function"
    },
    {
      "inputs": [],
      "name": "burnRate",
      "outputs": [
        {
          "internalType": "uint256",
          "name": "",
          "type": "uint256"
        }
      ],
      "stateMutability": "view",
      "type": "function"
    },
    {
      "inputs": [
        {
          "internalType": "uint256",
          "name": "amount",
          "type": "uint256"
        },
        {
          "internalType": "string",
          "name": "reason",
          "type": "string"
        }
      ],
      "name": "burnTokens",
      "outputs": [],
      "stateMutability": "nonpayable",
      "type": "function"
    },
    {
      "inputs": [],
      "name": "claimRewards",
      "outputs": [],
      "stateMutability": "nonpayable",
      "type": "function"
    },
    {
      "inputs": [],
      "name": "decimals",
      "outputs": [
        {
          "internalType": "uint8",
          "name": "",
          "type": "uint8"
        }
      ],
      "stateMutability": "view",
      "type": "function"
    },
    {
      "inputs": [
        {
          "internalType": "address",
          "name": "spender",
          "type": "address"
        },
        {
          "internalType": "uint256",
          "name": "subtractedValue",
          "type": "uint256"
        }
      ],
      "name": "decreaseAllowance",
      "outputs": [
        {
          "internalType": "bool",
          "name": "",
          "type": "bool"
        }
      ],
      "stateMutability": "nonpayable",
      "type": "function"
    },
    {
      "inputs": [],
      "name": "emergencyPause",
      "outputs": [],
      "stateMutability": "nonpayable",
      "type": "function"
    },
    {
      "inputs": [],
      "name": "emergencyPaused",
      "outputs": [
        {
          "internalType": "bool",
          "name": "",
          "type": "bool"
        }
      ],
      "stateMutability": "view",
      "type": "function"
    },
    {
      "inputs": [],
      "name": "emergencyUnpause",
      "outputs": [],
      "stateMutability": "nonpayable",
      "type": "function"
    },
    {
      "inputs": [],
      "name": "emergencyWithdraw",
      "outputs": [],
      "stateMutability": "nonpayable",
      "type": "function"
    },
    {
      "inputs": [],
      "name": "emergencyWithdrawEnabled",
      "outputs": [
        {
          "internalType": "bool",
          "name": "",
          "type": "bool"
        }
      ],
      "stateMutability": "view",
      "type": "function"
    },
    {
      "inputs": [],
      "name": "enableEmergencyWithdraw",
      "outputs": [],
      "stateMutability": "nonpayable",
      "type": "function"
    },
    {
      "inputs": [
        {
          "internalType": "address",
          "name": "user",
          "type": "address"
        }
      ],
      "name": "getStakingInfo",
      "outputs": [
        {
          "internalType": "uint256",
          "name": "amount",
          "type": "uint256"
        },
        {
          "internalType": "uint256",
          "name": "startTime",
          "type": "uint256"
        },
        {
          "internalType": "uint256",
          "name": "lockPeriod",
          "type": "uint256"
        },
        {
          "internalType": "uint256",
          "name": "lastClaimTime",
          "type": "uint256"
        },
        {
          "internalType": "uint256",
          "name": "pendingRewards",
          "type": "uint256"
        },
        {
          "internalType": "uint256",
          "name": "tier",
          "type": "uint256"
        }
      ],
      "stateMutability": "view",
      "type": "function"
    },
    {
      "inputs": [
        {
          "internalType": "uint256",
          "name": "tier",
          "type": "uint256"
        }
      ],
      "name": "getStakingTier",
      "outputs": [
        {
          "internalType": "uint256",
          "name": "minAmount",
          "type": "uint256"
        },
        {
          "internalType": "uint256",
          "name": "multiplier",
          "type": "uint256"
        },
        {
          "internalType": "uint256",
          "name": "lockPeriod",
          "type": "uint256"
        }
      ],
      "stateMutability": "view",
      "type": "function"
    },
    {
      "inputs": [],
      "name": "getTokenStats",
      "outputs": [
        {
          "internalType": "uint256",
          "name": "totalSupply_",
          "type": "uint256"
        },
        {
          "internalType": "uint256",
          "name": "totalStaked_",
          "type": "uint256"
        },
        {
          "internalType": "uint256",
          "name": "totalBurned_",
          "type": "uint256"
        },
        {
          "internalType": "uint256",
          "name": "totalRewards_",
          "type": "uint256"
        }
      ],
      "stateMutability": "view",
      "type": "function"
    },
    {
      "inputs": [
        {
          "internalType": "address",
          "name": "spender",
          "type": "address"
        },
        {
          "internalType": "uint256",
          "name": "addedValue",
          "type": "uint256"
        }
      ],
      "name": "increaseAllowance",
      "outputs": [
        {
          "internalType": "bool",
          "name": "",
          "type": "bool"
        }
      ],
      "stateMutability": "nonpayable",
      "type": "function"
    },
    {
      "inputs": [
        {
          "internalType": "string",
          "name": "tokenName",
          "type": "string"
        },
        {
          "internalType": "string",
          "name": "tokenSymbol",
          "type": "string"
        }
      ],
      "name": "initialize",
      "outputs": [],
      "stateMutability": "nonpayable",
      "type": "function"
    },
    {
      "inputs": [],
      "name": "lastRateAdjustment",
      "outputs": [
        {
          "internalType": "uint256",
          "name": "",
          "type": "uint256"
        }
      ],
      "stateMutability": "view",
      "type": "function"
    },
    {
      "inputs": [],
      "name": "lastRewardTime",
      "outputs": [
        {
          "internalType": "uint256",
          "name": "",
          "type": "uint256"
        }
      ],
      "stateMutability": "view",
      "type": "function"
    },
    {
      "inputs": [
        {
          "internalType": "address",
          "name": "to",
          "type": "address"
        },
        {
          "internalType": "uint256",
          "name": "amount",
          "type": "uint256"
        }
      ],
      "name": "mint",
      "outputs": [],
      "stateMutability": "nonpayable",
      "type": "function"
    },
    {
      "inputs": [],
      "name": "name",
      "outputs": [
        {
          "internalType": "string",
          "name": "",
          "type": "string"
        }
      ],
      "stateMutability": "view",
      "type": "function"
    },
    {
      "inputs": [],
      "name": "owner",
      "outputs": [
        {
          "internalType": "address",
          "name": "",
          "type": "address"
        }
      ],
      "stateMutability": "view",
      "type": "function"
    },
    {
      "inputs": [],
      "name": "pause",
      "outputs": [],
      "stateMutability": "nonpayable",
      "type": "function"
    },
    {
      "inputs": [],
      "name": "paused",
      "outputs": [
        {
          "internalType": "bool",
          "name": "",
          "type": "bool"
        }
      ],
      "stateMutability": "view",
      "type": "function"
    },
    {
      "inputs": [
        {
          "internalType": "bytes32",
          "name": "",
          "type": "bytes32"
        }
      ],
      "name": "pendingActions",
      "outputs": [
        {
          "internalType": "uint256",
          "name": "",
          "type": "uint256"
        }
      ],
      "stateMutability": "view",
      "type": "function"
    },
    {
      "inputs": [],
      "name": "proxiableUUID",
      "outputs": [
        {
          "internalType": "bytes32",
          "name": "",
          "type": "bytes32"
        }
      ],
      "stateMutability": "view",
      "type": "function"
    },
    {
      "inputs": [],
      "name": "renounceOwnership",
      "outputs": [],
      "stateMutability": "nonpayable",
      "type": "function"
    },
    {
      "inputs": [
        {
          "internalType": "uint256",
          "name": "",
          "type": "uint256"
        }
      ],
      "name": "rewardRateHistory",
      "outputs": [
        {
          "internalType": "uint256",
          "name": "",
          "type": "uint256"
        }
      ],
      "stateMutability": "view",
      "type": "function"
    },
    {
      "inputs": [
        {
          "internalType": "uint256",
          "name": "_rate",
          "type": "uint256"
        }
      ],
      "name": "scheduleRewardRateChange",
      "outputs": [],
      "stateMutability": "nonpayable",
      "type": "function"
    },
    {
      "inputs": [
        {
          "internalType": "uint256",
          "name": "_rate",
          "type": "uint256"
        }
      ],
      "name": "setBurnRate",
      "outputs": [],
      "stateMutability": "nonpayable",
      "type": "function"
    },
    {
      "inputs": [
        {
          "internalType": "uint256",
          "name": "_rate",
          "type": "uint256"
        }
      ],
      "name": "setStakingRewardRate",
      "outputs": [],
      "stateMutability": "nonpayable",
      "type": "function"
    },
    {
      "inputs": [
        {
          "internalType": "uint256",
          "name": "amount",
          "type": "uint256"
        },
        {
          "internalType": "uint256",
          "name": "tier",
          "type": "uint256"
        }
      ],
      "name": "stake",
      "outputs": [],
      "stateMutability": "nonpayable",
      "type": "function"
    },
    {
      "inputs": [
        {
          "internalType": "address",
          "name": "",
          "type": "address"
        }
      ],
      "name": "stakingInfo",
      "outputs": [
        {
          "internalType": "uint256",
          "name": "amount",
          "type": "uint256"
        },
        {
          "internalType": "uint256",
          "name": "startTime",
          "type": "uint256"
        },
        {
          "internalType": "uint256",
          "name": "lockPeriod",
          "type": "uint256"
        },
        {
          "internalType": "uint256",
          "name": "lastClaimTime",
          "type": "uint256"
        },
        {
          "internalType": "uint256",
          "name": "pendingRewards",
          "type": "uint256"
        }
      ],
      "stateMutability": "view",
      "type": "function"
    },
    {
      "inputs": [],
      "name": "stakingRewardRate",
      "outputs": [
        {
          "internalType": "uint256",
          "name": "",
          "type": "uint256"
        }
      ],
      "stateMutability": "view",
      "type": "function"
    },
    {
      "inputs": [
        {
          "internalType": "uint256",
          "name": "",
          "type": "uint256"
        }
      ],
      "name": "stakingTiers",
      "outputs": [
        {
          "internalType": "uint256",
          "name": "minAmount",
          "type": "uint256"
        },
        {
          "internalType": "uint256",
          "name": "multiplier",
          "type": "uint256"
        },
        {
          "internalType": "uint256",
          "name": "lockPeriod",
          "type": "uint256"
        }
      ],
      "stateMutability": "view",
      "type": "function"
    },
    {
      "inputs": [],
      "name": "symbol",
      "outputs": [
        {
          "internalType": "string",
          "name": "",
          "type": "string"
        }
      ],
      "stateMutability": "view",
      "type": "function"
    },
    {
      "inputs": [],
      "name": "totalBurned",
      "outputs": [
        {
          "internalType": "uint256",
          "name": "",
          "type": "uint256"
        }
      ],
      "stateMutability": "view",
      "type": "function"
    },
    {
      "inputs": [],
      "name": "totalRewardsDistributed",
      "outputs": [
        {
          "internalType": "uint256",
          "name": "",
          "type": "uint256"
        }
      ],
      "stateMutability": "view",
      "type": "function"
    },
    {
      "inputs": [],
      "name": "totalStaked",
      "outputs": [
        {
          "internalType": "uint256",
          "name": "",
          "type": "uint256"
        }
      ],
      "stateMutability": "view",
      "type": "function"
    },
    {
      "inputs": [],
      "name": "totalSupply",
      "outputs": [
        {
          "internalType": "uint256",
          "name": "",
          "type": "uint256"
        }
      ],
      "stateMutability": "view",
      "type": "function"
    },
    {
      "inputs": [
        {
          "internalType": "address",
          "name": "to",
          "type": "address"
        },
        {
          "internalType": "uint256",
          "name": "amount",
          "type": "uint256"
        }
      ],
      "name": "transfer",
      "outputs": [
        {
          "internalType": "bool",
          "name": "",
          "type": "bool"
        }
      ],
      "stateMutability": "nonpayable",
      "type": "function"
    },
    {
      "inputs": [
        {
          "internalType": "address",
          "name": "from",
          "type": "address"
        },
        {
          "internalType": "address",
          "name": "to",
          "type": "address"
        },
        {
          "internalType": "uint256",
          "name": "amount",
          "type": "uint256"
        }
      ],
      "name": "transferFrom",
      "outputs": [
        {
          "internalType": "bool",
          "name": "",
          "type": "bool"
        }
      ],
      "stateMutability": "nonpayable",
      "type": "function"
    },
    {
      "inputs": [
        {
          "internalType": "address",
          "name": "newOwner",
          "type": "address"
        }
      ],
      "name": "transferOwnership",
      "outputs": [],
      "stateMutability": "nonpayable",
      "type": "function"
    },
    {
      "inputs": [],
      "name": "unpause",
      "outputs": [],
      "stateMutability": "nonpayable",
      "type": "function"
    },
    {
      "inputs": [],
      "name": "unstake",
      "outputs": [],
      "stateMutability": "nonpayable",
      "type": "function"
    },
    {
      "inputs": [
        {
          "internalType": "uint256",
          "name": "tier",
          "type": "uint256"
        },
        {
          "internalType": "uint256",
          "name": "minAmount",
          "type": "uint256"
        },
        {
          "internalType": "uint256",
          "name": "multiplier",
          "type": "uint256"
        },
        {
          "internalType": "uint256",
          "name": "lockPeriod",
          "type": "uint256"
        }
      ],
      "name": "updateStakingTier",
      "outputs": [],
      "stateMutability": "nonpayable",
      "type": "function"
    },
    {
      "inputs": [
        {
          "internalType": "address",
          "name": "newImplementation",
          "type": "address"
        }
      ],
      "name": "upgradeTo",
      "outputs": [],
      "stateMutability": "nonpayable",
      "type": "function"
    },
    {
      "inputs": [
        {
          "internalType": "address",
          "name": "newImplementation",
          "type": "address"
        },
        {
          "internalType": "bytes",
          "name": "data",
          "type": "bytes"
        }
      ],
      "name": "upgradeToAndCall",
      "outputs": [],
      "stateMutability": "payable",
      "type": "function"
    }
  ],
  "bytecode": "0x60a0604052306080526101cd805461ffff60a01b19169055348015602257600080fd5b50608051613e5b61005a60003960008181610f4801528181610f88015281816115fc0152818161163c01526117020152613e5b6000f3fe60806040526004361061030f5760003560e01c8063715018a611610198578063715018a6146106fc578063718dc3c31461071157806379cc6790146107275780637b0472f014610747578063817b1cd2146107675780638456cb591461077e5780638da5cb5b146107935780638faa1856146107a85780639231cf74146107c857806394eecb50146107df57806395d89b411461083b578063993eb1c5146108505780639a46e41214610866578063a457c2d71461087b578063a9059cbb1461089b578063aa4704f3146108bb578063b3c6cd7614610908578063b7d685191461097a578063b99dcae51461099a578063be6fe8e9146109b0578063bed99850146109d0578063bf1ad7e0146109e7578063c3fb4d62146109fd578063d50267ee14610a14578063d86b56f714610a51578063d89135cd14610a66578063db2e21bc14610a7d578063dd62ed3e14610a92578063e2571f5d14610ab2578063e30569e514610ac8578063e3d3f84314610af6578063ee17254614610b0b578063f2fde38b14610b22578063fd99cbed14610ab257600080fd5b806306fdde0314610314578063095ea7b31461033f578063097cd9bf1461036f57806318160ddd14610394578063189d165e146103b357806323b872dd146103d557806327c830a9146103f55780632def6620146104175780632ff2e9dc1461042c578063313ce5671461044b57806332cb6b0c1461046757806335c3c8bf1461048657806336301533146104a65780633659cfe6146104bb578063372500ab146104db57806339509351146104f0578063399585aa146105105780633c0847f5146105275780633f4ba83a1461053c57806340c10f191461055157806342966c68146105715780634a4e3bd5146105915780634cd88b76146105a65780634f1ef286146105c65780634f3fc2df146105d957806351858e27146105f057806352d1902d146106055780635747e69f1461061a5780635ba1c1a91461063c5780635c975abb14610653578063683d12b01461066b5780636b12686b1461069957806370a08231146106ae57806370d5ae05146106ce575b600080fd5b34801561032057600080fd5b50610329610b42565b60405161033691906135a8565b60405180910390f35b34801561034b57600080fd5b5061035f61035a3660046135f7565b610bd4565b6040519015158152602001610336565b34801561037b57600080fd5b50610384610bee565b6040516103369493929190613621565b3480156103a057600080fd5b506035545b604051908152602001610336565b3480156103bf57600080fd5b506103d36103ce36600461363c565b610c17565b005b3480156103e157600080fd5b5061035f6103f0366004613655565b610c85565b34801561040157600080fd5b506101cd5461035f90600160a01b900460ff1681565b34801561042357600080fd5b506103d3610ca9565b34801561043857600080fd5b506103a56a52b7d2dcc80cd2e400000081565b34801561045757600080fd5b5060405160128152602001610336565b34801561047357600080fd5b506103a5676765c793fa10079d601b1b81565b34801561049257600080fd5b506103d36104a1366004613692565b610df9565b3480156104b257600080fd5b506103d3610ee6565b3480156104c757600080fd5b506103d36104d63660046136c4565b610f3e565b3480156104e757600080fd5b506103d3611006565b3480156104fc57600080fd5b5061035f61050b3660046135f7565b6110d8565b34801561051c57600080fd5b506103a56101ca5481565b34801561053357600080fd5b506103a5600081565b34801561054857600080fd5b506103d36110fa565b34801561055d57600080fd5b506103d361056c3660046135f7565b61110a565b34801561057d57600080fd5b506103d361058c36600461363c565b611183565b34801561059d57600080fd5b506103d361118d565b3480156105b257600080fd5b506103d36105c1366004613727565b6111d3565b6103d36105d43660046137ac565b6115f2565b3480156105e557600080fd5b506103a56101c75481565b3480156105fc57600080fd5b506103d36116a7565b34801561061157600080fd5b506103a56116f5565b34801561062657600080fd5b506101cd5461035f90600160a81b900460ff1681565b34801561064857600080fd5b506103a56202a30081565b34801561065f57600080fd5b5060975460ff1661035f565b34801561067757600080fd5b506103a561068636600461363c565b6101c96020526000908152604090205481565b3480156106a557600080fd5b506103a5606481565b3480156106ba57600080fd5b506103a56106c93660046136c4565b6117a3565b3480156106da57600080fd5b506101cd546106ef906001600160a01b031681565b6040516103369190613873565b34801561070857600080fd5b506103d36117be565b34801561071d57600080fd5b506103a56103e881565b34801561073357600080fd5b506103d36107423660046135f7565b6117d0565b34801561075357600080fd5b506103d3610762366004613887565b6117e5565b34801561077357600080fd5b506103a56101c55481565b34801561078a57600080fd5b506103d3611b51565b34801561079f57600080fd5b506106ef611b61565b3480156107b457600080fd5b506103d36107c33660046138a9565b611b70565b3480156107d457600080fd5b506103a56101c85481565b3480156107eb57600080fd5b5061082a6107fa3660046136c4565b6101c360205260009081526040902080546001820154600283015460038401546004909401549293919290919085565b6040516103369594939291906138f4565b34801561084757600080fd5b50610329611c32565b34801561085c57600080fd5b506103a5610fa081565b34801561087257600080fd5b506103a5600181565b34801561088757600080fd5b5061035f6108963660046135f7565b611c41565b3480156108a757600080fd5b5061035f6108b63660046135f7565b611cbc565b3480156108c757600080fd5b506108db6108d63660046136c4565b611cca565b604080519687526020870195909552938501929092526060840152608083015260a082015260c001610336565b34801561091457600080fd5b5061095f61092336600461363c565b60008181526101c46020908152604091829020825160608101845281548082526001830154938201849052600290920154930183905293909250565b60408051938452602084019290925290820152606001610336565b34801561098657600080fd5b506103d361099536600461363c565b611d59565b3480156109a657600080fd5b506103a561032081565b3480156109bc57600080fd5b506103d36109cb36600461363c565b611ece565b3480156109dc57600080fd5b506103a56101cc5481565b3480156109f357600080fd5b506103a561089881565b348015610a0957600080fd5b506103a562278d0081565b348015610a2057600080fd5b5061095f610a2f36600461363c565b6101c46020526000908152604090208054600182015460029092015490919083565b348015610a5d57600080fd5b506103a5600381565b348015610a7257600080fd5b506103a56101cb5481565b348015610a8957600080fd5b506103d3611f87565b348015610a9e57600080fd5b506103a5610aad366004613917565b612095565b348015610abe57600080fd5b506103a56105dc81565b348015610ad457600080fd5b506103a5610ae336600461363c565b6101ce6020526000908152604090205481565b348015610b0257600080fd5b506103a5600281565b348015610b1757600080fd5b506103a56101c65481565b348015610b2e57600080fd5b506103d3610b3d3660046136c4565b6120c0565b606060368054610b519061394a565b80601f0160208091040260200160405190810160405280929190818152602001828054610b7d9061394a565b8015610bca5780601f10610b9f57610100808354040283529160200191610bca565b820191906000526020600020905b815481529060010190602001808311610bad57829003601f168201915b5050505050905090565b600033610be2818585612136565b60019150505b92915050565b600080600080610bfd60355490565b6101c5546101cb546101c654935093509350935090919293565b610c1f61225a565b6064811115610c495760405162461bcd60e51b8152600401610c4090613984565b60405180910390fd5b6101cc8190556040518181527f47863b595116a31383855975a4078913dce7881e717b75a06ced2db5d534ff789060200160405180910390a150565b600033610c938582856122b9565b610c9e858585612333565b506001949350505050565b610cb161242f565b3360009081526101c3602052604090208054610cdf5760405162461bcd60e51b8152600401610c40906139ab565b80600201548160010154610cf391906139eb565b421015610d3a5760405162461bcd60e51b8152602060048201526015602482015274131bd8dac81c195c9a5bd9081b9bdd08195b991959605a1b6044820152606401610c40565b6000610d453361248a565b905081600001546101c56000828254610d5e91906139fe565b90915550503360008181526101c360205260408120818155600181018290556002810182905560038101829055600401558254610d9c913091612333565b8015610dac57610dac33826125cd565b8154604080519182526020820183905233917f7fc4727e062e336010f2c282598ef5f14facb3de68cf8195c2f23e1454b2b74e91015b60405180910390a25050610df7600161012d55565b565b610e0161225a565b6003841115610e225760405162461bcd60e51b8152600401610c4090613a11565b612710821015610e695760405162461bcd60e51b81526020600482015260126024820152714d756c7469706c69657220746f6f206c6f7760701b6044820152606401610c40565b60408051606081018252848152602080820185815282840185815260008981526101c4909352918490209251835551600183015551600290910155517f91940991fd73ef268916dee3054fe76c2defd6b2f7ea5936da2aca2ebfa5685590610ed8908690869086908690613621565b60405180910390a150505050565b610eee61225a565b6101cd805460ff60a81b1916600160a81b1790556040517f25004abd8ec665bad2ee0fe374e3b11952166214e204b05d2ea4122417dc220490610f349042815260200190565b60405180910390a1565b6001600160a01b037f0000000000000000000000000000000000000000000000000000000000000000163003610f865760405162461bcd60e51b8152600401610c4090613a37565b7f00000000000000000000000000000000000000000000000000000000000000006001600160a01b0316610fb86126a6565b6001600160a01b031614610fde5760405162461bcd60e51b8152600401610c4090613a71565b610fe7816126c2565b60408051600080825260208201909252611003918391906126ca565b50565b61100e61242f565b3360009081526101c360205260409020805461103c5760405162461bcd60e51b8152600401610c40906139ab565b60006110473361248a565b90506000811161108f5760405162461bcd60e51b81526020600482015260136024820152724e6f207265776172647320746f20636c61696d60681b6044820152606401610c40565b426003830155600060048301556110a633826125cd565b60405181815233907ffc30cddea38e2bf4d6ea7d3f9ed3b6ad7f176419f4963bd81318067a4aee73fe90602001610de2565b600033610be28185856110eb8383612095565b6110f591906139eb565b612136565b61110261225a565b610df7612835565b61111261225a565b676765c793fa10079d601b1b8161112860355490565b61113291906139eb565b11156111755760405162461bcd60e51b815260206004820152601260248201527145786365656473206d617820737570706c7960701b6044820152606401610c40565b61117f8282612877565b5050565b6110033382612932565b61119561225a565b6101cd805460ff60a01b191690556040514281527f4e8fee6624a216c6c87fdeaeaab7686889991b2c1ffcd95d51e9a30352e2908090602001610f34565b600054610100900460ff16158080156111f35750600054600160ff909116105b80611214575061120230612a60565b158015611214575060005460ff166001145b6112775760405162461bcd60e51b815260206004820152602e60248201527f496e697469616c697a61626c653a20636f6e747261637420697320616c72656160448201526d191e481a5b9a5d1a585b1a5e995960921b6064820152608401610c40565b6000805460ff19166001179055801561129a576000805461ff0019166101001790555b61130d85858080601f01602080910402602001604051908101604052809392919081815260200183838082843760009201919091525050604080516020601f89018190048102820181019092528781529250879150869081908401838280828437600092019190915250612a6f92505050565b611315612aa0565b61131d612ac7565b611325612af6565b61132d612b25565b611335612aa0565b6101f46101c75560196101cc556101cd80546001600160a01b03191661dead179055426101c88190556101ca5561159d6040805160608082018352683635c9adc5dea000008252612710602080840191825262278d0084860190815260008080526101c480845295517f900a14da7b74a618a1c29a2c66a3b979a3228cef88a1bb8e8ee5ed807c9db89f5592517f900a14da7b74a618a1c29a2c66a3b979a3228cef88a1bb8e8ee5ed807c9db8a055517f900a14da7b74a618a1c29a2c66a3b979a3228cef88a1bb8e8ee5ed807c9db8a1558451808401865269021e19e0c9bab24000008152613a988183019081526276a700828801908152600185528684529151600080516020613de683398151915255517ff6ccb3c78ad86b3231879707325826c087a2d02dd70eb918b97f248746719e7155517ff6ccb3c78ad86b3231879707325826c087a2d02dd70eb918b97f248746719e725584518084018652690a968163f0a57b4000008152614e2081830190815262ed4e00828801908152600285528684529151600080516020613e0683398151915255517f2a271a6e4d4f3524cc28dcdc2fc7eb3733f7b596bb6a78b6597c134ac9f9f96755517f2a271a6e4d4f3524cc28dcdc2fc7eb3733f7b596bb6a78b6597c134ac9f9f968558451928301855269152d02c7e14af680000083526175308382019081526301e1338095840195865260039092529290925251600080516020613d1f83398151915255517f01fe604e604fe8f473951b43558adbf7f983ccc6feb0f0f4bfbc8e2d38dfcd2755517f01fe604e604fe8f473951b43558adbf7f983ccc6feb0f0f4bfbc8e2d38dfcd2855565b6115a5612b54565b80156115eb576000805461ff0019169055604051600181527f7f26b83ff96e1f2b6a682f133852f6798a09c465da95921460cefb38474024989060200160405180910390a15b5050505050565b6001600160a01b037f000000000000000000000000000000000000000000000000000000000000000016300361163a5760405162461bcd60e51b8152600401610c4090613a37565b7f00000000000000000000000000000000000000000000000000000000000000006001600160a01b031661166c6126a6565b6001600160a01b0316146116925760405162461bcd60e51b8152600401610c4090613a71565b61169b826126c2565b61117f828260016126ca565b6116af61225a565b6101cd805460ff60a01b1916600160a01b1790556040517f11d8c430ae8dff60717610a0356ce3ac35187fc9569e6adfe01d281cc1c167d590610f349042815260200190565b6000306001600160a01b037f000000000000000000000000000000000000000000000000000000000000000016146117905760405162461bcd60e51b815260206004820152603860248201527f555550535570677261646561626c653a206d757374206e6f742062652063616c6044820152771b1959081d1a1c9bdd59da0819195b1959d85d1958d85b1b60421b6064820152608401610c40565b50600080516020613d7f83398151915290565b6001600160a01b031660009081526033602052604090205490565b6117c661225a565b610df76000612d31565b6117db8233836122b9565b61117f8282612932565b6117ed61242f565b6117f5612d83565b6101cd54600160a01b900460ff161561184f5760405162461bcd60e51b815260206004820152601c60248201527b10dbdb9d1c9858dd081a5cc8195b595c99d95b98de481c185d5cd95960221b6044820152606401610c40565b6000821161186f5760405162461bcd60e51b8152600401610c4090613aab565b60038111156118905760405162461bcd60e51b8152600401610c4090613a11565b60008181526101c4602090815260409182902082516060810184528154808252600183015493820193909352600290910154928101929092528310156119145760405162461bcd60e51b8152602060048201526019602482015278416d6f756e742062656c6f772074696572206d696e696d756d60381b6044820152606401610c40565b3360009081526101c360205260409020805415611ab75760006119363361248a565b90508082600401600082825461194c91906139eb565b909155505081546000906119619087906139eb565b905060006119728460000154612dc9565b9050600061197f83612dc9565b90508181146119e55760405162461bcd60e51b815260206004820152602c60248201527f54696572206368616e6765206e6f7420616c6c6f77656420666f72206164646960448201526b74696f6e616c207374616b6560a01b6064820152608401610c40565b868114611a245760405162461bcd60e51b815260206004820152600d60248201526c0a8d2cae440dad2e6dac2e8c6d609b1b6044820152606401610c40565b6003871015611aa7576101c46000611a3d8960016139eb565b8152602001908152602001600020600001548310611aa75760405162461bcd60e51b815260206004820152602160248201527f416d6f756e7420657863656564732063757272656e742074696572206c696d696044820152601d60fa1b6064820152608401610c40565b5050825550426003820155611ad9565b8381554260018201819055604083015160028301556003820155600060048201555b611ae4333086612333565b836101c56000828254611af791906139eb565b90915550506040828101518151868152602081019190915290810184905233907fb4caaf29adda3eefee3ad552a8e85058589bf834c7466cae4ee58787f70589ed9060600160405180910390a2505061117f600161012d55565b611b5961225a565b610df7612e4e565b60fb546001600160a01b031690565b60008311611b905760405162461bcd60e51b8152600401610c4090613aab565b82611b9a336117a3565b1015611bdf5760405162461bcd60e51b8152602060048201526014602482015273496e73756666696369656e742062616c616e636560601b6044820152606401610c40565b611be93384612932565b826101cb6000828254611bfc91906139eb565b90915550506040513390600080516020613cff83398151915290611c2590869086908690613ae2565b60405180910390a2505050565b606060378054610b519061394a565b60003381611c4f8286612095565b905083811015611caf5760405162461bcd60e51b815260206004820152602560248201527f45524332303a2064656372656173656420616c6c6f77616e63652062656c6f77604482015264207a65726f60d81b6064820152608401610c40565b610c9e8286868403612136565b600033610be2818585612333565b6001600160a01b03811660009081526101c360209081526040808320815160a081018352815480825260018301549482018590526002830154938201849052600383015460608301819052600490930154608083015285948594859485948594909390929091611d398c61248a565b8551611d4490612dc9565b949d939c50919a509850965090945092505050565b611d6161225a565b600081604051602001611d749190613b18565b6040516020818303038152906040528051906020012090506101ce600082815260200190815260200160002054600003611de75760405162461bcd60e51b81526020600482015260146024820152731058dd1a5bdb881b9bdd081cd8da19591d5b195960621b6044820152606401610c40565b60008181526101ce6020526040902054421015611e3d5760405162461bcd60e51b8152602060048201526014602482015273151a5b595b1bd8dac81b9bdd08195e1c1a5c995960621b6044820152606401610c40565b6103e8821115611e5f5760405162461bcd60e51b8152600401610c4090613984565b6101c782905560008181526101ce60205260408082209190915551600080516020613d3f83398151915290611e979084815260200190565b60405180910390a160405181907f9b5a634ce9dbcc1cc28dbce24cd5b30136689ff28f9ae433837bd68895d7d5e090600090a25050565b611ed661225a565b6103e8811115611ef85760405162461bcd60e51b8152600401610c4090613984565b600081604051602001611f0b9190613b18565b6040516020818303038152906040528051906020012090506202a30042611f3291906139eb565b60008281526101ce6020526040902055807fcea0074f4f4b38eaa71c648790bc6a479e43332613889d0b0f0aec9554d40e68611f716202a300426139eb565b6040519081526020015b60405180910390a25050565b6101cd54600160a81b900460ff16611fe15760405162461bcd60e51b815260206004820152601e60248201527f456d657267656e6379207769746864726177206e6f7420656e61626c656400006044820152606401610c40565b3360009081526101c360205260409020805461200f5760405162461bcd60e51b8152600401610c40906139ab565b80543360009081526101c3602052604081208181556001810182905560028101829055600381018290556004018190556101c580548392906120529084906139fe565b909155506120639050303383612333565b60405181815233907f5fafa99d0643513820be26656b45130b01e1c03062e1266bf36f88cbd3bd969590602001611f7b565b6001600160a01b03918216600090815260346020908152604080832093909416825291909152205490565b6120c861225a565b6001600160a01b03811661212d5760405162461bcd60e51b815260206004820152602660248201527f4f776e61626c653a206e6577206f776e657220697320746865207a65726f206160448201526564647265737360d01b6064820152608401610c40565b61100381612d31565b6001600160a01b0383166121985760405162461bcd60e51b8152602060048201526024808201527f45524332303a20617070726f76652066726f6d20746865207a65726f206164646044820152637265737360e01b6064820152608401610c40565b6001600160a01b0382166121f95760405162461bcd60e51b815260206004820152602260248201527f45524332303a20617070726f766520746f20746865207a65726f206164647265604482015261737360f01b6064820152608401610c40565b6001600160a01b0383811660008181526034602090815260408083209487168084529482529182902085905590518481527f8c5be1e5ebec7d5bd14f71427d1e84f3dd0314c0f7b2291e5b200ac8c7c3b925910160405180910390a3505050565b33612263611b61565b6001600160a01b031614610df75760405162461bcd60e51b815260206004820181905260248201527f4f776e61626c653a2063616c6c6572206973206e6f7420746865206f776e65726044820152606401610c40565b60006122c58484612095565b9050600019811461232d57818110156123205760405162461bcd60e51b815260206004820152601d60248201527f45524332303a20696e73756666696369656e7420616c6c6f77616e63650000006044820152606401610c40565b61232d8484848403612136565b50505050565b60006101cc5411801561234f57506001600160a01b0383163014155b801561236457506001600160a01b0382163014155b1561241f5760006127106101cc548361237d9190613b40565b6123879190613b57565b9050801561241d576123998482612932565b806101cb60008282546123ac91906139eb565b909155506123bc905081836139fe565b9150836001600160a01b0316600080516020613cff833981519152826040516124149181526040602082018190526015908201527420baba3796b13ab9371037b7103a3930b739b332b960591b606082015260800190565b60405180910390a25b505b61242a838383612e8b565b505050565b600261012d54036124825760405162461bcd60e51b815260206004820152601f60248201527f5265656e7472616e637947756172643a207265656e7472616e742063616c6c006044820152606401610c40565b600261012d55565b6001600160a01b03811660009081526101c360209081526040808320815160a0810183528154808252600183015494820194909452600282015492810192909252600381015460608301526004015460808201529082036124ee5750600092915050565b60006124fd8260000151612dc9565b60008181526101c4602090815260408083208151606080820184528254825260018301549482019490945260029091015491810191909152908501519293509161254790426139fe565b90508060000361255e575050506080015192915050565b600064496cebb800826101c754876000015161257a9190613b40565b6125849190613b40565b61258e9190613b57565b905060006127108460200151836125a59190613b40565b6125af9190613b57565b90508086608001516125c191906139eb565b98975050505050505050565b60006125d8306117a3565b905081811061260a576125ec308484612333565b816101c660008282546125ff91906139eb565b9091555061242a9050565b61261261302f565b600061261d8461248a565b905080821061264f57612631308583612333565b806101c6600082825461264491906139eb565b9091555061232d9050565b6101c754600090612661606484613b40565b61266b9190613b57565b90508083106115eb5761267f308683612333565b806101c6600082825461269291906139eb565b90915550505050505050565b600161012d55565b600080516020613d7f833981519152546001600160a01b031690565b61100361225a565b7f4910fdfa16fed3260ed0e7147f7cc6da11a60208b5b9406d12a635614ffd91435460ff16156126fd5761242a836131b4565b826001600160a01b03166352d1902d6040518163ffffffff1660e01b8152600401602060405180830381865afa925050508015612757575060408051601f3d908101601f1916820190925261275491810190613b79565b60015b6127ba5760405162461bcd60e51b815260206004820152602e60248201527f45524331393637557067726164653a206e657720696d706c656d656e7461746960448201526d6f6e206973206e6f74205555505360901b6064820152608401610c40565b600080516020613d7f83398151915281146128295760405162461bcd60e51b815260206004820152602960248201527f45524331393637557067726164653a20756e737570706f727465642070726f786044820152681a58589b195555525160ba1b6064820152608401610c40565b5061242a83838361324e565b61283d613273565b6097805460ff191690557f5db9ee0a495bf2e6ff9c91a7834c1ba4fdd244a5e8aa4e537bd38aeae4b073aa335b604051610f349190613873565b6001600160a01b0382166128cd5760405162461bcd60e51b815260206004820152601f60248201527f45524332303a206d696e7420746f20746865207a65726f2061646472657373006044820152606401610c40565b6128d9600083836132bc565b80603560008282546128eb91906139eb565b90915550506001600160a01b038216600081815260336020908152604080832080548601905551848152600080516020613dc6833981519152910160405180910390a35050565b6001600160a01b0382166129925760405162461bcd60e51b815260206004820152602160248201527f45524332303a206275726e2066726f6d20746865207a65726f206164647265736044820152607360f81b6064820152608401610c40565b61299e826000836132bc565b6001600160a01b03821660009081526033602052604090205481811015612a125760405162461bcd60e51b815260206004820152602260248201527f45524332303a206275726e20616d6f756e7420657863656564732062616c616e604482015261636560f01b6064820152608401610c40565b6001600160a01b0383166000818152603360209081526040808320868603905560358054879003905551858152919291600080516020613dc6833981519152910160405180910390a3505050565b6001600160a01b03163b151590565b600054610100900460ff16612a965760405162461bcd60e51b8152600401610c4090613b92565b61117f82826132c7565b600054610100900460ff16610df75760405162461bcd60e51b8152600401610c4090613b92565b600054610100900460ff16612aee5760405162461bcd60e51b8152600401610c4090613b92565b610df7613307565b600054610100900460ff16612b1d5760405162461bcd60e51b8152600401610c4090613b92565b610df761333a565b600054610100900460ff16612b4c5760405162461bcd60e51b8152600401610c4090613b92565b610df761336a565b6000612710612b70610fa06a52b7d2dcc80cd2e4000000613b40565b612b7a9190613b57565b9050612b863382612877565b6000612710612ba26108986a52b7d2dcc80cd2e4000000613b40565b612bac9190613b57565b9050612bb83382612877565b6000612710612bd46105dc6a52b7d2dcc80cd2e4000000613b40565b612bde9190613b57565b9050612bea3382612877565b6000612710612c066105dc6a52b7d2dcc80cd2e4000000613b40565b612c109190613b57565b9050612c1c3382612877565b6000612710612c386103206a52b7d2dcc80cd2e4000000613b40565b612c429190613b57565b9050612c4e3082612877565b6000818385612c5d888a6139eb565b612c6791906139eb565b612c7191906139eb565b612c7b91906139eb565b90506a52b7d2dcc80cd2e40000008114612cea5760405162461bcd60e51b815260206004820152602a60248201527f546f74616c20616c6c6f636174696f6e206d75737420657175616c20696e697460448201526969616c20737570706c7960b01b6064820152608401610c40565b7f3befad135675625e5587bd75e1c3e27a96bf101bfdca64e2e7d89ab01632c9378685878587604051612d219594939291906138f4565b60405180910390a1505050505050565b60fb80546001600160a01b038381166001600160a01b0319831681179093556040519116919082907f8be0079c531659141344cd1fd0a4f28419497f9722a3daafe3b4186f6b6457e090600090a35050565b60975460ff1615610df75760405162461bcd60e51b815260206004820152601060248201526f14185d5cd8589b194e881c185d5cd95960821b6044820152606401610c40565b600360009081526101c4602052600080516020613d1f833981519152548210612df457506003919050565b60026000526101c4602052600080516020613e06833981519152548210612e1d57506002919050565b60016000526101c4602052600080516020613de6833981519152548210612e4657506001919050565b506000919050565b612e56612d83565b6097805460ff191660011790557f62e78cea01bee320cd4e420270b5ea74000d11b0c9f74754ebdbfc544b05a25861286a3390565b6001600160a01b038316612eef5760405162461bcd60e51b815260206004820152602560248201527f45524332303a207472616e736665722066726f6d20746865207a65726f206164604482015264647265737360d81b6064820152608401610c40565b6001600160a01b038216612f515760405162461bcd60e51b815260206004820152602360248201527f45524332303a207472616e7366657220746f20746865207a65726f206164647260448201526265737360e81b6064820152608401610c40565b612f5c8383836132bc565b6001600160a01b03831660009081526033602052604090205481811015612fd45760405162461bcd60e51b815260206004820152602660248201527f45524332303a207472616e7366657220616d6f756e7420657863656564732062604482015265616c616e636560d01b6064820152608401610c40565b6001600160a01b038085166000818152603360205260408082208686039055928616808252908390208054860190559151600080516020613dc6833981519152906130229086815260200190565b60405180910390a361232d565b62278d006101ca5461304191906139eb565b42101561308f5760405162461bcd60e51b815260206004820152601c60248201527b14985d194818591a9d5cdd1b595b9d081d1bdbc8199c995c5d595b9d60221b6044820152606401610c40565b600061309a306117a3565b6101c55490915060008190036130ae575050565b6000816130bd84612710613b40565b6130c79190613b57565b90506103e88110156130f85760646101c75460506130e59190613b40565b6130ef9190613b57565b6101c75561313f565b6107d08110156131145760646101c754605a6130e59190613b40565b61138881111561313f5760646101c75460696131309190613b40565b61313a9190613b57565b6101c7555b60646101c75410156131565760646101c75561316b565b6103e86101c754111561316b576103e86101c7555b6101c7544360009081526101c9602052604090819020829055426101ca5551600080516020613d3f833981519152916131a79190815260200190565b60405180910390a1505050565b6131bd81612a60565b61321f5760405162461bcd60e51b815260206004820152602d60248201527f455243313936373a206e657720696d706c656d656e746174696f6e206973206e60448201526c1bdd08184818dbdb9d1c9858dd609a1b6064820152608401610c40565b600080516020613d7f83398151915280546001600160a01b0319166001600160a01b0392909216919091179055565b61325783613391565b6000825111806132645750805b1561242a5761232d83836133d1565b60975460ff16610df75760405162461bcd60e51b815260206004820152601460248201527314185d5cd8589b194e881b9bdd081c185d5cd95960621b6044820152606401610c40565b61242a8383836133fd565b600054610100900460ff166132ee5760405162461bcd60e51b8152600401610c4090613b92565b60366132fa8382613c24565b50603761242a8282613c24565b600054610100900460ff1661332e5760405162461bcd60e51b8152600401610c4090613b92565b6097805460ff19169055565b600054610100900460ff166133615760405162461bcd60e51b8152600401610c4090613b92565b610df733612d31565b600054610100900460ff1661269e5760405162461bcd60e51b8152600401610c4090613b92565b61339a816131b4565b6040516001600160a01b038216907fbc7cd75a20ee27fd9adebab32041f755214dbc6bffa90cc0225b39da2e5c2d3b90600090a250565b60606133f68383604051806060016040528060278152602001613d9f60279139613463565b9392505050565b60975460ff161561242a5760405162461bcd60e51b815260206004820152602a60248201527f45524332305061757361626c653a20746f6b656e207472616e736665722077686044820152691a5b19481c185d5cd95960b21b6064820152608401610c40565b6060600080856001600160a01b0316856040516134809190613ce2565b600060405180830381855af49150503d80600081146134bb576040519150601f19603f3d011682016040523d82523d6000602084013e6134c0565b606091505b50915091506134d1868383876134db565b9695505050505050565b60608315613548578251600003613541576134f585612a60565b6135415760405162461bcd60e51b815260206004820152601d60248201527f416464726573733a2063616c6c20746f206e6f6e2d636f6e74726163740000006044820152606401610c40565b5081613552565b613552838361355a565b949350505050565b81511561356a5781518083602001fd5b8060405162461bcd60e51b8152600401610c4091906135a8565b60005b8381101561359f578181015183820152602001613587565b50506000910152565b60208152600082518060208401526135c7816040850160208701613584565b601f01601f19169190910160400192915050565b80356001600160a01b03811681146135f257600080fd5b919050565b6000806040838503121561360a57600080fd5b613613836135db565b946020939093013593505050565b93845260208401929092526040830152606082015260800190565b60006020828403121561364e57600080fd5b5035919050565b60008060006060848603121561366a57600080fd5b613673846135db565b9250613681602085016135db565b929592945050506040919091013590565b600080600080608085870312156136a857600080fd5b5050823594602084013594506040840135936060013592509050565b6000602082840312156136d657600080fd5b6133f6826135db565b60008083601f8401126136f157600080fd5b5081356001600160401b0381111561370857600080fd5b60208301915083602082850101111561372057600080fd5b9250929050565b6000806000806040858703121561373d57600080fd5b84356001600160401b0381111561375357600080fd5b61375f878288016136df565b90955093505060208501356001600160401b0381111561377e57600080fd5b61378a878288016136df565b95989497509550505050565b634e487b7160e01b600052604160045260246000fd5b600080604083850312156137bf57600080fd5b6137c8836135db565b915060208301356001600160401b038111156137e357600080fd5b8301601f810185136137f457600080fd5b80356001600160401b0381111561380d5761380d613796565b604051601f8201601f19908116603f011681016001600160401b038111828210171561383b5761383b613796565b60405281815282820160200187101561385357600080fd5b816020840160208301376000602083830101528093505050509250929050565b6001600160a01b0391909116815260200190565b6000806040838503121561389a57600080fd5b50508035926020909101359150565b6000806000604084860312156138be57600080fd5b8335925060208401356001600160401b038111156138db57600080fd5b6138e7868287016136df565b9497909650939450505050565b948552602085019390935260408401919091526060830152608082015260a00190565b6000806040838503121561392a57600080fd5b613933836135db565b9150613941602084016135db565b90509250929050565b600181811c9082168061395e57607f821691505b60208210810361397e57634e487b7160e01b600052602260045260246000fd5b50919050565b6020808252600d908201526c0a4c2e8ca40e8dede40d0d2ced609b1b604082015260600190565b60208082526010908201526f139bc81cdd185ada5b99c8199bdd5b9960821b604082015260600190565b634e487b7160e01b600052601160045260246000fd5b80820180821115610be857610be86139d5565b81810381811115610be857610be86139d5565b6020808252600c908201526b24b73b30b634b2103a34b2b960a11b604082015260600190565b6020808252602c90820152600080516020613d5f83398151915260408201526b19195b1959d85d1958d85b1b60a21b606082015260800190565b6020808252602c90820152600080516020613d5f83398151915260408201526b6163746976652070726f787960a01b606082015260800190565b6020808252601d908201527f416d6f756e74206d7573742062652067726561746572207468616e2030000000604082015260600190565b83815260406020820152816040820152818360608301376000818301606090810191909152601f909201601f1916010192915050565b737365745374616b696e675265776172645261746560601b8152601481019190915260340190565b8082028115828204841417610be857610be86139d5565b600082613b7457634e487b7160e01b600052601260045260246000fd5b500490565b600060208284031215613b8b57600080fd5b5051919050565b6020808252602b908201527f496e697469616c697a61626c653a20636f6e7472616374206973206e6f74206960408201526a6e697469616c697a696e6760a81b606082015260800190565b601f82111561242a57806000526020600020601f840160051c81016020851015613c045750805b601f840160051c820191505b818110156115eb5760008155600101613c10565b81516001600160401b03811115613c3d57613c3d613796565b613c5181613c4b845461394a565b84613bdd565b6020601f821160018114613c855760008315613c6d5750848201515b600019600385901b1c1916600184901b1784556115eb565b600084815260208120601f198516915b82811015613cb55787850151825560209485019460019092019101613c95565b5084821015613cd35786840151600019600387901b60f8161c191681555b50505050600190811b01905550565b60008251613cf4818460208701613584565b919091019291505056fefad31924d655455395c87544c8aa1ffdb5a7505a22a3c2e03f28003b6556a75f01fe604e604fe8f473951b43558adbf7f983ccc6feb0f0f4bfbc8e2d38dfcd2639c078e0c9be5a018723ae5517e933105b55d82377b3f6b19db1933767a21bdc46756e6374696f6e206d7573742062652063616c6c6564207468726f75676820360894a13ba1a3210667c828492db98dca3e2076cc3735a920a3ca505d382bbc416464726573733a206c6f772d6c6576656c2064656c65676174652063616c6c206661696c6564ddf252ad1be2c89b69c2b068fc378daa952ba7f163c4a11628f55a4df523b3eff6ccb3c78ad86b3231879707325826c087a2d02dd70eb918b97f248746719e702a271a6e4d4f3524cc28dcdc2fc7eb3733f7b596bb6a78b6597c134ac9f9f966a2646970667358221220f85a518934371ea483c4563003aa7b0da45f8b9e8031e38d5ebe99ca3efbf02164736f6c634300081e0033",
  "linkReferences": {},
  "deployedLinkReferences": {}
}