{
  "_format": "hh-sol-artifact-1",
  "contractName": "DIAPPayment",
  "sourceName": "contracts/DIAPPayment.sol",
  "abi": [
    {
      "anonymous": false,
      "inputs": [
        {
          "indexed": false,
          "internalType": "address",
          "name": "previousAdmin",
          "type": "address"
        },
        {
          "indexed": false,
          "internalType": "address",
          "name": "newAdmin",
          "type": "address"
        }
      ],
      "name": "AdminChanged",
      "type": "event"
    },
    {
      "anonymous": false,
      "inputs": [
        {
          "indexed": true,
          "internalType": "address",
          "name": "beacon",
          "type": "address"
        }
      ],
      "name": "BeaconUpgraded",
      "type": "event"
    },
    {
      "anonymous": false,
      "inputs": [
        {
          "indexed": true,
          "internalType": "string",
          "name": "paymentId",
          "type": "string"
        },
        {
          "indexed": false,
          "internalType": "uint256",
          "name": "timestamp",
          "type": "uint256"
        }
      ],
      "name": "CrossChainPaymentCompleted",
      "type": "event"
    },
    {
      "anonymous": false,
      "inputs": [
        {
          "indexed": true,
          "internalType": "string",
          "name": "paymentId",
          "type": "string"
        },
        {
          "indexed": true,
          "internalType": "address",
          "name": "from",
          "type": "address"
        },
        {
          "indexed": false,
          "internalType": "uint256",
          "name": "targetChainId",
          "type": "uint256"
        },
        {
          "indexed": false,
          "internalType": "uint256",
          "name": "amount",
          "type": "uint256"
        }
      ],
      "name": "CrossChainPaymentInitiated",
      "type": "event"
    },
    {
      "anonymous": false,
      "inputs": [
        {
          "indexed": true,
          "internalType": "bytes32",
          "name": "commitment",
          "type": "bytes32"
        },
        {
          "indexed": false,
          "internalType": "uint256",
          "name": "amount",
          "type": "uint256"
        },
        {
          "indexed": true,
          "internalType": "address",
          "name": "locker",
          "type": "address"
        }
      ],
      "name": "FundsLocked",
      "type": "event"
    },
    {
      "anonymous": false,
      "inputs": [
        {
          "indexed": true,
          "internalType": "bytes32",
          "name": "commitment",
          "type": "bytes32"
        },
        {
          "indexed": false,
          "internalType": "uint256",
          "name": "amount",
          "type": "uint256"
        },
        {
          "indexed": true,
          "internalType": "address",
          "name": "withdrawer",
          "type": "address"
        }
      ],
      "name": "FundsWithdrawn",
      "type": "event"
    },
    {
      "anonymous": false,
      "inputs": [
        {
          "indexed": false,
          "internalType": "uint8",
          "name": "version",
          "type": "uint8"
        }
      ],
      "name": "Initialized",
      "type": "event"
    },
    {
      "anonymous": false,
      "inputs": [
        {
          "indexed": true,
          "internalType": "address",
          "name": "previousOwner",
          "type": "address"
        },
        {
          "indexed": true,
          "internalType": "address",
          "name": "newOwner",
          "type": "address"
        }
      ],
      "name": "OwnershipTransferred",
      "type": "event"
    },
    {
      "anonymous": false,
      "inputs": [
        {
          "indexed": false,
          "internalType": "address",
          "name": "account",
          "type": "address"
        }
      ],
      "name": "Paused",
      "type": "event"
    },
    {
      "anonymous": false,
      "inputs": [
        {
          "indexed": true,
          "internalType": "string",
          "name": "channelId",
          "type": "string"
        },
        {
          "indexed": false,
          "internalType": "uint256",
          "name": "finalBalance1",
          "type": "uint256"
        },
        {
          "indexed": false,
          "internalType": "uint256",
          "name": "finalBalance2",
          "type": "uint256"
        }
      ],
      "name": "PaymentChannelClosed",
      "type": "event"
    },
    {
      "anonymous": false,
      "inputs": [
        {
          "indexed": true,
          "internalType": "string",
          "name": "channelId",
          "type": "string"
        },
        {
          "indexed": true,
          "internalType": "address",
          "name": "participant1",
          "type": "address"
        },
        {
          "indexed": true,
          "internalType": "address",
          "name": "participant2",
          "type": "address"
        },
        {
          "indexed": false,
          "internalType": "uint256",
          "name": "totalDeposit",
          "type": "uint256"
        }
      ],
      "name": "PaymentChannelOpened",
      "type": "event"
    },
    {
      "anonymous": false,
      "inputs": [
        {
          "indexed": true,
          "internalType": "string",
          "name": "paymentId",
          "type": "string"
        },
        {
          "indexed": false,
          "internalType": "uint256",
          "name": "timestamp",
          "type": "uint256"
        }
      ],
      "name": "PaymentConfirmed",
      "type": "event"
    },
    {
      "anonymous": false,
      "inputs": [
        {
          "indexed": true,
          "internalType": "string",
          "name": "paymentId",
          "type": "string"
        },
        {
          "indexed": true,
          "internalType": "address",
          "name": "from",
          "type": "address"
        },
        {
          "indexed": true,
          "internalType": "address",
          "name": "to",
          "type": "address"
        },
        {
          "indexed": false,
          "internalType": "uint256",
          "name": "amount",
          "type": "uint256"
        }
      ],
      "name": "PaymentCreated",
      "type": "event"
    },
    {
      "anonymous": false,
      "inputs": [
        {
          "indexed": true,
          "internalType": "string",
          "name": "paymentId",
          "type": "string"
        },
        {
          "indexed": false,
          "internalType": "string",
          "name": "reason",
          "type": "string"
        }
      ],
      "name": "PaymentFailed",
      "type": "event"
    },
    {
      "anonymous": false,
      "inputs": [
        {
          "indexed": true,
          "internalType": "bytes32",
          "name": "commitment",
          "type": "bytes32"
        },
        {
          "indexed": true,
          "internalType": "address",
          "name": "to",
          "type": "address"
        },
        {
          "indexed": false,
          "internalType": "uint256",
          "name": "amount",
          "type": "uint256"
        }
      ],
      "name": "PrivacyPaymentExecuted",
      "type": "event"
    },
    {
      "anonymous": false,
      "inputs": [
        {
          "indexed": false,
          "internalType": "address",
          "name": "account",
          "type": "address"
        }
      ],
      "name": "Unpaused",
      "type": "event"
    },
    {
      "anonymous": false,
      "inputs": [
        {
          "indexed": true,
          "internalType": "address",
          "name": "implementation",
          "type": "address"
        }
      ],
      "name": "Upgraded",
      "type": "event"
    },
    {
      "inputs": [
        {
          "internalType": "uint256",
          "name": "chainId",
          "type": "uint256"
        },
        {
          "internalType": "address",
          "name": "bridgeContract",
          "type": "address"
        }
      ],
      "name": "addSupportedChain",
      "outputs": [],
      "stateMutability": "nonpayable",
      "type": "function"
    },
    {
      "inputs": [],
      "name": "agentNetwork",
      "outputs": [
        {
          "internalType": "contract DIAPAgentNetwork",
          "name": "",
          "type": "address"
        }
      ],
      "stateMutability": "view",
      "type": "function"
    },
    {
      "inputs": [
        {
          "internalType": "uint256",
          "name": "",
          "type": "uint256"
        }
      ],
      "name": "bridgeContracts",
      "outputs": [
        {
          "internalType": "address",
          "name": "",
          "type": "address"
        }
      ],
      "stateMutability": "view",
      "type": "function"
    },
    {
      "inputs": [
        {
          "internalType": "string",
          "name": "paymentId",
          "type": "string"
        }
      ],
      "name": "cancelPayment",
      "outputs": [],
      "stateMutability": "nonpayable",
      "type": "function"
    },
    {
      "inputs": [],
      "name": "channelFeeRate",
      "outputs": [
        {
          "internalType": "uint256",
          "name": "",
          "type": "uint256"
        }
      ],
      "stateMutability": "view",
      "type": "function"
    },
    {
      "inputs": [
        {
          "internalType": "string",
          "name": "channelId",
          "type": "string"
        },
        {
          "internalType": "uint256",
          "name": "finalBalance1",
          "type": "uint256"
        },
        {
          "internalType": "uint256",
          "name": "finalBalance2",
          "type": "uint256"
        },
        {
          "internalType": "bytes",
          "name": "signature1",
          "type": "bytes"
        },
        {
          "internalType": "bytes",
          "name": "signature2",
          "type": "bytes"
        }
      ],
      "name": "closePaymentChannel",
      "outputs": [],
      "stateMutability": "nonpayable",
      "type": "function"
    },
    {
      "inputs": [
        {
          "internalType": "bytes32",
          "name": "",
          "type": "bytes32"
        }
      ],
      "name": "commitmentPools",
      "outputs": [
        {
          "internalType": "uint256",
          "name": "",
          "type": "uint256"
        }
      ],
      "stateMutability": "view",
      "type": "function"
    },
    {
      "inputs": [
        {
          "internalType": "string",
          "name": "paymentId",
          "type": "string"
        },
        {
          "internalType": "bytes",
          "name": "proof",
          "type": "bytes"
        }
      ],
      "name": "completeCrossChainPayment",
      "outputs": [],
      "stateMutability": "nonpayable",
      "type": "function"
    },
    {
      "inputs": [
        {
          "internalType": "string",
          "name": "paymentId",
          "type": "string"
        }
      ],
      "name": "confirmPayment",
      "outputs": [],
      "stateMutability": "nonpayable",
      "type": "function"
    },
    {
      "inputs": [
        {
          "internalType": "address",
          "name": "to",
          "type": "address"
        },
        {
          "internalType": "uint256",
          "name": "amount",
          "type": "uint256"
        },
        {
          "internalType": "string",
          "name": "paymentId",
          "type": "string"
        },
        {
          "internalType": "string",
          "name": "description",
          "type": "string"
        },
        {
          "internalType": "string",
          "name": "metadata",
          "type": "string"
        }
      ],
      "name": "createPayment",
      "outputs": [],
      "stateMutability": "nonpayable",
      "type": "function"
    },
    {
      "inputs": [],
      "name": "crossChainFeeRate",
      "outputs": [
        {
          "internalType": "uint256",
          "name": "",
          "type": "uint256"
        }
      ],
      "stateMutability": "view",
      "type": "function"
    },
    {
      "inputs": [
        {
          "internalType": "string",
          "name": "",
          "type": "string"
        }
      ],
      "name": "crossChainPayments",
      "outputs": [
        {
          "internalType": "address",
          "name": "from",
          "type": "address"
        },
        {
          "internalType": "address",
          "name": "to",
          "type": "address"
        },
        {
          "internalType": "uint256",
          "name": "amount",
          "type": "uint256"
        },
        {
          "internalType": "uint256",
          "name": "targetChainId",
          "type": "uint256"
        },
        {
          "internalType": "string",
          "name": "targetAddress",
          "type": "string"
        },
        {
          "internalType": "string",
          "name": "paymentId",
          "type": "string"
        },
        {
          "internalType": "uint256",
          "name": "timestamp",
          "type": "uint256"
        },
        {
          "internalType": "enum DIAPPayment.CrossChainStatus",
          "name": "status",
          "type": "uint8"
        }
      ],
      "stateMutability": "view",
      "type": "function"
    },
    {
      "inputs": [
        {
          "internalType": "bytes32",
          "name": "commitment",
          "type": "bytes32"
        },
        {
          "internalType": "bytes32",
          "name": "nullifier",
          "type": "bytes32"
        },
        {
          "internalType": "uint256[8]",
          "name": "proof",
          "type": "uint256[8]"
        },
        {
          "internalType": "address",
          "name": "to",
          "type": "address"
        },
        {
          "internalType": "uint256",
          "name": "amount",
          "type": "uint256"
        }
      ],
      "name": "executePrivacyPayment",
      "outputs": [],
      "stateMutability": "nonpayable",
      "type": "function"
    },
    {
      "inputs": [
        {
          "internalType": "string",
          "name": "paymentId",
          "type": "string"
        }
      ],
      "name": "getCrossChainPayment",
      "outputs": [
        {
          "components": [
            {
              "internalType": "address",
              "name": "from",
              "type": "address"
            },
            {
              "internalType": "address",
              "name": "to",
              "type": "address"
            },
            {
              "internalType": "uint256",
              "name": "amount",
              "type": "uint256"
            },
            {
              "internalType": "uint256",
              "name": "targetChainId",
              "type": "uint256"
            },
            {
              "internalType": "string",
              "name": "targetAddress",
              "type": "string"
            },
            {
              "internalType": "string",
              "name": "paymentId",
              "type": "string"
            },
            {
              "internalType": "uint256",
              "name": "timestamp",
              "type": "uint256"
            },
            {
              "internalType": "enum DIAPPayment.CrossChainStatus",
              "name": "status",
              "type": "uint8"
            }
          ],
          "internalType": "struct DIAPPayment.CrossChainPayment",
          "name": "",
          "type": "tuple"
        }
      ],
      "stateMutability": "view",
      "type": "function"
    },
    {
      "inputs": [
        {
          "internalType": "string",
          "name": "paymentId",
          "type": "string"
        }
      ],
      "name": "getPayment",
      "outputs": [
        {
          "components": [
            {
              "internalType": "address",
              "name": "from",
              "type": "address"
            },
            {
              "internalType": "address",
              "name": "to",
              "type": "address"
            },
            {
              "internalType": "uint256",
              "name": "amount",
              "type": "uint256"
            },
            {
              "internalType": "string",
              "name": "paymentId",
              "type": "string"
            },
            {
              "internalType": "string",
              "name": "description",
              "type": "string"
            },
            {
              "internalType": "uint256",
              "name": "timestamp",
              "type": "uint256"
            },
            {
              "internalType": "enum DIAPPayment.PaymentStatus",
              "name": "status",
              "type": "uint8"
            },
            {
              "internalType": "string",
              "name": "metadata",
              "type": "string"
            }
          ],
          "internalType": "struct DIAPPayment.Payment",
          "name": "",
          "type": "tuple"
        }
      ],
      "stateMutability": "view",
      "type": "function"
    },
    {
      "inputs": [
        {
          "internalType": "string",
          "name": "channelId",
          "type": "string"
        }
      ],
      "name": "getPaymentChannel",
      "outputs": [
        {
          "components": [
            {
              "internalType": "address",
              "name": "participant1",
              "type": "address"
            },
            {
              "internalType": "address",
              "name": "participant2",
              "type": "address"
            },
            {
              "internalType": "uint256",
              "name": "balance1",
              "type": "uint256"
            },
            {
              "internalType": "uint256",
              "name": "balance2",
              "type": "uint256"
            },
            {
              "internalType": "uint256",
              "name": "totalDeposited",
              "type": "uint256"
            },
            {
              "internalType": "bool",
              "name": "isActive",
              "type": "bool"
            },
            {
              "internalType": "uint256",
              "name": "lastUpdate",
              "type": "uint256"
            },
            {
              "internalType": "string",
              "name": "channelId",
              "type": "string"
            }
          ],
          "internalType": "struct DIAPPayment.PaymentChannel",
          "name": "",
          "type": "tuple"
        }
      ],
      "stateMutability": "view",
      "type": "function"
    },
    {
      "inputs": [],
      "name": "getPaymentStats",
      "outputs": [
        {
          "internalType": "uint256",
          "name": "_totalPayments",
          "type": "uint256"
        },
        {
          "internalType": "uint256",
          "name": "_totalVolume",
          "type": "uint256"
        },
        {
          "internalType": "uint256",
          "name": "_totalCrossChainVolume",
          "type": "uint256"
        }
      ],
      "stateMutability": "view",
      "type": "function"
    },
    {
      "inputs": [
        {
          "internalType": "address",
          "name": "_token",
          "type": "address"
        },
        {
          "internalType": "address",
          "name": "_agentNetwork",
          "type": "address"
        }
      ],
      "name": "initialize",
      "outputs": [],
      "stateMutability": "nonpayable",
      "type": "function"
    },
    {
      "inputs": [
        {
          "internalType": "address",
          "name": "to",
          "type": "address"
        },
        {
          "internalType": "uint256",
          "name": "amount",
          "type": "uint256"
        },
        {
          "internalType": "uint256",
          "name": "targetChainId",
          "type": "uint256"
        },
        {
          "internalType": "string",
          "name": "targetAddress",
          "type": "string"
        },
        {
          "internalType": "string",
          "name": "paymentId",
          "type": "string"
        }
      ],
      "name": "initiateCrossChainPayment",
      "outputs": [],
      "stateMutability": "payable",
      "type": "function"
    },
    {
      "inputs": [
        {
          "internalType": "bytes32",
          "name": "commitment",
          "type": "bytes32"
        },
        {
          "internalType": "uint256",
          "name": "amount",
          "type": "uint256"
        }
      ],
      "name": "lockFundsForPrivacy",
      "outputs": [],
      "stateMutability": "nonpayable",
      "type": "function"
    },
    {
      "inputs": [
        {
          "internalType": "address",
          "name": "participant2",
          "type": "address"
        },
        {
          "internalType": "uint256",
          "name": "deposit",
          "type": "uint256"
        },
        {
          "internalType": "string",
          "name": "channelId",
          "type": "string"
        }
      ],
      "name": "openPaymentChannel",
      "outputs": [],
      "stateMutability": "nonpayable",
      "type": "function"
    },
    {
      "inputs": [],
      "name": "owner",
      "outputs": [
        {
          "internalType": "address",
          "name": "",
          "type": "address"
        }
      ],
      "stateMutability": "view",
      "type": "function"
    },
    {
      "inputs": [],
      "name": "pause",
      "outputs": [],
      "stateMutability": "nonpayable",
      "type": "function"
    },
    {
      "inputs": [],
      "name": "paused",
      "outputs": [
        {
          "internalType": "bool",
          "name": "",
          "type": "bool"
        }
      ],
      "stateMutability": "view",
      "type": "function"
    },
    {
      "inputs": [
        {
          "internalType": "string",
          "name": "",
          "type": "string"
        }
      ],
      "name": "paymentChannels",
      "outputs": [
        {
          "internalType": "address",
          "name": "participant1",
          "type": "address"
        },
        {
          "internalType": "address",
          "name": "participant2",
          "type": "address"
        },
        {
          "internalType": "uint256",
          "name": "balance1",
          "type": "uint256"
        },
        {
          "internalType": "uint256",
          "name": "balance2",
          "type": "uint256"
        },
        {
          "internalType": "uint256",
          "name": "totalDeposited",
          "type": "uint256"
        },
        {
          "internalType": "bool",
          "name": "isActive",
          "type": "bool"
        },
        {
          "internalType": "uint256",
          "name": "lastUpdate",
          "type": "uint256"
        },
        {
          "internalType": "string",
          "name": "channelId",
          "type": "string"
        }
      ],
      "stateMutability": "view",
      "type": "function"
    },
    {
      "inputs": [],
      "name": "paymentFeeRate",
      "outputs": [
        {
          "internalType": "uint256",
          "name": "",
          "type": "uint256"
        }
      ],
      "stateMutability": "view",
      "type": "function"
    },
    {
      "inputs": [
        {
          "internalType": "string",
          "name": "",
          "type": "string"
        }
      ],
      "name": "payments",
      "outputs": [
        {
          "internalType": "address",
          "name": "from",
          "type": "address"
        },
        {
          "internalType": "address",
          "name": "to",
          "type": "address"
        },
        {
          "internalType": "uint256",
          "name": "amount",
          "type": "uint256"
        },
        {
          "internalType": "string",
          "name": "paymentId",
          "type": "string"
        },
        {
          "internalType": "string",
          "name": "description",
          "type": "string"
        },
        {
          "internalType": "uint256",
          "name": "timestamp",
          "type": "uint256"
        },
        {
          "internalType": "enum DIAPPayment.PaymentStatus",
          "name": "status",
          "type": "uint8"
        },
        {
          "internalType": "string",
          "name": "metadata",
          "type": "string"
        }
      ],
      "stateMutability": "view",
      "type": "function"
    },
    {
      "inputs": [],
      "name": "proxiableUUID",
      "outputs": [
        {
          "internalType": "bytes32",
          "name": "",
          "type": "bytes32"
        }
      ],
      "stateMutability": "view",
      "type": "function"
    },
    {
      "inputs": [
        {
          "internalType": "uint256",
          "name": "chainId",
          "type": "uint256"
        }
      ],
      "name": "removeSupportedChain",
      "outputs": [],
      "stateMutability": "nonpayable",
      "type": "function"
    },
    {
      "inputs": [],
      "name": "renounceOwnership",
      "outputs": [],
      "stateMutability": "nonpayable",
      "type": "function"
    },
    {
      "inputs": [
        {
          "internalType": "uint256",
          "name": "_rate",
          "type": "uint256"
        }
      ],
      "name": "setChannelFeeRate",
      "outputs": [],
      "stateMutability": "nonpayable",
      "type": "function"
    },
    {
      "inputs": [
        {
          "internalType": "uint256",
          "name": "_rate",
          "type": "uint256"
        }
      ],
      "name": "setCrossChainFeeRate",
      "outputs": [],
      "stateMutability": "nonpayable",
      "type": "function"
    },
    {
      "inputs": [
        {
          "internalType": "uint256",
          "name": "_rate",
          "type": "uint256"
        }
      ],
      "name": "setPaymentFeeRate",
      "outputs": [],
      "stateMutability": "nonpayable",
      "type": "function"
    },
    {
      "inputs": [
        {
          "internalType": "uint256",
          "name": "",
          "type": "uint256"
        }
      ],
      "name": "supportedChains",
      "outputs": [
        {
          "internalType": "bool",
          "name": "",
          "type": "bool"
        }
      ],
      "stateMutability": "view",
      "type": "function"
    },
    {
      "inputs": [],
      "name": "token",
      "outputs": [
        {
          "internalType": "contract DIAPToken",
          "name": "",
          "type": "address"
        }
      ],
      "stateMutability": "view",
      "type": "function"
    },
    {
      "inputs": [],
      "name": "totalCrossChainVolume",
      "outputs": [
        {
          "internalType": "uint256",
          "name": "",
          "type": "uint256"
        }
      ],
      "stateMutability": "view",
      "type": "function"
    },
    {
      "inputs": [],
      "name": "totalPayments",
      "outputs": [
        {
          "internalType": "uint256",
          "name": "",
          "type": "uint256"
        }
      ],
      "stateMutability": "view",
      "type": "function"
    },
    {
      "inputs": [],
      "name": "totalVolume",
      "outputs": [
        {
          "internalType": "uint256",
          "name": "",
          "type": "uint256"
        }
      ],
      "stateMutability": "view",
      "type": "function"
    },
    {
      "inputs": [
        {
          "internalType": "address",
          "name": "newOwner",
          "type": "address"
        }
      ],
      "name": "transferOwnership",
      "outputs": [],
      "stateMutability": "nonpayable",
      "type": "function"
    },
    {
      "inputs": [],
      "name": "unpause",
      "outputs": [],
      "stateMutability": "nonpayable",
      "type": "function"
    },
    {
      "inputs": [
        {
          "internalType": "address",
          "name": "newImplementation",
          "type": "address"
        }
      ],
      "name": "upgradeTo",
      "outputs": [],
      "stateMutability": "nonpayable",
      "type": "function"
    },
    {
      "inputs": [
        {
          "internalType": "address",
          "name": "newImplementation",
          "type": "address"
        },
        {
          "internalType": "bytes",
          "name": "data",
          "type": "bytes"
        }
      ],
      "name": "upgradeToAndCall",
      "outputs": [],
      "stateMutability": "payable",
      "type": "function"
    },
    {
      "inputs": [
        {
          "internalType": "bytes32",
          "name": "",
          "type": "bytes32"
        }
      ],
      "name": "usedCommitments",
      "outputs": [
        {
          "internalType": "bool",
          "name": "",
          "type": "bool"
        }
      ],
      "stateMutability": "view",
      "type": "function"
    },
    {
      "inputs": [
        {
          "internalType": "bytes32",
          "name": "",
          "type": "bytes32"
        }
      ],
      "name": "usedNullifiers",
      "outputs": [
        {
          "internalType": "bool",
          "name": "",
          "type": "bool"
        }
      ],
      "stateMutability": "view",
      "type": "function"
    },
    {
      "inputs": [
        {
          "internalType": "bytes32",
          "name": "commitment",
          "type": "bytes32"
        }
      ],
      "name": "withdrawLockedFunds",
      "outputs": [],
      "stateMutability": "nonpayable",
      "type": "function"
    },
    {
      "stateMutability": "payable",
      "type": "receive"
    }
  ],
  "bytecode": "0x60a060405230608052348015601357600080fd5b5060805161535b61004b6000396000818161127d015281816112bd015281816119c701528181611a070152611c13015261535b6000f3fe6080604052600436106102755760003560e01c8063715018a61161014f57806398490ed7116100c1578063e461e1f51161007a578063e461e1f5146107d2578063f2fde38b146107e9578063f6b7d31d14610809578063f94687131461083d578063fa8ad56014610871578063fc0c546a1461088857600080fd5b806398490ed71461070d578063b9f578ef1461072d578063c510ac621461074d578063c69207a31461076d578063cd333b6a1461079a578063dd8b5568146107b157600080fd5b806385a799b61161011357806385a799b6146106315780638d5c3e7a146106515780638da5cb5b1461067e5780638f53a6e61461069c578063912db0fb146106bc57806391402039146106dc57600080fd5b8063715018a6146105a05780637d424720146105b5578063800b1cf1146105c857806384126e01146105fc5780638456cb591461061c57600080fd5b8063418e59e5116101e8578063548d496f116101ac578063548d496f146104b15780635c975abb146104e25780635f81a57c146104fa5780636049c99f1461051157806369e69425146105605780636cdc978c1461058057600080fd5b8063418e59e514610408578063485cc9551461043c5780634f1ef2861461045c5780635078afaa1461046f57806352d1902d1461049c57600080fd5b8063206137aa1161023a578063206137aa1461033b5780632fc2061c1461037c57806336301dd1146103935780633659cfe6146103b35780633a0dff1a146103d35780633f4ba83a146103f357600080fd5b80625b4487146102815780630542a03e146102ab5780630c4844aa146102cd57806317011baf146102ed5780631cf6a7fe1461030d57600080fd5b3661027c57005b600080fd5b34801561028d57600080fd5b506102986101325481565b6040519081526020015b60405180910390f35b3480156102b757600080fd5b506102cb6102c6366004614413565b6108a9565b005b3480156102d957600080fd5b506102cb6102e836600461446c565b610f57565b3480156102f957600080fd5b506102cb610308366004614485565b610f91565b34801561031957600080fd5b5061029861032836600461446c565b61013c6020526000908152604090205481565b34801561034757600080fd5b5061036c61035636600461446c565b61013b6020526000908152604090205460ff1681565b60405190151581526020016102a2565b34801561038857600080fd5b506102986101345481565b34801561039f57600080fd5b506102cb6103ae3660046144b1565b610fe0565b3480156103bf57600080fd5b506102cb6103ce3660046144d3565b611273565b3480156103df57600080fd5b506102cb6103ee3660046144ee565b611352565b3480156103ff57600080fd5b506102cb611611565b34801561041457600080fd5b5061042861042336600461461a565b611623565b6040516102a29897969594939291906146f3565b34801561044857600080fd5b506102cb610457366004614765565b611794565b6102cb61046a36600461478f565b6119bd565b34801561047b57600080fd5b5061048f61048a3660046147f0565b611a89565b6040516102a29190614831565b3480156104a857600080fd5b50610298611c06565b3480156104bd57600080fd5b5061036c6104cc36600461446c565b6101386020526000908152604090205460ff1681565b3480156104ee57600080fd5b5060fb5460ff1661036c565b34801561050657600080fd5b506102986101335481565b34801561051d57600080fd5b5061054861052c36600461446c565b610139602052600090815260409020546001600160a01b031681565b6040516001600160a01b0390911681526020016102a2565b34801561056c57600080fd5b506102cb61057b36600461446c565b611cb9565b34801561058c57600080fd5b506102cb61059b36600461446c565b611ce8565b3480156105ac57600080fd5b506102cb611e80565b6102cb6105c33660046148ae565b611e92565b3480156105d457600080fd5b506105e86105e336600461461a565b6122d7565b6040516102a2989796959493929190614945565b34801561060857600080fd5b506102cb6106173660046147f0565b6123c2565b34801561062857600080fd5b506102cb61251a565b34801561063d57600080fd5b506102cb61064c3660046149a4565b61252a565b34801561065d57600080fd5b5061067161066c3660046147f0565b61267e565b6040516102a291906149fb565b34801561068a57600080fd5b506097546001600160a01b0316610548565b3480156106a857600080fd5b506102cb6106b7366004614a9f565b612850565b3480156106c857600080fd5b506102cb6106d73660046147f0565b612d9b565b3480156106e857600080fd5b5061036c6106f736600461446c565b61013a6020526000908152604090205460ff1681565b34801561071957600080fd5b506102cb61072836600461446c565b61324b565b34801561073957600080fd5b506102cb610748366004614b55565b61327a565b34801561075957600080fd5b506102cb61076836600461446c565b6137d2565b34801561077957600080fd5b5061078d6107883660046147f0565b613801565b6040516102a29190614bc7565b3480156107a657600080fd5b506102986101355481565b3480156107bd57600080fd5b5061012e54610548906001600160a01b031681565b3480156107de57600080fd5b506102986101375481565b3480156107f557600080fd5b506102cb6108043660046144d3565b613a12565b34801561081557600080fd5b50610132546101335461013454604080519384526020840192909252908201526060016102a2565b34801561084957600080fd5b5061085d61085836600461461a565b613a88565b6040516102a2989796959493929190614c85565b34801561087d57600080fd5b506102986101365481565b34801561089457600080fd5b5061012d54610548906001600160a01b031681565b6108b1613c00565b6108b9613c59565b6000831161090e5760405162461bcd60e51b815260206004820152601e60248201527f4465706f736974206d7573742062652067726561746572207468616e2030000060448201526064015b60405180910390fd5b806109515760405162461bcd60e51b815260206004820152601360248201527210da185b9b995b081251081c995c5d5a5c9959606a1b6044820152606401610905565b6101318282604051610964929190614d03565b9081526020016040518091039020600601546000146109be5760405162461bcd60e51b81526020600482015260166024820152754368616e6e656c20616c72656164792065786973747360501b6044820152606401610905565b336001600160a01b03851603610a165760405162461bcd60e51b815260206004820152601d60248201527f43616e6e6f74206f70656e206368616e6e656c20776974682073656c660000006044820152606401610905565b6001600160a01b038416610a6c5760405162461bcd60e51b815260206004820152601b60248201527f496e76616c6964207061727469636970616e74206164647265737300000000006044820152606401610905565b61012e5460405163fb3551ff60e01b81523360048201526001600160a01b039091169063fb3551ff90602401600060405180830381865afa158015610ab5573d6000803e3d6000fd5b505050506040513d6000823e601f3d908101601f19168201604052610add9190810190614d68565b60600151610b255760405162461bcd60e51b815260206004820152601560248201527414d95b99195c881b9bdd081c9959da5cdd195c9959605a1b6044820152606401610905565b61012e5460405163fb3551ff60e01b81526001600160a01b0386811660048301529091169063fb3551ff90602401600060405180830381865afa158015610b70573d6000803e3d6000fd5b505050506040513d6000823e601f3d908101601f19168201604052610b989190810190614d68565b60600151610be85760405162461bcd60e51b815260206004820152601b60248201527f5061727469636970616e7432206e6f74207265676973746572656400000000006044820152606401610905565b61012d546040516370a0823160e01b815233600482015284916001600160a01b0316906370a0823190602401602060405180830381865afa158015610c31573d6000803e3d6000fd5b505050506040513d601f19601f82011682018060405250810190610c559190614e64565b1015610c735760405162461bcd60e51b815260040161090590614e7d565b61012d54604051636eb1769f60e11b815233600482015230602482015284916001600160a01b03169063dd62ed3e90604401602060405180830381865afa158015610cc2573d6000803e3d6000fd5b505050506040513d601f19601f82011682018060405250810190610ce69190614e64565b1015610d045760405162461bcd60e51b815260040161090590614eab565b604051806101000160405280336001600160a01b03168152602001856001600160a01b031681526020018481526020016000815260200184815260200160011515815260200142815260200183838080601f016020809104026020016040519081016040528093929190818152602001838380828437600092019190915250505091525060405161013190610d9c9085908590614d03565b9081526040805160209281900383019020835181546001600160a01b03199081166001600160a01b03928316178355938501516001830180549095169116179092558201516002820155606082015160038201556080820151600482015560a082015160058201805460ff191691151591909117905560c0820151600682015560e08201516007820190610e309082614f5c565b505061012d546040516323b872dd60e01b81526001600160a01b0390911691506323b872dd90610e689033903090889060040161501a565b6020604051808303816000875af1158015610e87573d6000803e3d6000fd5b505050506040513d601f19601f82011682018060405250810190610eab919061503e565b610ee95760405162461bcd60e51b815260206004820152600f60248201526e151c985b9cd9995c8819985a5b1959608a1b6044820152606401610905565b836001600160a01b0316336001600160a01b03168383604051610f0d929190614d03565b604051908190038120868252907fce0ad19fd64af1a45dc100ce44461e37ccabe40e8daa9fc69184c14568e753a49060200160405180910390a4610f51600160c955565b50505050565b610f5f613ca6565b600090815261013860209081526040808320805460ff19169055610139909152902080546001600160a01b0319169055565b610f99613ca6565b600091825261013860209081526040808420805460ff1916600117905561013990915290912080546001600160a01b039092166001600160a01b0319909216919091179055565b610fe8613c00565b600081116110085760405162461bcd60e51b815260040161090590615059565b600082815261013c6020526040902054156110655760405162461bcd60e51b815260206004820152601960248201527f436f6d6d69746d656e7420616c726561647920657869737473000000000000006044820152606401610905565b61012d546040516370a0823160e01b815233600482015282916001600160a01b0316906370a0823190602401602060405180830381865afa1580156110ae573d6000803e3d6000fd5b505050506040513d601f19601f820116820180604052508101906110d29190614e64565b10156110f05760405162461bcd60e51b815260040161090590614e7d565b61012d54604051636eb1769f60e11b815233600482015230602482015282916001600160a01b03169063dd62ed3e90604401602060405180830381865afa15801561113f573d6000803e3d6000fd5b505050506040513d601f19601f820116820180604052508101906111639190614e64565b10156111815760405162461bcd60e51b815260040161090590614eab565b61012d546040516323b872dd60e01b81526001600160a01b03909116906323b872dd906111b69033903090869060040161501a565b6020604051808303816000875af11580156111d5573d6000803e3d6000fd5b505050506040513d601f19601f820116820180604052508101906111f9919061503e565b6112155760405162461bcd60e51b815260040161090590615090565b600082815261013c60205260409081902082905551339083907ff1ef9d9055e5a9192a5488e9dd709dadc6c9bd4d4877c741affa6062dc198bcd9061125d9085815260200190565b60405180910390a361126f600160c955565b5050565b6001600160a01b037f00000000000000000000000000000000000000000000000000000000000000001630036112bb5760405162461bcd60e51b8152600401610905906150bf565b7f00000000000000000000000000000000000000000000000000000000000000006001600160a01b03166113046000805160206152df833981519152546001600160a01b031690565b6001600160a01b03161461132a5760405162461bcd60e51b81526004016109059061510b565b61133381613d00565b6040805160008082526020820190925261134f91839190613d08565b50565b61135a613c00565b600085815261013a602052604090205460ff16156113b45760405162461bcd60e51b815260206004820152601760248201527610dbdb5b5a5d1b595b9d08185b1c9958591e481d5cd959604a1b6044820152606401610905565b600084815261013b602052604090205460ff161561140d5760405162461bcd60e51b8152602060048201526016602482015275139d5b1b1a599a595c88185b1c9958591e481d5cd95960521b6044820152606401610905565b6000811161142d5760405162461bcd60e51b815260040161090590615059565b600085815261013c602052604090205481111561148c5760405162461bcd60e51b815260206004820152601960248201527f496e73756666696369656e74206c6f636b65642066756e6473000000000000006044820152606401610905565b82356114d25760405162461bcd60e51b815260206004820152601560248201527424b73b30b634b210383934bb30b1bc90383937b7b360591b6044820152606401610905565b600085815261013a602090815260408083208054600160ff19918216811790925588855261013b84528285208054909116909117905587835261013c9091528120805483929061152390849061516d565b909155505061012d5460405163a9059cbb60e01b81526001600160a01b038481166004830152602482018490529091169063a9059cbb906044016020604051808303816000875af115801561157c573d6000803e3d6000fd5b505050506040513d601f19601f820116820180604052508101906115a0919061503e565b6115bc5760405162461bcd60e51b815260040161090590615090565b816001600160a01b0316857fad95e3a13f6301c0e68af2c8b2770ae3a0eaa559414f2d14c195b1520d7b93b6836040516115f891815260200190565b60405180910390a361160a600160c955565b5050505050565b611619613ca6565b611621613e73565b565b80518082016020908101805161013082529282019190930120915280546001820154600283015460038401546004850180546001600160a01b039586169694909516949293919261167390614edb565b80601f016020809104026020016040519081016040528092919081815260200182805461169f90614edb565b80156116ec5780601f106116c1576101008083540402835291602001916116ec565b820191906000526020600020905b8154815290600101906020018083116116cf57829003601f168201915b50505050509080600501805461170190614edb565b80601f016020809104026020016040519081016040528092919081815260200182805461172d90614edb565b801561177a5780601f1061174f5761010080835404028352916020019161177a565b820191906000526020600020905b81548152906001019060200180831161175d57829003601f168201915b50505050600683015460079093015491929160ff16905088565b600054610100900460ff16158080156117b45750600054600160ff909116105b806117ce5750303b1580156117ce575060005460ff166001145b6118315760405162461bcd60e51b815260206004820152602e60248201527f496e697469616c697a61626c653a20636f6e747261637420697320616c72656160448201526d191e481a5b9a5d1a585b1a5e995960921b6064820152608401610905565b6000805460ff191660011790558015611854576000805461ff0019166101001790555b61185c613ec5565b611864613ef4565b61186c613f1b565b611874613f4a565b61012d80546001600160a01b038086166001600160a01b03199283161790925561012e805492851692909116919091179055600a6101358190556032610136556005610137556101386020527fb0eddd8865910728a90337cb025204a1a4e1d4c254f617ee98edd09c6b3128b3805460ff1990811660019081179092557fba50dbf7b719e19123c26c182131be0654f15444227ba200bf09a26e360116d580548216831790557f27c4c61f178cbbb1b3a519f3a1c73b5fa21db66959c2a892c57e8075fe4a01af80548216831790556000929092527fb17d379a93820a1db6a6e78f234d680ec749598042e44d33f756356d9e94cea4805490921617905580156119b8576000805461ff0019169055604051600181527f7f26b83ff96e1f2b6a682f133852f6798a09c465da95921460cefb38474024989060200160405180910390a15b505050565b6001600160a01b037f0000000000000000000000000000000000000000000000000000000000000000163003611a055760405162461bcd60e51b8152600401610905906150bf565b7f00000000000000000000000000000000000000000000000000000000000000006001600160a01b0316611a4e6000805160206152df833981519152546001600160a01b031690565b6001600160a01b031614611a745760405162461bcd60e51b81526004016109059061510b565b611a7d82613d00565b61126f82826001613d08565b611ae560405180610100016040528060006001600160a01b0316815260200160006001600160a01b0316815260200160008152602001600081526020016000815260200160001515815260200160008152602001606081525090565b6101318383604051611af8929190614d03565b9081526040805191829003602090810183206101008401835280546001600160a01b039081168552600182015416918401919091526002810154918301919091526003810154606083015260048101546080830152600581015460ff16151560a0830152600681015460c083015260078101805460e084019190611b7b90614edb565b80601f0160208091040260200160405190810160405280929190818152602001828054611ba790614edb565b8015611bf45780601f10611bc957610100808354040283529160200191611bf4565b820191906000526020600020905b815481529060010190602001808311611bd757829003601f168201915b50505050508152505090505b92915050565b6000306001600160a01b037f00000000000000000000000000000000000000000000000000000000000000001614611ca65760405162461bcd60e51b815260206004820152603860248201527f555550535570677261646561626c653a206d757374206e6f742062652063616c60448201527f6c6564207468726f7567682064656c656761746563616c6c00000000000000006064820152608401610905565b506000805160206152df83398151915290565b611cc1613ca6565b6064811115611ce25760405162461bcd60e51b815260040161090590615180565b61013655565b611cf0613c00565b600081815261013c602052604090205480611d3f5760405162461bcd60e51b815260206004820152600f60248201526e4e6f206c6f636b65642066756e647360881b6044820152606401610905565b600082815261013a602052604090205460ff1615611d995760405162461bcd60e51b815260206004820152601760248201527610dbdb5b5a5d1b595b9d08185b1c9958591e481d5cd959604a1b6044820152606401610905565b600082815261013c60205260408082209190915561012d54905163a9059cbb60e01b8152336004820152602481018390526001600160a01b039091169063a9059cbb906044016020604051808303816000875af1158015611dfe573d6000803e3d6000fd5b505050506040513d601f19601f82011682018060405250810190611e22919061503e565b611e3e5760405162461bcd60e51b815260040161090590615090565b604051818152339083907f832547f4270ea70d5504358fcf8ea362c49cc939e7de847299469d7301c46fe89060200160405180910390a35061134f600160c955565b611e88613ca6565b6116216000613f79565b611e9a613c00565b60008611611eba5760405162461bcd60e51b815260040161090590615059565b6000858152610138602052604090205460ff16611f0f5760405162461bcd60e51b815260206004820152601360248201527210da185a5b881b9bdd081cdd5c1c1bdc9d1959606a1b6044820152606401610905565b80611f525760405162461bcd60e51b815260206004820152601360248201527214185e5b595b9d081251081c995c5d5a5c9959606a1b6044820152606401610905565b6101308282604051611f65929190614d03565b908152602001604051809103902060060154600014611fc25760405162461bcd60e51b81526020600482015260196024820152785061796d656e7420494420616c72656164792065786973747360381b6044820152606401610905565b60006127106101365488611fd691906151a7565b611fe091906151be565b90506000611fee82896151e0565b61012d546040516370a0823160e01b815233600482015291925082916001600160a01b03909116906370a0823190602401602060405180830381865afa15801561203c573d6000803e3d6000fd5b505050506040513d601f19601f820116820180604052508101906120609190614e64565b101561207e5760405162461bcd60e51b815260040161090590614e7d565b604051806101000160405280336001600160a01b031681526020018a6001600160a01b0316815260200189815260200188815260200187878080601f016020809104026020016040519081016040528093929190818152602001838380828437600092019190915250505090825250604080516020601f880181900481028201810190925286815291810191908790879081908401838280828437600092018290525093855250504260208401525060409182015251610130906121459087908790614d03565b9081526040805160209281900383019020835181546001600160a01b03199081166001600160a01b0392831617835593850151600183018054909516911617909255820151600282015560608201516003820155608082015160048201906121ad9082614f5c565b5060a082015160058201906121c29082614f5c565b5060c0820151600682015560e082015160078201805460ff191660018360038111156121f0576121f06146b2565b02179055505061012d546040516323b872dd60e01b81526001600160a01b0390911691506323b872dd9061222c9033903090869060040161501a565b6020604051808303816000875af115801561224b573d6000803e3d6000fd5b505050506040513d601f19601f8201168201806040525081019061226f919061503e565b5060405133906122829086908690614d03565b604080519182900382208a8352602083018c9052917f7b633a74e5ab6305143d771d3838a6608ab387ec0b4022c99dae53006f7a844e910160405180910390a350506122ce600160c955565b50505050505050565b805160208183018101805161013182529282019190930120915280546001820154600283015460038401546004850154600586015460068701546007880180546001600160a01b0398891699989097169795969495939460ff90931693919261233f90614edb565b80601f016020809104026020016040519081016040528092919081815260200182805461236b90614edb565b80156123b85780601f1061238d576101008083540402835291602001916123b8565b820191906000526020600020905b81548152906001019060200180831161239b57829003601f168201915b5050505050905088565b600061012f83836040516123d7929190614d03565b90815260200160405180910390209050600081600501541161240b5760405162461bcd60e51b8152600401610905906151f3565b6000600682015460ff166003811115612426576124266146b2565b146124435760405162461bcd60e51b81526004016109059061521e565b80546001600160a01b031633146124915760405162461bcd60e51b81526020600482015260126024820152712737ba103830bcb6b2b73a1039b2b73232b960711b6044820152606401610905565b60068101805460ff191660031790556040516124b09084908490614d03565b60405180910390207fea739d6e84a593df9f8e19da7ee138458536a373707ce41f6d146d5a9cde513860405161250d9060208082526013908201527221b0b731b2b63632b210313c9039b2b73232b960691b604082015260600190565b60405180910390a2505050565b612522613ca6565b611621613fcb565b612532613ca6565b60006101308585604051612547929190614d03565b90815260200160405180910390209050600081600601541161257b5760405162461bcd60e51b8152600401610905906151f3565b6000600782015460ff166003811115612596576125966146b2565b146125b35760405162461bcd60e51b81526004016109059061521e565b816126005760405162461bcd60e51b815260206004820152601960248201527f496e76616c69642063726f73732d636861696e2070726f6f66000000000000006044820152606401610905565b60078101805460ff1916600290811790915581015461013480546000906126289084906151e0565b909155505060405161263d9086908690614d03565b604051908190038120428252907ff2799df8f07d82572153ddc873038cfdc34fca0154545237f55585cc98cdcf789060200160405180910390a25050505050565b612686614348565b6101308383604051612699929190614d03565b9081526040805191829003602090810183206101008401835280546001600160a01b03908116855260018201541691840191909152600281015491830191909152600381015460608301526004810180546080840191906126f990614edb565b80601f016020809104026020016040519081016040528092919081815260200182805461272590614edb565b80156127725780601f1061274757610100808354040283529160200191612772565b820191906000526020600020905b81548152906001019060200180831161275557829003601f168201915b5050505050815260200160058201805461278b90614edb565b80601f01602080910402602001604051908101604052809291908181526020018280546127b790614edb565b80156128045780601f106127d957610100808354040283529160200191612804565b820191906000526020600020905b8154815290600101906020018083116127e757829003601f168201915b505050918352505060068201546020820152600782015460409091019060ff166003811115612835576128356146b2565b6003811115612846576128466146b2565b9052509392505050565b612858613c00565b612860613c59565b60006101318989604051612875929190614d03565b9081526020016040518091039020905060008160060154116128cd5760405162461bcd60e51b815260206004820152601160248201527010da185b9b995b081b9bdd08199bdd5b99607a1b6044820152606401610905565b600581015460ff166129165760405162461bcd60e51b81526020600482015260126024820152714368616e6e656c206e6f742061637469766560701b6044820152606401610905565b80546001600160a01b031633148061293a575060018101546001600160a01b031633145b6129865760405162461bcd60e51b815260206004820152601760248201527f4e6f74206368616e6e656c207061727469636970616e740000000000000000006044820152606401610905565b600481015461299587896151e0565b11156129e35760405162461bcd60e51b815260206004820152601c60248201527f496e76616c69642062616c616e636520646973747269627574696f6e000000006044820152606401610905565b8060040154871115612a375760405162461bcd60e51b815260206004820152601e60248201527f42616c616e636531206578636565647320746f74616c206465706f73697400006044820152606401610905565b8060040154861115612a8b5760405162461bcd60e51b815260206004820152601e60248201527f42616c616e636532206578636565647320746f74616c206465706f73697400006044820152606401610905565b612a9b8989898989898989614008565b612adc5760405162461bcd60e51b8152602060048201526012602482015271496e76616c6964207369676e61747572657360701b6044820152606401610905565b6000612710610137548360040154612af491906151a7565b612afe91906151be565b90506000612b0c888a6151e0565b6004840154909150612b1e83836151e0565b1115612b815760405162461bcd60e51b815260206004820152602c60248201527f496e73756666696369656e742066756e647320666f722064697374726962757460448201526b696f6e20616e64206665657360a01b6064820152608401610905565b8815612c4c5761012d54835460405163a9059cbb60e01b81526001600160a01b039182166004820152602481018c905291169063a9059cbb906044016020604051808303816000875af1158015612bdc573d6000803e3d6000fd5b505050506040513d601f19601f82011682018060405250810190612c00919061503e565b612c4c5760405162461bcd60e51b815260206004820152601f60248201527f5472616e7366657220746f207061727469636970616e7431206661696c6564006044820152606401610905565b8715612d1a5761012d54600184015460405163a9059cbb60e01b81526001600160a01b039182166004820152602481018b905291169063a9059cbb906044016020604051808303816000875af1158015612caa573d6000803e3d6000fd5b505050506040513d601f19601f82011682018060405250810190612cce919061503e565b612d1a5760405162461bcd60e51b815260206004820152601f60248201527f5472616e7366657220746f207061727469636970616e7432206661696c6564006044820152606401610905565b60058301805460ff191690556002830189905560038301889055604051612d44908c908c90614d03565b604080519182900382208b8352602083018b9052917ff99f0eb243f937711c5d87f21420229c0a7f2f1b40e5795c3b18e73f52ae0da4910160405180910390a2505050612d91600160c955565b5050505050505050565b612da3613c00565b612dab613c59565b600061012f8383604051612dc0929190614d03565b908152602001604051809103902090506000816005015411612df45760405162461bcd60e51b8152600401610905906151f3565b6000600682015460ff166003811115612e0f57612e0f6146b2565b14612e2c5760405162461bcd60e51b81526004016109059061521e565b60018101546001600160a01b03163314612e805760405162461bcd60e51b8152602060048201526015602482015274139bdd081c185e5b595b9d081c9958da5c1a595b9d605a1b6044820152606401610905565b6005810154612e9290620151806151e0565b421115612ed35760405162461bcd60e51b815260206004820152600f60248201526e14185e5b595b9d08195e1c1a5c9959608a1b6044820152606401610905565b6000612710610135548360020154612eeb91906151a7565b612ef591906151be565b90506000818360020154612f0991906151e0565b61012d5484546040516370a0823160e01b81526001600160a01b03918216600482015292935083929116906370a0823190602401602060405180830381865afa158015612f5a573d6000803e3d6000fd5b505050506040513d601f19601f82011682018060405250810190612f7e9190614e64565b1015612f9c5760405162461bcd60e51b815260040161090590614e7d565b61012d548354604051636eb1769f60e11b81526001600160a01b0391821660048201523060248201528392919091169063dd62ed3e90604401602060405180830381865afa158015612ff2573d6000803e3d6000fd5b505050506040513d601f19601f820116820180604052508101906130169190614e64565b10156130345760405162461bcd60e51b815260040161090590614eab565b61012d548354600185015460028601546040516323b872dd60e01b81526001600160a01b03948516946323b872dd94613076949082169391169160040161501a565b6020604051808303816000875af1158015613095573d6000803e3d6000fd5b505050506040513d601f19601f820116820180604052508101906130b9919061503e565b6131055760405162461bcd60e51b815260206004820152601c60248201527f5472616e7366657220746f20726563697069656e74206661696c6564000000006044820152606401610905565b81156131c85761012d5483546040516323b872dd60e01b81526001600160a01b03928316926323b872dd92613143929116903090879060040161501a565b6020604051808303816000875af1158015613162573d6000803e3d6000fd5b505050506040513d601f19601f82011682018060405250810190613186919061503e565b6131c85760405162461bcd60e51b8152602060048201526013602482015272151c985b9cd9995c881999594819985a5b1959606a1b6044820152606401610905565b60068301805460ff19166001179055600283015461013380546000906131ef9084906151e0565b90915550506040516132049086908690614d03565b604051908190038120428252907f250cbee58b321813116d5b3523c84b813eaa55482958e914517b1ddfbbeea62a9060200160405180910390a250505061126f600160c955565b613253613ca6565b60648111156132745760405162461bcd60e51b815260040161090590615180565b61013755565b613282613c00565b61328a613c59565b600087116132aa5760405162461bcd60e51b815260040161090590615059565b846132ed5760405162461bcd60e51b815260206004820152601360248201527214185e5b595b9d081251081c995c5d5a5c9959606a1b6044820152606401610905565b61012f8686604051613300929190614d03565b90815260200160405180910390206005015460001461335d5760405162461bcd60e51b81526020600482015260196024820152785061796d656e7420494420616c72656164792065786973747360381b6044820152606401610905565b61012e5460405163fb3551ff60e01b81523360048201526001600160a01b039091169063fb3551ff90602401600060405180830381865afa1580156133a6573d6000803e3d6000fd5b505050506040513d6000823e601f3d908101601f191682016040526133ce9190810190614d68565b606001516134165760405162461bcd60e51b815260206004820152601560248201527414d95b99195c881b9bdd081c9959da5cdd195c9959605a1b6044820152606401610905565b61012e5460405163fb3551ff60e01b81526001600160a01b038a811660048301529091169063fb3551ff90602401600060405180830381865afa158015613461573d6000803e3d6000fd5b505050506040513d6000823e601f3d908101601f191682016040526134899190810190614d68565b606001516134d95760405162461bcd60e51b815260206004820152601860248201527f526563697069656e74206e6f74207265676973746572656400000000000000006044820152606401610905565b600061271061013554896134ed91906151a7565b6134f791906151be565b90506000613505828a6151e0565b61012d546040516370a0823160e01b815233600482015291925082916001600160a01b03909116906370a0823190602401602060405180830381865afa158015613553573d6000803e3d6000fd5b505050506040513d601f19601f820116820180604052508101906135779190614e64565b10156135955760405162461bcd60e51b815260040161090590614e7d565b604051806101000160405280336001600160a01b031681526020018b6001600160a01b031681526020018a815260200189898080601f016020809104026020016040519081016040528093929190818152602001838380828437600092019190915250505090825250604080516020601f8a01819004810282018101909252888152918101919089908990819084018382808284376000920182905250938552505042602084015250604090910190815260200185858080601f016020809104026020016040519081016040528093929190818152602001838380828437600092019190915250505091525060405161012f90613695908b908b90614d03565b9081526040805160209281900383019020835181546001600160a01b03199081166001600160a01b03928316178355938501516001830180549095169116179092558201516002820155606082015160038201906136f39082614f5c565b50608082015160048201906137089082614f5c565b5060a0820151600582015560c082015160068201805460ff19166001836003811115613736576137366146b2565b021790555060e0820151600782019061374f9082614f5c565b50506101328054915060006137638361524b565b9190505550896001600160a01b0316336001600160a01b0316898960405161378c929190614d03565b6040519081900381208c8252907fbe4986a9bd373a948cdab028597798301db44855e3ce37ed3f167a97b2ff00c39060200160405180910390a45050612d91600160c955565b6137da613ca6565b60648111156137fb5760405162461bcd60e51b815260040161090590615180565b61013555565b61384860408051610100810182526000808252602082018190529181018290526060808201819052608082015260a081018290529060c08201908152602001606081525090565b61012f838360405161385b929190614d03565b9081526040805191829003602090810183206101008401835280546001600160a01b039081168552600182015416918401919091526002810154918301919091526003810180546060840191906138b190614edb565b80601f01602080910402602001604051908101604052809291908181526020018280546138dd90614edb565b801561392a5780601f106138ff5761010080835404028352916020019161392a565b820191906000526020600020905b81548152906001019060200180831161390d57829003601f168201915b5050505050815260200160048201805461394390614edb565b80601f016020809104026020016040519081016040528092919081815260200182805461396f90614edb565b80156139bc5780601f10613991576101008083540402835291602001916139bc565b820191906000526020600020905b81548152906001019060200180831161399f57829003601f168201915b505050918352505060058201546020820152600682015460409091019060ff1660038111156139ed576139ed6146b2565b60038111156139fe576139fe6146b2565b8152602001600782018054611b7b90614edb565b613a1a613ca6565b6001600160a01b038116613a7f5760405162461bcd60e51b815260206004820152602660248201527f4f776e61626c653a206e6577206f776e657220697320746865207a65726f206160448201526564647265737360d01b6064820152608401610905565b61134f81613f79565b805160208183018101805161012f8252928201919093012091528054600182015460028301546003840180546001600160a01b039485169594909316939192613ad090614edb565b80601f0160208091040260200160405190810160405280929190818152602001828054613afc90614edb565b8015613b495780601f10613b1e57610100808354040283529160200191613b49565b820191906000526020600020905b815481529060010190602001808311613b2c57829003601f168201915b505050505090806004018054613b5e90614edb565b80601f0160208091040260200160405190810160405280929190818152602001828054613b8a90614edb565b8015613bd75780601f10613bac57610100808354040283529160200191613bd7565b820191906000526020600020905b815481529060010190602001808311613bba57829003601f168201915b50505050600583015460068401546007850180549495929460ff90921693509061233f90614edb565b600260c95403613c525760405162461bcd60e51b815260206004820152601f60248201527f5265656e7472616e637947756172643a207265656e7472616e742063616c6c006044820152606401610905565b600260c955565b60fb5460ff16156116215760405162461bcd60e51b815260206004820152601060248201526f14185d5cd8589b194e881c185d5cd95960821b6044820152606401610905565b600160c955565b6097546001600160a01b031633146116215760405162461bcd60e51b815260206004820181905260248201527f4f776e61626c653a2063616c6c6572206973206e6f7420746865206f776e65726044820152606401610905565b61134f613ca6565b7f4910fdfa16fed3260ed0e7147f7cc6da11a60208b5b9406d12a635614ffd91435460ff1615613d3b576119b883614025565b826001600160a01b03166352d1902d6040518163ffffffff1660e01b8152600401602060405180830381865afa925050508015613d95575060408051601f3d908101601f19168201909252613d9291810190614e64565b60015b613df85760405162461bcd60e51b815260206004820152602e60248201527f45524331393637557067726164653a206e657720696d706c656d656e7461746960448201526d6f6e206973206e6f74205555505360901b6064820152608401610905565b6000805160206152df8339815191528114613e675760405162461bcd60e51b815260206004820152602960248201527f45524331393637557067726164653a20756e737570706f727465642070726f786044820152681a58589b195555525160ba1b6064820152608401610905565b506119b88383836140c1565b613e7b6140e6565b60fb805460ff191690557f5db9ee0a495bf2e6ff9c91a7834c1ba4fdd244a5e8aa4e537bd38aeae4b073aa335b6040516001600160a01b03909116815260200160405180910390a1565b600054610100900460ff16613eec5760405162461bcd60e51b815260040161090590615264565b61162161412f565b600054610100900460ff166116215760405162461bcd60e51b815260040161090590615264565b600054610100900460ff16613f425760405162461bcd60e51b815260040161090590615264565b61162161415f565b600054610100900460ff16613f715760405162461bcd60e51b815260040161090590615264565b611621614186565b609780546001600160a01b038381166001600160a01b0319831681179093556040519116919082907f8be0079c531659141344cd1fd0a4f28419497f9722a3daafe3b4186f6b6457e090600090a35050565b613fd3613c59565b60fb805460ff191660011790557f62e78cea01bee320cd4e420270b5ea74000d11b0c9f74754ebdbfc544b05a258613ea83390565b6000831580159061401857508115155b9998505050505050505050565b6001600160a01b0381163b6140925760405162461bcd60e51b815260206004820152602d60248201527f455243313936373a206e657720696d706c656d656e746174696f6e206973206e60448201526c1bdd08184818dbdb9d1c9858dd609a1b6064820152608401610905565b6000805160206152df83398151915280546001600160a01b0319166001600160a01b0392909216919091179055565b6140ca836141b9565b6000825111806140d75750805b156119b857610f5183836141f9565b60fb5460ff166116215760405162461bcd60e51b815260206004820152601460248201527314185d5cd8589b194e881b9bdd081c185d5cd95960621b6044820152606401610905565b600054610100900460ff166141565760405162461bcd60e51b815260040161090590615264565b61162133613f79565b600054610100900460ff16613c9f5760405162461bcd60e51b815260040161090590615264565b600054610100900460ff166141ad5760405162461bcd60e51b815260040161090590615264565b60fb805460ff19169055565b6141c281614025565b6040516001600160a01b038216907fbc7cd75a20ee27fd9adebab32041f755214dbc6bffa90cc0225b39da2e5c2d3b90600090a250565b606061421e83836040518060600160405280602781526020016152ff60279139614225565b9392505050565b6060600080856001600160a01b03168560405161424291906152af565b600060405180830381855af49150503d806000811461427d576040519150601f19603f3d011682016040523d82523d6000602084013e614282565b606091505b50915091506142938683838761429d565b9695505050505050565b6060831561430c578251600003614305576001600160a01b0385163b6143055760405162461bcd60e51b815260206004820152601d60248201527f416464726573733a2063616c6c20746f206e6f6e2d636f6e74726163740000006044820152606401610905565b5081614316565b614316838361431e565b949350505050565b81511561432e5781518083602001fd5b8060405162461bcd60e51b815260040161090591906152cb565b60405180610100016040528060006001600160a01b0316815260200160006001600160a01b031681526020016000815260200160008152602001606081526020016060815260200160008152602001600060038111156143aa576143aa6146b2565b905290565b80356001600160a01b03811681146143c657600080fd5b919050565b60008083601f8401126143dd57600080fd5b5081356001600160401b038111156143f457600080fd5b60208301915083602082850101111561440c57600080fd5b9250929050565b6000806000806060858703121561442957600080fd5b614432856143af565b93506020850135925060408501356001600160401b0381111561445457600080fd5b614460878288016143cb565b95989497509550505050565b60006020828403121561447e57600080fd5b5035919050565b6000806040838503121561449857600080fd5b823591506144a8602084016143af565b90509250929050565b600080604083850312156144c457600080fd5b50508035926020909101359150565b6000602082840312156144e557600080fd5b61421e826143af565b6000806000806000610180868803121561450757600080fd5b853594506020860135935061014086018781111561452457600080fd5b604087019350614533816143af565b9598949750929561016001359392505050565b634e487b7160e01b600052604160045260246000fd5b60405161014081016001600160401b038111828210171561457f5761457f614546565b60405290565b604051601f8201601f191681016001600160401b03811182821017156145ad576145ad614546565b604052919050565b60006001600160401b038211156145ce576145ce614546565b50601f01601f191660200190565b60006145ef6145ea846145b5565b614585565b905082815283838301111561460357600080fd5b828260208301376000602084830101529392505050565b60006020828403121561462c57600080fd5b81356001600160401b0381111561464257600080fd5b8201601f8101841361465357600080fd5b614316848235602084016145dc565b60005b8381101561467d578181015183820152602001614665565b50506000910152565b6000815180845261469e816020860160208601614662565b601f01601f19169290920160200192915050565b634e487b7160e01b600052602160045260246000fd5b6004811061134f57634e487b7160e01b600052602160045260246000fd5b6146ef816146c8565b9052565b6001600160a01b0389811682528816602082015260408101879052606081018690526101006080820181905260009061472e90830187614686565b82810360a08401526147408187614686565b9150508360c0830152614752836146c8565b8260e08301529998505050505050505050565b6000806040838503121561477857600080fd5b614781836143af565b91506144a8602084016143af565b600080604083850312156147a257600080fd5b6147ab836143af565b915060208301356001600160401b038111156147c657600080fd5b8301601f810185136147d757600080fd5b6147e6858235602084016145dc565b9150509250929050565b6000806020838503121561480357600080fd5b82356001600160401b0381111561481957600080fd5b614825858286016143cb565b90969095509350505050565b6020815260018060a01b03825116602082015260018060a01b0360208301511660408201526040820151606082015260608201516080820152608082015160a0820152600060a083015161488960c084018215159052565b5060c083015160e083015260e083015161010080840152614316610120840182614686565b600080600080600080600060a0888a0312156148c957600080fd5b6148d2886143af565b9650602088013595506040880135945060608801356001600160401b038111156148fb57600080fd5b6149078a828b016143cb565b90955093505060808801356001600160401b0381111561492657600080fd5b6149328a828b016143cb565b989b979a50959850939692959293505050565b6001600160a01b0389811682528816602082015260408101879052606081018690526080810185905283151560a082015260c0810183905261010060e0820181905260009061499690830184614686565b9a9950505050505050505050565b600080600080604085870312156149ba57600080fd5b84356001600160401b038111156149d057600080fd5b6149dc878288016143cb565b90955093505060208501356001600160401b0381111561445457600080fd5b602080825282516001600160a01b031682820152820151600090614a2a60408401826001600160a01b03169052565b506040830151606083015260608301516080830152608083015161010060a0840152614a5a610120840182614686565b905060a0840151601f198483030160c0850152614a778282614686565b91505060c084015160e084015260e0840151614a976101008501826146e6565b509392505050565b60008060008060008060008060a0898b031215614abb57600080fd5b88356001600160401b03811115614ad157600080fd5b614add8b828c016143cb565b909950975050602089013595506040890135945060608901356001600160401b03811115614b0a57600080fd5b614b168b828c016143cb565b90955093505060808901356001600160401b03811115614b3557600080fd5b614b418b828c016143cb565b999c989b5096995094979396929594505050565b60008060008060008060008060a0898b031215614b7157600080fd5b614b7a896143af565b97506020890135965060408901356001600160401b03811115614b9c57600080fd5b614ba88b828c016143cb565b90975095505060608901356001600160401b03811115614b0a57600080fd5b60208152614be16020820183516001600160a01b03169052565b60006020830151614bfd60408401826001600160a01b03169052565b506040830151606083015260608301516101006080840152614c23610120840182614686565b90506080840151601f198483030160a0850152614c408282614686565b91505060a084015160c084015260c0840151614c5f60e08501826146e6565b5060e0840151838203601f1901610100850152614c7c8282614686565b95945050505050565b6001600160a01b038981168252881660208201526040810187905261010060608201819052600090614cb990830188614686565b8281036080840152614ccb8188614686565b90508560a0840152614cdc856146c8565b8460c084015282810360e0840152614cf48185614686565b9b9a5050505050505050505050565b8183823760009101908152919050565b600082601f830112614d2457600080fd5b8151614d326145ea826145b5565b818152846020838601011115614d4757600080fd5b614316826020830160208701614662565b805180151581146143c657600080fd5b600060208284031215614d7a57600080fd5b81516001600160401b03811115614d9057600080fd5b82016101408185031215614da357600080fd5b614dab61455c565b81516001600160401b03811115614dc157600080fd5b614dcd86828501614d13565b82525060208201516001600160401b03811115614de957600080fd5b614df586828501614d13565b60208301525060408281015190820152614e1160608301614d58565b60608201526080828101519082015260a0808301519082015260c0808301519082015260e080830151908201526101008083015190820152614e566101208301614d58565b610120820152949350505050565b600060208284031215614e7657600080fd5b5051919050565b602080825260149082015273496e73756666696369656e742062616c616e636560601b604082015260600190565b602080825260169082015275496e73756666696369656e7420616c6c6f77616e636560501b604082015260600190565b600181811c90821680614eef57607f821691505b602082108103614f0f57634e487b7160e01b600052602260045260246000fd5b50919050565b601f8211156119b857806000526020600020601f840160051c81016020851015614f3c5750805b601f840160051c820191505b8181101561160a5760008155600101614f48565b81516001600160401b03811115614f7557614f75614546565b614f8981614f838454614edb565b84614f15565b6020601f821160018114614fbd5760008315614fa55750848201515b600019600385901b1c1916600184901b17845561160a565b600084815260208120601f198516915b82811015614fed5787850151825560209485019460019092019101614fcd565b508482101561500b5786840151600019600387901b60f8161c191681555b50505050600190811b01905550565b6001600160a01b039384168152919092166020820152604081019190915260600190565b60006020828403121561505057600080fd5b61421e82614d58565b6020808252601d908201527f416d6f756e74206d7573742062652067726561746572207468616e2030000000604082015260600190565b602080825260159082015274151bdad95b881d1c985b9cd9995c8819985a5b1959605a1b604082015260600190565b6020808252602c908201527f46756e6374696f6e206d7573742062652063616c6c6564207468726f7567682060408201526b19195b1959d85d1958d85b1b60a21b606082015260800190565b6020808252602c908201527f46756e6374696f6e206d7573742062652063616c6c6564207468726f7567682060408201526b6163746976652070726f787960a01b606082015260800190565b634e487b7160e01b600052601160045260246000fd5b81810381811115611c0057611c00615157565b6020808252600d908201526c0a4c2e8ca40e8dede40d0d2ced609b1b604082015260600190565b8082028115828204841417611c0057611c00615157565b6000826151db57634e487b7160e01b600052601260045260246000fd5b500490565b80820180821115611c0057611c00615157565b60208082526011908201527014185e5b595b9d081b9bdd08199bdd5b99607a1b604082015260600190565b6020808252601390820152725061796d656e74206e6f742070656e64696e6760681b604082015260600190565b60006001820161525d5761525d615157565b5060010190565b6020808252602b908201527f496e697469616c697a61626c653a20636f6e7472616374206973206e6f74206960408201526a6e697469616c697a696e6760a81b606082015260800190565b600082516152c1818460208701614662565b9190910192915050565b60208152600061421e602083018461468656fe360894a13ba1a3210667c828492db98dca3e2076cc3735a920a3ca505d382bbc416464726573733a206c6f772d6c6576656c2064656c65676174652063616c6c206661696c6564a26469706673582212206b9ed221357431ffcb9de0c89afbac8858f24dc57570247eb90ffeda8bbcff9e64736f6c634300081e0033",
  "linkReferences": {},
  "deployedLinkReferences": {}
}