{
  "_format": "hh-sol-artifact-1",
  "contractName": "DIAPPayment",
  "sourceName": "contracts/DIAPPayment.sol",
  "abi": [
    {
      "anonymous": false,
      "inputs": [
        {
          "indexed": false,
          "internalType": "address",
          "name": "previousAdmin",
          "type": "address"
        },
        {
          "indexed": false,
          "internalType": "address",
          "name": "newAdmin",
          "type": "address"
        }
      ],
      "name": "AdminChanged",
      "type": "event"
    },
    {
      "anonymous": false,
      "inputs": [
        {
          "indexed": true,
          "internalType": "address",
          "name": "beacon",
          "type": "address"
        }
      ],
      "name": "BeaconUpgraded",
      "type": "event"
    },
    {
      "anonymous": false,
      "inputs": [
        {
          "indexed": true,
          "internalType": "string",
          "name": "paymentId",
          "type": "string"
        },
        {
          "indexed": false,
          "internalType": "uint256",
          "name": "timestamp",
          "type": "uint256"
        }
      ],
      "name": "CrossChainPaymentCompleted",
      "type": "event"
    },
    {
      "anonymous": false,
      "inputs": [
        {
          "indexed": true,
          "internalType": "string",
          "name": "paymentId",
          "type": "string"
        },
        {
          "indexed": true,
          "internalType": "address",
          "name": "from",
          "type": "address"
        },
        {
          "indexed": false,
          "internalType": "uint256",
          "name": "targetChainId",
          "type": "uint256"
        },
        {
          "indexed": false,
          "internalType": "uint256",
          "name": "amount",
          "type": "uint256"
        }
      ],
      "name": "CrossChainPaymentInitiated",
      "type": "event"
    },
    {
      "anonymous": false,
      "inputs": [
        {
          "indexed": true,
          "internalType": "bytes32",
          "name": "commitment",
          "type": "bytes32"
        },
        {
          "indexed": false,
          "internalType": "uint256",
          "name": "amount",
          "type": "uint256"
        },
        {
          "indexed": true,
          "internalType": "address",
          "name": "locker",
          "type": "address"
        }
      ],
      "name": "FundsLocked",
      "type": "event"
    },
    {
      "anonymous": false,
      "inputs": [
        {
          "indexed": true,
          "internalType": "bytes32",
          "name": "commitment",
          "type": "bytes32"
        },
        {
          "indexed": false,
          "internalType": "uint256",
          "name": "amount",
          "type": "uint256"
        },
        {
          "indexed": true,
          "internalType": "address",
          "name": "withdrawer",
          "type": "address"
        }
      ],
      "name": "FundsWithdrawn",
      "type": "event"
    },
    {
      "anonymous": false,
      "inputs": [
        {
          "indexed": false,
          "internalType": "uint8",
          "name": "version",
          "type": "uint8"
        }
      ],
      "name": "Initialized",
      "type": "event"
    },
    {
      "anonymous": false,
      "inputs": [
        {
          "indexed": true,
          "internalType": "address",
          "name": "previousOwner",
          "type": "address"
        },
        {
          "indexed": true,
          "internalType": "address",
          "name": "newOwner",
          "type": "address"
        }
      ],
      "name": "OwnershipTransferred",
      "type": "event"
    },
    {
      "anonymous": false,
      "inputs": [
        {
          "indexed": false,
          "internalType": "address",
          "name": "account",
          "type": "address"
        }
      ],
      "name": "Paused",
      "type": "event"
    },
    {
      "anonymous": false,
      "inputs": [
        {
          "indexed": true,
          "internalType": "string",
          "name": "channelId",
          "type": "string"
        },
        {
          "indexed": false,
          "internalType": "uint256",
          "name": "finalBalance1",
          "type": "uint256"
        },
        {
          "indexed": false,
          "internalType": "uint256",
          "name": "finalBalance2",
          "type": "uint256"
        }
      ],
      "name": "PaymentChannelClosed",
      "type": "event"
    },
    {
      "anonymous": false,
      "inputs": [
        {
          "indexed": true,
          "internalType": "string",
          "name": "channelId",
          "type": "string"
        },
        {
          "indexed": true,
          "internalType": "address",
          "name": "participant1",
          "type": "address"
        },
        {
          "indexed": true,
          "internalType": "address",
          "name": "participant2",
          "type": "address"
        },
        {
          "indexed": false,
          "internalType": "uint256",
          "name": "totalDeposit",
          "type": "uint256"
        }
      ],
      "name": "PaymentChannelOpened",
      "type": "event"
    },
    {
      "anonymous": false,
      "inputs": [
        {
          "indexed": true,
          "internalType": "string",
          "name": "paymentId",
          "type": "string"
        },
        {
          "indexed": false,
          "internalType": "uint256",
          "name": "timestamp",
          "type": "uint256"
        }
      ],
      "name": "PaymentConfirmed",
      "type": "event"
    },
    {
      "anonymous": false,
      "inputs": [
        {
          "indexed": true,
          "internalType": "string",
          "name": "paymentId",
          "type": "string"
        },
        {
          "indexed": true,
          "internalType": "address",
          "name": "from",
          "type": "address"
        },
        {
          "indexed": true,
          "internalType": "address",
          "name": "to",
          "type": "address"
        },
        {
          "indexed": false,
          "internalType": "uint256",
          "name": "amount",
          "type": "uint256"
        }
      ],
      "name": "PaymentCreated",
      "type": "event"
    },
    {
      "anonymous": false,
      "inputs": [
        {
          "indexed": true,
          "internalType": "string",
          "name": "paymentId",
          "type": "string"
        },
        {
          "indexed": false,
          "internalType": "string",
          "name": "reason",
          "type": "string"
        }
      ],
      "name": "PaymentFailed",
      "type": "event"
    },
    {
      "anonymous": false,
      "inputs": [
        {
          "indexed": true,
          "internalType": "bytes32",
          "name": "commitment",
          "type": "bytes32"
        },
        {
          "indexed": true,
          "internalType": "address",
          "name": "to",
          "type": "address"
        },
        {
          "indexed": false,
          "internalType": "uint256",
          "name": "amount",
          "type": "uint256"
        }
      ],
      "name": "PrivacyPaymentExecuted",
      "type": "event"
    },
    {
      "anonymous": false,
      "inputs": [
        {
          "indexed": true,
          "internalType": "uint256",
          "name": "serviceId",
          "type": "uint256"
        },
        {
          "indexed": false,
          "internalType": "uint256",
          "name": "refundAmount",
          "type": "uint256"
        }
      ],
      "name": "ServiceCancelled",
      "type": "event"
    },
    {
      "anonymous": false,
      "inputs": [
        {
          "indexed": true,
          "internalType": "uint256",
          "name": "serviceId",
          "type": "uint256"
        },
        {
          "indexed": true,
          "internalType": "address",
          "name": "provider",
          "type": "address"
        },
        {
          "indexed": false,
          "internalType": "uint256",
          "name": "amount",
          "type": "uint256"
        }
      ],
      "name": "ServiceCompleted",
      "type": "event"
    },
    {
      "anonymous": false,
      "inputs": [
        {
          "indexed": true,
          "internalType": "uint256",
          "name": "serviceId",
          "type": "uint256"
        },
        {
          "indexed": true,
          "internalType": "address",
          "name": "provider",
          "type": "address"
        },
        {
          "indexed": true,
          "internalType": "address",
          "name": "consumer",
          "type": "address"
        },
        {
          "indexed": false,
          "internalType": "uint256",
          "name": "price",
          "type": "uint256"
        }
      ],
      "name": "ServiceCreated",
      "type": "event"
    },
    {
      "anonymous": false,
      "inputs": [
        {
          "indexed": false,
          "internalType": "address",
          "name": "account",
          "type": "address"
        }
      ],
      "name": "Unpaused",
      "type": "event"
    },
    {
      "anonymous": false,
      "inputs": [
        {
          "indexed": true,
          "internalType": "address",
          "name": "implementation",
          "type": "address"
        }
      ],
      "name": "Upgraded",
      "type": "event"
    },
    {
      "inputs": [],
      "name": "CHALLENGE_PERIOD",
      "outputs": [
        {
          "internalType": "uint256",
          "name": "",
          "type": "uint256"
        }
      ],
      "stateMutability": "view",
      "type": "function"
    },
    {
      "inputs": [],
      "name": "CHANNEL_STATE_TYPEHASH",
      "outputs": [
        {
          "internalType": "bytes32",
          "name": "",
          "type": "bytes32"
        }
      ],
      "stateMutability": "view",
      "type": "function"
    },
    {
      "inputs": [],
      "name": "DOMAIN_SEPARATOR",
      "outputs": [
        {
          "internalType": "bytes32",
          "name": "",
          "type": "bytes32"
        }
      ],
      "stateMutability": "view",
      "type": "function"
    },
    {
      "inputs": [],
      "name": "PRIVACY_PAYMENT_TIMEOUT",
      "outputs": [
        {
          "internalType": "uint256",
          "name": "",
          "type": "uint256"
        }
      ],
      "stateMutability": "view",
      "type": "function"
    },
    {
      "inputs": [
        {
          "internalType": "uint256",
          "name": "chainId",
          "type": "uint256"
        },
        {
          "internalType": "address",
          "name": "bridgeContract",
          "type": "address"
        }
      ],
      "name": "addSupportedChain",
      "outputs": [],
      "stateMutability": "nonpayable",
      "type": "function"
    },
    {
      "inputs": [],
      "name": "agentNetwork",
      "outputs": [
        {
          "internalType": "contract DIAPAgentNetwork",
          "name": "",
          "type": "address"
        }
      ],
      "stateMutability": "view",
      "type": "function"
    },
    {
      "inputs": [
        {
          "internalType": "uint256",
          "name": "",
          "type": "uint256"
        }
      ],
      "name": "bridgeContracts",
      "outputs": [
        {
          "internalType": "address",
          "name": "",
          "type": "address"
        }
      ],
      "stateMutability": "view",
      "type": "function"
    },
    {
      "inputs": [
        {
          "internalType": "string",
          "name": "paymentId",
          "type": "string"
        }
      ],
      "name": "cancelPayment",
      "outputs": [],
      "stateMutability": "nonpayable",
      "type": "function"
    },
    {
      "inputs": [
        {
          "internalType": "uint256",
          "name": "serviceId",
          "type": "uint256"
        }
      ],
      "name": "cancelServiceOrder",
      "outputs": [],
      "stateMutability": "nonpayable",
      "type": "function"
    },
    {
      "inputs": [
        {
          "internalType": "string",
          "name": "channelId",
          "type": "string"
        },
        {
          "internalType": "uint256",
          "name": "newBalance1",
          "type": "uint256"
        },
        {
          "internalType": "uint256",
          "name": "newBalance2",
          "type": "uint256"
        },
        {
          "internalType": "uint256",
          "name": "newNonce",
          "type": "uint256"
        },
        {
          "internalType": "bytes",
          "name": "signature1",
          "type": "bytes"
        },
        {
          "internalType": "bytes",
          "name": "signature2",
          "type": "bytes"
        }
      ],
      "name": "challengeChannelClose",
      "outputs": [],
      "stateMutability": "nonpayable",
      "type": "function"
    },
    {
      "inputs": [],
      "name": "channelFeeRate",
      "outputs": [
        {
          "internalType": "uint256",
          "name": "",
          "type": "uint256"
        }
      ],
      "stateMutability": "view",
      "type": "function"
    },
    {
      "inputs": [
        {
          "internalType": "bytes32",
          "name": "",
          "type": "bytes32"
        }
      ],
      "name": "commitmentOwners",
      "outputs": [
        {
          "internalType": "address",
          "name": "",
          "type": "address"
        }
      ],
      "stateMutability": "view",
      "type": "function"
    },
    {
      "inputs": [
        {
          "internalType": "bytes32",
          "name": "",
          "type": "bytes32"
        }
      ],
      "name": "commitmentPools",
      "outputs": [
        {
          "internalType": "uint256",
          "name": "",
          "type": "uint256"
        }
      ],
      "stateMutability": "view",
      "type": "function"
    },
    {
      "inputs": [
        {
          "internalType": "bytes32",
          "name": "",
          "type": "bytes32"
        }
      ],
      "name": "commitmentTimestamps",
      "outputs": [
        {
          "internalType": "uint256",
          "name": "",
          "type": "uint256"
        }
      ],
      "stateMutability": "view",
      "type": "function"
    },
    {
      "inputs": [
        {
          "internalType": "string",
          "name": "paymentId",
          "type": "string"
        },
        {
          "internalType": "bytes",
          "name": "proof",
          "type": "bytes"
        }
      ],
      "name": "completeCrossChainPayment",
      "outputs": [],
      "stateMutability": "nonpayable",
      "type": "function"
    },
    {
      "inputs": [
        {
          "internalType": "uint256",
          "name": "serviceId",
          "type": "uint256"
        },
        {
          "internalType": "string",
          "name": "resultCID",
          "type": "string"
        }
      ],
      "name": "completeServiceOrder",
      "outputs": [],
      "stateMutability": "nonpayable",
      "type": "function"
    },
    {
      "inputs": [
        {
          "internalType": "string",
          "name": "paymentId",
          "type": "string"
        }
      ],
      "name": "confirmPayment",
      "outputs": [],
      "stateMutability": "nonpayable",
      "type": "function"
    },
    {
      "inputs": [
        {
          "internalType": "address",
          "name": "to",
          "type": "address"
        },
        {
          "internalType": "uint256",
          "name": "amount",
          "type": "uint256"
        },
        {
          "internalType": "string",
          "name": "paymentId",
          "type": "string"
        },
        {
          "internalType": "string",
          "name": "description",
          "type": "string"
        },
        {
          "internalType": "string",
          "name": "metadata",
          "type": "string"
        }
      ],
      "name": "createPayment",
      "outputs": [],
      "stateMutability": "nonpayable",
      "type": "function"
    },
    {
      "inputs": [
        {
          "internalType": "address",
          "name": "provider",
          "type": "address"
        },
        {
          "internalType": "string",
          "name": "serviceTypeCID",
          "type": "string"
        },
        {
          "internalType": "uint256",
          "name": "price",
          "type": "uint256"
        }
      ],
      "name": "createServiceOrder",
      "outputs": [
        {
          "internalType": "uint256",
          "name": "",
          "type": "uint256"
        }
      ],
      "stateMutability": "nonpayable",
      "type": "function"
    },
    {
      "inputs": [],
      "name": "crossChainFeeRate",
      "outputs": [
        {
          "internalType": "uint256",
          "name": "",
          "type": "uint256"
        }
      ],
      "stateMutability": "view",
      "type": "function"
    },
    {
      "inputs": [
        {
          "internalType": "string",
          "name": "",
          "type": "string"
        }
      ],
      "name": "crossChainPayments",
      "outputs": [
        {
          "internalType": "address",
          "name": "from",
          "type": "address"
        },
        {
          "internalType": "address",
          "name": "to",
          "type": "address"
        },
        {
          "internalType": "uint256",
          "name": "amount",
          "type": "uint256"
        },
        {
          "internalType": "uint256",
          "name": "targetChainId",
          "type": "uint256"
        },
        {
          "internalType": "string",
          "name": "targetAddress",
          "type": "string"
        },
        {
          "internalType": "string",
          "name": "paymentId",
          "type": "string"
        },
        {
          "internalType": "uint256",
          "name": "timestamp",
          "type": "uint256"
        },
        {
          "internalType": "enum DIAPPayment.CrossChainStatus",
          "name": "status",
          "type": "uint8"
        }
      ],
      "stateMutability": "view",
      "type": "function"
    },
    {
      "inputs": [
        {
          "internalType": "bytes32",
          "name": "commitment",
          "type": "bytes32"
        },
        {
          "internalType": "bytes32",
          "name": "nullifier",
          "type": "bytes32"
        },
        {
          "internalType": "uint256[8]",
          "name": "proof",
          "type": "uint256[8]"
        },
        {
          "internalType": "address",
          "name": "to",
          "type": "address"
        },
        {
          "internalType": "uint256",
          "name": "amount",
          "type": "uint256"
        }
      ],
      "name": "executePrivacyPayment",
      "outputs": [],
      "stateMutability": "nonpayable",
      "type": "function"
    },
    {
      "inputs": [
        {
          "internalType": "string",
          "name": "channelId",
          "type": "string"
        }
      ],
      "name": "finalizeChannelClose",
      "outputs": [],
      "stateMutability": "nonpayable",
      "type": "function"
    },
    {
      "inputs": [
        {
          "internalType": "string",
          "name": "paymentId",
          "type": "string"
        }
      ],
      "name": "getCrossChainPayment",
      "outputs": [
        {
          "components": [
            {
              "internalType": "address",
              "name": "from",
              "type": "address"
            },
            {
              "internalType": "address",
              "name": "to",
              "type": "address"
            },
            {
              "internalType": "uint256",
              "name": "amount",
              "type": "uint256"
            },
            {
              "internalType": "uint256",
              "name": "targetChainId",
              "type": "uint256"
            },
            {
              "internalType": "string",
              "name": "targetAddress",
              "type": "string"
            },
            {
              "internalType": "string",
              "name": "paymentId",
              "type": "string"
            },
            {
              "internalType": "uint256",
              "name": "timestamp",
              "type": "uint256"
            },
            {
              "internalType": "enum DIAPPayment.CrossChainStatus",
              "name": "status",
              "type": "uint8"
            }
          ],
          "internalType": "struct DIAPPayment.CrossChainPayment",
          "name": "",
          "type": "tuple"
        }
      ],
      "stateMutability": "view",
      "type": "function"
    },
    {
      "inputs": [
        {
          "internalType": "string",
          "name": "paymentId",
          "type": "string"
        }
      ],
      "name": "getPayment",
      "outputs": [
        {
          "components": [
            {
              "internalType": "address",
              "name": "from",
              "type": "address"
            },
            {
              "internalType": "address",
              "name": "to",
              "type": "address"
            },
            {
              "internalType": "uint256",
              "name": "amount",
              "type": "uint256"
            },
            {
              "internalType": "string",
              "name": "paymentId",
              "type": "string"
            },
            {
              "internalType": "string",
              "name": "description",
              "type": "string"
            },
            {
              "internalType": "uint256",
              "name": "timestamp",
              "type": "uint256"
            },
            {
              "internalType": "enum DIAPPayment.PaymentStatus",
              "name": "status",
              "type": "uint8"
            },
            {
              "internalType": "string",
              "name": "metadata",
              "type": "string"
            }
          ],
          "internalType": "struct DIAPPayment.Payment",
          "name": "",
          "type": "tuple"
        }
      ],
      "stateMutability": "view",
      "type": "function"
    },
    {
      "inputs": [
        {
          "internalType": "string",
          "name": "channelId",
          "type": "string"
        }
      ],
      "name": "getPaymentChannel",
      "outputs": [
        {
          "components": [
            {
              "internalType": "address",
              "name": "participant1",
              "type": "address"
            },
            {
              "internalType": "address",
              "name": "participant2",
              "type": "address"
            },
            {
              "internalType": "uint256",
              "name": "balance1",
              "type": "uint256"
            },
            {
              "internalType": "uint256",
              "name": "balance2",
              "type": "uint256"
            },
            {
              "internalType": "uint256",
              "name": "totalDeposited",
              "type": "uint256"
            },
            {
              "internalType": "uint256",
              "name": "nonce",
              "type": "uint256"
            },
            {
              "internalType": "bool",
              "name": "isActive",
              "type": "bool"
            },
            {
              "internalType": "uint256",
              "name": "lastUpdate",
              "type": "uint256"
            },
            {
              "internalType": "uint256",
              "name": "challengeDeadline",
              "type": "uint256"
            },
            {
              "internalType": "string",
              "name": "channelId",
              "type": "string"
            }
          ],
          "internalType": "struct DIAPPayment.PaymentChannel",
          "name": "",
          "type": "tuple"
        }
      ],
      "stateMutability": "view",
      "type": "function"
    },
    {
      "inputs": [],
      "name": "getPaymentStats",
      "outputs": [
        {
          "internalType": "uint256",
          "name": "_totalPayments",
          "type": "uint256"
        },
        {
          "internalType": "uint256",
          "name": "_totalVolume",
          "type": "uint256"
        },
        {
          "internalType": "uint256",
          "name": "_totalCrossChainVolume",
          "type": "uint256"
        }
      ],
      "stateMutability": "view",
      "type": "function"
    },
    {
      "inputs": [
        {
          "internalType": "uint256",
          "name": "serviceId",
          "type": "uint256"
        }
      ],
      "name": "getServiceOrder",
      "outputs": [
        {
          "components": [
            {
              "internalType": "address",
              "name": "provider",
              "type": "address"
            },
            {
              "internalType": "address",
              "name": "consumer",
              "type": "address"
            },
            {
              "internalType": "uint256",
              "name": "price",
              "type": "uint256"
            },
            {
              "internalType": "uint256",
              "name": "escrowedAmount",
              "type": "uint256"
            },
            {
              "internalType": "uint256",
              "name": "timestamp",
              "type": "uint256"
            },
            {
              "internalType": "uint256",
              "name": "completionTime",
              "type": "uint256"
            },
            {
              "internalType": "enum DIAPPayment.ServiceStatus",
              "name": "status",
              "type": "uint8"
            },
            {
              "internalType": "string",
              "name": "serviceTypeCID",
              "type": "string"
            },
            {
              "internalType": "string",
              "name": "resultCID",
              "type": "string"
            }
          ],
          "internalType": "struct DIAPPayment.Service",
          "name": "",
          "type": "tuple"
        }
      ],
      "stateMutability": "view",
      "type": "function"
    },
    {
      "inputs": [
        {
          "internalType": "address",
          "name": "_token",
          "type": "address"
        },
        {
          "internalType": "address",
          "name": "_agentNetwork",
          "type": "address"
        }
      ],
      "name": "initialize",
      "outputs": [],
      "stateMutability": "nonpayable",
      "type": "function"
    },
    {
      "inputs": [
        {
          "internalType": "string",
          "name": "channelId",
          "type": "string"
        },
        {
          "internalType": "uint256",
          "name": "finalBalance1",
          "type": "uint256"
        },
        {
          "internalType": "uint256",
          "name": "finalBalance2",
          "type": "uint256"
        },
        {
          "internalType": "uint256",
          "name": "nonce",
          "type": "uint256"
        },
        {
          "internalType": "bytes",
          "name": "signature1",
          "type": "bytes"
        },
        {
          "internalType": "bytes",
          "name": "signature2",
          "type": "bytes"
        }
      ],
      "name": "initiateChannelClose",
      "outputs": [],
      "stateMutability": "nonpayable",
      "type": "function"
    },
    {
      "inputs": [
        {
          "internalType": "address",
          "name": "to",
          "type": "address"
        },
        {
          "internalType": "uint256",
          "name": "amount",
          "type": "uint256"
        },
        {
          "internalType": "uint256",
          "name": "targetChainId",
          "type": "uint256"
        },
        {
          "internalType": "string",
          "name": "targetAddress",
          "type": "string"
        },
        {
          "internalType": "string",
          "name": "paymentId",
          "type": "string"
        }
      ],
      "name": "initiateCrossChainPayment",
      "outputs": [],
      "stateMutability": "payable",
      "type": "function"
    },
    {
      "inputs": [
        {
          "internalType": "bytes32",
          "name": "commitment",
          "type": "bytes32"
        },
        {
          "internalType": "uint256",
          "name": "amount",
          "type": "uint256"
        }
      ],
      "name": "lockFundsForPrivacy",
      "outputs": [],
      "stateMutability": "nonpayable",
      "type": "function"
    },
    {
      "inputs": [
        {
          "internalType": "address",
          "name": "participant2",
          "type": "address"
        },
        {
          "internalType": "uint256",
          "name": "deposit",
          "type": "uint256"
        },
        {
          "internalType": "string",
          "name": "channelId",
          "type": "string"
        }
      ],
      "name": "openPaymentChannel",
      "outputs": [],
      "stateMutability": "nonpayable",
      "type": "function"
    },
    {
      "inputs": [],
      "name": "owner",
      "outputs": [
        {
          "internalType": "address",
          "name": "",
          "type": "address"
        }
      ],
      "stateMutability": "view",
      "type": "function"
    },
    {
      "inputs": [],
      "name": "pause",
      "outputs": [],
      "stateMutability": "nonpayable",
      "type": "function"
    },
    {
      "inputs": [],
      "name": "paused",
      "outputs": [
        {
          "internalType": "bool",
          "name": "",
          "type": "bool"
        }
      ],
      "stateMutability": "view",
      "type": "function"
    },
    {
      "inputs": [
        {
          "internalType": "string",
          "name": "",
          "type": "string"
        }
      ],
      "name": "paymentChannels",
      "outputs": [
        {
          "internalType": "address",
          "name": "participant1",
          "type": "address"
        },
        {
          "internalType": "address",
          "name": "participant2",
          "type": "address"
        },
        {
          "internalType": "uint256",
          "name": "balance1",
          "type": "uint256"
        },
        {
          "internalType": "uint256",
          "name": "balance2",
          "type": "uint256"
        },
        {
          "internalType": "uint256",
          "name": "totalDeposited",
          "type": "uint256"
        },
        {
          "internalType": "uint256",
          "name": "nonce",
          "type": "uint256"
        },
        {
          "internalType": "bool",
          "name": "isActive",
          "type": "bool"
        },
        {
          "internalType": "uint256",
          "name": "lastUpdate",
          "type": "uint256"
        },
        {
          "internalType": "uint256",
          "name": "challengeDeadline",
          "type": "uint256"
        },
        {
          "internalType": "string",
          "name": "channelId",
          "type": "string"
        }
      ],
      "stateMutability": "view",
      "type": "function"
    },
    {
      "inputs": [],
      "name": "paymentFeeRate",
      "outputs": [
        {
          "internalType": "uint256",
          "name": "",
          "type": "uint256"
        }
      ],
      "stateMutability": "view",
      "type": "function"
    },
    {
      "inputs": [
        {
          "internalType": "string",
          "name": "",
          "type": "string"
        }
      ],
      "name": "payments",
      "outputs": [
        {
          "internalType": "address",
          "name": "from",
          "type": "address"
        },
        {
          "internalType": "address",
          "name": "to",
          "type": "address"
        },
        {
          "internalType": "uint256",
          "name": "amount",
          "type": "uint256"
        },
        {
          "internalType": "string",
          "name": "paymentId",
          "type": "string"
        },
        {
          "internalType": "string",
          "name": "description",
          "type": "string"
        },
        {
          "internalType": "uint256",
          "name": "timestamp",
          "type": "uint256"
        },
        {
          "internalType": "enum DIAPPayment.PaymentStatus",
          "name": "status",
          "type": "uint8"
        },
        {
          "internalType": "string",
          "name": "metadata",
          "type": "string"
        }
      ],
      "stateMutability": "view",
      "type": "function"
    },
    {
      "inputs": [],
      "name": "proxiableUUID",
      "outputs": [
        {
          "internalType": "bytes32",
          "name": "",
          "type": "bytes32"
        }
      ],
      "stateMutability": "view",
      "type": "function"
    },
    {
      "inputs": [
        {
          "internalType": "bytes32",
          "name": "commitment",
          "type": "bytes32"
        }
      ],
      "name": "refundExpiredCommitment",
      "outputs": [],
      "stateMutability": "nonpayable",
      "type": "function"
    },
    {
      "inputs": [
        {
          "internalType": "uint256",
          "name": "chainId",
          "type": "uint256"
        }
      ],
      "name": "removeSupportedChain",
      "outputs": [],
      "stateMutability": "nonpayable",
      "type": "function"
    },
    {
      "inputs": [],
      "name": "renounceOwnership",
      "outputs": [],
      "stateMutability": "nonpayable",
      "type": "function"
    },
    {
      "inputs": [
        {
          "internalType": "uint256",
          "name": "",
          "type": "uint256"
        }
      ],
      "name": "services",
      "outputs": [
        {
          "internalType": "address",
          "name": "provider",
          "type": "address"
        },
        {
          "internalType": "address",
          "name": "consumer",
          "type": "address"
        },
        {
          "internalType": "uint256",
          "name": "price",
          "type": "uint256"
        },
        {
          "internalType": "uint256",
          "name": "escrowedAmount",
          "type": "uint256"
        },
        {
          "internalType": "uint256",
          "name": "timestamp",
          "type": "uint256"
        },
        {
          "internalType": "uint256",
          "name": "completionTime",
          "type": "uint256"
        },
        {
          "internalType": "enum DIAPPayment.ServiceStatus",
          "name": "status",
          "type": "uint8"
        },
        {
          "internalType": "string",
          "name": "serviceTypeCID",
          "type": "string"
        },
        {
          "internalType": "string",
          "name": "resultCID",
          "type": "string"
        }
      ],
      "stateMutability": "view",
      "type": "function"
    },
    {
      "inputs": [
        {
          "internalType": "uint256",
          "name": "_rate",
          "type": "uint256"
        }
      ],
      "name": "setChannelFeeRate",
      "outputs": [],
      "stateMutability": "nonpayable",
      "type": "function"
    },
    {
      "inputs": [
        {
          "internalType": "uint256",
          "name": "_rate",
          "type": "uint256"
        }
      ],
      "name": "setCrossChainFeeRate",
      "outputs": [],
      "stateMutability": "nonpayable",
      "type": "function"
    },
    {
      "inputs": [
        {
          "internalType": "uint256",
          "name": "_rate",
          "type": "uint256"
        }
      ],
      "name": "setPaymentFeeRate",
      "outputs": [],
      "stateMutability": "nonpayable",
      "type": "function"
    },
    {
      "inputs": [
        {
          "internalType": "uint256",
          "name": "",
          "type": "uint256"
        }
      ],
      "name": "supportedChains",
      "outputs": [
        {
          "internalType": "bool",
          "name": "",
          "type": "bool"
        }
      ],
      "stateMutability": "view",
      "type": "function"
    },
    {
      "inputs": [],
      "name": "token",
      "outputs": [
        {
          "internalType": "contract DIAPToken",
          "name": "",
          "type": "address"
        }
      ],
      "stateMutability": "view",
      "type": "function"
    },
    {
      "inputs": [],
      "name": "totalCrossChainVolume",
      "outputs": [
        {
          "internalType": "uint256",
          "name": "",
          "type": "uint256"
        }
      ],
      "stateMutability": "view",
      "type": "function"
    },
    {
      "inputs": [],
      "name": "totalPayments",
      "outputs": [
        {
          "internalType": "uint256",
          "name": "",
          "type": "uint256"
        }
      ],
      "stateMutability": "view",
      "type": "function"
    },
    {
      "inputs": [],
      "name": "totalServices",
      "outputs": [
        {
          "internalType": "uint256",
          "name": "",
          "type": "uint256"
        }
      ],
      "stateMutability": "view",
      "type": "function"
    },
    {
      "inputs": [],
      "name": "totalVolume",
      "outputs": [
        {
          "internalType": "uint256",
          "name": "",
          "type": "uint256"
        }
      ],
      "stateMutability": "view",
      "type": "function"
    },
    {
      "inputs": [
        {
          "internalType": "address",
          "name": "newOwner",
          "type": "address"
        }
      ],
      "name": "transferOwnership",
      "outputs": [],
      "stateMutability": "nonpayable",
      "type": "function"
    },
    {
      "inputs": [],
      "name": "unpause",
      "outputs": [],
      "stateMutability": "nonpayable",
      "type": "function"
    },
    {
      "inputs": [
        {
          "internalType": "address",
          "name": "newImplementation",
          "type": "address"
        }
      ],
      "name": "upgradeTo",
      "outputs": [],
      "stateMutability": "nonpayable",
      "type": "function"
    },
    {
      "inputs": [
        {
          "internalType": "address",
          "name": "newImplementation",
          "type": "address"
        },
        {
          "internalType": "bytes",
          "name": "data",
          "type": "bytes"
        }
      ],
      "name": "upgradeToAndCall",
      "outputs": [],
      "stateMutability": "payable",
      "type": "function"
    },
    {
      "inputs": [
        {
          "internalType": "bytes32",
          "name": "",
          "type": "bytes32"
        }
      ],
      "name": "usedCommitments",
      "outputs": [
        {
          "internalType": "bool",
          "name": "",
          "type": "bool"
        }
      ],
      "stateMutability": "view",
      "type": "function"
    },
    {
      "inputs": [
        {
          "internalType": "bytes32",
          "name": "",
          "type": "bytes32"
        }
      ],
      "name": "usedNullifiers",
      "outputs": [
        {
          "internalType": "bool",
          "name": "",
          "type": "bool"
        }
      ],
      "stateMutability": "view",
      "type": "function"
    },
    {
      "inputs": [
        {
          "internalType": "bytes32",
          "name": "commitment",
          "type": "bytes32"
        }
      ],
      "name": "withdrawLockedFunds",
      "outputs": [],
      "stateMutability": "nonpayable",
      "type": "function"
    },
    {
      "stateMutability": "payable",
      "type": "receive"
    }
  ],
  "bytecode": "0x60a060405230608052348015601357600080fd5b506080516171c461004b600039600081816116d90152818161171901528181611ec101528181611f01015261211a01526171c46000f3fe6080604052600436106102aa5760003560e01c80625b4487146102b65780630542a03e146102e05780630c4844aa1461030257806317011baf146103225780631cf6a7fe14610342578063206137aa1461037057806328f84d58146103b15780632fc2061c146103de57806336301dd1146103f55780633644e515146104155780633659cfe61461042c5780633a0dff1a1461044c5780633f4ba83a1461046c578063418e59e514610481578063485cc955146104b55780634f1ef286146104d55780635078afaa146104e857806352d1902d14610515578063548d496f1461052a5780635c975abb1461055b5780635f81a57c146105735780636049c99f1461058a5780636301ac8f146105ce57806369e69425146105e55780636cdc978c14610605578063715018a6146106255780637d4247201461063a5780637fac796a1461064d578063800b1cf11461068457806384126e01146106ba5780638456cb59146106da57806385a799b6146106ef5780638d5c3e7a1461070f5780638da5cb5b1461073c578063900774b614610751578063912db0fb14610771578063914020391461079157806398490ed7146107c2578063ae9a9a86146107e2578063b4245d7314610802578063b9f578ef14610830578063c22c4f4314610850578063c32662a914610885578063c3a079ed146108a5578063c510ac62146108bc578063c69207a3146108dc578063c8df9b6b14610909578063cd333b6a14610929578063d84bcd3314610940578063dbbc75c314610962578063dd8b556814610979578063e461e1f51461099a578063ef84fd7a146109b1578063f1d4db63146109d1578063f2fde38b146109f1578063f6b7d31d14610a11578063f8c61a5414610a45578063f946871314610a65578063fa8ad56014610a99578063fc0c546a14610ab057600080fd5b366102b157005b600080fd5b3480156102c257600080fd5b506102cd6101335481565b6040519081526020015b60405180910390f35b3480156102ec57600080fd5b506103006102fb366004615cb2565b610ad1565b005b34801561030e57600080fd5b5061030061031d366004615d0b565b611185565b34801561032e57600080fd5b5061030061033d366004615d24565b6111bf565b34801561034e57600080fd5b506102cd61035d366004615d0b565b61013e6020526000908152604090205481565b34801561037c57600080fd5b506103a161038b366004615d0b565b61013d6020526000908152604090205460ff1681565b60405190151581526020016102d7565b3480156103bd57600080fd5b506103d16103cc366004615d0b565b61120e565b6040516102d79190615dd7565b3480156103ea57600080fd5b506102cd6101355481565b34801561040157600080fd5b50610300610410366004615e7d565b6113db565b34801561042157600080fd5b506102cd6101415481565b34801561043857600080fd5b50610300610447366004615e9f565b6116cf565b34801561045857600080fd5b50610300610467366004615eba565b611797565b34801561047857600080fd5b50610300611a26565b34801561048d57600080fd5b506104a161049c366004615fe6565b611a38565b6040516102d7989796959493929190616047565b3480156104c157600080fd5b506103006104d03660046160b9565b611ba9565b6103006104e33660046160e3565b611eb7565b3480156104f457600080fd5b50610508610503366004616144565b611f6c565b6040516102d79190616185565b34801561052157600080fd5b506102cd61210d565b34801561053657600080fd5b506103a1610545366004615d0b565b61013a6020526000908152604090205460ff1681565b34801561056757600080fd5b5060fb5460ff166103a1565b34801561057f57600080fd5b506102cd6101345481565b34801561059657600080fd5b506105c16105a5366004615d0b565b61013b602052600090815260409020546001600160a01b031681565b6040516102d7919061621a565b3480156105da57600080fd5b506102cd6101365481565b3480156105f157600080fd5b50610300610600366004615d0b565b6121bb565b34801561061157600080fd5b50610300610620366004615d0b565b6121ea565b34801561063157600080fd5b506103006123ae565b61030061064836600461622e565b6123c0565b34801561065957600080fd5b506105c1610668366004615d0b565b61013f602052600090815260409020546001600160a01b031681565b34801561069057600080fd5b506106a461069f366004615fe6565b6127b8565b6040516102d79a999897969594939291906162c5565b3480156106c657600080fd5b506103006106d5366004616144565b6128b1565b3480156106e657600080fd5b50610300612a09565b3480156106fb57600080fd5b5061030061070a366004616334565b612a19565b34801561071b57600080fd5b5061072f61072a366004616144565b612b69565b6040516102d7919061638b565b34801561074857600080fd5b506105c1612d3b565b34801561075d57600080fd5b506102cd61076c366004616427565b612d4a565b34801561077d57600080fd5b5061030061078c366004616144565b6133c6565b34801561079d57600080fd5b506103a16107ac366004615d0b565b61013c6020526000908152604090205460ff1681565b3480156107ce57600080fd5b506103006107dd366004615d0b565b61387a565b3480156107ee57600080fd5b506103006107fd366004616144565b6138a9565b34801561080e57600080fd5b506102cd61081d366004615d0b565b6101406020526000908152604090205481565b34801561083c57600080fd5b5061030061084b366004616480565b613be0565b34801561085c57600080fd5b5061087061086b366004615d0b565b6140d0565b6040516102d79998979695949392919061653d565b34801561089157600080fd5b506103006108a0366004615d0b565b61423e565b3480156108b157600080fd5b506102cd6201518081565b3480156108c857600080fd5b506103006108d7366004615d0b565b61447d565b3480156108e857600080fd5b506108fc6108f7366004616144565b6144ac565b6040516102d791906165a5565b34801561091557600080fd5b5061030061092436600461664a565b6146bd565b34801561093557600080fd5b506102cd6101375481565b34801561094c57600080fd5b506102cd60008051602061716f83398151915281565b34801561096e57600080fd5b506102cd6276a70081565b34801561098557600080fd5b5061012e546105c1906001600160a01b031681565b3480156109a657600080fd5b506102cd6101395481565b3480156109bd57600080fd5b506103006109cc36600461670c565b6148d8565b3480156109dd57600080fd5b506103006109ec366004615d0b565b614b8d565b3480156109fd57600080fd5b50610300610a0c366004615e9f565b614d69565b348015610a1d57600080fd5b50610133546101345461013554604080519384526020840192909252908201526060016102d7565b348015610a5157600080fd5b50610300610a6036600461664a565b614ddf565b348015610a7157600080fd5b50610a85610a80366004615fe6565b614ff0565b6040516102d7989796959493929190616757565b348015610aa557600080fd5b506102cd6101385481565b348015610abc57600080fd5b5061012d546105c1906001600160a01b031681565b610ad96151eb565b610ae1615244565b60008311610b365760405162461bcd60e51b815260206004820152601e60248201527f4465706f736974206d7573742062652067726561746572207468616e2030000060448201526064015b60405180910390fd5b80610b795760405162461bcd60e51b815260206004820152601360248201527210da185b9b995b081251081c995c5d5a5c9959606a1b6044820152606401610b2d565b6101318282604051610b8c9291906167d5565b908152602001604051809103902060070154600014610be65760405162461bcd60e51b81526020600482015260166024820152754368616e6e656c20616c72656164792065786973747360501b6044820152606401610b2d565b336001600160a01b03851603610c3e5760405162461bcd60e51b815260206004820152601d60248201527f43616e6e6f74206f70656e206368616e6e656c20776974682073656c660000006044820152606401610b2d565b6001600160a01b038416610c925760405162461bcd60e51b815260206004820152601b60248201527a496e76616c6964207061727469636970616e74206164647265737360281b6044820152606401610b2d565b61012e5460405163fb3551ff60e01b81526001600160a01b039091169063fb3551ff90610cc390339060040161621a565b600060405180830381865afa158015610ce0573d6000803e3d6000fd5b505050506040513d6000823e601f3d908101601f19168201604052610d08919081019061683a565b60600151610d285760405162461bcd60e51b8152600401610b2d90616936565b61012e5460405163fb3551ff60e01b81526001600160a01b039091169063fb3551ff90610d5990879060040161621a565b600060405180830381865afa158015610d76573d6000803e3d6000fd5b505050506040513d6000823e601f3d908101601f19168201604052610d9e919081019061683a565b60600151610dec5760405162461bcd60e51b815260206004820152601b60248201527a14185c9d1a58da5c185b9d0c881b9bdd081c9959da5cdd195c9959602a1b6044820152606401610b2d565b61012d546040516370a0823160e01b815284916001600160a01b0316906370a0823190610e1d90339060040161621a565b602060405180830381865afa158015610e3a573d6000803e3d6000fd5b505050506040513d601f19601f82011682018060405250810190610e5e9190616965565b1015610e7c5760405162461bcd60e51b8152600401610b2d9061697e565b61012d54604051636eb1769f60e11b815284916001600160a01b03169063dd62ed3e90610eaf90339030906004016169ac565b602060405180830381865afa158015610ecc573d6000803e3d6000fd5b505050506040513d601f19601f82011682018060405250810190610ef09190616965565b1015610f0e5760405162461bcd60e51b8152600401610b2d906169c6565b604051806101400160405280336001600160a01b03168152602001856001600160a01b0316815260200184815260200160008152602001848152602001600081526020016001151581526020014281526020016000815260200183838080601f016020809104026020016040519081016040528093929190818152602001838380828437600092019190915250505091525060405161013190610fb490859085906167d5565b9081526040805160209281900383019020835181546001600160a01b03199081166001600160a01b03928316178355938501516001830180549095169116179092558201516002820155606082015160038201556080820151600482015560a0820151600582015560c082015160068201805460ff191691151591909117905560e082015160078201556101008201516008820155610120820151600982019061105e9082616a8c565b505061012d546040516323b872dd60e01b81526001600160a01b0390911691506323b872dd9061109690339030908890600401616b44565b6020604051808303816000875af11580156110b5573d6000803e3d6000fd5b505050506040513d601f19601f820116820180604052508101906110d99190616b68565b6111175760405162461bcd60e51b815260206004820152600f60248201526e151c985b9cd9995c8819985a5b1959608a1b6044820152606401610b2d565b836001600160a01b0316336001600160a01b0316838360405161113b9291906167d5565b604051908190038120868252907fce0ad19fd64af1a45dc100ce44461e37ccabe40e8daa9fc69184c14568e753a49060200160405180910390a461117f600160c955565b50505050565b61118d615291565b600090815261013a60209081526040808320805460ff1916905561013b909152902080546001600160a01b0319169055565b6111c7615291565b600091825261013a60209081526040808420805460ff1916600117905561013b90915290912080546001600160a01b039092166001600160a01b0319909216919091179055565b611216615b78565b6000828152610132602090815260409182902082516101208101845281546001600160a01b03908116825260018301541692810192909252600281015492820192909252600382015460608201526004808301546080830152600583015460a0830152600683015491929160c084019160ff9091169081111561129b5761129b615d5d565b60048111156112ac576112ac615d5d565b81526020016007820180546112c0906169f6565b80601f01602080910402602001604051908101604052809291908181526020018280546112ec906169f6565b80156113395780601f1061130e57610100808354040283529160200191611339565b820191906000526020600020905b81548152906001019060200180831161131c57829003601f168201915b50505050508152602001600882018054611352906169f6565b80601f016020809104026020016040519081016040528092919081815260200182805461137e906169f6565b80156113cb5780601f106113a0576101008083540402835291602001916113cb565b820191906000526020600020905b8154815290600101906020018083116113ae57829003601f168201915b5050505050815250509050919050565b6113e36151eb565b600081116114035760405162461bcd60e51b8152600401610b2d90616b83565b816114455760405162461bcd60e51b8152602060048201526012602482015271125b9d985b1a590818dbdb5b5a5d1b595b9d60721b6044820152606401610b2d565b600082815261013e60205260409020541561149e5760405162461bcd60e51b8152602060048201526019602482015278436f6d6d69746d656e7420616c72656164792065786973747360381b6044820152606401610b2d565b61012d546040516370a0823160e01b815282916001600160a01b0316906370a08231906114cf90339060040161621a565b602060405180830381865afa1580156114ec573d6000803e3d6000fd5b505050506040513d601f19601f820116820180604052508101906115109190616965565b101561152e5760405162461bcd60e51b8152600401610b2d9061697e565b61012d54604051636eb1769f60e11b815282916001600160a01b03169063dd62ed3e9061156190339030906004016169ac565b602060405180830381865afa15801561157e573d6000803e3d6000fd5b505050506040513d601f19601f820116820180604052508101906115a29190616965565b10156115c05760405162461bcd60e51b8152600401610b2d906169c6565b61012d546040516323b872dd60e01b81526001600160a01b03909116906323b872dd906115f590339030908690600401616b44565b6020604051808303816000875af1158015611614573d6000803e3d6000fd5b505050506040513d601f19601f820116820180604052508101906116389190616b68565b6116545760405162461bcd60e51b8152600401610b2d90616bba565b600082815261013e6020908152604080832084905561013f825280832080546001600160a01b031916339081179091556101408352928190204290555183815284917ff1ef9d9055e5a9192a5488e9dd709dadc6c9bd4d4877c741affa6062dc198bcd910160405180910390a36116cb600160c955565b5050565b6001600160a01b037f00000000000000000000000000000000000000000000000000000000000000001630036117175760405162461bcd60e51b8152600401610b2d90616be9565b7f00000000000000000000000000000000000000000000000000000000000000006001600160a01b03166117496152f0565b6001600160a01b03161461176f5760405162461bcd60e51b8152600401610b2d90616c23565b6117788161530c565b6040805160008082526020820190925261179491839190615314565b50565b61179f6151eb565b600085815261013c602052604090205460ff16156117cf5760405162461bcd60e51b8152600401610b2d90616c5d565b600084815261013d602052604090205460ff16156118285760405162461bcd60e51b8152602060048201526016602482015275139d5b1b1a599a595c88185b1c9958591e481d5cd95960521b6044820152606401610b2d565b600081116118485760405162461bcd60e51b8152600401610b2d90616b83565b600085815261013e60205260409020548111156118a35760405162461bcd60e51b8152602060048201526019602482015278496e73756666696369656e74206c6f636b65642066756e647360381b6044820152606401610b2d565b82356118e95760405162461bcd60e51b815260206004820152601560248201527424b73b30b634b210383934bb30b1bc90383937b7b360591b6044820152606401610b2d565b600085815261013c602090815260408083208054600160ff19918216811790925588855261013d84528285208054909116909117905587835261013e9091528120805483929061193a908490616ca4565b909155505061012d5460405163a9059cbb60e01b81526001600160a01b039091169063a9059cbb906119729085908590600401616cb7565b6020604051808303816000875af1158015611991573d6000803e3d6000fd5b505050506040513d601f19601f820116820180604052508101906119b59190616b68565b6119d15760405162461bcd60e51b8152600401610b2d90616bba565b816001600160a01b0316857fad95e3a13f6301c0e68af2c8b2770ae3a0eaa559414f2d14c195b1520d7b93b683604051611a0d91815260200190565b60405180910390a3611a1f600160c955565b5050505050565b611a2e615291565b611a3661547f565b565b80518082016020908101805161013082529282019190930120915280546001820154600283015460038401546004850180546001600160a01b0395861696949095169492939192611a88906169f6565b80601f0160208091040260200160405190810160405280929190818152602001828054611ab4906169f6565b8015611b015780601f10611ad657610100808354040283529160200191611b01565b820191906000526020600020905b815481529060010190602001808311611ae457829003601f168201915b505050505090806005018054611b16906169f6565b80601f0160208091040260200160405190810160405280929190818152602001828054611b42906169f6565b8015611b8f5780601f10611b6457610100808354040283529160200191611b8f565b820191906000526020600020905b815481529060010190602001808311611b7257829003601f168201915b50505050600683015460079093015491929160ff16905088565b600054610100900460ff1615808015611bc95750600054600160ff909116105b80611bea5750611bd8306154cb565b158015611bea575060005460ff166001145b611c4d5760405162461bcd60e51b815260206004820152602e60248201527f496e697469616c697a61626c653a20636f6e747261637420697320616c72656160448201526d191e481a5b9a5d1a585b1a5e995960921b6064820152608401610b2d565b6000805460ff191660011790558015611c70576000805461ff0019166101001790555b611c786154da565b611c80615509565b611c88615530565b611c9061555f565b61012d80546001600160a01b038581166001600160a01b03199283161790925561012e805492851692909116919091179055600a61013781905560326101385560056101395561013a60209081527f57e5eb83aa19edc054e523cce974634843736300dee125a479b1289fba5ea0ee805460ff1990811660019081179092557f8c8bba50897f306ac74a5ac3f80d05acbfd89cc340e06245412396f496ed9fbd80548216831790557f334c428acaaf7dc837c4ba97354a18a2b350d0557950e4adda953b7f777518f480548216831790556000939093527f868795c69b8bcdd06049f2ff9c420597b753897b51ac34d2bdd945a2dc17d09c80549093168117909255604080518082018252600c81526b111250540814185e5b595b9d60a21b9083015280518082018252928352603160f81b9282019290925281517f8b73c3c69bb8fe3d512ecc4cf759cc79239f7b179b0ffacaa9a75d522b39400f918101919091527f61414a127b1955292bd4d8b134236d57d29699e5309bf1f8bc0fe676a0a62b1d918101919091527fc89efdaa54c0f20c7adf612882df0950f5a951637e0307cdcb4c672f298b8bc660608201524660808201523060a082015260c00160408051601f198184030181529190528051602090910120610141558015611eb2576000805461ff0019169055604051600181527f7f26b83ff96e1f2b6a682f133852f6798a09c465da95921460cefb38474024989060200160405180910390a15b505050565b6001600160a01b037f0000000000000000000000000000000000000000000000000000000000000000163003611eff5760405162461bcd60e51b8152600401610b2d90616be9565b7f00000000000000000000000000000000000000000000000000000000000000006001600160a01b0316611f316152f0565b6001600160a01b031614611f575760405162461bcd60e51b8152600401610b2d90616c23565b611f608261530c565b6116cb82826001615314565b611fd660405180610140016040528060006001600160a01b0316815260200160006001600160a01b03168152602001600081526020016000815260200160008152602001600081526020016000151581526020016000815260200160008152602001606081525090565b6101318383604051611fe99291906167d5565b9081526040805191829003602090810183206101408401835280546001600160a01b039081168552600182015416918401919091526002810154918301919091526003810154606083015260048101546080830152600581015460a0830152600681015460ff16151560c0830152600781015460e0830152600881015461010083015260098101805461012084019190612082906169f6565b80601f01602080910402602001604051908101604052809291908181526020018280546120ae906169f6565b80156120fb5780601f106120d0576101008083540402835291602001916120fb565b820191906000526020600020905b8154815290600101906020018083116120de57829003601f168201915b50505050508152505090505b92915050565b6000306001600160a01b037f000000000000000000000000000000000000000000000000000000000000000016146121a85760405162461bcd60e51b815260206004820152603860248201527f555550535570677261646561626c653a206d757374206e6f742062652063616c6044820152771b1959081d1a1c9bdd59da0819195b1959d85d1958d85b1b60421b6064820152608401610b2d565b5060008051602061710883398151915290565b6121c3615291565b60648111156121e45760405162461bcd60e51b8152600401610b2d90616cd0565b61013855565b6121f26151eb565b600081815261013e602090815260408083205461013f909252909120546001600160a01b0316816122355760405162461bcd60e51b8152600401610b2d90616cf7565b600083815261013c602052604090205460ff16156122655760405162461bcd60e51b8152600401610b2d90616c5d565b6001600160a01b03811633146122b45760405162461bcd60e51b81526020600482015260146024820152732737ba1031b7b6b6b4ba36b2b73a1037bbb732b960611b6044820152606401610b2d565b600083815261013e6020908152604080832083905561013f825280832080546001600160a01b03191690556101409091528082209190915561012d54905163a9059cbb60e01b81526001600160a01b039091169063a9059cbb9061231e9033908690600401616cb7565b6020604051808303816000875af115801561233d573d6000803e3d6000fd5b505050506040513d601f19601f820116820180604052508101906123619190616b68565b61237d5760405162461bcd60e51b8152600401610b2d90616bba565b604051828152339084906000805160206171288339815191529060200160405180910390a35050611794600160c955565b6123b6615291565b611a36600061558e565b6123c86151eb565b600086116123e85760405162461bcd60e51b8152600401610b2d90616b83565b600085815261013a602052604090205460ff1661243d5760405162461bcd60e51b815260206004820152601360248201527210da185a5b881b9bdd081cdd5c1c1bdc9d1959606a1b6044820152606401610b2d565b8061245a5760405162461bcd60e51b8152600401610b2d90616d20565b610130828260405161246d9291906167d5565b90815260200160405180910390206006015460001461249e5760405162461bcd60e51b8152600401610b2d90616d4d565b600061271061013854886124b29190616d80565b6124bc9190616d97565b905060006124ca8289616db9565b61012d546040516370a0823160e01b815291925082916001600160a01b03909116906370a082319061250090339060040161621a565b602060405180830381865afa15801561251d573d6000803e3d6000fd5b505050506040513d601f19601f820116820180604052508101906125419190616965565b101561255f5760405162461bcd60e51b8152600401610b2d9061697e565b604051806101000160405280336001600160a01b031681526020018a6001600160a01b0316815260200189815260200188815260200187878080601f016020809104026020016040519081016040528093929190818152602001838380828437600092019190915250505090825250604080516020601f8801819004810282018101909252868152918101919087908790819084018382808284376000920182905250938552505042602084015250604091820152516101309061262690879087906167d5565b9081526040805160209281900383019020835181546001600160a01b03199081166001600160a01b03928316178355938501516001830180549095169116179092558201516002820155606082015160038201556080820151600482019061268e9082616a8c565b5060a082015160058201906126a39082616a8c565b5060c0820151600682015560e082015160078201805460ff191660018360038111156126d1576126d1615d5d565b02179055505061012d546040516323b872dd60e01b81526001600160a01b0390911691506323b872dd9061270d90339030908690600401616b44565b6020604051808303816000875af115801561272c573d6000803e3d6000fd5b505050506040513d601f19601f820116820180604052508101906127509190616b68565b50604051339061276390869086906167d5565b604080519182900382208a8352602083018c9052917f7b633a74e5ab6305143d771d3838a6608ab387ec0b4022c99dae53006f7a844e910160405180910390a350506127af600160c955565b50505050505050565b805160208183018101805161013182529282019190930120915280546001820154600283015460038401546004850154600586015460068701546007880154600889015460098a0180546001600160a01b039a8b169b9a90991699979896979596949560ff909416949293919261282e906169f6565b80601f016020809104026020016040519081016040528092919081815260200182805461285a906169f6565b80156128a75780601f1061287c576101008083540402835291602001916128a7565b820191906000526020600020905b81548152906001019060200180831161288a57829003601f168201915b505050505090508a565b600061012f83836040516128c69291906167d5565b9081526020016040518091039020905060008160050154116128fa5760405162461bcd60e51b8152600401610b2d90616dcc565b6000600682015460ff16600381111561291557612915615d5d565b146129325760405162461bcd60e51b8152600401610b2d90616df7565b80546001600160a01b031633146129805760405162461bcd60e51b81526020600482015260126024820152712737ba103830bcb6b2b73a1039b2b73232b960711b6044820152606401610b2d565b60068101805460ff1916600317905560405161299f90849084906167d5565b60405180910390207fea739d6e84a593df9f8e19da7ee138458536a373707ce41f6d146d5a9cde51386040516129fc9060208082526013908201527221b0b731b2b63632b210313c9039b2b73232b960691b604082015260600190565b60405180910390a2505050565b612a11615291565b611a366155e0565b612a21615291565b60006101308585604051612a369291906167d5565b908152602001604051809103902090506000816006015411612a6a5760405162461bcd60e51b8152600401610b2d90616dcc565b6000600782015460ff166003811115612a8557612a85615d5d565b14612aa25760405162461bcd60e51b8152600401610b2d90616df7565b81612aeb5760405162461bcd60e51b815260206004820152601960248201527824b73b30b634b21031b937b9b996b1b430b4b710383937b7b360391b6044820152606401610b2d565b60078101805460ff191660029081179091558101546101358054600090612b13908490616db9565b9091555050604051612b2890869086906167d5565b604051908190038120428252907ff2799df8f07d82572153ddc873038cfdc34fca0154545237f55585cc98cdcf789060200160405180910390a25050505050565b612b71615be7565b6101308383604051612b849291906167d5565b9081526040805191829003602090810183206101008401835280546001600160a01b0390811685526001820154169184019190915260028101549183019190915260038101546060830152600481018054608084019190612be4906169f6565b80601f0160208091040260200160405190810160405280929190818152602001828054612c10906169f6565b8015612c5d5780601f10612c3257610100808354040283529160200191612c5d565b820191906000526020600020905b815481529060010190602001808311612c4057829003601f168201915b50505050508152602001600582018054612c76906169f6565b80601f0160208091040260200160405190810160405280929190818152602001828054612ca2906169f6565b8015612cef5780601f10612cc457610100808354040283529160200191612cef565b820191906000526020600020905b815481529060010190602001808311612cd257829003601f168201915b505050918352505060068201546020820152600782015460409091019060ff166003811115612d2057612d20615d5d565b6003811115612d3157612d31615d5d565b9052509392505050565b6097546001600160a01b031690565b6000612d546151eb565b612d5c615244565b6001600160a01b038516612dad5760405162461bcd60e51b8152602060048201526018602482015277496e76616c69642070726f7669646572206164647265737360401b6044820152606401610b2d565b336001600160a01b03861603612e055760405162461bcd60e51b815260206004820152601e60248201527f43616e6e6f7420637265617465207365727669636520666f722073656c6600006044820152606401610b2d565b60008211612e455760405162461bcd60e51b815260206004820152600d60248201526c496e76616c696420707269636560981b6044820152606401610b2d565b82612e8e5760405162461bcd60e51b815260206004820152601960248201527814d95c9d9a58d9481d1e5c194810d251081c995c5d5a5c9959603a1b6044820152606401610b2d565b61012e5460405163fb3551ff60e01b81526001600160a01b039091169063fb3551ff90612ebf90339060040161621a565b600060405180830381865afa158015612edc573d6000803e3d6000fd5b505050506040513d6000823e601f3d908101601f19168201604052612f04919081019061683a565b60600151612f4e5760405162461bcd60e51b815260206004820152601760248201527610dbdb9cdd5b595c881b9bdd081c9959da5cdd195c9959604a1b6044820152606401610b2d565b61012e5460405163fb3551ff60e01b81526001600160a01b039091169063fb3551ff90612f7f90889060040161621a565b600060405180830381865afa158015612f9c573d6000803e3d6000fd5b505050506040513d6000823e601f3d908101601f19168201604052612fc4919081019061683a565b6060015161300e5760405162461bcd60e51b8152602060048201526017602482015276141c9bdd9a59195c881b9bdd081c9959da5cdd195c9959604a1b6044820152606401610b2d565b600061271061013754846130229190616d80565b61302c9190616d97565b9050600061303a8285616db9565b61012d546040516370a0823160e01b815291925082916001600160a01b03909116906370a082319061307090339060040161621a565b602060405180830381865afa15801561308d573d6000803e3d6000fd5b505050506040513d601f19601f820116820180604052508101906130b19190616965565b10156130cf5760405162461bcd60e51b8152600401610b2d9061697e565b61012d54604051636eb1769f60e11b815282916001600160a01b03169063dd62ed3e9061310290339030906004016169ac565b602060405180830381865afa15801561311f573d6000803e3d6000fd5b505050506040513d601f19601f820116820180604052508101906131439190616965565b10156131615760405162461bcd60e51b8152600401610b2d906169c6565b61012d546040516323b872dd60e01b81526001600160a01b03909116906323b872dd9061319690339030908690600401616b44565b6020604051808303816000875af11580156131b5573d6000803e3d6000fd5b505050506040513d601f19601f820116820180604052508101906131d99190616b68565b6131f55760405162461bcd60e51b8152600401610b2d90616bba565b6101365460408051610120810182526001600160a01b038a16815233602082015290810186905260608101839052426080820152600060a082015260c081016001815260200188888080601f01602080910402602001604051908101604052809392919081815260200183838082843760009201829052509385525050604080516020818101835284825294850152858352610132845291829020845181546001600160a01b039182166001600160a01b0319918216178355948601516001808401805492909316919096161790559184015160028301555060608301516003820155608083015160048083019190915560a0840151600583015560c084015160068301805493949193909260ff199091169190849081111561331a5761331a615d5d565b021790555060e082015160078201906133339082616a8c565b5061010082015160088201906133499082616a8c565b505061013680549150600061335d83616e24565b9190505550336001600160a01b0316886001600160a01b0316827f06dec7c18c6d88222831a8e9c277ddd5ce160c41bc15314e7d93f6b45353d90f886040516133a891815260200190565b60405180910390a4925050506133be600160c955565b949350505050565b6133ce6151eb565b6133d6615244565b600061012f83836040516133eb9291906167d5565b90815260200160405180910390209050600081600501541161341f5760405162461bcd60e51b8152600401610b2d90616dcc565b6000600682015460ff16600381111561343a5761343a615d5d565b146134575760405162461bcd60e51b8152600401610b2d90616df7565b60018101546001600160a01b031633146134ab5760405162461bcd60e51b8152602060048201526015602482015274139bdd081c185e5b595b9d081c9958da5c1a595b9d605a1b6044820152606401610b2d565b60058101546134bd9062015180616db9565b4211156134fe5760405162461bcd60e51b815260206004820152600f60248201526e14185e5b595b9d08195e1c1a5c9959608a1b6044820152606401610b2d565b60006127106101375483600201546135169190616d80565b6135209190616d97565b905060008183600201546135349190616db9565b61012d5484546040516370a0823160e01b815292935083926001600160a01b03928316926370a082319261356d9291169060040161621a565b602060405180830381865afa15801561358a573d6000803e3d6000fd5b505050506040513d601f19601f820116820180604052508101906135ae9190616965565b10156135cc5760405162461bcd60e51b8152600401610b2d9061697e565b61012d548354604051636eb1769f60e11b815283926001600160a01b039081169263dd62ed3e92613605929091169030906004016169ac565b602060405180830381865afa158015613622573d6000803e3d6000fd5b505050506040513d601f19601f820116820180604052508101906136469190616965565b10156136645760405162461bcd60e51b8152600401610b2d906169c6565b61012d548354600185015460028601546040516323b872dd60e01b81526001600160a01b03948516946323b872dd946136a69490821693911691600401616b44565b6020604051808303816000875af11580156136c5573d6000803e3d6000fd5b505050506040513d601f19601f820116820180604052508101906136e99190616b68565b6137345760405162461bcd60e51b815260206004820152601c60248201527b151c985b9cd9995c881d1bc81c9958da5c1a595b9d0819985a5b195960221b6044820152606401610b2d565b81156137f75761012d5483546040516323b872dd60e01b81526001600160a01b03928316926323b872dd926137729291169030908790600401616b44565b6020604051808303816000875af1158015613791573d6000803e3d6000fd5b505050506040513d601f19601f820116820180604052508101906137b59190616b68565b6137f75760405162461bcd60e51b8152602060048201526013602482015272151c985b9cd9995c881999594819985a5b1959606a1b6044820152606401610b2d565b60068301805460ff191660011790556002830154610134805460009061381e908490616db9565b909155505060405161383390869086906167d5565b604051908190038120428252907f250cbee58b321813116d5b3523c84b813eaa55482958e914517b1ddfbbeea62a9060200160405180910390a25050506116cb600160c955565b613882615291565b60648111156138a35760405162461bcd60e51b8152600401610b2d90616cd0565b61013955565b6138b16151eb565b600061013183836040516138c69291906167d5565b9081526020016040518091039020905060008160070154116138fa5760405162461bcd60e51b8152600401610b2d90616e3d565b600681015460ff1661391e5760405162461bcd60e51b8152600401610b2d90616e68565b60008160080154116139425760405162461bcd60e51b8152600401610b2d90616e94565b80600801544210156139935760405162461bcd60e51b815260206004820152601a60248201527910da185b1b195b99d9481c195c9a5bd9081b9bdd08195b99195960321b6044820152606401610b2d565b60006127106101395483600401546139ab9190616d80565b6139b59190616d97565b90506000826003015483600201546139cd9190616db9565b60048401549091506139df8383616db9565b1115613a225760405162461bcd60e51b8152602060048201526012602482015271496e73756666696369656e742066756e647360701b6044820152606401610b2d565b600283015415613af45761012d548354600285015460405163a9059cbb60e01b81526001600160a01b039384169363a9059cbb93613a6593911691600401616cb7565b6020604051808303816000875af1158015613a84573d6000803e3d6000fd5b505050506040513d601f19601f82011682018060405250810190613aa89190616b68565b613af45760405162461bcd60e51b815260206004820152601f60248201527f5472616e7366657220746f207061727469636970616e7431206661696c6564006044820152606401610b2d565b600383015415613bc95761012d546001840154600385015460405163a9059cbb60e01b81526001600160a01b039384169363a9059cbb93613b3a93911691600401616cb7565b6020604051808303816000875af1158015613b59573d6000803e3d6000fd5b505050506040513d601f19601f82011682018060405250810190613b7d9190616b68565b613bc95760405162461bcd60e51b815260206004820152601f60248201527f5472616e7366657220746f207061727469636970616e7432206661696c6564006044820152606401610b2d565b5050600601805460ff191690556116cb600160c955565b613be86151eb565b613bf0615244565b60008711613c105760405162461bcd60e51b8152600401610b2d90616b83565b84613c2d5760405162461bcd60e51b8152600401610b2d90616d20565b61012f8686604051613c409291906167d5565b908152602001604051809103902060050154600014613c715760405162461bcd60e51b8152600401610b2d90616d4d565b61012e5460405163fb3551ff60e01b81526001600160a01b039091169063fb3551ff90613ca290339060040161621a565b600060405180830381865afa158015613cbf573d6000803e3d6000fd5b505050506040513d6000823e601f3d908101601f19168201604052613ce7919081019061683a565b60600151613d075760405162461bcd60e51b8152600401610b2d90616936565b61012e5460405163fb3551ff60e01b81526001600160a01b039091169063fb3551ff90613d38908b9060040161621a565b600060405180830381865afa158015613d55573d6000803e3d6000fd5b505050506040513d6000823e601f3d908101601f19168201604052613d7d919081019061683a565b60600151613dc85760405162461bcd60e51b8152602060048201526018602482015277149958da5c1a595b9d081b9bdd081c9959da5cdd195c995960421b6044820152606401610b2d565b60006127106101375489613ddc9190616d80565b613de69190616d97565b90506000613df4828a616db9565b61012d546040516370a0823160e01b815291925082916001600160a01b03909116906370a0823190613e2a90339060040161621a565b602060405180830381865afa158015613e47573d6000803e3d6000fd5b505050506040513d601f19601f82011682018060405250810190613e6b9190616965565b1015613e895760405162461bcd60e51b8152600401610b2d9061697e565b604051806101000160405280336001600160a01b031681526020018b6001600160a01b031681526020018a815260200189898080601f016020809104026020016040519081016040528093929190818152602001838380828437600092019190915250505090825250604080516020601f8a01819004810282018101909252888152918101919089908990819084018382808284376000920182905250938552505042602084015250604090910190815260200185858080601f016020809104026020016040519081016040528093929190818152602001838380828437600092019190915250505091525060405161012f90613f89908b908b906167d5565b9081526040805160209281900383019020835181546001600160a01b03199081166001600160a01b0392831617835593850151600183018054909516911617909255820151600282015560608201516003820190613fe79082616a8c565b5060808201516004820190613ffc9082616a8c565b5060a0820151600582015560c082015160068201805460ff1916600183600381111561402a5761402a615d5d565b021790555060e082015160078201906140439082616a8c565b505061013380549150600061405783616e24565b9190505550896001600160a01b0316336001600160a01b031689896040516140809291906167d5565b6040519081900381208c8252907fbe4986a9bd373a948cdab028597798301db44855e3ce37ed3f167a97b2ff00c39060200160405180910390a450506140c6600160c955565b5050505050505050565b61013260205260009081526040902080546001820154600283015460038401546004850154600586015460068701546007880180546001600160a01b03988916999890971697959694959394929360ff9092169261412d906169f6565b80601f0160208091040260200160405190810160405280929190818152602001828054614159906169f6565b80156141a65780601f1061417b576101008083540402835291602001916141a6565b820191906000526020600020905b81548152906001019060200180831161418957829003601f168201915b5050505050908060080180546141bb906169f6565b80601f01602080910402602001604051908101604052809291908181526020018280546141e7906169f6565b80156142345780601f1061420957610100808354040283529160200191614234565b820191906000526020600020905b81548152906001019060200180831161421757829003601f168201915b5050505050905089565b6142466151eb565b60008181526101326020526040902060048101546142765760405162461bcd60e51b8152600401610b2d90616ec8565b60018101546001600160a01b031633146142c95760405162461bcd60e51b81526020600482015260146024820152732737ba1039b2b93b34b1b29031b7b739bab6b2b960611b6044820152606401610b2d565b6001600682015460ff1660048111156142e4576142e4615d5d565b146143015760405162461bcd60e51b8152600401610b2d90616ef3565b60048101546143139062015180616db9565b4211156143605760405162461bcd60e51b815260206004820152601b60248201527a10d85b98d95b1b185d1a5bdb881c195c9a5bd908195e1c1a5c9959602a1b6044820152606401610b2d565b60068101805460ff19166004908117909155600382015461012d54600184015460405163a9059cbb60e01b815292936001600160a01b039283169363a9059cbb936143af931691869101616cb7565b6020604051808303816000875af11580156143ce573d6000803e3d6000fd5b505050506040513d601f19601f820116820180604052508101906143f29190616b68565b6144375760405162461bcd60e51b81526020600482015260166024820152751499599d5b99081d1c985b9cd9995c8819985a5b195960521b6044820152606401610b2d565b827fdfcd54a1daaac0be3c0576004528a83cd38355e76461bae16ba0b35496a9bef28260405161446991815260200190565b60405180910390a25050611794600160c955565b614485615291565b60648111156144a65760405162461bcd60e51b8152600401610b2d90616cd0565b61013755565b6144f360408051610100810182526000808252602082018190529181018290526060808201819052608082015260a081018290529060c08201908152602001606081525090565b61012f83836040516145069291906167d5565b9081526040805191829003602090810183206101008401835280546001600160a01b0390811685526001820154169184019190915260028101549183019190915260038101805460608401919061455c906169f6565b80601f0160208091040260200160405190810160405280929190818152602001828054614588906169f6565b80156145d55780601f106145aa576101008083540402835291602001916145d5565b820191906000526020600020905b8154815290600101906020018083116145b857829003601f168201915b505050505081526020016004820180546145ee906169f6565b80601f016020809104026020016040519081016040528092919081815260200182805461461a906169f6565b80156146675780601f1061463c57610100808354040283529160200191614667565b820191906000526020600020905b81548152906001019060200180831161464a57829003601f168201915b505050918352505060058201546020820152600682015460409091019060ff16600381111561469857614698615d5d565b60038111156146a9576146a9615d5d565b8152602001600782018054612082906169f6565b6146c56151eb565b6146cd615244565b60006101318a8a6040516146e29291906167d5565b9081526020016040518091039020905060008160070154116147165760405162461bcd60e51b8152600401610b2d90616e3d565b600681015460ff1661473a5760405162461bcd60e51b8152600401610b2d90616e68565b600081600801541161475e5760405162461bcd60e51b8152600401610b2d90616e94565b806008015442106147ac5760405162461bcd60e51b815260206004820152601860248201527710da185b1b195b99d9481c195c9a5bd908195e1c1a5c995960421b6044820152606401610b2d565b80546001600160a01b03163314806147d0575060018101546001600160a01b031633145b6147ec5760405162461bcd60e51b8152600401610b2d90616f21565b8060050154861161483b5760405162461bcd60e51b81526020600482015260196024820152782732bb903737b731b29036bab9ba1031329033b932b0ba32b960391b6044820152606401610b2d565b600481015461484a888a616db9565b11156148685760405162461bcd60e51b8152600401610b2d90616f52565b80546001820154614893918c918c918c918c918c916001600160a01b0391821691168c8c8c8c61561d565b6148af5760405162461bcd60e51b8152600401610b2d90616f88565b60028101889055600381018790556005018590556148cd600160c955565b505050505050505050565b6148e06151eb565b6148e8615244565b60008381526101326020526040902060048101546149185760405162461bcd60e51b8152600401610b2d90616ec8565b80546001600160a01b031633146149685760405162461bcd60e51b81526020600482015260146024820152732737ba1039b2b93b34b1b290383937bb34b232b960611b6044820152606401610b2d565b6001600682015460ff16600481111561498357614983615d5d565b146149a05760405162461bcd60e51b8152600401610b2d90616ef3565b816149e25760405162461bcd60e51b8152602060048201526012602482015271125b9d985b1a59081c995cdd5b1d0810d25160721b6044820152606401610b2d565b60048101546149f49062278d00616db9565b421115614a355760405162461bcd60e51b815260206004820152600f60248201526e14d95c9d9a58d948195e1c1a5c9959608a1b6044820152606401610b2d565b60068101805460ff1916600317905542600582015560088101614a59838583616fb4565b50600281015461012d54825460405163a9059cbb60e01b81526001600160a01b039283169263a9059cbb92614a95929116908590600401616cb7565b6020604051808303816000875af1158015614ab4573d6000803e3d6000fd5b505050506040513d601f19601f82011682018060405250810190614ad89190616b68565b614b225760405162461bcd60e51b815260206004820152601b60248201527a151c985b9cd9995c881d1bc81c1c9bdd9a59195c8819985a5b1959602a1b6044820152606401610b2d565b81600201546101346000828254614b399190616db9565b909155505081546040518281526001600160a01b039091169086907fdfe26c98cae1ef5813404434c2e555993978239350f8933b1ad9b406b36d7cd69060200160405180910390a35050611eb2600160c955565b614b956151eb565b600081815261013e602090815260408083205461013f8352818420546101409093529220546001600160a01b039091169082614be35760405162461bcd60e51b8152600401610b2d90616cf7565b600084815261013c602052604090205460ff1615614c135760405162461bcd60e51b8152600401610b2d90616c5d565b614c206276a70082616db9565b421015614c615760405162461bcd60e51b815260206004820152600f60248201526e139bdd08195e1c1a5c9959081e595d608a1b6044820152606401610b2d565b600084815261013e6020908152604080832083905561013f825280832080546001600160a01b03191690556101409091528082209190915561012d54905163a9059cbb60e01b81526001600160a01b039091169063a9059cbb90614ccb9085908790600401616cb7565b6020604051808303816000875af1158015614cea573d6000803e3d6000fd5b505050506040513d601f19601f82011682018060405250810190614d0e9190616b68565b614d2a5760405162461bcd60e51b8152600401610b2d90616bba565b816001600160a01b03168460008051602061712883398151915285604051614d5491815260200190565b60405180910390a3505050611794600160c955565b614d71615291565b6001600160a01b038116614dd65760405162461bcd60e51b815260206004820152602660248201527f4f776e61626c653a206e6577206f776e657220697320746865207a65726f206160448201526564647265737360d01b6064820152608401610b2d565b6117948161558e565b614de76151eb565b614def615244565b60006101318a8a604051614e049291906167d5565b908152602001604051809103902090506000816007015411614e385760405162461bcd60e51b8152600401610b2d90616e3d565b600681015460ff16614e5c5760405162461bcd60e51b8152600401610b2d90616e68565b80546001600160a01b0316331480614e80575060018101546001600160a01b031633145b614e9c5760405162461bcd60e51b8152600401610b2d90616f21565b80600501548611614efa5760405162461bcd60e51b815260206004820152602260248201527f4e6f6e6365206d7573742062652067726561746572207468616e2063757272656044820152611b9d60f21b6064820152608401610b2d565b6004810154614f09888a616db9565b1115614f275760405162461bcd60e51b8152600401610b2d90616f52565b80546001820154614f52918c918c918c918c918c916001600160a01b0391821691168c8c8c8c61561d565b614f6e5760405162461bcd60e51b8152600401610b2d90616f88565b600281018890556003810187905560058101869055614f906201518042616db9565b6008820155604051614fa5908b908b906167d5565b604080519182900382208a8352602083018a9052917ff99f0eb243f937711c5d87f21420229c0a7f2f1b40e5795c3b18e73f52ae0da4910160405180910390a2506148cd600160c955565b805160208183018101805161012f8252928201919093012091528054600182015460028301546003840180546001600160a01b039485169594909316939192615038906169f6565b80601f0160208091040260200160405190810160405280929190818152602001828054615064906169f6565b80156150b15780601f10615086576101008083540402835291602001916150b1565b820191906000526020600020905b81548152906001019060200180831161509457829003601f168201915b5050505050908060040180546150c6906169f6565b80601f01602080910402602001604051908101604052809291908181526020018280546150f2906169f6565b801561513f5780601f106151145761010080835404028352916020019161513f565b820191906000526020600020905b81548152906001019060200180831161512257829003601f168201915b50505050600583015460068401546007850180549495929460ff909216935090615168906169f6565b80601f0160208091040260200160405190810160405280929190818152602001828054615194906169f6565b80156151e15780601f106151b6576101008083540402835291602001916151e1565b820191906000526020600020905b8154815290600101906020018083116151c457829003601f168201915b5050505050905088565b600260c9540361523d5760405162461bcd60e51b815260206004820152601f60248201527f5265656e7472616e637947756172643a207265656e7472616e742063616c6c006044820152606401610b2d565b600260c955565b60fb5460ff1615611a365760405162461bcd60e51b815260206004820152601060248201526f14185d5cd8589b194e881c185d5cd95960821b6044820152606401610b2d565b600160c955565b3361529a612d3b565b6001600160a01b031614611a365760405162461bcd60e51b815260206004820181905260248201527f4f776e61626c653a2063616c6c6572206973206e6f7420746865206f776e65726044820152606401610b2d565b600080516020617108833981519152546001600160a01b031690565b611794615291565b7f4910fdfa16fed3260ed0e7147f7cc6da11a60208b5b9406d12a635614ffd91435460ff161561534757611eb283615759565b826001600160a01b03166352d1902d6040518163ffffffff1660e01b8152600401602060405180830381865afa9250505080156153a1575060408051601f3d908101601f1916820190925261539e91810190616965565b60015b6154045760405162461bcd60e51b815260206004820152602e60248201527f45524331393637557067726164653a206e657720696d706c656d656e7461746960448201526d6f6e206973206e6f74205555505360901b6064820152608401610b2d565b60008051602061710883398151915281146154735760405162461bcd60e51b815260206004820152602960248201527f45524331393637557067726164653a20756e737570706f727465642070726f786044820152681a58589b195555525160ba1b6064820152608401610b2d565b50611eb28383836157f3565b615487615818565b60fb805460ff191690557f5db9ee0a495bf2e6ff9c91a7834c1ba4fdd244a5e8aa4e537bd38aeae4b073aa335b6040516154c1919061621a565b60405180910390a1565b6001600160a01b03163b151590565b600054610100900460ff166155015760405162461bcd60e51b8152600401610b2d9061706d565b611a36615861565b600054610100900460ff16611a365760405162461bcd60e51b8152600401610b2d9061706d565b600054610100900460ff166155575760405162461bcd60e51b8152600401610b2d9061706d565b611a36615891565b600054610100900460ff166155865760405162461bcd60e51b8152600401610b2d9061706d565b611a366158b8565b609780546001600160a01b038381166001600160a01b0319831681179093556040519116919082907f8be0079c531659141344cd1fd0a4f28419497f9722a3daafe3b4186f6b6457e090600090a35050565b6155e8615244565b60fb805460ff191660011790557f62e78cea01bee320cd4e420270b5ea74000d11b0c9f74754ebdbfc544b05a2586154b43390565b60008060008051602061716f8339815191528d8d60405161563f9291906167d5565b6040805191829003822060208084019490945282820152606082018e9052608082018d905260a08083018d90528151808403909101815260c0830182528051908401206101415461190160f01b60e085015260e2840152610102808401829052825180850390910181526101229093019091528151919092012090915060006156c98289896158eb565b905060006156d88388886158eb565b90508a6001600160a01b0316826001600160a01b031614801561570c5750896001600160a01b0316816001600160a01b0316145b806157445750896001600160a01b0316826001600160a01b031614801561574457508a6001600160a01b0316816001600160a01b0316145b9450505050509b9a5050505050505050505050565b615762816154cb565b6157c45760405162461bcd60e51b815260206004820152602d60248201527f455243313936373a206e657720696d706c656d656e746174696f6e206973206e60448201526c1bdd08184818dbdb9d1c9858dd609a1b6064820152608401610b2d565b60008051602061710883398151915280546001600160a01b0319166001600160a01b0392909216919091179055565b6157fc83615a04565b6000825111806158095750805b15611eb25761117f8383615a44565b60fb5460ff16611a365760405162461bcd60e51b815260206004820152601460248201527314185d5cd8589b194e881b9bdd081c185d5cd95960621b6044820152606401610b2d565b600054610100900460ff166158885760405162461bcd60e51b8152600401610b2d9061706d565b611a363361558e565b600054610100900460ff1661528a5760405162461bcd60e51b8152600401610b2d9061706d565b600054610100900460ff166158df5760405162461bcd60e51b8152600401610b2d9061706d565b60fb805460ff19169055565b6000604182146159385760405162461bcd60e51b8152602060048201526018602482015277092dcecc2d8d2c840e6d2cedcc2e8eae4ca40d8cadccee8d60431b6044820152606401610b2d565b82356020840135604085013560001a6fa2a8918ca85bafe22016d0b997e4df60600160ff1b0382111561597157600093505050506159fd565b8060ff16601b1415801561598957508060ff16601c14155b1561599a57600093505050506159fd565b60408051600081526020810180835289905260ff831691810191909152606081018490526080810183905260019060a0016020604051602081039080840390855afa1580156159ed573d6000803e3d6000fd5b5050506020604051035193505050505b9392505050565b615a0d81615759565b6040516001600160a01b038216907fbc7cd75a20ee27fd9adebab32041f755214dbc6bffa90cc0225b39da2e5c2d3b90600090a250565b60606159fd8383604051806060016040528060278152602001617148602791396060600080856001600160a01b031685604051615a8191906170b8565b600060405180830381855af49150503d8060008114615abc576040519150601f19603f3d011682016040523d82523d6000602084013e615ac1565b606091505b5091509150615ad286838387615adc565b9695505050505050565b60608315615b49578251600003615b4257615af6856154cb565b615b425760405162461bcd60e51b815260206004820152601d60248201527f416464726573733a2063616c6c20746f206e6f6e2d636f6e74726163740000006044820152606401610b2d565b50816133be565b6133be8383815115615b5e5781518083602001fd5b8060405162461bcd60e51b8152600401610b2d91906170d4565b60405180610120016040528060006001600160a01b0316815260200160006001600160a01b031681526020016000815260200160008152602001600081526020016000815260200160006004811115615bd357615bd3615d5d565b815260200160608152602001606081525090565b60405180610100016040528060006001600160a01b0316815260200160006001600160a01b03168152602001600081526020016000815260200160608152602001606081526020016000815260200160006003811115615c4957615c49615d5d565b905290565b80356001600160a01b0381168114615c6557600080fd5b919050565b60008083601f840112615c7c57600080fd5b5081356001600160401b03811115615c9357600080fd5b602083019150836020828501011115615cab57600080fd5b9250929050565b60008060008060608587031215615cc857600080fd5b615cd185615c4e565b93506020850135925060408501356001600160401b03811115615cf357600080fd5b615cff87828801615c6a565b95989497509550505050565b600060208284031215615d1d57600080fd5b5035919050565b60008060408385031215615d3757600080fd5b82359150615d4760208401615c4e565b90509250929050565b6001600160a01b03169052565b634e487b7160e01b600052602160045260246000fd5b60058110615d8357615d83615d5d565b9052565b60005b83811015615da2578181015183820152602001615d8a565b50506000910152565b60008151808452615dc3816020860160208601615d87565b601f01601f19169290920160200192915050565b60208152615de9602082018351615d50565b60006020830151615dfd6040840182615d50565b506040830151606083015260608301516080830152608083015160a083015260a083015160c083015260c0830151615e3860e0840182615d73565b5060e0830151610120610100840152615e55610140840182615dab565b9050610100840151601f1984830301610120850152615e748282615dab565b95945050505050565b60008060408385031215615e9057600080fd5b50508035926020909101359150565b600060208284031215615eb157600080fd5b6159fd82615c4e565b60008060008060006101808688031215615ed357600080fd5b8535945060208601359350610140860187811115615ef057600080fd5b604087019350615eff81615c4e565b9598949750929561016001359392505050565b634e487b7160e01b600052604160045260246000fd5b60405161014081016001600160401b0381118282101715615f4b57615f4b615f12565b60405290565b604051601f8201601f191681016001600160401b0381118282101715615f7957615f79615f12565b604052919050565b60006001600160401b03821115615f9a57615f9a615f12565b50601f01601f191660200190565b6000615fbb615fb684615f81565b615f51565b9050828152838383011115615fcf57600080fd5b828260208301376000602084830101529392505050565b600060208284031215615ff857600080fd5b81356001600160401b0381111561600e57600080fd5b8201601f8101841361601f57600080fd5b6133be84823560208401615fa8565b6004811061179457611794615d5d565b615d838161602e565b6001600160a01b0389811682528816602082015260408101879052606081018690526101006080820181905260009061608290830187615dab565b82810360a08401526160948187615dab565b9150508360c08301526160a68361602e565b8260e08301529998505050505050505050565b600080604083850312156160cc57600080fd5b6160d583615c4e565b9150615d4760208401615c4e565b600080604083850312156160f657600080fd5b6160ff83615c4e565b915060208301356001600160401b0381111561611a57600080fd5b8301601f8101851361612b57600080fd5b61613a85823560208401615fa8565b9150509250929050565b6000806020838503121561615757600080fd5b82356001600160401b0381111561616d57600080fd5b61617985828601615c6a565b90969095509350505050565b60208152616197602082018351615d50565b600060208301516161ab6040840182615d50565b506040830151606083015260608301516080830152608083015160a083015260a083015160c083015260c08301516161e760e084018215159052565b5060e0830151610100830152610100830151610120830152610120830151610140808401526133be610160840182615dab565b6001600160a01b0391909116815260200190565b600080600080600080600060a0888a03121561624957600080fd5b61625288615c4e565b9650602088013595506040880135945060608801356001600160401b0381111561627b57600080fd5b6162878a828b01615c6a565b90955093505060808801356001600160401b038111156162a657600080fd5b6162b28a828b01615c6a565b989b979a50959850939692959293505050565b60018060a01b038b16815260018060a01b038a1660208201528860408201528760608201528660808201528560a082015284151560c08201528360e0820152826101008201526101406101208201526000616324610140830184615dab565b9c9b505050505050505050505050565b6000806000806040858703121561634a57600080fd5b84356001600160401b0381111561636057600080fd5b61636c87828801615c6a565b90955093505060208501356001600160401b03811115615cf357600080fd5b602080825282516001600160a01b0316828201528201516000906163b26040840182615d50565b506040830151606083015260608301516080830152608083015161010060a08401526163e2610120840182615dab565b905060a0840151601f198483030160c08501526163ff8282615dab565b91505060c084015160e084015260e084015161641f61010085018261603e565b509392505050565b6000806000806060858703121561643d57600080fd5b61644685615c4e565b935060208501356001600160401b0381111561646157600080fd5b61646d87828801615c6a565b9598909750949560400135949350505050565b60008060008060008060008060a0898b03121561649c57600080fd5b6164a589615c4e565b97506020890135965060408901356001600160401b038111156164c757600080fd5b6164d38b828c01615c6a565b90975095505060608901356001600160401b038111156164f257600080fd5b6164fe8b828c01615c6a565b90955093505060808901356001600160401b0381111561651d57600080fd5b6165298b828c01615c6a565b999c989b5096995094979396929594505050565b6001600160a01b038a811682528916602082015260408101889052606081018790526080810186905260a0810185905261657a60c0820185615d73565b61012060e08201526000616592610120830185615dab565b8281036101008401526163248185615dab565b602081526165b7602082018351615d50565b600060208301516165cb6040840182615d50565b5060408301516060830152606083015161010060808401526165f1610120840182615dab565b90506080840151601f198483030160a085015261660e8282615dab565b91505060a084015160c084015260c084015161662d60e085018261603e565b5060e0840151838203601f1901610100850152615e748282615dab565b600080600080600080600080600060c08a8c03121561666857600080fd5b89356001600160401b0381111561667e57600080fd5b61668a8c828d01615c6a565b909a5098505060208a0135965060408a0135955060608a0135945060808a01356001600160401b038111156166be57600080fd5b6166ca8c828d01615c6a565b90955093505060a08a01356001600160401b038111156166e957600080fd5b6166f58c828d01615c6a565b915080935050809150509295985092959850929598565b60008060006040848603121561672157600080fd5b8335925060208401356001600160401b0381111561673e57600080fd5b61674a86828701615c6a565b9497909650939450505050565b6001600160a01b03898116825288166020820152604081018790526101006060820181905260009061678b90830188615dab565b828103608084015261679d8188615dab565b90508560a08401526167ae8561602e565b8460c084015282810360e08401526167c68185615dab565b9b9a5050505050505050505050565b8183823760009101908152919050565b600082601f8301126167f657600080fd5b8151616804615fb682615f81565b81815284602083860101111561681957600080fd5b6133be826020830160208701615d87565b80518015158114615c6557600080fd5b60006020828403121561684c57600080fd5b81516001600160401b0381111561686257600080fd5b8201610140818503121561687557600080fd5b61687d615f28565b81516001600160401b0381111561689357600080fd5b61689f868285016167e5565b82525060208201516001600160401b038111156168bb57600080fd5b6168c7868285016167e5565b602083015250604082810151908201526168e36060830161682a565b60608201526080828101519082015260a0808301519082015260c0808301519082015260e080830151908201526101008083015190820152616928610120830161682a565b610120820152949350505050565b60208082526015908201527414d95b99195c881b9bdd081c9959da5cdd195c9959605a1b604082015260600190565b60006020828403121561697757600080fd5b5051919050565b602080825260149082015273496e73756666696369656e742062616c616e636560601b604082015260600190565b6001600160a01b0392831681529116602082015260400190565b602080825260169082015275496e73756666696369656e7420616c6c6f77616e636560501b604082015260600190565b600181811c90821680616a0a57607f821691505b602082108103616a2a57634e487b7160e01b600052602260045260246000fd5b50919050565b601f821115611eb257806000526020600020601f840160051c81016020851015616a575750805b601f840160051c820191505b81811015611a1f5760008155600101616a63565b600019600383901b1c191660019190911b1790565b81516001600160401b03811115616aa557616aa5615f12565b616ab981616ab384546169f6565b84616a30565b6020601f821160018114616ae75760008315616ad55750848201515b616adf8482616a77565b855550611a1f565b600084815260208120601f198516915b82811015616b175787850151825560209485019460019092019101616af7565b5084821015616b355786840151600019600387901b60f8161c191681555b50505050600190811b01905550565b6001600160a01b039384168152919092166020820152604081019190915260600190565b600060208284031215616b7a57600080fd5b6159fd8261682a565b6020808252601d908201527f416d6f756e74206d7573742062652067726561746572207468616e2030000000604082015260600190565b602080825260159082015274151bdad95b881d1c985b9cd9995c8819985a5b1959605a1b604082015260600190565b6020808252602c908201526000805160206170e883398151915260408201526b19195b1959d85d1958d85b1b60a21b606082015260800190565b6020808252602c908201526000805160206170e883398151915260408201526b6163746976652070726f787960a01b606082015260800190565b60208082526017908201527610dbdb5b5a5d1b595b9d08185b1c9958591e481d5cd959604a1b604082015260600190565b634e487b7160e01b600052601160045260246000fd5b8181038181111561210757612107616c8e565b6001600160a01b03929092168252602082015260400190565b6020808252600d908201526c0a4c2e8ca40e8dede40d0d2ced609b1b604082015260600190565b6020808252600f908201526e4e6f206c6f636b65642066756e647360881b604082015260600190565b60208082526013908201527214185e5b595b9d081251081c995c5d5a5c9959606a1b604082015260600190565b6020808252601990820152785061796d656e7420494420616c72656164792065786973747360381b604082015260600190565b808202811582820484141761210757612107616c8e565b600082616db457634e487b7160e01b600052601260045260246000fd5b500490565b8082018082111561210757612107616c8e565b60208082526011908201527014185e5b595b9d081b9bdd08199bdd5b99607a1b604082015260600190565b6020808252601390820152725061796d656e74206e6f742070656e64696e6760681b604082015260600190565b600060018201616e3657616e36616c8e565b5060010190565b60208082526011908201527010da185b9b995b081b9bdd08199bdd5b99607a1b604082015260600190565b6020808252601290820152714368616e6e656c206e6f742061637469766560701b604082015260600190565b6020808252601a9082015279139bc81858dd1a5d994818da185b1b195b99d9481c195c9a5bd960321b604082015260600190565b60208082526011908201527014d95c9d9a58d9481b9bdd08199bdd5b99607a1b604082015260600190565b60208082526014908201527314d95c9d9a58d9481b9bdd08195cd8dc9bddd95960621b604082015260600190565b602080825260179082015276139bdd0818da185b9b995b081c185c9d1a58da5c185b9d604a1b604082015260600190565b6020808252601c908201527b24b73b30b634b2103130b630b731b2903234b9ba3934b13aba34b7b760211b604082015260600190565b602080825260129082015271496e76616c6964207369676e61747572657360701b604082015260600190565b6001600160401b03831115616fcb57616fcb615f12565b616fdf83616fd983546169f6565b83616a30565b6000601f84116001811461700d5760008515616ffb5750838201355b6170058682616a77565b845550611a1f565b600083815260209020601f19861690835b8281101561703e578685013582556020948501946001909201910161701e565b508682101561705b5760001960f88860031b161c19848701351681555b505060018560011b0183555050505050565b6020808252602b908201527f496e697469616c697a61626c653a20636f6e7472616374206973206e6f74206960408201526a6e697469616c697a696e6760a81b606082015260800190565b600082516170ca818460208701615d87565b9190910192915050565b6020815260006159fd6020830184615dab56fe46756e6374696f6e206d7573742062652063616c6c6564207468726f75676820360894a13ba1a3210667c828492db98dca3e2076cc3735a920a3ca505d382bbc832547f4270ea70d5504358fcf8ea362c49cc939e7de847299469d7301c46fe8416464726573733a206c6f772d6c6576656c2064656c65676174652063616c6c206661696c656451bdbf353b7cbf52cc176da58865d6049026a4e0b6c72d9bf6d8ac72dfdac3cba2646970667358221220143602783081f91022f2654c5b82dcc506c2b08cd3db39ed4b7a828899d5a3b764736f6c634300081e0033",
  "linkReferences": {},
  "deployedLinkReferences": {}
}