{
  "_format": "hh-sol-artifact-1",
  "contractName": "DIAPGovernance",
  "sourceName": "contracts/DIAPGovernance.sol",
  "abi": [
    {
      "inputs": [
        {
          "internalType": "contract IVotes",
          "name": "_token",
          "type": "address"
        },
        {
          "internalType": "contract TimelockController",
          "name": "_timelock",
          "type": "address"
        },
        {
          "internalType": "contract DIAPAgentNetwork",
          "name": "_agentNetwork",
          "type": "address"
        }
      ],
      "stateMutability": "nonpayable",
      "type": "constructor"
    },
    {
      "inputs": [],
      "name": "Empty",
      "type": "error"
    },
    {
      "inputs": [],
      "name": "InvalidShortString",
      "type": "error"
    },
    {
      "inputs": [
        {
          "internalType": "string",
          "name": "str",
          "type": "string"
        }
      ],
      "name": "StringTooLong",
      "type": "error"
    },
    {
      "anonymous": false,
      "inputs": [],
      "name": "EIP712DomainChanged",
      "type": "event"
    },
    {
      "anonymous": false,
      "inputs": [
        {
          "indexed": true,
          "internalType": "address",
          "name": "executor",
          "type": "address"
        },
        {
          "indexed": false,
          "internalType": "string",
          "name": "action",
          "type": "string"
        },
        {
          "indexed": false,
          "internalType": "uint256",
          "name": "timestamp",
          "type": "uint256"
        }
      ],
      "name": "EmergencyActionExecuted",
      "type": "event"
    },
    {
      "anonymous": false,
      "inputs": [
        {
          "indexed": false,
          "internalType": "string",
          "name": "parameter",
          "type": "string"
        },
        {
          "indexed": false,
          "internalType": "uint256",
          "name": "oldValue",
          "type": "uint256"
        },
        {
          "indexed": false,
          "internalType": "uint256",
          "name": "newValue",
          "type": "uint256"
        }
      ],
      "name": "GovernanceParameterUpdated",
      "type": "event"
    },
    {
      "anonymous": false,
      "inputs": [
        {
          "indexed": true,
          "internalType": "address",
          "name": "previousOwner",
          "type": "address"
        },
        {
          "indexed": true,
          "internalType": "address",
          "name": "newOwner",
          "type": "address"
        }
      ],
      "name": "OwnershipTransferred",
      "type": "event"
    },
    {
      "anonymous": false,
      "inputs": [
        {
          "indexed": false,
          "internalType": "uint256",
          "name": "proposalId",
          "type": "uint256"
        }
      ],
      "name": "ProposalCanceled",
      "type": "event"
    },
    {
      "anonymous": false,
      "inputs": [
        {
          "indexed": true,
          "internalType": "uint256",
          "name": "proposalId",
          "type": "uint256"
        },
        {
          "indexed": true,
          "internalType": "enum DIAPGovernance.ProposalType",
          "name": "proposalType",
          "type": "uint8"
        },
        {
          "indexed": true,
          "internalType": "address",
          "name": "proposer",
          "type": "address"
        },
        {
          "indexed": false,
          "internalType": "string",
          "name": "description",
          "type": "string"
        }
      ],
      "name": "ProposalCreated",
      "type": "event"
    },
    {
      "anonymous": false,
      "inputs": [
        {
          "indexed": false,
          "internalType": "uint256",
          "name": "proposalId",
          "type": "uint256"
        },
        {
          "indexed": false,
          "internalType": "address",
          "name": "proposer",
          "type": "address"
        },
        {
          "indexed": false,
          "internalType": "address[]",
          "name": "targets",
          "type": "address[]"
        },
        {
          "indexed": false,
          "internalType": "uint256[]",
          "name": "values",
          "type": "uint256[]"
        },
        {
          "indexed": false,
          "internalType": "string[]",
          "name": "signatures",
          "type": "string[]"
        },
        {
          "indexed": false,
          "internalType": "bytes[]",
          "name": "calldatas",
          "type": "bytes[]"
        },
        {
          "indexed": false,
          "internalType": "uint256",
          "name": "voteStart",
          "type": "uint256"
        },
        {
          "indexed": false,
          "internalType": "uint256",
          "name": "voteEnd",
          "type": "uint256"
        },
        {
          "indexed": false,
          "internalType": "string",
          "name": "description",
          "type": "string"
        }
      ],
      "name": "ProposalCreated",
      "type": "event"
    },
    {
      "anonymous": false,
      "inputs": [
        {
          "indexed": true,
          "internalType": "uint256",
          "name": "proposalId",
          "type": "uint256"
        },
        {
          "indexed": true,
          "internalType": "enum DIAPGovernance.ProposalType",
          "name": "proposalType",
          "type": "uint8"
        }
      ],
      "name": "ProposalExecuted",
      "type": "event"
    },
    {
      "anonymous": false,
      "inputs": [
        {
          "indexed": false,
          "internalType": "uint256",
          "name": "proposalId",
          "type": "uint256"
        }
      ],
      "name": "ProposalExecuted",
      "type": "event"
    },
    {
      "anonymous": false,
      "inputs": [
        {
          "indexed": false,
          "internalType": "uint256",
          "name": "proposalId",
          "type": "uint256"
        },
        {
          "indexed": false,
          "internalType": "uint256",
          "name": "eta",
          "type": "uint256"
        }
      ],
      "name": "ProposalQueued",
      "type": "event"
    },
    {
      "anonymous": false,
      "inputs": [
        {
          "indexed": false,
          "internalType": "uint256",
          "name": "oldProposalThreshold",
          "type": "uint256"
        },
        {
          "indexed": false,
          "internalType": "uint256",
          "name": "newProposalThreshold",
          "type": "uint256"
        }
      ],
      "name": "ProposalThresholdSet",
      "type": "event"
    },
    {
      "anonymous": false,
      "inputs": [
        {
          "indexed": false,
          "internalType": "uint256",
          "name": "oldQuorumNumerator",
          "type": "uint256"
        },
        {
          "indexed": false,
          "internalType": "uint256",
          "name": "newQuorumNumerator",
          "type": "uint256"
        }
      ],
      "name": "QuorumNumeratorUpdated",
      "type": "event"
    },
    {
      "anonymous": false,
      "inputs": [
        {
          "indexed": false,
          "internalType": "address",
          "name": "oldTimelock",
          "type": "address"
        },
        {
          "indexed": false,
          "internalType": "address",
          "name": "newTimelock",
          "type": "address"
        }
      ],
      "name": "TimelockChange",
      "type": "event"
    },
    {
      "anonymous": false,
      "inputs": [
        {
          "indexed": true,
          "internalType": "address",
          "name": "voter",
          "type": "address"
        },
        {
          "indexed": false,
          "internalType": "uint256",
          "name": "proposalId",
          "type": "uint256"
        },
        {
          "indexed": false,
          "internalType": "uint8",
          "name": "support",
          "type": "uint8"
        },
        {
          "indexed": false,
          "internalType": "uint256",
          "name": "weight",
          "type": "uint256"
        },
        {
          "indexed": false,
          "internalType": "string",
          "name": "reason",
          "type": "string"
        }
      ],
      "name": "VoteCast",
      "type": "event"
    },
    {
      "anonymous": false,
      "inputs": [
        {
          "indexed": true,
          "internalType": "address",
          "name": "voter",
          "type": "address"
        },
        {
          "indexed": false,
          "internalType": "uint256",
          "name": "proposalId",
          "type": "uint256"
        },
        {
          "indexed": false,
          "internalType": "uint8",
          "name": "support",
          "type": "uint8"
        },
        {
          "indexed": false,
          "internalType": "uint256",
          "name": "weight",
          "type": "uint256"
        },
        {
          "indexed": false,
          "internalType": "string",
          "name": "reason",
          "type": "string"
        },
        {
          "indexed": false,
          "internalType": "bytes",
          "name": "params",
          "type": "bytes"
        }
      ],
      "name": "VoteCastWithParams",
      "type": "event"
    },
    {
      "anonymous": false,
      "inputs": [
        {
          "indexed": false,
          "internalType": "uint256",
          "name": "oldVotingDelay",
          "type": "uint256"
        },
        {
          "indexed": false,
          "internalType": "uint256",
          "name": "newVotingDelay",
          "type": "uint256"
        }
      ],
      "name": "VotingDelaySet",
      "type": "event"
    },
    {
      "anonymous": false,
      "inputs": [
        {
          "indexed": false,
          "internalType": "uint256",
          "name": "oldVotingPeriod",
          "type": "uint256"
        },
        {
          "indexed": false,
          "internalType": "uint256",
          "name": "newVotingPeriod",
          "type": "uint256"
        }
      ],
      "name": "VotingPeriodSet",
      "type": "event"
    },
    {
      "inputs": [],
      "name": "BALLOT_TYPEHASH",
      "outputs": [
        {
          "internalType": "bytes32",
          "name": "",
          "type": "bytes32"
        }
      ],
      "stateMutability": "view",
      "type": "function"
    },
    {
      "inputs": [],
      "name": "CLOCK_MODE",
      "outputs": [
        {
          "internalType": "string",
          "name": "",
          "type": "string"
        }
      ],
      "stateMutability": "view",
      "type": "function"
    },
    {
      "inputs": [],
      "name": "COUNTING_MODE",
      "outputs": [
        {
          "internalType": "string",
          "name": "",
          "type": "string"
        }
      ],
      "stateMutability": "pure",
      "type": "function"
    },
    {
      "inputs": [],
      "name": "EMERGENCY_QUORUM_FRACTION",
      "outputs": [
        {
          "internalType": "uint256",
          "name": "",
          "type": "uint256"
        }
      ],
      "stateMutability": "view",
      "type": "function"
    },
    {
      "inputs": [],
      "name": "EMERGENCY_VOTING_PERIOD",
      "outputs": [
        {
          "internalType": "uint256",
          "name": "",
          "type": "uint256"
        }
      ],
      "stateMutability": "view",
      "type": "function"
    },
    {
      "inputs": [],
      "name": "EXECUTION_DELAY",
      "outputs": [
        {
          "internalType": "uint256",
          "name": "",
          "type": "uint256"
        }
      ],
      "stateMutability": "view",
      "type": "function"
    },
    {
      "inputs": [],
      "name": "EXTENDED_BALLOT_TYPEHASH",
      "outputs": [
        {
          "internalType": "bytes32",
          "name": "",
          "type": "bytes32"
        }
      ],
      "stateMutability": "view",
      "type": "function"
    },
    {
      "inputs": [],
      "name": "PROPOSAL_THRESHOLD",
      "outputs": [
        {
          "internalType": "uint256",
          "name": "",
          "type": "uint256"
        }
      ],
      "stateMutability": "view",
      "type": "function"
    },
    {
      "inputs": [],
      "name": "QUORUM_FRACTION",
      "outputs": [
        {
          "internalType": "uint256",
          "name": "",
          "type": "uint256"
        }
      ],
      "stateMutability": "view",
      "type": "function"
    },
    {
      "inputs": [],
      "name": "VOTING_DELAY",
      "outputs": [
        {
          "internalType": "uint256",
          "name": "",
          "type": "uint256"
        }
      ],
      "stateMutability": "view",
      "type": "function"
    },
    {
      "inputs": [],
      "name": "VOTING_PERIOD",
      "outputs": [
        {
          "internalType": "uint256",
          "name": "",
          "type": "uint256"
        }
      ],
      "stateMutability": "view",
      "type": "function"
    },
    {
      "inputs": [],
      "name": "agentNetwork",
      "outputs": [
        {
          "internalType": "contract DIAPAgentNetwork",
          "name": "",
          "type": "address"
        }
      ],
      "stateMutability": "view",
      "type": "function"
    },
    {
      "inputs": [
        {
          "internalType": "address[]",
          "name": "targets",
          "type": "address[]"
        },
        {
          "internalType": "uint256[]",
          "name": "values",
          "type": "uint256[]"
        },
        {
          "internalType": "bytes[]",
          "name": "calldatas",
          "type": "bytes[]"
        },
        {
          "internalType": "bytes32",
          "name": "descriptionHash",
          "type": "bytes32"
        }
      ],
      "name": "cancel",
      "outputs": [
        {
          "internalType": "uint256",
          "name": "",
          "type": "uint256"
        }
      ],
      "stateMutability": "nonpayable",
      "type": "function"
    },
    {
      "inputs": [
        {
          "internalType": "uint256",
          "name": "proposalId",
          "type": "uint256"
        },
        {
          "internalType": "uint8",
          "name": "support",
          "type": "uint8"
        }
      ],
      "name": "castVote",
      "outputs": [
        {
          "internalType": "uint256",
          "name": "",
          "type": "uint256"
        }
      ],
      "stateMutability": "nonpayable",
      "type": "function"
    },
    {
      "inputs": [
        {
          "internalType": "uint256",
          "name": "proposalId",
          "type": "uint256"
        },
        {
          "internalType": "uint8",
          "name": "support",
          "type": "uint8"
        },
        {
          "internalType": "uint8",
          "name": "v",
          "type": "uint8"
        },
        {
          "internalType": "bytes32",
          "name": "r",
          "type": "bytes32"
        },
        {
          "internalType": "bytes32",
          "name": "s",
          "type": "bytes32"
        }
      ],
      "name": "castVoteBySig",
      "outputs": [
        {
          "internalType": "uint256",
          "name": "",
          "type": "uint256"
        }
      ],
      "stateMutability": "nonpayable",
      "type": "function"
    },
    {
      "inputs": [
        {
          "internalType": "uint256",
          "name": "proposalId",
          "type": "uint256"
        },
        {
          "internalType": "uint8",
          "name": "support",
          "type": "uint8"
        },
        {
          "internalType": "string",
          "name": "reason",
          "type": "string"
        }
      ],
      "name": "castVoteWithReason",
      "outputs": [
        {
          "internalType": "uint256",
          "name": "",
          "type": "uint256"
        }
      ],
      "stateMutability": "nonpayable",
      "type": "function"
    },
    {
      "inputs": [
        {
          "internalType": "uint256",
          "name": "proposalId",
          "type": "uint256"
        },
        {
          "internalType": "uint8",
          "name": "support",
          "type": "uint8"
        },
        {
          "internalType": "string",
          "name": "reason",
          "type": "string"
        },
        {
          "internalType": "bytes",
          "name": "params",
          "type": "bytes"
        }
      ],
      "name": "castVoteWithReasonAndParams",
      "outputs": [
        {
          "internalType": "uint256",
          "name": "",
          "type": "uint256"
        }
      ],
      "stateMutability": "nonpayable",
      "type": "function"
    },
    {
      "inputs": [
        {
          "internalType": "uint256",
          "name": "proposalId",
          "type": "uint256"
        },
        {
          "internalType": "uint8",
          "name": "support",
          "type": "uint8"
        },
        {
          "internalType": "string",
          "name": "reason",
          "type": "string"
        },
        {
          "internalType": "bytes",
          "name": "params",
          "type": "bytes"
        },
        {
          "internalType": "uint8",
          "name": "v",
          "type": "uint8"
        },
        {
          "internalType": "bytes32",
          "name": "r",
          "type": "bytes32"
        },
        {
          "internalType": "bytes32",
          "name": "s",
          "type": "bytes32"
        }
      ],
      "name": "castVoteWithReasonAndParamsBySig",
      "outputs": [
        {
          "internalType": "uint256",
          "name": "",
          "type": "uint256"
        }
      ],
      "stateMutability": "nonpayable",
      "type": "function"
    },
    {
      "inputs": [],
      "name": "clock",
      "outputs": [
        {
          "internalType": "uint48",
          "name": "",
          "type": "uint48"
        }
      ],
      "stateMutability": "view",
      "type": "function"
    },
    {
      "inputs": [],
      "name": "eip712Domain",
      "outputs": [
        {
          "internalType": "bytes1",
          "name": "fields",
          "type": "bytes1"
        },
        {
          "internalType": "string",
          "name": "name",
          "type": "string"
        },
        {
          "internalType": "string",
          "name": "version",
          "type": "string"
        },
        {
          "internalType": "uint256",
          "name": "chainId",
          "type": "uint256"
        },
        {
          "internalType": "address",
          "name": "verifyingContract",
          "type": "address"
        },
        {
          "internalType": "bytes32",
          "name": "salt",
          "type": "bytes32"
        },
        {
          "internalType": "uint256[]",
          "name": "extensions",
          "type": "uint256[]"
        }
      ],
      "stateMutability": "view",
      "type": "function"
    },
    {
      "inputs": [
        {
          "internalType": "address",
          "name": "",
          "type": "address"
        }
      ],
      "name": "emergencyExecutors",
      "outputs": [
        {
          "internalType": "bool",
          "name": "",
          "type": "bool"
        }
      ],
      "stateMutability": "view",
      "type": "function"
    },
    {
      "inputs": [
        {
          "internalType": "address[]",
          "name": "targets",
          "type": "address[]"
        },
        {
          "internalType": "uint256[]",
          "name": "values",
          "type": "uint256[]"
        },
        {
          "internalType": "bytes[]",
          "name": "calldatas",
          "type": "bytes[]"
        },
        {
          "internalType": "bytes32",
          "name": "descriptionHash",
          "type": "bytes32"
        }
      ],
      "name": "execute",
      "outputs": [
        {
          "internalType": "uint256",
          "name": "",
          "type": "uint256"
        }
      ],
      "stateMutability": "payable",
      "type": "function"
    },
    {
      "inputs": [
        {
          "internalType": "string",
          "name": "action",
          "type": "string"
        },
        {
          "internalType": "address[]",
          "name": "targets",
          "type": "address[]"
        },
        {
          "internalType": "uint256[]",
          "name": "values",
          "type": "uint256[]"
        },
        {
          "internalType": "bytes[]",
          "name": "calldatas",
          "type": "bytes[]"
        }
      ],
      "name": "executeEmergencyAction",
      "outputs": [],
      "stateMutability": "nonpayable",
      "type": "function"
    },
    {
      "inputs": [
        {
          "internalType": "address",
          "name": "account",
          "type": "address"
        }
      ],
      "name": "getCurrentVotes",
      "outputs": [
        {
          "internalType": "uint256",
          "name": "",
          "type": "uint256"
        }
      ],
      "stateMutability": "view",
      "type": "function"
    },
    {
      "inputs": [],
      "name": "getGovernanceStats",
      "outputs": [
        {
          "internalType": "uint256",
          "name": "totalProposals",
          "type": "uint256"
        },
        {
          "internalType": "uint256",
          "name": "activeProposals",
          "type": "uint256"
        },
        {
          "internalType": "uint256",
          "name": "executedProposals",
          "type": "uint256"
        }
      ],
      "stateMutability": "view",
      "type": "function"
    },
    {
      "inputs": [
        {
          "internalType": "uint256",
          "name": "proposalId",
          "type": "uint256"
        }
      ],
      "name": "getProposalInfo",
      "outputs": [
        {
          "internalType": "enum DIAPGovernance.ProposalType",
          "name": "proposalType",
          "type": "uint8"
        },
        {
          "internalType": "enum IGovernor.ProposalState",
          "name": "proposalState",
          "type": "uint8"
        },
        {
          "internalType": "uint256",
          "name": "forVotes",
          "type": "uint256"
        },
        {
          "internalType": "uint256",
          "name": "againstVotes",
          "type": "uint256"
        },
        {
          "internalType": "uint256",
          "name": "abstainVotes",
          "type": "uint256"
        }
      ],
      "stateMutability": "view",
      "type": "function"
    },
    {
      "inputs": [
        {
          "internalType": "address",
          "name": "account",
          "type": "address"
        },
        {
          "internalType": "uint256",
          "name": "blockNumber",
          "type": "uint256"
        }
      ],
      "name": "getVotes",
      "outputs": [
        {
          "internalType": "uint256",
          "name": "",
          "type": "uint256"
        }
      ],
      "stateMutability": "view",
      "type": "function"
    },
    {
      "inputs": [
        {
          "internalType": "address",
          "name": "account",
          "type": "address"
        },
        {
          "internalType": "uint256",
          "name": "timepoint",
          "type": "uint256"
        },
        {
          "internalType": "bytes",
          "name": "params",
          "type": "bytes"
        }
      ],
      "name": "getVotesWithParams",
      "outputs": [
        {
          "internalType": "uint256",
          "name": "",
          "type": "uint256"
        }
      ],
      "stateMutability": "view",
      "type": "function"
    },
    {
      "inputs": [
        {
          "internalType": "uint256",
          "name": "proposalId",
          "type": "uint256"
        },
        {
          "internalType": "address",
          "name": "account",
          "type": "address"
        }
      ],
      "name": "hasVoted",
      "outputs": [
        {
          "internalType": "bool",
          "name": "",
          "type": "bool"
        }
      ],
      "stateMutability": "view",
      "type": "function"
    },
    {
      "inputs": [
        {
          "internalType": "address[]",
          "name": "targets",
          "type": "address[]"
        },
        {
          "internalType": "uint256[]",
          "name": "values",
          "type": "uint256[]"
        },
        {
          "internalType": "bytes[]",
          "name": "calldatas",
          "type": "bytes[]"
        },
        {
          "internalType": "bytes32",
          "name": "descriptionHash",
          "type": "bytes32"
        }
      ],
      "name": "hashProposal",
      "outputs": [
        {
          "internalType": "uint256",
          "name": "",
          "type": "uint256"
        }
      ],
      "stateMutability": "pure",
      "type": "function"
    },
    {
      "inputs": [],
      "name": "multisigWallet",
      "outputs": [
        {
          "internalType": "address",
          "name": "",
          "type": "address"
        }
      ],
      "stateMutability": "view",
      "type": "function"
    },
    {
      "inputs": [],
      "name": "name",
      "outputs": [
        {
          "internalType": "string",
          "name": "",
          "type": "string"
        }
      ],
      "stateMutability": "view",
      "type": "function"
    },
    {
      "inputs": [
        {
          "internalType": "address",
          "name": "",
          "type": "address"
        },
        {
          "internalType": "address",
          "name": "",
          "type": "address"
        },
        {
          "internalType": "uint256[]",
          "name": "",
          "type": "uint256[]"
        },
        {
          "internalType": "uint256[]",
          "name": "",
          "type": "uint256[]"
        },
        {
          "internalType": "bytes",
          "name": "",
          "type": "bytes"
        }
      ],
      "name": "onERC1155BatchReceived",
      "outputs": [
        {
          "internalType": "bytes4",
          "name": "",
          "type": "bytes4"
        }
      ],
      "stateMutability": "nonpayable",
      "type": "function"
    },
    {
      "inputs": [
        {
          "internalType": "address",
          "name": "",
          "type": "address"
        },
        {
          "internalType": "address",
          "name": "",
          "type": "address"
        },
        {
          "internalType": "uint256",
          "name": "",
          "type": "uint256"
        },
        {
          "internalType": "uint256",
          "name": "",
          "type": "uint256"
        },
        {
          "internalType": "bytes",
          "name": "",
          "type": "bytes"
        }
      ],
      "name": "onERC1155Received",
      "outputs": [
        {
          "internalType": "bytes4",
          "name": "",
          "type": "bytes4"
        }
      ],
      "stateMutability": "nonpayable",
      "type": "function"
    },
    {
      "inputs": [
        {
          "internalType": "address",
          "name": "",
          "type": "address"
        },
        {
          "internalType": "address",
          "name": "",
          "type": "address"
        },
        {
          "internalType": "uint256",
          "name": "",
          "type": "uint256"
        },
        {
          "internalType": "bytes",
          "name": "",
          "type": "bytes"
        }
      ],
      "name": "onERC721Received",
      "outputs": [
        {
          "internalType": "bytes4",
          "name": "",
          "type": "bytes4"
        }
      ],
      "stateMutability": "nonpayable",
      "type": "function"
    },
    {
      "inputs": [],
      "name": "owner",
      "outputs": [
        {
          "internalType": "address",
          "name": "",
          "type": "address"
        }
      ],
      "stateMutability": "view",
      "type": "function"
    },
    {
      "inputs": [
        {
          "internalType": "address",
          "name": "",
          "type": "address"
        }
      ],
      "name": "proposalCreators",
      "outputs": [
        {
          "internalType": "bool",
          "name": "",
          "type": "bool"
        }
      ],
      "stateMutability": "view",
      "type": "function"
    },
    {
      "inputs": [
        {
          "internalType": "uint256",
          "name": "proposalId",
          "type": "uint256"
        }
      ],
      "name": "proposalDeadline",
      "outputs": [
        {
          "internalType": "uint256",
          "name": "",
          "type": "uint256"
        }
      ],
      "stateMutability": "view",
      "type": "function"
    },
    {
      "inputs": [
        {
          "internalType": "uint256",
          "name": "proposalId",
          "type": "uint256"
        }
      ],
      "name": "proposalEta",
      "outputs": [
        {
          "internalType": "uint256",
          "name": "",
          "type": "uint256"
        }
      ],
      "stateMutability": "view",
      "type": "function"
    },
    {
      "inputs": [
        {
          "internalType": "uint256",
          "name": "proposalId",
          "type": "uint256"
        }
      ],
      "name": "proposalProposer",
      "outputs": [
        {
          "internalType": "address",
          "name": "",
          "type": "address"
        }
      ],
      "stateMutability": "view",
      "type": "function"
    },
    {
      "inputs": [
        {
          "internalType": "uint256",
          "name": "proposalId",
          "type": "uint256"
        }
      ],
      "name": "proposalSnapshot",
      "outputs": [
        {
          "internalType": "uint256",
          "name": "",
          "type": "uint256"
        }
      ],
      "stateMutability": "view",
      "type": "function"
    },
    {
      "inputs": [],
      "name": "proposalThreshold",
      "outputs": [
        {
          "internalType": "uint256",
          "name": "",
          "type": "uint256"
        }
      ],
      "stateMutability": "view",
      "type": "function"
    },
    {
      "inputs": [
        {
          "internalType": "uint256",
          "name": "",
          "type": "uint256"
        }
      ],
      "name": "proposalTypes",
      "outputs": [
        {
          "internalType": "enum DIAPGovernance.ProposalType",
          "name": "",
          "type": "uint8"
        }
      ],
      "stateMutability": "view",
      "type": "function"
    },
    {
      "inputs": [
        {
          "internalType": "uint256",
          "name": "proposalId",
          "type": "uint256"
        }
      ],
      "name": "proposalVotes",
      "outputs": [
        {
          "internalType": "uint256",
          "name": "againstVotes",
          "type": "uint256"
        },
        {
          "internalType": "uint256",
          "name": "forVotes",
          "type": "uint256"
        },
        {
          "internalType": "uint256",
          "name": "abstainVotes",
          "type": "uint256"
        }
      ],
      "stateMutability": "view",
      "type": "function"
    },
    {
      "inputs": [
        {
          "internalType": "address[]",
          "name": "targets",
          "type": "address[]"
        },
        {
          "internalType": "uint256[]",
          "name": "values",
          "type": "uint256[]"
        },
        {
          "internalType": "bytes[]",
          "name": "calldatas",
          "type": "bytes[]"
        },
        {
          "internalType": "string",
          "name": "description",
          "type": "string"
        }
      ],
      "name": "propose",
      "outputs": [
        {
          "internalType": "uint256",
          "name": "",
          "type": "uint256"
        }
      ],
      "stateMutability": "nonpayable",
      "type": "function"
    },
    {
      "inputs": [
        {
          "internalType": "address[]",
          "name": "targets",
          "type": "address[]"
        },
        {
          "internalType": "uint256[]",
          "name": "values",
          "type": "uint256[]"
        },
        {
          "internalType": "bytes[]",
          "name": "calldatas",
          "type": "bytes[]"
        },
        {
          "internalType": "string",
          "name": "description",
          "type": "string"
        }
      ],
      "name": "proposeAgentPolicy",
      "outputs": [
        {
          "internalType": "uint256",
          "name": "",
          "type": "uint256"
        }
      ],
      "stateMutability": "nonpayable",
      "type": "function"
    },
    {
      "inputs": [
        {
          "internalType": "address[]",
          "name": "targets",
          "type": "address[]"
        },
        {
          "internalType": "uint256[]",
          "name": "values",
          "type": "uint256[]"
        },
        {
          "internalType": "bytes[]",
          "name": "calldatas",
          "type": "bytes[]"
        },
        {
          "internalType": "string",
          "name": "description",
          "type": "string"
        }
      ],
      "name": "proposeEmergencyAction",
      "outputs": [
        {
          "internalType": "uint256",
          "name": "",
          "type": "uint256"
        }
      ],
      "stateMutability": "nonpayable",
      "type": "function"
    },
    {
      "inputs": [
        {
          "internalType": "address[]",
          "name": "targets",
          "type": "address[]"
        },
        {
          "internalType": "uint256[]",
          "name": "values",
          "type": "uint256[]"
        },
        {
          "internalType": "bytes[]",
          "name": "calldatas",
          "type": "bytes[]"
        },
        {
          "internalType": "string",
          "name": "description",
          "type": "string"
        }
      ],
      "name": "proposeNetworkUpgrade",
      "outputs": [
        {
          "internalType": "uint256",
          "name": "",
          "type": "uint256"
        }
      ],
      "stateMutability": "nonpayable",
      "type": "function"
    },
    {
      "inputs": [
        {
          "internalType": "address[]",
          "name": "targets",
          "type": "address[]"
        },
        {
          "internalType": "uint256[]",
          "name": "values",
          "type": "uint256[]"
        },
        {
          "internalType": "bytes[]",
          "name": "calldatas",
          "type": "bytes[]"
        },
        {
          "internalType": "string",
          "name": "description",
          "type": "string"
        }
      ],
      "name": "proposeParameterChange",
      "outputs": [
        {
          "internalType": "uint256",
          "name": "",
          "type": "uint256"
        }
      ],
      "stateMutability": "nonpayable",
      "type": "function"
    },
    {
      "inputs": [
        {
          "internalType": "address[]",
          "name": "targets",
          "type": "address[]"
        },
        {
          "internalType": "uint256[]",
          "name": "values",
          "type": "uint256[]"
        },
        {
          "internalType": "bytes[]",
          "name": "calldatas",
          "type": "bytes[]"
        },
        {
          "internalType": "string",
          "name": "description",
          "type": "string"
        }
      ],
      "name": "proposeTokenEconomics",
      "outputs": [
        {
          "internalType": "uint256",
          "name": "",
          "type": "uint256"
        }
      ],
      "stateMutability": "nonpayable",
      "type": "function"
    },
    {
      "inputs": [
        {
          "internalType": "address[]",
          "name": "targets",
          "type": "address[]"
        },
        {
          "internalType": "uint256[]",
          "name": "values",
          "type": "uint256[]"
        },
        {
          "internalType": "bytes[]",
          "name": "calldatas",
          "type": "bytes[]"
        },
        {
          "internalType": "string",
          "name": "description",
          "type": "string"
        }
      ],
      "name": "proposeTreasuryManagement",
      "outputs": [
        {
          "internalType": "uint256",
          "name": "",
          "type": "uint256"
        }
      ],
      "stateMutability": "nonpayable",
      "type": "function"
    },
    {
      "inputs": [
        {
          "internalType": "address[]",
          "name": "targets",
          "type": "address[]"
        },
        {
          "internalType": "uint256[]",
          "name": "values",
          "type": "uint256[]"
        },
        {
          "internalType": "bytes[]",
          "name": "calldatas",
          "type": "bytes[]"
        },
        {
          "internalType": "bytes32",
          "name": "descriptionHash",
          "type": "bytes32"
        }
      ],
      "name": "queue",
      "outputs": [
        {
          "internalType": "uint256",
          "name": "",
          "type": "uint256"
        }
      ],
      "stateMutability": "nonpayable",
      "type": "function"
    },
    {
      "inputs": [
        {
          "internalType": "uint256",
          "name": "blockNumber",
          "type": "uint256"
        }
      ],
      "name": "quorum",
      "outputs": [
        {
          "internalType": "uint256",
          "name": "",
          "type": "uint256"
        }
      ],
      "stateMutability": "view",
      "type": "function"
    },
    {
      "inputs": [],
      "name": "quorumDenominator",
      "outputs": [
        {
          "internalType": "uint256",
          "name": "",
          "type": "uint256"
        }
      ],
      "stateMutability": "view",
      "type": "function"
    },
    {
      "inputs": [
        {
          "internalType": "uint256",
          "name": "timepoint",
          "type": "uint256"
        }
      ],
      "name": "quorumNumerator",
      "outputs": [
        {
          "internalType": "uint256",
          "name": "",
          "type": "uint256"
        }
      ],
      "stateMutability": "view",
      "type": "function"
    },
    {
      "inputs": [],
      "name": "quorumNumerator",
      "outputs": [
        {
          "internalType": "uint256",
          "name": "",
          "type": "uint256"
        }
      ],
      "stateMutability": "view",
      "type": "function"
    },
    {
      "inputs": [
        {
          "internalType": "address",
          "name": "target",
          "type": "address"
        },
        {
          "internalType": "uint256",
          "name": "value",
          "type": "uint256"
        },
        {
          "internalType": "bytes",
          "name": "data",
          "type": "bytes"
        }
      ],
      "name": "relay",
      "outputs": [],
      "stateMutability": "payable",
      "type": "function"
    },
    {
      "inputs": [],
      "name": "renounceOwnership",
      "outputs": [],
      "stateMutability": "nonpayable",
      "type": "function"
    },
    {
      "inputs": [
        {
          "internalType": "address",
          "name": "executor",
          "type": "address"
        },
        {
          "internalType": "bool",
          "name": "authorized",
          "type": "bool"
        }
      ],
      "name": "setEmergencyExecutor",
      "outputs": [],
      "stateMutability": "nonpayable",
      "type": "function"
    },
    {
      "inputs": [
        {
          "internalType": "address",
          "name": "_multisigWallet",
          "type": "address"
        }
      ],
      "name": "setMultisigWallet",
      "outputs": [],
      "stateMutability": "nonpayable",
      "type": "function"
    },
    {
      "inputs": [
        {
          "internalType": "address",
          "name": "creator",
          "type": "address"
        },
        {
          "internalType": "bool",
          "name": "authorized",
          "type": "bool"
        }
      ],
      "name": "setProposalCreator",
      "outputs": [],
      "stateMutability": "nonpayable",
      "type": "function"
    },
    {
      "inputs": [
        {
          "internalType": "uint256",
          "name": "newProposalThreshold",
          "type": "uint256"
        }
      ],
      "name": "setProposalThreshold",
      "outputs": [],
      "stateMutability": "nonpayable",
      "type": "function"
    },
    {
      "inputs": [
        {
          "internalType": "address",
          "name": "authorizer",
          "type": "address"
        },
        {
          "internalType": "bool",
          "name": "authorized",
          "type": "bool"
        }
      ],
      "name": "setUpgradeAuthorizer",
      "outputs": [],
      "stateMutability": "nonpayable",
      "type": "function"
    },
    {
      "inputs": [
        {
          "internalType": "uint256",
          "name": "newVotingDelay",
          "type": "uint256"
        }
      ],
      "name": "setVotingDelay",
      "outputs": [],
      "stateMutability": "nonpayable",
      "type": "function"
    },
    {
      "inputs": [
        {
          "internalType": "uint256",
          "name": "newVotingPeriod",
          "type": "uint256"
        }
      ],
      "name": "setVotingPeriod",
      "outputs": [],
      "stateMutability": "nonpayable",
      "type": "function"
    },
    {
      "inputs": [
        {
          "internalType": "uint256",
          "name": "proposalId",
          "type": "uint256"
        }
      ],
      "name": "state",
      "outputs": [
        {
          "internalType": "enum IGovernor.ProposalState",
          "name": "",
          "type": "uint8"
        }
      ],
      "stateMutability": "view",
      "type": "function"
    },
    {
      "inputs": [
        {
          "internalType": "bytes4",
          "name": "interfaceId",
          "type": "bytes4"
        }
      ],
      "name": "supportsInterface",
      "outputs": [
        {
          "internalType": "bool",
          "name": "",
          "type": "bool"
        }
      ],
      "stateMutability": "view",
      "type": "function"
    },
    {
      "inputs": [],
      "name": "timelock",
      "outputs": [
        {
          "internalType": "address",
          "name": "",
          "type": "address"
        }
      ],
      "stateMutability": "view",
      "type": "function"
    },
    {
      "inputs": [],
      "name": "token",
      "outputs": [
        {
          "internalType": "contract IERC5805",
          "name": "",
          "type": "address"
        }
      ],
      "stateMutability": "view",
      "type": "function"
    },
    {
      "inputs": [
        {
          "internalType": "address",
          "name": "newOwner",
          "type": "address"
        }
      ],
      "name": "transferOwnership",
      "outputs": [],
      "stateMutability": "nonpayable",
      "type": "function"
    },
    {
      "inputs": [
        {
          "internalType": "string",
          "name": "parameter",
          "type": "string"
        },
        {
          "internalType": "uint256",
          "name": "newValue",
          "type": "uint256"
        }
      ],
      "name": "updateGovernanceParameter",
      "outputs": [],
      "stateMutability": "nonpayable",
      "type": "function"
    },
    {
      "inputs": [
        {
          "internalType": "uint256",
          "name": "newQuorumNumerator",
          "type": "uint256"
        }
      ],
      "name": "updateQuorumNumerator",
      "outputs": [],
      "stateMutability": "nonpayable",
      "type": "function"
    },
    {
      "inputs": [
        {
          "internalType": "contract TimelockController",
          "name": "newTimelock",
          "type": "address"
        }
      ],
      "name": "updateTimelock",
      "outputs": [],
      "stateMutability": "nonpayable",
      "type": "function"
    },
    {
      "inputs": [
        {
          "internalType": "address",
          "name": "",
          "type": "address"
        }
      ],
      "name": "upgradeAuthorizers",
      "outputs": [
        {
          "internalType": "bool",
          "name": "",
          "type": "bool"
        }
      ],
      "stateMutability": "view",
      "type": "function"
    },
    {
      "inputs": [],
      "name": "version",
      "outputs": [
        {
          "internalType": "string",
          "name": "",
          "type": "string"
        }
      ],
      "stateMutability": "view",
      "type": "function"
    },
    {
      "inputs": [],
      "name": "votingDelay",
      "outputs": [
        {
          "internalType": "uint256",
          "name": "",
          "type": "uint256"
        }
      ],
      "stateMutability": "view",
      "type": "function"
    },
    {
      "inputs": [],
      "name": "votingPeriod",
      "outputs": [
        {
          "internalType": "uint256",
          "name": "",
          "type": "uint256"
        }
      ],
      "stateMutability": "view",
      "type": "function"
    },
    {
      "stateMutability": "payable",
      "type": "receive"
    }
  ],
  "bytecode": "0x6101806040523480156200001257600080fd5b506040516200687938038062006879833981016040819052620000359162000a1e565b620151806203f480683635c9adc5dea00000846004876040518060400160405280600f81526020016e4449415020476f7665726e616e636560881b81525080620000846200020760201b60201c565b6200009182600062000222565b61012052620000a281600162000222565b61014052815160208084019190912060e052815190820120610100524660a0526200013060e05161010051604080517f8b73c3c69bb8fe3d512ecc4cf759cc79239f7b179b0ffacaa9a75d522b39400f60208201529081019290925260608201524660808201523060a082015260009060c00160405160208183030381529060405280519060200120905090565b60805250503060c052600262000147828262000b17565b50506001600160a01b03166101605262000161816200025b565b506200016d81620003de565b50620001798362000447565b620001848262000488565b6200018f816200052b565b505050620001ac620001a66200056c60201b60201c565b62000570565b600f80546001600160a01b0319166001600160a01b03929092169190911790555050336000908152601160209081526040808320805460ff199081166001908117909255601290935292208054909116909117905562000ca4565b6040805180820190915260018152603160f81b602082015290565b600060208351101562000242576200023a83620005c2565b905062000255565b816200024f848262000b17565b5060ff90505b92915050565b6064811115620002e45760405162461bcd60e51b815260206004820152604360248201527f476f7665726e6f72566f74657351756f72756d4672616374696f6e3a2071756f60448201527f72756d4e756d657261746f72206f7665722071756f72756d44656e6f6d696e616064820152623a37b960e91b608482015260a4015b60405180910390fd5b6000620002f062000605565b90508015801590620003025750600754155b156200036a57604080518082019091526000815260079060208101620003288462000634565b6001600160e01b0390811690915282546001810184556000938452602093849020835194909301519091166401000000000263ffffffff909316929092179101555b6200039f6200038a6200037c620006a3565b65ffffffffffff166200071a565b620003958462000634565b6007919062000781565b505060408051828152602081018490527f0553476bf02ef2726e8ce5ced78d63e26e602e4a2257b1f559418e24b4633997910160405180910390a15050565b600854604080516001600160a01b03928316815291831660208301527f08f74ea46ef7894f65eabfb5e6e695de773a000b47c529ab559178069b226401910160405180910390a1600880546001600160a01b0319166001600160a01b0392909216919091179055565b600a5460408051918252602082018390527fc565b045403dc03c2eea82b81a0465edad9e2e7fc4d97e11421c209da93d7a93910160405180910390a1600a55565b60008111620004ea5760405162461bcd60e51b815260206004820152602760248201527f476f7665726e6f7253657474696e67733a20766f74696e6720706572696f6420604482015266746f6f206c6f7760c81b6064820152608401620002db565b600b5460408051918252602082018390527f7e3f7f0708a84de9203036abaa450dccc85ad5ff52f78c170f3edb55cf5e8828910160405180910390a1600b55565b600c5460408051918252602082018390527fccb45da8d5717e6c4544694297c4ba5cf151d455c9bb0ed4fc7a38411bc05461910160405180910390a1600c55565b3390565b600e80546001600160a01b038381166001600160a01b0319831681179093556040519116919082907f8be0079c531659141344cd1fd0a4f28419497f9722a3daafe3b4186f6b6457e090600090a35050565b600080829050601f81511115620005f0578260405163305a27a960e01b8152600401620002db919062000be3565b8051620005fd8262000c33565b179392505050565b600754600090156200062b576200061d60076200079e565b6001600160e01b0316905090565b6006545b905090565b60006001600160e01b038211156200069f5760405162461bcd60e51b815260206004820152602760248201527f53616665436173743a2076616c756520646f65736e27742066697420696e20326044820152663234206269747360c81b6064820152608401620002db565b5090565b6000610160516001600160a01b03166391ddadf46040518163ffffffff1660e01b8152600401602060405180830381865afa92505050801562000705575060408051601f3d908101601f19168201909252620007029181019062000c58565b60015b62000715576200062f43620007ec565b919050565b600063ffffffff8211156200069f5760405162461bcd60e51b815260206004820152602660248201527f53616665436173743a2076616c756520646f65736e27742066697420696e203360448201526532206269747360d01b6064820152608401620002db565b6000806200079185858562000855565b915091505b935093915050565b80546000908015620007e257620007ca83620007bc60018462000c82565b600091825260209091200190565b5464010000000090046001600160e01b0316620007e5565b60005b9392505050565b600065ffffffffffff8211156200069f5760405162461bcd60e51b815260206004820152602660248201527f53616665436173743a2076616c756520646f65736e27742066697420696e203460448201526538206269747360d01b6064820152608401620002db565b825460009081908015620009aa5760006200087787620007bc60018562000c82565b60408051808201909152905463ffffffff8082168084526401000000009092046001600160e01b031660208401529192509087161015620008fb5760405162461bcd60e51b815260206004820152601b60248201527f436865636b706f696e743a2064656372656173696e67206b65797300000000006044820152606401620002db565b805163ffffffff8088169116036200094957846200092088620007bc60018662000c82565b80546001600160e01b03929092166401000000000263ffffffff90921691909117905562000999565b6040805180820190915263ffffffff80881682526001600160e01b0380881660208085019182528b54600181018d5560008d81529190912094519151909216640100000000029216919091179101555b602001519250839150620007969050565b50506040805180820190915263ffffffff80851682526001600160e01b0380851660208085019182528854600181018a5560008a81529182209551925190931664010000000002919093161792019190915590508162000796565b6001600160a01b038116811462000a1b57600080fd5b50565b60008060006060848603121562000a3457600080fd5b835162000a418162000a05565b602085015190935062000a548162000a05565b604085015190925062000a678162000a05565b809150509250925092565b634e487b7160e01b600052604160045260246000fd5b600181811c9082168062000a9d57607f821691505b60208210810362000abe57634e487b7160e01b600052602260045260246000fd5b50919050565b601f82111562000b1257600081815260208120601f850160051c8101602086101562000aed5750805b601f850160051c820191505b8181101562000b0e5782815560010162000af9565b5050505b505050565b81516001600160401b0381111562000b335762000b3362000a72565b62000b4b8162000b44845462000a88565b8462000ac4565b602080601f83116001811462000b83576000841562000b6a5750858301515b600019600386901b1c1916600185901b17855562000b0e565b600085815260208120601f198616915b8281101562000bb45788860151825594840194600190910190840162000b93565b508582101562000bd35787850151600019600388901b60f8161c191681555b5050505050600190811b01905550565b600060208083528351808285015260005b8181101562000c125785810183015185820160400152820162000bf4565b506000604082860101526040601f19601f8301168501019250505092915050565b8051602080830151919081101562000abe5760001960209190910360031b1b16919050565b60006020828403121562000c6b57600080fd5b815165ffffffffffff81168114620007e557600080fd5b818103818111156200025557634e487b7160e01b600052601160045260246000fd5b60805160a05160c05160e05161010051610120516101405161016051615b4c62000d2d60003960008181610f8801528181611823015281816121ba015281816127c20152818161353c0152613760015260006121660152600061213c0152600061395d0152600061393501526000613890015260006138ba015260006138e40152615b4c6000f3fe6080604052600436106104565760003560e01c806379859fb21161023f578063bc903cb811610139578063deaaa7cc116100b6578063ece40cc11161007a578063ece40cc114610eea578063f23a6e6114610f0a578063f2fde38b14610f36578063f8ce560a14610f56578063fc0c546a14610f7657600080fd5b8063deaaa7cc14610e4b578063df91f74814610e7f578063ea0217cf14610e95578063ea0ca77e14610eb5578063eb9019d414610eca57600080fd5b8063d6159fe5116100fd578063d6159fe5146107cb578063d85a365b14610d95578063dd4e2ba514610db5578063dd6d7b6e14610dfb578063dd8b556814610e2b57600080fd5b8063bc903cb814610cda578063c01f9e3714610d0b578063c28bc2fa14610d44578063c59057e414610d57578063d33219b414610d7757600080fd5b80639a802a6d116101c7578063ab58fb8e1161018b578063ab58fb8e14610c42578063b1610d7e14610c62578063b4b5ea5714610c79578063b58131b014610c99578063bc197c8114610cae57600080fd5b80639a802a6d14610b93578063a6c2660314610bb3578063a6fb56ac14610bd0578063a7713a7014610c0d578063a890c91014610c2257600080fd5b806384b0196e1161020e57806384b0196e14610aed5780638da5cb5b14610b155780639075becf14610b3357806391ddadf414610b5357806397c3d33414610b7f57600080fd5b806379859fb214610a6d5780637b3c71d314610a8d5780637c171c7114610aad5780637d5e81e214610acd57600080fd5b806337f135d71161035057806354fd4d50116102d8578063649134771161029c57806364913477146109d85780636d9dd487146109f857806370b0f66014610a18578063715018a614610a38578063732f18ad14610a4d57600080fd5b806354fd4d501461092e57806356781388146109585780635f398a141461097857806360c4247f1461099857806361ec8e0b146109b857600080fd5b80633e4f49e61161031f5780633e4f49e61461082d578063438596321461085a578063452115d6146108a45780634bf5d7e9146108c4578063544ffc9c146108d957600080fd5b806337f135d7146107cb5780633932abb1146107e2578063393c7f1a146107f75780633bccf4fd1461080d57600080fd5b8063143489d0116103de5780632656227d116103a25780632656227d1461070e5780632a17e28e146107215780632d63f693146107415780632fe3e2611461077757806335f318c8146107ab57600080fd5b8063143489d014610615578063150b7a021461066a578063160cbed7146106ae5780631aef01fd146106ce5780632447ae22146106ee57600080fd5b806306f3f9e61161042557806306f3f9e61461055e57806306fdde031461057e578063076025ac146105a0578063111a8d59146105b55780631254b4d8146105e557600080fd5b806301ffc9a7146104c657806302a251a3146104fb578063034201811461051e578063046918cc1461053e57600080fd5b366104c15730610464610faa565b6001600160a01b0316146104bf5760405162461bcd60e51b815260206004820152601f60248201527f476f7665726e6f723a206d7573742073656e6420746f206578656375746f720060448201526064015b60405180910390fd5b005b600080fd5b3480156104d257600080fd5b506104e66104e136600461476f565b610fc3565b60405190151581526020015b60405180910390f35b34801561050757600080fd5b50610510610fd4565b6040519081526020016104f2565b34801561052a57600080fd5b506105106105393660046148e6565b610fdf565b34801561054a57600080fd5b50610510610559366004614b0d565b6110d7565b34801561056a57600080fd5b506104bf610579366004614bcd565b611186565b34801561058a57600080fd5b50610593611210565b6040516104f29190614c36565b3480156105ac57600080fd5b50610510600481565b3480156105c157600080fd5b506104e66105d0366004614c49565b60116020526000908152604090205460ff1681565b3480156105f157600080fd5b506104e6610600366004614c49565b60146020526000908152604090205460ff1681565b34801561062157600080fd5b50610652610630366004614bcd565b600090815260036020526040902054600160401b90046001600160a01b031690565b6040516001600160a01b0390911681526020016104f2565b34801561067657600080fd5b50610695610685366004614c66565b630a85bd0160e11b949350505050565b6040516001600160e01b031990911681526020016104f2565b3480156106ba57600080fd5b506105106106c9366004614cc5565b6112a2565b3480156106da57600080fd5b506105106106e9366004614b0d565b6114a3565b3480156106fa57600080fd5b50610510610709366004614b0d565b61150f565b61051061071c366004614cc5565b611572565b34801561072d57600080fd5b5061051061073c366004614b0d565b6115dd565b34801561074d57600080fd5b5061051061075c366004614bcd565b6000908152600360205260409020546001600160401b031690565b34801561078357600080fd5b506105107fb3b3f3b703cd84ce352197dcff232b1b5d3cfb2025ce47cf04742d0651f1af8881565b3480156107b757600080fd5b506104bf6107c6366004614d62565b61164f565b3480156107d757600080fd5b506105106201518081565b3480156107ee57600080fd5b50610510611682565b34801561080357600080fd5b5061051061546081565b34801561081957600080fd5b50610510610828366004614d9b565b61168d565b34801561083957600080fd5b5061084d610848366004614bcd565b611703565b6040516104f29190614e13565b34801561086657600080fd5b506104e6610875366004614e21565b6000828152600d602090815260408083206001600160a01b038516845260030190915290205460ff1692915050565b3480156108b057600080fd5b506105106108bf366004614cc5565b61170e565b3480156108d057600080fd5b5061059361181f565b3480156108e557600080fd5b506109136108f4366004614bcd565b6000908152600d60205260409020805460018201546002909201549092565b604080519384526020840192909252908201526060016104f2565b34801561093a57600080fd5b506040805180820190915260018152603160f81b6020820152610593565b34801561096457600080fd5b50610510610973366004614e46565b6118e1565b34801561098457600080fd5b50610510610993366004614e72565b61190a565b3480156109a457600080fd5b506105106109b3366004614bcd565b611954565b3480156109c457600080fd5b506104bf6109d3366004614ef5565b611a05565b3480156109e457600080fd5b506104bf6109f3366004614c49565b611a50565b348015610a0457600080fd5b50610510610a13366004614b0d565b611ad0565b348015610a2457600080fd5b506104bf610a33366004614bcd565b611b42565b348015610a4457600080fd5b506104bf611bc9565b348015610a5957600080fd5b506104bf610a68366004614d62565b611bdd565b348015610a7957600080fd5b50610510610a88366004614b0d565b611c10565b348015610a9957600080fd5b50610510610aa8366004614f40565b611c82565b348015610ab957600080fd5b506104bf610ac8366004614d62565b611cca565b348015610ad957600080fd5b50610510610ae8366004614b0d565b611d55565b348015610af957600080fd5b50610b0261212e565b6040516104f29796959493929190614fd4565b348015610b2157600080fd5b50600e546001600160a01b0316610652565b348015610b3f57600080fd5b50601354610652906001600160a01b031681565b348015610b5f57600080fd5b50610b686121b6565b60405165ffffffffffff90911681526020016104f2565b348015610b8b57600080fd5b506064610510565b348015610b9f57600080fd5b50610510610bae366004615036565b61223f565b348015610bbf57600080fd5b50610510683635c9adc5dea0000081565b348015610bdc57600080fd5b50610c00610beb366004614bcd565b60106020526000908152604090205460ff1681565b6040516104f2919061509e565b348015610c1957600080fd5b50610510612256565b348015610c2e57600080fd5b506104bf610c3d366004614c49565b612280565b348015610c4e57600080fd5b50610510610c5d366004614bcd565b612307565b348015610c6e57600080fd5b506105106203f48081565b348015610c8557600080fd5b50610510610c94366004614c49565b6123a1565b348015610ca557600080fd5b506105106123b2565b348015610cba57600080fd5b50610695610cc93660046150ac565b63bc197c8160e01b95945050505050565b348015610ce657600080fd5b50610cfa610cf5366004614bcd565b6123bd565b6040516104f295949392919061513f565b348015610d1757600080fd5b50610510610d26366004614bcd565b6000908152600360205260409020600101546001600160401b031690565b6104bf610d52366004615176565b61241a565b348015610d6357600080fd5b50610510610d72366004614cc5565b612529565b348015610d8357600080fd5b506008546001600160a01b0316610652565b348015610da157600080fd5b506104bf610db03660046151fd565b612563565b348015610dc157600080fd5b506040805180820190915260208082527f737570706f72743d627261766f2671756f72756d3d666f722c6162737461696e90820152610593565b348015610e0757600080fd5b506104e6610e16366004614c49565b60126020526000908152604090205460ff1681565b348015610e3757600080fd5b50600f54610652906001600160a01b031681565b348015610e5757600080fd5b506105107f150214d74d59b7d1e90c73fc22ef3d991dd0a76b046543d4d80ab92d2a50328f81565b348015610e8b57600080fd5b5060008080610913565b348015610ea157600080fd5b506104bf610eb0366004614bcd565b612710565b348015610ec157600080fd5b50610510600a81565b348015610ed657600080fd5b50610510610ee53660046152c0565b612797565b348015610ef657600080fd5b506104bf610f05366004614bcd565b6128e9565b348015610f1657600080fd5b50610695610f253660046152ec565b63f23a6e6160e01b95945050505050565b348015610f4257600080fd5b506104bf610f51366004614c49565b612970565b348015610f6257600080fd5b50610510610f71366004614bcd565b6129e6565b348015610f8257600080fd5b506106527f000000000000000000000000000000000000000000000000000000000000000081565b6000610fbe6008546001600160a01b031690565b905090565b6000610fce826129f1565b92915050565b6000610fbe600b5490565b60008061108361107b7fb3b3f3b703cd84ce352197dcff232b1b5d3cfb2025ce47cf04742d0651f1af888c8c8c8c60405161101b929190615354565b60405180910390208b80519060200120604051602001611060959493929190948552602085019390935260ff9190911660408401526060830152608082015260a00190565b60405160208183030381529060405280519060200120612a16565b868686612a43565b90506110c98a828b8b8b8080601f0160208091040260200160405190810160405280939291908181526020018383808284376000920191909152508d9250612a6b915050565b9a9950505050505050505050565b3360009081526012602052604081205460ff16806110f957506110f933612bc0565b6111155760405162461bcd60e51b81526004016104b690615364565b600061112386868686611d55565b6000818152601060205260409020805460ff1916600290811790915590915033905b827f2fa4d1bc9ff8794eac01702cd7a1e2321b00783a0bfd55d3e40e25bd3448b72f866040516111759190614c36565b60405180910390a495945050505050565b61118e610faa565b6001600160a01b0316336001600160a01b0316146111be5760405162461bcd60e51b81526004016104b6906153a6565b306111c7610faa565b6001600160a01b03161461120457600080366040516111e7929190615354565b604051809103902090505b806111fd6004612c4f565b036111f257505b61120d81612cce565b50565b60606002805461121f906153dd565b80601f016020809104026020016040519081016040528092919081815260200182805461124b906153dd565b80156112985780601f1061126d57610100808354040283529160200191611298565b820191906000526020600020905b81548152906001019060200180831161127b57829003601f168201915b5050505050905090565b6000806112b186868686612529565b905060046112be82611703565b60078111156112cf576112cf614de9565b146112ec5760405162461bcd60e51b81526004016104b690615417565b6008546040805163793d064960e11b815290516000926001600160a01b03169163f27a0c929160048083019260209291908290030181865afa158015611336573d6000803e3d6000fd5b505050506040513d601f19601f8201168201806040525081019061135a9190615458565b60085460405163b1c5f42760e01b81529192506001600160a01b03169063b1c5f42790611394908a908a908a906000908b906004016154ff565b602060405180830381865afa1580156113b1573d6000803e3d6000fd5b505050506040513d601f19601f820116820180604052508101906113d59190615458565b6000838152600960205260408082209290925560085491516308f2a0bb60e41b81526001600160a01b0390921691638f2a0bb091611420918b918b918b91908b90899060040161554d565b600060405180830381600087803b15801561143a57600080fd5b505af115801561144e573d6000803e3d6000fd5b505050507f9a2e42fd6722813d69113e7d0079d3d940171428df7373df9c7f7617cfda289282824261148091906155bb565b604080519283526020830191909152015b60405180910390a15095945050505050565b3360009081526012602052604081205460ff16806114c557506114c533612bc0565b6114e15760405162461bcd60e51b81526004016104b690615364565b60006114ef86868686611d55565b6000818152601060205260408120805460ff191690559091503390611145565b3360009081526011602052604081205460ff1661153e5760405162461bcd60e51b81526004016104b6906155ce565b600061154c86868686611d55565b6000818152601060205260409020805460ff191660059081179091559091503390611145565b60008061158186868686612e3c565b60008181526010602052604090205490915060ff168060058111156115a8576115a8614de9565b60405183907f5b9614f21773d68c0b149bda804ff3d491c8bc8795f7ed236cc97804cd00538990600090a35095945050505050565b3360009081526012602052604081205460ff16806115ff57506115ff33612bc0565b61161b5760405162461bcd60e51b81526004016104b690615364565b600061162986868686611d55565b6000818152601060205260409020805460ff191660049081179091559091503390611145565b611657612f24565b6001600160a01b03919091166000908152601260205260409020805460ff1916911515919091179055565b6000610fbe600a5490565b604080517f150214d74d59b7d1e90c73fc22ef3d991dd0a76b046543d4d80ab92d2a50328f602082015290810186905260ff8516606082015260009081906116db9061107b90608001611060565b90506116f887828860405180602001604052806000815250612f7e565b979650505050505050565b6000610fce82612fa1565b60008061171d86868686612529565b9050600061172a82611703565b600781111561173b5761173b614de9565b146117885760405162461bcd60e51b815260206004820152601c60248201527f476f7665726e6f723a20746f6f206c61746520746f2063616e63656c0000000060448201526064016104b6565b600081815260036020526040902054600160401b90046001600160a01b0316336001600160a01b0316146118095760405162461bcd60e51b815260206004820152602260248201527f476f7665726e6f723a206f6e6c792070726f706f7365722063616e2063616e63604482015261195b60f21b60648201526084016104b6565b611815868686866130eb565b9695505050505050565b60607f00000000000000000000000000000000000000000000000000000000000000006001600160a01b0316634bf5d7e96040518163ffffffff1660e01b8152600401600060405180830381865afa9250505080156118a057506040513d6000823e601f3d908101601f1916820160405261189d9190810190615657565b60015b6118dc575060408051808201909152601d81527f6d6f64653d626c6f636b6e756d6265722666726f6d3d64656661756c74000000602082015290565b919050565b60008033905061190284828560405180602001604052806000815250612f7e565b949350505050565b6000803390506116f887828888888080601f0160208091040260200160405190810160405280939291908181526020018383808284376000920191909152508a9250612a6b915050565b60075460009080820361196b575050600654919050565b6000600761197a60018461568b565b8154811061198a5761198a61569e565b60009182526020918290206040805180820190915291015463ffffffff8116808352600160201b9091046001600160e01b031692820192909252915084106119e057602001516001600160e01b03169392505050565b6119f46119ec856130f9565b600790613162565b6001600160e01b0316949350505050565b611a0d612f24565b7f52352bb00a105d1548d00abd17aed64011bd543aa39ba778dd4cf6195754bbd68383600084604051611a4394939291906156dd565b60405180910390a1505050565b611a58612f24565b6001600160a01b038116611aae5760405162461bcd60e51b815260206004820152601f60248201527f496e76616c6964206d756c74697369672077616c6c657420616464726573730060448201526064016104b6565b601380546001600160a01b0319166001600160a01b0392909216919091179055565b3360009081526012602052604081205460ff1680611af25750611af233612bc0565b611b0e5760405162461bcd60e51b81526004016104b690615364565b6000611b1c86868686611d55565b6000818152601060205260409020805460ff191660019081179091559091503390611145565b611b4a610faa565b6001600160a01b0316336001600160a01b031614611b7a5760405162461bcd60e51b81526004016104b6906153a6565b30611b83610faa565b6001600160a01b031614611bc05760008036604051611ba3929190615354565b604051809103902090505b80611bb96004612c4f565b03611bae57505b61120d81613215565b611bd1612f24565b611bdb6000613256565b565b611be5612f24565b6001600160a01b03919091166000908152601160205260409020805460ff1916911515919091179055565b3360009081526012602052604081205460ff1680611c325750611c3233612bc0565b611c4e5760405162461bcd60e51b81526004016104b690615364565b6000611c5c86868686611d55565b6000818152601060205260409020805460ff191660039081179091559091503390611145565b60008033905061181586828787878080601f016020809104026020016040519081016040528093929190818152602001838380828437600092019190915250612f7e92505050565b6013546001600160a01b0316331480611ced5750600e546001600160a01b031633145b611d2a5760405162461bcd60e51b815260206004820152600e60248201526d139bdd08185d5d1a1bdc9a5e995960921b60448201526064016104b6565b6001600160a01b03919091166000908152601460205260409020805460ff1916911515919091179055565b600033611d6281846132a8565b611dae5760405162461bcd60e51b815260206004820152601d60248201527f476f7665726e6f723a2070726f706f736572207265737472696374656400000060448201526064016104b6565b6000611db86121b6565b65ffffffffffff169050611dca6123b2565b611dd983610ee560018561568b565b1015611e415760405162461bcd60e51b815260206004820152603160248201527f476f7665726e6f723a2070726f706f73657220766f7465732062656c6f7720706044820152701c9bdc1bdcd85b081d1a1c995cda1bdb19607a1b60648201526084016104b6565b6000611e568888888880519060200120612529565b90508651885114611e795760405162461bcd60e51b81526004016104b690615704565b8551885114611e9a5760405162461bcd60e51b81526004016104b690615704565b6000885111611eeb5760405162461bcd60e51b815260206004820152601860248201527f476f7665726e6f723a20656d7074792070726f706f73616c000000000000000060448201526064016104b6565b6000818152600360205260409020546001600160401b031615611f5a5760405162461bcd60e51b815260206004820152602160248201527f476f7665726e6f723a2070726f706f73616c20616c72656164792065786973746044820152607360f81b60648201526084016104b6565b6000611f64611682565b611f6e90846155bb565b90506000611f7a610fd4565b611f8490836155bb565b90506040518060e00160405280611f9a84613399565b6001600160401b031681526001600160a01b038716602082015260006040820152606001611fc783613399565b6001600160401b039081168252600060208084018290526040808501839052606094850183905288835260038252918290208551815492870151878501519186166001600160e01b031990941693909317600160401b6001600160a01b039094168402176001600160e01b0316600160e01b60e09290921c91909102178155938501516080860151908416921c0217600183015560a08301516002909201805460c09094015161ffff1990941692151561ff00191692909217610100931515939093029290921790558a517f7d84a6263ae0d98d3329bd7b46bb4e8d6f98cd35a7adb45c274c8b7fd5ebd5e091859188918e918e918111156120cb576120cb6147f2565b6040519080825280602002602001820160405280156120fe57816020015b60608152602001906001900390816120e95790505b508d88888f60405161211899989796959493929190615745565b60405180910390a1509098975050505050505050565b6000606080828080836121617f000000000000000000000000000000000000000000000000000000000000000083613401565b61218c7f00000000000000000000000000000000000000000000000000000000000000006001613401565b60408051600080825260208201909252600f60f81b9b939a50919850469750309650945092509050565b60007f00000000000000000000000000000000000000000000000000000000000000006001600160a01b03166391ddadf46040518163ffffffff1660e01b8152600401602060405180830381865afa925050508015612232575060408051601f3d908101601f1916820190925261222f9181019061581c565b60015b6118dc57610fbe436134ac565b600061224c848484613513565b90505b9392505050565b600754600090156122795761226b60076135a9565b6001600160e01b0316905090565b5060065490565b612288610faa565b6001600160a01b0316336001600160a01b0316146122b85760405162461bcd60e51b81526004016104b6906153a6565b306122c1610faa565b6001600160a01b0316146122fe57600080366040516122e1929190615354565b604051809103902090505b806122f76004612c4f565b036122ec57505b61120d816135d9565b60085460008281526009602052604080822054905163d45c443560e01b81526004810191909152909182916001600160a01b039091169063d45c443590602401602060405180830381865afa158015612364573d6000803e3d6000fd5b505050506040513d601f19601f820116820180604052508101906123889190615458565b905080600114612398578061224f565b60009392505050565b6000610fce82610ee560014361568b565b6000610fbe600c5490565b60008181526010602052604081205460ff16908080806123dc86611703565b93506000806000612406896000908152600d60205260409020805460018201546002909201549092565b999b989a5090989097909650945050505050565b612422610faa565b6001600160a01b0316336001600160a01b0316146124525760405162461bcd60e51b81526004016104b6906153a6565b3061245b610faa565b6001600160a01b031614612498576000803660405161247b929190615354565b604051809103902090505b806124916004612c4f565b0361248657505b600080856001600160a01b03168585856040516124b6929190615354565b60006040518083038185875af1925050503d80600081146124f3576040519150601f19603f3d011682016040523d82523d6000602084013e6124f8565b606091505b50915091506125208282604051806060016040528060288152602001615aef60289139613642565b50505050505050565b6000848484846040516020016125429493929190615844565b60408051601f19818403018152919052805160209091012095945050505050565b3360009081526011602052604090205460ff166125925760405162461bcd60e51b81526004016104b6906155ce565b60005b858110156126c05760008787838181106125b1576125b161569e565b90506020020160208101906125c69190614c49565b6001600160a01b03168686848181106125e1576125e161569e565b905060200201358585858181106125fa576125fa61569e565b905060200281019061260c919061588f565b60405161261a929190615354565b60006040518083038185875af1925050503d8060008114612657576040519150601f19603f3d011682016040523d82523d6000602084013e61265c565b606091505b50509050806126ad5760405162461bcd60e51b815260206004820152601760248201527f456d657267656e637920616374696f6e206661696c656400000000000000000060448201526064016104b6565b50806126b8816158d5565b915050612595565b50336001600160a01b03167f4122d6895ab9fb98433223e7021bbbc0d9a2a5d24acad206a1222343cb78d07f8989426040516126fe939291906158ee565b60405180910390a25050505050505050565b612718610faa565b6001600160a01b0316336001600160a01b0316146127485760405162461bcd60e51b81526004016104b6906153a6565b30612751610faa565b6001600160a01b03161461278e5760008036604051612771929190615354565b604051809103902090505b806127876004612c4f565b0361277c57505b61120d8161365b565b604051630748d63560e31b81526001600160a01b0383811660048301526024820183905260009182917f00000000000000000000000000000000000000000000000000000000000000001690633a46b1a890604401602060405180830381865afa158015612809573d6000803e3d6000fd5b505050506040513d601f19601f8201168201806040525081019061282d9190615458565b600f5460405163fb3551ff60e01b81526001600160a01b0387811660048301529293506000929091169063fb3551ff90602401600060405180830381865afa92505050801561289e57506040513d6000823e601f3d908101601f1916820160405261289b919081019061591d565b60015b156128d657806060015180156128b657508061012001515b156128d45760408101516128d19066038d7ea4c68000615a14565b91505b505b6128e081836155bb565b95945050505050565b6128f1610faa565b6001600160a01b0316336001600160a01b0316146129215760405162461bcd60e51b81526004016104b6906153a6565b3061292a610faa565b6001600160a01b031614612967576000803660405161294a929190615354565b604051809103902090505b806129606004612c4f565b0361295557505b61120d816136fc565b612978612f24565b6001600160a01b0381166129dd5760405162461bcd60e51b815260206004820152602660248201527f4f776e61626c653a206e6577206f776e657220697320746865207a65726f206160448201526564647265737360d01b60648201526084016104b6565b61120d81613256565b6000610fce8261373d565b60006001600160e01b03198216636e665ced60e01b1480610fce5750610fce826137e7565b6000610fce612a23613883565b8360405161190160f01b8152600281019290925260228201526042902090565b6000806000612a54878787876139ae565b91509150612a6181613a72565b5095945050505050565b60008581526003602052604081206001612a8488611703565b6007811115612a9557612a95614de9565b14612aee5760405162461bcd60e51b815260206004820152602360248201527f476f7665726e6f723a20766f7465206e6f742063757272656e746c792061637460448201526269766560e81b60648201526084016104b6565b8054600090612b089088906001600160401b031686613513565b9050612b178888888488613bbc565b8351600003612b6c57866001600160a01b03167fb8e138887d0aa13bab447e82de9d5c1777041ecd21ca36ba824ff1e6c07ddda489888489604051612b5f9493929190615a2b565b60405180910390a26116f8565b866001600160a01b03167fe2babfbac5889a709b63bb7f598b324e08bc5a4fb9ec647fb3cbc9ec07eb87128988848989604051612bad959493929190615a53565b60405180910390a2979650505050505050565b600f5460405163fb3551ff60e01b81526001600160a01b038381166004830152600092169063fb3551ff90602401600060405180830381865afa925050508015612c2c57506040513d6000823e601f3d908101601f19168201604052612c29919081019061591d565b60015b612c3857506000919050565b8060600151801561224f5750610120015192915050565b6000612c6a8254600f81810b600160801b909204900b131590565b15612c8857604051631ed9509560e11b815260040160405180910390fd5b508054600f0b6000818152600180840160205260408220805492905583546fffffffffffffffffffffffffffffffff191692016001600160801b03169190911790915590565b6064811115612d515760405162461bcd60e51b815260206004820152604360248201527f476f7665726e6f72566f74657351756f72756d4672616374696f6e3a2071756f60448201527f72756d4e756d657261746f72206f7665722071756f72756d44656e6f6d696e616064820152623a37b960e91b608482015260a4016104b6565b6000612d5b612256565b90508015801590612d6c5750600754155b15612dd057604080518082019091526000815260079060208101612d8f84613d3e565b6001600160e01b039081169091528254600181018455600093845260209384902083519490930151909116600160201b0263ffffffff909316929092179101555b612dfd612deb612dde6121b6565b65ffffffffffff166130f9565b612df484613d3e565b60079190613da7565b505060408051828152602081018490527f0553476bf02ef2726e8ce5ced78d63e26e602e4a2257b1f559418e24b4633997910160405180910390a15050565b600080612e4b86868686612529565b90506000612e5882611703565b90506004816007811115612e6e57612e6e614de9565b1480612e8b57506005816007811115612e8957612e89614de9565b145b612ea75760405162461bcd60e51b81526004016104b690615417565b60008281526003602052604090819020600201805460ff19166001179055517f712ae1383f79ac853f8d882153778e0260ef8f03b504e2866e0593e04d2b291f90612ef59084815260200190565b60405180910390a1612f0a8288888888613dc2565b612f178288888888613e62565b612a618288888888613e6f565b600e546001600160a01b03163314611bdb5760405162461bcd60e51b815260206004820181905260248201527f4f776e61626c653a2063616c6c6572206973206e6f7420746865206f776e657260448201526064016104b6565b60006128e085858585612f9c60408051602081019091526000815290565b612a6b565b600080612fad83613ea8565b90506004816007811115612fc357612fc3614de9565b14612fce5792915050565b60008381526009602052604090205480612fe9575092915050565b600854604051632ab0f52960e01b8152600481018390526001600160a01b0390911690632ab0f52990602401602060405180830381865afa158015613032573d6000803e3d6000fd5b505050506040513d601f19601f820116820180604052508101906130569190615a99565b15613065575060079392505050565b600854604051632c258a9f60e11b8152600481018390526001600160a01b039091169063584b153e90602401602060405180830381865afa1580156130ae573d6000803e3d6000fd5b505050506040513d601f19601f820116820180604052508101906130d29190615a99565b156130e1575060059392505050565b5060029392505050565b60006128e085858585613fe8565b600063ffffffff82111561315e5760405162461bcd60e51b815260206004820152602660248201527f53616665436173743a2076616c756520646f65736e27742066697420696e203360448201526532206269747360d01b60648201526084016104b6565b5090565b8154600090818160058111156131bf57600061317d8461409a565b613187908561568b565b60008881526020902090915081015463ffffffff90811690871610156131af578091506131bd565b6131ba8160016155bb565b92505b505b60006131cd87878585614182565b90508015613208576131f2876131e460018461568b565b600091825260209091200190565b54600160201b90046001600160e01b03166116f8565b6000979650505050505050565b600a5460408051918252602082018390527fc565b045403dc03c2eea82b81a0465edad9e2e7fc4d97e11421c209da93d7a93910160405180910390a1600a55565b600e80546001600160a01b038381166001600160a01b0319831681179093556040519116919082907f8be0079c531659141344cd1fd0a4f28419497f9722a3daafe3b4186f6b6457e090600090a35050565b805160009060348110156132c0576001915050610fce565b82810160131901516001600160a01b031981166b046e0e4dee0dee6cae47a60f60a31b146132f357600192505050610fce565b60008061330160288561568b565b90505b83811015613378576000806133388884815181106133245761332461569e565b01602001516001600160f81b0319166141e0565b91509150816133505760019650505050505050610fce565b8060ff166004856001600160a01b0316901b179350505080613371906158d5565b9050613304565b50856001600160a01b0316816001600160a01b031614935050505092915050565b60006001600160401b0382111561315e5760405162461bcd60e51b815260206004820152602660248201527f53616665436173743a2076616c756520646f65736e27742066697420696e203660448201526534206269747360d01b60648201526084016104b6565b606060ff831461341b5761341483614272565b9050610fce565b818054613427906153dd565b80601f0160208091040260200160405190810160405280929190818152602001828054613453906153dd565b80156134a05780601f10613475576101008083540402835291602001916134a0565b820191906000526020600020905b81548152906001019060200180831161348357829003601f168201915b50505050509050610fce565b600065ffffffffffff82111561315e5760405162461bcd60e51b815260206004820152602660248201527f53616665436173743a2076616c756520646f65736e27742066697420696e203460448201526538206269747360d01b60648201526084016104b6565b604051630748d63560e31b81526001600160a01b038481166004830152602482018490526000917f000000000000000000000000000000000000000000000000000000000000000090911690633a46b1a890604401602060405180830381865afa158015613585573d6000803e3d6000fd5b505050506040513d601f19601f8201168201806040525081019061224c9190615458565b80546000908015612398576135c3836131e460018461568b565b54600160201b90046001600160e01b031661224f565b600854604080516001600160a01b03928316815291831660208301527f08f74ea46ef7894f65eabfb5e6e695de773a000b47c529ab559178069b226401910160405180910390a1600880546001600160a01b0319166001600160a01b0392909216919091179055565b6060831561365157508161224f565b61224f83836142b1565b600081116136bb5760405162461bcd60e51b815260206004820152602760248201527f476f7665726e6f7253657474696e67733a20766f74696e6720706572696f6420604482015266746f6f206c6f7760c81b60648201526084016104b6565b600b5460408051918252602082018390527f7e3f7f0708a84de9203036abaa450dccc85ad5ff52f78c170f3edb55cf5e8828910160405180910390a1600b55565b600c5460408051918252602082018390527fccb45da8d5717e6c4544694297c4ba5cf151d455c9bb0ed4fc7a38411bc05461910160405180910390a1600c55565b6000606461374a83611954565b604051632394e7a360e21b8152600481018590527f00000000000000000000000000000000000000000000000000000000000000006001600160a01b031690638e539e8c90602401602060405180830381865afa1580156137af573d6000803e3d6000fd5b505050506040513d601f19601f820116820180604052508101906137d39190615458565b6137dd9190615a14565b610fce9190615acc565b600063288ace0360e11b6318df743f60e31b63bf26d89760e01b6379dd796f60e01b6001600160e01b0319861682148061382d57506001600160e01b0319868116908216145b8061384457506001600160e01b0319868116908516145b8061385f57506001600160e01b03198616630271189760e51b145b8061181557506301ffc9a760e01b6001600160e01b03198716149695505050505050565b6000306001600160a01b037f0000000000000000000000000000000000000000000000000000000000000000161480156138dc57507f000000000000000000000000000000000000000000000000000000000000000046145b1561390657507f000000000000000000000000000000000000000000000000000000000000000090565b610fbe604080517f8b73c3c69bb8fe3d512ecc4cf759cc79239f7b179b0ffacaa9a75d522b39400f60208201527f0000000000000000000000000000000000000000000000000000000000000000918101919091527f000000000000000000000000000000000000000000000000000000000000000060608201524660808201523060a082015260009060c00160405160208183030381529060405280519060200120905090565b6000807f7fffffffffffffffffffffffffffffff5d576e7357a4501ddfe92f46681b20a08311156139e55750600090506003613a69565b6040805160008082526020820180845289905260ff881692820192909252606081018690526080810185905260019060a0016020604051602081039080840390855afa158015613a39573d6000803e3d6000fd5b5050604051601f1901519150506001600160a01b038116613a6257600060019250925050613a69565b9150600090505b94509492505050565b6000816004811115613a8657613a86614de9565b03613a8e5750565b6001816004811115613aa257613aa2614de9565b03613aef5760405162461bcd60e51b815260206004820152601860248201527f45434453413a20696e76616c6964207369676e6174757265000000000000000060448201526064016104b6565b6002816004811115613b0357613b03614de9565b03613b505760405162461bcd60e51b815260206004820152601f60248201527f45434453413a20696e76616c6964207369676e6174757265206c656e6774680060448201526064016104b6565b6003816004811115613b6457613b64614de9565b0361120d5760405162461bcd60e51b815260206004820152602260248201527f45434453413a20696e76616c6964207369676e6174757265202773272076616c604482015261756560f01b60648201526084016104b6565b6000858152600d602090815260408083206001600160a01b0388168452600381019092529091205460ff1615613c445760405162461bcd60e51b815260206004820152602760248201527f476f7665726e6f72566f74696e6753696d706c653a20766f746520616c726561604482015266191e4818d85cdd60ca1b60648201526084016104b6565b6001600160a01b03851660009081526003820160205260409020805460ff1916600117905560ff8416613c905782816000016000828254613c8591906155bb565b90915550613d369050565b60001960ff851601613cb05782816001016000828254613c8591906155bb565b60011960ff851601613cd05782816002016000828254613c8591906155bb565b60405162461bcd60e51b815260206004820152603560248201527f476f7665726e6f72566f74696e6753696d706c653a20696e76616c69642076616044820152746c756520666f7220656e756d20566f74655479706560581b60648201526084016104b6565b505050505050565b60006001600160e01b0382111561315e5760405162461bcd60e51b815260206004820152602760248201527f53616665436173743a2076616c756520646f65736e27742066697420696e20326044820152663234206269747360c81b60648201526084016104b6565b600080613db58585856142db565b915091505b935093915050565b30613dcb610faa565b6001600160a01b031614613e5b5760005b8451811015613d3657306001600160a01b0316858281518110613e0157613e0161569e565b60200260200101516001600160a01b031603613e4b57613e4b838281518110613e2c57613e2c61569e565b602002602001015180519060200120600461447a90919063ffffffff16565b613e54816158d5565b9050613ddc565b5050505050565b613e5b85858585856144b6565b30613e78610faa565b6001600160a01b031614613e5b57600454600f81810b600160801b909204900b1315613e5b576000600455613e5b565b6000818152600360205260408120600281015460ff1615613ecc5750600792915050565b6002810154610100900460ff1615613ee75750600292915050565b6000838152600360205260408120546001600160401b031690819003613f4f5760405162461bcd60e51b815260206004820152601d60248201527f476f7665726e6f723a20756e6b6e6f776e2070726f706f73616c20696400000060448201526064016104b6565b6000613f596121b6565b65ffffffffffff169050808210613f7557506000949350505050565b6000858152600360205260409020600101546001600160401b0316818110613fa35750600195945050505050565b613fac8661452a565b8015613fcb57506000868152600d602052604090208054600190910154115b15613fdc5750600495945050505050565b50600395945050505050565b600080613ff786868686614576565b600081815260096020526040902054909150156128e0576008546000828152600960205260409081902054905163c4d252f560e01b81526001600160a01b039092169163c4d252f5916140509160040190815260200190565b600060405180830381600087803b15801561406a57600080fd5b505af115801561407e573d6000803e3d6000fd5b5050506000828152600960205260408120555095945050505050565b6000816000036140ac57506000919050565b600060016140b984614682565b901c6001901b905060018184816140d2576140d2615ab6565b048201901c905060018184816140ea576140ea615ab6565b048201901c9050600181848161410257614102615ab6565b048201901c9050600181848161411a5761411a615ab6565b048201901c9050600181848161413257614132615ab6565b048201901c9050600181848161414a5761414a615ab6565b048201901c9050600181848161416257614162615ab6565b048201901c905061224f8182858161417c5761417c615ab6565b04614716565b60005b818310156141d8576000614199848461472c565b60008781526020902090915063ffffffff86169082015463ffffffff1611156141c4578092506141d2565b6141cf8160016155bb565b93505b50614185565b509392505050565b60008060f883901c602f811180156141fb5750603a8160ff16105b1561421057600194602f199091019350915050565b8060ff166040108015614226575060478160ff16105b1561423b576001946036199091019350915050565b8060ff166060108015614251575060678160ff16105b15614266576001946056199091019350915050565b50600093849350915050565b6060600061427f83614747565b604080516020808252818301909252919250600091906020820181803683375050509182525060208101929092525090565b8151156142c15781518083602001fd5b8060405162461bcd60e51b81526004016104b69190614c36565b8254600090819080156144215760006142f9876131e460018561568b565b60408051808201909152905463ffffffff808216808452600160201b9092046001600160e01b03166020840152919250908716101561437a5760405162461bcd60e51b815260206004820152601b60248201527f436865636b706f696e743a2064656372656173696e67206b657973000000000060448201526064016104b6565b805163ffffffff8088169116036143c2578461439b886131e460018661568b565b80546001600160e01b0392909216600160201b0263ffffffff909216919091179055614411565b6040805180820190915263ffffffff80881682526001600160e01b0380881660208085019182528b54600181018d5560008d81529190912094519151909216600160201b029216919091179101555b602001519250839150613dba9050565b50506040805180820190915263ffffffff80851682526001600160e01b0380851660208085019182528854600181018a5560008a815291822095519251909316600160201b029190931617920191909155905081613dba565b8154600160801b90819004600f0b6000818152600180860160205260409091209390935583546001600160801b03908116939091011602179055565b60085460405163e38335e560e01b81526001600160a01b039091169063e38335e59034906144f19088908890889060009089906004016154ff565b6000604051808303818588803b15801561450a57600080fd5b505af115801561451e573d6000803e3d6000fd5b50505050505050505050565b6000818152600d602052604081206002810154600182015461454c91906155bb565b60008481526003602052604090205461456d906001600160401b03166129e6565b11159392505050565b60008061458586868686612529565b9050600061459282611703565b905060028160078111156145a8576145a8614de9565b141580156145c8575060068160078111156145c5576145c5614de9565b14155b80156145e6575060078160078111156145e3576145e3614de9565b14155b6146325760405162461bcd60e51b815260206004820152601d60248201527f476f7665726e6f723a2070726f706f73616c206e6f742061637469766500000060448201526064016104b6565b60008281526003602052604090819020600201805461ff001916610100179055517f789cf55be980739dad1d0699b93b58e806b51c9d96619bfa8fe0a28abaa7b30c906114919084815260200190565b600080608083901c1561469757608092831c92015b604083901c156146a957604092831c92015b602083901c156146bb57602092831c92015b601083901c156146cd57601092831c92015b600883901c156146df57600892831c92015b600483901c156146f157600492831c92015b600283901c1561470357600292831c92015b600183901c15610fce5760010192915050565b6000818310614725578161224f565b5090919050565b600061473b6002848418615acc565b61224f908484166155bb565b600060ff8216601f811115610fce57604051632cd44ac360e21b815260040160405180910390fd5b60006020828403121561478157600080fd5b81356001600160e01b03198116811461224f57600080fd5b803560ff811681146118dc57600080fd5b60008083601f8401126147bc57600080fd5b5081356001600160401b038111156147d357600080fd5b6020830191508360208285010111156147eb57600080fd5b9250929050565b634e487b7160e01b600052604160045260246000fd5b60405161014081016001600160401b038111828210171561482b5761482b6147f2565b60405290565b604051601f8201601f191681016001600160401b0381118282101715614859576148596147f2565b604052919050565b60006001600160401b0382111561487a5761487a6147f2565b50601f01601f191660200190565b600061489b61489684614861565b614831565b90508281528383830111156148af57600080fd5b828260208301376000602084830101529392505050565b600082601f8301126148d757600080fd5b61224f83833560208501614888565b60008060008060008060008060e0898b03121561490257600080fd5b8835975061491260208a01614799565b965060408901356001600160401b038082111561492e57600080fd5b61493a8c838d016147aa565b909850965060608b013591508082111561495357600080fd5b506149608b828c016148c6565b94505061496f60808a01614799565b925060a0890135915060c089013590509295985092959890939650565b60006001600160401b038211156149a5576149a56147f2565b5060051b60200190565b6001600160a01b038116811461120d57600080fd5b600082601f8301126149d557600080fd5b813560206149e56148968361498c565b82815260059290921b84018101918181019086841115614a0457600080fd5b8286015b84811015614a28578035614a1b816149af565b8352918301918301614a08565b509695505050505050565b600082601f830112614a4457600080fd5b81356020614a546148968361498c565b82815260059290921b84018101918181019086841115614a7357600080fd5b8286015b84811015614a285780358352918301918301614a77565b600082601f830112614a9f57600080fd5b81356020614aaf6148968361498c565b82815260059290921b84018101918181019086841115614ace57600080fd5b8286015b84811015614a285780356001600160401b03811115614af15760008081fd5b614aff8986838b01016148c6565b845250918301918301614ad2565b60008060008060808587031215614b2357600080fd5b84356001600160401b0380821115614b3a57600080fd5b614b46888389016149c4565b95506020870135915080821115614b5c57600080fd5b614b6888838901614a33565b94506040870135915080821115614b7e57600080fd5b614b8a88838901614a8e565b93506060870135915080821115614ba057600080fd5b508501601f81018713614bb257600080fd5b614bc187823560208401614888565b91505092959194509250565b600060208284031215614bdf57600080fd5b5035919050565b60005b83811015614c01578181015183820152602001614be9565b50506000910152565b60008151808452614c22816020860160208601614be6565b601f01601f19169290920160200192915050565b60208152600061224f6020830184614c0a565b600060208284031215614c5b57600080fd5b813561224f816149af565b60008060008060808587031215614c7c57600080fd5b8435614c87816149af565b93506020850135614c97816149af565b92506040850135915060608501356001600160401b03811115614cb957600080fd5b614bc1878288016148c6565b60008060008060808587031215614cdb57600080fd5b84356001600160401b0380821115614cf257600080fd5b614cfe888389016149c4565b95506020870135915080821115614d1457600080fd5b614d2088838901614a33565b94506040870135915080821115614d3657600080fd5b50614d4387828801614a8e565b949793965093946060013593505050565b801515811461120d57600080fd5b60008060408385031215614d7557600080fd5b8235614d80816149af565b91506020830135614d9081614d54565b809150509250929050565b600080600080600060a08688031215614db357600080fd5b85359450614dc360208701614799565b9350614dd160408701614799565b94979396509394606081013594506080013592915050565b634e487b7160e01b600052602160045260246000fd5b60088110614e0f57614e0f614de9565b9052565b60208101610fce8284614dff565b60008060408385031215614e3457600080fd5b823591506020830135614d90816149af565b60008060408385031215614e5957600080fd5b82359150614e6960208401614799565b90509250929050565b600080600080600060808688031215614e8a57600080fd5b85359450614e9a60208701614799565b935060408601356001600160401b0380821115614eb657600080fd5b614ec289838a016147aa565b90955093506060880135915080821115614edb57600080fd5b50614ee8888289016148c6565b9150509295509295909350565b600080600060408486031215614f0a57600080fd5b83356001600160401b03811115614f2057600080fd5b614f2c868287016147aa565b909790965060209590950135949350505050565b60008060008060608587031215614f5657600080fd5b84359350614f6660208601614799565b925060408501356001600160401b03811115614f8157600080fd5b614f8d878288016147aa565b95989497509550505050565b600081518084526020808501945080840160005b83811015614fc957815187529582019590820190600101614fad565b509495945050505050565b60ff60f81b8816815260e060208201526000614ff360e0830189614c0a565b82810360408401526150058189614c0a565b606084018890526001600160a01b038716608085015260a0840186905283810360c085015290506110c98185614f99565b60008060006060848603121561504b57600080fd5b8335615056816149af565b92506020840135915060408401356001600160401b0381111561507857600080fd5b615084868287016148c6565b9150509250925092565b60068110614e0f57614e0f614de9565b60208101610fce828461508e565b600080600080600060a086880312156150c457600080fd5b85356150cf816149af565b945060208601356150df816149af565b935060408601356001600160401b03808211156150fb57600080fd5b61510789838a01614a33565b9450606088013591508082111561511d57600080fd5b61512989838a01614a33565b93506080880135915080821115614edb57600080fd5b60a0810161514d828861508e565b61515a6020830187614dff565b8460408301528360608301528260808301529695505050505050565b6000806000806060858703121561518c57600080fd5b8435615197816149af565b93506020850135925060408501356001600160401b03811115614f8157600080fd5b60008083601f8401126151cb57600080fd5b5081356001600160401b038111156151e257600080fd5b6020830191508360208260051b85010111156147eb57600080fd5b6000806000806000806000806080898b03121561521957600080fd5b88356001600160401b038082111561523057600080fd5b61523c8c838d016147aa565b909a50985060208b013591508082111561525557600080fd5b6152618c838d016151b9565b909850965060408b013591508082111561527a57600080fd5b6152868c838d016151b9565b909650945060608b013591508082111561529f57600080fd5b506152ac8b828c016151b9565b999c989b5096995094979396929594505050565b600080604083850312156152d357600080fd5b82356152de816149af565b946020939093013593505050565b600080600080600060a0868803121561530457600080fd5b853561530f816149af565b9450602086013561531f816149af565b9350604086013592506060860135915060808601356001600160401b0381111561534857600080fd5b614ee8888289016148c6565b8183823760009101908152919050565b60208082526022908201527f4e6f7420617574686f72697a656420746f206372656174652070726f706f73616040820152616c7360f01b606082015260800190565b60208082526018908201527f476f7665726e6f723a206f6e6c79476f7665726e616e63650000000000000000604082015260600190565b600181811c908216806153f157607f821691505b60208210810361541157634e487b7160e01b600052602260045260246000fd5b50919050565b60208082526021908201527f476f7665726e6f723a2070726f706f73616c206e6f74207375636365737366756040820152601b60fa1b606082015260800190565b60006020828403121561546a57600080fd5b5051919050565b600081518084526020808501945080840160005b83811015614fc95781516001600160a01b031687529582019590820190600101615485565b600081518084526020808501808196508360051b8101915082860160005b858110156154f25782840389526154e0848351614c0a565b988501989350908401906001016154c8565b5091979650505050505050565b60a08152600061551260a0830188615471565b82810360208401526155248188614f99565b9050828103604084015261553881876154aa565b60608401959095525050608001529392505050565b60c08152600061556060c0830189615471565b82810360208401526155728189614f99565b9050828103604084015261558681886154aa565b60608401969096525050608081019290925260a0909101529392505050565b634e487b7160e01b600052601160045260246000fd5b80820180821115610fce57610fce6155a5565b60208082526024908201527f4e6f7420617574686f72697a656420666f7220656d657267656e637920616374604082015263696f6e7360e01b606082015260800190565b600082601f83011261562357600080fd5b815161563161489682614861565b81815284602083860101111561564657600080fd5b611902826020830160208701614be6565b60006020828403121561566957600080fd5b81516001600160401b0381111561567f57600080fd5b61190284828501615612565b81810381811115610fce57610fce6155a5565b634e487b7160e01b600052603260045260246000fd5b81835281816020850137506000828201602090810191909152601f909101601f19169091010190565b6060815260006156f16060830186886156b4565b6020830194909452506040015292915050565b60208082526021908201527f476f7665726e6f723a20696e76616c69642070726f706f73616c206c656e67746040820152600d60fb1b606082015260800190565b60006101208b8352602060018060a01b038c168185015281604085015261576e8285018c615471565b91508382036060850152615782828b614f99565b915083820360808501528189518084528284019150828160051b850101838c0160005b838110156157d357601f198784030185526157c1838351614c0a565b948601949250908501906001016157a5565b505086810360a08801526157e7818c6154aa565b9450505050508560c08401528460e084015282810361010084015261580c8185614c0a565b9c9b505050505050505050505050565b60006020828403121561582e57600080fd5b815165ffffffffffff8116811461224f57600080fd5b6080815260006158576080830187615471565b82810360208401526158698187614f99565b9050828103604084015261587d81866154aa565b91505082606083015295945050505050565b6000808335601e198436030181126158a657600080fd5b8301803591506001600160401b038211156158c057600080fd5b6020019150368190038213156147eb57600080fd5b6000600182016158e7576158e76155a5565b5060010190565b6040815260006159026040830185876156b4565b9050826020830152949350505050565b80516118dc81614d54565b60006020828403121561592f57600080fd5b81516001600160401b038082111561594657600080fd5b90830190610140828603121561595b57600080fd5b615963614808565b82518281111561597257600080fd5b61597e87828601615612565b82525060208301518281111561599357600080fd5b61599f87828601615612565b602083015250604083015160408201526159bb60608401615912565b60608201526080830151608082015260a083015160a082015260c083015160c082015260e083015160e0820152610100915081830151828201526101209150615a05828401615912565b91810191909152949350505050565b8082028115828204841417610fce57610fce6155a5565b84815260ff841660208201528260408201526080606082015260006118156080830184614c0a565b85815260ff8516602082015283604082015260a060608201526000615a7b60a0830185614c0a565b8281036080840152615a8d8185614c0a565b98975050505050505050565b600060208284031215615aab57600080fd5b815161224f81614d54565b634e487b7160e01b600052601260045260246000fd5b600082615ae957634e487b7160e01b600052601260045260246000fd5b50049056fe476f7665726e6f723a2072656c617920726576657274656420776974686f7574206d657373616765a2646970667358221220b284ae880d210c7019a44ed01dbd77d466aaa70bbaf1dc3dce503a0d1d5d112264736f6c63430008130033",
  "linkReferences": {},
  "deployedLinkReferences": {}
}